{"abi":[{"type":"function","name":"count","inputs":[],"outputs":[],"stateMutability":"nonpayable"},{"type":"function","name":"countFail","inputs":[],"outputs":[],"stateMutability":"pure"},{"type":"function","name":"counters","inputs":[{"name":"","type":"address","internalType":"address"}],"outputs":[{"name":"","type":"uint256","internalType":"uint256"}],"stateMutability":"view"},{"type":"function","name":"gasWaster","inputs":[{"name":"repeat","type":"uint256","internalType":"uint256"},{"name":"","type":"string","internalType":"string"}],"outputs":[],"stateMutability":"nonpayable"},{"type":"function","name":"justemit","inputs":[],"outputs":[],"stateMutability":"nonpayable"},{"type":"function","name":"offset","inputs":[],"outputs":[{"name":"","type":"uint256","internalType":"uint256"}],"stateMutability":"view"},{"type":"function","name":"xxx","inputs":[{"name":"","type":"uint256","internalType":"uint256"}],"outputs":[{"name":"","type":"uint256","internalType":"uint256"}],"stateMutability":"view"},{"type":"event","name":"CalledFrom","inputs":[{"name":"sender","type":"address","indexed":false,"internalType":"address"}],"anonymous":false}],"bytecode":{"object":"0x6080604052348015600e575f5ffd5b506106088061001c5f395ff3fe608060405234801561000f575f5ffd5b506004361061007b575f3560e01c8063a5e9585f11610059578063a5e9585f146100af578063be65ab8c146100df578063caece6931461010f578063d5556544146101195761007b565b806306661abd1461007f578063278ddd3c14610089578063a1b4689014610093575b5f5ffd5b610087610137565b005b6100916101c2565b005b6100ad60048036038101906100a89190610356565b6101fb565b005b6100c960048036038101906100c491906103b3565b610250565b6040516100d691906103ed565b60405180910390f35b6100f960048036038101906100f49190610460565b610265565b60405161010691906103ed565b60405180910390f35b610117610279565b005b6101216102b4565b60405161012e91906103ed565b60405180910390f35b60015f5f3373ffffffffffffffffffffffffffffffffffffffff1673ffffffffffffffffffffffffffffffffffffffff1681526020019081526020015f205461018091906104b8565b5f5f3373ffffffffffffffffffffffffffffffffffffffff1673ffffffffffffffffffffffffffffffffffffffff1681526020019081526020015f2081905550565b7ffb3b4d6258432a9a3d78dd9bffbcb6cfb1bd94f58da35fd530d08da7d1d05832336040516101f191906104fa565b60405180910390a1565b5f600190505b83811161024a5760025f81548092919061021a90610513565b91905055508060015f60025481526020019081526020015f2081905550808061024290610513565b915050610201565b50505050565b6001602052805f5260405f205f915090505481565b5f602052805f5260405f205f915090505481565b6040517f08c379a00000000000000000000000000000000000000000000000000000000081526004016102ab906105b4565b60405180910390fd5b60025481565b5f5ffd5b5f5ffd5b5f819050919050565b6102d4816102c2565b81146102de575f5ffd5b50565b5f813590506102ef816102cb565b92915050565b5f5ffd5b5f5ffd5b5f5ffd5b5f5f83601f840112610316576103156102f5565b5b8235905067ffffffffffffffff811115610333576103326102f9565b5b60208301915083600182028301111561034f5761034e6102fd565b5b9250929050565b5f5f5f6040848603121561036d5761036c6102ba565b5b5f61037a868287016102e1565b935050602084013567ffffffffffffffff81111561039b5761039a6102be565b5b6103a786828701610301565b92509250509250925092565b5f602082840312156103c8576103c76102ba565b5b5f6103d5848285016102e1565b91505092915050565b6103e7816102c2565b82525050565b5f6020820190506104005f8301846103de565b92915050565b5f73ffffffffffffffffffffffffffffffffffffffff82169050919050565b5f61042f82610406565b9050919050565b61043f81610425565b8114610449575f5ffd5b50565b5f8135905061045a81610436565b92915050565b5f60208284031215610475576104746102ba565b5b5f6104828482850161044c565b91505092915050565b7f4e487b71000000000000000000000000000000000000000000000000000000005f52601160045260245ffd5b5f6104c2826102c2565b91506104cd836102c2565b92508282019050808211156104e5576104e461048b565b5b92915050565b6104f481610425565b82525050565b5f60208201905061050d5f8301846104eb565b92915050565b5f61051d826102c2565b91507fffffffffffffffffffffffffffffffffffffffffffffffffffffffffffffffff820361054f5761054e61048b565b5b600182019050919050565b5f82825260208201905092915050565b7f636f756e74206661696c656400000000000000000000000000000000000000005f82015250565b5f61059e600c8361055a565b91506105a98261056a565b602082019050919050565b5f6020820190508181035f8301526105cb81610592565b905091905056fea26469706673582212201d964d2e6f6f2bd3e24b22494bff854ad99f2a58390451e8c2fca5762424103164736f6c634300081e0033","linkReferences":{}},"methodIdentifiers":{"count()":"06661abd","countFail()":"caece693","counters(address)":"be65ab8c","gasWaster(uint256,string)":"a1b46890","justemit()":"278ddd3c","offset()":"d5556544","xxx(uint256)":"a5e9585f"},"id":36}