{"abi":[{"type":"constructor","inputs":[{"name":"_entryPoint","type":"address","internalType":"contract IEntryPoint"}],"stateMutability":"nonpayable"},{"type":"function","name":"acceptOwnership","inputs":[],"outputs":[],"stateMutability":"nonpayable"},{"type":"function","name":"addStake","inputs":[{"name":"unstakeDelaySec","type":"uint32","internalType":"uint32"}],"outputs":[],"stateMutability":"payable"},{"type":"function","name":"deposit","inputs":[],"outputs":[],"stateMutability":"payable"},{"type":"function","name":"entryPoint","inputs":[],"outputs":[{"name":"","type":"address","internalType":"contract IEntryPoint"}],"stateMutability":"view"},{"type":"function","name":"getDeposit","inputs":[],"outputs":[{"name":"","type":"uint256","internalType":"uint256"}],"stateMutability":"view"},{"type":"function","name":"owner","inputs":[],"outputs":[{"name":"","type":"address","internalType":"address"}],"stateMutability":"view"},{"type":"function","name":"pendingOwner","inputs":[],"outputs":[{"name":"","type":"address","internalType":"address"}],"stateMutability":"view"},{"type":"function","name":"postOp","inputs":[{"name":"mode","type":"uint8","internalType":"enum IPaymaster.PostOpMode"},{"name":"context","type":"bytes","internalType":"bytes"},{"name":"actualGasCost","type":"uint256","internalType":"uint256"},{"name":"actualUserOpFeePerGas","type":"uint256","internalType":"uint256"}],"outputs":[],"stateMutability":"nonpayable"},{"type":"function","name":"renounceOwnership","inputs":[],"outputs":[],"stateMutability":"nonpayable"},{"type":"function","name":"setContext","inputs":[{"name":"_context","type":"bytes","internalType":"bytes"}],"outputs":[],"stateMutability":"nonpayable"},{"type":"function","name":"theContext","inputs":[],"outputs":[{"name":"","type":"bytes","internalType":"bytes"}],"stateMutability":"view"},{"type":"function","name":"transferOwnership","inputs":[{"name":"newOwner","type":"address","internalType":"address"}],"outputs":[],"stateMutability":"nonpayable"},{"type":"function","name":"unlockStake","inputs":[],"outputs":[],"stateMutability":"nonpayable"},{"type":"function","name":"validatePaymasterUserOp","inputs":[{"name":"userOp","type":"tuple","internalType":"struct PackedUserOperation","components":[{"name":"sender","type":"address","internalType":"address"},{"name":"nonce","type":"uint256","internalType":"uint256"},{"name":"initCode","type":"bytes","internalType":"bytes"},{"name":"callData","type":"bytes","internalType":"bytes"},{"name":"accountGasLimits","type":"bytes32","internalType":"bytes32"},{"name":"preVerificationGas","type":"uint256","internalType":"uint256"},{"name":"gasFees","type":"bytes32","internalType":"bytes32"},{"name":"paymasterAndData","type":"bytes","internalType":"bytes"},{"name":"signature","type":"bytes","internalType":"bytes"}]},{"name":"userOpHash","type":"bytes32","internalType":"bytes32"},{"name":"maxCost","type":"uint256","internalType":"uint256"}],"outputs":[{"name":"context","type":"bytes","internalType":"bytes"},{"name":"validationData","type":"uint256","internalType":"uint256"}],"stateMutability":"nonpayable"},{"type":"function","name":"withdrawStake","inputs":[{"name":"withdrawAddress","type":"address","internalType":"address payable"}],"outputs":[],"stateMutability":"nonpayable"},{"type":"function","name":"withdrawTo","inputs":[{"name":"withdrawAddress","type":"address","internalType":"address payable"},{"name":"amount","type":"uint256","internalType":"uint256"}],"outputs":[],"stateMutability":"nonpayable"},{"type":"event","name":"OwnershipTransferStarted","inputs":[{"name":"previousOwner","type":"address","indexed":true,"internalType":"address"},{"name":"newOwner","type":"address","indexed":true,"internalType":"address"}],"anonymous":false},{"type":"event","name":"OwnershipTransferred","inputs":[{"name":"previousOwner","type":"address","indexed":true,"internalType":"address"},{"name":"newOwner","type":"address","indexed":true,"internalType":"address"}],"anonymous":false},{"type":"event","name":"PostOpActualGasCost","inputs":[{"name":"actualGasCost","type":"uint256","indexed":false,"internalType":"uint256"},{"name":"context","type":"bytes","indexed":false,"internalType":"bytes"},{"name":"isSame","type":"bool","indexed":false,"internalType":"bool"}],"anonymous":false},{"type":"error","name":"ERC165Error","inputs":[{"name":"entryPoint","type":"address","internalType":"address"},{"name":"interfaceId","type":"bytes4","internalType":"bytes4"}]},{"type":"error","name":"MustOverride","inputs":[]},{"type":"error","name":"NotFromEntryPoint","inputs":[{"name":"msgSender","type":"address","internalType":"address"},{"name":"entity","type":"address","internalType":"address"},{"name":"entryPoint","type":"address","internalType":"address"}]},{"type":"error","name":"OwnableInvalidOwner","inputs":[{"name":"owner","type":"address","internalType":"address"}]},{"type":"error","name":"OwnableUnauthorizedAccount","inputs":[{"name":"account","type":"address","internalType":"address"}]}],"bytecode":{"object":"0x60a060405234801561000f575f5ffd5b50604051611fea380380611fea833981810160405281019061003191906103e8565b808033805f73ffffffffffffffffffffffffffffffffffffffff168173ffffffffffffffffffffffffffffffffffffffff16036100a5575f6040517f1e4fbdf700000000000000000000000000000000000000000000000000000000815260040161009c9190610422565b60405180910390fd5b6100b48161018860201b60201c565b506100c4826101be60201b60201c565b8173ffffffffffffffffffffffffffffffffffffffff1660808173ffffffffffffffffffffffffffffffffffffffff168152505050503373ffffffffffffffffffffffffffffffffffffffff163273ffffffffffffffffffffffffffffffffffffffff161461013d5761013c3261018860201b60201c565b5b506101826040518060400160405280600181526020017f31000000000000000000000000000000000000000000000000000000000000008152506102a560201b60201c565b50610821565b60015f6101000a81549073ffffffffffffffffffffffffffffffffffffffff02191690556101bb816102b860201b60201c565b50565b5f7f283f54890000000000000000000000000000000000000000000000000000000090508173ffffffffffffffffffffffffffffffffffffffff166301ffc9a7826040518263ffffffff1660e01b815260040161021b9190610475565b602060405180830381865afa158015610236573d5f5f3e3d5ffd5b505050506040513d601f19601f8201168201806040525081019061025a91906104c3565b8282909161029f576040517f65d25c710000000000000000000000000000000000000000000000000000000081526004016102969291906104ee565b60405180910390fd5b50505050565b80600290816102b49190610752565b5050565b5f5f5f9054906101000a900473ffffffffffffffffffffffffffffffffffffffff169050815f5f6101000a81548173ffffffffffffffffffffffffffffffffffffffff021916908373ffffffffffffffffffffffffffffffffffffffff1602179055508173ffffffffffffffffffffffffffffffffffffffff168173ffffffffffffffffffffffffffffffffffffffff167f8be0079c531659141344cd1fd0a4f28419497f9722a3daafe3b4186f6b6457e060405160405180910390a35050565b5f5ffd5b5f73ffffffffffffffffffffffffffffffffffffffff82169050919050565b5f6103a68261037d565b9050919050565b5f6103b78261039c565b9050919050565b6103c7816103ad565b81146103d1575f5ffd5b50565b5f815190506103e2816103be565b92915050565b5f602082840312156103fd576103fc610379565b5b5f61040a848285016103d4565b91505092915050565b61041c8161039c565b82525050565b5f6020820190506104355f830184610413565b92915050565b5f7fffffffff0000000000000000000000000000000000000000000000000000000082169050919050565b61046f8161043b565b82525050565b5f6020820190506104885f830184610466565b92915050565b5f8115159050919050565b6104a28161048e565b81146104ac575f5ffd5b50565b5f815190506104bd81610499565b92915050565b5f602082840312156104d8576104d7610379565b5b5f6104e5848285016104af565b91505092915050565b5f6040820190506105015f830185610413565b61050e6020830184610466565b9392505050565b5f81519050919050565b7f4e487b71000000000000000000000000000000000000000000000000000000005f52604160045260245ffd5b7f4e487b71000000000000000000000000000000000000000000000000000000005f52602260045260245ffd5b5f600282049050600182168061059057607f821691505b6020821081036105a3576105a261054c565b5b50919050565b5f819050815f5260205f209050919050565b5f6020601f8301049050919050565b5f82821b905092915050565b5f600883026106057fffffffffffffffffffffffffffffffffffffffffffffffffffffffffffffffff826105ca565b61060f86836105ca565b95508019841693508086168417925050509392505050565b5f819050919050565b5f819050919050565b5f61065361064e61064984610627565b610630565b610627565b9050919050565b5f819050919050565b61066c83610639565b6106806106788261065a565b8484546105d6565b825550505050565b5f5f905090565b610697610688565b6106a2818484610663565b505050565b5b818110156106c5576106ba5f8261068f565b6001810190506106a8565b5050565b601f82111561070a576106db816105a9565b6106e4846105bb565b810160208510156106f3578190505b6107076106ff856105bb565b8301826106a7565b50505b505050565b5f82821c905092915050565b5f61072a5f198460080261070f565b1980831691505092915050565b5f610742838361071b565b9150826002028217905092915050565b61075b82610515565b67ffffffffffffffff8111156107745761077361051f565b5b61077e8254610579565b6107898282856106c9565b5f60209050601f8311600181146107ba575f84156107a8578287015190505b6107b28582610737565b865550610819565b601f1984166107c8866105a9565b5f5b828110156107ef578489015182556001820191506020850194506020810190506107ca565b8683101561080c5784890151610808601f89168261071b565b8355505b6001600288020188555050505b505050505050565b6080516117aa6108405f395f81816105d201526106dd01526117aa5ff3fe6080604052600436106100f2575f3560e01c8063ae1df29011610089578063c399ec8811610058578063c399ec88146102af578063d0e30db0146102d9578063e30c3978146102e3578063f2fde38b1461030d576100f2565b8063ae1df2901461021d578063b0d691fe14610247578063bb9fe6bf14610271578063c23a5cea14610287576100f2565b8063715018a6116100c5578063715018a61461019f57806379ba5097146101b55780637c627b21146101cb5780638da5cb5b146101f3576100f2565b80630396cb60146100f6578063205c2878146101125780632f7482be1461013a57806352b7512c14610162575b5f5ffd5b610110600480360381019061010b9190610c24565b610335565b005b34801561011d575f5ffd5b5061013860048036038101906101339190610cdc565b6103af565b005b348015610145575f5ffd5b50610160600480360381019061015b9190610e56565b61042a565b005b34801561016d575f5ffd5b5061018860048036038101906101839190610ef3565b61043d565b604051610196929190610fce565b60405180910390f35b3480156101aa575f5ffd5b506101b361045f565b005b3480156101c0575f5ffd5b506101c9610472565b005b3480156101d6575f5ffd5b506101f160048036038101906101ec919061107c565b610500565b005b3480156101fe575f5ffd5b5061020761051c565b6040516102149190611120565b60405180910390f35b348015610228575f5ffd5b50610231610543565b60405161023e9190611139565b60405180910390f35b348015610252575f5ffd5b5061025b6105cf565b60405161026891906111b4565b60405180910390f35b34801561027c575f5ffd5b506102856105f6565b005b348015610292575f5ffd5b506102ad60048036038101906102a891906111cd565b610662565b005b3480156102ba575f5ffd5b506102c36106da565b6040516102d091906111f8565b60405180910390f35b6102e1610778565b005b3480156102ee575f5ffd5b506102f76107e9565b6040516103049190611120565b60405180910390f35b348015610318575f5ffd5b50610333600480360381019061032e919061123b565b610811565b005b61033d6108bd565b6103456105cf565b73ffffffffffffffffffffffffffffffffffffffff16630396cb6034836040518363ffffffff1660e01b815260040161037e9190611275565b5f604051808303818588803b158015610395575f5ffd5b505af11580156103a7573d5f5f3e3d5ffd5b505050505050565b6103b76108bd565b6103bf6105cf565b73ffffffffffffffffffffffffffffffffffffffff1663205c287883836040518363ffffffff1660e01b81526004016103f992919061129d565b5f604051808303815f87803b158015610410575f5ffd5b505af1158015610422573d5f5f3e3d5ffd5b505050505050565b806002908161043991906114b8565b5050565b60605f610448610944565b6104538585856109ce565b91509150935093915050565b6104676108bd565b6104705f610a6a565b565b5f61047b610a9a565b90508073ffffffffffffffffffffffffffffffffffffffff1661049c6107e9565b73ffffffffffffffffffffffffffffffffffffffff16146104f457806040517f118cdaa70000000000000000000000000000000000000000000000000000000081526004016104eb9190611120565b60405180910390fd5b6104fd81610a6a565b50565b610508610944565b6105158585858585610aa1565b5050505050565b5f5f5f9054906101000a900473ffffffffffffffffffffffffffffffffffffffff16905090565b60028054610550906112f1565b80601f016020809104026020016040519081016040528092919081815260200182805461057c906112f1565b80156105c75780601f1061059e576101008083540402835291602001916105c7565b820191905f5260205f20905b8154815290600101906020018083116105aa57829003601f168201915b505050505081565b5f7f0000000000000000000000000000000000000000000000000000000000000000905090565b6105fe6108bd565b6106066105cf565b73ffffffffffffffffffffffffffffffffffffffff1663bb9fe6bf6040518163ffffffff1660e01b81526004015f604051808303815f87803b15801561064a575f5ffd5b505af115801561065c573d5f5f3e3d5ffd5b50505050565b61066a6108bd565b6106726105cf565b73ffffffffffffffffffffffffffffffffffffffff1663c23a5cea826040518263ffffffff1660e01b81526004016106aa9190611587565b5f604051808303815f87803b1580156106c1575f5ffd5b505af11580156106d3573d5f5f3e3d5ffd5b5050505050565b5f7f000000000000000000000000000000000000000000000000000000000000000073ffffffffffffffffffffffffffffffffffffffff166370a08231306040518263ffffffff1660e01b81526004016107349190611120565b602060405180830381865afa15801561074f573d5f5f3e3d5ffd5b505050506040513d601f19601f8201168201806040525081019061077391906115b4565b905090565b6107806105cf565b73ffffffffffffffffffffffffffffffffffffffff1663b760faf934306040518363ffffffff1660e01b81526004016107b99190611120565b5f604051808303818588803b1580156107d0575f5ffd5b505af11580156107e2573d5f5f3e3d5ffd5b5050505050565b5f60015f9054906101000a900473ffffffffffffffffffffffffffffffffffffffff16905090565b6108196108bd565b8060015f6101000a81548173ffffffffffffffffffffffffffffffffffffffff021916908373ffffffffffffffffffffffffffffffffffffffff1602179055508073ffffffffffffffffffffffffffffffffffffffff1661087861051c565b73ffffffffffffffffffffffffffffffffffffffff167f38d16b8cac22d99fc7c124b9cd0de2d3fa1faef420bfe791d8c362d765e2270060405160405180910390a350565b6108c5610a9a565b73ffffffffffffffffffffffffffffffffffffffff166108e361051c565b73ffffffffffffffffffffffffffffffffffffffff161461094257610906610a9a565b6040517f118cdaa70000000000000000000000000000000000000000000000000000000081526004016109399190611120565b60405180910390fd5b565b61094c6105cf565b73ffffffffffffffffffffffffffffffffffffffff163373ffffffffffffffffffffffffffffffffffffffff161433306109846105cf565b9091926109c9576040517ffe34a6d30000000000000000000000000000000000000000000000000000000081526004016109c0939291906115df565b60405180910390fd5b505050565b60605f60025f8180546109e0906112f1565b80601f0160208091040260200160405190810160405280929190818152602001828054610a0c906112f1565b8015610a575780601f10610a2e57610100808354040283529160200191610a57565b820191905f5260205f20905b815481529060010190602001808311610a3a57829003601f168201915b5050505050915091509150935093915050565b60015f6101000a81549073ffffffffffffffffffffffffffffffffffffffff0219169055610a9781610b19565b50565b5f33905090565b5f6002604051610ab1919061169e565b60405180910390208585604051610ac99291906116d8565b60405180910390201490507ff81adbe9c321ca1427177a26886e2691f9450366d6828f585f8218113bd7522b83868684604051610b099493929190611736565b60405180910390a1505050505050565b5f5f5f9054906101000a900473ffffffffffffffffffffffffffffffffffffffff169050815f5f6101000a81548173ffffffffffffffffffffffffffffffffffffffff021916908373ffffffffffffffffffffffffffffffffffffffff1602179055508173ffffffffffffffffffffffffffffffffffffffff168173ffffffffffffffffffffffffffffffffffffffff167f8be0079c531659141344cd1fd0a4f28419497f9722a3daafe3b4186f6b6457e060405160405180910390a35050565b5f604051905090565b5f5ffd5b5f5ffd5b5f63ffffffff82169050919050565b610c0381610beb565b8114610c0d575f5ffd5b50565b5f81359050610c1e81610bfa565b92915050565b5f60208284031215610c3957610c38610be3565b5b5f610c4684828501610c10565b91505092915050565b5f73ffffffffffffffffffffffffffffffffffffffff82169050919050565b5f610c7882610c4f565b9050919050565b610c8881610c6e565b8114610c92575f5ffd5b50565b5f81359050610ca381610c7f565b92915050565b5f819050919050565b610cbb81610ca9565b8114610cc5575f5ffd5b50565b5f81359050610cd681610cb2565b92915050565b5f5f60408385031215610cf257610cf1610be3565b5b5f610cff85828601610c95565b9250506020610d1085828601610cc8565b9150509250929050565b5f5ffd5b5f5ffd5b5f601f19601f8301169050919050565b7f4e487b71000000000000000000000000000000000000000000000000000000005f52604160045260245ffd5b610d6882610d22565b810181811067ffffffffffffffff82111715610d8757610d86610d32565b5b80604052505050565b5f610d99610bda565b9050610da58282610d5f565b919050565b5f67ffffffffffffffff821115610dc457610dc3610d32565b5b610dcd82610d22565b9050602081019050919050565b828183375f83830152505050565b5f610dfa610df584610daa565b610d90565b905082815260208101848484011115610e1657610e15610d1e565b5b610e21848285610dda565b509392505050565b5f82601f830112610e3d57610e3c610d1a565b5b8135610e4d848260208601610de8565b91505092915050565b5f60208284031215610e6b57610e6a610be3565b5b5f82013567ffffffffffffffff811115610e8857610e87610be7565b5b610e9484828501610e29565b91505092915050565b5f5ffd5b5f6101208284031215610eb757610eb6610e9d565b5b81905092915050565b5f819050919050565b610ed281610ec0565b8114610edc575f5ffd5b50565b5f81359050610eed81610ec9565b92915050565b5f5f5f60608486031215610f0a57610f09610be3565b5b5f84013567ffffffffffffffff811115610f2757610f26610be7565b5b610f3386828701610ea1565b9350506020610f4486828701610edf565b9250506040610f5586828701610cc8565b9150509250925092565b5f81519050919050565b5f82825260208201905092915050565b8281835e5f83830152505050565b5f610f9182610f5f565b610f9b8185610f69565b9350610fab818560208601610f79565b610fb481610d22565b840191505092915050565b610fc881610ca9565b82525050565b5f6040820190508181035f830152610fe68185610f87565b9050610ff56020830184610fbf565b9392505050565b60038110611008575f5ffd5b50565b5f8135905061101981610ffc565b92915050565b5f5ffd5b5f5ffd5b5f5f83601f84011261103c5761103b610d1a565b5b8235905067ffffffffffffffff8111156110595761105861101f565b5b60208301915083600182028301111561107557611074611023565b5b9250929050565b5f5f5f5f5f6080868803121561109557611094610be3565b5b5f6110a28882890161100b565b955050602086013567ffffffffffffffff8111156110c3576110c2610be7565b5b6110cf88828901611027565b945094505060406110e288828901610cc8565b92505060606110f388828901610cc8565b9150509295509295909350565b5f61110a82610c4f565b9050919050565b61111a81611100565b82525050565b5f6020820190506111335f830184611111565b92915050565b5f6020820190508181035f8301526111518184610f87565b905092915050565b5f819050919050565b5f61117c61117761117284610c4f565b611159565b610c4f565b9050919050565b5f61118d82611162565b9050919050565b5f61119e82611183565b9050919050565b6111ae81611194565b82525050565b5f6020820190506111c75f8301846111a5565b92915050565b5f602082840312156111e2576111e1610be3565b5b5f6111ef84828501610c95565b91505092915050565b5f60208201905061120b5f830184610fbf565b92915050565b61121a81611100565b8114611224575f5ffd5b50565b5f8135905061123581611211565b92915050565b5f602082840312156112505761124f610be3565b5b5f61125d84828501611227565b91505092915050565b61126f81610beb565b82525050565b5f6020820190506112885f830184611266565b92915050565b61129781610c6e565b82525050565b5f6040820190506112b05f83018561128e565b6112bd6020830184610fbf565b9392505050565b7f4e487b71000000000000000000000000000000000000000000000000000000005f52602260045260245ffd5b5f600282049050600182168061130857607f821691505b60208210810361131b5761131a6112c4565b5b50919050565b5f819050815f5260205f209050919050565b5f6020601f8301049050919050565b5f82821b905092915050565b5f6008830261137d7fffffffffffffffffffffffffffffffffffffffffffffffffffffffffffffffff82611342565b6113878683611342565b95508019841693508086168417925050509392505050565b5f6113b96113b46113af84610ca9565b611159565b610ca9565b9050919050565b5f819050919050565b6113d28361139f565b6113e66113de826113c0565b84845461134e565b825550505050565b5f5f905090565b6113fd6113ee565b6114088184846113c9565b505050565b5b8181101561142b576114205f826113f5565b60018101905061140e565b5050565b601f8211156114705761144181611321565b61144a84611333565b81016020851015611459578190505b61146d61146585611333565b83018261140d565b50505b505050565b5f82821c905092915050565b5f6114905f1984600802611475565b1980831691505092915050565b5f6114a88383611481565b9150826002028217905092915050565b6114c182610f5f565b67ffffffffffffffff8111156114da576114d9610d32565b5b6114e482546112f1565b6114ef82828561142f565b5f60209050601f831160018114611520575f841561150e578287015190505b611518858261149d565b86555061157f565b601f19841661152e86611321565b5f5b8281101561155557848901518255600182019150602085019450602081019050611530565b86831015611572578489015161156e601f891682611481565b8355505b6001600288020188555050505b505050505050565b5f60208201905061159a5f83018461128e565b92915050565b5f815190506115ae81610cb2565b92915050565b5f602082840312156115c9576115c8610be3565b5b5f6115d6848285016115a0565b91505092915050565b5f6060820190506115f25f830186611111565b6115ff6020830185611111565b61160c6040830184611111565b949350505050565b5f81905092915050565b5f815461162a816112f1565b6116348186611614565b9450600182165f811461164e576001811461166357611695565b60ff1983168652811515820286019350611695565b61166c85611321565b5f5b8381101561168d5781548189015260018201915060208101905061166e565b838801955050505b50505092915050565b5f6116a9828461161e565b915081905092915050565b5f6116bf8385611614565b93506116cc838584610dda565b82840190509392505050565b5f6116e48284866116b4565b91508190509392505050565b5f6116fb8385610f69565b9350611708838584610dda565b61171183610d22565b840190509392505050565b5f8115159050919050565b6117308161171c565b82525050565b5f6060820190506117495f830187610fbf565b818103602083015261175c8185876116f0565b905061176b6040830184611727565b9594505050505056fea26469706673582212205a346ce5eeed273afb51016ff87ac4a543ee5a937d186dec3f13e44b9fef5d8564736f6c634300081e0033","linkReferences":{}},"methodIdentifiers":{"acceptOwnership()":"79ba5097","addStake(uint32)":"0396cb60","deposit()":"d0e30db0","entryPoint()":"b0d691fe","getDeposit()":"c399ec88","owner()":"8da5cb5b","pendingOwner()":"e30c3978","postOp(uint8,bytes,uint256,uint256)":"7c627b21","renounceOwnership()":"715018a6","setContext(bytes)":"2f7482be","theContext()":"ae1df290","transferOwnership(address)":"f2fde38b","unlockStake()":"bb9fe6bf","validatePaymasterUserOp((address,uint256,bytes,bytes,bytes32,uint256,bytes32,bytes,bytes),bytes32,uint256)":"52b7512c","withdrawStake(address)":"c23a5cea","withdrawTo(address,uint256)":"205c2878"},"id":47}