{"abi":[{"type":"receive","stateMutability":"payable"},{"type":"function","name":"addStake","inputs":[{"name":"unstakeDelaySec","type":"uint32","internalType":"uint32"}],"outputs":[],"stateMutability":"payable"},{"type":"function","name":"balanceOf","inputs":[{"name":"account","type":"address","internalType":"address"}],"outputs":[{"name":"","type":"uint256","internalType":"uint256"}],"stateMutability":"view"},{"type":"function","name":"delegateAndRevert","inputs":[{"name":"target","type":"address","internalType":"address"},{"name":"data","type":"bytes","internalType":"bytes"}],"outputs":[],"stateMutability":"nonpayable"},{"type":"function","name":"depositTo","inputs":[{"name":"account","type":"address","internalType":"address"}],"outputs":[],"stateMutability":"payable"},{"type":"function","name":"eip712Domain","inputs":[],"outputs":[{"name":"fields","type":"bytes1","internalType":"bytes1"},{"name":"name","type":"string","internalType":"string"},{"name":"version","type":"string","internalType":"string"},{"name":"chainId","type":"uint256","internalType":"uint256"},{"name":"verifyingContract","type":"address","internalType":"address"},{"name":"salt","type":"bytes32","internalType":"bytes32"},{"name":"extensions","type":"uint256[]","internalType":"uint256[]"}],"stateMutability":"view"},{"type":"function","name":"getCurrentUserOpHash","inputs":[],"outputs":[{"name":"","type":"bytes32","internalType":"bytes32"}],"stateMutability":"view"},{"type":"function","name":"getDepositInfo","inputs":[{"name":"account","type":"address","internalType":"address"}],"outputs":[{"name":"info","type":"tuple","internalType":"struct IStakeManager.DepositInfo","components":[{"name":"deposit","type":"uint256","internalType":"uint256"},{"name":"staked","type":"bool","internalType":"bool"},{"name":"stake","type":"uint112","internalType":"uint112"},{"name":"unstakeDelaySec","type":"uint32","internalType":"uint32"},{"name":"withdrawTime","type":"uint48","internalType":"uint48"}]}],"stateMutability":"view"},{"type":"function","name":"getDomainSeparatorV4","inputs":[],"outputs":[{"name":"","type":"bytes32","internalType":"bytes32"}],"stateMutability":"view"},{"type":"function","name":"getNonce","inputs":[{"name":"sender","type":"address","internalType":"address"},{"name":"key","type":"uint192","internalType":"uint192"}],"outputs":[{"name":"nonce","type":"uint256","internalType":"uint256"}],"stateMutability":"view"},{"type":"function","name":"getPackedUserOpTypeHash","inputs":[],"outputs":[{"name":"","type":"bytes32","internalType":"bytes32"}],"stateMutability":"pure"},{"type":"function","name":"getSenderAddress","inputs":[{"name":"initCode","type":"bytes","internalType":"bytes"}],"outputs":[],"stateMutability":"nonpayable"},{"type":"function","name":"getUserOpHash","inputs":[{"name":"userOp","type":"tuple","internalType":"struct PackedUserOperation","components":[{"name":"sender","type":"address","internalType":"address"},{"name":"nonce","type":"uint256","internalType":"uint256"},{"name":"initCode","type":"bytes","internalType":"bytes"},{"name":"callData","type":"bytes","internalType":"bytes"},{"name":"accountGasLimits","type":"bytes32","internalType":"bytes32"},{"name":"preVerificationGas","type":"uint256","internalType":"uint256"},{"name":"gasFees","type":"bytes32","internalType":"bytes32"},{"name":"paymasterAndData","type":"bytes","internalType":"bytes"},{"name":"signature","type":"bytes","internalType":"bytes"}]}],"outputs":[{"name":"","type":"bytes32","internalType":"bytes32"}],"stateMutability":"view"},{"type":"function","name":"handleAggregatedOps","inputs":[{"name":"","type":"tuple[]","internalType":"struct IEntryPoint.UserOpsPerAggregator[]","components":[{"name":"userOps","type":"tuple[]","internalType":"struct PackedUserOperation[]","components":[{"name":"sender","type":"address","internalType":"address"},{"name":"nonce","type":"uint256","internalType":"uint256"},{"name":"initCode","type":"bytes","internalType":"bytes"},{"name":"callData","type":"bytes","internalType":"bytes"},{"name":"accountGasLimits","type":"bytes32","internalType":"bytes32"},{"name":"preVerificationGas","type":"uint256","internalType":"uint256"},{"name":"gasFees","type":"bytes32","internalType":"bytes32"},{"name":"paymasterAndData","type":"bytes","internalType":"bytes"},{"name":"signature","type":"bytes","internalType":"bytes"}]},{"name":"aggregator","type":"address","internalType":"contract IAggregator"},{"name":"signature","type":"bytes","internalType":"bytes"}]},{"name":"","type":"address","internalType":"address payable"}],"outputs":[],"stateMutability":"pure"},{"type":"function","name":"handleOps","inputs":[{"name":"ops","type":"tuple[]","internalType":"struct PackedUserOperation[]","components":[{"name":"sender","type":"address","internalType":"address"},{"name":"nonce","type":"uint256","internalType":"uint256"},{"name":"initCode","type":"bytes","internalType":"bytes"},{"name":"callData","type":"bytes","internalType":"bytes"},{"name":"accountGasLimits","type":"bytes32","internalType":"bytes32"},{"name":"preVerificationGas","type":"uint256","internalType":"uint256"},{"name":"gasFees","type":"bytes32","internalType":"bytes32"},{"name":"paymasterAndData","type":"bytes","internalType":"bytes"},{"name":"signature","type":"bytes","internalType":"bytes"}]},{"name":"beneficiary","type":"address","internalType":"address payable"}],"outputs":[],"stateMutability":"nonpayable"},{"type":"function","name":"incrementNonce","inputs":[{"name":"key","type":"uint192","internalType":"uint192"}],"outputs":[],"stateMutability":"nonpayable"},{"type":"function","name":"innerHandleOp","inputs":[{"name":"callData","type":"bytes","internalType":"bytes"},{"name":"opInfo","type":"tuple","internalType":"struct EntryPoint.UserOpInfo","components":[{"name":"mUserOp","type":"tuple","internalType":"struct EntryPoint.MemoryUserOp","components":[{"name":"sender","type":"address","internalType":"address"},{"name":"nonce","type":"uint256","internalType":"uint256"},{"name":"verificationGasLimit","type":"uint256","internalType":"uint256"},{"name":"callGasLimit","type":"uint256","internalType":"uint256"},{"name":"paymasterVerificationGasLimit","type":"uint256","internalType":"uint256"},{"name":"paymasterPostOpGasLimit","type":"uint256","internalType":"uint256"},{"name":"preVerificationGas","type":"uint256","internalType":"uint256"},{"name":"paymaster","type":"address","internalType":"address"},{"name":"maxFeePerGas","type":"uint256","internalType":"uint256"},{"name":"maxPriorityFeePerGas","type":"uint256","internalType":"uint256"}]},{"name":"userOpHash","type":"bytes32","internalType":"bytes32"},{"name":"prefund","type":"uint256","internalType":"uint256"},{"name":"contextOffset","type":"uint256","internalType":"uint256"},{"name":"preOpGas","type":"uint256","internalType":"uint256"}]},{"name":"context","type":"bytes","internalType":"bytes"}],"outputs":[{"name":"actualGasCost","type":"uint256","internalType":"uint256"}],"stateMutability":"nonpayable"},{"type":"function","name":"nonceSequenceNumber","inputs":[{"name":"","type":"address","internalType":"address"},{"name":"","type":"uint192","internalType":"uint192"}],"outputs":[{"name":"","type":"uint256","internalType":"uint256"}],"stateMutability":"view"},{"type":"function","name":"senderCreator","inputs":[],"outputs":[{"name":"","type":"address","internalType":"contract ISenderCreator"}],"stateMutability":"view"},{"type":"function","name":"simulateHandleOp","inputs":[{"name":"op","type":"tuple","internalType":"struct PackedUserOperation","components":[{"name":"sender","type":"address","internalType":"address"},{"name":"nonce","type":"uint256","internalType":"uint256"},{"name":"initCode","type":"bytes","internalType":"bytes"},{"name":"callData","type":"bytes","internalType":"bytes"},{"name":"accountGasLimits","type":"bytes32","internalType":"bytes32"},{"name":"preVerificationGas","type":"uint256","internalType":"uint256"},{"name":"gasFees","type":"bytes32","internalType":"bytes32"},{"name":"paymasterAndData","type":"bytes","internalType":"bytes"},{"name":"signature","type":"bytes","internalType":"bytes"}]},{"name":"target","type":"address","internalType":"address"},{"name":"targetCallData","type":"bytes","internalType":"bytes"}],"outputs":[{"name":"","type":"tuple","internalType":"struct IEntryPointSimulations.ExecutionResult","components":[{"name":"preOpGas","type":"uint256","internalType":"uint256"},{"name":"paid","type":"uint256","internalType":"uint256"},{"name":"accountValidationData","type":"uint256","internalType":"uint256"},{"name":"paymasterValidationData","type":"uint256","internalType":"uint256"},{"name":"targetSuccess","type":"bool","internalType":"bool"},{"name":"targetResult","type":"bytes","internalType":"bytes"}]}],"stateMutability":"nonpayable"},{"type":"function","name":"simulateValidation","inputs":[{"name":"userOp","type":"tuple","internalType":"struct PackedUserOperation","components":[{"name":"sender","type":"address","internalType":"address"},{"name":"nonce","type":"uint256","internalType":"uint256"},{"name":"initCode","type":"bytes","internalType":"bytes"},{"name":"callData","type":"bytes","internalType":"bytes"},{"name":"accountGasLimits","type":"bytes32","internalType":"bytes32"},{"name":"preVerificationGas","type":"uint256","internalType":"uint256"},{"name":"gasFees","type":"bytes32","internalType":"bytes32"},{"name":"paymasterAndData","type":"bytes","internalType":"bytes"},{"name":"signature","type":"bytes","internalType":"bytes"}]}],"outputs":[{"name":"","type":"tuple","internalType":"struct IEntryPointSimulations.ValidationResult","components":[{"name":"returnInfo","type":"tuple","internalType":"struct IEntryPoint.ReturnInfo","components":[{"name":"preOpGas","type":"uint256","internalType":"uint256"},{"name":"prefund","type":"uint256","internalType":"uint256"},{"name":"accountValidationData","type":"uint256","internalType":"uint256"},{"name":"paymasterValidationData","type":"uint256","internalType":"uint256"},{"name":"paymasterContext","type":"bytes","internalType":"bytes"}]},{"name":"senderInfo","type":"tuple","internalType":"struct IStakeManager.StakeInfo","components":[{"name":"stake","type":"uint256","internalType":"uint256"},{"name":"unstakeDelaySec","type":"uint256","internalType":"uint256"}]},{"name":"factoryInfo","type":"tuple","internalType":"struct IStakeManager.StakeInfo","components":[{"name":"stake","type":"uint256","internalType":"uint256"},{"name":"unstakeDelaySec","type":"uint256","internalType":"uint256"}]},{"name":"paymasterInfo","type":"tuple","internalType":"struct IStakeManager.StakeInfo","components":[{"name":"stake","type":"uint256","internalType":"uint256"},{"name":"unstakeDelaySec","type":"uint256","internalType":"uint256"}]},{"name":"aggregatorInfo","type":"tuple","internalType":"struct IEntryPointSimulations.AggregatorStakeInfo","components":[{"name":"aggregator","type":"address","internalType":"address"},{"name":"stakeInfo","type":"tuple","internalType":"struct IStakeManager.StakeInfo","components":[{"name":"stake","type":"uint256","internalType":"uint256"},{"name":"unstakeDelaySec","type":"uint256","internalType":"uint256"}]}]}]}],"stateMutability":"nonpayable"},{"type":"function","name":"supportsInterface","inputs":[{"name":"","type":"bytes4","internalType":"bytes4"}],"outputs":[{"name":"","type":"bool","internalType":"bool"}],"stateMutability":"view"},{"type":"function","name":"unlockStake","inputs":[],"outputs":[],"stateMutability":"nonpayable"},{"type":"function","name":"validateSenderAndPaymaster","inputs":[{"name":"initCode","type":"bytes","internalType":"bytes"},{"name":"sender","type":"address","internalType":"address"},{"name":"paymasterAndData","type":"bytes","internalType":"bytes"}],"outputs":[],"stateMutability":"view"},{"type":"function","name":"withdrawStake","inputs":[{"name":"withdrawAddress","type":"address","internalType":"address payable"}],"outputs":[],"stateMutability":"nonpayable"},{"type":"function","name":"withdrawTo","inputs":[{"name":"withdrawAddress","type":"address","internalType":"address payable"},{"name":"withdrawAmount","type":"uint256","internalType":"uint256"}],"outputs":[],"stateMutability":"nonpayable"},{"type":"event","name":"AccountDeployed","inputs":[{"name":"userOpHash","type":"bytes32","indexed":true,"internalType":"bytes32"},{"name":"sender","type":"address","indexed":true,"internalType":"address"},{"name":"factory","type":"address","indexed":false,"internalType":"address"},{"name":"paymaster","type":"address","indexed":false,"internalType":"address"}],"anonymous":false},{"type":"event","name":"BeforeExecution","inputs":[],"anonymous":false},{"type":"event","name":"Deposited","inputs":[{"name":"account","type":"address","indexed":true,"internalType":"address"},{"name":"totalDeposit","type":"uint256","indexed":false,"internalType":"uint256"}],"anonymous":false},{"type":"event","name":"EIP712DomainChanged","inputs":[],"anonymous":false},{"type":"event","name":"EIP7702AccountInitialized","inputs":[{"name":"userOpHash","type":"bytes32","indexed":true,"internalType":"bytes32"},{"name":"sender","type":"address","indexed":true,"internalType":"address"},{"name":"delegate","type":"address","indexed":true,"internalType":"address"}],"anonymous":false},{"type":"event","name":"IgnoredInitCode","inputs":[{"name":"userOpHash","type":"bytes32","indexed":true,"internalType":"bytes32"},{"name":"sender","type":"address","indexed":true,"internalType":"address"},{"name":"unusedFactory","type":"address","indexed":false,"internalType":"address"}],"anonymous":false},{"type":"event","name":"PostOpRevertReason","inputs":[{"name":"userOpHash","type":"bytes32","indexed":true,"internalType":"bytes32"},{"name":"sender","type":"address","indexed":true,"internalType":"address"},{"name":"nonce","type":"uint256","indexed":false,"internalType":"uint256"},{"name":"revertReason","type":"bytes","indexed":false,"internalType":"bytes"}],"anonymous":false},{"type":"event","name":"SignatureAggregatorChanged","inputs":[{"name":"aggregator","type":"address","indexed":true,"internalType":"address"}],"anonymous":false},{"type":"event","name":"StakeLocked","inputs":[{"name":"account","type":"address","indexed":true,"internalType":"address"},{"name":"totalStaked","type":"uint256","indexed":false,"internalType":"uint256"},{"name":"unstakeDelaySec","type":"uint256","indexed":false,"internalType":"uint256"}],"anonymous":false},{"type":"event","name":"StakeUnlocked","inputs":[{"name":"account","type":"address","indexed":true,"internalType":"address"},{"name":"withdrawTime","type":"uint256","indexed":false,"internalType":"uint256"}],"anonymous":false},{"type":"event","name":"StakeWithdrawn","inputs":[{"name":"account","type":"address","indexed":true,"internalType":"address"},{"name":"withdrawAddress","type":"address","indexed":false,"internalType":"address"},{"name":"amount","type":"uint256","indexed":false,"internalType":"uint256"}],"anonymous":false},{"type":"event","name":"UserOperationEvent","inputs":[{"name":"userOpHash","type":"bytes32","indexed":true,"internalType":"bytes32"},{"name":"sender","type":"address","indexed":true,"internalType":"address"},{"name":"paymaster","type":"address","indexed":true,"internalType":"address"},{"name":"nonce","type":"uint256","indexed":false,"internalType":"uint256"},{"name":"success","type":"bool","indexed":false,"internalType":"bool"},{"name":"actualGasCost","type":"uint256","indexed":false,"internalType":"uint256"},{"name":"actualGasUsed","type":"uint256","indexed":false,"internalType":"uint256"}],"anonymous":false},{"type":"event","name":"UserOperationPrefundTooLow","inputs":[{"name":"userOpHash","type":"bytes32","indexed":true,"internalType":"bytes32"},{"name":"sender","type":"address","indexed":true,"internalType":"address"},{"name":"nonce","type":"uint256","indexed":false,"internalType":"uint256"}],"anonymous":false},{"type":"event","name":"UserOperationRevertReason","inputs":[{"name":"userOpHash","type":"bytes32","indexed":true,"internalType":"bytes32"},{"name":"sender","type":"address","indexed":true,"internalType":"address"},{"name":"nonce","type":"uint256","indexed":false,"internalType":"uint256"},{"name":"revertReason","type":"bytes","indexed":false,"internalType":"bytes"}],"anonymous":false},{"type":"event","name":"Withdrawn","inputs":[{"name":"account","type":"address","indexed":true,"internalType":"address"},{"name":"withdrawAddress","type":"address","indexed":false,"internalType":"address"},{"name":"amount","type":"uint256","indexed":false,"internalType":"uint256"}],"anonymous":false},{"type":"error","name":"DelegateAndRevert","inputs":[{"name":"success","type":"bool","internalType":"bool"},{"name":"ret","type":"bytes","internalType":"bytes"}]},{"type":"error","name":"DepositWithdrawalFailed","inputs":[{"name":"account","type":"address","internalType":"address"},{"name":"withdrawAddress","type":"address","internalType":"address"},{"name":"amount","type":"uint256","internalType":"uint256"},{"name":"revertReason","type":"bytes","internalType":"bytes"}]},{"type":"error","name":"Eip7702SenderNotDelegate","inputs":[{"name":"sender","type":"address","internalType":"address"}]},{"type":"error","name":"Eip7702SenderWithoutCode","inputs":[{"name":"sender","type":"address","internalType":"address"}]},{"type":"error","name":"FailedOp","inputs":[{"name":"opIndex","type":"uint256","internalType":"uint256"},{"name":"reason","type":"string","internalType":"string"}]},{"type":"error","name":"FailedOpWithRevert","inputs":[{"name":"opIndex","type":"uint256","internalType":"uint256"},{"name":"reason","type":"string","internalType":"string"},{"name":"inner","type":"bytes","internalType":"bytes"}]},{"type":"error","name":"FailedSendToBeneficiary","inputs":[{"name":"beneficiary","type":"address","internalType":"address"},{"name":"amount","type":"uint256","internalType":"uint256"},{"name":"revertData","type":"bytes","internalType":"bytes"}]},{"type":"error","name":"InsufficientDeposit","inputs":[{"name":"currentDeposit","type":"uint256","internalType":"uint256"},{"name":"withdrawAmount","type":"uint256","internalType":"uint256"}]},{"type":"error","name":"InternalFunction","inputs":[]},{"type":"error","name":"InvalidBeneficiary","inputs":[{"name":"beneficiary","type":"address","internalType":"address"}]},{"type":"error","name":"InvalidPaymaster","inputs":[{"name":"paymaster","type":"address","internalType":"address"}]},{"type":"error","name":"InvalidPaymasterData","inputs":[{"name":"paymasterAndDataLength","type":"uint256","internalType":"uint256"}]},{"type":"error","name":"InvalidPaymasterSignatureLength","inputs":[{"name":"dataLength","type":"uint256","internalType":"uint256"},{"name":"pmSignatureLength","type":"uint256","internalType":"uint256"}]},{"type":"error","name":"InvalidShortString","inputs":[]},{"type":"error","name":"InvalidStake","inputs":[{"name":"msgValue","type":"uint256","internalType":"uint256"},{"name":"currentStake","type":"uint256","internalType":"uint256"}]},{"type":"error","name":"InvalidUnstakeDelay","inputs":[{"name":"newUnstakeDelaySec","type":"uint256","internalType":"uint256"},{"name":"currentUnstakeDelaySec","type":"uint256","internalType":"uint256"}]},{"type":"error","name":"NotImplemented","inputs":[]},{"type":"error","name":"NotStaked","inputs":[{"name":"currentStake","type":"uint256","internalType":"uint256"},{"name":"unstakeDelaySec","type":"uint256","internalType":"uint256"},{"name":"staked","type":"bool","internalType":"bool"}]},{"type":"error","name":"PaymasterNotDeployed","inputs":[{"name":"paymaster","type":"address","internalType":"address"}]},{"type":"error","name":"PostOpReverted","inputs":[{"name":"returnData","type":"bytes","internalType":"bytes"}]},{"type":"error","name":"Reentrancy","inputs":[]},{"type":"error","name":"SenderAddressResult","inputs":[{"name":"sender","type":"address","internalType":"address"}]},{"type":"error","name":"SignatureValidationFailed","inputs":[{"name":"aggregator","type":"address","internalType":"address"}]},{"type":"error","name":"StakeNotUnlocked","inputs":[{"name":"withdrawTime","type":"uint256","internalType":"uint256"},{"name":"blockTimestamp","type":"uint256","internalType":"uint256"}]},{"type":"error","name":"StakeWithdrawalFailed","inputs":[{"name":"account","type":"address","internalType":"address"},{"name":"withdrawAddress","type":"address","internalType":"address"},{"name":"amount","type":"uint256","internalType":"uint256"},{"name":"revertReason","type":"bytes","internalType":"bytes"}]},{"type":"error","name":"StringTooLong","inputs":[{"name":"str","type":"string","internalType":"string"}]},{"type":"error","name":"WithdrawalNotDue","inputs":[{"name":"withdrawTime","type":"uint256","internalType":"uint256"},{"name":"blockTimestamp","type":"uint256","internalType":"uint256"}]}],"bytecode":{"object":"0x6101806040526040516100119061029a565b604051809103905ff08015801561002a573d5f5f3e3d5ffd5b5073ffffffffffffffffffffffffffffffffffffffff166101609073ffffffffffffffffffffffffffffffffffffffff16815250348015610069575f5ffd5b506040518060400160405280600781526020017f45524334333337000000000000000000000000000000000000000000000000008152506040518060400160405280600181526020017f31000000000000000000000000000000000000000000000000000000000000008152506100ea60028361018560201b90919060201c565b610120818152505061010660038261018560201b90919060201c565b6101408181525050818051906020012060e08181525050808051906020012061010081815250504660a081815250506101436101d260201b60201c565b608081815250503073ffffffffffffffffffffffffffffffffffffffff1660c08173ffffffffffffffffffffffffffffffffffffffff16815250505050610783565b5f6020835110156101a65761019f8361022c60201b60201c565b90506101cc565b826101b68361029160201b60201c565b5f0190816101c491906104e4565b5060ff5f1b90505b92915050565b5f7f8b73c3c69bb8fe3d512ecc4cf759cc79239f7b179b0ffacaa9a75d522b39400f60e051610100514630604051602001610211959493929190610619565b60405160208183030381529060405280519060200120905090565b5f5f829050601f8151111561027857826040517f305a27a900000000000000000000000000000000000000000000000000000000815260040161026f91906106d0565b60405180910390fd5b8051816102849061071d565b5f1c175f1b915050919050565b5f819050919050565b61095e80617f1383390190565b5f81519050919050565b7f4e487b71000000000000000000000000000000000000000000000000000000005f52604160045260245ffd5b7f4e487b71000000000000000000000000000000000000000000000000000000005f52602260045260245ffd5b5f600282049050600182168061032257607f821691505b602082108103610335576103346102de565b5b50919050565b5f819050815f5260205f209050919050565b5f6020601f8301049050919050565b5f82821b905092915050565b5f600883026103977fffffffffffffffffffffffffffffffffffffffffffffffffffffffffffffffff8261035c565b6103a1868361035c565b95508019841693508086168417925050509392505050565b5f819050919050565b5f819050919050565b5f6103e56103e06103db846103b9565b6103c2565b6103b9565b9050919050565b5f819050919050565b6103fe836103cb565b61041261040a826103ec565b848454610368565b825550505050565b5f5f905090565b61042961041a565b6104348184846103f5565b505050565b5b818110156104575761044c5f82610421565b60018101905061043a565b5050565b601f82111561049c5761046d8161033b565b6104768461034d565b81016020851015610485578190505b6104996104918561034d565b830182610439565b50505b505050565b5f82821c905092915050565b5f6104bc5f19846008026104a1565b1980831691505092915050565b5f6104d483836104ad565b9150826002028217905092915050565b6104ed826102a7565b67ffffffffffffffff811115610506576105056102b1565b5b610510825461030b565b61051b82828561045b565b5f60209050601f83116001811461054c575f841561053a578287015190505b61054485826104c9565b8655506105ab565b601f19841661055a8661033b565b5f5b828110156105815784890151825560018201915060208501945060208101905061055c565b8683101561059e578489015161059a601f8916826104ad565b8355505b6001600288020188555050505b505050505050565b5f819050919050565b6105c5816105b3565b82525050565b6105d4816103b9565b82525050565b5f73ffffffffffffffffffffffffffffffffffffffff82169050919050565b5f610603826105da565b9050919050565b610613816105f9565b82525050565b5f60a08201905061062c5f8301886105bc565b61063960208301876105bc565b61064660408301866105bc565b61065360608301856105cb565b610660608083018461060a565b9695505050505050565b5f82825260208201905092915050565b8281835e5f83830152505050565b5f601f19601f8301169050919050565b5f6106a2826102a7565b6106ac818561066a565b93506106bc81856020860161067a565b6106c581610688565b840191505092915050565b5f6020820190508181035f8301526106e88184610698565b905092915050565b5f81519050919050565b5f819050602082019050919050565b5f61071482516105b3565b80915050919050565b5f610727826106f0565b82610731846106fa565b905061073c81610709565b9250602082101561077c576107777fffffffffffffffffffffffffffffffffffffffffffffffffffffffffffffffff8360200360080261035c565b831692505b5050919050565b60805160a05160c05160e051610100516101205161014051610160516177476107cc5f395f50505f61295501525f61291a01525f50505f50505f50505f50505f50506177475ff3fe608060405260043610610168575f3560e01c80635287ce12116100d05780639b249f6911610089578063bb9fe6bf11610063578063bb9fe6bf1461055c578063c23a5cea14610572578063c3bce0091461059a578063dbed18e0146105d657610178565b80639b249f69146104ee578063b0a398d114610516578063b760faf91461054057610178565b80635287ce12146103ba57806370a08231146103f6578063765e827f1461043257806384b0196e1461045a578063850aaf621461048a57806397b2dcb9146104b257610178565b8063154e58dc11610122578063154e58dc1461028c5780631b2e01b8146102b65780631f5ae7bb146102f2578063205c28781461031a57806322cdde4c1461034257806335567e1a1461037e57610178565b806242dc531461017c57806301ffc9a7146101b85780630396cb60146101f457806309ccb880146102105780630bd28e3b1461023a57806313c65a6e1461026257610178565b3661017857610176336105fe565b005b5f5ffd5b348015610187575f5ffd5b506101a2600480360381019061019d9190614d6a565b610627565b6040516101af9190614e08565b60405180910390f35b3480156101c3575f5ffd5b506101de60048036038101906101d99190614e76565b61080d565b6040516101eb9190614ebb565b60405180910390f35b61020e60048036038101906102099190614f0d565b610816565b005b34801561021b575f5ffd5b50610224610be9565b6040516102319190614f93565b60405180910390f35b348015610245575f5ffd5b50610260600480360381019061025b9190614ff9565b610c11565b005b34801561026d575f5ffd5b50610276610ca9565b6040516102839190615033565b60405180910390f35b348015610297575f5ffd5b506102a0610cb2565b6040516102ad9190615033565b60405180910390f35b3480156102c1575f5ffd5b506102dc60048036038101906102d7919061504c565b610cd9565b6040516102e99190614e08565b60405180910390f35b3480156102fd575f5ffd5b506103186004803603810190610313919061508a565b610cf9565b005b348015610325575f5ffd5b50610340600480360381019061033b9190615156565b610e2a565b005b34801561034d575f5ffd5b50610368600480360381019061036391906151b7565b610fe0565b6040516103759190615033565b60405180910390f35b348015610389575f5ffd5b506103a4600480360381019061039f919061504c565b611018565b6040516103b19190614e08565b60405180910390f35b3480156103c5575f5ffd5b506103e060048036038101906103db91906151fe565b6110c2565b6040516103ed9190615304565b60405180910390f35b348015610401575f5ffd5b5061041c600480360381019061041791906151fe565b6111d1565b6040516104299190614e08565b60405180910390f35b34801561043d575f5ffd5b5061045860048036038101906104539190615372565b611218565b005b348015610465575f5ffd5b5061046e6113b5565b6040516104819796959493929190615520565b60405180910390f35b348015610495575f5ffd5b506104b060048036038101906104ab91906155a2565b61145a565b005b3480156104bd575f5ffd5b506104d860048036038101906104d391906155ff565b611504565b6040516104e59190615764565b60405180910390f35b3480156104f9575f5ffd5b50610514600480360381019061050f9190615784565b6116ab565b005b348015610521575f5ffd5b5061052a61176d565b6040516105379190615033565b60405180910390f35b61055a600480360381019061055591906151fe565b6105fe565b005b348015610567575f5ffd5b50610570611775565b005b34801561057d575f5ffd5b50610598600480360381019061059391906157cf565b6119ba565b005b3480156105a5575f5ffd5b506105c060048036038101906105bb91906151b7565b611d4a565b6040516105cd919061594a565b60405180910390f35b3480156105e1575f5ffd5b506105fc60048036038101906105f791906159bf565b611ef5565b005b5f600190505b600581101561061a578080600101915050610604565b61062382611f27565b5050565b5f5f5a90503073ffffffffffffffffffffffffffffffffffffffff163373ffffffffffffffffffffffffffffffffffffffff1614610691576040517f9fbdaa0900000000000000000000000000000000000000000000000000000000815260040160405180910390fd5b5f855f015190505f816060015190506127108260a001518201016040603f5a02816106bf576106be615a1c565b5b0410156106ee577fdeaddead000000000000000000000000000000000000000000000000000000005f5260205ffd5b5f5f90505f895111156107a3575f61070b845f01515f8c86611f86565b9050806107a1575f61071b611f9d565b90505f610729610800611fa6565b90505f8151111561079157855f015173ffffffffffffffffffffffffffffffffffffffff168b602001517f1c4fada7374c0a9ee8841fc38afe82932dc0f8e69012e927f061a8bae611a201886020015184604051610788929190615a91565b60405180910390a35b61079a82611fde565b6001935050505b505b5f88608001515a86030190506107fe828a8a8a8080601f0160208091040260200160405190810160405280939291908181526020018383808284375f81840152601f19601f8201169050808301925050505050505084611fe5565b95505050505050949350505050565b5f5f9050919050565b5f5f5f3373ffffffffffffffffffffffffffffffffffffffff1673ffffffffffffffffffffffffffffffffffffffff1681526020019081526020015f2090505f8263ffffffff16118282600101600f9054906101000a900463ffffffff1690916108b7576040517fe1823bce0000000000000000000000000000000000000000000000000000000081526004016108ae929190615aef565b60405180910390fd5b505080600101600f9054906101000a900463ffffffff1663ffffffff168263ffffffff1610158282600101600f9054906101000a900463ffffffff169091610936576040517fe1823bce00000000000000000000000000000000000000000000000000000000815260040161092d929190615aef565b60405180910390fd5b50505f348260010160019054906101000a90046dffffffffffffffffffffffffffff166dffffffffffffffffffffffffffff166109739190615b43565b90505f8111348360010160019054906101000a90046dffffffffffffffffffffffffffff1690916109db576040517f0e10009c0000000000000000000000000000000000000000000000000000000081526004016109d2929190615ba6565b60405180910390fd5b50506dffffffffffffffffffffffffffff8016811115348360010160019054906101000a90046dffffffffffffffffffffffffffff169091610a54576040517f0e10009c000000000000000000000000000000000000000000000000000000008152600401610a4b929190615ba6565b60405180910390fd5b50506040518060a00160405280835f01548152602001600115158152602001826dffffffffffffffffffffffffffff1681526020018463ffffffff1681526020015f65ffffffffffff168152505f5f3373ffffffffffffffffffffffffffffffffffffffff1673ffffffffffffffffffffffffffffffffffffffff1681526020019081526020015f205f820151815f01556020820151816001015f6101000a81548160ff02191690831515021790555060408201518160010160016101000a8154816dffffffffffffffffffffffffffff02191690836dffffffffffffffffffffffffffff160217905550606082015181600101600f6101000a81548163ffffffff021916908363ffffffff16021790555060808201518160010160136101000a81548165ffffffffffff021916908365ffffffffffff1602179055509050503373ffffffffffffffffffffffffffffffffffffffff167fa5ae833d0bb1dcd632d98a8b70973e8516812898e19bf27b70071ebc8dc52c018285604051610bdc929190615bcd565b60405180910390a2505050565b5f60045f9054906101000a900473ffffffffffffffffffffffffffffffffffffffff16905090565b60015f3373ffffffffffffffffffffffffffffffffffffffff1673ffffffffffffffffffffffffffffffffffffffff1681526020019081526020015f205f8277ffffffffffffffffffffffffffffffffffffffffffffffff1677ffffffffffffffffffffffffffffffffffffffffffffffff1681526020019081526020015f205f815480929190610ca190615bf4565b919050555050565b5f600554905090565b5f7f29a0bca4af4be3421398da00295e58e6d7de38cb492214754cb6a47507dd6f8e905090565b6001602052815f5260405f20602052805f5260405f205f91509150505481565b5f85859050148015610d2157505f8373ffffffffffffffffffffffffffffffffffffffff163b145b15610d63575f6040517f220266b6000000000000000000000000000000000000000000000000000000008152600401610d5a9190615cbe565b60405180910390fd5b60148282905010610def575f82825f90601492610d8293929190615cf2565b90610d8d9190615d6d565b60601c90505f8173ffffffffffffffffffffffffffffffffffffffff163b03610ded57806040517f1187da2c000000000000000000000000000000000000000000000000000000008152600401610de49190615dcb565b60405180910390fd5b505b6040517f08c379a0000000000000000000000000000000000000000000000000000000008152600401610e2190615e07565b60405180910390fd5b5f5f5f3373ffffffffffffffffffffffffffffffffffffffff1673ffffffffffffffffffffffffffffffffffffffff1681526020019081526020015f2090505f815f015490508083111581849091610eb9576040517f25c3f46e000000000000000000000000000000000000000000000000000000008152600401610eb0929190615e25565b60405180910390fd5b50508281610ec79190615e4c565b825f01819055503373ffffffffffffffffffffffffffffffffffffffff167fd1c19fbcd4551a5edfb66d43d2e337c04837afda3482b42bdf569a8fccdae5fb8585604051610f16929190615e9f565b60405180910390a25f5f8573ffffffffffffffffffffffffffffffffffffffff1685604051610f4490615ef0565b5f6040518083038185875af1925050503d805f8114610f7e576040519150601f19603f3d011682016040523d82523d5f602084013e610f83565b606091505b5091509150813387878490919293610fd4576040517f9f3d6933000000000000000000000000000000000000000000000000000000008152600401610fcb9493929190615f04565b60405180910390fd5b50505050505050505050565b5f5f610feb83612265565b9050611010610ff8610ca9565b61100b838661233690919063ffffffff16565b612350565b915050919050565b5f60408277ffffffffffffffffffffffffffffffffffffffffffffffff16901b60015f8573ffffffffffffffffffffffffffffffffffffffff1673ffffffffffffffffffffffffffffffffffffffff1681526020019081526020015f205f8477ffffffffffffffffffffffffffffffffffffffffffffffff1677ffffffffffffffffffffffffffffffffffffffffffffffff1681526020019081526020015f205417905092915050565b6110ca61474f565b5f5f8373ffffffffffffffffffffffffffffffffffffffff1673ffffffffffffffffffffffffffffffffffffffff1681526020019081526020015f206040518060a00160405290815f8201548152602001600182015f9054906101000a900460ff161515151581526020016001820160019054906101000a90046dffffffffffffffffffffffffffff166dffffffffffffffffffffffffffff166dffffffffffffffffffffffffffff16815260200160018201600f9054906101000a900463ffffffff1663ffffffff1663ffffffff1681526020016001820160139054906101000a900465ffffffffffff1665ffffffffffff1665ffffffffffff16815250509050919050565b5f5f5f8373ffffffffffffffffffffffffffffffffffffffff1673ffffffffffffffffffffffffffffffffffffffff1681526020019081526020015f205f01549050919050565b3373ffffffffffffffffffffffffffffffffffffffff163273ffffffffffffffffffffffffffffffffffffffff1614801561126957505f3373ffffffffffffffffffffffffffffffffffffffff163b145b61129f576040517fab143c0600000000000000000000000000000000000000000000000000000000815260040160405180910390fd5b5f8383905090505f8167ffffffffffffffff8111156112c1576112c06149a4565b5b6040519080825280602002602001820160405280156112fa57816020015b6112e7614799565b8152602001906001900390816112df5790505b50905061130a8585835f5f612390565b505f5f90507fbb47ee3e183a558b1a2ff0874b079f3fc5478b7454eacf2bfc5af2ff5878f97260405160405180910390a15f5f90505b838110156113a2576113918188888481811061135f5761135e615f4e565b5b90506020028101906113719190615f87565b85848151811061138457611383615f4e565b5b6020026020010151612423565b820191508080600101915050611340565b506113ad84826127da565b505050505050565b5f6060805f5f5f60606113c6612911565b6113ce61294c565b46305f5f1b5f67ffffffffffffffff8111156113ed576113ec6149a4565b5b60405190808252806020026020018201604052801561141b5781602001602082028036833780820191505090505b507f0f00000000000000000000000000000000000000000000000000000000000000959493929190965096509650965096509650965090919293949596565b5f5f8473ffffffffffffffffffffffffffffffffffffffff168484604051611483929190615fd3565b5f60405180830381855af49150503d805f81146114bb576040519150601f19603f3d011682016040523d82523d5f602084013e6114c0565b606091505b509150915081816040517f994105540000000000000000000000000000000000000000000000000000000081526004016114fb929190615feb565b60405180910390fd5b61150c6147ca565b3373ffffffffffffffffffffffffffffffffffffffff163273ffffffffffffffffffffffffffffffffffffffff1614801561155d57505f3373ffffffffffffffffffffffffffffffffffffffff163b145b611593576040517fab143c0600000000000000000000000000000000000000000000000000000000815260040160405180910390fd5b61159b614799565b6115a486612987565b5f5f6115b15f8985612aaf565b915091505f6115c15f8a86612423565b90505f60605f73ffffffffffffffffffffffffffffffffffffffff168a73ffffffffffffffffffffffffffffffffffffffff1614611668578973ffffffffffffffffffffffffffffffffffffffff168989604051611620929190615fd3565b5f604051808303815f865af19150503d805f8114611659576040519150601f19603f3d011682016040523d82523d5f602084013e61165e565b606091505b5080925081935050505b6040518060c00160405280876080015181526020018481526020018681526020018581526020018315158152602001828152509650505050505050949350505050565b5f6116b4610be9565b73ffffffffffffffffffffffffffffffffffffffff1663570e1a3684846040518363ffffffff1660e01b81526004016116ee929190616045565b6020604051808303815f875af115801561170a573d5f5f3e3d5ffd5b505050506040513d601f19601f8201168201806040525081019061172e919061607b565b9050806040517f6ca7b8060000000000000000000000000000000000000000000000000000000081526004016117649190615dcb565b60405180910390fd5b5f5f5c905090565b5f5f5f3373ffffffffffffffffffffffffffffffffffffffff1673ffffffffffffffffffffffffffffffffffffffff1681526020019081526020015f2090505f81600101600f9054906101000a900463ffffffff1663ffffffff1614158160010160019054906101000a90046dffffffffffffffffffffffffffff1682600101600f9054906101000a900463ffffffff16836001015f9054906101000a900460ff1690919261185c576040517f8421e8e5000000000000000000000000000000000000000000000000000000008152600401611853939291906160a6565b60405180910390fd5b505050806001015f9054906101000a900460ff168160010160019054906101000a90046dffffffffffffffffffffffffffff1682600101600f9054906101000a900463ffffffff16836001015f9054906101000a900460ff169091926118fa576040517f8421e8e50000000000000000000000000000000000000000000000000000000081526004016118f1939291906160a6565b60405180910390fd5b5050505f81600101600f9054906101000a900463ffffffff1663ffffffff164261192491906160db565b9050808260010160136101000a81548165ffffffffffff021916908365ffffffffffff1602179055505f826001015f6101000a81548160ff0219169083151502179055503373ffffffffffffffffffffffffffffffffffffffff167ffa9b3c14cc825c412c9ed81b3ba365a5b459439403f18829e572ed53a4180f0a826040516119ae9190616144565b60405180910390a25050565b5f5f5f3373ffffffffffffffffffffffffffffffffffffffff1673ffffffffffffffffffffffffffffffffffffffff1681526020019081526020015f2090505f8160010160019054906101000a90046dffffffffffffffffffffffffffff166dffffffffffffffffffffffffffff1690505f81118260010160019054906101000a90046dffffffffffffffffffffffffffff1683600101600f9054906101000a900463ffffffff16846001015f9054906101000a900460ff16909192611ab8576040517f8421e8e5000000000000000000000000000000000000000000000000000000008152600401611aaf939291906160a6565b60405180910390fd5b5050505f8260010160139054906101000a900465ffffffffffff1665ffffffffffff16118260010160139054906101000a900465ffffffffffff16429091611b37576040517ffbd021d6000000000000000000000000000000000000000000000000000000008152600401611b2e92919061615d565b60405180910390fd5b5050428260010160139054906101000a900465ffffffffffff1665ffffffffffff1611158260010160139054906101000a900465ffffffffffff16429091611bb6576040517f561d3312000000000000000000000000000000000000000000000000000000008152600401611bad92919061615d565b60405180910390fd5b50505f82600101600f6101000a81548163ffffffff021916908363ffffffff1602179055505f8260010160136101000a81548165ffffffffffff021916908365ffffffffffff1602179055505f8260010160016101000a8154816dffffffffffffffffffffffffffff02191690836dffffffffffffffffffffffffffff1602179055503373ffffffffffffffffffffffffffffffffffffffff167fb7c918e0e249f999e965cafeb6c664271b3f4317d296461500e71da39f0cbda38483604051611c81929190615e9f565b60405180910390a25f5f8473ffffffffffffffffffffffffffffffffffffffff1683604051611caf90615ef0565b5f6040518083038185875af1925050503d805f8114611ce9576040519150601f19603f3d011682016040523d82523d5f602084013e611cee565b606091505b5091509150813386858490919293611d3f576040517f0dcf087c000000000000000000000000000000000000000000000000000000008152600401611d369493929190615f04565b60405180910390fd5b505050505050505050565b611d526147fd565b611d5a614799565b611d6383612987565b5f5f611d705f8685612aaf565b915091505f611d85845f015160e00151612cb5565b90505f611d97855f01515f0151612cb5565b9050611da161484a565b365f898060400190611db39190616184565b915091505f6014838390501015611dca575f611dec565b82825f90601492611ddd93929190615cf2565b90611de89190615d6d565b60601c5b9050611df781612cb5565b93505050505f8590505f6040518060a001604052808960800151815260200189604001518152602001888152602001878152602001611e398a60600151612d5d565b8152509050611e46614862565b5f8373ffffffffffffffffffffffffffffffffffffffff1614158015611e83575060018373ffffffffffffffffffffffffffffffffffffffff1614155b15611ebe5760405180604001604052808473ffffffffffffffffffffffffffffffffffffffff168152602001611eb885612cb5565b81525090505b6040518060a00160405280838152602001868152602001858152602001878152602001828152509950505050505050505050919050565b6040517fd623472500000000000000000000000000000000000000000000000000000000815260040160405180910390fd5b5f611f328234612d67565b90508173ffffffffffffffffffffffffffffffffffffffff167f2da466a7b24304f47e87fa2e1e5a81b9831ce54fec19055ce277ca2f39ba42c482604051611f7a9190614e08565b60405180910390a25050565b5f5f5f845160208601878987f19050949350505050565b5f604051905090565b60603d5f831115611fbe5782811115611fbd578290505b5b604051602082018101604052818152815f602083013e8092505050919050565b8060405250565b5f5f5a90505f5f865f015190505f611ffc82612dc3565b90505f8260e0015190505f89608001518803905061201e818560600151612deb565b88019750505f5f73ffffffffffffffffffffffffffffffffffffffff168273ffffffffffffffffffffffffffffffffffffffff160361206257835f01519450612179565b8194505f895111156121785782880296505f5a905060028081111561208a576120896161e6565b5b8c600281111561209d5761209c6161e6565b5b1461215f578273ffffffffffffffffffffffffffffffffffffffff16637c627b218660a001518e8d8c896040518663ffffffff1660e01b81526004016120e69493929190616259565b5f604051808303815f88803b1580156120fd575f5ffd5b5087f19350505050801561210f575060015b61215e575f61211f610800611fa6565b9050806040517fad7954bc00000000000000000000000000000000000000000000000000000000815260040161215591906162a3565b60405180910390fd5b5b5f5a82039050612173818760a00151612deb565b925050505b5b805a8703018801975082880296505f8a6040015190508781101561220c576002808111156121aa576121a96161e6565b5b8c60028111156121bd576121bc6161e6565b5b036121df578097506121ce8b612e29565b6121da8b5f8a8c612e8c565b612207565b7fdeadaa51000000000000000000000000000000000000000000000000000000005f5260205ffd5b612256565b5f888203905061221c8782612d67565b505f5f6002811115612231576122306161e6565b5b8e6002811115612244576122436161e6565b5b1490506122538d828c8e612e8c565b50505b50505050505050949350505050565b5f365f8380604001906122789190616184565b915091506122868282612f16565b612296575f5f1b92505050612331565b5f6122b1855f0160208101906122ac91906151fe565b612f81565b9050601483839050116122ef57806040516020016122cf9190616308565b604051602081830303815290604052805190602001209350505050612331565b808383601490809261230393929190615cf2565b60405160200161231593929190616322565b6040516020818303038152906040528051906020012093505050505b919050565b5f6123418383613084565b80519060200120905092915050565b5f6040517f190100000000000000000000000000000000000000000000000000000000000081528360028201528260228201526042812091505092915050565b5f8585905090505f5f90505b81811015612419575f85828501815181106123ba576123b9615f4e565b5b602002602001015190505f5f6123f78487018b8b878181106123df576123de615f4e565b5b90506020028101906123f19190615f87565b85612aaf565b9150915061240984870183838a61317c565b505050808060010191505061239c565b5095945050505050565b5f5f5a905082602001515f81905d505f6124408460600151612d5d565b90505f5f61244c611f9d565b9050365f8880606001906124609190616184565b9150915060605f82600381111561247657843591505b50638dd7712f60e01b7bffffffffffffffffffffffffffffffffffffffffffffffffffffffff1916817bffffffffffffffffffffffffffffffffffffffffffffffffffffffff19160361259c575f8b8b602001516040516024016124db92919061655d565b604051602081830303815290604052638dd7712f60e01b6020820180517bffffffffffffffffffffffffffffffffffffffffffffffffffffffff838183161783525050505090503073ffffffffffffffffffffffffffffffffffffffff166242dc53828d8b604051602401612552939291906166c0565b604051602081830303815290604052915060e01b6020820180517bffffffffffffffffffffffffffffffffffffffffffffffffffffffff8381831617835250505050925050612613565b3073ffffffffffffffffffffffffffffffffffffffff166242dc5385858d8b6040516024016125ce9493929190616705565b604051602081830303815290604052915060e01b6020820180517bffffffffffffffffffffffffffffffffffffffffffffffffffffffff838183161783525050505091505b60205f8351602085015f305af195505f51985061262f85611fde565b5050505050806127d0575f3d8060200361264d5760205f5f3e5f5191505b507fdeaddead0000000000000000000000000000000000000000000000000000000081036126b257876040517f220266b60000000000000000000000000000000000000000000000000000000081526004016126a99190616796565b60405180910390fd5b7fdeadaa5100000000000000000000000000000000000000000000000000000000810361271e575f86608001515a866126eb9190615e4c565b6126f59190615b43565b90505f8760400151905061270888612e29565b612714885f8385612e8c565b80965050506127ce565b5f612727611f9d565b9050865f01515f015173ffffffffffffffffffffffffffffffffffffffff1687602001517ff62676f440ff169a3a9afdbf812e89e7f95975ee8e5c31214ffdef631c5f4792895f01516020015161277f610800611fa6565b60405161278d929190615a91565b60405180910390a361279e81611fde565b5f87608001515a876127b09190615e4c565b6127ba9190615b43565b90506127c96002898784611fe5565b965050505b505b5050509392505050565b5f73ffffffffffffffffffffffffffffffffffffffff168273ffffffffffffffffffffffffffffffffffffffff161415829061284c576040517f1a3b45fd00000000000000000000000000000000000000000000000000000000815260040161284391906167c2565b60405180910390fd5b505f5f1b5f81905d505f5f8373ffffffffffffffffffffffffffffffffffffffff168360405161287b90615ef0565b5f6040518083038185875af1925050503d805f81146128b5576040519150601f19603f3d011682016040523d82523d5f602084013e6128ba565b606091505b509150915081848483909192612908576040517f40848e610000000000000000000000000000000000000000000000000000000081526004016128ff939291906167db565b60405180910390fd5b50505050505050565b606061294760027f000000000000000000000000000000000000000000000000000000000000000061339a90919063ffffffff16565b905090565b606061298260037f000000000000000000000000000000000000000000000000000000000000000061339a90919063ffffffff16565b905090565b61298f613447565b3073ffffffffffffffffffffffffffffffffffffffff16631f5ae7bb8280604001906129bb9190616184565b845f0160208101906129cd91906151fe565b858060e001906129dd9190616184565b6040518663ffffffff1660e01b81526004016129fd959493929190616817565b5f6040518083038186803b158015612a13575f5ffd5b505afa925050508015612a24575060015b612aab57612a3061686a565b806308c379a003612a9c5750612a44616889565b80612a4f5750612a9e565b5f815114612a96575f816040517f220266b6000000000000000000000000000000000000000000000000000000008152600401612a8d929190616918565b60405180910390fd5b50612aa6565b505b3d5f5f3e3d5ffd5b612aac565b5b50565b5f5f5f5a90505f845f01519050612ac686826134be565b5f612acf611f9d565b9050612ada87610fe0565b866020018181525050612aec81611fde565b5f826040015190505f8361012001518461010001518560a0015186608001518760600151868960c0015117171717171790506effffffffffffffffffffffffffffff80168111158a90612b75576040517f220266b6000000000000000000000000000000000000000000000000000000008152600401612b6c9190616990565b60405180910390fd5b505f612b80856136a5565b905080896040018181525050612b988b8b8b846136d6565b9750612bab855f015186602001516137f8565b8b90612bed576040517f220266b6000000000000000000000000000000000000000000000000000000008152600401612be49190616a06565b60405180910390fd5b50825a87031115612c35578a6040517f220266b6000000000000000000000000000000000000000000000000000000008152600401612c2c9190616a7c565b60405180910390fd5b60605f73ffffffffffffffffffffffffffffffffffffffff168660e0015173ffffffffffffffffffffffffffffffffffffffff1614612c8257612c798c8c8c6138af565b80995081925050505b612c8b81613987565b8a60600181815250508a60a001355a8803018a608001818152505050505050505050935093915050565b612cbd61484a565b5f5f5f8473ffffffffffffffffffffffffffffffffffffffff1673ffffffffffffffffffffffffffffffffffffffff1681526020019081526020015f2090508060010160019054906101000a90046dffffffffffffffffffffffffffff166dffffffffffffffffffffffffffff16825f01818152505080600101600f9054906101000a900463ffffffff1663ffffffff1682602001818152505050919050565b6060819050919050565b5f5f5f5f8573ffffffffffffffffffffffffffffffffffffffff1673ffffffffffffffffffffffffffffffffffffffff1681526020019081526020015f2090505f83825f015401905080825f0181905550809250505092915050565b5f5f82610100015190505f8361012001519050612de282488301613990565b92505050919050565b5f619c4083018211612dff575f9050612e23565b5f83830390505f6064600a830281612e1a57612e19615a1c565b5b04905080925050505b92915050565b805f01515f015173ffffffffffffffffffffffffffffffffffffffff1681602001517f67b4fa9642f42120bf031f3051d1824b0fe25627945b27b8a6a65d5761d5482e835f015160200151604051612e819190614e08565b60405180910390a350565b835f015160e0015173ffffffffffffffffffffffffffffffffffffffff16845f01515f015173ffffffffffffffffffffffffffffffffffffffff1685602001517f49628fd1471006c1482da88028e9ce4dbb080b815c9b0344d39e5a8e6ec1419f875f015160200151878787604051612f089493929190616aa8565b60405180910390a450505050565b5f6002838390501015612f2b575f9050612f7b565b5f8335905061770260f01b7dffffffffffffffffffffffffffffffffffffffffffffffffffffffffffff19166bffffffffffffffffffffffff1916816bffffffffffffffffffffffff1916149150505b92915050565b5f5f60175f5f853c5f51905062ef010060e81b7cffffffffffffffffffffffffffffffffffffffffffffffffffffffffff1916817cffffffffffffffffffffffffffffffffffffffffffffffffffffffffff191614613074575f8373ffffffffffffffffffffffffffffffffffffffff163b118390613036576040517fe5819b9500000000000000000000000000000000000000000000000000000000815260040161302d9190615dcb565b60405180910390fd5b50826040517f9f4e4cc900000000000000000000000000000000000000000000000000000000815260040161306b9190615dcb565b60405180910390fd5b601881901b60601c915050919050565b60605f835f01602081019061309991906151fe565b90505f846020013590505f5f5f1b85036130ca576130c58680604001906130c09190616184565b6139a8565b6130cc565b845b90505f6130e78780606001906130e29190616184565b6139a8565b90505f876080013590505f8860a0013590505f8960c0013590505f61311a8b8060e001906131159190616184565b6139be565b90507f29a0bca4af4be3421398da00295e58e6d7de38cb492214754cb6a47507dd6f8e888888888888888860405160200161315d99989796959493929190616aeb565b6040516020818303038152906040529850505050505050505092915050565b5f5f5f61318886613a12565b9250925092508273ffffffffffffffffffffffffffffffffffffffff168473ffffffffffffffffffffffffffffffffffffffff16146131fe57866040517f220266b60000000000000000000000000000000000000000000000000000000081526004016131f59190616bc0565b60405180910390fd5b811561328457801561324757866040517f220266b600000000000000000000000000000000000000000000000000000000815260040161323e9190616c36565b60405180910390fd5b866040517f220266b600000000000000000000000000000000000000000000000000000000815260040161327b9190616cac565b60405180910390fd5b5f61328e86613a12565b8094508195508293505050505f73ffffffffffffffffffffffffffffffffffffffff168173ffffffffffffffffffffffffffffffffffffffff161461330a57876040517f220266b60000000000000000000000000000000000000000000000000000000081526004016133019190616d22565b60405180910390fd5b821561339057811561335357876040517f220266b600000000000000000000000000000000000000000000000000000000815260040161334a9190616d98565b60405180910390fd5b876040517f220266b60000000000000000000000000000000000000000000000000000000081526004016133879190616e34565b60405180910390fd5b5050505050505050565b606060ff5f1b83146133b6576133af83613b05565b9050613441565b8180546133c290616e8d565b80601f01602080910402602001604051908101604052809291908181526020018280546133ee90616e8d565b80156134395780601f1061341057610100808354040283529160200191613439565b820191905f5260205f20905b81548152906001019060200180831161341c57829003601f168201915b505050505090505b92915050565b5f306040516020016134599190616f5b565b604051602081830303815290604052805190602001205f1c90508060045f6101000a81548173ffffffffffffffffffffffffffffffffffffffff021916908373ffffffffffffffffffffffffffffffffffffffff1602179055506134bb613b77565b50565b815f0160208101906134d091906151fe565b815f019073ffffffffffffffffffffffffffffffffffffffff16908173ffffffffffffffffffffffffffffffffffffffff168152505081602001358160200181815250506135218260800135613b87565b8260400183606001828152508281525050508160a001358160c001818152505061354e8260c00135613b87565b8261012001836101000182815250828152505050365f838060e001906135749190616184565b915091505f82829050111561369f57603482829050101582829050906135d0576040517f120aaab50000000000000000000000000000000000000000000000000000000081526004016135c79190614e08565b60405180910390fd5b505f6135dc8383613ba4565b866080018760a00182815250828152508293505050505f73ffffffffffffffffffffffffffffffffffffffff168173ffffffffffffffffffffffffffffffffffffffff1614158190613664576040517fd8ccb29200000000000000000000000000000000000000000000000000000000815260040161365b9190615dcb565b60405180910390fd5b50808460e0019073ffffffffffffffffffffffffffffffffffffffff16908173ffffffffffffffffffffffffffffffffffffffff1681525050505b50505050565b5f5f8260c001518360a001518460800151856060015186604001510101010190508261010001518102915050919050565b5f5f835f015190505f815f015190506136ff87868880604001906136fa9190616184565b613c43565b5f8260e0015190505f5f90505f73ffffffffffffffffffffffffffffffffffffffff168273ffffffffffffffffffffffffffffffffffffffff160361375f575f613748846111d1565b90508681116137595780870361375b565b5f5b9150505b61376b8989898461409b565b94505f73ffffffffffffffffffffffffffffffffffffffff168273ffffffffffffffffffffffffffffffffffffffff16036137ec576137aa83876141fc565b6137eb57886040517f220266b60000000000000000000000000000000000000000000000000000000081526004016137e29190616fd5565b60405180910390fd5b5b50505050949350505050565b5f5f604083901c90505f8390508067ffffffffffffffff1660015f8773ffffffffffffffffffffffffffffffffffffffff1673ffffffffffffffffffffffffffffffffffffffff1681526020019081526020015f205f8477ffffffffffffffffffffffffffffffffffffffffffffffff1677ffffffffffffffffffffffffffffffffffffffffffffffff1681526020019081526020015f205f8154809291906138a090615bf4565b91905055149250505092915050565b60605f5f5a90505f845f015190505f8160e0015190505f866040015190506138d782826141fc565b61391857886040517f220266b600000000000000000000000000000000000000000000000000000000815260040161390f919061704b565b60405180910390fd5b5f8360800151905061392b8a8a8a61426c565b8097508198505050805a8603111561397a57896040517f220266b600000000000000000000000000000000000000000000000000000000815260040161397191906170c1565b60405180910390fd5b5050505050935093915050565b5f819050919050565b5f81831061399e57816139a0565b825b905092915050565b5f60405182808583378082209250505092915050565b5f5f6139ca8484614407565b90505f8111156139fe576139f684846002600801840187879050036722e325a29743965660c01b614526565b915050613a0c565b613a0884846139a8565b9150505b92915050565b5f5f5f5f8403613a2a575f5f5f925092509250613afe565b5f613a3485614547565b90506580000000000065ffffffffffff16816020015165ffffffffffff1610158015613a7a57506580000000000065ffffffffffff16816040015165ffffffffffff1610155b15613aca575f657fffffffffff82602001511690505f657fffffffffff83604001511690508065ffffffffffff16431180613abd57508165ffffffffffff164311155b9450600193505050613af6565b806040015165ffffffffffff16421180613af05750806020015165ffffffffffff164211155b92505f91505b805f01519350505b9193909250565b60605f613b11836145c7565b90505f602067ffffffffffffffff811115613b2f57613b2e6149a4565b5b6040519080825280601f01601f191660200182016040528015613b615781602001600182028036833780820191505090505b5090508181528360208201528092505050919050565b613b7f614615565b600581905550565b5f5f613b92836146ec565b613b9b846146fb565b91509150915091565b5f5f5f84845f90601492613bba93929190615cf2565b90613bc59190615d6d565b60601c8585601490602492613bdc93929190615cf2565b90613be79190617118565b60801c8686602490603492613bfe93929190615cf2565b90613c099190617118565b60801c816fffffffffffffffffffffffffffffffff169150806fffffffffffffffffffffffffffffffff1690509250925092509250925092565b5f8282905014614094575f835f01515f01519050613c618383612f16565b15613d86576014838390501115613d8057613c7a610be9565b73ffffffffffffffffffffffffffffffffffffffff1663c09ad0d9855f0151604001518386866014908092613cb193929190615cf2565b6040518563ffffffff1660e01b8152600401613ccf93929190617176565b5f604051808303815f88803b158015613ce6575f5ffd5b5087f1158015613cf8573d5f5f3e3d5ffd5b50505050505f613d1d8273ffffffffffffffffffffffffffffffffffffffff16612f81565b90508073ffffffffffffffffffffffffffffffffffffffff168273ffffffffffffffffffffffffffffffffffffffff1686602001517f7c9f9ade6a03a0bba484e52df872467a270e798ffc1adab9dfaa8d0e627f054460405160405180910390a4505b50614095565b6014838390501015613dcf57846040517f220266b6000000000000000000000000000000000000000000000000000000008152600401613dc691906171f0565b60405180910390fd5b5f83835f90601492613de393929190615cf2565b90613dee9190615d6d565b60601c90505f8273ffffffffffffffffffffffffffffffffffffffff163b14613e6b578173ffffffffffffffffffffffffffffffffffffffff1685602001517fa39bcda08ffd11bafb11c4f170ef24fc6dc1a9d1b0394d90dbd19e0b919050e983604051613e5c9190615dcb565b60405180910390a35050614095565b5f613e74610be9565b73ffffffffffffffffffffffffffffffffffffffff1663570e1a36875f01516040015187876040518463ffffffff1660e01b8152600401613eb6929190616045565b6020604051808303815f8887f1158015613ed2573d5f5f3e3d5ffd5b50505050506040513d601f19601f82011682018060405250810190613ef7919061607b565b90505f73ffffffffffffffffffffffffffffffffffffffff168173ffffffffffffffffffffffffffffffffffffffff1603613f6957866040517f220266b6000000000000000000000000000000000000000000000000000000008152600401613f609190617266565b60405180910390fd5b8273ffffffffffffffffffffffffffffffffffffffff168173ffffffffffffffffffffffffffffffffffffffff1614613fd957866040517f220266b6000000000000000000000000000000000000000000000000000000008152600401613fd091906172dc565b60405180910390fd5b5f8173ffffffffffffffffffffffffffffffffffffffff163b0361403457866040517f220266b600000000000000000000000000000000000000000000000000000000815260040161402b9190617352565b60405180910390fd5b8273ffffffffffffffffffffffffffffffffffffffff1686602001517fd51a9c61267aa6196961883ecf5ff2da6619c37dac0fa92122513fb32c032d2d84895f015160e0015160405161408892919061737e565b60405180910390a35050505b5b50505050565b5f5f835f01516040015190505f845f01515f015190505f5f6140bb611f9d565b90505f888860200151886040516024016140d7939291906173a5565b6040516020818303038152906040526319822f7c60e01b6020820180517bffffffffffffffffffffffffffffffffffffffffffffffffffffffff8381831617835250505050905060205f8251602084015f888af192505f51955060203d1461413d575f92505b61414682611fde565b5050806141f1575f8273ffffffffffffffffffffffffffffffffffffffff163b036141a857876040517f220266b600000000000000000000000000000000000000000000000000000000815260040161419f91906173e1565b60405180910390fd5b876141b4610800611fa6565b6040517f65c8fd4d0000000000000000000000000000000000000000000000000000000081526004016141e8929190617457565b60405180910390fd5b505050949350505050565b5f5f5f5f8573ffffffffffffffffffffffffffffffffffffffff1673ffffffffffffffffffffffffffffffffffffffff1681526020019081526020015f2090505f815f0154905083811015614255575f92505050614266565b838103825f01819055506001925050505b92915050565b60605f5f614278611f9d565b90505f8585602001518660400151604051602401614298939291906173a5565b6040516020818303038152906040526352b7512c60e01b6020820180517bffffffffffffffffffffffffffffffffffffffffffffffffffffffff838183161783525050505090505f855f015160e0015190505f865f01516080015190505f5f5f5f5f5f885160208a015f8a8af193503d9050805f893e60208801519850875191506040880199508951925083614371578c614334610800611fa6565b6040517f65c8fd4d0000000000000000000000000000000000000000000000000000000081526004016143689291906174e2565b60405180910390fd5b5f602080601f86018161438757614386615a1c565b5b0402606001905060408314158061439e5750808214155b156143ec578d6143af610800611fa6565b6040517f65c8fd4d0000000000000000000000000000000000000000000000000000000081526004016143e392919061756d565b60405180910390fd5b506143f78882614718565b5050505050505050935093915050565b5f5f8383905090506002600801603401811015614427575f915050614520565b5f84846008840390849261443d93929190615cf2565b9061444891906175d9565b90506722e325a29743965660c01b77ffffffffffffffffffffffffffffffffffffffffffffffff19168177ffffffffffffffffffffffffffffffffffffffffffffffff19161461449c575f92505050614520565b5f8585600260080185039080926144b593929190615cf2565b906144c09190617662565b60f01c61ffff169050600260080160340183038111156145195782816040517f07b9a191000000000000000000000000000000000000000000000000000000008152600401614510929190615e25565b60405180910390fd5b8093505050505b92915050565b5f604051838682378284820152600884019350838120915050949350505050565b61454f614897565b5f8290505f60a084901c90505f8165ffffffffffff16036145745765ffffffffffff90505b5f60d085901c905060405180606001604052808473ffffffffffffffffffffffffffffffffffffffff1681526020018265ffffffffffff1681526020018365ffffffffffff168152509350505050919050565b5f5f60ff835f1c169050601f81111561460c576040517fb3512b0c00000000000000000000000000000000000000000000000000000000815260040160405180910390fd5b80915050919050565b5f5f6040518060400160405280600781526020017f45524334333337000000000000000000000000000000000000000000000000008152508051906020012090505f6040518060400160405280600181526020017f31000000000000000000000000000000000000000000000000000000000000008152508051906020012090507f8b73c3c69bb8fe3d512ecc4cf759cc79239f7b179b0ffacaa9a75d522b39400f828246306040516020016146cf9594939291906176c0565b604051602081830303815290604052805190602001209250505090565b5f6080825f1c901c9050919050565b5f815f1c6fffffffffffffffffffffffffffffffff169050919050565b6147228183614727565b61474b565b6147308261473b565b810180604052505050565b5f601f19601f8301169050919050565b5050565b6040518060a001604052805f81526020015f151581526020015f6dffffffffffffffffffffffffffff1681526020015f63ffffffff1681526020015f65ffffffffffff1681525090565b6040518060a001604052806147ac6148db565b81526020015f81526020015f81526020015f81526020015f81525090565b6040518060c001604052805f81526020015f81526020015f81526020015f81526020015f15158152602001606081525090565b6040518060a00160405280614810614950565b815260200161481d61484a565b815260200161482a61484a565b815260200161483761484a565b8152602001614844614862565b81525090565b60405180604001604052805f81526020015f81525090565b60405180604001604052805f73ffffffffffffffffffffffffffffffffffffffff16815260200161489161484a565b81525090565b60405180606001604052805f73ffffffffffffffffffffffffffffffffffffffff1681526020015f65ffffffffffff1681526020015f65ffffffffffff1681525090565b6040518061014001604052805f73ffffffffffffffffffffffffffffffffffffffff1681526020015f81526020015f81526020015f81526020015f81526020015f81526020015f81526020015f73ffffffffffffffffffffffffffffffffffffffff1681526020015f81526020015f81525090565b6040518060a001604052805f81526020015f81526020015f81526020015f8152602001606081525090565b5f604051905090565b5f5ffd5b5f5ffd5b5f5ffd5b5f5ffd5b5f601f19601f8301169050919050565b7f4e487b71000000000000000000000000000000000000000000000000000000005f52604160045260245ffd5b6149da82614994565b810181811067ffffffffffffffff821117156149f9576149f86149a4565b5b80604052505050565b5f614a0b61497b565b9050614a1782826149d1565b919050565b5f67ffffffffffffffff821115614a3657614a356149a4565b5b614a3f82614994565b9050602081019050919050565b828183375f83830152505050565b5f614a6c614a6784614a1c565b614a02565b905082815260208101848484011115614a8857614a87614990565b5b614a93848285614a4c565b509392505050565b5f82601f830112614aaf57614aae61498c565b5b8135614abf848260208601614a5a565b91505092915050565b5f5ffd5b5f73ffffffffffffffffffffffffffffffffffffffff82169050919050565b5f614af582614acc565b9050919050565b614b0581614aeb565b8114614b0f575f5ffd5b50565b5f81359050614b2081614afc565b92915050565b5f819050919050565b614b3881614b26565b8114614b42575f5ffd5b50565b5f81359050614b5381614b2f565b92915050565b5f6101408284031215614b6f57614b6e614ac8565b5b614b7a610140614a02565b90505f614b8984828501614b12565b5f830152506020614b9c84828501614b45565b6020830152506040614bb084828501614b45565b6040830152506060614bc484828501614b45565b6060830152506080614bd884828501614b45565b60808301525060a0614bec84828501614b45565b60a08301525060c0614c0084828501614b45565b60c08301525060e0614c1484828501614b12565b60e083015250610100614c2984828501614b45565b61010083015250610120614c3f84828501614b45565b6101208301525092915050565b5f819050919050565b614c5e81614c4c565b8114614c68575f5ffd5b50565b5f81359050614c7981614c55565b92915050565b5f6101c08284031215614c9557614c94614ac8565b5b614c9f60a0614a02565b90505f614cae84828501614b59565b5f83015250610140614cc284828501614c6b565b602083015250610160614cd784828501614b45565b604083015250610180614cec84828501614b45565b6060830152506101a0614d0184828501614b45565b60808301525092915050565b5f5ffd5b5f5ffd5b5f5f83601f840112614d2a57614d2961498c565b5b8235905067ffffffffffffffff811115614d4757614d46614d0d565b5b602083019150836001820283011115614d6357614d62614d11565b5b9250929050565b5f5f5f5f6102008587031215614d8357614d82614984565b5b5f85013567ffffffffffffffff811115614da057614d9f614988565b5b614dac87828801614a9b565b9450506020614dbd87828801614c7f565b9350506101e085013567ffffffffffffffff811115614ddf57614dde614988565b5b614deb87828801614d15565b925092505092959194509250565b614e0281614b26565b82525050565b5f602082019050614e1b5f830184614df9565b92915050565b5f7fffffffff0000000000000000000000000000000000000000000000000000000082169050919050565b614e5581614e21565b8114614e5f575f5ffd5b50565b5f81359050614e7081614e4c565b92915050565b5f60208284031215614e8b57614e8a614984565b5b5f614e9884828501614e62565b91505092915050565b5f8115159050919050565b614eb581614ea1565b82525050565b5f602082019050614ece5f830184614eac565b92915050565b5f63ffffffff82169050919050565b614eec81614ed4565b8114614ef6575f5ffd5b50565b5f81359050614f0781614ee3565b92915050565b5f60208284031215614f2257614f21614984565b5b5f614f2f84828501614ef9565b91505092915050565b5f819050919050565b5f614f5b614f56614f5184614acc565b614f38565b614acc565b9050919050565b5f614f6c82614f41565b9050919050565b5f614f7d82614f62565b9050919050565b614f8d81614f73565b82525050565b5f602082019050614fa65f830184614f84565b92915050565b5f77ffffffffffffffffffffffffffffffffffffffffffffffff82169050919050565b614fd881614fac565b8114614fe2575f5ffd5b50565b5f81359050614ff381614fcf565b92915050565b5f6020828403121561500e5761500d614984565b5b5f61501b84828501614fe5565b91505092915050565b61502d81614c4c565b82525050565b5f6020820190506150465f830184615024565b92915050565b5f5f6040838503121561506257615061614984565b5b5f61506f85828601614b12565b925050602061508085828601614fe5565b9150509250929050565b5f5f5f5f5f606086880312156150a3576150a2614984565b5b5f86013567ffffffffffffffff8111156150c0576150bf614988565b5b6150cc88828901614d15565b955095505060206150df88828901614b12565b935050604086013567ffffffffffffffff811115615100576150ff614988565b5b61510c88828901614d15565b92509250509295509295909350565b5f61512582614acc565b9050919050565b6151358161511b565b811461513f575f5ffd5b50565b5f813590506151508161512c565b92915050565b5f5f6040838503121561516c5761516b614984565b5b5f61517985828601615142565b925050602061518a85828601614b45565b9150509250929050565b5f5ffd5b5f61012082840312156151ae576151ad615194565b5b81905092915050565b5f602082840312156151cc576151cb614984565b5b5f82013567ffffffffffffffff8111156151e9576151e8614988565b5b6151f584828501615198565b91505092915050565b5f6020828403121561521357615212614984565b5b5f61522084828501614b12565b91505092915050565b61523281614b26565b82525050565b61524181614ea1565b82525050565b5f6dffffffffffffffffffffffffffff82169050919050565b61526981615247565b82525050565b61527881614ed4565b82525050565b5f65ffffffffffff82169050919050565b6152988161527e565b82525050565b60a082015f8201516152b25f850182615229565b5060208201516152c56020850182615238565b5060408201516152d86040850182615260565b5060608201516152eb606085018261526f565b5060808201516152fe608085018261528f565b50505050565b5f60a0820190506153175f83018461529e565b92915050565b5f5f83601f8401126153325761533161498c565b5b8235905067ffffffffffffffff81111561534f5761534e614d0d565b5b60208301915083602082028301111561536b5761536a614d11565b5b9250929050565b5f5f5f6040848603121561538957615388614984565b5b5f84013567ffffffffffffffff8111156153a6576153a5614988565b5b6153b28682870161531d565b935093505060206153c586828701615142565b9150509250925092565b5f7fff0000000000000000000000000000000000000000000000000000000000000082169050919050565b615403816153cf565b82525050565b5f81519050919050565b5f82825260208201905092915050565b8281835e5f83830152505050565b5f61543b82615409565b6154458185615413565b9350615455818560208601615423565b61545e81614994565b840191505092915050565b61547281614aeb565b82525050565b5f81519050919050565b5f82825260208201905092915050565b5f819050602082019050919050565b5f6154ac8383615229565b60208301905092915050565b5f602082019050919050565b5f6154ce82615478565b6154d88185615482565b93506154e383615492565b805f5b838110156155135781516154fa88826154a1565b9750615505836154b8565b9250506001810190506154e6565b5085935050505092915050565b5f60e0820190506155335f83018a6153fa565b81810360208301526155458189615431565b905081810360408301526155598188615431565b90506155686060830187614df9565b6155756080830186615469565b61558260a0830185615024565b81810360c083015261559481846154c4565b905098975050505050505050565b5f5f5f604084860312156155b9576155b8614984565b5b5f6155c686828701614b12565b935050602084013567ffffffffffffffff8111156155e7576155e6614988565b5b6155f386828701614d15565b92509250509250925092565b5f5f5f5f6060858703121561561757615616614984565b5b5f85013567ffffffffffffffff81111561563457615633614988565b5b61564087828801615198565b945050602061565187828801614b12565b935050604085013567ffffffffffffffff81111561567257615671614988565b5b61567e87828801614d15565b925092505092959194509250565b5f81519050919050565b5f82825260208201905092915050565b5f6156b08261568c565b6156ba8185615696565b93506156ca818560208601615423565b6156d381614994565b840191505092915050565b5f60c083015f8301516156f35f860182615229565b5060208301516157066020860182615229565b5060408301516157196040860182615229565b50606083015161572c6060860182615229565b50608083015161573f6080860182615238565b5060a083015184820360a086015261575782826156a6565b9150508091505092915050565b5f6020820190508181035f83015261577c81846156de565b905092915050565b5f5f6020838503121561579a57615799614984565b5b5f83013567ffffffffffffffff8111156157b7576157b6614988565b5b6157c385828601614d15565b92509250509250929050565b5f602082840312156157e4576157e3614984565b5b5f6157f184828501615142565b91505092915050565b5f60a083015f83015161580f5f860182615229565b5060208301516158226020860182615229565b5060408301516158356040860182615229565b5060608301516158486060860182615229565b506080830151848203608086015261586082826156a6565b9150508091505092915050565b604082015f8201516158815f850182615229565b5060208201516158946020850182615229565b50505050565b6158a381614aeb565b82525050565b606082015f8201516158bd5f85018261589a565b5060208201516158d0602085018261586d565b50505050565b5f61014083015f8301518482035f8601526158f182826157fa565b9150506020830151615906602086018261586d565b506040830151615919606086018261586d565b50606083015161592c60a086018261586d565b50608083015161593f60e08601826158a9565b508091505092915050565b5f6020820190508181035f83015261596281846158d6565b905092915050565b5f5f83601f84011261597f5761597e61498c565b5b8235905067ffffffffffffffff81111561599c5761599b614d0d565b5b6020830191508360208202830111156159b8576159b7614d11565b5b9250929050565b5f5f5f604084860312156159d6576159d5614984565b5b5f84013567ffffffffffffffff8111156159f3576159f2614988565b5b6159ff8682870161596a565b93509350506020615a1286828701615142565b9150509250925092565b7f4e487b71000000000000000000000000000000000000000000000000000000005f52601260045260245ffd5b5f82825260208201905092915050565b5f615a638261568c565b615a6d8185615a49565b9350615a7d818560208601615423565b615a8681614994565b840191505092915050565b5f604082019050615aa45f830185614df9565b8181036020830152615ab68184615a59565b90509392505050565b5f615ad9615ad4615acf84614ed4565b614f38565b614b26565b9050919050565b615ae981615abf565b82525050565b5f604082019050615b025f830185615ae0565b615b0f6020830184615ae0565b9392505050565b7f4e487b71000000000000000000000000000000000000000000000000000000005f52601160045260245ffd5b5f615b4d82614b26565b9150615b5883614b26565b9250828201905080821115615b7057615b6f615b16565b5b92915050565b5f615b90615b8b615b8684615247565b614f38565b614b26565b9050919050565b615ba081615b76565b82525050565b5f604082019050615bb95f830185614df9565b615bc66020830184615b97565b9392505050565b5f604082019050615be05f830185614df9565b615bed6020830184615ae0565b9392505050565b5f615bfe82614b26565b91507fffffffffffffffffffffffffffffffffffffffffffffffffffffffffffffffff8203615c3057615c2f615b16565b5b600182019050919050565b5f819050919050565b5f615c5e615c59615c5484615c3b565b614f38565b614b26565b9050919050565b615c6e81615c44565b82525050565b7f41413230206163636f756e74206e6f74206465706c6f796564000000000000005f82015250565b5f615ca8601983615413565b9150615cb382615c74565b602082019050919050565b5f604082019050615cd15f830184615c65565b8181036020830152615ce281615c9c565b905092915050565b5f5ffd5b5f5ffd5b5f5f85851115615d0557615d04615cea565b5b83861115615d1657615d15615cee565b5b6001850283019150848603905094509492505050565b5f82905092915050565b5f7fffffffffffffffffffffffffffffffffffffffff00000000000000000000000082169050919050565b5f82821b905092915050565b5f615d788383615d2c565b82615d838135615d36565b92506014821015615dc357615dbe7fffffffffffffffffffffffffffffffffffffffff00000000000000000000000083601403600802615d61565b831692505b505092915050565b5f602082019050615dde5f830184615469565b92915050565b50565b5f615df25f83615413565b9150615dfd82615de4565b5f82019050919050565b5f6020820190508181035f830152615e1e81615de7565b9050919050565b5f604082019050615e385f830185614df9565b615e456020830184614df9565b9392505050565b5f615e5682614b26565b9150615e6183614b26565b9250828203905081811115615e7957615e78615b16565b5b92915050565b5f615e8982614f62565b9050919050565b615e9981615e7f565b82525050565b5f604082019050615eb25f830185615e90565b615ebf6020830184614df9565b9392505050565b5f81905092915050565b5f615edb5f83615ec6565b9150615ee682615de4565b5f82019050919050565b5f615efa82615ed0565b9150819050919050565b5f608082019050615f175f830187615469565b615f246020830186615e90565b615f316040830185614df9565b8181036060830152615f438184615a59565b905095945050505050565b7f4e487b71000000000000000000000000000000000000000000000000000000005f52603260045260245ffd5b5f5ffd5b5f5ffd5b5f5ffd5b5f8235600161012003833603038112615fa357615fa2615f7b565b5b80830191505092915050565b5f615fba8385615ec6565b9350615fc7838584614a4c565b82840190509392505050565b5f615fdf828486615faf565b91508190509392505050565b5f604082019050615ffe5f830185614eac565b81810360208301526160108184615a59565b90509392505050565b5f6160248385615a49565b9350616031838584614a4c565b61603a83614994565b840190509392505050565b5f6020820190508181035f83015261605e818486616019565b90509392505050565b5f8151905061607581614afc565b92915050565b5f602082840312156160905761608f614984565b5b5f61609d84828501616067565b91505092915050565b5f6060820190506160b95f830186615b97565b6160c66020830185615ae0565b6160d36040830184614eac565b949350505050565b5f6160e58261527e565b91506160f08361527e565b9250828201905065ffffffffffff81111561610e5761610d615b16565b5b92915050565b5f61612e6161296161248461527e565b614f38565b614b26565b9050919050565b61613e81616114565b82525050565b5f6020820190506161575f830184616135565b92915050565b5f6040820190506161705f830185616135565b61617d6020830184614df9565b9392505050565b5f5f833560016020038436030381126161a05761619f615f7b565b5b80840192508235915067ffffffffffffffff8211156161c2576161c1615f7f565b5b6020830192506001820236038313156161de576161dd615f83565b5b509250929050565b7f4e487b71000000000000000000000000000000000000000000000000000000005f52602160045260245ffd5b60038110616224576162236161e6565b5b50565b5f81905061623482616213565b919050565b5f61624382616227565b9050919050565b61625381616239565b82525050565b5f60808201905061626c5f83018761624a565b818103602083015261627e8186615a59565b905061628d6040830185614df9565b61629a6060830184614df9565b95945050505050565b5f6020820190508181035f8301526162bb8184615a59565b905092915050565b5f8160601b9050919050565b5f6162d9826162c3565b9050919050565b5f6162ea826162cf565b9050919050565b6163026162fd82614aeb565b6162e0565b82525050565b5f61631382846162f1565b60148201915081905092915050565b5f61632d82866162f1565b60148201915061633e828486615faf565b9150819050949350505050565b5f6163596020840184614b12565b905092915050565b5f61636f6020840184614b45565b905092915050565b5f5ffd5b5f5ffd5b5f5ffd5b5f5f8335600160200384360303811261639f5761639e61637f565b5b83810192508235915060208301925067ffffffffffffffff8211156163c7576163c6616377565b5b6001820236038313156163dd576163dc61637b565b5b509250929050565b5f6163f08385615696565b93506163fd838584614a4c565b61640683614994565b840190509392505050565b5f61641f6020840184614c6b565b905092915050565b61643081614c4c565b82525050565b5f61012083016164485f84018461634b565b6164545f86018261589a565b506164626020840184616361565b61646f6020860182615229565b5061647d6040840184616383565b85830360408701526164908382846163e5565b925050506164a16060840184616383565b85830360608701526164b48382846163e5565b925050506164c56080840184616411565b6164d26080860182616427565b506164e060a0840184616361565b6164ed60a0860182615229565b506164fb60c0840184616411565b61650860c0860182616427565b5061651660e0840184616383565b85830360e08701526165298382846163e5565b9250505061653b610100840184616383565b85830361010087015261654f8382846163e5565b925050508091505092915050565b5f6040820190508181035f8301526165758185616436565b90506165846020830184615024565b9392505050565b61014082015f8201516165a05f85018261589a565b5060208201516165b36020850182615229565b5060408201516165c66040850182615229565b5060608201516165d96060850182615229565b5060808201516165ec6080850182615229565b5060a08201516165ff60a0850182615229565b5060c082015161661260c0850182615229565b5060e082015161662560e085018261589a565b5061010082015161663a610100850182615229565b5061012082015161664f610120850182615229565b50505050565b6101c082015f82015161666a5f85018261658b565b50602082015161667e610140850182616427565b506040820151616692610160850182615229565b5060608201516166a6610180850182615229565b5060808201516166ba6101a0850182615229565b50505050565b5f610200820190508181035f8301526166d98186615a59565b90506166e86020830185616655565b8181036101e08301526166fb8184615a59565b9050949350505050565b5f610200820190508181035f83015261671f818688616019565b905061672e6020830185616655565b8181036101e08301526167418184615a59565b905095945050505050565b7f41413935206f7574206f662067617300000000000000000000000000000000005f82015250565b5f616780600f83615413565b915061678b8261674c565b602082019050919050565b5f6040820190506167a95f830184614df9565b81810360208301526167ba81616774565b905092915050565b5f6020820190506167d55f830184615e90565b92915050565b5f6060820190506167ee5f830186615e90565b6167fb6020830185614df9565b818103604083015261680d8184615a59565b9050949350505050565b5f6060820190508181035f830152616830818789616019565b905061683f6020830186615469565b8181036040830152616852818486616019565b90509695505050505050565b5f8160e01c9050919050565b5f60033d11156168865760045f5f3e6168835f5161685e565b90505b90565b5f60443d106169155761689a61497b565b60043d036004823e80513d602482011167ffffffffffffffff821117156168c2575050616915565b808201805167ffffffffffffffff8111156168e05750505050616915565b80602083010160043d0385018111156168fd575050505050616915565b61690c826020018501866149d1565b82955050505050505b90565b5f60408201905061692b5f830185615c65565b818103602083015261693d8184615431565b90509392505050565b7f41413934206761732076616c756573206f766572666c6f7700000000000000005f82015250565b5f61697a601883615413565b915061698582616946565b602082019050919050565b5f6040820190506169a35f830184614df9565b81810360208301526169b48161696e565b905092915050565b7f4141323520696e76616c6964206163636f756e74206e6f6e63650000000000005f82015250565b5f6169f0601a83615413565b91506169fb826169bc565b602082019050919050565b5f604082019050616a195f830184614df9565b8181036020830152616a2a816169e4565b905092915050565b7f41413236206f76657220766572696669636174696f6e4761734c696d697400005f82015250565b5f616a66601e83615413565b9150616a7182616a32565b602082019050919050565b5f604082019050616a8f5f830184614df9565b8181036020830152616aa081616a5a565b905092915050565b5f608082019050616abb5f830187614df9565b616ac86020830186614eac565b616ad56040830185614df9565b616ae26060830184614df9565b95945050505050565b5f61012082019050616aff5f83018c615024565b616b0c602083018b615469565b616b19604083018a614df9565b616b266060830189615024565b616b336080830188615024565b616b4060a0830187615024565b616b4d60c0830186614df9565b616b5a60e0830185615024565b616b68610100830184615024565b9a9950505050505050505050565b7f41413234207369676e6174757265206572726f720000000000000000000000005f82015250565b5f616baa601483615413565b9150616bb582616b76565b602082019050919050565b5f604082019050616bd35f830184614df9565b8181036020830152616be481616b9e565b905092915050565b7f41413237206f7574736964652076616c696420626c6f636b2072616e676500005f82015250565b5f616c20601e83615413565b9150616c2b82616bec565b602082019050919050565b5f604082019050616c495f830184614df9565b8181036020830152616c5a81616c14565b905092915050565b7f414132322065787069726564206f72206e6f74206475650000000000000000005f82015250565b5f616c96601783615413565b9150616ca182616c62565b602082019050919050565b5f604082019050616cbf5f830184614df9565b8181036020830152616cd081616c8a565b905092915050565b7f41413334207369676e6174757265206572726f720000000000000000000000005f82015250565b5f616d0c601483615413565b9150616d1782616cd8565b602082019050919050565b5f604082019050616d355f830184614df9565b8181036020830152616d4681616d00565b905092915050565b7f41413337207061796d617374657220696e76616c20626c6f636b2072616e67655f82015250565b5f616d82602083615413565b9150616d8d82616d4e565b602082019050919050565b5f604082019050616dab5f830184614df9565b8181036020830152616dbc81616d76565b905092915050565b7f41413332207061796d61737465722065787069726564206f72206e6f742064755f8201527f6500000000000000000000000000000000000000000000000000000000000000602082015250565b5f616e1e602183615413565b9150616e2982616dc4565b604082019050919050565b5f604082019050616e475f830184614df9565b8181036020830152616e5881616e12565b905092915050565b7f4e487b71000000000000000000000000000000000000000000000000000000005f52602260045260245ffd5b5f6002820490506001821680616ea457607f821691505b602082108103616eb757616eb6616e60565b5b50919050565b5f81905092915050565b7fd6940000000000000000000000000000000000000000000000000000000000005f82015250565b5f616efb600283616ebd565b9150616f0682616ec7565b600282019050919050565b7f01000000000000000000000000000000000000000000000000000000000000005f82015250565b5f616f45600183616ebd565b9150616f5082616f11565b600182019050919050565b5f616f6582616eef565b9150616f7182846162f1565b601482019150616f8082616f39565b915081905092915050565b7f41413231206469646e2774207061792070726566756e640000000000000000005f82015250565b5f616fbf601783615413565b9150616fca82616f8b565b602082019050919050565b5f604082019050616fe85f830184614df9565b8181036020830152616ff981616fb3565b905092915050565b7f41413331207061796d6173746572206465706f73697420746f6f206c6f7700005f82015250565b5f617035601e83615413565b915061704082617001565b602082019050919050565b5f60408201905061705e5f830184614df9565b818103602083015261706f81617029565b905092915050565b7f41413336206f76657220706d566572696669636174696f6e4761734c696d69745f82015250565b5f6170ab602083615413565b91506170b682617077565b602082019050919050565b5f6040820190506170d45f830184614df9565b81810360208301526170e58161709f565b905092915050565b5f7fffffffffffffffffffffffffffffffff0000000000000000000000000000000082169050919050565b5f6171238383615d2c565b8261712e81356170ed565b9250601082101561716e576171697fffffffffffffffffffffffffffffffff0000000000000000000000000000000083601003600802615d61565b831692505b505092915050565b5f6040820190506171895f830186615469565b818103602083015261719c818486616019565b9050949350505050565b7f4141393920696e6974436f646520746f6f20736d616c6c0000000000000000005f82015250565b5f6171da601783615413565b91506171e5826171a6565b602082019050919050565b5f6040820190506172035f830184614df9565b8181036020830152617214816171ce565b905092915050565b7f4141313320696e6974436f6465206661696c6564206f72204f4f4700000000005f82015250565b5f617250601b83615413565b915061725b8261721c565b602082019050919050565b5f6040820190506172795f830184614df9565b818103602083015261728a81617244565b905092915050565b7f4141313420696e6974436f6465206d7573742072657475726e2073656e6465725f82015250565b5f6172c6602083615413565b91506172d182617292565b602082019050919050565b5f6040820190506172ef5f830184614df9565b8181036020830152617300816172ba565b905092915050565b7f4141313520696e6974436f6465206d757374206372656174652073656e6465725f82015250565b5f61733c602083615413565b915061734782617308565b602082019050919050565b5f6040820190506173655f830184614df9565b818103602083015261737681617330565b905092915050565b5f6040820190506173915f830185615469565b61739e6020830184615469565b9392505050565b5f6060820190508181035f8301526173bd8186616436565b90506173cc6020830185615024565b6173d96040830184614df9565b949350505050565b5f6040820190506173f45f830184614df9565b818103602083015261740581615c9c565b905092915050565b7f41413233207265766572746564000000000000000000000000000000000000005f82015250565b5f617441600d83615413565b915061744c8261740d565b602082019050919050565b5f60608201905061746a5f830185614df9565b818103602083015261747b81617435565b9050818103604083015261748f8184615a59565b90509392505050565b7f41413333207265766572746564000000000000000000000000000000000000005f82015250565b5f6174cc600d83615413565b91506174d782617498565b602082019050919050565b5f6060820190506174f55f830185614df9565b8181036020830152617506816174c0565b9050818103604083015261751a8184615a59565b90509392505050565b7f41413335206d616c666f726d6564207061796d617374657220646174610000005f82015250565b5f617557601d83615413565b915061756282617523565b602082019050919050565b5f6060820190506175805f830185614df9565b81810360208301526175918161754b565b905081810360408301526175a58184615a59565b90509392505050565b5f7fffffffffffffffff00000000000000000000000000000000000000000000000082169050919050565b5f6175e48383615d2c565b826175ef81356175ae565b9250600882101561762f5761762a7fffffffffffffffff00000000000000000000000000000000000000000000000083600803600802615d61565b831692505b505092915050565b5f7fffff00000000000000000000000000000000000000000000000000000000000082169050919050565b5f61766d8383615d2c565b826176788135617637565b925060028210156176b8576176b37fffff00000000000000000000000000000000000000000000000000000000000083600203600802615d61565b831692505b505092915050565b5f60a0820190506176d35f830188615024565b6176e06020830187615024565b6176ed6040830186615024565b6176fa6060830185614df9565b6177076080830184615469565b969550505050505056fea2646970667358221220a20a3f69379371a9a601ed508505f02d11fdc497b87a93268198cc6ec9e4cdb864736f6c634300081e003360a060405234801561000f575f5ffd5b503373ffffffffffffffffffffffffffffffffffffffff1660808173ffffffffffffffffffffffffffffffffffffffff16815250506080516108e76100775f395f818160b0015281816101010152818161020a0152818161022e015261027f01526108e75ff3fe608060405234801561000f575f5ffd5b506004361061003f575f3560e01c8063570e1a3614610043578063b0d691fe14610073578063c09ad0d914610091575b5f5ffd5b61005d600480360381019061005891906103f6565b6100ad565b60405161006a9190610480565b60405180910390f35b61007b610208565b6040516100889190610480565b60405180910390f35b6100ab60048036038101906100a691906105fb565b61022c565b005b5f7f000000000000000000000000000000000000000000000000000000000000000073ffffffffffffffffffffffffffffffffffffffff163373ffffffffffffffffffffffffffffffffffffffff161433307f0000000000000000000000000000000000000000000000000000000000000000909192610165576040517ffe34a6d300000000000000000000000000000000000000000000000000000000815260040161015c93929190610655565b60405180910390fd5b5050505f83835f9060149261017c93929190610692565b90610187919061070d565b60601c90505f848460149080926101a093929190610692565b8080601f0160208091040260200160405190810160405280939291908181526020018383808284375f81840152601f19601f8201169050808301925050505050505090505f60205f8351602085015f875af1905080156101ff575f5193505b50505092915050565b7f000000000000000000000000000000000000000000000000000000000000000081565b7f000000000000000000000000000000000000000000000000000000000000000073ffffffffffffffffffffffffffffffffffffffff163373ffffffffffffffffffffffffffffffffffffffff161433307f00000000000000000000000000000000000000000000000000000000000000009091926102e3576040517ffe34a6d30000000000000000000000000000000000000000000000000000000081526004016102da93929190610655565b60405180910390fd5b5050505f5f5f8351602085015f875af1905080610347575f61030661080061034c565b90505f816040517f65c8fd4d00000000000000000000000000000000000000000000000000000000815260040161033e929190610870565b60405180910390fd5b505050565b60603d5f8311156103645782811115610363578290505b5b604051602082018101604052818152815f602083013e8092505050919050565b5f604051905090565b5f5ffd5b5f5ffd5b5f5ffd5b5f5ffd5b5f5ffd5b5f5f83601f8401126103b6576103b5610395565b5b8235905067ffffffffffffffff8111156103d3576103d2610399565b5b6020830191508360018202830111156103ef576103ee61039d565b5b9250929050565b5f5f6020838503121561040c5761040b61038d565b5b5f83013567ffffffffffffffff81111561042957610428610391565b5b610435858286016103a1565b92509250509250929050565b5f73ffffffffffffffffffffffffffffffffffffffff82169050919050565b5f61046a82610441565b9050919050565b61047a81610460565b82525050565b5f6020820190506104935f830184610471565b92915050565b6104a281610460565b81146104ac575f5ffd5b50565b5f813590506104bd81610499565b92915050565b5f5ffd5b5f601f19601f8301169050919050565b7f4e487b71000000000000000000000000000000000000000000000000000000005f52604160045260245ffd5b61050d826104c7565b810181811067ffffffffffffffff8211171561052c5761052b6104d7565b5b80604052505050565b5f61053e610384565b905061054a8282610504565b919050565b5f67ffffffffffffffff821115610569576105686104d7565b5b610572826104c7565b9050602081019050919050565b828183375f83830152505050565b5f61059f61059a8461054f565b610535565b9050828152602081018484840111156105bb576105ba6104c3565b5b6105c684828561057f565b509392505050565b5f82601f8301126105e2576105e1610395565b5b81356105f284826020860161058d565b91505092915050565b5f5f604083850312156106115761061061038d565b5b5f61061e858286016104af565b925050602083013567ffffffffffffffff81111561063f5761063e610391565b5b61064b858286016105ce565b9150509250929050565b5f6060820190506106685f830186610471565b6106756020830185610471565b6106826040830184610471565b949350505050565b5f5ffd5b5f5ffd5b5f5f858511156106a5576106a461068a565b5b838611156106b6576106b561068e565b5b6001850283019150848603905094509492505050565b5f82905092915050565b5f7fffffffffffffffffffffffffffffffffffffffff00000000000000000000000082169050919050565b5f82821b905092915050565b5f61071883836106cc565b8261072381356106d6565b925060148210156107635761075e7fffffffffffffffffffffffffffffffffffffffff00000000000000000000000083601403600802610701565b831692505b505092915050565b5f819050919050565b5f819050919050565b5f819050919050565b5f6107a061079b6107968461076b565b61077d565b610774565b9050919050565b6107b081610786565b82525050565b5f82825260208201905092915050565b7f4141313320454950373730322073656e64657220696e6974206661696c6564005f82015250565b5f6107fa601f836107b6565b9150610805826107c6565b602082019050919050565b5f81519050919050565b5f82825260208201905092915050565b8281835e5f83830152505050565b5f61084282610810565b61084c818561081a565b935061085c81856020860161082a565b610865816104c7565b840191505092915050565b5f6060820190506108835f8301856107a7565b8181036020830152610894816107ee565b905081810360408301526108a88184610838565b9050939250505056fea26469706673582212208ff93ec4f3e2784eadbd8a88944264b94bc70cbf1aedfe05a06ab893a1bf6a5e64736f6c634300081e0033","linkReferences":{}},"methodIdentifiers":{"addStake(uint32)":"0396cb60","balanceOf(address)":"70a08231","delegateAndRevert(address,bytes)":"850aaf62","depositTo(address)":"b760faf9","eip712Domain()":"84b0196e","getCurrentUserOpHash()":"b0a398d1","getDepositInfo(address)":"5287ce12","getDomainSeparatorV4()":"13c65a6e","getNonce(address,uint192)":"35567e1a","getPackedUserOpTypeHash()":"154e58dc","getSenderAddress(bytes)":"9b249f69","getUserOpHash((address,uint256,bytes,bytes,bytes32,uint256,bytes32,bytes,bytes))":"22cdde4c","handleAggregatedOps(((address,uint256,bytes,bytes,bytes32,uint256,bytes32,bytes,bytes)[],address,bytes)[],address)":"dbed18e0","handleOps((address,uint256,bytes,bytes,bytes32,uint256,bytes32,bytes,bytes)[],address)":"765e827f","incrementNonce(uint192)":"0bd28e3b","innerHandleOp(bytes,((address,uint256,uint256,uint256,uint256,uint256,uint256,address,uint256,uint256),bytes32,uint256,uint256,uint256),bytes)":"0042dc53","nonceSequenceNumber(address,uint192)":"1b2e01b8","senderCreator()":"09ccb880","simulateHandleOp((address,uint256,bytes,bytes,bytes32,uint256,bytes32,bytes,bytes),address,bytes)":"97b2dcb9","simulateValidation((address,uint256,bytes,bytes,bytes32,uint256,bytes32,bytes,bytes))":"c3bce009","supportsInterface(bytes4)":"01ffc9a7","unlockStake()":"bb9fe6bf","validateSenderAndPaymaster(bytes,address,bytes)":"1f5ae7bb","withdrawStake(address)":"c23a5cea","withdrawTo(address,uint256)":"205c2878"},"id":8}