{"abi":[{"type":"constructor","inputs":[{"name":"wrappedToken","type":"address","internalType":"contract IERC20"}],"stateMutability":"nonpayable"},{"type":"function","name":"CLOCK_MODE","inputs":[],"outputs":[{"name":"","type":"string","internalType":"string"}],"stateMutability":"view"},{"type":"function","name":"DOMAIN_SEPARATOR","inputs":[],"outputs":[{"name":"","type":"bytes32","internalType":"bytes32"}],"stateMutability":"view"},{"type":"function","name":"allowance","inputs":[{"name":"owner","type":"address","internalType":"address"},{"name":"spender","type":"address","internalType":"address"}],"outputs":[{"name":"","type":"uint256","internalType":"uint256"}],"stateMutability":"view"},{"type":"function","name":"approve","inputs":[{"name":"spender","type":"address","internalType":"address"},{"name":"value","type":"uint256","internalType":"uint256"}],"outputs":[{"name":"","type":"bool","internalType":"bool"}],"stateMutability":"nonpayable"},{"type":"function","name":"balanceOf","inputs":[{"name":"account","type":"address","internalType":"address"}],"outputs":[{"name":"","type":"uint256","internalType":"uint256"}],"stateMutability":"view"},{"type":"function","name":"checkpoints","inputs":[{"name":"account","type":"address","internalType":"address"},{"name":"pos","type":"uint32","internalType":"uint32"}],"outputs":[{"name":"","type":"tuple","internalType":"struct Checkpoints.Checkpoint208","components":[{"name":"_key","type":"uint48","internalType":"uint48"},{"name":"_value","type":"uint208","internalType":"uint208"}]}],"stateMutability":"view"},{"type":"function","name":"clock","inputs":[],"outputs":[{"name":"","type":"uint48","internalType":"uint48"}],"stateMutability":"view"},{"type":"function","name":"decimals","inputs":[],"outputs":[{"name":"","type":"uint8","internalType":"uint8"}],"stateMutability":"view"},{"type":"function","name":"delegate","inputs":[{"name":"delegatee","type":"address","internalType":"address"}],"outputs":[],"stateMutability":"nonpayable"},{"type":"function","name":"delegateBySig","inputs":[{"name":"delegatee","type":"address","internalType":"address"},{"name":"nonce","type":"uint256","internalType":"uint256"},{"name":"expiry","type":"uint256","internalType":"uint256"},{"name":"v","type":"uint8","internalType":"uint8"},{"name":"r","type":"bytes32","internalType":"bytes32"},{"name":"s","type":"bytes32","internalType":"bytes32"}],"outputs":[],"stateMutability":"nonpayable"},{"type":"function","name":"delegates","inputs":[{"name":"account","type":"address","internalType":"address"}],"outputs":[{"name":"","type":"address","internalType":"address"}],"stateMutability":"view"},{"type":"function","name":"depositFor","inputs":[{"name":"account","type":"address","internalType":"address"},{"name":"value","type":"uint256","internalType":"uint256"}],"outputs":[{"name":"","type":"bool","internalType":"bool"}],"stateMutability":"nonpayable"},{"type":"function","name":"eip712Domain","inputs":[],"outputs":[{"name":"fields","type":"bytes1","internalType":"bytes1"},{"name":"name","type":"string","internalType":"string"},{"name":"version","type":"string","internalType":"string"},{"name":"chainId","type":"uint256","internalType":"uint256"},{"name":"verifyingContract","type":"address","internalType":"address"},{"name":"salt","type":"bytes32","internalType":"bytes32"},{"name":"extensions","type":"uint256[]","internalType":"uint256[]"}],"stateMutability":"view"},{"type":"function","name":"getPastTotalSupply","inputs":[{"name":"timepoint","type":"uint256","internalType":"uint256"}],"outputs":[{"name":"","type":"uint256","internalType":"uint256"}],"stateMutability":"view"},{"type":"function","name":"getPastVotes","inputs":[{"name":"account","type":"address","internalType":"address"},{"name":"timepoint","type":"uint256","internalType":"uint256"}],"outputs":[{"name":"","type":"uint256","internalType":"uint256"}],"stateMutability":"view"},{"type":"function","name":"getVotes","inputs":[{"name":"account","type":"address","internalType":"address"}],"outputs":[{"name":"","type":"uint256","internalType":"uint256"}],"stateMutability":"view"},{"type":"function","name":"name","inputs":[],"outputs":[{"name":"","type":"string","internalType":"string"}],"stateMutability":"view"},{"type":"function","name":"nonces","inputs":[{"name":"owner","type":"address","internalType":"address"}],"outputs":[{"name":"","type":"uint256","internalType":"uint256"}],"stateMutability":"view"},{"type":"function","name":"numCheckpoints","inputs":[{"name":"account","type":"address","internalType":"address"}],"outputs":[{"name":"","type":"uint32","internalType":"uint32"}],"stateMutability":"view"},{"type":"function","name":"permit","inputs":[{"name":"owner","type":"address","internalType":"address"},{"name":"spender","type":"address","internalType":"address"},{"name":"value","type":"uint256","internalType":"uint256"},{"name":"deadline","type":"uint256","internalType":"uint256"},{"name":"v","type":"uint8","internalType":"uint8"},{"name":"r","type":"bytes32","internalType":"bytes32"},{"name":"s","type":"bytes32","internalType":"bytes32"}],"outputs":[],"stateMutability":"nonpayable"},{"type":"function","name":"symbol","inputs":[],"outputs":[{"name":"","type":"string","internalType":"string"}],"stateMutability":"view"},{"type":"function","name":"totalSupply","inputs":[],"outputs":[{"name":"","type":"uint256","internalType":"uint256"}],"stateMutability":"view"},{"type":"function","name":"transfer","inputs":[{"name":"to","type":"address","internalType":"address"},{"name":"value","type":"uint256","internalType":"uint256"}],"outputs":[{"name":"","type":"bool","internalType":"bool"}],"stateMutability":"nonpayable"},{"type":"function","name":"transferFrom","inputs":[{"name":"from","type":"address","internalType":"address"},{"name":"to","type":"address","internalType":"address"},{"name":"value","type":"uint256","internalType":"uint256"}],"outputs":[{"name":"","type":"bool","internalType":"bool"}],"stateMutability":"nonpayable"},{"type":"function","name":"underlying","inputs":[],"outputs":[{"name":"","type":"address","internalType":"contract IERC20"}],"stateMutability":"view"},{"type":"function","name":"withdrawTo","inputs":[{"name":"account","type":"address","internalType":"address"},{"name":"value","type":"uint256","internalType":"uint256"}],"outputs":[{"name":"","type":"bool","internalType":"bool"}],"stateMutability":"nonpayable"},{"type":"event","name":"Approval","inputs":[{"name":"owner","type":"address","indexed":true,"internalType":"address"},{"name":"spender","type":"address","indexed":true,"internalType":"address"},{"name":"value","type":"uint256","indexed":false,"internalType":"uint256"}],"anonymous":false},{"type":"event","name":"DelegateChanged","inputs":[{"name":"delegator","type":"address","indexed":true,"internalType":"address"},{"name":"fromDelegate","type":"address","indexed":true,"internalType":"address"},{"name":"toDelegate","type":"address","indexed":true,"internalType":"address"}],"anonymous":false},{"type":"event","name":"DelegateVotesChanged","inputs":[{"name":"delegate","type":"address","indexed":true,"internalType":"address"},{"name":"previousVotes","type":"uint256","indexed":false,"internalType":"uint256"},{"name":"newVotes","type":"uint256","indexed":false,"internalType":"uint256"}],"anonymous":false},{"type":"event","name":"EIP712DomainChanged","inputs":[],"anonymous":false},{"type":"event","name":"Transfer","inputs":[{"name":"from","type":"address","indexed":true,"internalType":"address"},{"name":"to","type":"address","indexed":true,"internalType":"address"},{"name":"value","type":"uint256","indexed":false,"internalType":"uint256"}],"anonymous":false},{"type":"error","name":"CheckpointUnorderedInsertion","inputs":[]},{"type":"error","name":"ECDSAInvalidSignature","inputs":[]},{"type":"error","name":"ECDSAInvalidSignatureLength","inputs":[{"name":"length","type":"uint256","internalType":"uint256"}]},{"type":"error","name":"ECDSAInvalidSignatureS","inputs":[{"name":"s","type":"bytes32","internalType":"bytes32"}]},{"type":"error","name":"ERC20ExceededSafeSupply","inputs":[{"name":"increasedSupply","type":"uint256","internalType":"uint256"},{"name":"cap","type":"uint256","internalType":"uint256"}]},{"type":"error","name":"ERC20InsufficientAllowance","inputs":[{"name":"spender","type":"address","internalType":"address"},{"name":"allowance","type":"uint256","internalType":"uint256"},{"name":"needed","type":"uint256","internalType":"uint256"}]},{"type":"error","name":"ERC20InsufficientBalance","inputs":[{"name":"sender","type":"address","internalType":"address"},{"name":"balance","type":"uint256","internalType":"uint256"},{"name":"needed","type":"uint256","internalType":"uint256"}]},{"type":"error","name":"ERC20InvalidApprover","inputs":[{"name":"approver","type":"address","internalType":"address"}]},{"type":"error","name":"ERC20InvalidReceiver","inputs":[{"name":"receiver","type":"address","internalType":"address"}]},{"type":"error","name":"ERC20InvalidSender","inputs":[{"name":"sender","type":"address","internalType":"address"}]},{"type":"error","name":"ERC20InvalidSpender","inputs":[{"name":"spender","type":"address","internalType":"address"}]},{"type":"error","name":"ERC20InvalidUnderlying","inputs":[{"name":"token","type":"address","internalType":"address"}]},{"type":"error","name":"ERC2612ExpiredSignature","inputs":[{"name":"deadline","type":"uint256","internalType":"uint256"}]},{"type":"error","name":"ERC2612InvalidSigner","inputs":[{"name":"signer","type":"address","internalType":"address"},{"name":"owner","type":"address","internalType":"address"}]},{"type":"error","name":"ERC5805FutureLookup","inputs":[{"name":"timepoint","type":"uint256","internalType":"uint256"},{"name":"clock","type":"uint48","internalType":"uint48"}]},{"type":"error","name":"ERC6372InconsistentClock","inputs":[]},{"type":"error","name":"InvalidAccountNonce","inputs":[{"name":"account","type":"address","internalType":"address"},{"name":"currentNonce","type":"uint256","internalType":"uint256"}]},{"type":"error","name":"InvalidShortString","inputs":[]},{"type":"error","name":"SafeCastOverflowedUintDowncast","inputs":[{"name":"bits","type":"uint8","internalType":"uint8"},{"name":"value","type":"uint256","internalType":"uint256"}]},{"type":"error","name":"SafeERC20FailedOperation","inputs":[{"name":"token","type":"address","internalType":"address"}]},{"type":"error","name":"StringTooLong","inputs":[{"name":"str","type":"string","internalType":"string"}]},{"type":"error","name":"VotesExpiredSignature","inputs":[{"name":"expiry","type":"uint256","internalType":"uint256"}]}],"bytecode":{"object":"0x610180604052348015610010575f5ffd5b506040516145cf3803806145cf83398181016040528101906100329190610409565b806040518060400160405280600e81526020017f4d79546f6b656e57726170706564000000000000000000000000000000000000815250806040518060400160405280600181526020017f31000000000000000000000000000000000000000000000000000000000000008152506040518060400160405280600e81526020017f4d79546f6b656e577261707065640000000000000000000000000000000000008152506040518060400160405280600381526020017f4d544b0000000000000000000000000000000000000000000000000000000000815250816003908161011b9190610671565b50806004908161012b9190610671565b50505061014260058361028560201b90919060201c565b610120818152505061015e60068261028560201b90919060201c565b6101408181525050818051906020012060e08181525050808051906020012061010081815250504660a0818152505061019b6102d260201b60201c565b608081815250503073ffffffffffffffffffffffffffffffffffffffff1660c08173ffffffffffffffffffffffffffffffffffffffff16815250505050503073ffffffffffffffffffffffffffffffffffffffff168173ffffffffffffffffffffffffffffffffffffffff160361024957306040517f438d6fe3000000000000000000000000000000000000000000000000000000008152600401610240919061074f565b60405180910390fd5b8073ffffffffffffffffffffffffffffffffffffffff166101608173ffffffffffffffffffffffffffffffffffffffff168152505050506108f9565b5f6020835110156102a65761029f8361032c60201b60201c565b90506102cc565b826102b68361039160201b60201c565b5f0190816102c49190610671565b5060ff5f1b90505b92915050565b5f7f8b73c3c69bb8fe3d512ecc4cf759cc79239f7b179b0ffacaa9a75d522b39400f60e05161010051463060405160200161031195949392919061078f565b60405160208183030381529060405280519060200120905090565b5f5f829050601f8151111561037857826040517f305a27a900000000000000000000000000000000000000000000000000000000815260040161036f9190610846565b60405180910390fd5b80518161038490610893565b5f1c175f1b915050919050565b5f819050919050565b5f5ffd5b5f73ffffffffffffffffffffffffffffffffffffffff82169050919050565b5f6103c78261039e565b9050919050565b5f6103d8826103bd565b9050919050565b6103e8816103ce565b81146103f2575f5ffd5b50565b5f81519050610403816103df565b92915050565b5f6020828403121561041e5761041d61039a565b5b5f61042b848285016103f5565b91505092915050565b5f81519050919050565b7f4e487b71000000000000000000000000000000000000000000000000000000005f52604160045260245ffd5b7f4e487b71000000000000000000000000000000000000000000000000000000005f52602260045260245ffd5b5f60028204905060018216806104af57607f821691505b6020821081036104c2576104c161046b565b5b50919050565b5f819050815f5260205f209050919050565b5f6020601f8301049050919050565b5f82821b905092915050565b5f600883026105247fffffffffffffffffffffffffffffffffffffffffffffffffffffffffffffffff826104e9565b61052e86836104e9565b95508019841693508086168417925050509392505050565b5f819050919050565b5f819050919050565b5f61057261056d61056884610546565b61054f565b610546565b9050919050565b5f819050919050565b61058b83610558565b61059f61059782610579565b8484546104f5565b825550505050565b5f5f905090565b6105b66105a7565b6105c1818484610582565b505050565b5b818110156105e4576105d95f826105ae565b6001810190506105c7565b5050565b601f821115610629576105fa816104c8565b610603846104da565b81016020851015610612578190505b61062661061e856104da565b8301826105c6565b50505b505050565b5f82821c905092915050565b5f6106495f198460080261062e565b1980831691505092915050565b5f610661838361063a565b9150826002028217905092915050565b61067a82610434565b67ffffffffffffffff8111156106935761069261043e565b5b61069d8254610498565b6106a88282856105e8565b5f60209050601f8311600181146106d9575f84156106c7578287015190505b6106d18582610656565b865550610738565b601f1984166106e7866104c8565b5f5b8281101561070e578489015182556001820191506020850194506020810190506106e9565b8683101561072b5784890151610727601f89168261063a565b8355505b6001600288020188555050505b505050505050565b610749816103bd565b82525050565b5f6020820190506107625f830184610740565b92915050565b5f819050919050565b61077a81610768565b82525050565b61078981610546565b82525050565b5f60a0820190506107a25f830188610771565b6107af6020830187610771565b6107bc6040830186610771565b6107c96060830185610780565b6107d66080830184610740565b9695505050505050565b5f82825260208201905092915050565b8281835e5f83830152505050565b5f601f19601f8301169050919050565b5f61081882610434565b61082281856107e0565b93506108328185602086016107f0565b61083b816107fe565b840191505092915050565b5f6020820190508181035f83015261085e818461080e565b905092915050565b5f81519050919050565b5f819050602082019050919050565b5f61088a8251610768565b80915050919050565b5f61089d82610866565b826108a784610870565b90506108b28161087f565b925060208210156108f2576108ed7fffffffffffffffffffffffffffffffffffffffffffffffffffffffffffffffff836020036008026104e9565b831692505b5050919050565b60805160a05160c05160e05161010051610120516101405161016051613c666109695f395f81816106da0152818161082901528181610a12015261129601525f61171101525f6116d601525f611bf401525f611bd301525f61133a01525f61139001525f6113b90152613c665ff3fe608060405234801561000f575f5ffd5b506004361061018c575f3560e01c80636fcfff45116100dc57806395d89b4111610095578063c3cda5201161006f578063c3cda52014610500578063d505accf1461051c578063dd62ed3e14610538578063f1127ed8146105685761018c565b806395d89b41146104825780639ab24eb0146104a0578063a9059cbb146104d05761018c565b80636fcfff451461038057806370a08231146103b05780637ecebe00146103e057806384b0196e146104105780638e539e8c1461043457806391ddadf4146104645761018c565b8063313ce567116101495780634bf5d7e9116101235780634bf5d7e9146102f8578063587cde1e146103165780635c19a95c146103465780636f307dc3146103625761018c565b8063313ce5671461028c5780633644e515146102aa5780633a46b1a8146102c85761018c565b806306fdde0314610190578063095ea7b3146101ae57806318160ddd146101de578063205c2878146101fc57806323b872dd1461022c5780632f4f21e21461025c575b5f5ffd5b610198610598565b6040516101a59190612f0f565b60405180910390f35b6101c860048036038101906101c39190612fc0565b610628565b6040516101d59190613018565b60405180910390f35b6101e661064a565b6040516101f39190613040565b60405180910390f35b61021660048036038101906102119190612fc0565b610653565b6040516102239190613018565b60405180910390f35b61024660048036038101906102419190613059565b61070a565b6040516102539190613018565b60405180910390f35b61027660048036038101906102719190612fc0565b610738565b6040516102839190613018565b60405180910390f35b610294610865565b6040516102a191906130c4565b60405180910390f35b6102b2610873565b6040516102bf91906130f5565b60405180910390f35b6102e260048036038101906102dd9190612fc0565b610881565b6040516102ef9190613040565b60405180910390f35b6103006108fd565b60405161030d9190612f0f565b60405180910390f35b610330600480360381019061032b919061310e565b610991565b60405161033d9190613148565b60405180910390f35b610360600480360381019061035b919061310e565b6109f6565b005b61036a610a0f565b60405161037791906131bc565b60405180910390f35b61039a6004803603810190610395919061310e565b610a36565b6040516103a791906131f3565b60405180910390f35b6103ca60048036038101906103c5919061310e565b610a47565b6040516103d79190613040565b60405180910390f35b6103fa60048036038101906103f5919061310e565b610a8c565b6040516104079190613040565b60405180910390f35b610418610a9d565b60405161042b97969594939291906132fd565b60405180910390f35b61044e6004803603810190610449919061337f565b610b42565b60405161045b9190613040565b60405180910390f35b61046c610b82565b60405161047991906133ca565b60405180910390f35b61048a610b90565b6040516104979190612f0f565b60405180910390f35b6104ba60048036038101906104b5919061310e565b610c20565b6040516104c79190613040565b60405180910390f35b6104ea60048036038101906104e59190612fc0565b610c89565b6040516104f79190613018565b60405180910390f35b61051a60048036038101906105159190613437565b610cab565b005b610536600480360381019061053191906134c0565b610d70565b005b610552600480360381019061054d919061355d565b610eb5565b60405161055f9190613040565b60405180910390f35b610582600480360381019061057d91906135c5565b610f37565b60405161058f9190613673565b60405180910390f35b6060600380546105a7906136b9565b80601f01602080910402602001604051908101604052809291908181526020018280546105d3906136b9565b801561061e5780601f106105f55761010080835404028352916020019161061e565b820191905f5260205f20905b81548152906001019060200180831161060157829003601f168201915b5050505050905090565b5f5f610632610f51565b905061063f818585610f58565b600191505092915050565b5f600254905090565b5f3073ffffffffffffffffffffffffffffffffffffffff168373ffffffffffffffffffffffffffffffffffffffff16036106c457826040517fec442f050000000000000000000000000000000000000000000000000000000081526004016106bb9190613148565b60405180910390fd5b6106d56106cf610f51565b83610f6a565b6107007f00000000000000000000000000000000000000000000000000000000000000008484610fe9565b6001905092915050565b5f5f610714610f51565b905061072185828561103c565b61072c8585856110cf565b60019150509392505050565b5f5f610742610f51565b90503073ffffffffffffffffffffffffffffffffffffffff168173ffffffffffffffffffffffffffffffffffffffff16036107b457306040517f96c6fd1e0000000000000000000000000000000000000000000000000000000081526004016107ab9190613148565b60405180910390fd5b3073ffffffffffffffffffffffffffffffffffffffff168473ffffffffffffffffffffffffffffffffffffffff160361082457836040517fec442f0500000000000000000000000000000000000000000000000000000000815260040161081b9190613148565b60405180910390fd5b6108507f00000000000000000000000000000000000000000000000000000000000000008230866111bf565b61085a8484611214565b600191505092915050565b5f61086e611293565b905090565b5f61087c611337565b905090565b5f6108d961088e836113ed565b60095f8673ffffffffffffffffffffffffffffffffffffffff1673ffffffffffffffffffffffffffffffffffffffff1681526020019081526020015f2061145890919063ffffffff16565b79ffffffffffffffffffffffffffffffffffffffffffffffffffff16905092915050565b6060610907611548565b65ffffffffffff16610917610b82565b65ffffffffffff1614610956576040517f6ff0714000000000000000000000000000000000000000000000000000000000815260040160405180910390fd5b6040518060400160405280601d81526020017f6d6f64653d626c6f636b6e756d6265722666726f6d3d64656661756c74000000815250905090565b5f60085f8373ffffffffffffffffffffffffffffffffffffffff1673ffffffffffffffffffffffffffffffffffffffff1681526020019081526020015f205f9054906101000a900473ffffffffffffffffffffffffffffffffffffffff169050919050565b5f6109ff610f51565b9050610a0b8183611557565b5050565b5f7f0000000000000000000000000000000000000000000000000000000000000000905090565b5f610a4082611667565b9050919050565b5f5f5f8373ffffffffffffffffffffffffffffffffffffffff1673ffffffffffffffffffffffffffffffffffffffff1681526020019081526020015f20549050919050565b5f610a96826116bc565b9050919050565b5f6060805f5f5f6060610aae6116cd565b610ab6611708565b46305f5f1b5f67ffffffffffffffff811115610ad557610ad46136e9565b5b604051908082528060200260200182016040528015610b035781602001602082028036833780820191505090505b507f0f00000000000000000000000000000000000000000000000000000000000000959493929190965096509650965096509650965090919293949596565b5f610b5f610b4f836113ed565b600a61145890919063ffffffff16565b79ffffffffffffffffffffffffffffffffffffffffffffffffffff169050919050565b5f610b8b611548565b905090565b606060048054610b9f906136b9565b80601f0160208091040260200160405190810160405280929190818152602001828054610bcb906136b9565b8015610c165780601f10610bed57610100808354040283529160200191610c16565b820191905f5260205f20905b815481529060010190602001808311610bf957829003601f168201915b5050505050905090565b5f610c6660095f8473ffffffffffffffffffffffffffffffffffffffff1673ffffffffffffffffffffffffffffffffffffffff1681526020019081526020015f20611743565b79ffffffffffffffffffffffffffffffffffffffffffffffffffff169050919050565b5f5f610c93610f51565b9050610ca08185856110cf565b600191505092915050565b83421115610cf057836040517f4683af0e000000000000000000000000000000000000000000000000000000008152600401610ce79190613040565b60405180910390fd5b5f610d51610d497fe48329057bfd03d55e49b547132e39cffd9c1820ad7b9d4c5307691425d15adf898989604051602001610d2e9493929190613716565b604051602081830303815290604052805190602001206117a5565b8585856117be565b9050610d5d81876117ec565b610d678188611557565b50505050505050565b83421115610db557836040517f62791302000000000000000000000000000000000000000000000000000000008152600401610dac9190613040565b60405180910390fd5b5f7f6e71edae12b1b97f4d1f60370fef10105fa2faae0126114a169c64845d6126c9888888610de38c611843565b89604051602001610df996959493929190613759565b6040516020818303038152906040528051906020012090505f610e1b826117a5565b90505f610e2a828787876117be565b90508973ffffffffffffffffffffffffffffffffffffffff168173ffffffffffffffffffffffffffffffffffffffff1614610e9e57808a6040517f4b800e46000000000000000000000000000000000000000000000000000000008152600401610e959291906137b8565b60405180910390fd5b610ea98a8a8a610f58565b50505050505050505050565b5f60015f8473ffffffffffffffffffffffffffffffffffffffff1673ffffffffffffffffffffffffffffffffffffffff1681526020019081526020015f205f8373ffffffffffffffffffffffffffffffffffffffff1673ffffffffffffffffffffffffffffffffffffffff1681526020019081526020015f2054905092915050565b610f3f612e63565b610f498383611896565b905092915050565b5f33905090565b610f6583838360016118f5565b505050565b5f73ffffffffffffffffffffffffffffffffffffffff168273ffffffffffffffffffffffffffffffffffffffff1603610fda575f6040517f96c6fd1e000000000000000000000000000000000000000000000000000000008152600401610fd19190613148565b60405180910390fd5b610fe5825f83611ac4565b5050565b610ff68383836001611ad4565b61103757826040517f5274afe700000000000000000000000000000000000000000000000000000000815260040161102e9190613148565b60405180910390fd5b505050565b5f6110478484610eb5565b90507fffffffffffffffffffffffffffffffffffffffffffffffffffffffffffffffff8110156110c957818110156110ba578281836040517ffb8f41b20000000000000000000000000000000000000000000000000000000081526004016110b1939291906137df565b60405180910390fd5b6110c884848484035f6118f5565b5b50505050565b5f73ffffffffffffffffffffffffffffffffffffffff168373ffffffffffffffffffffffffffffffffffffffff160361113f575f6040517f96c6fd1e0000000000000000000000000000000000000000000000000000000081526004016111369190613148565b60405180910390fd5b5f73ffffffffffffffffffffffffffffffffffffffff168273ffffffffffffffffffffffffffffffffffffffff16036111af575f6040517fec442f050000000000000000000000000000000000000000000000000000000081526004016111a69190613148565b60405180910390fd5b6111ba838383611ac4565b505050565b6111cd848484846001611b36565b61120e57836040517f5274afe70000000000000000000000000000000000000000000000000000000081526004016112059190613148565b60405180910390fd5b50505050565b5f73ffffffffffffffffffffffffffffffffffffffff168273ffffffffffffffffffffffffffffffffffffffff1603611284575f6040517fec442f0500000000000000000000000000000000000000000000000000000000815260040161127b9190613148565b60405180910390fd5b61128f5f8383611ac4565b5050565b5f7f000000000000000000000000000000000000000000000000000000000000000073ffffffffffffffffffffffffffffffffffffffff1663313ce5676040518163ffffffff1660e01b8152600401602060405180830381865afa92505050801561131c57506040513d601f19601f820116820180604052508101906113199190613828565b60015b61132f57611328611ba7565b9050611334565b809150505b90565b5f7f000000000000000000000000000000000000000000000000000000000000000073ffffffffffffffffffffffffffffffffffffffff163073ffffffffffffffffffffffffffffffffffffffff161480156113b257507f000000000000000000000000000000000000000000000000000000000000000046145b156113df577f000000000000000000000000000000000000000000000000000000000000000090506113ea565b6113e7611baf565b90505b90565b5f5f6113f7610b82565b90508065ffffffffffff1683106114475782816040517fecd3f81e00000000000000000000000000000000000000000000000000000000815260040161143e929190613853565b60405180910390fd5b61145083611c44565b915050919050565b5f5f835f018054905090505f5f90505f82905060058311156114dc575f61147e84611c9d565b8461148991906138a7565b9050611497875f0182611e37565b5f015f9054906101000a900465ffffffffffff1665ffffffffffff168665ffffffffffff1610156114ca578091506114da565b6001816114d791906138da565b92505b505b5f6114eb875f01878585611e49565b90505f811461153a5761150c875f0160018361150791906138a7565b611e37565b5f0160069054906101000a900479ffffffffffffffffffffffffffffffffffffffffffffffffffff1661153c565b5f5b94505050505092915050565b5f61155243611c44565b905090565b5f61156183610991565b90508160085f8573ffffffffffffffffffffffffffffffffffffffff1673ffffffffffffffffffffffffffffffffffffffff1681526020019081526020015f205f6101000a81548173ffffffffffffffffffffffffffffffffffffffff021916908373ffffffffffffffffffffffffffffffffffffffff1602179055508173ffffffffffffffffffffffffffffffffffffffff168173ffffffffffffffffffffffffffffffffffffffff168473ffffffffffffffffffffffffffffffffffffffff167f3134e8a2e6d97e929a7e54011ea5485d7d196dd5f0ba4d4ef95803e8e3fc257f60405160405180910390a4611662818361165d86611ebe565b611ecf565b505050565b5f6116b56116b060095f8573ffffffffffffffffffffffffffffffffffffffff1673ffffffffffffffffffffffffffffffffffffffff1681526020019081526020015f2061213f565b61214e565b9050919050565b5f6116c6826121a5565b9050919050565b606061170360057f00000000000000000000000000000000000000000000000000000000000000006121eb90919063ffffffff16565b905090565b606061173e60067f00000000000000000000000000000000000000000000000000000000000000006121eb90919063ffffffff16565b905090565b5f5f825f018054905090505f811461179b5761176d835f0160018361176891906138a7565b611e37565b5f0160069054906101000a900479ffffffffffffffffffffffffffffffffffffffffffffffffffff1661179d565b5f5b915050919050565b5f6117b76117b1611337565b83612298565b9050919050565b5f5f5f5f6117ce888888886122d8565b9250925092506117de82826123bf565b829350505050949350505050565b5f6117f683611843565b905080821461183e5782816040517f752d88c000000000000000000000000000000000000000000000000000000000815260040161183592919061390d565b60405180910390fd5b505050565b5f60075f8373ffffffffffffffffffffffffffffffffffffffff1673ffffffffffffffffffffffffffffffffffffffff1681526020019081526020015f205f815480929190600101919050559050919050565b61189e612e63565b6118ed8260095f8673ffffffffffffffffffffffffffffffffffffffff1673ffffffffffffffffffffffffffffffffffffffff1681526020019081526020015f2061252190919063ffffffff16565b905092915050565b5f73ffffffffffffffffffffffffffffffffffffffff168473ffffffffffffffffffffffffffffffffffffffff1603611965575f6040517fe602df0500000000000000000000000000000000000000000000000000000000815260040161195c9190613148565b60405180910390fd5b5f73ffffffffffffffffffffffffffffffffffffffff168373ffffffffffffffffffffffffffffffffffffffff16036119d5575f6040517f94280d620000000000000000000000000000000000000000000000000000000081526004016119cc9190613148565b60405180910390fd5b8160015f8673ffffffffffffffffffffffffffffffffffffffff1673ffffffffffffffffffffffffffffffffffffffff1681526020019081526020015f205f8573ffffffffffffffffffffffffffffffffffffffff1673ffffffffffffffffffffffffffffffffffffffff1681526020019081526020015f20819055508015611abe578273ffffffffffffffffffffffffffffffffffffffff168473ffffffffffffffffffffffffffffffffffffffff167f8c5be1e5ebec7d5bd14f71427d1e84f3dd0314c0f7b2291e5b200ac8c7c3b92584604051611ab59190613040565b60405180910390a35b50505050565b611acf8383836125f0565b505050565b5f5f63a9059cbb60e01b9050604051815f525f1960601c86166004528460245260205f60445f5f8b5af1925060015f51148316611b28578383151615611b1c573d5f823e3d81fd5b5f873b113d1516831692505b806040525050949350505050565b5f5f6323b872dd60e01b9050604051815f525f1960601c87166004525f1960601c86166024528460445260205f60645f5f8c5af1925060015f51148316611b94578383151615611b88573d5f823e3d81fd5b5f883b113d1516831692505b806040525f606052505095945050505050565b5f6012905090565b5f7f8b73c3c69bb8fe3d512ecc4cf759cc79239f7b179b0ffacaa9a75d522b39400f7f00000000000000000000000000000000000000000000000000000000000000007f00000000000000000000000000000000000000000000000000000000000000004630604051602001611c29959493929190613934565b60405160208183030381529060405280519060200120905090565b5f65ffffffffffff8016821115611c95576030826040517f6dfcc650000000000000000000000000000000000000000000000000000000008152600401611c8c9291906139be565b60405180910390fd5b819050919050565b5f60018211611cae57819050611e32565b5f8290505f600190507001000000000000000000000000000000008210611cde57608082901c9150604081901b90505b680100000000000000008210611cfd57604082901c9150602081901b90505b6401000000008210611d1857602082901c9150601081901b90505b620100008210611d3157601082901c9150600881901b90505b6101008210611d4957600882901c9150600481901b90505b60108210611d6057600482901c9150600281901b90505b60048210611d7057600181901b90505b600181600302901c90506001818581611d8c57611d8b6139e5565b5b048201901c90506001818581611da557611da46139e5565b5b048201901c90506001818581611dbe57611dbd6139e5565b5b048201901c90506001818581611dd757611dd66139e5565b5b048201901c90506001818581611df057611def6139e5565b5b048201901c90506001818581611e0957611e086139e5565b5b048201901c9050611e2b818581611e2357611e226139e5565b5b04821161269e565b8103925050505b919050565b5f825f528160205f2001905092915050565b5f5b81831015611eb3575f611e5e84846126a9565b90508465ffffffffffff16611e738783611e37565b5f015f9054906101000a900465ffffffffffff1665ffffffffffff161115611e9d57809250611ead565b600181611eaa91906138da565b93505b50611e4b565b819050949350505050565b5f611ec882610a47565b9050919050565b8173ffffffffffffffffffffffffffffffffffffffff168373ffffffffffffffffffffffffffffffffffffffff1614158015611f0a57505f81115b1561213a575f73ffffffffffffffffffffffffffffffffffffffff168373ffffffffffffffffffffffffffffffffffffffff1614612024575f5f611f9560095f8773ffffffffffffffffffffffffffffffffffffffff1673ffffffffffffffffffffffffffffffffffffffff1681526020019081526020015f206126ca611f90866126df565b61274c565b79ffffffffffffffffffffffffffffffffffffffffffffffffffff16915079ffffffffffffffffffffffffffffffffffffffffffffffffffff1691508473ffffffffffffffffffffffffffffffffffffffff167fdec2bacdd2f05b59de34da9b523dff8be42e5e38e818c82fdb0bae774387a7248383604051612019929190613a12565b60405180910390a250505b5f73ffffffffffffffffffffffffffffffffffffffff168273ffffffffffffffffffffffffffffffffffffffff1614612139575f5f6120aa60095f8673ffffffffffffffffffffffffffffffffffffffff1673ffffffffffffffffffffffffffffffffffffffff1681526020019081526020015f2061278b6120a5866126df565b61274c565b79ffffffffffffffffffffffffffffffffffffffffffffffffffff16915079ffffffffffffffffffffffffffffffffffffffffffffffffffff1691508373ffffffffffffffffffffffffffffffffffffffff167fdec2bacdd2f05b59de34da9b523dff8be42e5e38e818c82fdb0bae774387a724838360405161212e929190613a12565b60405180910390a250505b5b505050565b5f815f01805490509050919050565b5f63ffffffff801682111561219d576020826040517f6dfcc650000000000000000000000000000000000000000000000000000000008152600401612194929190613a72565b60405180910390fd5b819050919050565b5f60075f8373ffffffffffffffffffffffffffffffffffffffff1673ffffffffffffffffffffffffffffffffffffffff1681526020019081526020015f20549050919050565b606060ff5f1b831461220757612200836127a0565b9050612292565b818054612213906136b9565b80601f016020809104026020016040519081016040528092919081815260200182805461223f906136b9565b801561228a5780601f106122615761010080835404028352916020019161228a565b820191905f5260205f20905b81548152906001019060200180831161226d57829003601f168201915b505050505090505b92915050565b5f6040517f190100000000000000000000000000000000000000000000000000000000000081528360028201528260228201526042812091505092915050565b5f5f5f7f7fffffffffffffffffffffffffffffff5d576e7357a4501ddfe92f46681b20a0845f1c1115612314575f6003859250925092506123b5565b5f6001888888886040515f81526020016040526040516123379493929190613a99565b6020604051602081039080840390855afa158015612357573d5f5f3e3d5ffd5b5050506020604051035190505f73ffffffffffffffffffffffffffffffffffffffff168173ffffffffffffffffffffffffffffffffffffffff16036123a8575f60015f5f1b935093509350506123b5565b805f5f5f1b935093509350505b9450945094915050565b5f60038111156123d2576123d1613adc565b5b8260038111156123e5576123e4613adc565b5b031561251d57600160038111156123ff576123fe613adc565b5b82600381111561241257612411613adc565b5b03612449576040517ff645eedf00000000000000000000000000000000000000000000000000000000815260040160405180910390fd5b6002600381111561245d5761245c613adc565b5b8260038111156124705761246f613adc565b5b036124b457805f1c6040517ffce698f70000000000000000000000000000000000000000000000000000000081526004016124ab9190613040565b60405180910390fd5b6003808111156124c7576124c6613adc565b5b8260038111156124da576124d9613adc565b5b0361251c57806040517fd78bce0c00000000000000000000000000000000000000000000000000000000815260040161251391906130f5565b60405180910390fd5b5b5050565b612529612e63565b825f018263ffffffff168154811061254457612543613b09565b5b905f5260205f20016040518060400160405290815f82015f9054906101000a900465ffffffffffff1665ffffffffffff1665ffffffffffff1681526020015f820160069054906101000a900479ffffffffffffffffffffffffffffffffffffffffffffffffffff1679ffffffffffffffffffffffffffffffffffffffffffffffffffff1679ffffffffffffffffffffffffffffffffffffffffffffffffffff1681525050905092915050565b6125fb838383612812565b5f73ffffffffffffffffffffffffffffffffffffffff168373ffffffffffffffffffffffffffffffffffffffff160361268e575f61263761064a565b90505f612642612a2b565b90508082111561268b5781816040517f1cb15d26000000000000000000000000000000000000000000000000000000008152600401612682929190613a12565b60405180910390fd5b50505b612699838383612a4e565b505050565b5f8115159050919050565b5f6002828418816126bd576126bc6139e5565b5b0482841601905092915050565b5f81836126d79190613b36565b905092915050565b5f79ffffffffffffffffffffffffffffffffffffffffffffffffffff80168211156127445760d0826040517f6dfcc65000000000000000000000000000000000000000000000000000000000815260040161273b929190613bbc565b60405180910390fd5b819050919050565b5f5f61277f612759610b82565b61276f61276588611743565b868863ffffffff16565b87612b069092919063ffffffff16565b91509150935093915050565b5f81836127989190613be3565b905092915050565b60605f6127ac83612b21565b90505f602067ffffffffffffffff8111156127ca576127c96136e9565b5b6040519080825280601f01601f1916602001820160405280156127fc5781602001600182028036833780820191505090505b5090508181528360208201528092505050919050565b5f73ffffffffffffffffffffffffffffffffffffffff168373ffffffffffffffffffffffffffffffffffffffff1603612862578060025f82825461285691906138da565b92505081905550612930565b5f5f5f8573ffffffffffffffffffffffffffffffffffffffff1673ffffffffffffffffffffffffffffffffffffffff1681526020019081526020015f20549050818110156128eb578381836040517fe450d38c0000000000000000000000000000000000000000000000000000000081526004016128e2939291906137df565b60405180910390fd5b8181035f5f8673ffffffffffffffffffffffffffffffffffffffff1673ffffffffffffffffffffffffffffffffffffffff1681526020019081526020015f2081905550505b5f73ffffffffffffffffffffffffffffffffffffffff168273ffffffffffffffffffffffffffffffffffffffff1603612977578060025f82825403925050819055506129c1565b805f5f8473ffffffffffffffffffffffffffffffffffffffff1673ffffffffffffffffffffffffffffffffffffffff1681526020019081526020015f205f82825401925050819055505b8173ffffffffffffffffffffffffffffffffffffffff168373ffffffffffffffffffffffffffffffffffffffff167fddf252ad1be2c89b69c2b068fc378daa952ba7f163c4a11628f55a4df523b3ef83604051612a1e9190613040565b60405180910390a3505050565b5f79ffffffffffffffffffffffffffffffffffffffffffffffffffff8016905090565b5f73ffffffffffffffffffffffffffffffffffffffff168373ffffffffffffffffffffffffffffffffffffffff1603612a9a57612a97600a61278b612a92846126df565b61274c565b50505b5f73ffffffffffffffffffffffffffffffffffffffff168273ffffffffffffffffffffffffffffffffffffffff1603612ae657612ae3600a6126ca612ade846126df565b61274c565b50505b612b01612af284610991565b612afb84610991565b83611ecf565b505050565b5f5f612b15855f018585612b6f565b91509150935093915050565b5f5f60ff835f1c169050601f811115612b66576040517fb3512b0c00000000000000000000000000000000000000000000000000000000815260040160405180910390fd5b80915050919050565b5f5f5f858054905090505f811115612d7b575f612b9887600184612b9391906138a7565b611e37565b90505f815f015f9054906101000a900465ffffffffffff1690505f825f0160069054906101000a900479ffffffffffffffffffffffffffffffffffffffffffffffffffff1690508765ffffffffffff168265ffffffffffff161115612c29576040517f2520601d00000000000000000000000000000000000000000000000000000000815260040160405180910390fd5b8765ffffffffffff168265ffffffffffff1603612c935786835f0160066101000a81548179ffffffffffffffffffffffffffffffffffffffffffffffffffff021916908379ffffffffffffffffffffffffffffffffffffffffffffffffffff160217905550612d6c565b8860405180604001604052808a65ffffffffffff1681526020018979ffffffffffffffffffffffffffffffffffffffffffffffffffff16815250908060018154018082558091505060019003905f5260205f20015f909190919091505f820151815f015f6101000a81548165ffffffffffff021916908365ffffffffffff1602179055506020820151815f0160066101000a81548179ffffffffffffffffffffffffffffffffffffffffffffffffffff021916908379ffffffffffffffffffffffffffffffffffffffffffffffffffff16021790555050505b80879550955050505050612e5b565b8560405180604001604052808765ffffffffffff1681526020018679ffffffffffffffffffffffffffffffffffffffffffffffffffff16815250908060018154018082558091505060019003905f5260205f20015f909190919091505f820151815f015f6101000a81548165ffffffffffff021916908365ffffffffffff1602179055506020820151815f0160066101000a81548179ffffffffffffffffffffffffffffffffffffffffffffffffffff021916908379ffffffffffffffffffffffffffffffffffffffffffffffffffff16021790555050505f8492509250505b935093915050565b60405180604001604052805f65ffffffffffff1681526020015f79ffffffffffffffffffffffffffffffffffffffffffffffffffff1681525090565b5f81519050919050565b5f82825260208201905092915050565b8281835e5f83830152505050565b5f601f19601f8301169050919050565b5f612ee182612e9f565b612eeb8185612ea9565b9350612efb818560208601612eb9565b612f0481612ec7565b840191505092915050565b5f6020820190508181035f830152612f278184612ed7565b905092915050565b5f5ffd5b5f73ffffffffffffffffffffffffffffffffffffffff82169050919050565b5f612f5c82612f33565b9050919050565b612f6c81612f52565b8114612f76575f5ffd5b50565b5f81359050612f8781612f63565b92915050565b5f819050919050565b612f9f81612f8d565b8114612fa9575f5ffd5b50565b5f81359050612fba81612f96565b92915050565b5f5f60408385031215612fd657612fd5612f2f565b5b5f612fe385828601612f79565b9250506020612ff485828601612fac565b9150509250929050565b5f8115159050919050565b61301281612ffe565b82525050565b5f60208201905061302b5f830184613009565b92915050565b61303a81612f8d565b82525050565b5f6020820190506130535f830184613031565b92915050565b5f5f5f606084860312156130705761306f612f2f565b5b5f61307d86828701612f79565b935050602061308e86828701612f79565b925050604061309f86828701612fac565b9150509250925092565b5f60ff82169050919050565b6130be816130a9565b82525050565b5f6020820190506130d75f8301846130b5565b92915050565b5f819050919050565b6130ef816130dd565b82525050565b5f6020820190506131085f8301846130e6565b92915050565b5f6020828403121561312357613122612f2f565b5b5f61313084828501612f79565b91505092915050565b61314281612f52565b82525050565b5f60208201905061315b5f830184613139565b92915050565b5f819050919050565b5f61318461317f61317a84612f33565b613161565b612f33565b9050919050565b5f6131958261316a565b9050919050565b5f6131a68261318b565b9050919050565b6131b68161319c565b82525050565b5f6020820190506131cf5f8301846131ad565b92915050565b5f63ffffffff82169050919050565b6131ed816131d5565b82525050565b5f6020820190506132065f8301846131e4565b92915050565b5f7fff0000000000000000000000000000000000000000000000000000000000000082169050919050565b6132408161320c565b82525050565b5f81519050919050565b5f82825260208201905092915050565b5f819050602082019050919050565b61327881612f8d565b82525050565b5f613289838361326f565b60208301905092915050565b5f602082019050919050565b5f6132ab82613246565b6132b58185613250565b93506132c083613260565b805f5b838110156132f05781516132d7888261327e565b97506132e283613295565b9250506001810190506132c3565b5085935050505092915050565b5f60e0820190506133105f83018a613237565b81810360208301526133228189612ed7565b905081810360408301526133368188612ed7565b90506133456060830187613031565b6133526080830186613139565b61335f60a08301856130e6565b81810360c083015261337181846132a1565b905098975050505050505050565b5f6020828403121561339457613393612f2f565b5b5f6133a184828501612fac565b91505092915050565b5f65ffffffffffff82169050919050565b6133c4816133aa565b82525050565b5f6020820190506133dd5f8301846133bb565b92915050565b6133ec816130a9565b81146133f6575f5ffd5b50565b5f81359050613407816133e3565b92915050565b613416816130dd565b8114613420575f5ffd5b50565b5f813590506134318161340d565b92915050565b5f5f5f5f5f5f60c0878903121561345157613450612f2f565b5b5f61345e89828a01612f79565b965050602061346f89828a01612fac565b955050604061348089828a01612fac565b945050606061349189828a016133f9565b93505060806134a289828a01613423565b92505060a06134b389828a01613423565b9150509295509295509295565b5f5f5f5f5f5f5f60e0888a0312156134db576134da612f2f565b5b5f6134e88a828b01612f79565b97505060206134f98a828b01612f79565b965050604061350a8a828b01612fac565b955050606061351b8a828b01612fac565b945050608061352c8a828b016133f9565b93505060a061353d8a828b01613423565b92505060c061354e8a828b01613423565b91505092959891949750929550565b5f5f6040838503121561357357613572612f2f565b5b5f61358085828601612f79565b925050602061359185828601612f79565b9150509250929050565b6135a4816131d5565b81146135ae575f5ffd5b50565b5f813590506135bf8161359b565b92915050565b5f5f604083850312156135db576135da612f2f565b5b5f6135e885828601612f79565b92505060206135f9858286016135b1565b9150509250929050565b61360c816133aa565b82525050565b5f79ffffffffffffffffffffffffffffffffffffffffffffffffffff82169050919050565b61364081613612565b82525050565b604082015f82015161365a5f850182613603565b50602082015161366d6020850182613637565b50505050565b5f6040820190506136865f830184613646565b92915050565b7f4e487b71000000000000000000000000000000000000000000000000000000005f52602260045260245ffd5b5f60028204905060018216806136d057607f821691505b6020821081036136e3576136e261368c565b5b50919050565b7f4e487b71000000000000000000000000000000000000000000000000000000005f52604160045260245ffd5b5f6080820190506137295f8301876130e6565b6137366020830186613139565b6137436040830185613031565b6137506060830184613031565b95945050505050565b5f60c08201905061376c5f8301896130e6565b6137796020830188613139565b6137866040830187613139565b6137936060830186613031565b6137a06080830185613031565b6137ad60a0830184613031565b979650505050505050565b5f6040820190506137cb5f830185613139565b6137d86020830184613139565b9392505050565b5f6060820190506137f25f830186613139565b6137ff6020830185613031565b61380c6040830184613031565b949350505050565b5f81519050613822816133e3565b92915050565b5f6020828403121561383d5761383c612f2f565b5b5f61384a84828501613814565b91505092915050565b5f6040820190506138665f830185613031565b61387360208301846133bb565b9392505050565b7f4e487b71000000000000000000000000000000000000000000000000000000005f52601160045260245ffd5b5f6138b182612f8d565b91506138bc83612f8d565b92508282039050818111156138d4576138d361387a565b5b92915050565b5f6138e482612f8d565b91506138ef83612f8d565b92508282019050808211156139075761390661387a565b5b92915050565b5f6040820190506139205f830185613139565b61392d6020830184613031565b9392505050565b5f60a0820190506139475f8301886130e6565b61395460208301876130e6565b61396160408301866130e6565b61396e6060830185613031565b61397b6080830184613139565b9695505050505050565b5f819050919050565b5f6139a86139a361399e84613985565b613161565b6130a9565b9050919050565b6139b88161398e565b82525050565b5f6040820190506139d15f8301856139af565b6139de6020830184613031565b9392505050565b7f4e487b71000000000000000000000000000000000000000000000000000000005f52601260045260245ffd5b5f604082019050613a255f830185613031565b613a326020830184613031565b9392505050565b5f819050919050565b5f613a5c613a57613a5284613a39565b613161565b6130a9565b9050919050565b613a6c81613a42565b82525050565b5f604082019050613a855f830185613a63565b613a926020830184613031565b9392505050565b5f608082019050613aac5f8301876130e6565b613ab960208301866130b5565b613ac660408301856130e6565b613ad360608301846130e6565b95945050505050565b7f4e487b71000000000000000000000000000000000000000000000000000000005f52602160045260245ffd5b7f4e487b71000000000000000000000000000000000000000000000000000000005f52603260045260245ffd5b5f613b4082613612565b9150613b4b83613612565b9250828203905079ffffffffffffffffffffffffffffffffffffffffffffffffffff811115613b7d57613b7c61387a565b5b92915050565b5f819050919050565b5f613ba6613ba1613b9c84613b83565b613161565b6130a9565b9050919050565b613bb681613b8c565b82525050565b5f604082019050613bcf5f830185613bad565b613bdc6020830184613031565b9392505050565b5f613bed82613612565b9150613bf883613612565b9250828201905079ffffffffffffffffffffffffffffffffffffffffffffffffffff811115613c2a57613c2961387a565b5b9291505056fea2646970667358221220347c510201c074f6ab5069c84ddc0a6e373612285fc435aebae56f32f981af5064736f6c634300081e0033","linkReferences":{}},"methodIdentifiers":{"CLOCK_MODE()":"4bf5d7e9","DOMAIN_SEPARATOR()":"3644e515","allowance(address,address)":"dd62ed3e","approve(address,uint256)":"095ea7b3","balanceOf(address)":"70a08231","checkpoints(address,uint32)":"f1127ed8","clock()":"91ddadf4","decimals()":"313ce567","delegate(address)":"5c19a95c","delegateBySig(address,uint256,uint256,uint8,bytes32,bytes32)":"c3cda520","delegates(address)":"587cde1e","depositFor(address,uint256)":"2f4f21e2","eip712Domain()":"84b0196e","getPastTotalSupply(uint256)":"8e539e8c","getPastVotes(address,uint256)":"3a46b1a8","getVotes(address)":"9ab24eb0","name()":"06fdde03","nonces(address)":"7ecebe00","numCheckpoints(address)":"6fcfff45","permit(address,address,uint256,uint256,uint8,bytes32,bytes32)":"d505accf","symbol()":"95d89b41","totalSupply()":"18160ddd","transfer(address,uint256)":"a9059cbb","transferFrom(address,address,uint256)":"23b872dd","underlying()":"6f307dc3","withdrawTo(address,uint256)":"205c2878"},"id":251}