{"abi":[{"type":"function","name":"decimals","inputs":[],"outputs":[{"name":"","type":"uint256","internalType":"uint256"}],"stateMutability":"pure"}],"bytecode":{"object":"0x6080604052348015600e575f5ffd5b5060ce80601a5f395ff3fe6080604052348015600e575f5ffd5b50600436106026575f3560e01c8063313ce56714602a575b5f5ffd5b60306044565b604051603b91906081565b60405180910390f35b5f7fffffffffffffffffffffffffffffffffffffffffffffffffffffffffffffffff905090565b5f819050919050565b607b81606b565b82525050565b5f60208201905060925f8301846074565b9291505056fea264697066735822122082dd8c6cad264f9d9da367f90508c605505389701d413d630b4dabb8f470884364736f6c634300081e0033","linkReferences":{}},"methodIdentifiers":{"decimals()":"313ce567"},"id":287}