{"abi":[{"type":"constructor","inputs":[],"stateMutability":"nonpayable"},{"type":"function","name":"childInitialize","inputs":[],"outputs":[],"stateMutability":"nonpayable"},{"type":"function","name":"childInitializerRan","inputs":[],"outputs":[{"name":"","type":"bool","internalType":"bool"}],"stateMutability":"view"},{"type":"function","name":"initialize","inputs":[],"outputs":[],"stateMutability":"nonpayable"},{"type":"function","name":"initializeOnlyInitializing","inputs":[],"outputs":[],"stateMutability":"nonpayable"},{"type":"function","name":"initializerRan","inputs":[],"outputs":[{"name":"","type":"bool","internalType":"bool"}],"stateMutability":"view"},{"type":"function","name":"onlyInitializingRan","inputs":[],"outputs":[{"name":"","type":"bool","internalType":"bool"}],"stateMutability":"view"},{"type":"event","name":"Initialized","inputs":[{"name":"version","type":"uint64","indexed":false,"internalType":"uint64"}],"anonymous":false},{"type":"error","name":"InvalidInitialization","inputs":[]},{"type":"error","name":"NotInitializing","inputs":[]}],"bytecode":{"object":"0x608060405234801561000f575f5ffd5b505f61001f61033560201b60201c565b90505f815f0160089054906101000a900460ff161590505f825f015f9054906101000a900467ffffffffffffffff1690505f5f8267ffffffffffffffff161480156100675750825b90505f60018367ffffffffffffffff1614801561009a57505f3073ffffffffffffffffffffffffffffffffffffffff163b145b9050811580156100a8575080155b156100df576040517ff92ee8a900000000000000000000000000000000000000000000000000000000815260040160405180910390fd5b6001855f015f6101000a81548167ffffffffffffffff021916908367ffffffffffffffff160217905550831561012c576001855f0160086101000a81548160ff0219169083151502179055505b61013a61034e60201b60201c565b6101486104e460201b60201c565b83156101a2575f855f0160086101000a81548160ff0219169083151502179055507fc7f505b2f371ae2175ee4913f4499e1f2633a7b5936321eed1cdaeb6115181d26001604051610199919061078d565b60405180910390a15b50505050505f6101b661033560201b60201c565b90505f815f0160089054906101000a900460ff161590505f825f015f9054906101000a900467ffffffffffffffff1690505f5f8267ffffffffffffffff161480156101fe5750825b90505f60018367ffffffffffffffff1614801561023157505f3073ffffffffffffffffffffffffffffffffffffffff163b145b90508115801561023f575080155b15610276576040517ff92ee8a900000000000000000000000000000000000000000000000000000000815260040160405180910390fd5b6001855f015f6101000a81548167ffffffffffffffff021916908367ffffffffffffffff16021790555083156102c3576001855f0160086101000a81548160ff0219169083151502179055505b6102d161050e60201b60201c565b831561032b575f855f0160086101000a81548160ff0219169083151502179055507fc7f505b2f371ae2175ee4913f4499e1f2633a7b5936321eed1cdaeb6115181d26001604051610322919061078d565b60405180910390a15b50505050506107a6565b5f5f6103456106a560201b60201c565b90508091505090565b5f61035d61033560201b60201c565b90505f815f0160089054906101000a900460ff161590505f825f015f9054906101000a900467ffffffffffffffff1690505f5f8267ffffffffffffffff161480156103a55750825b90505f60018367ffffffffffffffff161480156103d857505f3073ffffffffffffffffffffffffffffffffffffffff163b145b9050811580156103e6575080155b1561041d576040517ff92ee8a900000000000000000000000000000000000000000000000000000000815260040160405180910390fd5b6001855f015f6101000a81548167ffffffffffffffff021916908367ffffffffffffffff160217905550831561046a576001855f0160086101000a81548160ff0219169083151502179055505b60015f5f6101000a81548160ff02191690831515021790555083156104dd575f855f0160086101000a81548160ff0219169083151502179055507fc7f505b2f371ae2175ee4913f4499e1f2633a7b5936321eed1cdaeb6115181d260016040516104d4919061078d565b60405180910390a15b5050505050565b6104f26106ce60201b60201c565b60015f60016101000a81548160ff021916908315150217905550565b5f61051d61033560201b60201c565b90505f815f0160089054906101000a900460ff161590505f825f015f9054906101000a900467ffffffffffffffff1690505f5f8267ffffffffffffffff161480156105655750825b90505f60018367ffffffffffffffff1614801561059857505f3073ffffffffffffffffffffffffffffffffffffffff163b145b9050811580156105a6575080155b156105dd576040517ff92ee8a900000000000000000000000000000000000000000000000000000000815260040160405180910390fd5b6001855f015f6101000a81548167ffffffffffffffff021916908367ffffffffffffffff160217905550831561062a576001855f0160086101000a81548160ff0219169083151502179055505b60015f60026101000a81548160ff021916908315150217905550831561069e575f855f0160086101000a81548160ff0219169083151502179055507fc7f505b2f371ae2175ee4913f4499e1f2633a7b5936321eed1cdaeb6115181d26001604051610695919061078d565b60405180910390a15b5050505050565b5f7ff0c57e16840df040f15088dc2f81fe391c3923bec73e23a9662efc9c229c6a005f1b905090565b6106dc61071460201b60201c565b610712576040517fd7e6bcf800000000000000000000000000000000000000000000000000000000815260040160405180910390fd5b565b5f61072361033560201b60201c565b5f0160089054906101000a900460ff16905090565b5f819050919050565b5f67ffffffffffffffff82169050919050565b5f819050919050565b5f61077761077261076d84610738565b610754565b610741565b9050919050565b6107878161075d565b82525050565b5f6020820190506107a05f83018461077e565b92915050565b6105c7806107b35f395ff3fe608060405234801561000f575f5ffd5b5060043610610060575f3560e01c806310065ed2146100645780637cffe97a1461006e5780638129fc1c1461008c578063b23d810b14610096578063c3b8ef2a146100b4578063de74c703146100d2575b5f5ffd5b61006c6100dc565b005b610076610100565b604051610083919061050a565b60405180910390f35b610094610112565b005b61009e6102a2565b6040516100ab919061050a565b60405180910390f35b6100bc6102b4565b6040516100c9919061050a565b60405180910390f35b6100da6102c5565b005b6100e4610456565b60015f60016101000a81548160ff021916908315150217905550565b5f60019054906101000a900460ff1681565b5f61011b610496565b90505f815f0160089054906101000a900460ff161590505f825f015f9054906101000a900467ffffffffffffffff1690505f5f8267ffffffffffffffff161480156101635750825b90505f60018367ffffffffffffffff1614801561019657505f3073ffffffffffffffffffffffffffffffffffffffff163b145b9050811580156101a4575080155b156101db576040517ff92ee8a900000000000000000000000000000000000000000000000000000000815260040160405180910390fd5b6001855f015f6101000a81548167ffffffffffffffff021916908367ffffffffffffffff1602179055508315610228576001855f0160086101000a81548160ff0219169083151502179055505b60015f5f6101000a81548160ff021916908315150217905550831561029b575f855f0160086101000a81548160ff0219169083151502179055507fc7f505b2f371ae2175ee4913f4499e1f2633a7b5936321eed1cdaeb6115181d260016040516102929190610578565b60405180910390a15b5050505050565b5f60029054906101000a900460ff1681565b5f5f9054906101000a900460ff1681565b5f6102ce610496565b90505f815f0160089054906101000a900460ff161590505f825f015f9054906101000a900467ffffffffffffffff1690505f5f8267ffffffffffffffff161480156103165750825b90505f60018367ffffffffffffffff1614801561034957505f3073ffffffffffffffffffffffffffffffffffffffff163b145b905081158015610357575080155b1561038e576040517ff92ee8a900000000000000000000000000000000000000000000000000000000815260040160405180910390fd5b6001855f015f6101000a81548167ffffffffffffffff021916908367ffffffffffffffff16021790555083156103db576001855f0160086101000a81548160ff0219169083151502179055505b60015f60026101000a81548160ff021916908315150217905550831561044f575f855f0160086101000a81548160ff0219169083151502179055507fc7f505b2f371ae2175ee4913f4499e1f2633a7b5936321eed1cdaeb6115181d260016040516104469190610578565b60405180910390a15b5050505050565b61045e6104a9565b610494576040517fd7e6bcf800000000000000000000000000000000000000000000000000000000815260040160405180910390fd5b565b5f5f6104a06104c7565b90508091505090565b5f6104b2610496565b5f0160089054906101000a900460ff16905090565b5f7ff0c57e16840df040f15088dc2f81fe391c3923bec73e23a9662efc9c229c6a005f1b905090565b5f8115159050919050565b610504816104f0565b82525050565b5f60208201905061051d5f8301846104fb565b92915050565b5f819050919050565b5f67ffffffffffffffff82169050919050565b5f819050919050565b5f61056261055d61055884610523565b61053f565b61052c565b9050919050565b61057281610548565b82525050565b5f60208201905061058b5f830184610569565b9291505056fea26469706673582212203f74f2f7bb09a537d4314ab3c9afe41a3fea8c802a23ff2134d58f21be83067864736f6c634300081e0033","linkReferences":{}},"methodIdentifiers":{"childInitialize()":"de74c703","childInitializerRan()":"b23d810b","initialize()":"8129fc1c","initializeOnlyInitializing()":"10065ed2","initializerRan()":"c3b8ef2a","onlyInitializingRan()":"7cffe97a"},"id":212}