{"abi":[{"type":"constructor","inputs":[],"stateMutability":"nonpayable"},{"type":"function","name":"initialize","inputs":[],"outputs":[],"stateMutability":"nonpayable"},{"type":"function","name":"initializeOnlyInitializing","inputs":[],"outputs":[],"stateMutability":"nonpayable"},{"type":"function","name":"initializerRan","inputs":[],"outputs":[{"name":"","type":"bool","internalType":"bool"}],"stateMutability":"view"},{"type":"function","name":"onlyInitializingRan","inputs":[],"outputs":[{"name":"","type":"bool","internalType":"bool"}],"stateMutability":"view"},{"type":"event","name":"Initialized","inputs":[{"name":"version","type":"uint64","indexed":false,"internalType":"uint64"}],"anonymous":false},{"type":"error","name":"InvalidInitialization","inputs":[]},{"type":"error","name":"NotInitializing","inputs":[]}],"bytecode":{"object":"0x608060405234801561000f575f5ffd5b505f61001f6101ac60201b60201c565b90505f815f0160089054906101000a900460ff161590505f825f015f9054906101000a900467ffffffffffffffff1690505f5f8267ffffffffffffffff161480156100675750825b90505f60018367ffffffffffffffff1614801561009a57505f3073ffffffffffffffffffffffffffffffffffffffff163b145b9050811580156100a8575080155b156100df576040517ff92ee8a900000000000000000000000000000000000000000000000000000000815260040160405180910390fd5b6001855f015f6101000a81548167ffffffffffffffff021916908367ffffffffffffffff160217905550831561012c576001855f0160086101000a81548160ff0219169083151502179055505b61013a6101c560201b60201c565b61014861035b60201b60201c565b83156101a2575f855f0160086101000a81548160ff0219169083151502179055507fc7f505b2f371ae2175ee4913f4499e1f2633a7b5936321eed1cdaeb6115181d26001604051610199919061046d565b60405180910390a15b5050505050610486565b5f5f6101bc61038560201b60201c565b90508091505090565b5f6101d46101ac60201b60201c565b90505f815f0160089054906101000a900460ff161590505f825f015f9054906101000a900467ffffffffffffffff1690505f5f8267ffffffffffffffff1614801561021c5750825b90505f60018367ffffffffffffffff1614801561024f57505f3073ffffffffffffffffffffffffffffffffffffffff163b145b90508115801561025d575080155b15610294576040517ff92ee8a900000000000000000000000000000000000000000000000000000000815260040160405180910390fd5b6001855f015f6101000a81548167ffffffffffffffff021916908367ffffffffffffffff16021790555083156102e1576001855f0160086101000a81548160ff0219169083151502179055505b60015f5f6101000a81548160ff0219169083151502179055508315610354575f855f0160086101000a81548160ff0219169083151502179055507fc7f505b2f371ae2175ee4913f4499e1f2633a7b5936321eed1cdaeb6115181d2600160405161034b919061046d565b60405180910390a15b5050505050565b6103696103ae60201b60201c565b60015f60016101000a81548160ff021916908315150217905550565b5f7ff0c57e16840df040f15088dc2f81fe391c3923bec73e23a9662efc9c229c6a005f1b905090565b6103bc6103f460201b60201c565b6103f2576040517fd7e6bcf800000000000000000000000000000000000000000000000000000000815260040160405180910390fd5b565b5f6104036101ac60201b60201c565b5f0160089054906101000a900460ff16905090565b5f819050919050565b5f67ffffffffffffffff82169050919050565b5f819050919050565b5f61045761045261044d84610418565b610434565b610421565b9050919050565b6104678161043d565b82525050565b5f6020820190506104805f83018461045e565b92915050565b6103e6806104935f395ff3fe608060405234801561000f575f5ffd5b506004361061004a575f3560e01c806310065ed21461004e5780637cffe97a146100585780638129fc1c14610076578063c3b8ef2a14610080575b5f5ffd5b61005661009e565b005b6100606100c2565b60405161006d9190610329565b60405180910390f35b61007e6100d4565b005b610088610264565b6040516100959190610329565b60405180910390f35b6100a6610275565b60015f60016101000a81548160ff021916908315150217905550565b5f60019054906101000a900460ff1681565b5f6100dd6102b5565b90505f815f0160089054906101000a900460ff161590505f825f015f9054906101000a900467ffffffffffffffff1690505f5f8267ffffffffffffffff161480156101255750825b90505f60018367ffffffffffffffff1614801561015857505f3073ffffffffffffffffffffffffffffffffffffffff163b145b905081158015610166575080155b1561019d576040517ff92ee8a900000000000000000000000000000000000000000000000000000000815260040160405180910390fd5b6001855f015f6101000a81548167ffffffffffffffff021916908367ffffffffffffffff16021790555083156101ea576001855f0160086101000a81548160ff0219169083151502179055505b60015f5f6101000a81548160ff021916908315150217905550831561025d575f855f0160086101000a81548160ff0219169083151502179055507fc7f505b2f371ae2175ee4913f4499e1f2633a7b5936321eed1cdaeb6115181d260016040516102549190610397565b60405180910390a15b5050505050565b5f5f9054906101000a900460ff1681565b61027d6102c8565b6102b3576040517fd7e6bcf800000000000000000000000000000000000000000000000000000000815260040160405180910390fd5b565b5f5f6102bf6102e6565b90508091505090565b5f6102d16102b5565b5f0160089054906101000a900460ff16905090565b5f7ff0c57e16840df040f15088dc2f81fe391c3923bec73e23a9662efc9c229c6a005f1b905090565b5f8115159050919050565b6103238161030f565b82525050565b5f60208201905061033c5f83018461031a565b92915050565b5f819050919050565b5f67ffffffffffffffff82169050919050565b5f819050919050565b5f61038161037c61037784610342565b61035e565b61034b565b9050919050565b61039181610367565b82525050565b5f6020820190506103aa5f830184610388565b9291505056fea2646970667358221220afad58773be877710503feb4e37b37206c4184b2b8f3c39347d09f2077dd337b64736f6c634300081e0033","linkReferences":{}},"methodIdentifiers":{"initialize()":"8129fc1c","initializeOnlyInitializing()":"10065ed2","initializerRan()":"c3b8ef2a","onlyInitializingRan()":"7cffe97a"},"id":212}