{"abi":[{"type":"function","name":"fail","inputs":[],"outputs":[],"stateMutability":"pure"},{"type":"function","name":"initialize","inputs":[],"outputs":[],"stateMutability":"nonpayable"},{"type":"function","name":"initializeOnlyInitializing","inputs":[],"outputs":[],"stateMutability":"nonpayable"},{"type":"function","name":"initializeWithX","inputs":[{"name":"_x","type":"uint256","internalType":"uint256"}],"outputs":[],"stateMutability":"payable"},{"type":"function","name":"initializerNested","inputs":[],"outputs":[],"stateMutability":"nonpayable"},{"type":"function","name":"initializerRan","inputs":[],"outputs":[{"name":"","type":"bool","internalType":"bool"}],"stateMutability":"view"},{"type":"function","name":"isInitializing","inputs":[],"outputs":[{"name":"","type":"bool","internalType":"bool"}],"stateMutability":"view"},{"type":"function","name":"nonInitializable","inputs":[{"name":"_x","type":"uint256","internalType":"uint256"}],"outputs":[],"stateMutability":"payable"},{"type":"function","name":"onlyInitializingNested","inputs":[],"outputs":[],"stateMutability":"nonpayable"},{"type":"function","name":"onlyInitializingRan","inputs":[],"outputs":[{"name":"","type":"bool","internalType":"bool"}],"stateMutability":"view"},{"type":"function","name":"x","inputs":[],"outputs":[{"name":"","type":"uint256","internalType":"uint256"}],"stateMutability":"view"},{"type":"event","name":"Initialized","inputs":[{"name":"version","type":"uint64","indexed":false,"internalType":"uint64"}],"anonymous":false},{"type":"error","name":"InvalidInitialization","inputs":[]},{"type":"error","name":"NotInitializing","inputs":[]}],"bytecode":{"object":"0x6080604052348015600e575f5ffd5b50610b138061001c5f395ff3fe60806040526004361061009a575f3560e01c806376268ae81161006357806376268ae81461013a5780637cffe97a146101505780638129fc1c1461017a578063a9cc471814610190578063c3b8ef2a146101a6578063e955c9ec146101d05761009a565b806218eaa81461009e5780630c55699c146100ba57806310065ed2146100e45780633ec91f05146100fa57806368449d1b14610124575b5f5ffd5b6100b860048036038101906100b39190610971565b6101ec565b005b3480156100c5575f5ffd5b506100ce61036b565b6040516100db91906109ab565b60405180910390f35b3480156100ef575f5ffd5b506100f8610371565b005b348015610105575f5ffd5b5061010e610395565b60405161011b91906109de565b60405180910390f35b34801561012f575f5ffd5b506101386103a3565b005b348015610145575f5ffd5b5061014e610522565b005b34801561015b575f5ffd5b506101646106a1565b60405161017191906109de565b60405180910390f35b348015610185575f5ffd5b5061018e6106b3565b005b34801561019b575f5ffd5b506101a4610843565b005b3480156101b1575f5ffd5b506101ba610885565b6040516101c791906109de565b60405180910390f35b6101ea60048036038101906101e59190610971565b610896565b005b5f6101f56108a0565b90505f815f0160089054906101000a900460ff161590505f825f015f9054906101000a900467ffffffffffffffff1690505f5f8267ffffffffffffffff1614801561023d5750825b90505f60018367ffffffffffffffff1614801561027057505f3073ffffffffffffffffffffffffffffffffffffffff163b145b90508115801561027e575080155b156102b5576040517ff92ee8a900000000000000000000000000000000000000000000000000000000815260040160405180910390fd5b6001855f015f6101000a81548167ffffffffffffffff021916908367ffffffffffffffff1602179055508315610302576001855f0160086101000a81548160ff0219169083151502179055505b856001819055508315610363575f855f0160086101000a81548160ff0219169083151502179055507fc7f505b2f371ae2175ee4913f4499e1f2633a7b5936321eed1cdaeb6115181d2600160405161035a9190610a4c565b60405180910390a15b505050505050565b60015481565b6103796108b3565b60015f60016101000a81548160ff021916908315150217905550565b5f61039e6108f3565b905090565b5f6103ac6108a0565b90505f815f0160089054906101000a900460ff161590505f825f015f9054906101000a900467ffffffffffffffff1690505f5f8267ffffffffffffffff161480156103f45750825b90505f60018367ffffffffffffffff1614801561042757505f3073ffffffffffffffffffffffffffffffffffffffff163b145b905081158015610435575080155b1561046c576040517ff92ee8a900000000000000000000000000000000000000000000000000000000815260040160405180910390fd5b6001855f015f6101000a81548167ffffffffffffffff021916908367ffffffffffffffff16021790555083156104b9576001855f0160086101000a81548160ff0219169083151502179055505b6104c1610371565b831561051b575f855f0160086101000a81548160ff0219169083151502179055507fc7f505b2f371ae2175ee4913f4499e1f2633a7b5936321eed1cdaeb6115181d260016040516105129190610a4c565b60405180910390a15b5050505050565b5f61052b6108a0565b90505f815f0160089054906101000a900460ff161590505f825f015f9054906101000a900467ffffffffffffffff1690505f5f8267ffffffffffffffff161480156105735750825b90505f60018367ffffffffffffffff161480156105a657505f3073ffffffffffffffffffffffffffffffffffffffff163b145b9050811580156105b4575080155b156105eb576040517ff92ee8a900000000000000000000000000000000000000000000000000000000815260040160405180910390fd5b6001855f015f6101000a81548167ffffffffffffffff021916908367ffffffffffffffff1602179055508315610638576001855f0160086101000a81548160ff0219169083151502179055505b6106406106b3565b831561069a575f855f0160086101000a81548160ff0219169083151502179055507fc7f505b2f371ae2175ee4913f4499e1f2633a7b5936321eed1cdaeb6115181d260016040516106919190610a4c565b60405180910390a15b5050505050565b5f60019054906101000a900460ff1681565b5f6106bc6108a0565b90505f815f0160089054906101000a900460ff161590505f825f015f9054906101000a900467ffffffffffffffff1690505f5f8267ffffffffffffffff161480156107045750825b90505f60018367ffffffffffffffff1614801561073757505f3073ffffffffffffffffffffffffffffffffffffffff163b145b905081158015610745575080155b1561077c576040517ff92ee8a900000000000000000000000000000000000000000000000000000000815260040160405180910390fd5b6001855f015f6101000a81548167ffffffffffffffff021916908367ffffffffffffffff16021790555083156107c9576001855f0160086101000a81548160ff0219169083151502179055505b60015f5f6101000a81548160ff021916908315150217905550831561083c575f855f0160086101000a81548160ff0219169083151502179055507fc7f505b2f371ae2175ee4913f4499e1f2633a7b5936321eed1cdaeb6115181d260016040516108339190610a4c565b60405180910390a15b5050505050565b5f610883576040517f08c379a000000000000000000000000000000000000000000000000000000000815260040161087a90610abf565b60405180910390fd5b565b5f5f9054906101000a900460ff1681565b8060018190555050565b5f5f6108aa610911565b90508091505090565b6108bb6108f3565b6108f1576040517fd7e6bcf800000000000000000000000000000000000000000000000000000000815260040160405180910390fd5b565b5f6108fc6108a0565b5f0160089054906101000a900460ff16905090565b5f7ff0c57e16840df040f15088dc2f81fe391c3923bec73e23a9662efc9c229c6a005f1b905090565b5f5ffd5b5f819050919050565b6109508161093e565b811461095a575f5ffd5b50565b5f8135905061096b81610947565b92915050565b5f602082840312156109865761098561093a565b5b5f6109938482850161095d565b91505092915050565b6109a58161093e565b82525050565b5f6020820190506109be5f83018461099c565b92915050565b5f8115159050919050565b6109d8816109c4565b82525050565b5f6020820190506109f15f8301846109cf565b92915050565b5f819050919050565b5f67ffffffffffffffff82169050919050565b5f819050919050565b5f610a36610a31610a2c846109f7565b610a13565b610a00565b9050919050565b610a4681610a1c565b82525050565b5f602082019050610a5f5f830184610a3d565b92915050565b5f82825260208201905092915050565b7f496e697469616c697a61626c654d6f636b20666f72636564206661696c7572655f82015250565b5f610aa9602083610a65565b9150610ab482610a75565b602082019050919050565b5f6020820190508181035f830152610ad681610a9d565b905091905056fea264697066735822122049091972adb4739a3da1e03137a951855e556364ab0343d854e6a0296e91e11364736f6c634300081e0033","linkReferences":{}},"methodIdentifiers":{"fail()":"a9cc4718","initialize()":"8129fc1c","initializeOnlyInitializing()":"10065ed2","initializeWithX(uint256)":"0018eaa8","initializerNested()":"76268ae8","initializerRan()":"c3b8ef2a","isInitializing()":"3ec91f05","nonInitializable(uint256)":"e955c9ec","onlyInitializingNested()":"68449d1b","onlyInitializingRan()":"7cffe97a","x()":"0c55699c"},"id":212}