{"abi":[{"type":"function","name":"chainReinitialize","inputs":[{"name":"i","type":"uint64","internalType":"uint64"},{"name":"j","type":"uint64","internalType":"uint64"}],"outputs":[],"stateMutability":"nonpayable"},{"type":"function","name":"counter","inputs":[],"outputs":[{"name":"","type":"uint256","internalType":"uint256"}],"stateMutability":"view"},{"type":"function","name":"disableInitializers","inputs":[],"outputs":[],"stateMutability":"nonpayable"},{"type":"function","name":"doStuff","inputs":[],"outputs":[],"stateMutability":"nonpayable"},{"type":"function","name":"getInitializedVersion","inputs":[],"outputs":[{"name":"","type":"uint64","internalType":"uint64"}],"stateMutability":"view"},{"type":"function","name":"initialize","inputs":[],"outputs":[],"stateMutability":"nonpayable"},{"type":"function","name":"nestedReinitialize","inputs":[{"name":"i","type":"uint64","internalType":"uint64"},{"name":"j","type":"uint64","internalType":"uint64"}],"outputs":[],"stateMutability":"nonpayable"},{"type":"function","name":"reinitialize","inputs":[{"name":"i","type":"uint64","internalType":"uint64"}],"outputs":[],"stateMutability":"nonpayable"},{"type":"event","name":"Initialized","inputs":[{"name":"version","type":"uint64","indexed":false,"internalType":"uint64"}],"anonymous":false},{"type":"error","name":"InvalidInitialization","inputs":[]},{"type":"error","name":"NotInitializing","inputs":[]}],"bytecode":{"object":"0x6080604052348015600e575f5ffd5b506109248061001c5f395ff3fe608060405234801561000f575f5ffd5b5060043610610086575f3560e01c80639a1b97df116100595780639a1b97df146100c6578063b3c65015146100e2578063b5f214c014610100578063ff57ab741461011c57610086565b806331f449001461008a57806361bc221a146100945780638129fc1c146100b2578063874f33a1146100bc575b5f5ffd5b610092610138565b005b61009c610142565b6040516100a99190610734565b60405180910390f35b6100ba610147565b005b6100c46102c6565b005b6100e060048036038101906100db919061078e565b6102e6565b005b6100ea610413565b6040516100f791906107c8565b60405180910390f35b61011a600480360381019061011591906107e1565b610421565b005b610136600480360381019061013191906107e1565b610437565b005b610140610566565b565b5f5481565b5f61015061065e565b90505f815f0160089054906101000a900460ff161590505f825f015f9054906101000a900467ffffffffffffffff1690505f5f8267ffffffffffffffff161480156101985750825b90505f60018367ffffffffffffffff161480156101cb57505f3073ffffffffffffffffffffffffffffffffffffffff163b145b9050811580156101d9575080155b15610210576040517ff92ee8a900000000000000000000000000000000000000000000000000000000815260040160405180910390fd5b6001855f015f6101000a81548167ffffffffffffffff021916908367ffffffffffffffff160217905550831561025d576001855f0160086101000a81548160ff0219169083151502179055505b6102656102c6565b83156102bf575f855f0160086101000a81548160ff0219169083151502179055507fc7f505b2f371ae2175ee4913f4499e1f2633a7b5936321eed1cdaeb6115181d260016040516102b69190610861565b60405180910390a15b5050505050565b6102ce610671565b5f5f8154809291906102df906108a7565b9190505550565b805f6102f061065e565b9050805f0160089054906101000a900460ff168061033857508167ffffffffffffffff16815f015f9054906101000a900467ffffffffffffffff1667ffffffffffffffff1610155b1561036f576040517ff92ee8a900000000000000000000000000000000000000000000000000000000815260040160405180910390fd5b81815f015f6101000a81548167ffffffffffffffff021916908367ffffffffffffffff1602179055506001815f0160086101000a81548160ff0219169083151502179055506103bc6102c6565b5f815f0160086101000a81548160ff0219169083151502179055507fc7f505b2f371ae2175ee4913f4499e1f2633a7b5936321eed1cdaeb6115181d28260405161040691906107c8565b60405180910390a1505050565b5f61041c6106b1565b905090565b61042a826102e6565b610433816102e6565b5050565b815f61044161065e565b9050805f0160089054906101000a900460ff168061048957508167ffffffffffffffff16815f015f9054906101000a900467ffffffffffffffff1667ffffffffffffffff1610155b156104c0576040517ff92ee8a900000000000000000000000000000000000000000000000000000000815260040160405180910390fd5b81815f015f6101000a81548167ffffffffffffffff021916908367ffffffffffffffff1602179055506001815f0160086101000a81548160ff02191690831515021790555061050e836102e6565b5f815f0160086101000a81548160ff0219169083151502179055507fc7f505b2f371ae2175ee4913f4499e1f2633a7b5936321eed1cdaeb6115181d28260405161055891906107c8565b60405180910390a150505050565b5f61056f61065e565b9050805f0160089054906101000a900460ff16156105b9576040517ff92ee8a900000000000000000000000000000000000000000000000000000000815260040160405180910390fd5b67ffffffffffffffff8016815f015f9054906101000a900467ffffffffffffffff1667ffffffffffffffff161461065b5767ffffffffffffffff815f015f6101000a81548167ffffffffffffffff021916908367ffffffffffffffff1602179055507fc7f505b2f371ae2175ee4913f4499e1f2633a7b5936321eed1cdaeb6115181d267ffffffffffffffff60405161065291906107c8565b60405180910390a15b50565b5f5f6106686106d5565b90508091505090565b6106796106fe565b6106af576040517fd7e6bcf800000000000000000000000000000000000000000000000000000000815260040160405180910390fd5b565b5f6106ba61065e565b5f015f9054906101000a900467ffffffffffffffff16905090565b5f7ff0c57e16840df040f15088dc2f81fe391c3923bec73e23a9662efc9c229c6a005f1b905090565b5f61070761065e565b5f0160089054906101000a900460ff16905090565b5f819050919050565b61072e8161071c565b82525050565b5f6020820190506107475f830184610725565b92915050565b5f5ffd5b5f67ffffffffffffffff82169050919050565b61076d81610751565b8114610777575f5ffd5b50565b5f8135905061078881610764565b92915050565b5f602082840312156107a3576107a261074d565b5b5f6107b08482850161077a565b91505092915050565b6107c281610751565b82525050565b5f6020820190506107db5f8301846107b9565b92915050565b5f5f604083850312156107f7576107f661074d565b5b5f6108048582860161077a565b92505060206108158582860161077a565b9150509250929050565b5f819050919050565b5f819050919050565b5f61084b6108466108418461081f565b610828565b610751565b9050919050565b61085b81610831565b82525050565b5f6020820190506108745f830184610852565b92915050565b7f4e487b71000000000000000000000000000000000000000000000000000000005f52601160045260245ffd5b5f6108b18261071c565b91507fffffffffffffffffffffffffffffffffffffffffffffffffffffffffffffffff82036108e3576108e261087a565b5b60018201905091905056fea2646970667358221220d52e93eaeb6ca7cd5fb555a97ae9b214a619c4e995831ffece292123f19d20a964736f6c634300081e0033","linkReferences":{}},"methodIdentifiers":{"chainReinitialize(uint64,uint64)":"b5f214c0","counter()":"61bc221a","disableInitializers()":"31f44900","doStuff()":"874f33a1","getInitializedVersion()":"b3c65015","initialize()":"8129fc1c","nestedReinitialize(uint64,uint64)":"ff57ab74","reinitialize(uint64)":"9a1b97df"},"id":212}