{"abi":[{"type":"function","name":"supportsInterface","inputs":[{"name":"interfaceId","type":"bytes4","internalType":"bytes4"}],"outputs":[],"stateMutability":"view"}],"bytecode":{"object":"0x6080604052348015600e575f5ffd5b5060f58061001b5f395ff3fe6080604052348015600e575f5ffd5b50600436106026575f3560e01c806301ffc9a714602a575b5f5ffd5b60406004803603810190603c91906099565b6042565b005b50565b5f5ffd5b5f7fffffffff0000000000000000000000000000000000000000000000000000000082169050919050565b607b816049565b81146084575f5ffd5b50565b5f813590506093816074565b92915050565b5f6020828403121560ab5760aa6045565b5b5f60b6848285016087565b9150509291505056fea2646970667358221220805636a8189861dc19f07dd424997b067ee9fea3cc541acfdfd5293ada05c3e064736f6c634300081e0033","linkReferences":{}},"methodIdentifiers":{"supportsInterface(bytes4)":"01ffc9a7"},"id":208}