{"abi":[{"type":"constructor","inputs":[{"name":"interfaceIds","type":"bytes4[]","internalType":"bytes4[]"}],"stateMutability":"nonpayable"},{"type":"function","name":"INTERFACE_ID_ERC165","inputs":[],"outputs":[{"name":"","type":"bytes4","internalType":"bytes4"}],"stateMutability":"view"},{"type":"function","name":"supportsInterface","inputs":[{"name":"interfaceId","type":"bytes4","internalType":"bytes4"}],"outputs":[{"name":"","type":"bool","internalType":"bool"}],"stateMutability":"view"}],"bytecode":{"object":"0x608060405234801561000f575f5ffd5b5060405161064138038061064183398181016040528101906100319190610319565b6100476301ffc9a760e01b61009260201b60201c565b5f5f90505b815181101561008b5761007e82828151811061006b5761006a610360565b5b602002602001015161009260201b60201c565b808060010191505061004c565b505061042b565b63ffffffff60e01b817bffffffffffffffffffffffffffffffffffffffffffffffffffffffff1916036100fa576040517f08c379a00000000000000000000000000000000000000000000000000000000081526004016100f19061040d565b60405180910390fd5b60015f5f837bffffffffffffffffffffffffffffffffffffffffffffffffffffffff19167bffffffffffffffffffffffffffffffffffffffffffffffffffffffff191681526020019081526020015f205f6101000a81548160ff02191690831515021790555050565b5f604051905090565b5f5ffd5b5f5ffd5b5f5ffd5b5f601f19601f8301169050919050565b7f4e487b71000000000000000000000000000000000000000000000000000000005f52604160045260245ffd5b6101be82610178565b810181811067ffffffffffffffff821117156101dd576101dc610188565b5b80604052505050565b5f6101ef610163565b90506101fb82826101b5565b919050565b5f67ffffffffffffffff82111561021a57610219610188565b5b602082029050602081019050919050565b5f5ffd5b5f7fffffffff0000000000000000000000000000000000000000000000000000000082169050919050565b6102638161022f565b811461026d575f5ffd5b50565b5f8151905061027e8161025a565b92915050565b5f61029661029184610200565b6101e6565b905080838252602082019050602084028301858111156102b9576102b861022b565b5b835b818110156102e257806102ce8882610270565b8452602084019350506020810190506102bb565b5050509392505050565b5f82601f830112610300576102ff610174565b5b8151610310848260208601610284565b91505092915050565b5f6020828403121561032e5761032d61016c565b5b5f82015167ffffffffffffffff81111561034b5761034a610170565b5b610357848285016102ec565b91505092915050565b7f4e487b71000000000000000000000000000000000000000000000000000000005f52603260045260245ffd5b5f82825260208201905092915050565b7f455243313635496e7465726661636573537570706f727465643a20696e76616c5f8201527f696420696e746572666163652069640000000000000000000000000000000000602082015250565b5f6103f7602f8361038d565b91506104028261039d565b604082019050919050565b5f6020820190508181035f830152610424816103eb565b9050919050565b610209806104385f395ff3fe608060405234801561000f575f5ffd5b5060043610610034575f3560e01c806301ffc9a71461003857806334d7006c14610068575b5f5ffd5b610052600480360381019061004d919061014d565b610086565b60405161005f9190610192565b60405180910390f35b6100706100e9565b60405161007d91906101ba565b60405180910390f35b5f5f5f837bffffffffffffffffffffffffffffffffffffffffffffffffffffffff19167bffffffffffffffffffffffffffffffffffffffffffffffffffffffff191681526020019081526020015f205f9054906101000a900460ff169050919050565b6301ffc9a760e01b81565b5f5ffd5b5f7fffffffff0000000000000000000000000000000000000000000000000000000082169050919050565b61012c816100f8565b8114610136575f5ffd5b50565b5f8135905061014781610123565b92915050565b5f60208284031215610162576101616100f4565b5b5f61016f84828501610139565b91505092915050565b5f8115159050919050565b61018c81610178565b82525050565b5f6020820190506101a55f830184610183565b92915050565b6101b4816100f8565b82525050565b5f6020820190506101cd5f8301846101ab565b9291505056fea264697066735822122059f0cf1489cb0ae1cffe28937813a8a32ea27da50cf8acdb2cbed17fdd410d3a64736f6c634300081e0033","linkReferences":{}},"methodIdentifiers":{"INTERFACE_ID_ERC165()":"34d7006c","supportsInterface(bytes4)":"01ffc9a7"},"id":208}