{"abi":[{"type":"function","name":"supportsInterface","inputs":[{"name":"interfaceId","type":"bytes4","internalType":"bytes4"}],"outputs":[{"name":"","type":"bool","internalType":"bool"}],"stateMutability":"pure"}],"bytecode":{"object":"0x6080604052348015600e575f5ffd5b506101bc8061001c5f395ff3fe608060405234801561000f575f5ffd5b5060043610610029575f3560e01c806301ffc9a71461002d575b5f5ffd5b61004760048036038101906100429190610128565b61005d565b604051610054919061016d565b60405180910390f35b5f7f01ffc9a7000000000000000000000000000000000000000000000000000000007bffffffffffffffffffffffffffffffffffffffffffffffffffffffff1916827bffffffffffffffffffffffffffffffffffffffffffffffffffffffff1916036100c85760015f525b62018c7c5ff35b5f5ffd5b5f7fffffffff0000000000000000000000000000000000000000000000000000000082169050919050565b610107816100d3565b8114610111575f5ffd5b50565b5f81359050610122816100fe565b92915050565b5f6020828403121561013d5761013c6100cf565b5b5f61014a84828501610114565b91505092915050565b5f8115159050919050565b61016781610153565b82525050565b5f6020820190506101805f83018461015e565b9291505056fea2646970667358221220887c7bd3ac7b6c2f9e6fba4b76c1fde66534e0f4f9639620303db8a15f0815c564736f6c634300081e0033","linkReferences":{}},"methodIdentifiers":{"supportsInterface(bytes4)":"01ffc9a7"},"id":208}