{"abi":[{"type":"constructor","inputs":[{"name":"_entryPoint","type":"address","internalType":"contract IEntryPoint"}],"stateMutability":"nonpayable"},{"type":"function","name":"acceptOwnership","inputs":[],"outputs":[],"stateMutability":"nonpayable"},{"type":"function","name":"addStake","inputs":[{"name":"unstakeDelaySec","type":"uint32","internalType":"uint32"}],"outputs":[],"stateMutability":"payable"},{"type":"function","name":"deposit","inputs":[],"outputs":[],"stateMutability":"payable"},{"type":"function","name":"entryPoint","inputs":[],"outputs":[{"name":"","type":"address","internalType":"contract IEntryPoint"}],"stateMutability":"view"},{"type":"function","name":"getDeposit","inputs":[],"outputs":[{"name":"","type":"uint256","internalType":"uint256"}],"stateMutability":"view"},{"type":"function","name":"owner","inputs":[],"outputs":[{"name":"","type":"address","internalType":"address"}],"stateMutability":"view"},{"type":"function","name":"pendingOwner","inputs":[],"outputs":[{"name":"","type":"address","internalType":"address"}],"stateMutability":"view"},{"type":"function","name":"postOp","inputs":[{"name":"mode","type":"uint8","internalType":"enum IPaymaster.PostOpMode"},{"name":"context","type":"bytes","internalType":"bytes"},{"name":"actualGasCost","type":"uint256","internalType":"uint256"},{"name":"actualUserOpFeePerGas","type":"uint256","internalType":"uint256"}],"outputs":[],"stateMutability":"nonpayable"},{"type":"function","name":"renounceOwnership","inputs":[],"outputs":[],"stateMutability":"nonpayable"},{"type":"function","name":"setRevertType","inputs":[{"name":"_revertType","type":"uint8","internalType":"enum TestPaymasterRevertCustomError.RevertType"}],"outputs":[],"stateMutability":"nonpayable"},{"type":"function","name":"transferOwnership","inputs":[{"name":"newOwner","type":"address","internalType":"address"}],"outputs":[],"stateMutability":"nonpayable"},{"type":"function","name":"unlockStake","inputs":[],"outputs":[],"stateMutability":"nonpayable"},{"type":"function","name":"validatePaymasterUserOp","inputs":[{"name":"userOp","type":"tuple","internalType":"struct PackedUserOperation","components":[{"name":"sender","type":"address","internalType":"address"},{"name":"nonce","type":"uint256","internalType":"uint256"},{"name":"initCode","type":"bytes","internalType":"bytes"},{"name":"callData","type":"bytes","internalType":"bytes"},{"name":"accountGasLimits","type":"bytes32","internalType":"bytes32"},{"name":"preVerificationGas","type":"uint256","internalType":"uint256"},{"name":"gasFees","type":"bytes32","internalType":"bytes32"},{"name":"paymasterAndData","type":"bytes","internalType":"bytes"},{"name":"signature","type":"bytes","internalType":"bytes"}]},{"name":"userOpHash","type":"bytes32","internalType":"bytes32"},{"name":"maxCost","type":"uint256","internalType":"uint256"}],"outputs":[{"name":"context","type":"bytes","internalType":"bytes"},{"name":"validationData","type":"uint256","internalType":"uint256"}],"stateMutability":"nonpayable"},{"type":"function","name":"withdrawStake","inputs":[{"name":"withdrawAddress","type":"address","internalType":"address payable"}],"outputs":[],"stateMutability":"nonpayable"},{"type":"function","name":"withdrawTo","inputs":[{"name":"withdrawAddress","type":"address","internalType":"address payable"},{"name":"amount","type":"uint256","internalType":"uint256"}],"outputs":[],"stateMutability":"nonpayable"},{"type":"event","name":"OwnershipTransferStarted","inputs":[{"name":"previousOwner","type":"address","indexed":true,"internalType":"address"},{"name":"newOwner","type":"address","indexed":true,"internalType":"address"}],"anonymous":false},{"type":"event","name":"OwnershipTransferred","inputs":[{"name":"previousOwner","type":"address","indexed":true,"internalType":"address"},{"name":"newOwner","type":"address","indexed":true,"internalType":"address"}],"anonymous":false},{"type":"error","name":"CustomError","inputs":[{"name":"customReason","type":"string","internalType":"string"}]},{"type":"error","name":"ERC165Error","inputs":[{"name":"entryPoint","type":"address","internalType":"address"},{"name":"interfaceId","type":"bytes4","internalType":"bytes4"}]},{"type":"error","name":"MustOverride","inputs":[]},{"type":"error","name":"NotFromEntryPoint","inputs":[{"name":"msgSender","type":"address","internalType":"address"},{"name":"entity","type":"address","internalType":"address"},{"name":"entryPoint","type":"address","internalType":"address"}]},{"type":"error","name":"OwnableInvalidOwner","inputs":[{"name":"owner","type":"address","internalType":"address"}]},{"type":"error","name":"OwnableUnauthorizedAccount","inputs":[{"name":"account","type":"address","internalType":"address"}]}],"bytecode":{"object":"0x60a060405234801561000f575f5ffd5b506040516117633803806117638339818101604052810190610031919061034c565b8033805f73ffffffffffffffffffffffffffffffffffffffff168173ffffffffffffffffffffffffffffffffffffffff16036100a4575f6040517f1e4fbdf700000000000000000000000000000000000000000000000000000000815260040161009b9190610386565b60405180910390fd5b6100b3816100ff60201b60201c565b506100c38261013560201b60201c565b8173ffffffffffffffffffffffffffffffffffffffff1660808173ffffffffffffffffffffffffffffffffffffffff1681525050505050610479565b60015f6101000a81549073ffffffffffffffffffffffffffffffffffffffff02191690556101328161021c60201b60201c565b50565b5f7f283f54890000000000000000000000000000000000000000000000000000000090508173ffffffffffffffffffffffffffffffffffffffff166301ffc9a7826040518263ffffffff1660e01b815260040161019291906103d9565b602060405180830381865afa1580156101ad573d5f5f3e3d5ffd5b505050506040513d601f19601f820116820180604052508101906101d19190610427565b82829091610216576040517f65d25c7100000000000000000000000000000000000000000000000000000000815260040161020d929190610452565b60405180910390fd5b50505050565b5f5f5f9054906101000a900473ffffffffffffffffffffffffffffffffffffffff169050815f5f6101000a81548173ffffffffffffffffffffffffffffffffffffffff021916908373ffffffffffffffffffffffffffffffffffffffff1602179055508173ffffffffffffffffffffffffffffffffffffffff168173ffffffffffffffffffffffffffffffffffffffff167f8be0079c531659141344cd1fd0a4f28419497f9722a3daafe3b4186f6b6457e060405160405180910390a35050565b5f5ffd5b5f73ffffffffffffffffffffffffffffffffffffffff82169050919050565b5f61030a826102e1565b9050919050565b5f61031b82610300565b9050919050565b61032b81610311565b8114610335575f5ffd5b50565b5f8151905061034681610322565b92915050565b5f60208284031215610361576103606102dd565b5b5f61036e84828501610338565b91505092915050565b61038081610300565b82525050565b5f6020820190506103995f830184610377565b92915050565b5f7fffffffff0000000000000000000000000000000000000000000000000000000082169050919050565b6103d38161039f565b82525050565b5f6020820190506103ec5f8301846103ca565b92915050565b5f8115159050919050565b610406816103f2565b8114610410575f5ffd5b50565b5f81519050610421816103fd565b92915050565b5f6020828403121561043c5761043b6102dd565b5b5f61044984828501610413565b91505092915050565b5f6040820190506104655f830185610377565b61047260208301846103ca565b9392505050565b6080516112cb6104985f395f818161052b015261063601526112cb5ff3fe6080604052600436106100e7575f3560e01c80638da5cb5b11610089578063c399ec8811610058578063c399ec881461027a578063d0e30db0146102a4578063e30c3978146102ae578063f2fde38b146102d8576100e7565b80638da5cb5b146101e8578063b0d691fe14610212578063bb9fe6bf1461023c578063c23a5cea14610252576100e7565b806352b7512c116100c557806352b7512c14610157578063715018a61461019457806379ba5097146101aa5780637c627b21146101c0576100e7565b80630396cb60146100eb578063205c2878146101075780632cd103391461012f575b5f5ffd5b61010560048036038101906101009190610b7f565b610300565b005b348015610112575f5ffd5b5061012d60048036038101906101289190610c37565b61037a565b005b34801561013a575f5ffd5b5061015560048036038101906101509190610c98565b6103f5565b005b348015610162575f5ffd5b5061017d60048036038101906101789190610d19565b610422565b60405161018b929190610e04565b60405180910390f35b34801561019f575f5ffd5b506101a8610444565b005b3480156101b5575f5ffd5b506101be610457565b005b3480156101cb575f5ffd5b506101e660048036038101906101e19190610eb6565b6104e5565b005b3480156101f3575f5ffd5b506101fc610501565b6040516102099190610f5a565b60405180910390f35b34801561021d575f5ffd5b50610226610528565b6040516102339190610fce565b60405180910390f35b348015610247575f5ffd5b5061025061054f565b005b34801561025d575f5ffd5b5061027860048036038101906102739190610fe7565b6105bb565b005b348015610285575f5ffd5b5061028e610633565b60405161029b9190611012565b60405180910390f35b6102ac6106d1565b005b3480156102b9575f5ffd5b506102c2610742565b6040516102cf9190610f5a565b60405180910390f35b3480156102e3575f5ffd5b506102fe60048036038101906102f99190611055565b61076a565b005b610308610816565b610310610528565b73ffffffffffffffffffffffffffffffffffffffff16630396cb6034836040518363ffffffff1660e01b8152600401610349919061108f565b5f604051808303818588803b158015610360575f5ffd5b505af1158015610372573d5f5f3e3d5ffd5b505050505050565b610382610816565b61038a610528565b73ffffffffffffffffffffffffffffffffffffffff1663205c287883836040518363ffffffff1660e01b81526004016103c49291906110b7565b5f604051808303815f87803b1580156103db575f5ffd5b505af11580156103ed573d5f5f3e3d5ffd5b505050505050565b80600160146101000a81548160ff0219169083600181111561041a576104196110de565b5b021790555050565b60605f61042d61089d565b610438858585610927565b91509150935093915050565b61044c610816565b6104555f610968565b565b5f610460610998565b90508073ffffffffffffffffffffffffffffffffffffffff16610481610742565b73ffffffffffffffffffffffffffffffffffffffff16146104d957806040517f118cdaa70000000000000000000000000000000000000000000000000000000081526004016104d09190610f5a565b60405180910390fd5b6104e281610968565b50565b6104ed61089d565b6104fa858585858561099f565b5050505050565b5f5f5f9054906101000a900473ffffffffffffffffffffffffffffffffffffffff16905090565b5f7f0000000000000000000000000000000000000000000000000000000000000000905090565b610557610816565b61055f610528565b73ffffffffffffffffffffffffffffffffffffffff1663bb9fe6bf6040518163ffffffff1660e01b81526004015f604051808303815f87803b1580156105a3575f5ffd5b505af11580156105b5573d5f5f3e3d5ffd5b50505050565b6105c3610816565b6105cb610528565b73ffffffffffffffffffffffffffffffffffffffff1663c23a5cea826040518263ffffffff1660e01b8152600401610603919061110b565b5f604051808303815f87803b15801561061a575f5ffd5b505af115801561062c573d5f5f3e3d5ffd5b5050505050565b5f7f000000000000000000000000000000000000000000000000000000000000000073ffffffffffffffffffffffffffffffffffffffff166370a08231306040518263ffffffff1660e01b815260040161068d9190610f5a565b602060405180830381865afa1580156106a8573d5f5f3e3d5ffd5b505050506040513d601f19601f820116820180604052508101906106cc9190611138565b905090565b6106d9610528565b73ffffffffffffffffffffffffffffffffffffffff1663b760faf934306040518363ffffffff1660e01b81526004016107129190610f5a565b5f604051808303818588803b158015610729575f5ffd5b505af115801561073b573d5f5f3e3d5ffd5b5050505050565b5f60015f9054906101000a900473ffffffffffffffffffffffffffffffffffffffff16905090565b610772610816565b8060015f6101000a81548173ffffffffffffffffffffffffffffffffffffffff021916908373ffffffffffffffffffffffffffffffffffffffff1602179055508073ffffffffffffffffffffffffffffffffffffffff166107d1610501565b73ffffffffffffffffffffffffffffffffffffffff167f38d16b8cac22d99fc7c124b9cd0de2d3fa1faef420bfe791d8c362d765e2270060405160405180910390a350565b61081e610998565b73ffffffffffffffffffffffffffffffffffffffff1661083c610501565b73ffffffffffffffffffffffffffffffffffffffff161461089b5761085f610998565b6040517f118cdaa70000000000000000000000000000000000000000000000000000000081526004016108929190610f5a565b60405180910390fd5b565b6108a5610528565b73ffffffffffffffffffffffffffffffffffffffff163373ffffffffffffffffffffffffffffffffffffffff161433306108dd610528565b909192610922576040517ffe34a6d300000000000000000000000000000000000000000000000000000000815260040161091993929190611163565b60405180910390fd5b505050565b60605f5f9050845f01602081019061093f9190611055565b60405160200161094f91906111dd565b6040516020818303038152906040529150935093915050565b60015f6101000a81549073ffffffffffffffffffffffffffffffffffffffff021916905561099581610a7d565b50565b5f33905090565b5f60018111156109b2576109b16110de565b5b600160149054906101000a900460ff1660018111156109d4576109d36110de565b5b03610a14576040517f8d6ea8be000000000000000000000000000000000000000000000000000000008152600401610a0b90611277565b60405180910390fd5b600180811115610a2757610a266110de565b5b600160149054906101000a900460ff166001811115610a4957610a486110de565b5b03610a76577fdeaddead000000000000000000000000000000000000000000000000000000005f5260205ffd5b5050505050565b5f5f5f9054906101000a900473ffffffffffffffffffffffffffffffffffffffff169050815f5f6101000a81548173ffffffffffffffffffffffffffffffffffffffff021916908373ffffffffffffffffffffffffffffffffffffffff1602179055508173ffffffffffffffffffffffffffffffffffffffff168173ffffffffffffffffffffffffffffffffffffffff167f8be0079c531659141344cd1fd0a4f28419497f9722a3daafe3b4186f6b6457e060405160405180910390a35050565b5f5ffd5b5f5ffd5b5f63ffffffff82169050919050565b610b5e81610b46565b8114610b68575f5ffd5b50565b5f81359050610b7981610b55565b92915050565b5f60208284031215610b9457610b93610b3e565b5b5f610ba184828501610b6b565b91505092915050565b5f73ffffffffffffffffffffffffffffffffffffffff82169050919050565b5f610bd382610baa565b9050919050565b610be381610bc9565b8114610bed575f5ffd5b50565b5f81359050610bfe81610bda565b92915050565b5f819050919050565b610c1681610c04565b8114610c20575f5ffd5b50565b5f81359050610c3181610c0d565b92915050565b5f5f60408385031215610c4d57610c4c610b3e565b5b5f610c5a85828601610bf0565b9250506020610c6b85828601610c23565b9150509250929050565b60028110610c81575f5ffd5b50565b5f81359050610c9281610c75565b92915050565b5f60208284031215610cad57610cac610b3e565b5b5f610cba84828501610c84565b91505092915050565b5f5ffd5b5f6101208284031215610cdd57610cdc610cc3565b5b81905092915050565b5f819050919050565b610cf881610ce6565b8114610d02575f5ffd5b50565b5f81359050610d1381610cef565b92915050565b5f5f5f60608486031215610d3057610d2f610b3e565b5b5f84013567ffffffffffffffff811115610d4d57610d4c610b42565b5b610d5986828701610cc7565b9350506020610d6a86828701610d05565b9250506040610d7b86828701610c23565b9150509250925092565b5f81519050919050565b5f82825260208201905092915050565b8281835e5f83830152505050565b5f601f19601f8301169050919050565b5f610dc782610d85565b610dd18185610d8f565b9350610de1818560208601610d9f565b610dea81610dad565b840191505092915050565b610dfe81610c04565b82525050565b5f6040820190508181035f830152610e1c8185610dbd565b9050610e2b6020830184610df5565b9392505050565b60038110610e3e575f5ffd5b50565b5f81359050610e4f81610e32565b92915050565b5f5ffd5b5f5ffd5b5f5ffd5b5f5f83601f840112610e7657610e75610e55565b5b8235905067ffffffffffffffff811115610e9357610e92610e59565b5b602083019150836001820283011115610eaf57610eae610e5d565b5b9250929050565b5f5f5f5f5f60808688031215610ecf57610ece610b3e565b5b5f610edc88828901610e41565b955050602086013567ffffffffffffffff811115610efd57610efc610b42565b5b610f0988828901610e61565b94509450506040610f1c88828901610c23565b9250506060610f2d88828901610c23565b9150509295509295909350565b5f610f4482610baa565b9050919050565b610f5481610f3a565b82525050565b5f602082019050610f6d5f830184610f4b565b92915050565b5f819050919050565b5f610f96610f91610f8c84610baa565b610f73565b610baa565b9050919050565b5f610fa782610f7c565b9050919050565b5f610fb882610f9d565b9050919050565b610fc881610fae565b82525050565b5f602082019050610fe15f830184610fbf565b92915050565b5f60208284031215610ffc57610ffb610b3e565b5b5f61100984828501610bf0565b91505092915050565b5f6020820190506110255f830184610df5565b92915050565b61103481610f3a565b811461103e575f5ffd5b50565b5f8135905061104f8161102b565b92915050565b5f6020828403121561106a57611069610b3e565b5b5f61107784828501611041565b91505092915050565b61108981610b46565b82525050565b5f6020820190506110a25f830184611080565b92915050565b6110b181610bc9565b82525050565b5f6040820190506110ca5f8301856110a8565b6110d76020830184610df5565b9392505050565b7f4e487b71000000000000000000000000000000000000000000000000000000005f52602160045260245ffd5b5f60208201905061111e5f8301846110a8565b92915050565b5f8151905061113281610c0d565b92915050565b5f6020828403121561114d5761114c610b3e565b5b5f61115a84828501611124565b91505092915050565b5f6060820190506111765f830186610f4b565b6111836020830185610f4b565b6111906040830184610f4b565b949350505050565b5f8160601b9050919050565b5f6111ae82611198565b9050919050565b5f6111bf826111a4565b9050919050565b6111d76111d282610f3a565b6111b5565b82525050565b5f6111e882846111c6565b60148201915081905092915050565b5f82825260208201905092915050565b7f746869732069732061206c6f6e672072657665727420726561736f6e207374725f8201527f696e6720776520617265206c6f6f6b696e6720666f7200000000000000000000602082015250565b5f6112616036836111f7565b915061126c82611207565b604082019050919050565b5f6020820190508181035f83015261128e81611255565b905091905056fea2646970667358221220714ac4ff5fb1f22b45bd376a9ab461931ac2327a7da4734e81c1d96427cb057564736f6c634300081e0033","linkReferences":{}},"methodIdentifiers":{"acceptOwnership()":"79ba5097","addStake(uint32)":"0396cb60","deposit()":"d0e30db0","entryPoint()":"b0d691fe","getDeposit()":"c399ec88","owner()":"8da5cb5b","pendingOwner()":"e30c3978","postOp(uint8,bytes,uint256,uint256)":"7c627b21","renounceOwnership()":"715018a6","setRevertType(uint8)":"2cd10339","transferOwnership(address)":"f2fde38b","unlockStake()":"bb9fe6bf","validatePaymasterUserOp((address,uint256,bytes,bytes,bytes32,uint256,bytes32,bytes,bytes),bytes32,uint256)":"52b7512c","withdrawStake(address)":"c23a5cea","withdrawTo(address,uint256)":"205c2878"},"id":46}