{"abi":[{"type":"constructor","inputs":[{"name":"_entryPoint","type":"address","internalType":"address"}],"stateMutability":"nonpayable"},{"type":"receive","stateMutability":"payable"},{"type":"function","name":"DOMAIN_SEPARATOR_TYPEHASH","inputs":[],"outputs":[{"name":"","type":"bytes32","internalType":"bytes32"}],"stateMutability":"view"},{"type":"function","name":"ENTRY_POINT","inputs":[],"outputs":[{"name":"","type":"address","internalType":"address"}],"stateMutability":"view"},{"type":"function","name":"ERC1271_MAGIC_VALUE","inputs":[],"outputs":[{"name":"","type":"bytes4","internalType":"bytes4"}],"stateMutability":"pure"},{"type":"function","name":"NAME","inputs":[],"outputs":[{"name":"","type":"string","internalType":"string"}],"stateMutability":"view"},{"type":"function","name":"PACKED_USEROP_TYPEHASH","inputs":[],"outputs":[{"name":"","type":"bytes32","internalType":"bytes32"}],"stateMutability":"view"},{"type":"function","name":"VERSION","inputs":[],"outputs":[{"name":"","type":"string","internalType":"string"}],"stateMutability":"view"},{"type":"function","name":"execute","inputs":[{"name":"mode","type":"uint256","internalType":"uint256"},{"name":"data","type":"bytes","internalType":"bytes"}],"outputs":[],"stateMutability":"nonpayable"},{"type":"function","name":"executeBatch","inputs":[{"name":"calls","type":"tuple[]","internalType":"struct Kernel.Call[]","components":[{"name":"target","type":"address","internalType":"address"},{"name":"value","type":"uint256","internalType":"uint256"},{"name":"data","type":"bytes","internalType":"bytes"}]}],"outputs":[],"stateMutability":"nonpayable"},{"type":"function","name":"executeTokenTransfer","inputs":[{"name":"token","type":"address","internalType":"address"},{"name":"from","type":"address","internalType":"address"},{"name":"to","type":"address","internalType":"address"},{"name":"amount","type":"uint256","internalType":"uint256"}],"outputs":[],"stateMutability":"nonpayable"},{"type":"function","name":"getNonce","inputs":[{"name":"user","type":"address","internalType":"address"}],"outputs":[{"name":"","type":"uint256","internalType":"uint256"}],"stateMutability":"view"},{"type":"function","name":"isValidSignature","inputs":[{"name":"hash","type":"bytes32","internalType":"bytes32"},{"name":"signature","type":"bytes","internalType":"bytes"}],"outputs":[{"name":"magicValue","type":"bytes4","internalType":"bytes4"}],"stateMutability":"view"},{"type":"function","name":"nonces","inputs":[{"name":"","type":"address","internalType":"address"}],"outputs":[{"name":"","type":"uint256","internalType":"uint256"}],"stateMutability":"view"},{"type":"function","name":"validateUserOp","inputs":[{"name":"userOp","type":"tuple","internalType":"struct Kernel.PackedUserOperation","components":[{"name":"sender","type":"address","internalType":"address"},{"name":"nonce","type":"uint256","internalType":"uint256"},{"name":"initCode","type":"bytes","internalType":"bytes"},{"name":"callData","type":"bytes","internalType":"bytes"},{"name":"accountGasLimits","type":"bytes32","internalType":"bytes32"},{"name":"preVerificationGas","type":"uint256","internalType":"uint256"},{"name":"gasFees","type":"bytes32","internalType":"bytes32"},{"name":"paymasterAndData","type":"bytes","internalType":"bytes"},{"name":"signature","type":"bytes","internalType":"bytes"}]},{"name":"userOpHash","type":"bytes32","internalType":"bytes32"},{"name":"missingAccountFunds","type":"uint256","internalType":"uint256"}],"outputs":[{"name":"validationData","type":"uint256","internalType":"uint256"}],"stateMutability":"nonpayable"},{"type":"event","name":"BatchExecuted","inputs":[{"name":"sender","type":"address","indexed":true,"internalType":"address"},{"name":"numCalls","type":"uint256","indexed":false,"internalType":"uint256"},{"name":"mode","type":"uint256","indexed":false,"internalType":"uint256"}],"anonymous":false},{"type":"event","name":"DebugPrefund","inputs":[{"name":"missingAccountFunds","type":"uint256","indexed":false,"internalType":"uint256"},{"name":"kernelBalance","type":"uint256","indexed":false,"internalType":"uint256"},{"name":"entryPoint","type":"address","indexed":false,"internalType":"address"}],"anonymous":false},{"type":"event","name":"GasPaymentProcessed","inputs":[{"name":"sender","type":"address","indexed":true,"internalType":"address"},{"name":"token","type":"address","indexed":true,"internalType":"address"},{"name":"amount","type":"uint256","indexed":false,"internalType":"uint256"},{"name":"payee","type":"address","indexed":true,"internalType":"address"}],"anonymous":false},{"type":"event","name":"UserOperationExecuted","inputs":[{"name":"sender","type":"address","indexed":true,"internalType":"address"},{"name":"nonce","type":"uint256","indexed":false,"internalType":"uint256"},{"name":"success","type":"bool","indexed":false,"internalType":"bool"}],"anonymous":false},{"type":"error","name":"CallFailed","inputs":[{"name":"callIndex","type":"uint256","internalType":"uint256"}]},{"type":"error","name":"InvalidMode","inputs":[]},{"type":"error","name":"InvalidNonce","inputs":[]},{"type":"error","name":"InvalidPaymasterData","inputs":[]},{"type":"error","name":"InvalidSignature","inputs":[]},{"type":"error","name":"OnlyEntryPoint","inputs":[]},{"type":"error","name":"TooManyCalls","inputs":[{"name":"count","type":"uint256","internalType":"uint256"},{"name":"max","type":"uint256","internalType":"uint256"}]},{"type":"error","name":"TransferFailed","inputs":[]}],"bytecode":{"object":"0x60a060405234801561000f575f5ffd5b506040516132e93803806132e9833981810160405281019061003191906101e4565b5f73ffffffffffffffffffffffffffffffffffffffff168173ffffffffffffffffffffffffffffffffffffffff160361009f576040517f08c379a000000000000000000000000000000000000000000000000000000000815260040161009690610269565b60405180910390fd5b8073ffffffffffffffffffffffffffffffffffffffff1660808173ffffffffffffffffffffffffffffffffffffffff16815250506100e16100ed60201b60201c565b60018190555050610317565b5f7f8b73c3c69bb8fe3d512ecc4cf759cc79239f7b179b0ffacaa9a75d522b39400f7f21c3353240200136d47160000d7748a9a64b0e25f94bb6b3a5692119c09568c65f1b7fc89efdaa54c0f20c7adf612882df0950f5a951637e0307cdcb4c672f298b8bc65f1b463060405160200161016b9594939291906102c6565b60405160208183030381529060405280519060200120905090565b5f5ffd5b5f73ffffffffffffffffffffffffffffffffffffffff82169050919050565b5f6101b38261018a565b9050919050565b6101c3816101a9565b81146101cd575f5ffd5b50565b5f815190506101de816101ba565b92915050565b5f602082840312156101f9576101f8610186565b5b5f610206848285016101d0565b91505092915050565b5f82825260208201905092915050565b7f496e76616c696420456e747279506f696e7400000000000000000000000000005f82015250565b5f61025360128361020f565b915061025e8261021f565b602082019050919050565b5f6020820190508181035f83015261028081610247565b9050919050565b5f819050919050565b61029981610287565b82525050565b5f819050919050565b6102b18161029f565b82525050565b6102c0816101a9565b82525050565b5f60a0820190506102d95f830188610290565b6102e66020830187610290565b6102f36040830186610290565b61030060608301856102a8565b61030d60808301846102b7565b9695505050505050565b608051612f896103605f395f81816104060152818161078d015281816107d60152818161089501528181610d6b01528181610d9101528181610ef3015261109b0152612f895ff3fe6080604052600436106100c5575f3560e01c806359efcb151161007e57806394430fa51161005857806394430fa51461028c578063a3f4df7e146102b6578063bc769605146102e0578063ffa1ad741461030a576100cc565b806359efcb151461020057806369d76bed146102285780637ecebe0014610250576100cc565b80631626ba7e146100d057806319822f7c1461010c5780631db61b54146101485780632d0335ab1461017257806334fcd5be146101ae57806351e80a4c146101d6576100cc565b366100cc57005b5f5ffd5b3480156100db575f5ffd5b506100f660048036038101906100f19190611ccd565b610334565b6040516101039190611d64565b60405180910390f35b348015610117575f5ffd5b50610132600480360381019061012d9190611dd3565b610403565b60405161013f9190611e4e565b60405180910390f35b348015610153575f5ffd5b5061015c610c88565b6040516101699190611e76565b60405180910390f35b34801561017d575f5ffd5b5061019860048036038101906101939190611ee9565b610cac565b6040516101a59190611e4e565b60405180910390f35b3480156101b9575f5ffd5b506101d460048036038101906101cf9190611f69565b610cf1565b005b3480156101e1575f5ffd5b506101ea610ee3565b6040516101f79190611d64565b60405180910390f35b34801561020b575f5ffd5b5061022660048036038101906102219190611fb4565b610ef1565b005b348015610233575f5ffd5b5061024e60048036038101906102499190612011565b611001565b005b34801561025b575f5ffd5b5061027660048036038101906102719190611ee9565b611085565b6040516102839190611e4e565b60405180910390f35b348015610297575f5ffd5b506102a0611099565b6040516102ad9190612084565b60405180910390f35b3480156102c1575f5ffd5b506102ca6110bd565b6040516102d7919061210d565b60405180910390f35b3480156102eb575f5ffd5b506102f46110f6565b6040516103019190611e76565b60405180910390f35b348015610315575f5ffd5b5061031e61111a565b60405161032b919061210d565b60405180910390f35b5f6041838390501461034b575f60e01b90506103fc565b5f6103998585858080601f0160208091040260200160405190810160405280939291908181526020018383808284375f81840152601f19601f82011690508083019250505050505050611153565b90505f5f5f8373ffffffffffffffffffffffffffffffffffffffff1673ffffffffffffffffffffffffffffffffffffffff1681526020019081526020015f205490505f81106103f357631626ba7e60e01b925050506103fc565b5f60e01b925050505b9392505050565b5f7f000000000000000000000000000000000000000000000000000000000000000073ffffffffffffffffffffffffffffffffffffffff163373ffffffffffffffffffffffffffffffffffffffff1614610489576040517fbd07c55100000000000000000000000000000000000000000000000000000000815260040160405180910390fd5b5f6104e6848680610100019061049f9190612139565b8080601f0160208091040260200160405190810160405280939291908181526020018383808284375f81840152601f19601f82011690508083019250505050505050611153565b9050845f0160208101906104fa9190611ee9565b73ffffffffffffffffffffffffffffffffffffffff168173ffffffffffffffffffffffffffffffffffffffff1614610567576040517f08c379a000000000000000000000000000000000000000000000000000000000815260040161055e906121e5565b60405180910390fd5b5f856020013590505f5f875f0160208101906105839190611ee9565b73ffffffffffffffffffffffffffffffffffffffff1673ffffffffffffffffffffffffffffffffffffffff1681526020019081526020015f205481146105f5576040517f756688fe00000000000000000000000000000000000000000000000000000000815260040160405180910390fd5b5f5f875f0160208101906106099190611ee9565b73ffffffffffffffffffffffffffffffffffffffff1673ffffffffffffffffffffffffffffffffffffffff1681526020019081526020015f205f81548092919061065290612230565b91905055506106956040518060400160405280601981526020017f3d3d3d20496e2076616c6964617465557365724f70203d3d3d000000000000008152506112c2565b6106d46040518060400160405280600b81526020017f6d73672e73656e6465723a0000000000000000000000000000000000000000008152503361135b565b6107136040518060400160405280600e81526020017f616464726573732874686973293a0000000000000000000000000000000000008152503061135b565b6107526040518060400160405280601f81526020017f4b65726e656c2062616c616e6365202861646472657373287468697329293a00815250476113f7565b6107b16040518060400160405280601581526020017f454e5452595f504f494e5420636f6e7374616e743a00000000000000000000008152507f000000000000000000000000000000000000000000000000000000000000000061135b565b7fac53d7d564276766b10aa8c7056f0e7e8f1f34e04dfa6e4a78a185c9d83b58b284477f000000000000000000000000000000000000000000000000000000000000000060405161080493929190612277565b60405180910390a15f84111561099a576108536040518060400160405280601e81526020017f4b65726e656c2062616c616e6365206265666f72652070726566756e643a0000815250476113f7565b6108926040518060400160405280601681526020017f4d697373696e67206163636f756e742066756e64733a00000000000000000000815250856113f7565b5f7f000000000000000000000000000000000000000000000000000000000000000073ffffffffffffffffffffffffffffffffffffffff16856040516108d7906122d9565b5f6040518083038185875af1925050503d805f8114610911576040519150601f19603f3d011682016040523d82523d5f602084013e610916565b606091505b505090508061095a576040517f08c379a000000000000000000000000000000000000000000000000000000000815260040161095190612337565b60405180910390fd5b6109986040518060400160405280601981526020017f50726566756e642070616964207375636365737366756c6c79000000000000008152506112c2565b505b5f841180156109bb57506014868060e001906109b69190612139565b905010155b15610c7c575f5f6034888060e001906109d49190612139565b905010158015610a3357505f60f81b888060e001906109f39190612139565b5f818110610a0457610a03612355565b5b9050013560f81c60f81b7effffffffffffffffffffffffffffffffffffffffffffffffffffffffffffff191614155b8015610a8f5750602060f81b888060e00190610a4f9190612139565b5f818110610a6057610a5f612355565b5b9050013560f81c60f81b7effffffffffffffffffffffffffffffffffffffffffffffffffffffffffffff191614155b15610afd575f888060e00190610aa59190612139565b8080601f0160208091040260200160405190810160405280939291908181526020018383808284375f81840152601f19601f820116905080830192505050505050509050601481015192506034810151915050610b23565b878060e00190610b0d9190612139565b810190610b1a91906123bd565b80925081935050505b5f3290508273ffffffffffffffffffffffffffffffffffffffff166323b872dd8a5f016020810190610b559190611ee9565b83856040518463ffffffff1660e01b8152600401610b75939291906123fb565b6020604051808303815f875af1158015610b91573d5f5f3e3d5ffd5b505050506040513d601f19601f82011682018060405250810190610bb59190612465565b610beb576040517f90b8ec1800000000000000000000000000000000000000000000000000000000815260040160405180910390fd5b8073ffffffffffffffffffffffffffffffffffffffff168373ffffffffffffffffffffffffffffffffffffffff168a5f016020810190610c2b9190611ee9565b73ffffffffffffffffffffffffffffffffffffffff167f1850f7b83ced4bb31222572c84d7410d9e7b600e7b9c3d106629c04a498075c785604051610c709190611e4e565b60405180910390a45050505b5f925050509392505050565b7f8b73c3c69bb8fe3d512ecc4cf759cc79239f7b179b0ffacaa9a75d522b39400f81565b5f5f5f8373ffffffffffffffffffffffffffffffffffffffff1673ffffffffffffffffffffffffffffffffffffffff1681526020019081526020015f20549050919050565b610d306040518060400160405280601781526020017f6578656375746542617463682063616c6c65642062793a0000000000000000008152503361135b565b610d8f6040518060400160405280601581526020017f457870656374656420656e74727920706f696e743a00000000000000000000008152507f000000000000000000000000000000000000000000000000000000000000000061135b565b7f000000000000000000000000000000000000000000000000000000000000000073ffffffffffffffffffffffffffffffffffffffff163373ffffffffffffffffffffffffffffffffffffffff1614610e5257610e206040518060400160405280601681526020017f5245564552543a204f6e6c79456e747279506f696e74000000000000000000008152506112c2565b6040517fbd07c55100000000000000000000000000000000000000000000000000000000815260040160405180910390fd5b610eca6040518060400160405280601a81526020017f43616c6c696e67205f6578656375746542617463682077697468000000000000815250838390506040518060400160405280600581526020017f63616c6c73000000000000000000000000000000000000000000000000000000815250611493565b610edf828290610eda91906126ee565b611532565b5050565b5f631626ba7e60e01b905090565b7f000000000000000000000000000000000000000000000000000000000000000073ffffffffffffffffffffffffffffffffffffffff163373ffffffffffffffffffffffffffffffffffffffff1614610f76576040517fbd07c55100000000000000000000000000000000000000000000000000000000815260040160405180910390fd5b60018303610f9f575f8282810190610f8e919061272f565b9050610f9981611532565b50610ffc565b60038303610fc9575f8282810190610fb79190612854565b9050610fc3815f611834565b50610ffb565b6040517fa0042b1700000000000000000000000000000000000000000000000000000000815260040160405180910390fd5b5b505050565b8373ffffffffffffffffffffffffffffffffffffffff166323b872dd8484846040518463ffffffff1660e01b815260040161103e939291906123fb565b6020604051808303815f875af115801561105a573d5f5f3e3d5ffd5b505050506040513d601f19601f8201168201806040525081019061107e9190612465565b5050505050565b5f602052805f5260405f205f915090505481565b7f000000000000000000000000000000000000000000000000000000000000000081565b6040518060400160405280600681526020017f4b65726e656c000000000000000000000000000000000000000000000000000081525081565b7f29a0bca4af4be3421398da00295e58e6d7de38cb492214754cb6a47507dd6f8e81565b6040518060400160405280600181526020017f310000000000000000000000000000000000000000000000000000000000000081525081565b5f6041825114611198576040517f08c379a000000000000000000000000000000000000000000000000000000000815260040161118f906128e5565b60405180910390fd5b5f5f5f602085015192506040850151915060608501515f1a90507f7fffffffffffffffffffffffffffffff5d576e7357a4501ddfe92f46681b20a0825f1c1115611217576040517f08c379a000000000000000000000000000000000000000000000000000000000815260040161120e9061294d565b60405180910390fd5b601b8160ff16148061122c5750601c8160ff16145b61126b576040517f08c379a0000000000000000000000000000000000000000000000000000000008152600401611262906129b5565b60405180910390fd5b6001868285856040515f815260200160405260405161128d94939291906129ee565b6020604051602081039080840390855afa1580156112ad573d5f5f3e3d5ffd5b50505060206040510351935050505092915050565b611358816040516024016112d6919061210d565b6040516020818303038152906040527f41304fac000000000000000000000000000000000000000000000000000000007bffffffffffffffffffffffffffffffffffffffffffffffffffffffff19166020820180517bffffffffffffffffffffffffffffffffffffffffffffffffffffffff8381831617835250505050611b3e565b50565b6113f38282604051602401611371929190612a31565b6040516020818303038152906040527f319af333000000000000000000000000000000000000000000000000000000007bffffffffffffffffffffffffffffffffffffffffffffffffffffffff19166020820180517bffffffffffffffffffffffffffffffffffffffffffffffffffffffff8381831617835250505050611b3e565b5050565b61148f828260405160240161140d929190612a5f565b6040516020818303038152906040527fb60e72cc000000000000000000000000000000000000000000000000000000007bffffffffffffffffffffffffffffffffffffffffffffffffffffffff19166020820180517bffffffffffffffffffffffffffffffffffffffffffffffffffffffff8381831617835250505050611b3e565b5050565b61152d8383836040516024016114ab93929190612a8d565b6040516020818303038152906040527f5970e089000000000000000000000000000000000000000000000000000000007bffffffffffffffffffffffffffffffffffffffffffffffffffffffff19166020820180517bffffffffffffffffffffffffffffffffffffffffffffffffffffffff8381831617835250505050611b3e565b505050565b5f8151905060098111158160099091611582576040517f3999d3be000000000000000000000000000000000000000000000000000000008152600401611579929190612ad0565b60405180910390fd5b50506115c36040518060400160405280601881526020017f5f6578656375746542617463683a206e756d43616c6c733d0000000000000000815250826113f7565b6116026040518060400160405280601681526020017f4b65726e656c2062616c616e6365206265666f72653d00000000000000000000815250476113f7565b5f5f90505b818110156117de5761164d6040518060400160405280601881526020017f457865637574696e672063616c6c20746f2074617267657400000000000000008152506112c2565b5f83828151811061166157611660612355565b5b60200260200101515f015173ffffffffffffffffffffffffffffffffffffffff1684838151811061169557611694612355565b5b6020026020010151602001518584815181106116b4576116b3612355565b5b6020026020010151604001516040516116cd9190612b31565b5f6040518083038185875af1925050503d805f8114611707576040519150601f19603f3d011682016040523d82523d5f602084013e61170c565b606091505b5050905061174f6040518060400160405280600d81526020017f43616c6c20737563636573733d0000000000000000000000000000000000000081525082611b58565b61178e6040518060400160405280601581526020017f4b65726e656c2062616c616e63652061667465723d0000000000000000000000815250476113f7565b806117d057816040517f3f9a3b480000000000000000000000000000000000000000000000000000000081526004016117c79190611e4e565b60405180910390fd5b508080600101915050611607565b503273ffffffffffffffffffffffffffffffffffffffff167f41b62e728bad24c9793175686912a5d3533ba7b6e0ab65afb69d36a7230354d2826001604051611828929190612ad0565b60405180910390a25050565b600a8110611877576040517f08c379a000000000000000000000000000000000000000000000000000000000815260040161186e90612b91565b60405180910390fd5b5f5f90505f5f90505b8351811015611ae7575f602085013560f81c905060018103611a51575f8583815181106118b0576118af612355565b5b60200260200101518060200190518101906118cb9190612d75565b90508051846118da9190612dbc565b935060098411158460099091611927576040517f3999d3be00000000000000000000000000000000000000000000000000000000815260040161191e929190612ad0565b60405180910390fd5b50505f5f90505b8151811015611a4a575f82828151811061194b5761194a612355565b5b60200260200101515f015173ffffffffffffffffffffffffffffffffffffffff1683838151811061197f5761197e612355565b5b60200260200101516020015184848151811061199e5761199d612355565b5b6020026020010151604001516040516119b79190612b31565b5f6040518083038185875af1925050503d805f81146119f1576040519150601f19603f3d011682016040523d82523d5f602084013e6119f6565b606091505b5050905080611a3c57846040517f3f9a3b48000000000000000000000000000000000000000000000000000000008152600401611a339190611e4e565b60405180910390fd5b50808060010191505061192e565b5050611ad9565b60038103611aa6575f858381518110611a6d57611a6c612355565b5b6020026020010151806020019051810190611a889190612ea2565b9050611aa081600187611a9b9190612dbc565b611834565b50611ad8565b6040517fa0042b1700000000000000000000000000000000000000000000000000000000815260040160405180910390fd5b5b508080600101915050611880565b503273ffffffffffffffffffffffffffffffffffffffff167f41b62e728bad24c9793175686912a5d3533ba7b6e0ab65afb69d36a7230354d2826003604051611b31929190612ad0565b60405180910390a2505050565b611b5581611b4d611bf4611c13565b63ffffffff16565b50565b611bf08282604051602401611b6e929190612ef8565b6040516020818303038152906040527fc3b55635000000000000000000000000000000000000000000000000000000007bffffffffffffffffffffffffffffffffffffffffffffffffffffffff19166020820180517bffffffffffffffffffffffffffffffffffffffffffffffffffffffff8381831617835250505050611b3e565b5050565b5f6a636f6e736f6c652e6c6f6790505f5f835160208501845afa505050565b611c1e819050919050565b611c26612f26565b565b5f604051905090565b5f5ffd5b5f5ffd5b5f819050919050565b611c4b81611c39565b8114611c55575f5ffd5b50565b5f81359050611c6681611c42565b92915050565b5f5ffd5b5f5ffd5b5f5ffd5b5f5f83601f840112611c8d57611c8c611c6c565b5b8235905067ffffffffffffffff811115611caa57611ca9611c70565b5b602083019150836001820283011115611cc657611cc5611c74565b5b9250929050565b5f5f5f60408486031215611ce457611ce3611c31565b5b5f611cf186828701611c58565b935050602084013567ffffffffffffffff811115611d1257611d11611c35565b5b611d1e86828701611c78565b92509250509250925092565b5f7fffffffff0000000000000000000000000000000000000000000000000000000082169050919050565b611d5e81611d2a565b82525050565b5f602082019050611d775f830184611d55565b92915050565b5f5ffd5b5f6101208284031215611d9757611d96611d7d565b5b81905092915050565b5f819050919050565b611db281611da0565b8114611dbc575f5ffd5b50565b5f81359050611dcd81611da9565b92915050565b5f5f5f60608486031215611dea57611de9611c31565b5b5f84013567ffffffffffffffff811115611e0757611e06611c35565b5b611e1386828701611d81565b9350506020611e2486828701611c58565b9250506040611e3586828701611dbf565b9150509250925092565b611e4881611da0565b82525050565b5f602082019050611e615f830184611e3f565b92915050565b611e7081611c39565b82525050565b5f602082019050611e895f830184611e67565b92915050565b5f73ffffffffffffffffffffffffffffffffffffffff82169050919050565b5f611eb882611e8f565b9050919050565b611ec881611eae565b8114611ed2575f5ffd5b50565b5f81359050611ee381611ebf565b92915050565b5f60208284031215611efe57611efd611c31565b5b5f611f0b84828501611ed5565b91505092915050565b5f5f83601f840112611f2957611f28611c6c565b5b8235905067ffffffffffffffff811115611f4657611f45611c70565b5b602083019150836020820283011115611f6257611f61611c74565b5b9250929050565b5f5f60208385031215611f7f57611f7e611c31565b5b5f83013567ffffffffffffffff811115611f9c57611f9b611c35565b5b611fa885828601611f14565b92509250509250929050565b5f5f5f60408486031215611fcb57611fca611c31565b5b5f611fd886828701611dbf565b935050602084013567ffffffffffffffff811115611ff957611ff8611c35565b5b61200586828701611c78565b92509250509250925092565b5f5f5f5f6080858703121561202957612028611c31565b5b5f61203687828801611ed5565b945050602061204787828801611ed5565b935050604061205887828801611ed5565b925050606061206987828801611dbf565b91505092959194509250565b61207e81611eae565b82525050565b5f6020820190506120975f830184612075565b92915050565b5f81519050919050565b5f82825260208201905092915050565b8281835e5f83830152505050565b5f601f19601f8301169050919050565b5f6120df8261209d565b6120e981856120a7565b93506120f98185602086016120b7565b612102816120c5565b840191505092915050565b5f6020820190508181035f83015261212581846120d5565b905092915050565b5f5ffd5b5f5ffd5b5f5ffd5b5f5f833560016020038436030381126121555761215461212d565b5b80840192508235915067ffffffffffffffff82111561217757612176612131565b5b60208301925060018202360383131561219357612192612135565b5b509250929050565b7f496e76616c6964207369676e61747572652066726f6d207369676e65720000005f82015250565b5f6121cf601d836120a7565b91506121da8261219b565b602082019050919050565b5f6020820190508181035f8301526121fc816121c3565b9050919050565b7f4e487b71000000000000000000000000000000000000000000000000000000005f52601160045260245ffd5b5f61223a82611da0565b91507fffffffffffffffffffffffffffffffffffffffffffffffffffffffffffffffff820361226c5761226b612203565b5b600182019050919050565b5f60608201905061228a5f830186611e3f565b6122976020830185611e3f565b6122a46040830184612075565b949350505050565b5f81905092915050565b50565b5f6122c45f836122ac565b91506122cf826122b6565b5f82019050919050565b5f6122e3826122b9565b9150819050919050565b7f4661696c656420746f207061792070726566756e6400000000000000000000005f82015250565b5f6123216015836120a7565b915061232c826122ed565b602082019050919050565b5f6020820190508181035f83015261234e81612315565b9050919050565b7f4e487b71000000000000000000000000000000000000000000000000000000005f52603260045260245ffd5b5f61238c82611e8f565b9050919050565b61239c81612382565b81146123a6575f5ffd5b50565b5f813590506123b781612393565b92915050565b5f5f604083850312156123d3576123d2611c31565b5b5f6123e0858286016123a9565b92505060206123f185828601611dbf565b9150509250929050565b5f60608201905061240e5f830186612075565b61241b6020830185612075565b6124286040830184611e3f565b949350505050565b5f8115159050919050565b61244481612430565b811461244e575f5ffd5b50565b5f8151905061245f8161243b565b92915050565b5f6020828403121561247a57612479611c31565b5b5f61248784828501612451565b91505092915050565b7f4e487b71000000000000000000000000000000000000000000000000000000005f52604160045260245ffd5b6124c6826120c5565b810181811067ffffffffffffffff821117156124e5576124e4612490565b5b80604052505050565b5f6124f7611c28565b905061250382826124bd565b919050565b5f67ffffffffffffffff82111561252257612521612490565b5b602082029050602081019050919050565b5f5ffd5b5f5ffd5b5f5ffd5b5f67ffffffffffffffff82111561255957612558612490565b5b612562826120c5565b9050602081019050919050565b828183375f83830152505050565b5f61258f61258a8461253f565b6124ee565b9050828152602081018484840111156125ab576125aa61253b565b5b6125b684828561256f565b509392505050565b5f82601f8301126125d2576125d1611c6c565b5b81356125e284826020860161257d565b91505092915050565b5f60608284031215612600576125ff612533565b5b61260a60606124ee565b90505f61261984828501611ed5565b5f83015250602061262c84828501611dbf565b602083015250604082013567ffffffffffffffff8111156126505761264f612537565b5b61265c848285016125be565b60408301525092915050565b5f61267a61267584612508565b6124ee565b9050808382526020820190506020840283018581111561269d5761269c611c74565b5b835b818110156126e457803567ffffffffffffffff8111156126c2576126c1611c6c565b5b8086016126cf89826125eb565b8552602085019450505060208101905061269f565b5050509392505050565b5f6126fa368484612668565b905092915050565b5f82601f83011261271657612715611c6c565b5b8135612726848260208601612668565b91505092915050565b5f6020828403121561274457612743611c31565b5b5f82013567ffffffffffffffff81111561276157612760611c35565b5b61276d84828501612702565b91505092915050565b5f67ffffffffffffffff8211156127905761278f612490565b5b602082029050602081019050919050565b5f6127b36127ae84612776565b6124ee565b905080838252602082019050602084028301858111156127d6576127d5611c74565b5b835b8181101561281d57803567ffffffffffffffff8111156127fb576127fa611c6c565b5b80860161280889826125be565b855260208501945050506020810190506127d8565b5050509392505050565b5f82601f83011261283b5761283a611c6c565b5b813561284b8482602086016127a1565b91505092915050565b5f6020828403121561286957612868611c31565b5b5f82013567ffffffffffffffff81111561288657612885611c35565b5b61289284828501612827565b91505092915050565b7f496e76616c6964207369676e6174757265206c656e67746800000000000000005f82015250565b5f6128cf6018836120a7565b91506128da8261289b565b602082019050919050565b5f6020820190508181035f8301526128fc816128c3565b9050919050565b7f496e76616c6964207369676e6174757265202773272076616c756500000000005f82015250565b5f612937601b836120a7565b915061294282612903565b602082019050919050565b5f6020820190508181035f8301526129648161292b565b9050919050565b7f496e76616c6964207369676e6174757265202776272076616c756500000000005f82015250565b5f61299f601b836120a7565b91506129aa8261296b565b602082019050919050565b5f6020820190508181035f8301526129cc81612993565b9050919050565b5f60ff82169050919050565b6129e8816129d3565b82525050565b5f608082019050612a015f830187611e67565b612a0e60208301866129df565b612a1b6040830185611e67565b612a286060830184611e67565b95945050505050565b5f6040820190508181035f830152612a4981856120d5565b9050612a586020830184612075565b9392505050565b5f6040820190508181035f830152612a7781856120d5565b9050612a866020830184611e3f565b9392505050565b5f6060820190508181035f830152612aa581866120d5565b9050612ab46020830185611e3f565b8181036040830152612ac681846120d5565b9050949350505050565b5f604082019050612ae35f830185611e3f565b612af06020830184611e3f565b9392505050565b5f81519050919050565b5f612b0b82612af7565b612b1581856122ac565b9350612b258185602086016120b7565b80840191505092915050565b5f612b3c8284612b01565b915081905092915050565b7f546f6f20646565700000000000000000000000000000000000000000000000005f82015250565b5f612b7b6008836120a7565b9150612b8682612b47565b602082019050919050565b5f6020820190508181035f830152612ba881612b6f565b9050919050565b5f81519050612bbd81611ebf565b92915050565b5f81519050612bd181611da9565b92915050565b5f612be9612be48461253f565b6124ee565b905082815260208101848484011115612c0557612c0461253b565b5b612c108482856120b7565b509392505050565b5f82601f830112612c2c57612c2b611c6c565b5b8151612c3c848260208601612bd7565b91505092915050565b5f60608284031215612c5a57612c59612533565b5b612c6460606124ee565b90505f612c7384828501612baf565b5f830152506020612c8684828501612bc3565b602083015250604082015167ffffffffffffffff811115612caa57612ca9612537565b5b612cb684828501612c18565b60408301525092915050565b5f612cd4612ccf84612508565b6124ee565b90508083825260208201905060208402830185811115612cf757612cf6611c74565b5b835b81811015612d3e57805167ffffffffffffffff811115612d1c57612d1b611c6c565b5b808601612d298982612c45565b85526020850194505050602081019050612cf9565b5050509392505050565b5f82601f830112612d5c57612d5b611c6c565b5b8151612d6c848260208601612cc2565b91505092915050565b5f60208284031215612d8a57612d89611c31565b5b5f82015167ffffffffffffffff811115612da757612da6611c35565b5b612db384828501612d48565b91505092915050565b5f612dc682611da0565b9150612dd183611da0565b9250828201905080821115612de957612de8612203565b5b92915050565b5f612e01612dfc84612776565b6124ee565b90508083825260208201905060208402830185811115612e2457612e23611c74565b5b835b81811015612e6b57805167ffffffffffffffff811115612e4957612e48611c6c565b5b808601612e568982612c18565b85526020850194505050602081019050612e26565b5050509392505050565b5f82601f830112612e8957612e88611c6c565b5b8151612e99848260208601612def565b91505092915050565b5f60208284031215612eb757612eb6611c31565b5b5f82015167ffffffffffffffff811115612ed457612ed3611c35565b5b612ee084828501612e75565b91505092915050565b612ef281612430565b82525050565b5f6040820190508181035f830152612f1081856120d5565b9050612f1f6020830184612ee9565b9392505050565b7f4e487b71000000000000000000000000000000000000000000000000000000005f52605160045260245ffdfea2646970667358221220269b5434acc8e0a9ca9ef4a63ba3fe321074fbd72166c68b209772722392278a64736f6c634300081e0033","linkReferences":{}},"methodIdentifiers":{"DOMAIN_SEPARATOR_TYPEHASH()":"1db61b54","ENTRY_POINT()":"94430fa5","ERC1271_MAGIC_VALUE()":"51e80a4c","NAME()":"a3f4df7e","PACKED_USEROP_TYPEHASH()":"bc769605","VERSION()":"ffa1ad74","execute(uint256,bytes)":"59efcb15","executeBatch((address,uint256,bytes)[])":"34fcd5be","executeTokenTransfer(address,address,address,uint256)":"69d76bed","getNonce(address)":"2d0335ab","isValidSignature(bytes32,bytes)":"1626ba7e","nonces(address)":"7ecebe00","validateUserOp((address,uint256,bytes,bytes,bytes32,uint256,bytes32,bytes,bytes),bytes32,uint256)":"19822f7c"},"id":42}