{"abi":[{"type":"constructor","inputs":[],"stateMutability":"nonpayable"},{"type":"function","name":"GOLD","inputs":[],"outputs":[{"name":"","type":"uint256","internalType":"uint256"}],"stateMutability":"view"},{"type":"function","name":"SHIELD","inputs":[],"outputs":[{"name":"","type":"uint256","internalType":"uint256"}],"stateMutability":"view"},{"type":"function","name":"SILVER","inputs":[],"outputs":[{"name":"","type":"uint256","internalType":"uint256"}],"stateMutability":"view"},{"type":"function","name":"SWORD","inputs":[],"outputs":[{"name":"","type":"uint256","internalType":"uint256"}],"stateMutability":"view"},{"type":"function","name":"THORS_HAMMER","inputs":[],"outputs":[{"name":"","type":"uint256","internalType":"uint256"}],"stateMutability":"view"},{"type":"function","name":"allowance","inputs":[{"name":"owner","type":"address","internalType":"address"},{"name":"spender","type":"address","internalType":"address"},{"name":"id","type":"uint256","internalType":"uint256"}],"outputs":[{"name":"","type":"uint256","internalType":"uint256"}],"stateMutability":"view"},{"type":"function","name":"approve","inputs":[{"name":"spender","type":"address","internalType":"address"},{"name":"id","type":"uint256","internalType":"uint256"},{"name":"amount","type":"uint256","internalType":"uint256"}],"outputs":[{"name":"","type":"bool","internalType":"bool"}],"stateMutability":"nonpayable"},{"type":"function","name":"balanceOf","inputs":[{"name":"owner","type":"address","internalType":"address"},{"name":"id","type":"uint256","internalType":"uint256"}],"outputs":[{"name":"","type":"uint256","internalType":"uint256"}],"stateMutability":"view"},{"type":"function","name":"decimals","inputs":[{"name":"id","type":"uint256","internalType":"uint256"}],"outputs":[{"name":"","type":"uint8","internalType":"uint8"}],"stateMutability":"view"},{"type":"function","name":"isOperator","inputs":[{"name":"owner","type":"address","internalType":"address"},{"name":"spender","type":"address","internalType":"address"}],"outputs":[{"name":"","type":"bool","internalType":"bool"}],"stateMutability":"view"},{"type":"function","name":"name","inputs":[{"name":"id","type":"uint256","internalType":"uint256"}],"outputs":[{"name":"","type":"string","internalType":"string"}],"stateMutability":"view"},{"type":"function","name":"setOperator","inputs":[{"name":"spender","type":"address","internalType":"address"},{"name":"approved","type":"bool","internalType":"bool"}],"outputs":[{"name":"","type":"bool","internalType":"bool"}],"stateMutability":"nonpayable"},{"type":"function","name":"supportsInterface","inputs":[{"name":"interfaceId","type":"bytes4","internalType":"bytes4"}],"outputs":[{"name":"","type":"bool","internalType":"bool"}],"stateMutability":"view"},{"type":"function","name":"symbol","inputs":[{"name":"id","type":"uint256","internalType":"uint256"}],"outputs":[{"name":"","type":"string","internalType":"string"}],"stateMutability":"view"},{"type":"function","name":"transfer","inputs":[{"name":"receiver","type":"address","internalType":"address"},{"name":"id","type":"uint256","internalType":"uint256"},{"name":"amount","type":"uint256","internalType":"uint256"}],"outputs":[{"name":"","type":"bool","internalType":"bool"}],"stateMutability":"nonpayable"},{"type":"function","name":"transferFrom","inputs":[{"name":"sender","type":"address","internalType":"address"},{"name":"receiver","type":"address","internalType":"address"},{"name":"id","type":"uint256","internalType":"uint256"},{"name":"amount","type":"uint256","internalType":"uint256"}],"outputs":[{"name":"","type":"bool","internalType":"bool"}],"stateMutability":"nonpayable"},{"type":"event","name":"Approval","inputs":[{"name":"owner","type":"address","indexed":true,"internalType":"address"},{"name":"spender","type":"address","indexed":true,"internalType":"address"},{"name":"id","type":"uint256","indexed":true,"internalType":"uint256"},{"name":"amount","type":"uint256","indexed":false,"internalType":"uint256"}],"anonymous":false},{"type":"event","name":"ERC6909DecimalsUpdated","inputs":[{"name":"id","type":"uint256","indexed":true,"internalType":"uint256"},{"name":"newDecimals","type":"uint8","indexed":false,"internalType":"uint8"}],"anonymous":false},{"type":"event","name":"ERC6909NameUpdated","inputs":[{"name":"id","type":"uint256","indexed":true,"internalType":"uint256"},{"name":"newName","type":"string","indexed":false,"internalType":"string"}],"anonymous":false},{"type":"event","name":"ERC6909SymbolUpdated","inputs":[{"name":"id","type":"uint256","indexed":true,"internalType":"uint256"},{"name":"newSymbol","type":"string","indexed":false,"internalType":"string"}],"anonymous":false},{"type":"event","name":"OperatorSet","inputs":[{"name":"owner","type":"address","indexed":true,"internalType":"address"},{"name":"spender","type":"address","indexed":true,"internalType":"address"},{"name":"approved","type":"bool","indexed":false,"internalType":"bool"}],"anonymous":false},{"type":"event","name":"Transfer","inputs":[{"name":"caller","type":"address","indexed":false,"internalType":"address"},{"name":"sender","type":"address","indexed":true,"internalType":"address"},{"name":"receiver","type":"address","indexed":true,"internalType":"address"},{"name":"id","type":"uint256","indexed":true,"internalType":"uint256"},{"name":"amount","type":"uint256","indexed":false,"internalType":"uint256"}],"anonymous":false},{"type":"error","name":"ERC6909InsufficientAllowance","inputs":[{"name":"spender","type":"address","internalType":"address"},{"name":"allowance","type":"uint256","internalType":"uint256"},{"name":"needed","type":"uint256","internalType":"uint256"},{"name":"id","type":"uint256","internalType":"uint256"}]},{"type":"error","name":"ERC6909InsufficientBalance","inputs":[{"name":"sender","type":"address","internalType":"address"},{"name":"balance","type":"uint256","internalType":"uint256"},{"name":"needed","type":"uint256","internalType":"uint256"},{"name":"id","type":"uint256","internalType":"uint256"}]},{"type":"error","name":"ERC6909InvalidApprover","inputs":[{"name":"approver","type":"address","internalType":"address"}]},{"type":"error","name":"ERC6909InvalidReceiver","inputs":[{"name":"receiver","type":"address","internalType":"address"}]},{"type":"error","name":"ERC6909InvalidSender","inputs":[{"name":"sender","type":"address","internalType":"address"}]},{"type":"error","name":"ERC6909InvalidSpender","inputs":[{"name":"spender","type":"address","internalType":"address"}]}],"bytecode":{"object":"0x608060405234801561000f575f5ffd5b506100215f60126100e460201b60201c565b610033600160126100e460201b60201c565b610045600360096100e460201b60201c565b610057600460096100e460201b60201c565b610070335f670de0b6b3a764000061014c60201b60201c565b6100a03360017d90e40fbeea1d3a4abc8955e946fe31cdcf66f634e100000000000000000061014c60201b60201c565b6100b3336002600161014c60201b60201c565b6100c9336003633b9aca0061014c60201b60201c565b6100df336004633b9aca0061014c60201b60201c565b61057e565b8060035f8481526020019081526020015f206002015f6101000a81548160ff021916908360ff160217905550817fc7435874568017e6134c851002a405d733521c0f4c63f9f25f3a32a4d595b72982604051610140919061042b565b60405180910390a25050565b5f73ffffffffffffffffffffffffffffffffffffffff168373ffffffffffffffffffffffffffffffffffffffff16036101bc575f6040517fb8bbd6100000000000000000000000000000000000000000000000000000000081526004016101b39190610483565b60405180910390fd5b6101ce5f8484846101d360201b60201c565b505050565b5f6101e261040960201b60201c565b90505f73ffffffffffffffffffffffffffffffffffffffff168573ffffffffffffffffffffffffffffffffffffffff1614610305575f5f5f8773ffffffffffffffffffffffffffffffffffffffff1673ffffffffffffffffffffffffffffffffffffffff1681526020019081526020015f205f8581526020019081526020015f20549050828110156102b157858184866040517fb1b4fec00000000000000000000000000000000000000000000000000000000081526004016102a894939291906104b4565b60405180910390fd5b8281035f5f8873ffffffffffffffffffffffffffffffffffffffff1673ffffffffffffffffffffffffffffffffffffffff1681526020019081526020015f205f8681526020019081526020015f2081905550505b5f73ffffffffffffffffffffffffffffffffffffffff168473ffffffffffffffffffffffffffffffffffffffff161461039a57815f5f8673ffffffffffffffffffffffffffffffffffffffff1673ffffffffffffffffffffffffffffffffffffffff1681526020019081526020015f205f8581526020019081526020015f205f8282546103929190610524565b925050819055505b828473ffffffffffffffffffffffffffffffffffffffff168673ffffffffffffffffffffffffffffffffffffffff167f1b3d7edb2e9c0b0e7c525b20aaaef0f5940d2ed71663c7d39266ecafac72885984866040516103fa929190610557565b60405180910390a45050505050565b5f33905090565b5f60ff82169050919050565b61042581610410565b82525050565b5f60208201905061043e5f83018461041c565b92915050565b5f73ffffffffffffffffffffffffffffffffffffffff82169050919050565b5f61046d82610444565b9050919050565b61047d81610463565b82525050565b5f6020820190506104965f830184610474565b92915050565b5f819050919050565b6104ae8161049c565b82525050565b5f6080820190506104c75f830187610474565b6104d460208301866104a5565b6104e160408301856104a5565b6104ee60608301846104a5565b95945050505050565b7f4e487b71000000000000000000000000000000000000000000000000000000005f52601160045260245ffd5b5f61052e8261049c565b91506105398361049c565b9250828201905080821115610551576105506104f7565b5b92915050565b5f60408201905061056a5f830185610474565b61057760208301846104a5565b9392505050565b61168c8061058b5f395ff3fe608060405234801561000f575f5ffd5b50600436106100fc575f3560e01c80634e41a1fb11610095578063b6363cf211610064578063b6363cf21461030a578063d562e2041461033a578063e3e55f0814610358578063fe99049a14610376576100fc565b80634e41a1fb1461025c578063558a72971461028c578063598af9e7146102bc5780635b2725ed146102ec576100fc565b806313dc989f116100d157806313dc989f146101c05780633e4bee38146101de5780633f47e662146101fc578063426a84931461022c576100fc565b8062ad800c14610100578062fdd58e1461013057806301ffc9a714610160578063095bcdb614610190575b5f5ffd5b61011a600480360381019061011591906110fb565b6103a6565b6040516101279190611196565b60405180910390f35b61014a60048036038101906101459190611210565b610449565b604051610157919061125d565b60405180910390f35b61017a600480360381019061017591906112cb565b61049e565b6040516101879190611310565b60405180910390f35b6101aa60048036038101906101a59190611329565b610517565b6040516101b79190611310565b60405180910390f35b6101c8610536565b6040516101d5919061125d565b60405180910390f35b6101e661053b565b6040516101f3919061125d565b60405180910390f35b610216600480360381019061021191906110fb565b61053f565b6040516102239190611394565b60405180910390f35b61024660048036038101906102419190611329565b610568565b6040516102539190611310565b60405180910390f35b610276600480360381019061027191906110fb565b610587565b6040516102839190611196565b60405180910390f35b6102a660048036038101906102a191906113d7565b61062b565b6040516102b39190611310565b60405180910390f35b6102d660048036038101906102d19190611415565b610648565b6040516102e3919061125d565b60405180910390f35b6102f46106da565b604051610301919061125d565b60405180910390f35b610324600480360381019061031f9190611465565b6106df565b6040516103319190611310565b60405180910390f35b61034261076d565b60405161034f919061125d565b60405180910390f35b610360610772565b60405161036d919061125d565b60405180910390f35b610390600480360381019061038b91906114a3565b610777565b60405161039d9190611310565b60405180910390f35b606060035f8381526020019081526020015f205f0180546103c690611534565b80601f01602080910402602001604051908101604052809291908181526020018280546103f290611534565b801561043d5780601f106104145761010080835404028352916020019161043d565b820191905f5260205f20905b81548152906001019060200180831161042057829003601f168201915b50505050509050919050565b5f5f5f8473ffffffffffffffffffffffffffffffffffffffff1673ffffffffffffffffffffffffffffffffffffffff1681526020019081526020015f205f8381526020019081526020015f2054905092915050565b5f7f71abc795000000000000000000000000000000000000000000000000000000007bffffffffffffffffffffffffffffffffffffffffffffffffffffffff1916827bffffffffffffffffffffffffffffffffffffffffffffffffffffffff19161480610510575061050f826107f1565b5b9050919050565b5f61052b61052361086a565b858585610871565b600190509392505050565b600381565b5f81565b5f60035f8381526020019081526020015f206002015f9054906101000a900460ff169050919050565b5f61057c61057461086a565b858585610963565b600190509392505050565b606060035f8381526020019081526020015f2060010180546105a890611534565b80601f01602080910402602001604051908101604052809291908181526020018280546105d490611534565b801561061f5780601f106105f65761010080835404028352916020019161061f565b820191905f5260205f20905b81548152906001019060200180831161060257829003601f168201915b50505050509050919050565b5f61063e61063761086a565b8484610b3b565b6001905092915050565b5f60025f8573ffffffffffffffffffffffffffffffffffffffff1673ffffffffffffffffffffffffffffffffffffffff1681526020019081526020015f205f8473ffffffffffffffffffffffffffffffffffffffff1673ffffffffffffffffffffffffffffffffffffffff1681526020019081526020015f205f8381526020019081526020015f205490509392505050565b600481565b5f60015f8473ffffffffffffffffffffffffffffffffffffffff1673ffffffffffffffffffffffffffffffffffffffff1681526020019081526020015f205f8373ffffffffffffffffffffffffffffffffffffffff1673ffffffffffffffffffffffffffffffffffffffff1681526020019081526020015f205f9054906101000a900460ff16905092915050565b600281565b600181565b5f5f61078161086a565b90508073ffffffffffffffffffffffffffffffffffffffff168673ffffffffffffffffffffffffffffffffffffffff16141580156107c657506107c486826106df565b155b156107d8576107d786828686610d14565b5b6107e486868686610871565b6001915050949350505050565b5f7f0f632fb3000000000000000000000000000000000000000000000000000000007bffffffffffffffffffffffffffffffffffffffffffffffffffffffff1916827bffffffffffffffffffffffffffffffffffffffffffffffffffffffff19161480610863575061086282610e2b565b5b9050919050565b5f33905090565b5f73ffffffffffffffffffffffffffffffffffffffff168473ffffffffffffffffffffffffffffffffffffffff16036108e1575f6040517fa43520800000000000000000000000000000000000000000000000000000000081526004016108d89190611573565b60405180910390fd5b5f73ffffffffffffffffffffffffffffffffffffffff168373ffffffffffffffffffffffffffffffffffffffff1603610951575f6040517fb8bbd6100000000000000000000000000000000000000000000000000000000081526004016109489190611573565b60405180910390fd5b61095d84848484610e94565b50505050565b5f73ffffffffffffffffffffffffffffffffffffffff168473ffffffffffffffffffffffffffffffffffffffff16036109d3575f6040517fcc766a980000000000000000000000000000000000000000000000000000000081526004016109ca9190611573565b60405180910390fd5b5f73ffffffffffffffffffffffffffffffffffffffff168373ffffffffffffffffffffffffffffffffffffffff1603610a43575f6040517f6f65f465000000000000000000000000000000000000000000000000000000008152600401610a3a9190611573565b60405180910390fd5b8060025f8673ffffffffffffffffffffffffffffffffffffffff1673ffffffffffffffffffffffffffffffffffffffff1681526020019081526020015f205f8573ffffffffffffffffffffffffffffffffffffffff1673ffffffffffffffffffffffffffffffffffffffff1681526020019081526020015f205f8481526020019081526020015f2081905550818373ffffffffffffffffffffffffffffffffffffffff168573ffffffffffffffffffffffffffffffffffffffff167fb3fd5071835887567a0671151121894ddccc2842f1d10bedad13e0d17cace9a784604051610b2d919061125d565b60405180910390a450505050565b5f73ffffffffffffffffffffffffffffffffffffffff168373ffffffffffffffffffffffffffffffffffffffff1603610bab575f6040517fcc766a98000000000000000000000000000000000000000000000000000000008152600401610ba29190611573565b60405180910390fd5b5f73ffffffffffffffffffffffffffffffffffffffff168273ffffffffffffffffffffffffffffffffffffffff1603610c1b575f6040517f6f65f465000000000000000000000000000000000000000000000000000000008152600401610c129190611573565b60405180910390fd5b8060015f8573ffffffffffffffffffffffffffffffffffffffff1673ffffffffffffffffffffffffffffffffffffffff1681526020019081526020015f205f8473ffffffffffffffffffffffffffffffffffffffff1673ffffffffffffffffffffffffffffffffffffffff1681526020019081526020015f205f6101000a81548160ff0219169083151502179055508173ffffffffffffffffffffffffffffffffffffffff168373ffffffffffffffffffffffffffffffffffffffff167fceb576d9f15e4e200fdb5096d64d5dfd667e16def20c1eefd14256d8e3faa26783604051610d079190611310565b60405180910390a3505050565b5f610d20858585610648565b90507fffffffffffffffffffffffffffffffffffffffffffffffffffffffffffffffff811015610e245781811015610d9557838183856040517f58a3fd5a000000000000000000000000000000000000000000000000000000008152600401610d8c949392919061158c565b60405180910390fd5b81810360025f8773ffffffffffffffffffffffffffffffffffffffff1673ffffffffffffffffffffffffffffffffffffffff1681526020019081526020015f205f8673ffffffffffffffffffffffffffffffffffffffff1673ffffffffffffffffffffffffffffffffffffffff1681526020019081526020015f205f8581526020019081526020015f20819055505b5050505050565b5f7f01ffc9a7000000000000000000000000000000000000000000000000000000007bffffffffffffffffffffffffffffffffffffffffffffffffffffffff1916827bffffffffffffffffffffffffffffffffffffffffffffffffffffffff1916149050919050565b5f610e9d61086a565b90505f73ffffffffffffffffffffffffffffffffffffffff168573ffffffffffffffffffffffffffffffffffffffff1614610fc0575f5f5f8773ffffffffffffffffffffffffffffffffffffffff1673ffffffffffffffffffffffffffffffffffffffff1681526020019081526020015f205f8581526020019081526020015f2054905082811015610f6c57858184866040517fb1b4fec0000000000000000000000000000000000000000000000000000000008152600401610f63949392919061158c565b60405180910390fd5b8281035f5f8873ffffffffffffffffffffffffffffffffffffffff1673ffffffffffffffffffffffffffffffffffffffff1681526020019081526020015f205f8681526020019081526020015f2081905550505b5f73ffffffffffffffffffffffffffffffffffffffff168473ffffffffffffffffffffffffffffffffffffffff161461105557815f5f8673ffffffffffffffffffffffffffffffffffffffff1673ffffffffffffffffffffffffffffffffffffffff1681526020019081526020015f205f8581526020019081526020015f205f82825461104d91906115fc565b925050819055505b828473ffffffffffffffffffffffffffffffffffffffff168673ffffffffffffffffffffffffffffffffffffffff167f1b3d7edb2e9c0b0e7c525b20aaaef0f5940d2ed71663c7d39266ecafac72885984866040516110b592919061162f565b60405180910390a45050505050565b5f5ffd5b5f819050919050565b6110da816110c8565b81146110e4575f5ffd5b50565b5f813590506110f5816110d1565b92915050565b5f602082840312156111105761110f6110c4565b5b5f61111d848285016110e7565b91505092915050565b5f81519050919050565b5f82825260208201905092915050565b8281835e5f83830152505050565b5f601f19601f8301169050919050565b5f61116882611126565b6111728185611130565b9350611182818560208601611140565b61118b8161114e565b840191505092915050565b5f6020820190508181035f8301526111ae818461115e565b905092915050565b5f73ffffffffffffffffffffffffffffffffffffffff82169050919050565b5f6111df826111b6565b9050919050565b6111ef816111d5565b81146111f9575f5ffd5b50565b5f8135905061120a816111e6565b92915050565b5f5f60408385031215611226576112256110c4565b5b5f611233858286016111fc565b9250506020611244858286016110e7565b9150509250929050565b611257816110c8565b82525050565b5f6020820190506112705f83018461124e565b92915050565b5f7fffffffff0000000000000000000000000000000000000000000000000000000082169050919050565b6112aa81611276565b81146112b4575f5ffd5b50565b5f813590506112c5816112a1565b92915050565b5f602082840312156112e0576112df6110c4565b5b5f6112ed848285016112b7565b91505092915050565b5f8115159050919050565b61130a816112f6565b82525050565b5f6020820190506113235f830184611301565b92915050565b5f5f5f606084860312156113405761133f6110c4565b5b5f61134d868287016111fc565b935050602061135e868287016110e7565b925050604061136f868287016110e7565b9150509250925092565b5f60ff82169050919050565b61138e81611379565b82525050565b5f6020820190506113a75f830184611385565b92915050565b6113b6816112f6565b81146113c0575f5ffd5b50565b5f813590506113d1816113ad565b92915050565b5f5f604083850312156113ed576113ec6110c4565b5b5f6113fa858286016111fc565b925050602061140b858286016113c3565b9150509250929050565b5f5f5f6060848603121561142c5761142b6110c4565b5b5f611439868287016111fc565b935050602061144a868287016111fc565b925050604061145b868287016110e7565b9150509250925092565b5f5f6040838503121561147b5761147a6110c4565b5b5f611488858286016111fc565b9250506020611499858286016111fc565b9150509250929050565b5f5f5f5f608085870312156114bb576114ba6110c4565b5b5f6114c8878288016111fc565b94505060206114d9878288016111fc565b93505060406114ea878288016110e7565b92505060606114fb878288016110e7565b91505092959194509250565b7f4e487b71000000000000000000000000000000000000000000000000000000005f52602260045260245ffd5b5f600282049050600182168061154b57607f821691505b60208210810361155e5761155d611507565b5b50919050565b61156d816111d5565b82525050565b5f6020820190506115865f830184611564565b92915050565b5f60808201905061159f5f830187611564565b6115ac602083018661124e565b6115b9604083018561124e565b6115c6606083018461124e565b95945050505050565b7f4e487b71000000000000000000000000000000000000000000000000000000005f52601160045260245ffd5b5f611606826110c8565b9150611611836110c8565b9250828201905080821115611629576116286115cf565b5b92915050565b5f6040820190506116425f830185611564565b61164f602083018461124e565b939250505056fea2646970667358221220f15a20333fd39ad5b2a45285c3d26e843e45fb6ce5d9c77a8fa4ad66b8840d1964736f6c634300081e0033","linkReferences":{}},"methodIdentifiers":{"GOLD()":"3e4bee38","SHIELD()":"5b2725ed","SILVER()":"e3e55f08","SWORD()":"13dc989f","THORS_HAMMER()":"d562e204","allowance(address,address,uint256)":"598af9e7","approve(address,uint256,uint256)":"426a8493","balanceOf(address,uint256)":"00fdd58e","decimals(uint256)":"3f47e662","isOperator(address,address)":"b6363cf2","name(uint256)":"00ad800c","setOperator(address,bool)":"558a7297","supportsInterface(bytes4)":"01ffc9a7","symbol(uint256)":"4e41a1fb","transfer(address,uint256,uint256)":"095bcdb6","transferFrom(address,address,uint256,uint256)":"fe99049a"},"id":255}