{"abi":[{"type":"constructor","inputs":[{"name":"name","type":"string","internalType":"string"}],"stateMutability":"nonpayable"},{"type":"function","name":"eip712Domain","inputs":[],"outputs":[{"name":"fields","type":"bytes1","internalType":"bytes1"},{"name":"name","type":"string","internalType":"string"},{"name":"version","type":"string","internalType":"string"},{"name":"chainId","type":"uint256","internalType":"uint256"},{"name":"verifyingContract","type":"address","internalType":"address"},{"name":"salt","type":"bytes32","internalType":"bytes32"},{"name":"extensions","type":"uint256[]","internalType":"uint256[]"}],"stateMutability":"view"},{"type":"function","name":"execute","inputs":[{"name":"request","type":"tuple","internalType":"struct ERC2771Forwarder.ForwardRequestData","components":[{"name":"from","type":"address","internalType":"address"},{"name":"to","type":"address","internalType":"address"},{"name":"value","type":"uint256","internalType":"uint256"},{"name":"gas","type":"uint256","internalType":"uint256"},{"name":"deadline","type":"uint48","internalType":"uint48"},{"name":"data","type":"bytes","internalType":"bytes"},{"name":"signature","type":"bytes","internalType":"bytes"}]}],"outputs":[],"stateMutability":"payable"},{"type":"function","name":"executeBatch","inputs":[{"name":"requests","type":"tuple[]","internalType":"struct ERC2771Forwarder.ForwardRequestData[]","components":[{"name":"from","type":"address","internalType":"address"},{"name":"to","type":"address","internalType":"address"},{"name":"value","type":"uint256","internalType":"uint256"},{"name":"gas","type":"uint256","internalType":"uint256"},{"name":"deadline","type":"uint48","internalType":"uint48"},{"name":"data","type":"bytes","internalType":"bytes"},{"name":"signature","type":"bytes","internalType":"bytes"}]},{"name":"refundReceiver","type":"address","internalType":"address payable"}],"outputs":[],"stateMutability":"payable"},{"type":"function","name":"nonces","inputs":[{"name":"owner","type":"address","internalType":"address"}],"outputs":[{"name":"","type":"uint256","internalType":"uint256"}],"stateMutability":"view"},{"type":"function","name":"verify","inputs":[{"name":"request","type":"tuple","internalType":"struct ERC2771Forwarder.ForwardRequestData","components":[{"name":"from","type":"address","internalType":"address"},{"name":"to","type":"address","internalType":"address"},{"name":"value","type":"uint256","internalType":"uint256"},{"name":"gas","type":"uint256","internalType":"uint256"},{"name":"deadline","type":"uint48","internalType":"uint48"},{"name":"data","type":"bytes","internalType":"bytes"},{"name":"signature","type":"bytes","internalType":"bytes"}]}],"outputs":[{"name":"","type":"bool","internalType":"bool"}],"stateMutability":"view"},{"type":"event","name":"EIP712DomainChanged","inputs":[],"anonymous":false},{"type":"event","name":"ExecutedForwardRequest","inputs":[{"name":"signer","type":"address","indexed":true,"internalType":"address"},{"name":"nonce","type":"uint256","indexed":false,"internalType":"uint256"},{"name":"success","type":"bool","indexed":false,"internalType":"bool"}],"anonymous":false},{"type":"error","name":"ERC2771ForwarderExpiredRequest","inputs":[{"name":"deadline","type":"uint48","internalType":"uint48"}]},{"type":"error","name":"ERC2771ForwarderInvalidSigner","inputs":[{"name":"signer","type":"address","internalType":"address"},{"name":"from","type":"address","internalType":"address"}]},{"type":"error","name":"ERC2771ForwarderMismatchedValue","inputs":[{"name":"requestedValue","type":"uint256","internalType":"uint256"},{"name":"msgValue","type":"uint256","internalType":"uint256"}]},{"type":"error","name":"ERC2771UntrustfulTarget","inputs":[{"name":"target","type":"address","internalType":"address"},{"name":"forwarder","type":"address","internalType":"address"}]},{"type":"error","name":"FailedCall","inputs":[]},{"type":"error","name":"InsufficientBalance","inputs":[{"name":"balance","type":"uint256","internalType":"uint256"},{"name":"needed","type":"uint256","internalType":"uint256"}]},{"type":"error","name":"InvalidAccountNonce","inputs":[{"name":"account","type":"address","internalType":"address"},{"name":"currentNonce","type":"uint256","internalType":"uint256"}]},{"type":"error","name":"InvalidShortString","inputs":[]},{"type":"error","name":"StringTooLong","inputs":[{"name":"str","type":"string","internalType":"string"}]}],"bytecode":{"object":"0x610160604052348015610010575f5ffd5b506040516121523803806121528339818101604052810190610032919061037a565b806040518060400160405280600181526020017f310000000000000000000000000000000000000000000000000000000000000081525061007c5f8361011860201b90919060201c565b610120818152505061009860018261011860201b90919060201c565b6101408181525050818051906020012060e08181525050808051906020012061010081815250504660a081815250506100d561016560201b60201c565b608081815250503073ffffffffffffffffffffffffffffffffffffffff1660c08173ffffffffffffffffffffffffffffffffffffffff1681525050505050610852565b5f60208351101561013957610132836101bf60201b60201c565b905061015f565b826101498361022460201b60201c565b5f01908161015791906105d1565b5060ff5f1b90505b92915050565b5f7f8b73c3c69bb8fe3d512ecc4cf759cc79239f7b179b0ffacaa9a75d522b39400f60e0516101005146306040516020016101a4959493929190610706565b60405160208183030381529060405280519060200120905090565b5f5f829050601f8151111561020b57826040517f305a27a9000000000000000000000000000000000000000000000000000000008152600401610202919061079f565b60405180910390fd5b805181610217906107ec565b5f1c175f1b915050919050565b5f819050919050565b5f604051905090565b5f5ffd5b5f5ffd5b5f5ffd5b5f5ffd5b5f601f19601f8301169050919050565b7f4e487b71000000000000000000000000000000000000000000000000000000005f52604160045260245ffd5b61028c82610246565b810181811067ffffffffffffffff821117156102ab576102aa610256565b5b80604052505050565b5f6102bd61022d565b90506102c98282610283565b919050565b5f67ffffffffffffffff8211156102e8576102e7610256565b5b6102f182610246565b9050602081019050919050565b8281835e5f83830152505050565b5f61031e610319846102ce565b6102b4565b90508281526020810184848401111561033a57610339610242565b5b6103458482856102fe565b509392505050565b5f82601f8301126103615761036061023e565b5b815161037184826020860161030c565b91505092915050565b5f6020828403121561038f5761038e610236565b5b5f82015167ffffffffffffffff8111156103ac576103ab61023a565b5b6103b88482850161034d565b91505092915050565b5f81519050919050565b7f4e487b71000000000000000000000000000000000000000000000000000000005f52602260045260245ffd5b5f600282049050600182168061040f57607f821691505b602082108103610422576104216103cb565b5b50919050565b5f819050815f5260205f209050919050565b5f6020601f8301049050919050565b5f82821b905092915050565b5f600883026104847fffffffffffffffffffffffffffffffffffffffffffffffffffffffffffffffff82610449565b61048e8683610449565b95508019841693508086168417925050509392505050565b5f819050919050565b5f819050919050565b5f6104d26104cd6104c8846104a6565b6104af565b6104a6565b9050919050565b5f819050919050565b6104eb836104b8565b6104ff6104f7826104d9565b848454610455565b825550505050565b5f5f905090565b610516610507565b6105218184846104e2565b505050565b5b81811015610544576105395f8261050e565b600181019050610527565b5050565b601f8211156105895761055a81610428565b6105638461043a565b81016020851015610572578190505b61058661057e8561043a565b830182610526565b50505b505050565b5f82821c905092915050565b5f6105a95f198460080261058e565b1980831691505092915050565b5f6105c1838361059a565b9150826002028217905092915050565b6105da826103c1565b67ffffffffffffffff8111156105f3576105f2610256565b5b6105fd82546103f8565b610608828285610548565b5f60209050601f831160018114610639575f8415610627578287015190505b61063185826105b6565b865550610698565b601f19841661064786610428565b5f5b8281101561066e57848901518255600182019150602085019450602081019050610649565b8683101561068b5784890151610687601f89168261059a565b8355505b6001600288020188555050505b505050505050565b5f819050919050565b6106b2816106a0565b82525050565b6106c1816104a6565b82525050565b5f73ffffffffffffffffffffffffffffffffffffffff82169050919050565b5f6106f0826106c7565b9050919050565b610700816106e6565b82525050565b5f60a0820190506107195f8301886106a9565b61072660208301876106a9565b61073360408301866106a9565b61074060608301856106b8565b61074d60808301846106f7565b9695505050505050565b5f82825260208201905092915050565b5f610771826103c1565b61077b8185610757565b935061078b8185602086016102fe565b61079481610246565b840191505092915050565b5f6020820190508181035f8301526107b78184610767565b905092915050565b5f81519050919050565b5f819050602082019050919050565b5f6107e382516106a0565b80915050919050565b5f6107f6826107bf565b82610800846107c9565b905061080b816107d8565b9250602082101561084b576108467fffffffffffffffffffffffffffffffffffffffffffffffffffffffffffffffff83602003600802610449565b831692505b5050919050565b60805160a05160c05160e0516101005161012051610140516118af6108a35f395f61051601525f6104db01525f610e8d01525f610e6c01525f610c2001525f610c7601525f610c9f01526118af5ff3fe608060405260043610610049575f3560e01c806319d8d38c1461004d5780637ecebe001461008957806384b0196e146100c5578063ccf96b4a146100f5578063df905caf14610111575b5f5ffd5b348015610058575f5ffd5b50610073600480360381019061006e9190610f07565b61012d565b6040516100809190610f68565b60405180910390f35b348015610094575f5ffd5b506100af60048036038101906100aa9190610fdb565b61015e565b6040516100bc919061101e565b60405180910390f35b3480156100d0575f5ffd5b506100d96101a4565b6040516100ec97969594939291906111bf565b60405180910390f35b61010f600480360381019061010a91906112dd565b610249565b005b61012b60048036038101906101269190610f07565b61039a565b005b5f5f5f5f61013a8561042c565b5092509250925082801561014b5750815b80156101545750805b9350505050919050565b5f60025f8373ffffffffffffffffffffffffffffffffffffffff1673ffffffffffffffffffffffffffffffffffffffff1681526020019081526020015f20549050919050565b5f6060805f5f5f60606101b56104d3565b6101bd61050d565b46305f5f1b5f67ffffffffffffffff8111156101dc576101db61133a565b5b60405190808252806020026020018201604052801561020a5781602001602082028036833780820191505090505b507f0f00000000000000000000000000000000000000000000000000000000000000959493929190965096509650965096509650965090919293949596565b5f5f73ffffffffffffffffffffffffffffffffffffffff168273ffffffffffffffffffffffffffffffffffffffff161490505f5f5f5b868690508110156103395786868281811061029d5761029c611367565b5b90506020028101906102af91906113a0565b60400135836102be91906113f4565b92505f6102ef8888848181106102d7576102d6611367565b5b90506020028101906102e991906113a0565b86610548565b90508061032d5787878381811061030957610308611367565b5b905060200281019061031b91906113a0565b604001358361032a91906113f4565b92505b5080600101905061027f565b503482146103805781346040517f70647f79000000000000000000000000000000000000000000000000000000008152600401610377929190611427565b60405180910390fd5b5f8114610392576103918482610771565b5b505050505050565b806040013534146103e8578060400135346040517f70647f790000000000000000000000000000000000000000000000000000000081526004016103df929190611427565b60405180910390fd5b6103f3816001610548565b610429576040517fd6bda27500000000000000000000000000000000000000000000000000000000815260040160405180910390fd5b50565b5f5f5f5f5f5f61043b87610828565b9150915061045a8760200160208101906104559190610fdb565b61095e565b4288608001602081019061046e9190611489565b65ffffffffffff1610158380156104c15750885f0160208101906104929190610fdb565b73ffffffffffffffffffffffffffffffffffffffff168373ffffffffffffffffffffffffffffffffffffffff16145b83955095509550955050509193509193565b60606105085f7f00000000000000000000000000000000000000000000000000000000000000006109f490919063ffffffff16565b905090565b606061054360017f00000000000000000000000000000000000000000000000000000000000000006109f490919063ffffffff16565b905090565b5f5f5f5f5f6105568761042c565b9350935093509350851561066457836105ba5786602001602081019061057c9190610fdb565b306040517fd2650cd10000000000000000000000000000000000000000000000000000000081526004016105b19291906114b4565b60405180910390fd5b8261060e578660800160208101906105d29190611489565b6040517f94eef58a00000000000000000000000000000000000000000000000000000000815260040161060591906114ea565b60405180910390fd5b816106635780875f0160208101906106269190610fdb565b6040517fc845a05600000000000000000000000000000000000000000000000000000000815260040161065a9291906114b4565b60405180910390fd5b5b83801561066e5750815b80156106775750825b15610767575f61068682610aa1565b90505f886060013590505f8960200160208101906106a49190610fdb565b90505f8a6040013590505f8b8060a001906106bf9190611503565b8d5f0160208101906106d19190610fdb565b6040516020016106e3939291906115e6565b60405160208183030381529060405290505f5f5f83516020850186888af19a505a9050610710818e610af4565b8673ffffffffffffffffffffffffffffffffffffffff167f842fb24a83793558587a3dab2be7674da4a51d09c5542d6dd354e5d0ea70813c878d60405161075892919061160f565b60405180910390a25050505050505b5050505092915050565b804710156107b85747816040517fcf4791810000000000000000000000000000000000000000000000000000000081526004016107af929190611427565b60405180910390fd5b6107d1828260405180602001604052805f815250610b12565b610824575f6107de610b28565b11156107f1576107ec610b2f565b610823565b6040517fd6bda27500000000000000000000000000000000000000000000000000000000815260040160405180910390fd5b5b5050565b5f5f5f5f610926858060c0019061083f9190611503565b6109177f7f96328b83274ebc7c1cf4f7a3abda602b51a78b7fa1d86a2ce353d75e587cac895f0160208101906108759190610fdb565b8a60200160208101906108889190610fdb565b8b604001358c606001356108ac8e5f0160208101906108a79190610fdb565b61015e565b8e60800160208101906108bf9190611489565b8f8060a001906108cf9190611503565b6040516108dd929190611636565b60405180910390206040516020016108fc98979695949392919061164e565b60405160208183030381529060405280519060200120610b3a565b610b539092919063ffffffff16565b50915091505f600381111561093e5761093d6116ca565b5b816003811115610951576109506116ca565b5b1482935093505050915091565b5f5f3060405160240161097191906116f7565b60405160208183030381529060405263572b6c0560e01b6020820180517bffffffffffffffffffffffffffffffffffffffffffffffffffffffff838183161783525050505090505f5f5f60205f855160208701895afa92503d91505f5190508280156109de575060208210155b80156109e957505f81115b945050505050919050565b606060ff5f1b8314610a1057610a0983610bab565b9050610a9b565b818054610a1c9061173d565b80601f0160208091040260200160405190810160405280929190818152602001828054610a489061173d565b8015610a935780601f10610a6a57610100808354040283529160200191610a93565b820191905f5260205f20905b815481529060010190602001808311610a7657829003601f168201915b505050505090505b92915050565b5f60025f8373ffffffffffffffffffffffffffffffffffffffff1673ffffffffffffffffffffffffffffffffffffffff1681526020019081526020015f205f815480929190600101919050559050919050565b603f8160600135610b05919061179a565b821015610b0e57fe5b5050565b5f5f5f83516020850186885af190509392505050565b5f3d905090565b6040513d5f823e3d81fd5b5f610b4c610b46610c1d565b83610cd3565b9050919050565b5f5f5f60418585905003610b92575f5f5f873592506020880135915060408801355f1a9050610b8489828585610d13565b955095509550505050610ba2565b5f6002868690505f1b9250925092505b93509350939050565b60605f610bb783610dfa565b90505f602067ffffffffffffffff811115610bd557610bd461133a565b5b6040519080825280601f01601f191660200182016040528015610c075781602001600182028036833780820191505090505b5090508181528360208201528092505050919050565b5f7f000000000000000000000000000000000000000000000000000000000000000073ffffffffffffffffffffffffffffffffffffffff163073ffffffffffffffffffffffffffffffffffffffff16148015610c9857507f000000000000000000000000000000000000000000000000000000000000000046145b15610cc5577f00000000000000000000000000000000000000000000000000000000000000009050610cd0565b610ccd610e48565b90505b90565b5f6040517f190100000000000000000000000000000000000000000000000000000000000081528360028201528260228201526042812091505092915050565b5f5f5f7f7fffffffffffffffffffffffffffffff5d576e7357a4501ddfe92f46681b20a0845f1c1115610d4f575f600385925092509250610df0565b5f6001888888886040515f8152602001604052604051610d7294939291906117e5565b6020604051602081039080840390855afa158015610d92573d5f5f3e3d5ffd5b5050506020604051035190505f73ffffffffffffffffffffffffffffffffffffffff168173ffffffffffffffffffffffffffffffffffffffff1603610de3575f60015f5f1b93509350935050610df0565b805f5f5f1b935093509350505b9450945094915050565b5f5f60ff835f1c169050601f811115610e3f576040517fb3512b0c00000000000000000000000000000000000000000000000000000000815260040160405180910390fd5b80915050919050565b5f7f8b73c3c69bb8fe3d512ecc4cf759cc79239f7b179b0ffacaa9a75d522b39400f7f00000000000000000000000000000000000000000000000000000000000000007f00000000000000000000000000000000000000000000000000000000000000004630604051602001610ec2959493929190611828565b60405160208183030381529060405280519060200120905090565b5f5ffd5b5f5ffd5b5f5ffd5b5f60e08284031215610efe57610efd610ee5565b5b81905092915050565b5f60208284031215610f1c57610f1b610edd565b5b5f82013567ffffffffffffffff811115610f3957610f38610ee1565b5b610f4584828501610ee9565b91505092915050565b5f8115159050919050565b610f6281610f4e565b82525050565b5f602082019050610f7b5f830184610f59565b92915050565b5f73ffffffffffffffffffffffffffffffffffffffff82169050919050565b5f610faa82610f81565b9050919050565b610fba81610fa0565b8114610fc4575f5ffd5b50565b5f81359050610fd581610fb1565b92915050565b5f60208284031215610ff057610fef610edd565b5b5f610ffd84828501610fc7565b91505092915050565b5f819050919050565b61101881611006565b82525050565b5f6020820190506110315f83018461100f565b92915050565b5f7fff0000000000000000000000000000000000000000000000000000000000000082169050919050565b61106b81611037565b82525050565b5f81519050919050565b5f82825260208201905092915050565b8281835e5f83830152505050565b5f601f19601f8301169050919050565b5f6110b382611071565b6110bd818561107b565b93506110cd81856020860161108b565b6110d681611099565b840191505092915050565b6110ea81610fa0565b82525050565b5f819050919050565b611102816110f0565b82525050565b5f81519050919050565b5f82825260208201905092915050565b5f819050602082019050919050565b61113a81611006565b82525050565b5f61114b8383611131565b60208301905092915050565b5f602082019050919050565b5f61116d82611108565b6111778185611112565b935061118283611122565b805f5b838110156111b25781516111998882611140565b97506111a483611157565b925050600181019050611185565b5085935050505092915050565b5f60e0820190506111d25f83018a611062565b81810360208301526111e481896110a9565b905081810360408301526111f881886110a9565b9050611207606083018761100f565b61121460808301866110e1565b61122160a08301856110f9565b81810360c08301526112338184611163565b905098975050505050505050565b5f5ffd5b5f5ffd5b5f5ffd5b5f5f83601f84011261126257611261611241565b5b8235905067ffffffffffffffff81111561127f5761127e611245565b5b60208301915083602082028301111561129b5761129a611249565b5b9250929050565b5f6112ac82610f81565b9050919050565b6112bc816112a2565b81146112c6575f5ffd5b50565b5f813590506112d7816112b3565b92915050565b5f5f5f604084860312156112f4576112f3610edd565b5b5f84013567ffffffffffffffff81111561131157611310610ee1565b5b61131d8682870161124d565b93509350506020611330868287016112c9565b9150509250925092565b7f4e487b71000000000000000000000000000000000000000000000000000000005f52604160045260245ffd5b7f4e487b71000000000000000000000000000000000000000000000000000000005f52603260045260245ffd5b5f5ffd5b5f5ffd5b5f5ffd5b5f8235600160e0038336030381126113bb576113ba611394565b5b80830191505092915050565b7f4e487b71000000000000000000000000000000000000000000000000000000005f52601160045260245ffd5b5f6113fe82611006565b915061140983611006565b9250828201905080821115611421576114206113c7565b5b92915050565b5f60408201905061143a5f83018561100f565b611447602083018461100f565b9392505050565b5f65ffffffffffff82169050919050565b6114688161144e565b8114611472575f5ffd5b50565b5f813590506114838161145f565b92915050565b5f6020828403121561149e5761149d610edd565b5b5f6114ab84828501611475565b91505092915050565b5f6040820190506114c75f8301856110e1565b6114d460208301846110e1565b9392505050565b6114e48161144e565b82525050565b5f6020820190506114fd5f8301846114db565b92915050565b5f5f8335600160200384360303811261151f5761151e611394565b5b80840192508235915067ffffffffffffffff82111561154157611540611398565b5b60208301925060018202360383131561155d5761155c61139c565b5b509250929050565b5f81905092915050565b828183375f83830152505050565b5f6115888385611565565b935061159583858461156f565b82840190509392505050565b5f8160601b9050919050565b5f6115b7826115a1565b9050919050565b5f6115c8826115ad565b9050919050565b6115e06115db82610fa0565b6115be565b82525050565b5f6115f282858761157d565b91506115fe82846115cf565b601482019150819050949350505050565b5f6040820190506116225f83018561100f565b61162f6020830184610f59565b9392505050565b5f61164282848661157d565b91508190509392505050565b5f610100820190506116625f83018b6110f9565b61166f602083018a6110e1565b61167c60408301896110e1565b611689606083018861100f565b611696608083018761100f565b6116a360a083018661100f565b6116b060c08301856114db565b6116bd60e08301846110f9565b9998505050505050505050565b7f4e487b71000000000000000000000000000000000000000000000000000000005f52602160045260245ffd5b5f60208201905061170a5f8301846110e1565b92915050565b7f4e487b71000000000000000000000000000000000000000000000000000000005f52602260045260245ffd5b5f600282049050600182168061175457607f821691505b60208210810361176757611766611710565b5b50919050565b7f4e487b71000000000000000000000000000000000000000000000000000000005f52601260045260245ffd5b5f6117a482611006565b91506117af83611006565b9250826117bf576117be61176d565b5b828204905092915050565b5f60ff82169050919050565b6117df816117ca565b82525050565b5f6080820190506117f85f8301876110f9565b61180560208301866117d6565b61181260408301856110f9565b61181f60608301846110f9565b95945050505050565b5f60a08201905061183b5f8301886110f9565b61184860208301876110f9565b61185560408301866110f9565b611862606083018561100f565b61186f60808301846110e1565b969550505050505056fea264697066735822122019d703d50001e96eaff734facd4ca594e64736280c29c9151c8ca7ee3c2429e664736f6c634300081e0033","linkReferences":{}},"methodIdentifiers":{"eip712Domain()":"84b0196e","execute((address,address,uint256,uint256,uint48,bytes,bytes))":"df905caf","executeBatch((address,address,uint256,uint256,uint48,bytes,bytes)[],address)":"ccf96b4a","nonces(address)":"7ecebe00","verify((address,address,uint256,uint256,uint48,bytes,bytes))":"19d8d38c"},"id":195}