{"abi":[{"type":"constructor","inputs":[],"stateMutability":"nonpayable"},{"type":"function","name":"callback","inputs":[],"outputs":[],"stateMutability":"nonpayable"},{"type":"function","name":"countAndCall","inputs":[{"name":"attacker","type":"address","internalType":"contract ReentrancyAttack"}],"outputs":[],"stateMutability":"nonpayable"},{"type":"function","name":"countAndCallView","inputs":[{"name":"attacker","type":"address","internalType":"contract ReentrancyAttack"}],"outputs":[],"stateMutability":"nonpayable"},{"type":"function","name":"countLocalRecursive","inputs":[{"name":"n","type":"uint256","internalType":"uint256"}],"outputs":[],"stateMutability":"nonpayable"},{"type":"function","name":"countThisRecursive","inputs":[{"name":"n","type":"uint256","internalType":"uint256"}],"outputs":[],"stateMutability":"nonpayable"},{"type":"function","name":"counter","inputs":[],"outputs":[{"name":"","type":"uint256","internalType":"uint256"}],"stateMutability":"view"},{"type":"function","name":"guardedCheckEntered","inputs":[],"outputs":[],"stateMutability":"nonpayable"},{"type":"function","name":"unguardedCheckNotEntered","inputs":[],"outputs":[],"stateMutability":"view"},{"type":"function","name":"viewCallback","inputs":[],"outputs":[{"name":"","type":"uint256","internalType":"uint256"}],"stateMutability":"view"},{"type":"error","name":"ReentrancyGuardReentrantCall","inputs":[]}],"bytecode":{"object":"0x6080604052348015600e575f5ffd5b505f5f8190555061097e806100225f395ff3fe608060405234801561000f575f5ffd5b5060043610610091575f3560e01c806396ffa6901161006457806396ffa690146100f7578063a408f31214610113578063b672ad8b1461011d578063cb52417614610139578063cecc95a71461015557610091565b8063083b27321461009557806332e2a0411461009f57806361bc221a146100bd5780638c5344fa146100db575b5f5ffd5b61009d61015f565b005b6100a7610179565b6040516100b4919061062f565b60405180910390f35b6100c5610189565b6040516100d2919061062f565b60405180910390f35b6100f560048036038101906100f09190610676565b61018e565b005b610111600480360381019061010c9190610676565b6102d5565b005b61011b61030e565b005b6101376004803603810190610132919061070c565b610330565b005b610153600480360381019061014e919061070c565b610414565b005b61015d6104f7565b005b61016761050a565b61016f610537565b610177610551565b565b5f610182610575565b5f54905090565b5f5481565b61019661050a565b5f8111156102ca576101a6610537565b5f3073ffffffffffffffffffffffffffffffffffffffff163073ffffffffffffffffffffffffffffffffffffffff16638c5344fa6001856101e79190610764565b6040516024016101f7919061062f565b604051602081830303815290604052915060e01b6020820180517bffffffffffffffffffffffffffffffffffffffffffffffffffffffff838183161783525050505060405161024691906107e9565b5f604051808303815f865af19150503d805f811461027f576040519150601f19603f3d011682016040523d82523d5f602084013e610284565b606091505b50509050806102c8576040517f08c379a00000000000000000000000000000000000000000000000000000000081526004016102bf9061087f565b60405180910390fd5b505b6102d2610551565b50565b6102dd61050a565b5f811115610303576102ed610537565b6103026001826102fd9190610764565b6102d5565b5b61030b610551565b50565b61031661050a565b61031e6105b6565b610326575f5ffd5b61032e610551565b565b61033861050a565b610340610537565b8073ffffffffffffffffffffffffffffffffffffffff1663f8123dd53073ffffffffffffffffffffffffffffffffffffffff1663083b2732604051602401604051602081830303815290604052915060e01b6020820180517bffffffffffffffffffffffffffffffffffffffffffffffffffffffff83818316178352505050506040518263ffffffff1660e01b81526004016103dc91906108f5565b5f604051808303815f87803b1580156103f3575f5ffd5b505af1158015610405573d5f5f3e3d5ffd5b50505050610411610551565b50565b61041c61050a565b610424610537565b8073ffffffffffffffffffffffffffffffffffffffff16633ac48f0a3073ffffffffffffffffffffffffffffffffffffffff166332e2a041604051602401604051602081830303815290604052915060e01b6020820180517bffffffffffffffffffffffffffffffffffffffffffffffffffffffff83818316178352505050506040518263ffffffff1660e01b81526004016104c091906108f5565b5f6040518083038186803b1580156104d6575f5ffd5b505afa1580156104e8573d5f5f3e3d5ffd5b505050506104f4610551565b50565b6104ff6105b6565b15610508575f5ffd5b565b610512610575565b61053560016105276105226105d4565b6105fd565b61060690919063ffffffff16565b565b60015f5f8282546105489190610915565b92505081905550565b6105735f6105656105606105d4565b6105fd565b61060690919063ffffffff16565b565b61057d6105b6565b156105b4576040517f3ee5aeb500000000000000000000000000000000000000000000000000000000815260040160405180910390fd5b565b5f6105cf6105ca6105c56105d4565b6105fd565b61060d565b905090565b5f7f9b779b17422d0df92223018b32b4d1fa46e071723d6817e2486d003becc55f005f1b905090565b5f819050919050565b80825d5050565b5f815c9050919050565b5f819050919050565b61062981610617565b82525050565b5f6020820190506106425f830184610620565b92915050565b5f5ffd5b61065581610617565b811461065f575f5ffd5b50565b5f813590506106708161064c565b92915050565b5f6020828403121561068b5761068a610648565b5b5f61069884828501610662565b91505092915050565b5f73ffffffffffffffffffffffffffffffffffffffff82169050919050565b5f6106ca826106a1565b9050919050565b5f6106db826106c0565b9050919050565b6106eb816106d1565b81146106f5575f5ffd5b50565b5f81359050610706816106e2565b92915050565b5f6020828403121561072157610720610648565b5b5f61072e848285016106f8565b91505092915050565b7f4e487b71000000000000000000000000000000000000000000000000000000005f52601160045260245ffd5b5f61076e82610617565b915061077983610617565b925082820390508181111561079157610790610737565b5b92915050565b5f81519050919050565b5f81905092915050565b8281835e5f83830152505050565b5f6107c382610797565b6107cd81856107a1565b93506107dd8185602086016107ab565b80840191505092915050565b5f6107f482846107b9565b915081905092915050565b5f82825260208201905092915050565b7f5265656e7472616e63795472616e7369656e744d6f636b3a206661696c6564205f8201527f63616c6c00000000000000000000000000000000000000000000000000000000602082015250565b5f6108696024836107ff565b91506108748261080f565b604082019050919050565b5f6020820190508181035f8301526108968161085d565b9050919050565b5f82825260208201905092915050565b5f601f19601f8301169050919050565b5f6108c782610797565b6108d1818561089d565b93506108e18185602086016107ab565b6108ea816108ad565b840191505092915050565b5f6020820190508181035f83015261090d81846108bd565b905092915050565b5f61091f82610617565b915061092a83610617565b925082820190508082111561094257610941610737565b5b9291505056fea26469706673582212209542647157627455986e336739c425ebce8689e59af0fe3d150d2ec177be8a3e64736f6c634300081e0033","linkReferences":{}},"methodIdentifiers":{"callback()":"083b2732","countAndCall(address)":"b672ad8b","countAndCallView(address)":"cb524176","countLocalRecursive(uint256)":"96ffa690","countThisRecursive(uint256)":"8c5344fa","counter()":"61bc221a","guardedCheckEntered()":"a408f312","unguardedCheckNotEntered()":"cecc95a7","viewCallback()":"32e2a041"},"id":220}