{"abi":[{"type":"receive","stateMutability":"payable"},{"type":"function","name":"entryPoint","inputs":[],"outputs":[{"name":"","type":"address","internalType":"contract IEntryPoint"}],"stateMutability":"view"},{"type":"function","name":"execute","inputs":[{"name":"mode","type":"bytes32","internalType":"bytes32"},{"name":"executionData","type":"bytes","internalType":"bytes"}],"outputs":[],"stateMutability":"payable"},{"type":"function","name":"getNonce","inputs":[{"name":"key","type":"uint192","internalType":"uint192"}],"outputs":[{"name":"","type":"uint256","internalType":"uint256"}],"stateMutability":"view"},{"type":"function","name":"getNonce","inputs":[],"outputs":[{"name":"","type":"uint256","internalType":"uint256"}],"stateMutability":"view"},{"type":"function","name":"onERC1155BatchReceived","inputs":[{"name":"","type":"address","internalType":"address"},{"name":"","type":"address","internalType":"address"},{"name":"","type":"uint256[]","internalType":"uint256[]"},{"name":"","type":"uint256[]","internalType":"uint256[]"},{"name":"","type":"bytes","internalType":"bytes"}],"outputs":[{"name":"","type":"bytes4","internalType":"bytes4"}],"stateMutability":"nonpayable"},{"type":"function","name":"onERC1155Received","inputs":[{"name":"","type":"address","internalType":"address"},{"name":"","type":"address","internalType":"address"},{"name":"","type":"uint256","internalType":"uint256"},{"name":"","type":"uint256","internalType":"uint256"},{"name":"","type":"bytes","internalType":"bytes"}],"outputs":[{"name":"","type":"bytes4","internalType":"bytes4"}],"stateMutability":"nonpayable"},{"type":"function","name":"onERC721Received","inputs":[{"name":"","type":"address","internalType":"address"},{"name":"","type":"address","internalType":"address"},{"name":"","type":"uint256","internalType":"uint256"},{"name":"","type":"bytes","internalType":"bytes"}],"outputs":[{"name":"","type":"bytes4","internalType":"bytes4"}],"stateMutability":"nonpayable"},{"type":"function","name":"supportsExecutionMode","inputs":[{"name":"mode","type":"bytes32","internalType":"bytes32"}],"outputs":[{"name":"result","type":"bool","internalType":"bool"}],"stateMutability":"view"},{"type":"function","name":"supportsInterface","inputs":[{"name":"interfaceId","type":"bytes4","internalType":"bytes4"}],"outputs":[{"name":"","type":"bool","internalType":"bool"}],"stateMutability":"view"},{"type":"function","name":"validateUserOp","inputs":[{"name":"userOp","type":"tuple","internalType":"struct PackedUserOperation","components":[{"name":"sender","type":"address","internalType":"address"},{"name":"nonce","type":"uint256","internalType":"uint256"},{"name":"initCode","type":"bytes","internalType":"bytes"},{"name":"callData","type":"bytes","internalType":"bytes"},{"name":"accountGasLimits","type":"bytes32","internalType":"bytes32"},{"name":"preVerificationGas","type":"uint256","internalType":"uint256"},{"name":"gasFees","type":"bytes32","internalType":"bytes32"},{"name":"paymasterAndData","type":"bytes","internalType":"bytes"},{"name":"signature","type":"bytes","internalType":"bytes"}]},{"name":"userOpHash","type":"bytes32","internalType":"bytes32"},{"name":"missingAccountFunds","type":"uint256","internalType":"uint256"}],"outputs":[{"name":"","type":"uint256","internalType":"uint256"}],"stateMutability":"nonpayable"},{"type":"event","name":"ERC7579TryExecuteFail","inputs":[{"name":"batchExecutionIndex","type":"uint256","indexed":false,"internalType":"uint256"},{"name":"returndata","type":"bytes","indexed":false,"internalType":"bytes"}],"anonymous":false},{"type":"error","name":"AccountUnauthorized","inputs":[{"name":"sender","type":"address","internalType":"address"}]},{"type":"error","name":"ERC7579DecodingError","inputs":[]},{"type":"error","name":"ERC7579UnsupportedExecType","inputs":[{"name":"execType","type":"bytes1","internalType":"ExecType"}]},{"type":"error","name":"FailedCall","inputs":[]},{"type":"error","name":"OutOfRangeAccess","inputs":[]},{"type":"error","name":"UnsupportedExecutionMode","inputs":[]}],"bytecode":{"object":"0x6080604052348015600e575f5ffd5b50611bd78061001c5f395ff3fe608060405260043610610094575f3560e01c8063bc197c8111610058578063bc197c81146101b9578063d03c7914146101f5578063d087d28814610231578063e9ae5c531461025b578063f23a6e61146102775761009b565b806301ffc9a71461009f578063150b7a02146100db57806319822f7c146101175780633e1b081214610153578063b0d691fe1461018f5761009b565b3661009b57005b5f5ffd5b3480156100aa575f5ffd5b506100c560048036038101906100c09190610fe7565b6102b3565b6040516100d2919061102c565b60405180910390f35b3480156100e6575f5ffd5b5061010160048036038101906100fc919061120e565b61032c565b60405161010e919061129d565b60405180910390f35b348015610122575f5ffd5b5061013d6004803603810190610138919061130c565b61033f565b60405161014a9190611387565b60405180910390f35b34801561015e575f5ffd5b50610179600480360381019061017491906113ed565b61037a565b6040516101869190611387565b60405180910390f35b34801561019a575f5ffd5b506101a3610403565b6040516101b09190611473565b60405180910390f35b3480156101c4575f5ffd5b506101df60048036038101906101da9190611550565b61041e565b6040516101ec919061129d565b60405180910390f35b348015610200575f5ffd5b5061021b6004803603810190610216919061161b565b610432565b604051610228919061102c565b60405180910390f35b34801561023c575f5ffd5b50610245610488565b6040516102529190611387565b60405180910390f35b6102756004803603810190610270919061169f565b610497565b005b348015610282575f5ffd5b5061029d600480360381019061029891906116fc565b610541565b6040516102aa919061129d565b60405180910390f35b5f7f4e2312e0000000000000000000000000000000000000000000000000000000007bffffffffffffffffffffffffffffffffffffffffffffffffffffffff1916827bffffffffffffffffffffffffffffffffffffffffffffffffffffffff19161480610325575061032482610555565b5b9050919050565b5f63150b7a0260e01b9050949350505050565b5f6103486105be565b5f61036485858780610100019061035f919061179b565b61063c565b905061036f83610668565b809150509392505050565b5f610383610403565b73ffffffffffffffffffffffffffffffffffffffff166335567e1a30846040518363ffffffff1660e01b81526004016103bd92919061181b565b602060405180830381865afa1580156103d8573d5f5f3e3d5ffd5b505050506040513d601f19601f820116820180604052508101906103fc9190611856565b9050919050565b5f73433709009b8330fda32311df1c2afa402ed8d009905090565b5f63bc197c8160e01b905095945050505050565b5f5f5f5f61043f8561068e565b5092509250925061045483600160f81b6106cc565b80156104695750610468825f60f81b61071c565b5b801561047e575061047d815f60e01b61076c565b5b9350505050919050565b5f6104925f61037a565b905090565b6104a3338484846107b6565b6104e457336040517f7cf8632b0000000000000000000000000000000000000000000000000000000081526004016104db9190611881565b60405180910390fd5b6104ed83610432565b610523576040517f7f18127500000000000000000000000000000000000000000000000000000000815260040160405180910390fd5b61053b5f60f81b838361080a9290919263ffffffff16565b50505050565b5f63f23a6e6160e01b905095945050505050565b5f7f01ffc9a7000000000000000000000000000000000000000000000000000000007bffffffffffffffffffffffffffffffffffffffffffffffffffffffff1916827bffffffffffffffffffffffffffffffffffffffffffffffffffffffff1916149050919050565b5f3390506105ca610403565b73ffffffffffffffffffffffffffffffffffffffff168173ffffffffffffffffffffffffffffffffffffffff161461063957806040517f7cf8632b0000000000000000000000000000000000000000000000000000000081526004016106309190611881565b60405180910390fd5b50565b5f61065161064a868661094f565b8484610959565b61065c57600161065e565b5f5b9050949350505050565b5f81111561068b57610689338260405180602001604052805f8152506109d5565b505b50565b5f5f5f5f61069c855f6109eb565b6106a78660016109eb565b6106b2876006610a3e565b6106bd88600a610a91565b93509350935093509193509193565b5f817effffffffffffffffffffffffffffffffffffffffffffffffffffffffffffff1916837effffffffffffffffffffffffffffffffffffffffffffffffffffffffffffff191614905092915050565b5f817effffffffffffffffffffffffffffffffffffffffffffffffffffffffffffff1916837effffffffffffffffffffffffffffffffffffffffffffffffffffffffffffff191614905092915050565b5f817bffffffffffffffffffffffffffffffffffffffffffffffffffffffff1916837bffffffffffffffffffffffffffffffffffffffffffffffffffffffff191614905092915050565b5f6107bf610403565b73ffffffffffffffffffffffffffffffffffffffff168573ffffffffffffffffffffffffffffffffffffffff16148061080057506107ff85858585610ae4565b5b9050949350505050565b6060365f6108188686610b1e565b915091508181905067ffffffffffffffff811115610839576108386110ea565b5b60405190808252806020026020018201604052801561086c57816020015b60608152602001906001900390816108575790505b5092505f5f90505b828290508110156109455761091c81868585858181106108975761089661189a565b5b90506020028101906108a991906118c7565b5f0160208101906108ba91906118ee565b8686868181106108cd576108cc61189a565b5b90506020028101906108df91906118c7565b602001358787878181106108f6576108f561189a565b5b905060200281019061090891906118c7565b8060400190610917919061179b565b610c52565b84828151811061092f5761092e61189a565b5b6020026020010181905250806001019050610874565b5050509392505050565b5f81905092915050565b5f5f5f610967868686610d16565b50915091508173ffffffffffffffffffffffffffffffffffffffff163073ffffffffffffffffffffffffffffffffffffffff161480156109ca57505f60038111156109b5576109b4611919565b5b8160038111156109c8576109c7611919565b5b145b925050509392505050565b5f5f5f83516020850186885af190509392505050565b5f601f8260ff161115610a2a576040517f3ba9763600000000000000000000000000000000000000000000000000000000815260040160405180910390fd5b5f1960f81b83836008021b16905092915050565b5f601c8260ff161115610a7d576040517f3ba9763600000000000000000000000000000000000000000000000000000000815260040160405180910390fd5b5f1960e01b83836008021b16905092915050565b5f600a8260ff161115610ad0576040517f3ba9763600000000000000000000000000000000000000000000000000000000815260040160405180910390fd5b5f1960501b83836008021b16905092915050565b5f3073ffffffffffffffffffffffffffffffffffffffff168573ffffffffffffffffffffffffffffffffffffffff16149050949350505050565b365f5f8484905090506020811015610b62576040517feb0bcc5d00000000000000000000000000000000000000000000000000000000815260040160405180910390fd5b5f85855f90602092610b769392919061194e565b90610b81919061199e565b5f1c905060208203811115610bc2576040517feb0bcc5d00000000000000000000000000000000000000000000000000000000815260040160405180910390fd5b5f868683906020850192610bd89392919061194e565b90610be3919061199e565b5f1c905067ffffffffffffffff8016811180610c06575060208102602083850303105b15610c3d576040517feb0bcc5d00000000000000000000000000000000000000000000000000000000815260040160405180910390fd5b60208288010194508093505050509250929050565b60605f5f5f73ffffffffffffffffffffffffffffffffffffffff168773ffffffffffffffffffffffffffffffffffffffff1614610c8f5786610c91565b305b73ffffffffffffffffffffffffffffffffffffffff16868686604051610cb8929190611a2a565b5f6040518083038185875af1925050503d805f8114610cf2576040519150601f19603f3d011682016040523d82523d5f602084013e610cf7565b606091505b5091509150610d0889898484610d6e565b925050509695505050505050565b5f5f5f60418585905003610d55575f5f5f873592506020880135915060408801355f1a9050610d4789828585610e32565b955095509550505050610d65565b5f6002868690505f1b9250925092505b93509350939050565b6060610d7d845f60f81b61071c565b15610d9257610d8c8383610f19565b50610e27565b610da084600160f81b61071c565b15610de95782610de4577f2eea2f51f83910481f4b5ba28b7003a6e045d4b59f67dfff8d4c9011940500898583604051610ddb929190611aa2565b60405180910390a15b610e26565b836040517f23a24085000000000000000000000000000000000000000000000000000000008152600401610e1d9190611b1b565b60405180910390fd5b5b819050949350505050565b5f5f5f7f7fffffffffffffffffffffffffffffff5d576e7357a4501ddfe92f46681b20a0845f1c1115610e6e575f600385925092509250610f0f565b5f6001888888886040515f8152602001604052604051610e919493929190611b5e565b6020604051602081039080840390855afa158015610eb1573d5f5f3e3d5ffd5b5050506020604051035190505f73ffffffffffffffffffffffffffffffffffffffff168173ffffffffffffffffffffffffffffffffffffffff1603610f02575f60015f5f1b93509350935050610f0f565b805f5f5f1b935093509350505b9450945094915050565b60608215610f2957819050610f73565b5f82511115610f4057610f3b82610f79565b610f72565b6040517fd6bda27500000000000000000000000000000000000000000000000000000000815260040160405180910390fd5b5b92915050565b805160208201fd5b5f604051905090565b5f5ffd5b5f5ffd5b5f7fffffffff0000000000000000000000000000000000000000000000000000000082169050919050565b610fc681610f92565b8114610fd0575f5ffd5b50565b5f81359050610fe181610fbd565b92915050565b5f60208284031215610ffc57610ffb610f8a565b5b5f61100984828501610fd3565b91505092915050565b5f8115159050919050565b61102681611012565b82525050565b5f60208201905061103f5f83018461101d565b92915050565b5f73ffffffffffffffffffffffffffffffffffffffff82169050919050565b5f61106e82611045565b9050919050565b61107e81611064565b8114611088575f5ffd5b50565b5f8135905061109981611075565b92915050565b5f819050919050565b6110b18161109f565b81146110bb575f5ffd5b50565b5f813590506110cc816110a8565b92915050565b5f5ffd5b5f5ffd5b5f601f19601f8301169050919050565b7f4e487b71000000000000000000000000000000000000000000000000000000005f52604160045260245ffd5b611120826110da565b810181811067ffffffffffffffff8211171561113f5761113e6110ea565b5b80604052505050565b5f611151610f81565b905061115d8282611117565b919050565b5f67ffffffffffffffff82111561117c5761117b6110ea565b5b611185826110da565b9050602081019050919050565b828183375f83830152505050565b5f6111b26111ad84611162565b611148565b9050828152602081018484840111156111ce576111cd6110d6565b5b6111d9848285611192565b509392505050565b5f82601f8301126111f5576111f46110d2565b5b81356112058482602086016111a0565b91505092915050565b5f5f5f5f6080858703121561122657611225610f8a565b5b5f6112338782880161108b565b94505060206112448782880161108b565b9350506040611255878288016110be565b925050606085013567ffffffffffffffff81111561127657611275610f8e565b5b611282878288016111e1565b91505092959194509250565b61129781610f92565b82525050565b5f6020820190506112b05f83018461128e565b92915050565b5f5ffd5b5f61012082840312156112d0576112cf6112b6565b5b81905092915050565b5f819050919050565b6112eb816112d9565b81146112f5575f5ffd5b50565b5f81359050611306816112e2565b92915050565b5f5f5f6060848603121561132357611322610f8a565b5b5f84013567ffffffffffffffff8111156113405761133f610f8e565b5b61134c868287016112ba565b935050602061135d868287016112f8565b925050604061136e868287016110be565b9150509250925092565b6113818161109f565b82525050565b5f60208201905061139a5f830184611378565b92915050565b5f77ffffffffffffffffffffffffffffffffffffffffffffffff82169050919050565b6113cc816113a0565b81146113d6575f5ffd5b50565b5f813590506113e7816113c3565b92915050565b5f6020828403121561140257611401610f8a565b5b5f61140f848285016113d9565b91505092915050565b5f819050919050565b5f61143b61143661143184611045565b611418565b611045565b9050919050565b5f61144c82611421565b9050919050565b5f61145d82611442565b9050919050565b61146d81611453565b82525050565b5f6020820190506114865f830184611464565b92915050565b5f67ffffffffffffffff8211156114a6576114a56110ea565b5b602082029050602081019050919050565b5f5ffd5b5f6114cd6114c88461148c565b611148565b905080838252602082019050602084028301858111156114f0576114ef6114b7565b5b835b81811015611519578061150588826110be565b8452602084019350506020810190506114f2565b5050509392505050565b5f82601f830112611537576115366110d2565b5b81356115478482602086016114bb565b91505092915050565b5f5f5f5f5f60a0868803121561156957611568610f8a565b5b5f6115768882890161108b565b95505060206115878882890161108b565b945050604086013567ffffffffffffffff8111156115a8576115a7610f8e565b5b6115b488828901611523565b935050606086013567ffffffffffffffff8111156115d5576115d4610f8e565b5b6115e188828901611523565b925050608086013567ffffffffffffffff81111561160257611601610f8e565b5b61160e888289016111e1565b9150509295509295909350565b5f602082840312156116305761162f610f8a565b5b5f61163d848285016112f8565b91505092915050565b5f5ffd5b5f5f83601f84011261165f5761165e6110d2565b5b8235905067ffffffffffffffff81111561167c5761167b611646565b5b602083019150836001820283011115611698576116976114b7565b5b9250929050565b5f5f5f604084860312156116b6576116b5610f8a565b5b5f6116c3868287016112f8565b935050602084013567ffffffffffffffff8111156116e4576116e3610f8e565b5b6116f08682870161164a565b92509250509250925092565b5f5f5f5f5f60a0868803121561171557611714610f8a565b5b5f6117228882890161108b565b95505060206117338882890161108b565b9450506040611744888289016110be565b9350506060611755888289016110be565b925050608086013567ffffffffffffffff81111561177657611775610f8e565b5b611782888289016111e1565b9150509295509295909350565b5f5ffd5b5f5ffd5b5f5ffd5b5f5f833560016020038436030381126117b7576117b661178f565b5b80840192508235915067ffffffffffffffff8211156117d9576117d8611793565b5b6020830192506001820236038313156117f5576117f4611797565b5b509250929050565b61180681611064565b82525050565b611815816113a0565b82525050565b5f60408201905061182e5f8301856117fd565b61183b602083018461180c565b9392505050565b5f81519050611850816110a8565b92915050565b5f6020828403121561186b5761186a610f8a565b5b5f61187884828501611842565b91505092915050565b5f6020820190506118945f8301846117fd565b92915050565b7f4e487b71000000000000000000000000000000000000000000000000000000005f52603260045260245ffd5b5f823560016060038336030381126118e2576118e161178f565b5b80830191505092915050565b5f6020828403121561190357611902610f8a565b5b5f6119108482850161108b565b91505092915050565b7f4e487b71000000000000000000000000000000000000000000000000000000005f52602160045260245ffd5b5f5ffd5b5f5ffd5b5f5f8585111561196157611960611946565b5b838611156119725761197161194a565b5b6001850283019150848603905094509492505050565b5f82905092915050565b5f82821b905092915050565b5f6119a98383611988565b826119b481356112d9565b925060208210156119f4576119ef7fffffffffffffffffffffffffffffffffffffffffffffffffffffffffffffffff83602003600802611992565b831692505b505092915050565b5f81905092915050565b5f611a1183856119fc565b9350611a1e838584611192565b82840190509392505050565b5f611a36828486611a06565b91508190509392505050565b5f81519050919050565b5f82825260208201905092915050565b8281835e5f83830152505050565b5f611a7482611a42565b611a7e8185611a4c565b9350611a8e818560208601611a5c565b611a97816110da565b840191505092915050565b5f604082019050611ab55f830185611378565b8181036020830152611ac78184611a6a565b90509392505050565b5f7fff0000000000000000000000000000000000000000000000000000000000000082169050919050565b5f611b0582611ad0565b9050919050565b611b1581611afb565b82525050565b5f602082019050611b2e5f830184611b0c565b92915050565b611b3d816112d9565b82525050565b5f60ff82169050919050565b611b5881611b43565b82525050565b5f608082019050611b715f830187611b34565b611b7e6020830186611b4f565b611b8b6040830185611b34565b611b986060830184611b34565b9594505050505056fea2646970667358221220fa33f598cf18c762839b14f4e5c269d8d5d106b028be98b2a5a4c6f3acbbaf2664736f6c634300081e0033","linkReferences":{}},"methodIdentifiers":{"entryPoint()":"b0d691fe","execute(bytes32,bytes)":"e9ae5c53","getNonce()":"d087d288","getNonce(uint192)":"3e1b0812","onERC1155BatchReceived(address,address,uint256[],uint256[],bytes)":"bc197c81","onERC1155Received(address,address,uint256,uint256,bytes)":"f23a6e61","onERC721Received(address,address,uint256,bytes)":"150b7a02","supportsExecutionMode(bytes32)":"d03c7914","supportsInterface(bytes4)":"01ffc9a7","validateUserOp((address,uint256,bytes,bytes,bytes32,uint256,bytes32,bytes,bytes),bytes32,uint256)":"19822f7c"},"id":246}