{"abi":[{"type":"constructor","inputs":[{"name":"gateway_","type":"address","internalType":"address"}],"stateMutability":"nonpayable"},{"type":"function","name":"receiveMessage","inputs":[{"name":"receiveId","type":"bytes32","internalType":"bytes32"},{"name":"sender","type":"bytes","internalType":"bytes"},{"name":"payload","type":"bytes","internalType":"bytes"}],"outputs":[{"name":"","type":"bytes4","internalType":"bytes4"}],"stateMutability":"payable"},{"type":"event","name":"MessageReceived","inputs":[{"name":"gateway","type":"address","indexed":false,"internalType":"address"},{"name":"receiveId","type":"bytes32","indexed":false,"internalType":"bytes32"},{"name":"sender","type":"bytes","indexed":false,"internalType":"bytes"},{"name":"payload","type":"bytes","indexed":false,"internalType":"bytes"},{"name":"value","type":"uint256","indexed":false,"internalType":"uint256"}],"anonymous":false},{"type":"error","name":"ERC7786RecipientMessageAlreadyProcessed","inputs":[{"name":"gateway","type":"address","internalType":"address"},{"name":"receiveId","type":"bytes32","internalType":"bytes32"}]},{"type":"error","name":"ERC7786RecipientUnauthorizedGateway","inputs":[{"name":"gateway","type":"address","internalType":"address"},{"name":"sender","type":"bytes","internalType":"bytes"}]}],"bytecode":{"object":"0x60a060405234801561000f575f5ffd5b506040516106f53803806106f5833981810160405281019061003191906100c9565b8073ffffffffffffffffffffffffffffffffffffffff1660808173ffffffffffffffffffffffffffffffffffffffff1681525050506100f4565b5f5ffd5b5f73ffffffffffffffffffffffffffffffffffffffff82169050919050565b5f6100988261006f565b9050919050565b6100a88161008e565b81146100b2575f5ffd5b50565b5f815190506100c38161009f565b92915050565b5f602082840312156100de576100dd61006b565b5b5f6100eb848285016100b5565b91505092915050565b6080516105e961010c5f395f6101aa01526105e95ff3fe60806040526004361061001d575f3560e01c80632432ef2614610021575b5f5ffd5b61003b60048036038101906100369190610355565b610051565b6040516100489190610420565b60405180910390f35b5f61005d3386866101a7565b6100a2573385856040517fcddea737000000000000000000000000000000000000000000000000000000008152600401610099939291906104d2565b60405180910390fd5b6100f2865f1c5f5f3373ffffffffffffffffffffffffffffffffffffffff1673ffffffffffffffffffffffffffffffffffffffff1681526020019081526020015f2061020090919063ffffffff16565b156101365733866040517f52bc305100000000000000000000000000000000000000000000000000000000815260040161012d929190610511565b60405180910390fd5b610186865f1c5f5f3373ffffffffffffffffffffffffffffffffffffffff1673ffffffffffffffffffffffffffffffffffffffff1681526020019081526020015f2061023690919063ffffffff16565b61019433878787878761026e565b632432ef2660e01b905095945050505050565b5f7f000000000000000000000000000000000000000000000000000000000000000073ffffffffffffffffffffffffffffffffffffffff168473ffffffffffffffffffffffffffffffffffffffff161490509392505050565b5f5f600883901c90505f60ff84166001901b90505f81865f015f8581526020019081526020015f20541614159250505092915050565b5f600882901c90505f60ff83166001901b905080845f015f8481526020019081526020015f205f828254179250508190555050505050565b7f6481284e17cb5e280cd79edd7b43c0bea1c693984dee5b1d9199579884fa0d4e868686868686346040516102a99796959493929190610550565b60405180910390a1505050505050565b5f5ffd5b5f5ffd5b5f819050919050565b6102d3816102c1565b81146102dd575f5ffd5b50565b5f813590506102ee816102ca565b92915050565b5f5ffd5b5f5ffd5b5f5ffd5b5f5f83601f840112610315576103146102f4565b5b8235905067ffffffffffffffff811115610332576103316102f8565b5b60208301915083600182028301111561034e5761034d6102fc565b5b9250929050565b5f5f5f5f5f6060868803121561036e5761036d6102b9565b5b5f61037b888289016102e0565b955050602086013567ffffffffffffffff81111561039c5761039b6102bd565b5b6103a888828901610300565b9450945050604086013567ffffffffffffffff8111156103cb576103ca6102bd565b5b6103d788828901610300565b92509250509295509295909350565b5f7fffffffff0000000000000000000000000000000000000000000000000000000082169050919050565b61041a816103e6565b82525050565b5f6020820190506104335f830184610411565b92915050565b5f73ffffffffffffffffffffffffffffffffffffffff82169050919050565b5f61046282610439565b9050919050565b61047281610458565b82525050565b5f82825260208201905092915050565b828183375f83830152505050565b5f601f19601f8301169050919050565b5f6104b18385610478565b93506104be838584610488565b6104c783610496565b840190509392505050565b5f6040820190506104e55f830186610469565b81810360208301526104f88184866104a6565b9050949350505050565b61050b816102c1565b82525050565b5f6040820190506105245f830185610469565b6105316020830184610502565b9392505050565b5f819050919050565b61054a81610538565b82525050565b5f60a0820190506105635f83018a610469565b6105706020830189610502565b81810360408301526105838187896104a6565b905081810360608301526105988185876104a6565b90506105a76080830184610541565b9897505050505050505056fea26469706673582212204630644732cc83b32e3047c2eac9cc6737bbe73d6c6d6aa164968398b22d8b9664736f6c634300081e0033","linkReferences":{}},"methodIdentifiers":{"receiveMessage(bytes32,bytes,bytes)":"2432ef26"},"id":235}