{"abi":[{"type":"function","name":"DEFAULT_ADMIN_ROLE","inputs":[],"outputs":[{"name":"","type":"bytes32","internalType":"bytes32"}],"stateMutability":"view"},{"type":"function","name":"getRoleAdmin","inputs":[{"name":"role","type":"bytes32","internalType":"bytes32"}],"outputs":[{"name":"","type":"bytes32","internalType":"bytes32"}],"stateMutability":"view"},{"type":"function","name":"grantRole","inputs":[{"name":"role","type":"bytes32","internalType":"bytes32"},{"name":"account","type":"address","internalType":"address"}],"outputs":[],"stateMutability":"nonpayable"},{"type":"function","name":"hasRole","inputs":[{"name":"role","type":"bytes32","internalType":"bytes32"},{"name":"account","type":"address","internalType":"address"}],"outputs":[{"name":"","type":"bool","internalType":"bool"}],"stateMutability":"view"},{"type":"function","name":"renounceRole","inputs":[{"name":"role","type":"bytes32","internalType":"bytes32"},{"name":"callerConfirmation","type":"address","internalType":"address"}],"outputs":[],"stateMutability":"nonpayable"},{"type":"function","name":"revokeRole","inputs":[{"name":"","type":"bytes32","internalType":"bytes32"},{"name":"","type":"address","internalType":"address"}],"outputs":[],"stateMutability":"pure"},{"type":"function","name":"supportsInterface","inputs":[{"name":"interfaceId","type":"bytes4","internalType":"bytes4"}],"outputs":[{"name":"","type":"bool","internalType":"bool"}],"stateMutability":"view"},{"type":"event","name":"RoleAdminChanged","inputs":[{"name":"role","type":"bytes32","indexed":true,"internalType":"bytes32"},{"name":"previousAdminRole","type":"bytes32","indexed":true,"internalType":"bytes32"},{"name":"newAdminRole","type":"bytes32","indexed":true,"internalType":"bytes32"}],"anonymous":false},{"type":"event","name":"RoleGranted","inputs":[{"name":"role","type":"bytes32","indexed":true,"internalType":"bytes32"},{"name":"account","type":"address","indexed":true,"internalType":"address"},{"name":"sender","type":"address","indexed":true,"internalType":"address"}],"anonymous":false},{"type":"event","name":"RoleRevoked","inputs":[{"name":"role","type":"bytes32","indexed":true,"internalType":"bytes32"},{"name":"account","type":"address","indexed":true,"internalType":"address"},{"name":"sender","type":"address","indexed":true,"internalType":"address"}],"anonymous":false},{"type":"error","name":"AccessControlBadConfirmation","inputs":[]},{"type":"error","name":"AccessControlNonRevocable","inputs":[]},{"type":"error","name":"AccessControlUnauthorizedAccount","inputs":[{"name":"account","type":"address","internalType":"address"},{"name":"neededRole","type":"bytes32","internalType":"bytes32"}]}],"bytecode":{"object":"0x6080604052348015600e575f5ffd5b506108368061001c5f395ff3fe608060405234801561000f575f5ffd5b506004361061007b575f3560e01c806336568abe1161005957806336568abe146100fb57806391d1485414610117578063a217fddf14610147578063d547741f146101655761007b565b806301ffc9a71461007f578063248a9ca3146100af5780632f2ff15d146100df575b5f5ffd5b6100996004803603810190610094919061064e565b610181565b6040516100a69190610693565b60405180910390f35b6100c960048036038101906100c491906106df565b6101fa565b6040516100d69190610719565b60405180910390f35b6100f960048036038101906100f4919061078c565b610216565b005b6101156004803603810190610110919061078c565b610238565b005b610131600480360381019061012c919061078c565b6102b3565b60405161013e9190610693565b60405180910390f35b61014f610316565b60405161015c9190610719565b60405180910390f35b61017f600480360381019061017a919061078c565b61031c565b005b5f7f7965db0b000000000000000000000000000000000000000000000000000000007bffffffffffffffffffffffffffffffffffffffffffffffffffffffff1916827bffffffffffffffffffffffffffffffffffffffffffffffffffffffff191614806101f357506101f28261034e565b5b9050919050565b5f5f5f8381526020019081526020015f20600101549050919050565b61021f826101fa565b610228816103b7565b61023283836103cb565b50505050565b6102406104b4565b73ffffffffffffffffffffffffffffffffffffffff168173ffffffffffffffffffffffffffffffffffffffff16146102a4576040517f6697b23200000000000000000000000000000000000000000000000000000000815260040160405180910390fd5b6102ae82826104bb565b505050565b5f5f5f8481526020019081526020015f205f015f8373ffffffffffffffffffffffffffffffffffffffff1673ffffffffffffffffffffffffffffffffffffffff1681526020019081526020015f205f9054906101000a900460ff16905092915050565b5f5f1b81565b6040517fb98cbebd00000000000000000000000000000000000000000000000000000000815260040160405180910390fd5b5f7f01ffc9a7000000000000000000000000000000000000000000000000000000007bffffffffffffffffffffffffffffffffffffffffffffffffffffffff1916827bffffffffffffffffffffffffffffffffffffffffffffffffffffffff1916149050919050565b6103c8816103c36104b4565b6105a4565b50565b5f6103d683836102b3565b6104aa5760015f5f8581526020019081526020015f205f015f8473ffffffffffffffffffffffffffffffffffffffff1673ffffffffffffffffffffffffffffffffffffffff1681526020019081526020015f205f6101000a81548160ff0219169083151502179055506104476104b4565b73ffffffffffffffffffffffffffffffffffffffff168273ffffffffffffffffffffffffffffffffffffffff16847f2f8788117e7eff1d82e926ec794901d17c78024a50270940304540a733656f0d60405160405180910390a4600190506104ae565b5f90505b92915050565b5f33905090565b5f6104c683836102b3565b1561059a575f5f5f8581526020019081526020015f205f015f8473ffffffffffffffffffffffffffffffffffffffff1673ffffffffffffffffffffffffffffffffffffffff1681526020019081526020015f205f6101000a81548160ff0219169083151502179055506105376104b4565b73ffffffffffffffffffffffffffffffffffffffff168273ffffffffffffffffffffffffffffffffffffffff16847ff6391f5c32d9c69d2a47ea670b442974b53935d1edc7fd64eb21e047a839171b60405160405180910390a46001905061059e565b5f90505b92915050565b6105ae82826102b3565b6105f15780826040517fe2517d3f0000000000000000000000000000000000000000000000000000000081526004016105e89291906107d9565b60405180910390fd5b5050565b5f5ffd5b5f7fffffffff0000000000000000000000000000000000000000000000000000000082169050919050565b61062d816105f9565b8114610637575f5ffd5b50565b5f8135905061064881610624565b92915050565b5f60208284031215610663576106626105f5565b5b5f6106708482850161063a565b91505092915050565b5f8115159050919050565b61068d81610679565b82525050565b5f6020820190506106a65f830184610684565b92915050565b5f819050919050565b6106be816106ac565b81146106c8575f5ffd5b50565b5f813590506106d9816106b5565b92915050565b5f602082840312156106f4576106f36105f5565b5b5f610701848285016106cb565b91505092915050565b610713816106ac565b82525050565b5f60208201905061072c5f83018461070a565b92915050565b5f73ffffffffffffffffffffffffffffffffffffffff82169050919050565b5f61075b82610732565b9050919050565b61076b81610751565b8114610775575f5ffd5b50565b5f8135905061078681610762565b92915050565b5f5f604083850312156107a2576107a16105f5565b5b5f6107af858286016106cb565b92505060206107c085828601610778565b9150509250929050565b6107d381610751565b82525050565b5f6040820190506107ec5f8301856107ca565b6107f9602083018461070a565b939250505056fea26469706673582212208210c34aa90316c6683c90d11de017a441884cee3e7497523b3195428000d00a64736f6c634300081e0033","linkReferences":{}},"methodIdentifiers":{"DEFAULT_ADMIN_ROLE()":"a217fddf","getRoleAdmin(bytes32)":"248a9ca3","grantRole(bytes32,address)":"2f2ff15d","hasRole(bytes32,address)":"91d14854","renounceRole(bytes32,address)":"36568abe","revokeRole(bytes32,address)":"d547741f","supportsInterface(bytes4)":"01ffc9a7"},"id":243}