{"abi":[{"type":"constructor","inputs":[{"name":"underlying","type":"address","internalType":"address"}],"stateMutability":"nonpayable"},{"type":"function","name":"allowance","inputs":[{"name":"owner","type":"address","internalType":"address"},{"name":"spender","type":"address","internalType":"address"}],"outputs":[{"name":"","type":"uint256","internalType":"uint256"}],"stateMutability":"view"},{"type":"function","name":"approve","inputs":[{"name":"spender","type":"address","internalType":"address"},{"name":"value","type":"uint256","internalType":"uint256"}],"outputs":[{"name":"","type":"bool","internalType":"bool"}],"stateMutability":"nonpayable"},{"type":"function","name":"asset","inputs":[],"outputs":[{"name":"","type":"address","internalType":"address"}],"stateMutability":"view"},{"type":"function","name":"balanceOf","inputs":[{"name":"account","type":"address","internalType":"address"}],"outputs":[{"name":"","type":"uint256","internalType":"uint256"}],"stateMutability":"view"},{"type":"function","name":"burn","inputs":[{"name":"account","type":"address","internalType":"address"},{"name":"amount","type":"uint256","internalType":"uint256"}],"outputs":[],"stateMutability":"nonpayable"},{"type":"function","name":"convertToAssets","inputs":[{"name":"shares","type":"uint256","internalType":"uint256"}],"outputs":[{"name":"","type":"uint256","internalType":"uint256"}],"stateMutability":"view"},{"type":"function","name":"convertToShares","inputs":[{"name":"assets","type":"uint256","internalType":"uint256"}],"outputs":[{"name":"","type":"uint256","internalType":"uint256"}],"stateMutability":"view"},{"type":"function","name":"decimals","inputs":[],"outputs":[{"name":"","type":"uint8","internalType":"uint8"}],"stateMutability":"view"},{"type":"function","name":"deposit","inputs":[{"name":"assets","type":"uint256","internalType":"uint256"},{"name":"receiver","type":"address","internalType":"address"}],"outputs":[{"name":"","type":"uint256","internalType":"uint256"}],"stateMutability":"nonpayable"},{"type":"function","name":"maxDeposit","inputs":[{"name":"","type":"address","internalType":"address"}],"outputs":[{"name":"","type":"uint256","internalType":"uint256"}],"stateMutability":"view"},{"type":"function","name":"maxMint","inputs":[{"name":"","type":"address","internalType":"address"}],"outputs":[{"name":"","type":"uint256","internalType":"uint256"}],"stateMutability":"view"},{"type":"function","name":"maxRedeem","inputs":[{"name":"owner","type":"address","internalType":"address"}],"outputs":[{"name":"","type":"uint256","internalType":"uint256"}],"stateMutability":"view"},{"type":"function","name":"maxWithdraw","inputs":[{"name":"owner","type":"address","internalType":"address"}],"outputs":[{"name":"","type":"uint256","internalType":"uint256"}],"stateMutability":"view"},{"type":"function","name":"mint","inputs":[{"name":"account","type":"address","internalType":"address"},{"name":"amount","type":"uint256","internalType":"uint256"}],"outputs":[],"stateMutability":"nonpayable"},{"type":"function","name":"mint","inputs":[{"name":"shares","type":"uint256","internalType":"uint256"},{"name":"receiver","type":"address","internalType":"address"}],"outputs":[{"name":"","type":"uint256","internalType":"uint256"}],"stateMutability":"nonpayable"},{"type":"function","name":"name","inputs":[],"outputs":[{"name":"","type":"string","internalType":"string"}],"stateMutability":"view"},{"type":"function","name":"previewDeposit","inputs":[{"name":"assets","type":"uint256","internalType":"uint256"}],"outputs":[{"name":"","type":"uint256","internalType":"uint256"}],"stateMutability":"view"},{"type":"function","name":"previewMint","inputs":[{"name":"shares","type":"uint256","internalType":"uint256"}],"outputs":[{"name":"","type":"uint256","internalType":"uint256"}],"stateMutability":"view"},{"type":"function","name":"previewRedeem","inputs":[{"name":"shares","type":"uint256","internalType":"uint256"}],"outputs":[{"name":"","type":"uint256","internalType":"uint256"}],"stateMutability":"view"},{"type":"function","name":"previewWithdraw","inputs":[{"name":"assets","type":"uint256","internalType":"uint256"}],"outputs":[{"name":"","type":"uint256","internalType":"uint256"}],"stateMutability":"view"},{"type":"function","name":"redeem","inputs":[{"name":"shares","type":"uint256","internalType":"uint256"},{"name":"receiver","type":"address","internalType":"address"},{"name":"owner","type":"address","internalType":"address"}],"outputs":[{"name":"","type":"uint256","internalType":"uint256"}],"stateMutability":"nonpayable"},{"type":"function","name":"symbol","inputs":[],"outputs":[{"name":"","type":"string","internalType":"string"}],"stateMutability":"view"},{"type":"function","name":"totalAssets","inputs":[],"outputs":[{"name":"","type":"uint256","internalType":"uint256"}],"stateMutability":"view"},{"type":"function","name":"totalSupply","inputs":[],"outputs":[{"name":"","type":"uint256","internalType":"uint256"}],"stateMutability":"view"},{"type":"function","name":"transfer","inputs":[{"name":"to","type":"address","internalType":"address"},{"name":"value","type":"uint256","internalType":"uint256"}],"outputs":[{"name":"","type":"bool","internalType":"bool"}],"stateMutability":"nonpayable"},{"type":"function","name":"transferFrom","inputs":[{"name":"from","type":"address","internalType":"address"},{"name":"to","type":"address","internalType":"address"},{"name":"value","type":"uint256","internalType":"uint256"}],"outputs":[{"name":"","type":"bool","internalType":"bool"}],"stateMutability":"nonpayable"},{"type":"function","name":"withdraw","inputs":[{"name":"assets","type":"uint256","internalType":"uint256"},{"name":"receiver","type":"address","internalType":"address"},{"name":"owner","type":"address","internalType":"address"}],"outputs":[{"name":"","type":"uint256","internalType":"uint256"}],"stateMutability":"nonpayable"},{"type":"event","name":"Approval","inputs":[{"name":"owner","type":"address","indexed":true,"internalType":"address"},{"name":"spender","type":"address","indexed":true,"internalType":"address"},{"name":"value","type":"uint256","indexed":false,"internalType":"uint256"}],"anonymous":false},{"type":"event","name":"Deposit","inputs":[{"name":"sender","type":"address","indexed":true,"internalType":"address"},{"name":"owner","type":"address","indexed":true,"internalType":"address"},{"name":"assets","type":"uint256","indexed":false,"internalType":"uint256"},{"name":"shares","type":"uint256","indexed":false,"internalType":"uint256"}],"anonymous":false},{"type":"event","name":"Transfer","inputs":[{"name":"from","type":"address","indexed":true,"internalType":"address"},{"name":"to","type":"address","indexed":true,"internalType":"address"},{"name":"value","type":"uint256","indexed":false,"internalType":"uint256"}],"anonymous":false},{"type":"event","name":"Withdraw","inputs":[{"name":"sender","type":"address","indexed":true,"internalType":"address"},{"name":"receiver","type":"address","indexed":true,"internalType":"address"},{"name":"owner","type":"address","indexed":true,"internalType":"address"},{"name":"assets","type":"uint256","indexed":false,"internalType":"uint256"},{"name":"shares","type":"uint256","indexed":false,"internalType":"uint256"}],"anonymous":false},{"type":"error","name":"ERC20InsufficientAllowance","inputs":[{"name":"spender","type":"address","internalType":"address"},{"name":"allowance","type":"uint256","internalType":"uint256"},{"name":"needed","type":"uint256","internalType":"uint256"}]},{"type":"error","name":"ERC20InsufficientBalance","inputs":[{"name":"sender","type":"address","internalType":"address"},{"name":"balance","type":"uint256","internalType":"uint256"},{"name":"needed","type":"uint256","internalType":"uint256"}]},{"type":"error","name":"ERC20InvalidApprover","inputs":[{"name":"approver","type":"address","internalType":"address"}]},{"type":"error","name":"ERC20InvalidReceiver","inputs":[{"name":"receiver","type":"address","internalType":"address"}]},{"type":"error","name":"ERC20InvalidSender","inputs":[{"name":"sender","type":"address","internalType":"address"}]},{"type":"error","name":"ERC20InvalidSpender","inputs":[{"name":"spender","type":"address","internalType":"address"}]},{"type":"error","name":"ERC4626ExceededMaxDeposit","inputs":[{"name":"receiver","type":"address","internalType":"address"},{"name":"assets","type":"uint256","internalType":"uint256"},{"name":"max","type":"uint256","internalType":"uint256"}]},{"type":"error","name":"ERC4626ExceededMaxMint","inputs":[{"name":"receiver","type":"address","internalType":"address"},{"name":"shares","type":"uint256","internalType":"uint256"},{"name":"max","type":"uint256","internalType":"uint256"}]},{"type":"error","name":"ERC4626ExceededMaxRedeem","inputs":[{"name":"owner","type":"address","internalType":"address"},{"name":"shares","type":"uint256","internalType":"uint256"},{"name":"max","type":"uint256","internalType":"uint256"}]},{"type":"error","name":"ERC4626ExceededMaxWithdraw","inputs":[{"name":"owner","type":"address","internalType":"address"},{"name":"assets","type":"uint256","internalType":"uint256"},{"name":"max","type":"uint256","internalType":"uint256"}]},{"type":"error","name":"SafeERC20FailedOperation","inputs":[{"name":"token","type":"address","internalType":"address"}]}],"bytecode":{"object":"0x60c060405234801561000f575f5ffd5b506040516125913803806125918339818101604052810190610031919061028f565b806040518060400160405280600b81526020017f455243343632364d6f636b0000000000000000000000000000000000000000008152506040518060400160405280600681526020017f45343632364d000000000000000000000000000000000000000000000000000081525081600390816100ad91906104f7565b5080600490816100bd91906104f7565b5050505f5f6100d18361012d60201b60201c565b91509150816100e15760126100e3565b805b60ff1660a08160ff16815250508273ffffffffffffffffffffffffffffffffffffffff1660808173ffffffffffffffffffffffffffffffffffffffff1681525050505050506105c6565b5f5f5f61013e6101f960201b60201c565b90505f5f61019c8660405160240160405160208183030381529060405263313ce56760e01b6020820180517bffffffffffffffffffffffffffffffffffffffffffffffffffffffff838183161783525050505061020260201b60201c565b50915091506101b08361022360201b60201c565b8180156101cb575060206101c861022a60201b60201c565b10155b80156101dc575060ff8016815f1c11155b6101e7575f5f6101ed565b6001815f1c5b94509450505050915091565b5f604051905090565b5f5f5f60405f855160208701885afa92505f51915060205190509250925092565b8060405250565b5f3d905090565b5f5ffd5b5f73ffffffffffffffffffffffffffffffffffffffff82169050919050565b5f61025e82610235565b9050919050565b61026e81610254565b8114610278575f5ffd5b50565b5f8151905061028981610265565b92915050565b5f602082840312156102a4576102a3610231565b5b5f6102b18482850161027b565b91505092915050565b5f81519050919050565b7f4e487b71000000000000000000000000000000000000000000000000000000005f52604160045260245ffd5b7f4e487b71000000000000000000000000000000000000000000000000000000005f52602260045260245ffd5b5f600282049050600182168061033557607f821691505b602082108103610348576103476102f1565b5b50919050565b5f819050815f5260205f209050919050565b5f6020601f8301049050919050565b5f82821b905092915050565b5f600883026103aa7fffffffffffffffffffffffffffffffffffffffffffffffffffffffffffffffff8261036f565b6103b4868361036f565b95508019841693508086168417925050509392505050565b5f819050919050565b5f819050919050565b5f6103f86103f36103ee846103cc565b6103d5565b6103cc565b9050919050565b5f819050919050565b610411836103de565b61042561041d826103ff565b84845461037b565b825550505050565b5f5f905090565b61043c61042d565b610447818484610408565b505050565b5b8181101561046a5761045f5f82610434565b60018101905061044d565b5050565b601f8211156104af576104808161034e565b61048984610360565b81016020851015610498578190505b6104ac6104a485610360565b83018261044c565b50505b505050565b5f82821c905092915050565b5f6104cf5f19846008026104b4565b1980831691505092915050565b5f6104e783836104c0565b9150826002028217905092915050565b610500826102ba565b67ffffffffffffffff811115610519576105186102c4565b5b610523825461031e565b61052e82828561046e565b5f60209050601f83116001811461055f575f841561054d578287015190505b61055785826104dc565b8655506105be565b601f19841661056d8661034e565b5f5b828110156105945784890151825560018201915060208501945060208101905061056f565b868310156105b157848901516105ad601f8916826104c0565b8355505b6001600288020188555050505b505050505050565b60805160a051611faa6105e75f395f6107c501525f6107f60152611faa5ff3fe608060405234801561000f575f5ffd5b50600436106101a7575f3560e01c806370a08231116100f7578063ba08765211610095578063ce96cb771161006f578063ce96cb7714610567578063d905777e14610597578063dd62ed3e146105c7578063ef8b30f7146105f7576101a7565b8063ba087652146104d7578063c63d75b614610507578063c6e6f59214610537576101a7565b80639dc29fac116100d15780639dc29fac1461042b578063a9059cbb14610447578063b3d7f6b914610477578063b460af94146104a7576101a7565b806370a08231146103ad57806394bf804d146103dd57806395d89b411461040d576101a7565b806323b872dd11610164578063402d267d1161013e578063402d267d1461030157806340c10f19146103315780634cdad5061461034d5780636e553f651461037d576101a7565b806323b872dd14610295578063313ce567146102c557806338d52e0f146102e3576101a7565b806301e1d114146101ab57806306fdde03146101c957806307a2d13a146101e7578063095ea7b3146102175780630a28a4771461024757806318160ddd14610277575b5f5ffd5b6101b3610627565b6040516101c09190611875565b60405180910390f35b6101d16106ac565b6040516101de91906118fe565b60405180910390f35b61020160048036038101906101fc919061194c565b61073c565b60405161020e9190611875565b60405180910390f35b610231600480360381019061022c91906119d1565b61074e565b60405161023e9190611a29565b60405180910390f35b610261600480360381019061025c919061194c565b610770565b60405161026e9190611875565b60405180910390f35b61027f610783565b60405161028c9190611875565b60405180910390f35b6102af60048036038101906102aa9190611a42565b61078c565b6040516102bc9190611a29565b60405180910390f35b6102cd6107ba565b6040516102da9190611aad565b60405180910390f35b6102eb6107f3565b6040516102f89190611ad5565b60405180910390f35b61031b60048036038101906103169190611aee565b61081a565b6040516103289190611875565b60405180910390f35b61034b600480360381019061034691906119d1565b610843565b005b6103676004803603810190610362919061194c565b610851565b6040516103749190611875565b60405180910390f35b61039760048036038101906103929190611b19565b610863565b6040516103a49190611875565b60405180910390f35b6103c760048036038101906103c29190611aee565b6108e3565b6040516103d49190611875565b60405180910390f35b6103f760048036038101906103f29190611b19565b610928565b6040516104049190611875565b60405180910390f35b6104156109a8565b60405161042291906118fe565b60405180910390f35b610445600480360381019061044091906119d1565b610a38565b005b610461600480360381019061045c91906119d1565b610a46565b60405161046e9190611a29565b60405180910390f35b610491600480360381019061048c919061194c565b610a68565b60405161049e9190611875565b60405180910390f35b6104c160048036038101906104bc9190611b57565b610a7b565b6040516104ce9190611875565b60405180910390f35b6104f160048036038101906104ec9190611b57565b610afd565b6040516104fe9190611875565b60405180910390f35b610521600480360381019061051c9190611aee565b610b7f565b60405161052e9190611875565b60405180910390f35b610551600480360381019061054c919061194c565b610ba8565b60405161055e9190611875565b60405180910390f35b610581600480360381019061057c9190611aee565b610bba565b60405161058e9190611875565b60405180910390f35b6105b160048036038101906105ac9190611aee565b610bd3565b6040516105be9190611875565b60405180910390f35b6105e160048036038101906105dc9190611ba7565b610be4565b6040516105ee9190611875565b60405180910390f35b610611600480360381019061060c919061194c565b610c66565b60405161061e9190611875565b60405180910390f35b5f6106306107f3565b73ffffffffffffffffffffffffffffffffffffffff166370a08231306040518263ffffffff1660e01b81526004016106689190611ad5565b602060405180830381865afa158015610683573d5f5f3e3d5ffd5b505050506040513d601f19601f820116820180604052508101906106a79190611bf9565b905090565b6060600380546106bb90611c51565b80601f01602080910402602001604051908101604052809291908181526020018280546106e790611c51565b80156107325780601f1061070957610100808354040283529160200191610732565b820191905f5260205f20905b81548152906001019060200180831161071557829003601f168201915b5050505050905090565b5f610747825f610c78565b9050919050565b5f5f610758610cd0565b9050610765818585610cd7565b600191505092915050565b5f61077c826001610ce9565b9050919050565b5f600254905090565b5f5f610796610cd0565b90506107a3858285610d41565b6107ae858585610dd4565b60019150509392505050565b5f6107c3610ec4565b7f00000000000000000000000000000000000000000000000000000000000000006107ee9190611cae565b905090565b5f7f0000000000000000000000000000000000000000000000000000000000000000905090565b5f7fffffffffffffffffffffffffffffffffffffffffffffffffffffffffffffffff9050919050565b61084d8282610ecb565b5050565b5f61085c825f610c78565b9050919050565b5f5f61086e8361081a565b9050808411156108b9578284826040517f79012fb20000000000000000000000000000000000000000000000000000000081526004016108b093929190611ce2565b60405180910390fd5b5f6108c385610c66565b90506108d86108d0610cd0565b858784610f4a565b809250505092915050565b5f5f5f8373ffffffffffffffffffffffffffffffffffffffff1673ffffffffffffffffffffffffffffffffffffffff1681526020019081526020015f20549050919050565b5f5f61093383610b7f565b90508084111561097e578284826040517f284ff66700000000000000000000000000000000000000000000000000000000815260040161097593929190611ce2565b60405180910390fd5b5f61098885610a68565b905061099d610995610cd0565b858388610f4a565b809250505092915050565b6060600480546109b790611c51565b80601f01602080910402602001604051908101604052809291908181526020018280546109e390611c51565b8015610a2e5780601f10610a0557610100808354040283529160200191610a2e565b820191905f5260205f20905b815481529060010190602001808311610a1157829003601f168201915b5050505050905090565b610a428282610fcb565b5050565b5f5f610a50610cd0565b9050610a5d818585610dd4565b600191505092915050565b5f610a74826001610c78565b9050919050565b5f5f610a8683610bba565b905080851115610ad1578285826040517ffe9cceec000000000000000000000000000000000000000000000000000000008152600401610ac893929190611ce2565b60405180910390fd5b5f610adb86610770565b9050610af1610ae8610cd0565b8686898561104a565b80925050509392505050565b5f5f610b0883610bd3565b905080851115610b53578285826040517fb94abeec000000000000000000000000000000000000000000000000000000008152600401610b4a93929190611ce2565b60405180910390fd5b5f610b5d86610851565b9050610b73610b6a610cd0565b8686848a61104a565b80925050509392505050565b5f7fffffffffffffffffffffffffffffffffffffffffffffffffffffffffffffffff9050919050565b5f610bb3825f610ce9565b9050919050565b5f610bcc610bc783610bd3565b610851565b9050919050565b5f610bdd826108e3565b9050919050565b5f60015f8473ffffffffffffffffffffffffffffffffffffffff1673ffffffffffffffffffffffffffffffffffffffff1681526020019081526020015f205f8373ffffffffffffffffffffffffffffffffffffffff1673ffffffffffffffffffffffffffffffffffffffff1681526020019081526020015f2054905092915050565b5f610c71825f610ce9565b9050919050565b5f610cc86001610c86610627565b610c909190611d17565b610c98610ec4565b600a610ca49190611e79565b610cac610783565b610cb69190611d17565b8486611122909392919063ffffffff16565b905092915050565b5f33905090565b610ce4838383600161116f565b505050565b5f610d39610cf5610ec4565b600a610d019190611e79565b610d09610783565b610d139190611d17565b6001610d1d610627565b610d279190611d17565b8486611122909392919063ffffffff16565b905092915050565b5f610d4c8484610be4565b90507fffffffffffffffffffffffffffffffffffffffffffffffffffffffffffffffff811015610dce5781811015610dbf578281836040517ffb8f41b2000000000000000000000000000000000000000000000000000000008152600401610db693929190611ce2565b60405180910390fd5b610dcd84848484035f61116f565b5b50505050565b5f73ffffffffffffffffffffffffffffffffffffffff168373ffffffffffffffffffffffffffffffffffffffff1603610e44575f6040517f96c6fd1e000000000000000000000000000000000000000000000000000000008152600401610e3b9190611ad5565b60405180910390fd5b5f73ffffffffffffffffffffffffffffffffffffffff168273ffffffffffffffffffffffffffffffffffffffff1603610eb4575f6040517fec442f05000000000000000000000000000000000000000000000000000000008152600401610eab9190611ad5565b60405180910390fd5b610ebf83838361133e565b505050565b5f5f905090565b5f73ffffffffffffffffffffffffffffffffffffffff168273ffffffffffffffffffffffffffffffffffffffff1603610f3b575f6040517fec442f05000000000000000000000000000000000000000000000000000000008152600401610f329190611ad5565b60405180910390fd5b610f465f838361133e565b5050565b610f548483611557565b610f5e8382610ecb565b8273ffffffffffffffffffffffffffffffffffffffff168473ffffffffffffffffffffffffffffffffffffffff167fdcbc1c05240f31ff3ad067ef1ee35ce4997762752e3a095284754544f4c709d78484604051610fbd929190611ec3565b60405180910390a350505050565b5f73ffffffffffffffffffffffffffffffffffffffff168273ffffffffffffffffffffffffffffffffffffffff160361103b575f6040517f96c6fd1e0000000000000000000000000000000000000000000000000000000081526004016110329190611ad5565b60405180910390fd5b611046825f8361133e565b5050565b8273ffffffffffffffffffffffffffffffffffffffff168573ffffffffffffffffffffffffffffffffffffffff161461108957611088838683610d41565b5b6110938382610fcb565b61109d848361156e565b8273ffffffffffffffffffffffffffffffffffffffff168473ffffffffffffffffffffffffffffffffffffffff168673ffffffffffffffffffffffffffffffffffffffff167ffbde797d201c681b91056529119e0b02407c7bb96a4a2c75c01fc9667232c8db8585604051611113929190611ec3565b60405180910390a45050505050565b5f61115061112f83611584565b801561114b57505f848061114657611145611eea565b5b868809115b6115b1565b61115b8686866115bc565b6111659190611d17565b9050949350505050565b5f73ffffffffffffffffffffffffffffffffffffffff168473ffffffffffffffffffffffffffffffffffffffff16036111df575f6040517fe602df050000000000000000000000000000000000000000000000000000000081526004016111d69190611ad5565b60405180910390fd5b5f73ffffffffffffffffffffffffffffffffffffffff168373ffffffffffffffffffffffffffffffffffffffff160361124f575f6040517f94280d620000000000000000000000000000000000000000000000000000000081526004016112469190611ad5565b60405180910390fd5b8160015f8673ffffffffffffffffffffffffffffffffffffffff1673ffffffffffffffffffffffffffffffffffffffff1681526020019081526020015f205f8573ffffffffffffffffffffffffffffffffffffffff1673ffffffffffffffffffffffffffffffffffffffff1681526020019081526020015f20819055508015611338578273ffffffffffffffffffffffffffffffffffffffff168473ffffffffffffffffffffffffffffffffffffffff167f8c5be1e5ebec7d5bd14f71427d1e84f3dd0314c0f7b2291e5b200ac8c7c3b9258460405161132f9190611875565b60405180910390a35b50505050565b5f73ffffffffffffffffffffffffffffffffffffffff168373ffffffffffffffffffffffffffffffffffffffff160361138e578060025f8282546113829190611d17565b9250508190555061145c565b5f5f5f8573ffffffffffffffffffffffffffffffffffffffff1673ffffffffffffffffffffffffffffffffffffffff1681526020019081526020015f2054905081811015611417578381836040517fe450d38c00000000000000000000000000000000000000000000000000000000815260040161140e93929190611ce2565b60405180910390fd5b8181035f5f8673ffffffffffffffffffffffffffffffffffffffff1673ffffffffffffffffffffffffffffffffffffffff1681526020019081526020015f2081905550505b5f73ffffffffffffffffffffffffffffffffffffffff168273ffffffffffffffffffffffffffffffffffffffff16036114a3578060025f82825403925050819055506114ed565b805f5f8473ffffffffffffffffffffffffffffffffffffffff1673ffffffffffffffffffffffffffffffffffffffff1681526020019081526020015f205f82825401925050819055505b8173ffffffffffffffffffffffffffffffffffffffff168373ffffffffffffffffffffffffffffffffffffffff167fddf252ad1be2c89b69c2b068fc378daa952ba7f163c4a11628f55a4df523b3ef8360405161154a9190611875565b60405180910390a3505050565b61156a6115626107f3565b83308461169b565b5050565b6115806115796107f3565b83836116f0565b5050565b5f6001600283600381111561159c5761159b611f17565b5b6115a69190611f44565b60ff16149050919050565b5f8115159050919050565b5f5f5f6115c98686611743565b915091505f82036115ee578381816115e4576115e3611eea565b5b0492505050611694565b81841161160d5761160c6116075f861460126011611760565b611779565b5b5f8486880990508181118303925080820391505f855f038616905080860495508083049250600181825f0304019050808402831792505f600287600302189050808702600203810290508087026002038102905080870260020381029050808702600203810290508087026002038102905080870260020381029050808402955050505050505b9392505050565b6116a984848484600161178a565b6116ea57836040517f5274afe70000000000000000000000000000000000000000000000000000000081526004016116e19190611ad5565b60405180910390fd5b50505050565b6116fd83838360016117fb565b61173e57826040517f5274afe70000000000000000000000000000000000000000000000000000000081526004016117359190611ad5565b60405180910390fd5b505050565b5f5f5f198385098385029150818110828203039250509250929050565b5f61176a846115b1565b82841802821890509392505050565b634e487b715f52806020526024601cfd5b5f5f6323b872dd60e01b9050604051815f525f1960601c87166004525f1960601c86166024528460445260205f60645f5f8c5af1925060015f511483166117e85783831516156117dc573d5f823e3d81fd5b5f883b113d1516831692505b806040525f606052505095945050505050565b5f5f63a9059cbb60e01b9050604051815f525f1960601c86166004528460245260205f60445f5f8b5af1925060015f5114831661184f578383151615611843573d5f823e3d81fd5b5f873b113d1516831692505b806040525050949350505050565b5f819050919050565b61186f8161185d565b82525050565b5f6020820190506118885f830184611866565b92915050565b5f81519050919050565b5f82825260208201905092915050565b8281835e5f83830152505050565b5f601f19601f8301169050919050565b5f6118d08261188e565b6118da8185611898565b93506118ea8185602086016118a8565b6118f3816118b6565b840191505092915050565b5f6020820190508181035f83015261191681846118c6565b905092915050565b5f5ffd5b61192b8161185d565b8114611935575f5ffd5b50565b5f8135905061194681611922565b92915050565b5f602082840312156119615761196061191e565b5b5f61196e84828501611938565b91505092915050565b5f73ffffffffffffffffffffffffffffffffffffffff82169050919050565b5f6119a082611977565b9050919050565b6119b081611996565b81146119ba575f5ffd5b50565b5f813590506119cb816119a7565b92915050565b5f5f604083850312156119e7576119e661191e565b5b5f6119f4858286016119bd565b9250506020611a0585828601611938565b9150509250929050565b5f8115159050919050565b611a2381611a0f565b82525050565b5f602082019050611a3c5f830184611a1a565b92915050565b5f5f5f60608486031215611a5957611a5861191e565b5b5f611a66868287016119bd565b9350506020611a77868287016119bd565b9250506040611a8886828701611938565b9150509250925092565b5f60ff82169050919050565b611aa781611a92565b82525050565b5f602082019050611ac05f830184611a9e565b92915050565b611acf81611996565b82525050565b5f602082019050611ae85f830184611ac6565b92915050565b5f60208284031215611b0357611b0261191e565b5b5f611b10848285016119bd565b91505092915050565b5f5f60408385031215611b2f57611b2e61191e565b5b5f611b3c85828601611938565b9250506020611b4d858286016119bd565b9150509250929050565b5f5f5f60608486031215611b6e57611b6d61191e565b5b5f611b7b86828701611938565b9350506020611b8c868287016119bd565b9250506040611b9d868287016119bd565b9150509250925092565b5f5f60408385031215611bbd57611bbc61191e565b5b5f611bca858286016119bd565b9250506020611bdb858286016119bd565b9150509250929050565b5f81519050611bf381611922565b92915050565b5f60208284031215611c0e57611c0d61191e565b5b5f611c1b84828501611be5565b91505092915050565b7f4e487b71000000000000000000000000000000000000000000000000000000005f52602260045260245ffd5b5f6002820490506001821680611c6857607f821691505b602082108103611c7b57611c7a611c24565b5b50919050565b7f4e487b71000000000000000000000000000000000000000000000000000000005f52601160045260245ffd5b5f611cb882611a92565b9150611cc383611a92565b9250828201905060ff811115611cdc57611cdb611c81565b5b92915050565b5f606082019050611cf55f830186611ac6565b611d026020830185611866565b611d0f6040830184611866565b949350505050565b5f611d218261185d565b9150611d2c8361185d565b9250828201905080821115611d4457611d43611c81565b5b92915050565b5f8160011c9050919050565b5f5f8291508390505b6001851115611d9f57808604811115611d7b57611d7a611c81565b5b6001851615611d8a5780820291505b8081029050611d9885611d4a565b9450611d5f565b94509492505050565b5f82611db75760019050611e72565b81611dc4575f9050611e72565b8160018114611dda5760028114611de457611e13565b6001915050611e72565b60ff841115611df657611df5611c81565b5b8360020a915084821115611e0d57611e0c611c81565b5b50611e72565b5060208310610133831016604e8410600b8410161715611e485782820a905083811115611e4357611e42611c81565b5b611e72565b611e558484846001611d56565b92509050818404811115611e6c57611e6b611c81565b5b81810290505b9392505050565b5f611e838261185d565b9150611e8e83611a92565b9250611ebb7fffffffffffffffffffffffffffffffffffffffffffffffffffffffffffffffff8484611da8565b905092915050565b5f604082019050611ed65f830185611866565b611ee36020830184611866565b9392505050565b7f4e487b71000000000000000000000000000000000000000000000000000000005f52601260045260245ffd5b7f4e487b71000000000000000000000000000000000000000000000000000000005f52602160045260245ffd5b5f611f4e82611a92565b9150611f5983611a92565b925082611f6957611f68611eea565b5b82820690509291505056fea2646970667358221220603760503fd8937078553252e691098fd762fd4e345c23bb8391661daa47089464736f6c634300081e0033","linkReferences":{}},"methodIdentifiers":{"allowance(address,address)":"dd62ed3e","approve(address,uint256)":"095ea7b3","asset()":"38d52e0f","balanceOf(address)":"70a08231","burn(address,uint256)":"9dc29fac","convertToAssets(uint256)":"07a2d13a","convertToShares(uint256)":"c6e6f592","decimals()":"313ce567","deposit(uint256,address)":"6e553f65","maxDeposit(address)":"402d267d","maxMint(address)":"c63d75b6","maxRedeem(address)":"d905777e","maxWithdraw(address)":"ce96cb77","mint(address,uint256)":"40c10f19","mint(uint256,address)":"94bf804d","name()":"06fdde03","previewDeposit(uint256)":"ef8b30f7","previewMint(uint256)":"b3d7f6b9","previewRedeem(uint256)":"4cdad506","previewWithdraw(uint256)":"0a28a477","redeem(uint256,address,address)":"ba087652","symbol()":"95d89b41","totalAssets()":"01e1d114","totalSupply()":"18160ddd","transfer(address,uint256)":"a9059cbb","transferFrom(address,address,uint256)":"23b872dd","withdraw(uint256,address,address)":"b460af94"},"id":300}