{"abi":[{"type":"constructor","inputs":[{"name":"_ep","type":"address","internalType":"contract IEntryPoint"}],"stateMutability":"payable"},{"type":"function","name":"validateUserOp","inputs":[{"name":"userOp","type":"tuple","internalType":"struct PackedUserOperation","components":[{"name":"sender","type":"address","internalType":"address"},{"name":"nonce","type":"uint256","internalType":"uint256"},{"name":"initCode","type":"bytes","internalType":"bytes"},{"name":"callData","type":"bytes","internalType":"bytes"},{"name":"accountGasLimits","type":"bytes32","internalType":"bytes32"},{"name":"preVerificationGas","type":"uint256","internalType":"uint256"},{"name":"gasFees","type":"bytes32","internalType":"bytes32"},{"name":"paymasterAndData","type":"bytes","internalType":"bytes"},{"name":"signature","type":"bytes","internalType":"bytes"}]},{"name":"","type":"bytes32","internalType":"bytes32"},{"name":"missingAccountFunds","type":"uint256","internalType":"uint256"}],"outputs":[{"name":"validationData","type":"uint256","internalType":"uint256"}],"stateMutability":"nonpayable"}],"bytecode":{"object":"0x60806040526040516106ea3803806106ea833981810160405281019061002591906100d9565b805f5f6101000a81548173ffffffffffffffffffffffffffffffffffffffff021916908373ffffffffffffffffffffffffffffffffffffffff16021790555050610104565b5f5ffd5b5f73ffffffffffffffffffffffffffffffffffffffff82169050919050565b5f6100978261006e565b9050919050565b5f6100a88261008d565b9050919050565b6100b88161009e565b81146100c2575f5ffd5b50565b5f815190506100d3816100af565b92915050565b5f602082840312156100ee576100ed61006a565b5b5f6100fb848285016100c5565b91505092915050565b6105d9806101115f395ff3fe608060405234801561000f575f5ffd5b5060043610610029575f3560e01c806319822f7c1461002d575b5f5ffd5b610047600480360381019061004291906102b6565b61005d565b6040516100549190610331565b60405180910390f35b5f5f5f9054906101000a900473ffffffffffffffffffffffffffffffffffffffff1673ffffffffffffffffffffffffffffffffffffffff1663b760faf983306040518363ffffffff1660e01b81526004016100b89190610389565b5f604051808303818588803b1580156100cf575f5ffd5b505af11580156100e1573d5f5f3e3d5ffd5b50505050505f848061010001906100f891906103ae565b8101906101059190610410565b90505f610111866101ba565b90505f61011d876101cf565b90505f8760a0013582846101319190610468565b61013b9190610468565b90505f818761014a91906104c8565b90505f6101568a6101e4565b90505f818361016591906104f8565b90508681146101a9576040517f08c379a00000000000000000000000000000000000000000000000000000000081526004016101a090610585565b60405180910390fd5b5f9750505050505050509392505050565b5f6101c882608001356101f9565b9050919050565b5f6101dd8260800135610208565b9050919050565b5f6101f28260c001356101f9565b9050919050565b5f6080825f1c901c9050919050565b5f815f1c6fffffffffffffffffffffffffffffffff169050919050565b5f5ffd5b5f5ffd5b5f5ffd5b5f61012082840312156102475761024661022d565b5b81905092915050565b5f819050919050565b61026281610250565b811461026c575f5ffd5b50565b5f8135905061027d81610259565b92915050565b5f819050919050565b61029581610283565b811461029f575f5ffd5b50565b5f813590506102b08161028c565b92915050565b5f5f5f606084860312156102cd576102cc610225565b5b5f84013567ffffffffffffffff8111156102ea576102e9610229565b5b6102f686828701610231565b93505060206103078682870161026f565b9250506040610318868287016102a2565b9150509250925092565b61032b81610283565b82525050565b5f6020820190506103445f830184610322565b92915050565b5f73ffffffffffffffffffffffffffffffffffffffff82169050919050565b5f6103738261034a565b9050919050565b61038381610369565b82525050565b5f60208201905061039c5f83018461037a565b92915050565b5f5ffd5b5f5ffd5b5f5ffd5b5f5f833560016020038436030381126103ca576103c96103a2565b5b80840192508235915067ffffffffffffffff8211156103ec576103eb6103a6565b5b602083019250600182023603831315610408576104076103aa565b5b509250929050565b5f6020828403121561042557610424610225565b5b5f610432848285016102a2565b91505092915050565b7f4e487b71000000000000000000000000000000000000000000000000000000005f52601160045260245ffd5b5f61047282610283565b915061047d83610283565b92508282019050808211156104955761049461043b565b5b92915050565b7f4e487b71000000000000000000000000000000000000000000000000000000005f52601260045260245ffd5b5f6104d282610283565b91506104dd83610283565b9250826104ed576104ec61049b565b5b828204905092915050565b5f61050282610283565b915061050d83610283565b92508282039050818111156105255761052461043b565b5b92915050565b5f82825260208201905092915050565b7f5265766572742061667465722066697273742076616c69646174696f6e0000005f82015250565b5f61056f601d8361052b565b915061057a8261053b565b602082019050919050565b5f6020820190508181035f83015261059c81610563565b905091905056fea2646970667358221220bc0795192d9b8ce806c0eba63b092e37191c1bca60ad48f223403dd65636422b64736f6c634300081e0033","linkReferences":{}},"methodIdentifiers":{"validateUserOp((address,uint256,bytes,bytes,bytes32,uint256,bytes32,bytes,bytes),bytes32,uint256)":"19822f7c"},"id":33}