{"abi":[{"type":"function","name":"checkReturnValues","inputs":[{"name":"multicallToken","type":"address","internalType":"contract ERC20MulticallMock"},{"name":"recipients","type":"address[]","internalType":"address[]"},{"name":"amounts","type":"uint256[]","internalType":"uint256[]"}],"outputs":[],"stateMutability":"nonpayable"}],"bytecode":{"object":"0x6080604052348015600e575f5ffd5b506109178061001c5f395ff3fe608060405234801561000f575f5ffd5b5060043610610029575f3560e01c8063b568d0161461002d575b5f5ffd5b61004760048036038101906100429190610396565b610049565b005b5f8484905067ffffffffffffffff81111561006757610066610427565b5b60405190808252806020026020018201604052801561009a57816020015b60608152602001906001900390816100855790505b5090505f5f90505b85859050811015610189578673ffffffffffffffffffffffffffffffffffffffff1663a9059cbb8787848181106100dc576100db610454565b5b90506020020160208101906100f191906104ab565b86868581811061010457610103610454565b5b9050602002013560405160240161011c9291906104fd565b604051602081830303815290604052915060e01b6020820180517bffffffffffffffffffffffffffffffffffffffffffffffffffffffff838183161783525050505082828151811061017157610170610454565b5b602002602001018190525080806001019150506100a2565b505f8673ffffffffffffffffffffffffffffffffffffffff1663ac9650d8836040518263ffffffff1660e01b81526004016101c4919061064f565b5f604051808303815f875af11580156101df573d5f5f3e3d5ffd5b505050506040513d5f823e3d601f19601f82011682018060405250810190610207919061083a565b90505f5f90505b815181101561025a5781818151811061022a57610229610454565b5b602002602001015180602001905181019061024591906108b6565b61024d575f5ffd5b808060010191505061020e565b5050505050505050565b5f604051905090565b5f5ffd5b5f5ffd5b5f73ffffffffffffffffffffffffffffffffffffffff82169050919050565b5f61029e82610275565b9050919050565b5f6102af82610294565b9050919050565b6102bf816102a5565b81146102c9575f5ffd5b50565b5f813590506102da816102b6565b92915050565b5f5ffd5b5f5ffd5b5f5ffd5b5f5f83601f840112610301576103006102e0565b5b8235905067ffffffffffffffff81111561031e5761031d6102e4565b5b60208301915083602082028301111561033a576103396102e8565b5b9250929050565b5f5f83601f840112610356576103556102e0565b5b8235905067ffffffffffffffff811115610373576103726102e4565b5b60208301915083602082028301111561038f5761038e6102e8565b5b9250929050565b5f5f5f5f5f606086880312156103af576103ae61026d565b5b5f6103bc888289016102cc565b955050602086013567ffffffffffffffff8111156103dd576103dc610271565b5b6103e9888289016102ec565b9450945050604086013567ffffffffffffffff81111561040c5761040b610271565b5b61041888828901610341565b92509250509295509295909350565b7f4e487b71000000000000000000000000000000000000000000000000000000005f52604160045260245ffd5b7f4e487b71000000000000000000000000000000000000000000000000000000005f52603260045260245ffd5b61048a81610294565b8114610494575f5ffd5b50565b5f813590506104a581610481565b92915050565b5f602082840312156104c0576104bf61026d565b5b5f6104cd84828501610497565b91505092915050565b6104df81610294565b82525050565b5f819050919050565b6104f7816104e5565b82525050565b5f6040820190506105105f8301856104d6565b61051d60208301846104ee565b9392505050565b5f81519050919050565b5f82825260208201905092915050565b5f819050602082019050919050565b5f81519050919050565b5f82825260208201905092915050565b8281835e5f83830152505050565b5f601f19601f8301169050919050565b5f61058f8261054d565b6105998185610557565b93506105a9818560208601610567565b6105b281610575565b840191505092915050565b5f6105c88383610585565b905092915050565b5f602082019050919050565b5f6105e682610524565b6105f0818561052e565b9350836020820285016106028561053e565b805f5b8581101561063d578484038952815161061e85826105bd565b9450610629836105d0565b925060208a01995050600181019050610605565b50829750879550505050505092915050565b5f6020820190508181035f83015261066781846105dc565b905092915050565b61067882610575565b810181811067ffffffffffffffff8211171561069757610696610427565b5b80604052505050565b5f6106a9610264565b90506106b5828261066f565b919050565b5f67ffffffffffffffff8211156106d4576106d3610427565b5b602082029050602081019050919050565b5f5ffd5b5f67ffffffffffffffff82111561070357610702610427565b5b61070c82610575565b9050602081019050919050565b5f61072b610726846106e9565b6106a0565b905082815260208101848484011115610747576107466106e5565b5b610752848285610567565b509392505050565b5f82601f83011261076e5761076d6102e0565b5b815161077e848260208601610719565b91505092915050565b5f610799610794846106ba565b6106a0565b905080838252602082019050602084028301858111156107bc576107bb6102e8565b5b835b8181101561080357805167ffffffffffffffff8111156107e1576107e06102e0565b5b8086016107ee898261075a565b855260208501945050506020810190506107be565b5050509392505050565b5f82601f830112610821576108206102e0565b5b8151610831848260208601610787565b91505092915050565b5f6020828403121561084f5761084e61026d565b5b5f82015167ffffffffffffffff81111561086c5761086b610271565b5b6108788482850161080d565b91505092915050565b5f8115159050919050565b61089581610881565b811461089f575f5ffd5b50565b5f815190506108b08161088c565b92915050565b5f602082840312156108cb576108ca61026d565b5b5f6108d8848285016108a2565b9150509291505056fea26469706673582212207defd3bfb2be8a9913b3758db46fec63eb1c192f91de8d9c23f369b91f233c6b64736f6c634300081e0033","linkReferences":{}},"methodIdentifiers":{"checkReturnValues(address,address[],uint256[])":"b568d016"},"id":215}