{"abi":[{"type":"constructor","inputs":[{"name":"minter","type":"address","internalType":"address"},{"name":"burner","type":"address","internalType":"address"}],"stateMutability":"nonpayable"},{"type":"function","name":"BURNER_ROLE","inputs":[],"outputs":[{"name":"","type":"bytes32","internalType":"bytes32"}],"stateMutability":"view"},{"type":"function","name":"DEFAULT_ADMIN_ROLE","inputs":[],"outputs":[{"name":"","type":"bytes32","internalType":"bytes32"}],"stateMutability":"view"},{"type":"function","name":"MINTER_ROLE","inputs":[],"outputs":[{"name":"","type":"bytes32","internalType":"bytes32"}],"stateMutability":"view"},{"type":"function","name":"allowance","inputs":[{"name":"owner","type":"address","internalType":"address"},{"name":"spender","type":"address","internalType":"address"}],"outputs":[{"name":"","type":"uint256","internalType":"uint256"}],"stateMutability":"view"},{"type":"function","name":"approve","inputs":[{"name":"spender","type":"address","internalType":"address"},{"name":"value","type":"uint256","internalType":"uint256"}],"outputs":[{"name":"","type":"bool","internalType":"bool"}],"stateMutability":"nonpayable"},{"type":"function","name":"balanceOf","inputs":[{"name":"account","type":"address","internalType":"address"}],"outputs":[{"name":"","type":"uint256","internalType":"uint256"}],"stateMutability":"view"},{"type":"function","name":"burn","inputs":[{"name":"from","type":"address","internalType":"address"},{"name":"amount","type":"uint256","internalType":"uint256"}],"outputs":[],"stateMutability":"nonpayable"},{"type":"function","name":"decimals","inputs":[],"outputs":[{"name":"","type":"uint8","internalType":"uint8"}],"stateMutability":"view"},{"type":"function","name":"getRoleAdmin","inputs":[{"name":"role","type":"bytes32","internalType":"bytes32"}],"outputs":[{"name":"","type":"bytes32","internalType":"bytes32"}],"stateMutability":"view"},{"type":"function","name":"grantRole","inputs":[{"name":"role","type":"bytes32","internalType":"bytes32"},{"name":"account","type":"address","internalType":"address"}],"outputs":[],"stateMutability":"nonpayable"},{"type":"function","name":"hasRole","inputs":[{"name":"role","type":"bytes32","internalType":"bytes32"},{"name":"account","type":"address","internalType":"address"}],"outputs":[{"name":"","type":"bool","internalType":"bool"}],"stateMutability":"view"},{"type":"function","name":"mint","inputs":[{"name":"to","type":"address","internalType":"address"},{"name":"amount","type":"uint256","internalType":"uint256"}],"outputs":[],"stateMutability":"nonpayable"},{"type":"function","name":"name","inputs":[],"outputs":[{"name":"","type":"string","internalType":"string"}],"stateMutability":"view"},{"type":"function","name":"renounceRole","inputs":[{"name":"role","type":"bytes32","internalType":"bytes32"},{"name":"callerConfirmation","type":"address","internalType":"address"}],"outputs":[],"stateMutability":"nonpayable"},{"type":"function","name":"revokeRole","inputs":[{"name":"role","type":"bytes32","internalType":"bytes32"},{"name":"account","type":"address","internalType":"address"}],"outputs":[],"stateMutability":"nonpayable"},{"type":"function","name":"supportsInterface","inputs":[{"name":"interfaceId","type":"bytes4","internalType":"bytes4"}],"outputs":[{"name":"","type":"bool","internalType":"bool"}],"stateMutability":"view"},{"type":"function","name":"symbol","inputs":[],"outputs":[{"name":"","type":"string","internalType":"string"}],"stateMutability":"view"},{"type":"function","name":"totalSupply","inputs":[],"outputs":[{"name":"","type":"uint256","internalType":"uint256"}],"stateMutability":"view"},{"type":"function","name":"transfer","inputs":[{"name":"to","type":"address","internalType":"address"},{"name":"value","type":"uint256","internalType":"uint256"}],"outputs":[{"name":"","type":"bool","internalType":"bool"}],"stateMutability":"nonpayable"},{"type":"function","name":"transferFrom","inputs":[{"name":"from","type":"address","internalType":"address"},{"name":"to","type":"address","internalType":"address"},{"name":"value","type":"uint256","internalType":"uint256"}],"outputs":[{"name":"","type":"bool","internalType":"bool"}],"stateMutability":"nonpayable"},{"type":"event","name":"Approval","inputs":[{"name":"owner","type":"address","indexed":true,"internalType":"address"},{"name":"spender","type":"address","indexed":true,"internalType":"address"},{"name":"value","type":"uint256","indexed":false,"internalType":"uint256"}],"anonymous":false},{"type":"event","name":"RoleAdminChanged","inputs":[{"name":"role","type":"bytes32","indexed":true,"internalType":"bytes32"},{"name":"previousAdminRole","type":"bytes32","indexed":true,"internalType":"bytes32"},{"name":"newAdminRole","type":"bytes32","indexed":true,"internalType":"bytes32"}],"anonymous":false},{"type":"event","name":"RoleGranted","inputs":[{"name":"role","type":"bytes32","indexed":true,"internalType":"bytes32"},{"name":"account","type":"address","indexed":true,"internalType":"address"},{"name":"sender","type":"address","indexed":true,"internalType":"address"}],"anonymous":false},{"type":"event","name":"RoleRevoked","inputs":[{"name":"role","type":"bytes32","indexed":true,"internalType":"bytes32"},{"name":"account","type":"address","indexed":true,"internalType":"address"},{"name":"sender","type":"address","indexed":true,"internalType":"address"}],"anonymous":false},{"type":"event","name":"Transfer","inputs":[{"name":"from","type":"address","indexed":true,"internalType":"address"},{"name":"to","type":"address","indexed":true,"internalType":"address"},{"name":"value","type":"uint256","indexed":false,"internalType":"uint256"}],"anonymous":false},{"type":"error","name":"AccessControlBadConfirmation","inputs":[]},{"type":"error","name":"AccessControlUnauthorizedAccount","inputs":[{"name":"account","type":"address","internalType":"address"},{"name":"neededRole","type":"bytes32","internalType":"bytes32"}]},{"type":"error","name":"ERC20InsufficientAllowance","inputs":[{"name":"spender","type":"address","internalType":"address"},{"name":"allowance","type":"uint256","internalType":"uint256"},{"name":"needed","type":"uint256","internalType":"uint256"}]},{"type":"error","name":"ERC20InsufficientBalance","inputs":[{"name":"sender","type":"address","internalType":"address"},{"name":"balance","type":"uint256","internalType":"uint256"},{"name":"needed","type":"uint256","internalType":"uint256"}]},{"type":"error","name":"ERC20InvalidApprover","inputs":[{"name":"approver","type":"address","internalType":"address"}]},{"type":"error","name":"ERC20InvalidReceiver","inputs":[{"name":"receiver","type":"address","internalType":"address"}]},{"type":"error","name":"ERC20InvalidSender","inputs":[{"name":"sender","type":"address","internalType":"address"}]},{"type":"error","name":"ERC20InvalidSpender","inputs":[{"name":"spender","type":"address","internalType":"address"}]}],"bytecode":{"object":"0x608060405234801561000f575f5ffd5b50604051611db3380380611db3833981810160405281019061003191906102e7565b6040518060400160405280600781526020017f4d79546f6b656e000000000000000000000000000000000000000000000000008152506040518060400160405280600381526020017f544b4e000000000000000000000000000000000000000000000000000000000081525081600390816100ac9190610562565b5080600490816100bc9190610562565b5050506100ef7f9f2df0fed2c77648de5860a4cc508cd0818c85b8b8a1ab4ceeef8d981c8956a68361012860201b60201c565b506101207f3c11d16cbaffd01df69ce1c404f6340ee057498f5f00246190ea54220576a8488261012860201b60201c565b505050610631565b5f610139838361021e60201b60201c565b61021457600160055f8581526020019081526020015f205f015f8473ffffffffffffffffffffffffffffffffffffffff1673ffffffffffffffffffffffffffffffffffffffff1681526020019081526020015f205f6101000a81548160ff0219169083151502179055506101b161028260201b60201c565b73ffffffffffffffffffffffffffffffffffffffff168273ffffffffffffffffffffffffffffffffffffffff16847f2f8788117e7eff1d82e926ec794901d17c78024a50270940304540a733656f0d60405160405180910390a460019050610218565b5f90505b92915050565b5f60055f8481526020019081526020015f205f015f8373ffffffffffffffffffffffffffffffffffffffff1673ffffffffffffffffffffffffffffffffffffffff1681526020019081526020015f205f9054906101000a900460ff16905092915050565b5f33905090565b5f5ffd5b5f73ffffffffffffffffffffffffffffffffffffffff82169050919050565b5f6102b68261028d565b9050919050565b6102c6816102ac565b81146102d0575f5ffd5b50565b5f815190506102e1816102bd565b92915050565b5f5f604083850312156102fd576102fc610289565b5b5f61030a858286016102d3565b925050602061031b858286016102d3565b9150509250929050565b5f81519050919050565b7f4e487b71000000000000000000000000000000000000000000000000000000005f52604160045260245ffd5b7f4e487b71000000000000000000000000000000000000000000000000000000005f52602260045260245ffd5b5f60028204905060018216806103a057607f821691505b6020821081036103b3576103b261035c565b5b50919050565b5f819050815f5260205f209050919050565b5f6020601f8301049050919050565b5f82821b905092915050565b5f600883026104157fffffffffffffffffffffffffffffffffffffffffffffffffffffffffffffffff826103da565b61041f86836103da565b95508019841693508086168417925050509392505050565b5f819050919050565b5f819050919050565b5f61046361045e61045984610437565b610440565b610437565b9050919050565b5f819050919050565b61047c83610449565b6104906104888261046a565b8484546103e6565b825550505050565b5f5f905090565b6104a7610498565b6104b2818484610473565b505050565b5b818110156104d5576104ca5f8261049f565b6001810190506104b8565b5050565b601f82111561051a576104eb816103b9565b6104f4846103cb565b81016020851015610503578190505b61051761050f856103cb565b8301826104b7565b50505b505050565b5f82821c905092915050565b5f61053a5f198460080261051f565b1980831691505092915050565b5f610552838361052b565b9150826002028217905092915050565b61056b82610325565b67ffffffffffffffff8111156105845761058361032f565b5b61058e8254610389565b6105998282856104d9565b5f60209050601f8311600181146105ca575f84156105b8578287015190505b6105c28582610547565b865550610629565b601f1984166105d8866103b9565b5f5b828110156105ff578489015182556001820191506020850194506020810190506105da565b8683101561061c5784890151610618601f89168261052b565b8355505b6001600288020188555050505b505050505050565b6117758061063e5f395ff3fe608060405234801561000f575f5ffd5b506004361061012a575f3560e01c806340c10f19116100ab578063a217fddf1161006f578063a217fddf14610354578063a9059cbb14610372578063d5391393146103a2578063d547741f146103c0578063dd62ed3e146103dc5761012a565b806340c10f191461029e57806370a08231146102ba57806391d14854146102ea57806395d89b411461031a5780639dc29fac146103385761012a565b8063248a9ca3116100f2578063248a9ca3146101fa578063282c51f31461022a5780632f2ff15d14610248578063313ce5671461026457806336568abe146102825761012a565b806301ffc9a71461012e57806306fdde031461015e578063095ea7b31461017c57806318160ddd146101ac57806323b872dd146101ca575b5f5ffd5b6101486004803603810190610143919061126c565b61040c565b60405161015591906112b1565b60405180910390f35b610166610485565b604051610173919061133a565b60405180910390f35b610196600480360381019061019191906113e7565b610515565b6040516101a391906112b1565b60405180910390f35b6101b4610537565b6040516101c19190611434565b60405180910390f35b6101e460048036038101906101df919061144d565b610540565b6040516101f191906112b1565b60405180910390f35b610214600480360381019061020f91906114d0565b61056e565b604051610221919061150a565b60405180910390f35b61023261058b565b60405161023f919061150a565b60405180910390f35b610262600480360381019061025d9190611523565b6105af565b005b61026c6105d1565b604051610279919061157c565b60405180910390f35b61029c60048036038101906102979190611523565b6105d9565b005b6102b860048036038101906102b391906113e7565b610654565b005b6102d460048036038101906102cf9190611595565b61068d565b6040516102e19190611434565b60405180910390f35b61030460048036038101906102ff9190611523565b6106d2565b60405161031191906112b1565b60405180910390f35b610322610736565b60405161032f919061133a565b60405180910390f35b610352600480360381019061034d91906113e7565b6107c6565b005b61035c6107ff565b604051610369919061150a565b60405180910390f35b61038c600480360381019061038791906113e7565b610805565b60405161039991906112b1565b60405180910390f35b6103aa610827565b6040516103b7919061150a565b60405180910390f35b6103da60048036038101906103d59190611523565b61084b565b005b6103f660048036038101906103f191906115c0565b61086d565b6040516104039190611434565b60405180910390f35b5f7f7965db0b000000000000000000000000000000000000000000000000000000007bffffffffffffffffffffffffffffffffffffffffffffffffffffffff1916827bffffffffffffffffffffffffffffffffffffffffffffffffffffffff1916148061047e575061047d826108ef565b5b9050919050565b6060600380546104949061162b565b80601f01602080910402602001604051908101604052809291908181526020018280546104c09061162b565b801561050b5780601f106104e25761010080835404028352916020019161050b565b820191905f5260205f20905b8154815290600101906020018083116104ee57829003601f168201915b5050505050905090565b5f5f61051f610958565b905061052c81858561095f565b600191505092915050565b5f600254905090565b5f5f61054a610958565b9050610557858285610971565b610562858585610a04565b60019150509392505050565b5f60055f8381526020019081526020015f20600101549050919050565b7f3c11d16cbaffd01df69ce1c404f6340ee057498f5f00246190ea54220576a84881565b6105b88261056e565b6105c181610af4565b6105cb8383610b08565b50505050565b5f6012905090565b6105e1610958565b73ffffffffffffffffffffffffffffffffffffffff168173ffffffffffffffffffffffffffffffffffffffff1614610645576040517f6697b23200000000000000000000000000000000000000000000000000000000815260040160405180910390fd5b61064f8282610bf2565b505050565b7f9f2df0fed2c77648de5860a4cc508cd0818c85b8b8a1ab4ceeef8d981c8956a661067e81610af4565b6106888383610cdc565b505050565b5f5f5f8373ffffffffffffffffffffffffffffffffffffffff1673ffffffffffffffffffffffffffffffffffffffff1681526020019081526020015f20549050919050565b5f60055f8481526020019081526020015f205f015f8373ffffffffffffffffffffffffffffffffffffffff1673ffffffffffffffffffffffffffffffffffffffff1681526020019081526020015f205f9054906101000a900460ff16905092915050565b6060600480546107459061162b565b80601f01602080910402602001604051908101604052809291908181526020018280546107719061162b565b80156107bc5780601f10610793576101008083540402835291602001916107bc565b820191905f5260205f20905b81548152906001019060200180831161079f57829003601f168201915b5050505050905090565b7f3c11d16cbaffd01df69ce1c404f6340ee057498f5f00246190ea54220576a8486107f081610af4565b6107fa8383610d5b565b505050565b5f5f1b81565b5f5f61080f610958565b905061081c818585610a04565b600191505092915050565b7f9f2df0fed2c77648de5860a4cc508cd0818c85b8b8a1ab4ceeef8d981c8956a681565b6108548261056e565b61085d81610af4565b6108678383610bf2565b50505050565b5f60015f8473ffffffffffffffffffffffffffffffffffffffff1673ffffffffffffffffffffffffffffffffffffffff1681526020019081526020015f205f8373ffffffffffffffffffffffffffffffffffffffff1673ffffffffffffffffffffffffffffffffffffffff1681526020019081526020015f2054905092915050565b5f7f01ffc9a7000000000000000000000000000000000000000000000000000000007bffffffffffffffffffffffffffffffffffffffffffffffffffffffff1916827bffffffffffffffffffffffffffffffffffffffffffffffffffffffff1916149050919050565b5f33905090565b61096c8383836001610dda565b505050565b5f61097c848461086d565b90507fffffffffffffffffffffffffffffffffffffffffffffffffffffffffffffffff8110156109fe57818110156109ef578281836040517ffb8f41b20000000000000000000000000000000000000000000000000000000081526004016109e69392919061166a565b60405180910390fd5b6109fd84848484035f610dda565b5b50505050565b5f73ffffffffffffffffffffffffffffffffffffffff168373ffffffffffffffffffffffffffffffffffffffff1603610a74575f6040517f96c6fd1e000000000000000000000000000000000000000000000000000000008152600401610a6b919061169f565b60405180910390fd5b5f73ffffffffffffffffffffffffffffffffffffffff168273ffffffffffffffffffffffffffffffffffffffff1603610ae4575f6040517fec442f05000000000000000000000000000000000000000000000000000000008152600401610adb919061169f565b60405180910390fd5b610aef838383610fa9565b505050565b610b0581610b00610958565b6111c2565b50565b5f610b1383836106d2565b610be857600160055f8581526020019081526020015f205f015f8473ffffffffffffffffffffffffffffffffffffffff1673ffffffffffffffffffffffffffffffffffffffff1681526020019081526020015f205f6101000a81548160ff021916908315150217905550610b85610958565b73ffffffffffffffffffffffffffffffffffffffff168273ffffffffffffffffffffffffffffffffffffffff16847f2f8788117e7eff1d82e926ec794901d17c78024a50270940304540a733656f0d60405160405180910390a460019050610bec565b5f90505b92915050565b5f610bfd83836106d2565b15610cd2575f60055f8581526020019081526020015f205f015f8473ffffffffffffffffffffffffffffffffffffffff1673ffffffffffffffffffffffffffffffffffffffff1681526020019081526020015f205f6101000a81548160ff021916908315150217905550610c6f610958565b73ffffffffffffffffffffffffffffffffffffffff168273ffffffffffffffffffffffffffffffffffffffff16847ff6391f5c32d9c69d2a47ea670b442974b53935d1edc7fd64eb21e047a839171b60405160405180910390a460019050610cd6565b5f90505b92915050565b5f73ffffffffffffffffffffffffffffffffffffffff168273ffffffffffffffffffffffffffffffffffffffff1603610d4c575f6040517fec442f05000000000000000000000000000000000000000000000000000000008152600401610d43919061169f565b60405180910390fd5b610d575f8383610fa9565b5050565b5f73ffffffffffffffffffffffffffffffffffffffff168273ffffffffffffffffffffffffffffffffffffffff1603610dcb575f6040517f96c6fd1e000000000000000000000000000000000000000000000000000000008152600401610dc2919061169f565b60405180910390fd5b610dd6825f83610fa9565b5050565b5f73ffffffffffffffffffffffffffffffffffffffff168473ffffffffffffffffffffffffffffffffffffffff1603610e4a575f6040517fe602df05000000000000000000000000000000000000000000000000000000008152600401610e41919061169f565b60405180910390fd5b5f73ffffffffffffffffffffffffffffffffffffffff168373ffffffffffffffffffffffffffffffffffffffff1603610eba575f6040517f94280d62000000000000000000000000000000000000000000000000000000008152600401610eb1919061169f565b60405180910390fd5b8160015f8673ffffffffffffffffffffffffffffffffffffffff1673ffffffffffffffffffffffffffffffffffffffff1681526020019081526020015f205f8573ffffffffffffffffffffffffffffffffffffffff1673ffffffffffffffffffffffffffffffffffffffff1681526020019081526020015f20819055508015610fa3578273ffffffffffffffffffffffffffffffffffffffff168473ffffffffffffffffffffffffffffffffffffffff167f8c5be1e5ebec7d5bd14f71427d1e84f3dd0314c0f7b2291e5b200ac8c7c3b92584604051610f9a9190611434565b60405180910390a35b50505050565b5f73ffffffffffffffffffffffffffffffffffffffff168373ffffffffffffffffffffffffffffffffffffffff1603610ff9578060025f828254610fed91906116e5565b925050819055506110c7565b5f5f5f8573ffffffffffffffffffffffffffffffffffffffff1673ffffffffffffffffffffffffffffffffffffffff1681526020019081526020015f2054905081811015611082578381836040517fe450d38c0000000000000000000000000000000000000000000000000000000081526004016110799392919061166a565b60405180910390fd5b8181035f5f8673ffffffffffffffffffffffffffffffffffffffff1673ffffffffffffffffffffffffffffffffffffffff1681526020019081526020015f2081905550505b5f73ffffffffffffffffffffffffffffffffffffffff168273ffffffffffffffffffffffffffffffffffffffff160361110e578060025f8282540392505081905550611158565b805f5f8473ffffffffffffffffffffffffffffffffffffffff1673ffffffffffffffffffffffffffffffffffffffff1681526020019081526020015f205f82825401925050819055505b8173ffffffffffffffffffffffffffffffffffffffff168373ffffffffffffffffffffffffffffffffffffffff167fddf252ad1be2c89b69c2b068fc378daa952ba7f163c4a11628f55a4df523b3ef836040516111b59190611434565b60405180910390a3505050565b6111cc82826106d2565b61120f5780826040517fe2517d3f000000000000000000000000000000000000000000000000000000008152600401611206929190611718565b60405180910390fd5b5050565b5f5ffd5b5f7fffffffff0000000000000000000000000000000000000000000000000000000082169050919050565b61124b81611217565b8114611255575f5ffd5b50565b5f8135905061126681611242565b92915050565b5f6020828403121561128157611280611213565b5b5f61128e84828501611258565b91505092915050565b5f8115159050919050565b6112ab81611297565b82525050565b5f6020820190506112c45f8301846112a2565b92915050565b5f81519050919050565b5f82825260208201905092915050565b8281835e5f83830152505050565b5f601f19601f8301169050919050565b5f61130c826112ca565b61131681856112d4565b93506113268185602086016112e4565b61132f816112f2565b840191505092915050565b5f6020820190508181035f8301526113528184611302565b905092915050565b5f73ffffffffffffffffffffffffffffffffffffffff82169050919050565b5f6113838261135a565b9050919050565b61139381611379565b811461139d575f5ffd5b50565b5f813590506113ae8161138a565b92915050565b5f819050919050565b6113c6816113b4565b81146113d0575f5ffd5b50565b5f813590506113e1816113bd565b92915050565b5f5f604083850312156113fd576113fc611213565b5b5f61140a858286016113a0565b925050602061141b858286016113d3565b9150509250929050565b61142e816113b4565b82525050565b5f6020820190506114475f830184611425565b92915050565b5f5f5f6060848603121561146457611463611213565b5b5f611471868287016113a0565b9350506020611482868287016113a0565b9250506040611493868287016113d3565b9150509250925092565b5f819050919050565b6114af8161149d565b81146114b9575f5ffd5b50565b5f813590506114ca816114a6565b92915050565b5f602082840312156114e5576114e4611213565b5b5f6114f2848285016114bc565b91505092915050565b6115048161149d565b82525050565b5f60208201905061151d5f8301846114fb565b92915050565b5f5f6040838503121561153957611538611213565b5b5f611546858286016114bc565b9250506020611557858286016113a0565b9150509250929050565b5f60ff82169050919050565b61157681611561565b82525050565b5f60208201905061158f5f83018461156d565b92915050565b5f602082840312156115aa576115a9611213565b5b5f6115b7848285016113a0565b91505092915050565b5f5f604083850312156115d6576115d5611213565b5b5f6115e3858286016113a0565b92505060206115f4858286016113a0565b9150509250929050565b7f4e487b71000000000000000000000000000000000000000000000000000000005f52602260045260245ffd5b5f600282049050600182168061164257607f821691505b602082108103611655576116546115fe565b5b50919050565b61166481611379565b82525050565b5f60608201905061167d5f83018661165b565b61168a6020830185611425565b6116976040830184611425565b949350505050565b5f6020820190506116b25f83018461165b565b92915050565b7f4e487b71000000000000000000000000000000000000000000000000000000005f52601160045260245ffd5b5f6116ef826113b4565b91506116fa836113b4565b9250828201905080821115611712576117116116b8565b5b92915050565b5f60408201905061172b5f83018561165b565b61173860208301846114fb565b939250505056fea264697066735822122073b81b8fc1790a01de11734cfe7cdd15cef9df979385ef18255d45d0fe74efec64736f6c634300081e0033","linkReferences":{}},"methodIdentifiers":{"BURNER_ROLE()":"282c51f3","DEFAULT_ADMIN_ROLE()":"a217fddf","MINTER_ROLE()":"d5391393","allowance(address,address)":"dd62ed3e","approve(address,uint256)":"095ea7b3","balanceOf(address)":"70a08231","burn(address,uint256)":"9dc29fac","decimals()":"313ce567","getRoleAdmin(bytes32)":"248a9ca3","grantRole(bytes32,address)":"2f2ff15d","hasRole(bytes32,address)":"91d14854","mint(address,uint256)":"40c10f19","name()":"06fdde03","renounceRole(bytes32,address)":"36568abe","revokeRole(bytes32,address)":"d547741f","supportsInterface(bytes4)":"01ffc9a7","symbol()":"95d89b41","totalSupply()":"18160ddd","transfer(address,uint256)":"a9059cbb","transferFrom(address,address,uint256)":"23b872dd"},"id":242}