{"abi":[{"type":"constructor","inputs":[{"name":"trustedForwarder_","type":"address","internalType":"address"}],"stateMutability":"nonpayable"},{"type":"function","name":"isTrustedForwarder","inputs":[{"name":"forwarder","type":"address","internalType":"address"}],"outputs":[{"name":"","type":"bool","internalType":"bool"}],"stateMutability":"view"},{"type":"function","name":"mockFunction","inputs":[],"outputs":[{"name":"","type":"string","internalType":"string"}],"stateMutability":"payable"},{"type":"function","name":"mockFunctionEmptyReturn","inputs":[],"outputs":[],"stateMutability":"payable"},{"type":"function","name":"mockFunctionEmptyReturnWritesStorage","inputs":[{"name":"slot","type":"bytes32","internalType":"bytes32"},{"name":"value","type":"bytes32","internalType":"bytes32"}],"outputs":[],"stateMutability":"payable"},{"type":"function","name":"mockFunctionExtra","inputs":[],"outputs":[{"name":"","type":"address","internalType":"address"},{"name":"","type":"uint256","internalType":"uint256"}],"stateMutability":"payable"},{"type":"function","name":"mockFunctionNonPayable","inputs":[],"outputs":[{"name":"","type":"string","internalType":"string"}],"stateMutability":"nonpayable"},{"type":"function","name":"mockFunctionOutOfGas","inputs":[],"outputs":[],"stateMutability":"payable"},{"type":"function","name":"mockFunctionRevertsNoReason","inputs":[],"outputs":[],"stateMutability":"payable"},{"type":"function","name":"mockFunctionRevertsReason","inputs":[],"outputs":[],"stateMutability":"payable"},{"type":"function","name":"mockFunctionThrows","inputs":[],"outputs":[],"stateMutability":"payable"},{"type":"function","name":"mockFunctionWithArgs","inputs":[{"name":"a","type":"uint256","internalType":"uint256"},{"name":"b","type":"uint256","internalType":"uint256"}],"outputs":[{"name":"","type":"string","internalType":"string"}],"stateMutability":"payable"},{"type":"function","name":"mockFunctionWithArgsReturn","inputs":[{"name":"a","type":"uint256","internalType":"uint256"},{"name":"b","type":"uint256","internalType":"uint256"}],"outputs":[{"name":"","type":"uint256","internalType":"uint256"},{"name":"","type":"uint256","internalType":"uint256"}],"stateMutability":"payable"},{"type":"function","name":"mockFunctionWithArgsReturnWritesStorage","inputs":[{"name":"slot","type":"bytes32","internalType":"bytes32"},{"name":"value","type":"bytes32","internalType":"bytes32"},{"name":"a","type":"uint256","internalType":"uint256"},{"name":"b","type":"uint256","internalType":"uint256"}],"outputs":[{"name":"","type":"uint256","internalType":"uint256"},{"name":"","type":"uint256","internalType":"uint256"}],"stateMutability":"payable"},{"type":"function","name":"mockFunctionWritesStorage","inputs":[{"name":"slot","type":"bytes32","internalType":"bytes32"},{"name":"value","type":"bytes32","internalType":"bytes32"}],"outputs":[{"name":"","type":"string","internalType":"string"}],"stateMutability":"nonpayable"},{"type":"function","name":"mockStaticFunction","inputs":[],"outputs":[{"name":"","type":"string","internalType":"string"}],"stateMutability":"pure"},{"type":"function","name":"mockStaticFunctionWithArgsReturn","inputs":[{"name":"a","type":"uint256","internalType":"uint256"},{"name":"b","type":"uint256","internalType":"uint256"}],"outputs":[{"name":"","type":"uint256","internalType":"uint256"},{"name":"","type":"uint256","internalType":"uint256"}],"stateMutability":"pure"},{"type":"event","name":"MockFunctionCalled","inputs":[],"anonymous":false},{"type":"event","name":"MockFunctionCalledExtra","inputs":[{"name":"caller","type":"address","indexed":false,"internalType":"address"},{"name":"value","type":"uint256","indexed":false,"internalType":"uint256"}],"anonymous":false},{"type":"event","name":"MockFunctionCalledWithArgs","inputs":[{"name":"a","type":"uint256","indexed":false,"internalType":"uint256"},{"name":"b","type":"uint256","indexed":false,"internalType":"uint256"}],"anonymous":false}],"bytecode":{"object":"0x608060405234801561000f575f5ffd5b50604051610c5d380380610c5d833981810160405281019061003191906100d5565b8060015f6101000a81548173ffffffffffffffffffffffffffffffffffffffff021916908373ffffffffffffffffffffffffffffffffffffffff16021790555050610100565b5f5ffd5b5f73ffffffffffffffffffffffffffffffffffffffff82169050919050565b5f6100a48261007b565b9050919050565b6100b48161009a565b81146100be575f5ffd5b50565b5f815190506100cf816100ab565b92915050565b5f602082840312156100ea576100e9610077565b5b5f6100f7848285016100c1565b91505092915050565b610b508061010d5f395ff3fe6080604052600436106100f2575f3560e01c80634f1d61d211610089578063c292d81c11610058578063c292d81c1461029c578063c8fc7696146102a6578063f4c6005f146102d0578063fdb27325146102ec576100f2565b80634f1d61d2146101f4578063572b6c0514610225578063a09a84bb14610261578063a793ab4714610292576100f2565b80633bcfaa14116100c55780633bcfaa14146101715780633e6fec041461017b578063425397a21461019957806343c8d218146101d5576100f2565b80630c034968146100f65780630f63e42c146101005780632c81d6381461012a57806334edaa6d14610134575b5f5ffd5b6100fe61031c565b005b34801561010b575f5ffd5b50610114610357565b6040516101219190610783565b60405180910390f35b6101326103c0565b005b34801561013f575f5ffd5b5061015a600480360381019061015591906107da565b6103c4565b604051610168929190610827565b60405180910390f35b6101796103d3565b005b6101836103e3565b6040516101909190610783565b60405180910390f35b3480156101a4575f5ffd5b506101bf60048036038101906101ba9190610881565b61044c565b6040516101cc9190610783565b60405180910390f35b6101dd61048f565b6040516101eb9291906108fe565b60405180910390f35b61020e600480360381019061020991906107da565b6104d4565b60405161021c929190610827565b60405180910390f35b348015610230575f5ffd5b5061024b6004803603810190610246919061094f565b61051c565b6040516102589190610994565b60405180910390f35b61027b600480360381019061027691906109ad565b610574565b604051610289929190610827565b60405180910390f35b61029a6105c1565b005b6102a46105fc565b005b3480156102b1575f5ffd5b506102ba61062a565b6040516102c79190610783565b60405180910390f35b6102ea60048036038101906102e59190610881565b610667565b005b610306600480360381019061030191906107da565b61069a565b6040516103139190610783565b60405180910390f35b6040517f08c379a000000000000000000000000000000000000000000000000000000000815260040161034e90610a5b565b60405180910390fd5b60607f52c66ed6ec9ca819cba26fe2b2650059270d8981b295af300187a964f54a8c2360405160405180910390a16040518060400160405280600681526020017f3078313233340000000000000000000000000000000000000000000000000000815250905090565b5f5ffd5b5f5f8383915091509250929050565b5f6103e1576103e0610a79565b5b565b60607f52c66ed6ec9ca819cba26fe2b2650059270d8981b295af300187a964f54a8c2360405160405180910390a16040518060400160405280600681526020017f3078313233340000000000000000000000000000000000000000000000000000815250905090565b60608183556040518060400160405280600681526020017f3078313233340000000000000000000000000000000000000000000000000000815250905092915050565b5f5f7fffa33d28bf6be9e1816e7ffd5fd5a09754144c76f7c08b5325dd3f6ef2c288f633346040516104c29291906108fe565b60405180910390a13334915091509091565b5f5f7f2b42b3c9af4187c86225f201736204c7597312c830cb5c2537dff6ef24b946ae8484604051610507929190610827565b60405180910390a18383915091509250929050565b5f60015f9054906101000a900473ffffffffffffffffffffffffffffffffffffffff1673ffffffffffffffffffffffffffffffffffffffff168273ffffffffffffffffffffffffffffffffffffffff16149050919050565b5f5f8486557f2b42b3c9af4187c86225f201736204c7597312c830cb5c2537dff6ef24b946ae84846040516105aa929190610827565b60405180910390a183839150915094509492505050565b5f5f90505b5f81908060018154018082558091505060019003905f5260205f20015f9091909190915055806105f590610ad3565b90506105c6565b7f52c66ed6ec9ca819cba26fe2b2650059270d8981b295af300187a964f54a8c2360405160405180910390a1565b60606040518060400160405280600681526020017f3078313233340000000000000000000000000000000000000000000000000000815250905090565b8082557f52c66ed6ec9ca819cba26fe2b2650059270d8981b295af300187a964f54a8c2360405160405180910390a15050565b60607f2b42b3c9af4187c86225f201736204c7597312c830cb5c2537dff6ef24b946ae83836040516106cd929190610827565b60405180910390a16040518060400160405280600681526020017f3078313233340000000000000000000000000000000000000000000000000000815250905092915050565b5f81519050919050565b5f82825260208201905092915050565b8281835e5f83830152505050565b5f601f19601f8301169050919050565b5f61075582610713565b61075f818561071d565b935061076f81856020860161072d565b6107788161073b565b840191505092915050565b5f6020820190508181035f83015261079b818461074b565b905092915050565b5f5ffd5b5f819050919050565b6107b9816107a7565b81146107c3575f5ffd5b50565b5f813590506107d4816107b0565b92915050565b5f5f604083850312156107f0576107ef6107a3565b5b5f6107fd858286016107c6565b925050602061080e858286016107c6565b9150509250929050565b610821816107a7565b82525050565b5f60408201905061083a5f830185610818565b6108476020830184610818565b9392505050565b5f819050919050565b6108608161084e565b811461086a575f5ffd5b50565b5f8135905061087b81610857565b92915050565b5f5f60408385031215610897576108966107a3565b5b5f6108a48582860161086d565b92505060206108b58582860161086d565b9150509250929050565b5f73ffffffffffffffffffffffffffffffffffffffff82169050919050565b5f6108e8826108bf565b9050919050565b6108f8816108de565b82525050565b5f6040820190506109115f8301856108ef565b61091e6020830184610818565b9392505050565b61092e816108de565b8114610938575f5ffd5b50565b5f8135905061094981610925565b92915050565b5f60208284031215610964576109636107a3565b5b5f6109718482850161093b565b91505092915050565b5f8115159050919050565b61098e8161097a565b82525050565b5f6020820190506109a75f830184610985565b92915050565b5f5f5f5f608085870312156109c5576109c46107a3565b5b5f6109d28782880161086d565b94505060206109e38782880161086d565b93505060406109f4878288016107c6565b9250506060610a05878288016107c6565b91505092959194509250565b7f43616c6c52656365697665724d6f636b3a20726576657274696e6700000000005f82015250565b5f610a45601b8361071d565b9150610a5082610a11565b602082019050919050565b5f6020820190508181035f830152610a7281610a39565b9050919050565b7f4e487b71000000000000000000000000000000000000000000000000000000005f52600160045260245ffd5b7f4e487b71000000000000000000000000000000000000000000000000000000005f52601160045260245ffd5b5f610add826107a7565b91507fffffffffffffffffffffffffffffffffffffffffffffffffffffffffffffffff8203610b0f57610b0e610aa6565b5b60018201905091905056fea2646970667358221220867304d5b3d5ea41153117365659b09d989f31477b00e858ee9a1ba469e471a364736f6c634300081e0033","linkReferences":{}},"methodIdentifiers":{"isTrustedForwarder(address)":"572b6c05","mockFunction()":"3e6fec04","mockFunctionEmptyReturn()":"c292d81c","mockFunctionEmptyReturnWritesStorage(bytes32,bytes32)":"f4c6005f","mockFunctionExtra()":"43c8d218","mockFunctionNonPayable()":"0f63e42c","mockFunctionOutOfGas()":"a793ab47","mockFunctionRevertsNoReason()":"2c81d638","mockFunctionRevertsReason()":"0c034968","mockFunctionThrows()":"3bcfaa14","mockFunctionWithArgs(uint256,uint256)":"fdb27325","mockFunctionWithArgsReturn(uint256,uint256)":"4f1d61d2","mockFunctionWithArgsReturnWritesStorage(bytes32,bytes32,uint256,uint256)":"a09a84bb","mockFunctionWritesStorage(bytes32,bytes32)":"425397a2","mockStaticFunction()":"c8fc7696","mockStaticFunctionWithArgsReturn(uint256,uint256)":"34edaa6d"},"id":202}