{"abi":[{"type":"function","name":"mockFunction","inputs":[],"outputs":[{"name":"","type":"string","internalType":"string"}],"stateMutability":"payable"},{"type":"function","name":"mockFunctionEmptyReturn","inputs":[],"outputs":[],"stateMutability":"payable"},{"type":"function","name":"mockFunctionEmptyReturnWritesStorage","inputs":[{"name":"slot","type":"bytes32","internalType":"bytes32"},{"name":"value","type":"bytes32","internalType":"bytes32"}],"outputs":[],"stateMutability":"payable"},{"type":"function","name":"mockFunctionExtra","inputs":[],"outputs":[{"name":"","type":"address","internalType":"address"},{"name":"","type":"uint256","internalType":"uint256"}],"stateMutability":"payable"},{"type":"function","name":"mockFunctionNonPayable","inputs":[],"outputs":[{"name":"","type":"string","internalType":"string"}],"stateMutability":"nonpayable"},{"type":"function","name":"mockFunctionOutOfGas","inputs":[],"outputs":[],"stateMutability":"payable"},{"type":"function","name":"mockFunctionRevertsNoReason","inputs":[],"outputs":[],"stateMutability":"payable"},{"type":"function","name":"mockFunctionRevertsReason","inputs":[],"outputs":[],"stateMutability":"payable"},{"type":"function","name":"mockFunctionThrows","inputs":[],"outputs":[],"stateMutability":"payable"},{"type":"function","name":"mockFunctionWithArgs","inputs":[{"name":"a","type":"uint256","internalType":"uint256"},{"name":"b","type":"uint256","internalType":"uint256"}],"outputs":[{"name":"","type":"string","internalType":"string"}],"stateMutability":"payable"},{"type":"function","name":"mockFunctionWithArgsReturn","inputs":[{"name":"a","type":"uint256","internalType":"uint256"},{"name":"b","type":"uint256","internalType":"uint256"}],"outputs":[{"name":"","type":"uint256","internalType":"uint256"},{"name":"","type":"uint256","internalType":"uint256"}],"stateMutability":"payable"},{"type":"function","name":"mockFunctionWithArgsReturnWritesStorage","inputs":[{"name":"slot","type":"bytes32","internalType":"bytes32"},{"name":"value","type":"bytes32","internalType":"bytes32"},{"name":"a","type":"uint256","internalType":"uint256"},{"name":"b","type":"uint256","internalType":"uint256"}],"outputs":[{"name":"","type":"uint256","internalType":"uint256"},{"name":"","type":"uint256","internalType":"uint256"}],"stateMutability":"payable"},{"type":"function","name":"mockFunctionWritesStorage","inputs":[{"name":"slot","type":"bytes32","internalType":"bytes32"},{"name":"value","type":"bytes32","internalType":"bytes32"}],"outputs":[{"name":"","type":"string","internalType":"string"}],"stateMutability":"nonpayable"},{"type":"function","name":"mockStaticFunction","inputs":[],"outputs":[{"name":"","type":"string","internalType":"string"}],"stateMutability":"pure"},{"type":"function","name":"mockStaticFunctionWithArgsReturn","inputs":[{"name":"a","type":"uint256","internalType":"uint256"},{"name":"b","type":"uint256","internalType":"uint256"}],"outputs":[{"name":"","type":"uint256","internalType":"uint256"},{"name":"","type":"uint256","internalType":"uint256"}],"stateMutability":"pure"},{"type":"event","name":"MockFunctionCalled","inputs":[],"anonymous":false},{"type":"event","name":"MockFunctionCalledExtra","inputs":[{"name":"caller","type":"address","indexed":false,"internalType":"address"},{"name":"value","type":"uint256","indexed":false,"internalType":"uint256"}],"anonymous":false},{"type":"event","name":"MockFunctionCalledWithArgs","inputs":[{"name":"a","type":"uint256","indexed":false,"internalType":"uint256"},{"name":"b","type":"uint256","indexed":false,"internalType":"uint256"}],"anonymous":false}],"bytecode":{"object":"0x6080604052348015600e575f5ffd5b50610a298061001c5f395ff3fe6080604052600436106100e7575f3560e01c806343c8d21811610089578063c292d81c11610058578063c292d81c14610255578063c8fc76961461025f578063f4c6005f14610289578063fdb27325146102a5576100e7565b806343c8d218146101ca5780634f1d61d2146101e9578063a09a84bb1461021a578063a793ab471461024b576100e7565b806334edaa6d116100c557806334edaa6d146101295780633bcfaa14146101665780633e6fec0414610170578063425397a21461018e576100e7565b80630c034968146100eb5780630f63e42c146100f55780632c81d6381461011f575b5f5ffd5b6100f36102d5565b005b348015610100575f5ffd5b50610109610310565b60405161011691906106e4565b60405180910390f35b610127610379565b005b348015610134575f5ffd5b5061014f600480360381019061014a919061073b565b61037d565b60405161015d929190610788565b60405180910390f35b61016e61038c565b005b61017861039c565b60405161018591906106e4565b60405180910390f35b348015610199575f5ffd5b506101b460048036038101906101af91906107e2565b610405565b6040516101c191906106e4565b60405180910390f35b6101d2610448565b6040516101e092919061085f565b60405180910390f35b61020360048036038101906101fe919061073b565b61048d565b604051610211929190610788565b60405180910390f35b610234600480360381019061022f9190610886565b6104d5565b604051610242929190610788565b60405180910390f35b610253610522565b005b61025d61055d565b005b34801561026a575f5ffd5b5061027361058b565b60405161028091906106e4565b60405180910390f35b6102a3600480360381019061029e91906107e2565b6105c8565b005b6102bf60048036038101906102ba919061073b565b6105fb565b6040516102cc91906106e4565b60405180910390f35b6040517f08c379a000000000000000000000000000000000000000000000000000000000815260040161030790610934565b60405180910390fd5b60607f52c66ed6ec9ca819cba26fe2b2650059270d8981b295af300187a964f54a8c2360405160405180910390a16040518060400160405280600681526020017f3078313233340000000000000000000000000000000000000000000000000000815250905090565b5f5ffd5b5f5f8383915091509250929050565b5f61039a57610399610952565b5b565b60607f52c66ed6ec9ca819cba26fe2b2650059270d8981b295af300187a964f54a8c2360405160405180910390a16040518060400160405280600681526020017f3078313233340000000000000000000000000000000000000000000000000000815250905090565b60608183556040518060400160405280600681526020017f3078313233340000000000000000000000000000000000000000000000000000815250905092915050565b5f5f7fffa33d28bf6be9e1816e7ffd5fd5a09754144c76f7c08b5325dd3f6ef2c288f6333460405161047b92919061085f565b60405180910390a13334915091509091565b5f5f7f2b42b3c9af4187c86225f201736204c7597312c830cb5c2537dff6ef24b946ae84846040516104c0929190610788565b60405180910390a18383915091509250929050565b5f5f8486557f2b42b3c9af4187c86225f201736204c7597312c830cb5c2537dff6ef24b946ae848460405161050b929190610788565b60405180910390a183839150915094509492505050565b5f5f90505b5f81908060018154018082558091505060019003905f5260205f20015f909190919091505580610556906109ac565b9050610527565b7f52c66ed6ec9ca819cba26fe2b2650059270d8981b295af300187a964f54a8c2360405160405180910390a1565b60606040518060400160405280600681526020017f3078313233340000000000000000000000000000000000000000000000000000815250905090565b8082557f52c66ed6ec9ca819cba26fe2b2650059270d8981b295af300187a964f54a8c2360405160405180910390a15050565b60607f2b42b3c9af4187c86225f201736204c7597312c830cb5c2537dff6ef24b946ae838360405161062e929190610788565b60405180910390a16040518060400160405280600681526020017f3078313233340000000000000000000000000000000000000000000000000000815250905092915050565b5f81519050919050565b5f82825260208201905092915050565b8281835e5f83830152505050565b5f601f19601f8301169050919050565b5f6106b682610674565b6106c0818561067e565b93506106d081856020860161068e565b6106d98161069c565b840191505092915050565b5f6020820190508181035f8301526106fc81846106ac565b905092915050565b5f5ffd5b5f819050919050565b61071a81610708565b8114610724575f5ffd5b50565b5f8135905061073581610711565b92915050565b5f5f6040838503121561075157610750610704565b5b5f61075e85828601610727565b925050602061076f85828601610727565b9150509250929050565b61078281610708565b82525050565b5f60408201905061079b5f830185610779565b6107a86020830184610779565b9392505050565b5f819050919050565b6107c1816107af565b81146107cb575f5ffd5b50565b5f813590506107dc816107b8565b92915050565b5f5f604083850312156107f8576107f7610704565b5b5f610805858286016107ce565b9250506020610816858286016107ce565b9150509250929050565b5f73ffffffffffffffffffffffffffffffffffffffff82169050919050565b5f61084982610820565b9050919050565b6108598161083f565b82525050565b5f6040820190506108725f830185610850565b61087f6020830184610779565b9392505050565b5f5f5f5f6080858703121561089e5761089d610704565b5b5f6108ab878288016107ce565b94505060206108bc878288016107ce565b93505060406108cd87828801610727565b92505060606108de87828801610727565b91505092959194509250565b7f43616c6c52656365697665724d6f636b3a20726576657274696e6700000000005f82015250565b5f61091e601b8361067e565b9150610929826108ea565b602082019050919050565b5f6020820190508181035f83015261094b81610912565b9050919050565b7f4e487b71000000000000000000000000000000000000000000000000000000005f52600160045260245ffd5b7f4e487b71000000000000000000000000000000000000000000000000000000005f52601160045260245ffd5b5f6109b682610708565b91507fffffffffffffffffffffffffffffffffffffffffffffffffffffffffffffffff82036109e8576109e761097f565b5b60018201905091905056fea264697066735822122020771d1ac0947c03ade26e08fb542b6b705a72fc16ae4f4b0abe9f98dce43df164736f6c634300081e0033","linkReferences":{}},"methodIdentifiers":{"mockFunction()":"3e6fec04","mockFunctionEmptyReturn()":"c292d81c","mockFunctionEmptyReturnWritesStorage(bytes32,bytes32)":"f4c6005f","mockFunctionExtra()":"43c8d218","mockFunctionNonPayable()":"0f63e42c","mockFunctionOutOfGas()":"a793ab47","mockFunctionRevertsNoReason()":"2c81d638","mockFunctionRevertsReason()":"0c034968","mockFunctionThrows()":"3bcfaa14","mockFunctionWithArgs(uint256,uint256)":"fdb27325","mockFunctionWithArgsReturn(uint256,uint256)":"4f1d61d2","mockFunctionWithArgsReturnWritesStorage(bytes32,bytes32,uint256,uint256)":"a09a84bb","mockFunctionWritesStorage(bytes32,bytes32)":"425397a2","mockStaticFunction()":"c8fc7696","mockStaticFunctionWithArgsReturn(uint256,uint256)":"34edaa6d"},"id":202}