{"abi":[{"type":"function","name":"encode","inputs":[{"name":"input","type":"bytes","internalType":"bytes"}],"outputs":[{"name":"","type":"string","internalType":"string"}],"stateMutability":"pure"}],"bytecode":{"object":"0x6080604052348015600e575f5ffd5b506105908061001c5f395ff3fe608060405234801561000f575f5ffd5b5060043610610029575f3560e01c806312496a1b1461002d575b5f5ffd5b6100476004803603810190610042919061038c565b61005d565b6040516100549190610433565b60405180910390f35b60605f60405180602001604052807fffffffffffffffffffffffffffffffffffffffffffffffffffffffffffffffff815250905061009a836100a2565b915050919050565b60606100ae825f6100b5565b9050919050565b60605f8351036100d55760405180602001604052805f8152509050610239565b5f82610106576003600285516100eb9190610489565b6100f591906104e9565b60046101019190610519565b61012d565b60036002855160046101189190610519565b6101229190610489565b61012c91906104e9565b5b905060405191507f4142434445464748494a4b4c4d4e4f505152535455565758595a616263646566601f5261067083027f6768696a6b6c6d6e6f707172737475767778797a303132333435363738392b2f18603f526020820181810185865187016020810180515f82525b828410156101eb576003840193508351603f8160121c16518753600187019650603f81600c1c16518753600187019650603f8160061c16518753600187019650603f811651875360018701965050610198565b8082528861022a5760038a51066001811461020d576002811461022057610228565b603d6001880353603d6002880353610228565b603d60018803535b505b86885284604052505050505050505b92915050565b5f604051905090565b5f5ffd5b5f5ffd5b5f5ffd5b5f5ffd5b5f601f19601f8301169050919050565b7f4e487b71000000000000000000000000000000000000000000000000000000005f52604160045260245ffd5b61029e82610258565b810181811067ffffffffffffffff821117156102bd576102bc610268565b5b80604052505050565b5f6102cf61023f565b90506102db8282610295565b919050565b5f67ffffffffffffffff8211156102fa576102f9610268565b5b61030382610258565b9050602081019050919050565b828183375f83830152505050565b5f61033061032b846102e0565b6102c6565b90508281526020810184848401111561034c5761034b610254565b5b610357848285610310565b509392505050565b5f82601f83011261037357610372610250565b5b813561038384826020860161031e565b91505092915050565b5f602082840312156103a1576103a0610248565b5b5f82013567ffffffffffffffff8111156103be576103bd61024c565b5b6103ca8482850161035f565b91505092915050565b5f81519050919050565b5f82825260208201905092915050565b8281835e5f83830152505050565b5f610405826103d3565b61040f81856103dd565b935061041f8185602086016103ed565b61042881610258565b840191505092915050565b5f6020820190508181035f83015261044b81846103fb565b905092915050565b5f819050919050565b7f4e487b71000000000000000000000000000000000000000000000000000000005f52601160045260245ffd5b5f61049382610453565b915061049e83610453565b92508282019050808211156104b6576104b561045c565b5b92915050565b7f4e487b71000000000000000000000000000000000000000000000000000000005f52601260045260245ffd5b5f6104f382610453565b91506104fe83610453565b92508261050e5761050d6104bc565b5b828204905092915050565b5f61052382610453565b915061052e83610453565b925082820261053c81610453565b915082820484148315176105535761055261045c565b5b509291505056fea26469706673582212202a7d6d6941a145ff89db3bf606a35040a097053bdfebfbf46f89440edc3c3de064736f6c634300081e0033","linkReferences":{}},"methodIdentifiers":{"encode(bytes)":"12496a1b"},"id":200}