{"abi":[{"type":"function","name":"encodeUserOp","inputs":[{"name":"op","type":"tuple","internalType":"struct PackedUserOperation","components":[{"name":"sender","type":"address","internalType":"address"},{"name":"nonce","type":"uint256","internalType":"uint256"},{"name":"initCode","type":"bytes","internalType":"bytes"},{"name":"callData","type":"bytes","internalType":"bytes"},{"name":"accountGasLimits","type":"bytes32","internalType":"bytes32"},{"name":"preVerificationGas","type":"uint256","internalType":"uint256"},{"name":"gasFees","type":"bytes32","internalType":"bytes32"},{"name":"paymasterAndData","type":"bytes","internalType":"bytes"},{"name":"signature","type":"bytes","internalType":"bytes"}]}],"outputs":[{"name":"","type":"bytes","internalType":"bytes"}],"stateMutability":"pure"},{"type":"function","name":"isEip7702InitCode","inputs":[{"name":"initCode","type":"bytes","internalType":"bytes"}],"outputs":[{"name":"","type":"bool","internalType":"bool"}],"stateMutability":"pure"},{"type":"error","name":"InvalidPaymasterSignatureLength","inputs":[{"name":"dataLength","type":"uint256","internalType":"uint256"},{"name":"pmSignatureLength","type":"uint256","internalType":"uint256"}]}],"bytecode":{"object":"0x6080604052348015600e575f5ffd5b5061093b8061001c5f395ff3fe608060405234801561000f575f5ffd5b5060043610610034575f3560e01c80632d9bd99b14610038578063a124062e14610068575b5f5ffd5b610052600480360381019061004d919061043f565b610098565b60405161005f91906104a4565b60405180910390f35b610082600480360381019061007d91906104e0565b6100ab565b60405161008f9190610597565b60405180910390f35b5f6100a383836100c9565b905092915050565b60606100c25f5f1b8361013490919063ffffffff16565b9050919050565b5f60028383905010156100de575f905061012e565b5f8335905061770260f01b7dffffffffffffffffffffffffffffffffffffffffffffffffffffffffffff19166bffffffffffffffffffffffff1916816bffffffffffffffffffffffff1916149150505b92915050565b60605f835f0160208101906101499190610611565b90505f846020013590505f5f5f1b850361017a576101758680604001906101709190610648565b61022c565b61017c565b845b90505f6101978780606001906101929190610648565b61022c565b90505f876080013590505f8860a0013590505f8960c0013590505f6101ca8b8060e001906101c59190610648565b610242565b90507f29a0bca4af4be3421398da00295e58e6d7de38cb492214754cb6a47507dd6f8e888888888888888860405160200161020d999897969594939291906106e9565b6040516020818303038152906040529850505050505050505092915050565b5f60405182808583378082209250505092915050565b5f5f61024e8484610296565b90505f8111156102825761027a84846002600801840187879050036722e325a29743965660c01b6103b5565b915050610290565b61028c848461022c565b9150505b92915050565b5f5f83839050905060026008016034018110156102b6575f9150506103af565b5f8484600884039084926102cc9392919061077c565b906102d791906107f7565b90506722e325a29743965660c01b77ffffffffffffffffffffffffffffffffffffffffffffffff19168177ffffffffffffffffffffffffffffffffffffffffffffffff19161461032b575f925050506103af565b5f8585600260080185039080926103449392919061077c565b9061034f9190610880565b60f01c61ffff169050600260080160340183038111156103a85782816040517f07b9a19100000000000000000000000000000000000000000000000000000000815260040161039f9291906108de565b60405180910390fd5b8093505050505b92915050565b5f604051838682378284820152600884019350838120915050949350505050565b5f5ffd5b5f5ffd5b5f5ffd5b5f5ffd5b5f5ffd5b5f5f83601f8401126103ff576103fe6103de565b5b8235905067ffffffffffffffff81111561041c5761041b6103e2565b5b602083019150836001820283011115610438576104376103e6565b5b9250929050565b5f5f60208385031215610455576104546103d6565b5b5f83013567ffffffffffffffff811115610472576104716103da565b5b61047e858286016103ea565b92509250509250929050565b5f8115159050919050565b61049e8161048a565b82525050565b5f6020820190506104b75f830184610495565b92915050565b5f5ffd5b5f61012082840312156104d7576104d66104bd565b5b81905092915050565b5f602082840312156104f5576104f46103d6565b5b5f82013567ffffffffffffffff811115610512576105116103da565b5b61051e848285016104c1565b91505092915050565b5f81519050919050565b5f82825260208201905092915050565b8281835e5f83830152505050565b5f601f19601f8301169050919050565b5f61056982610527565b6105738185610531565b9350610583818560208601610541565b61058c8161054f565b840191505092915050565b5f6020820190508181035f8301526105af818461055f565b905092915050565b5f73ffffffffffffffffffffffffffffffffffffffff82169050919050565b5f6105e0826105b7565b9050919050565b6105f0816105d6565b81146105fa575f5ffd5b50565b5f8135905061060b816105e7565b92915050565b5f60208284031215610626576106256103d6565b5b5f610633848285016105fd565b91505092915050565b5f5ffd5b5f5ffd5b5f5ffd5b5f5f833560016020038436030381126106645761066361063c565b5b80840192508235915067ffffffffffffffff82111561068657610685610640565b5b6020830192506001820236038313156106a2576106a1610644565b5b509250929050565b5f819050919050565b6106bc816106aa565b82525050565b6106cb816105d6565b82525050565b5f819050919050565b6106e3816106d1565b82525050565b5f610120820190506106fd5f83018c6106b3565b61070a602083018b6106c2565b610717604083018a6106da565b61072460608301896106b3565b61073160808301886106b3565b61073e60a08301876106b3565b61074b60c08301866106da565b61075860e08301856106b3565b6107666101008301846106b3565b9a9950505050505050505050565b5f5ffd5b5f5ffd5b5f5f8585111561078f5761078e610774565b5b838611156107a05761079f610778565b5b6001850283019150848603905094509492505050565b5f82905092915050565b5f7fffffffffffffffff00000000000000000000000000000000000000000000000082169050919050565b5f82821b905092915050565b5f61080283836107b6565b8261080d81356107c0565b9250600882101561084d576108487fffffffffffffffff000000000000000000000000000000000000000000000000836008036008026107eb565b831692505b505092915050565b5f7fffff00000000000000000000000000000000000000000000000000000000000082169050919050565b5f61088b83836107b6565b826108968135610855565b925060028210156108d6576108d17fffff000000000000000000000000000000000000000000000000000000000000836002036008026107eb565b831692505b505092915050565b5f6040820190506108f15f8301856106da565b6108fe60208301846106da565b939250505056fea2646970667358221220cd5be8a4a42918074c8a6bf3a8b6d615b17dada3084369296e360fe352c8743864736f6c634300081e0033","linkReferences":{}},"methodIdentifiers":{"encodeUserOp((address,uint256,bytes,bytes,bytes32,uint256,bytes32,bytes,bytes))":"a124062e","isEip7702InitCode(bytes)":"2d9bd99b"},"id":52}