{"abi":[{"type":"constructor","inputs":[],"stateMutability":"nonpayable"},{"type":"function","name":"onApprovalReceived","inputs":[{"name":"owner","type":"address","internalType":"address"},{"name":"value","type":"uint256","internalType":"uint256"},{"name":"data","type":"bytes","internalType":"bytes"}],"outputs":[{"name":"","type":"bytes4","internalType":"bytes4"}],"stateMutability":"nonpayable"},{"type":"function","name":"setUp","inputs":[{"name":"retval","type":"bytes4","internalType":"bytes4"},{"name":"error","type":"uint8","internalType":"enum ERC1363SpenderMock.RevertType"}],"outputs":[],"stateMutability":"nonpayable"},{"type":"event","name":"Approved","inputs":[{"name":"owner","type":"address","indexed":false,"internalType":"address"},{"name":"value","type":"uint256","indexed":false,"internalType":"uint256"},{"name":"data","type":"bytes","indexed":false,"internalType":"bytes"}],"anonymous":false},{"type":"error","name":"CustomError","inputs":[{"name":"","type":"bytes4","internalType":"bytes4"}]}],"bytecode":{"object":"0x6080604052348015600e575f5ffd5b50637b04a2d060e01b5f5f6101000a81548163ffffffff021916908360e01c02179055505f5f60046101000a81548160ff021916908360048111156053576052605c565b5b02179055506089565b7f4e487b71000000000000000000000000000000000000000000000000000000005f52602160045260245ffd5b6106d7806100965f395ff3fe608060405234801561000f575f5ffd5b5060043610610034575f3560e01c806379317985146100385780637b04a2d014610054575b5f5ffd5b610052600480360381019061004d9190610324565b610084565b005b61006e60048036038101906100699190610450565b6100cd565b60405161007b91906104d0565b60405180910390f35b815f5f6101000a81548163ffffffff021916908360e01c0217905550805f60046101000a81548160ff021916908360048111156100c4576100c36104e9565b5b02179055505050565b5f600160048111156100e2576100e16104e9565b5b5f60049054906101000a900460ff166004811115610103576101026104e9565b5b0361010c575f5ffd5b600260048111156101205761011f6104e9565b5b5f60049054906101000a900460ff166004811115610141576101406104e9565b5b03610181576040517f08c379a000000000000000000000000000000000000000000000000000000000815260040161017890610570565b60405180910390fd5b60036004811115610195576101946104e9565b5b5f60049054906101000a900460ff1660048111156101b6576101b56104e9565b5b03610205575f5f9054906101000a900460e01b6040517f66435bc00000000000000000000000000000000000000000000000000000000081526004016101fc91906104d0565b60405180910390fd5b600480811115610218576102176104e9565b5b5f60049054906101000a900460ff166004811115610239576102386104e9565b5b0361024f575f5f5f61024b91906105bb565b9050505b7f1fa7af237aead0c77cd0a035a35b79014351b77f7edcf8d0d003cf14d90fc631858585856040516102849493929190610663565b60405180910390a15f5f9054906101000a900460e01b9050949350505050565b5f5ffd5b5f5ffd5b5f7fffffffff0000000000000000000000000000000000000000000000000000000082169050919050565b6102e0816102ac565b81146102ea575f5ffd5b50565b5f813590506102fb816102d7565b92915050565b6005811061030d575f5ffd5b50565b5f8135905061031e81610301565b92915050565b5f5f6040838503121561033a576103396102a4565b5b5f610347858286016102ed565b925050602061035885828601610310565b9150509250929050565b5f73ffffffffffffffffffffffffffffffffffffffff82169050919050565b5f61038b82610362565b9050919050565b61039b81610381565b81146103a5575f5ffd5b50565b5f813590506103b681610392565b92915050565b5f819050919050565b6103ce816103bc565b81146103d8575f5ffd5b50565b5f813590506103e9816103c5565b92915050565b5f5ffd5b5f5ffd5b5f5ffd5b5f5f83601f8401126104105761040f6103ef565b5b8235905067ffffffffffffffff81111561042d5761042c6103f3565b5b602083019150836001820283011115610449576104486103f7565b5b9250929050565b5f5f5f5f60608587031215610468576104676102a4565b5b5f610475878288016103a8565b9450506020610486878288016103db565b935050604085013567ffffffffffffffff8111156104a7576104a66102a8565b5b6104b3878288016103fb565b925092505092959194509250565b6104ca816102ac565b82525050565b5f6020820190506104e35f8301846104c1565b92915050565b7f4e487b71000000000000000000000000000000000000000000000000000000005f52602160045260245ffd5b5f82825260208201905092915050565b7f455243313336335370656e6465724d6f636b3a20726576657274696e670000005f82015250565b5f61055a601d83610516565b915061056582610526565b602082019050919050565b5f6020820190508181035f8301526105878161054e565b9050919050565b7f4e487b71000000000000000000000000000000000000000000000000000000005f52601260045260245ffd5b5f6105c5826103bc565b91506105d0836103bc565b9250826105e0576105df61058e565b5b828204905092915050565b6105f481610381565b82525050565b610603816103bc565b82525050565b5f82825260208201905092915050565b828183375f83830152505050565b5f601f19601f8301169050919050565b5f6106428385610609565b935061064f838584610619565b61065883610627565b840190509392505050565b5f6060820190506106765f8301876105eb565b61068360208301866105fa565b8181036040830152610696818486610637565b90509594505050505056fea264697066735822122008f4cf35dc60963a5a6664a3144ef027ffbfec9a80fedf7ce45c55d00bd29bae64736f6c634300081e0033","linkReferences":{}},"methodIdentifiers":{"onApprovalReceived(address,uint256,bytes)":"7b04a2d0","setUp(bytes4,uint8)":"79317985"},"id":283}