{"abi":[{"type":"function","name":"depth","inputs":[],"outputs":[{"name":"","type":"uint256","internalType":"uint256"}],"stateMutability":"view"},{"type":"function","name":"nextLeafIndex","inputs":[],"outputs":[{"name":"","type":"uint256","internalType":"uint256"}],"stateMutability":"view"},{"type":"function","name":"push","inputs":[{"name":"leaf","type":"bytes32","internalType":"bytes32"}],"outputs":[],"stateMutability":"nonpayable"},{"type":"function","name":"root","inputs":[],"outputs":[{"name":"","type":"bytes32","internalType":"bytes32"}],"stateMutability":"view"},{"type":"function","name":"setup","inputs":[{"name":"_depth","type":"uint8","internalType":"uint8"},{"name":"_zero","type":"bytes32","internalType":"bytes32"}],"outputs":[],"stateMutability":"nonpayable"},{"type":"function","name":"sides","inputs":[{"name":"i","type":"uint256","internalType":"uint256"}],"outputs":[{"name":"","type":"bytes32","internalType":"bytes32"}],"stateMutability":"view"},{"type":"function","name":"update","inputs":[{"name":"index","type":"uint256","internalType":"uint256"},{"name":"oldValue","type":"bytes32","internalType":"bytes32"},{"name":"newValue","type":"bytes32","internalType":"bytes32"},{"name":"proof","type":"bytes32[]","internalType":"bytes32[]"}],"outputs":[],"stateMutability":"nonpayable"},{"type":"function","name":"zeros","inputs":[{"name":"i","type":"uint256","internalType":"uint256"}],"outputs":[{"name":"","type":"bytes32","internalType":"bytes32"}],"stateMutability":"view"},{"type":"event","name":"LeafInserted","inputs":[{"name":"leaf","type":"bytes32","indexed":false,"internalType":"bytes32"},{"name":"index","type":"uint256","indexed":false,"internalType":"uint256"},{"name":"root","type":"bytes32","indexed":false,"internalType":"bytes32"}],"anonymous":false},{"type":"event","name":"LeafUpdated","inputs":[{"name":"oldLeaf","type":"bytes32","indexed":false,"internalType":"bytes32"},{"name":"newLeaf","type":"bytes32","indexed":false,"internalType":"bytes32"},{"name":"index","type":"uint256","indexed":false,"internalType":"uint256"},{"name":"root","type":"bytes32","indexed":false,"internalType":"bytes32"}],"anonymous":false},{"type":"error","name":"MerkleTreeUpdateInvalidIndex","inputs":[{"name":"index","type":"uint256","internalType":"uint256"},{"name":"length","type":"uint256","internalType":"uint256"}]},{"type":"error","name":"MerkleTreeUpdateInvalidProof","inputs":[]}],"bytecode":{"object":"0x6080604052348015600e575f5ffd5b50610c878061001c5f395ff3fe608060405234801561000f575f5ffd5b5060043610610086575f3560e01c8063b3eb738a11610059578063b3eb738a146100fe578063b66987b61461012e578063e82955881461014a578063ebf0c7171461017a57610086565b80630be4f4221461008a5780631935699e146100a8578063631c56ef146100c4578063b298e36b146100e2575b5f5ffd5b610092610198565b60405161009f919061076b565b60405180910390f35b6100c260048036038101906100bd9190610942565b6101a2565b005b6100cc610248565b6040516100d9919061076b565b60405180910390f35b6100fc60048036038101906100f791906109c2565b610257565b005b610118600480360381019061011391906109ed565b6102b7565b6040516101259190610a27565b60405180910390f35b61014860048036038101906101439190610a76565b6102de565b005b610164600480360381019061015f91906109ed565b6102fd565b6040516101719190610a27565b60405180910390f35b610182610324565b60405161018f9190610a27565b60405180910390f35b5f5f5f0154905090565b5f5f6101bd868686865f61032a90949392919063ffffffff16565b9150915060035482146101fc576040517fdd4d934e00000000000000000000000000000000000000000000000000000000815260040160405180910390fd5b7fe03551f7503c4040ae401d457f073dc1e751b1e9f8ccc5627854fa7a7f397776858588846040516102319493929190610ab4565b60405180910390a180600381905550505050505050565b5f6102525f61034a565b905090565b5f5f61026c835f61035a90919063ffffffff16565b915091507fd50e83984b64a106ac2ee6314d689ec4d2a656d5ece6d94c585796944b52240c8383836040516102a393929190610af7565b60405180910390a180600381905550505050565b5f5f60010182815481106102ce576102cd610b2c565b5b905f5260205f2001549050919050565b6102f382825f6103749092919063ffffffff16565b6003819055505050565b5f5f600201828154811061031457610313610b2c565b5b905f5260205f2001549050919050565b60035481565b5f5f61033c878787878761038c6103b6565b915091509550959350505050565b5f81600201805490509050919050565b5f5f610369848461038c610569565b915091509250929050565b5f61038384848461038c610655565b90509392505050565b5f8183106103a35761039e82846106ce565b6103ae565b6103ad83836106ce565b5b905092915050565b5f5f5f885f015490508088106104055787816040517ff56d0cca0000000000000000000000000000000000000000000000000000000081526004016103fc929190610b59565b60405180910390fd5b5f61040f8a61034a565b90505f8a60010190505f6001840390505f8b90505f8b90505f8b90505f5f90505b868163ffffffff161015610550575f5f6002868161045157610450610b80565b5b06149050600186901c9550600185901c945080801561046f57508585145b156104cd575f610485888463ffffffff166106e2565b905084815f0154146104c3576040517fdd4d934e00000000000000000000000000000000000000000000000000000000815260040160405180910390fd5b83815f0181905550505b5f8d8363ffffffff16815181106104e7576104e6610b2c565b5b60200260200101519050610517826104ff5781610501565b855b8361050c578661050e565b825b8f63ffffffff16565b945061053f826105275781610529565b845b836105345785610536565b825b8f63ffffffff16565b935050508080600101915050610430565b5081819850985050505050505050965096945050505050565b5f5f5f6105758661034a565b9050855f015f81548092919061058a90610bda565b919050559250806001901b83106105a6576105a56041610713565b5b5f8390505f8690505f5f90505b83811015610643575f5f6002856105ca9190610c21565b14905080156105e857826105e18b600101846106e2565b5f01819055505b61062c81610605576105fd8b600101846106e2565b5f0154610607565b835b826106125784610623565b61061f8c600201856106e2565b5f01545b8a63ffffffff16565b9250600184901c93505080806001019150506105b3565b50848194509450505050935093915050565b5f610666856001018560ff16610724565b610676856002018560ff16610724565b5f8390505f5f90505b8560ff168110156106b9578161069888600201836106e2565b5f01819055506106ac82838663ffffffff16565b915080600101905061067f565b505f865f018190555080915050949350505050565b5f825f528160205260405f20905092915050565b5f5f83905061070a610705846106f78461072b565b61073a90919063ffffffff16565b61074a565b91505092915050565b634e487b715f52806020526024601cfd5b8082555050565b5f815f5260205f209050919050565b5f81835f1c015f1b905092915050565b5f819050919050565b5f819050919050565b61076581610753565b82525050565b5f60208201905061077e5f83018461075c565b92915050565b5f604051905090565b5f5ffd5b5f5ffd5b61079e81610753565b81146107a8575f5ffd5b50565b5f813590506107b981610795565b92915050565b5f819050919050565b6107d1816107bf565b81146107db575f5ffd5b50565b5f813590506107ec816107c8565b92915050565b5f5ffd5b5f601f19601f8301169050919050565b7f4e487b71000000000000000000000000000000000000000000000000000000005f52604160045260245ffd5b61083c826107f6565b810181811067ffffffffffffffff8211171561085b5761085a610806565b5b80604052505050565b5f61086d610784565b90506108798282610833565b919050565b5f67ffffffffffffffff82111561089857610897610806565b5b602082029050602081019050919050565b5f5ffd5b5f6108bf6108ba8461087e565b610864565b905080838252602082019050602084028301858111156108e2576108e16108a9565b5b835b8181101561090b57806108f788826107de565b8452602084019350506020810190506108e4565b5050509392505050565b5f82601f830112610929576109286107f2565b5b81356109398482602086016108ad565b91505092915050565b5f5f5f5f6080858703121561095a5761095961078d565b5b5f610967878288016107ab565b9450506020610978878288016107de565b9350506040610989878288016107de565b925050606085013567ffffffffffffffff8111156109aa576109a9610791565b5b6109b687828801610915565b91505092959194509250565b5f602082840312156109d7576109d661078d565b5b5f6109e4848285016107de565b91505092915050565b5f60208284031215610a0257610a0161078d565b5b5f610a0f848285016107ab565b91505092915050565b610a21816107bf565b82525050565b5f602082019050610a3a5f830184610a18565b92915050565b5f60ff82169050919050565b610a5581610a40565b8114610a5f575f5ffd5b50565b5f81359050610a7081610a4c565b92915050565b5f5f60408385031215610a8c57610a8b61078d565b5b5f610a9985828601610a62565b9250506020610aaa858286016107de565b9150509250929050565b5f608082019050610ac75f830187610a18565b610ad46020830186610a18565b610ae1604083018561075c565b610aee6060830184610a18565b95945050505050565b5f606082019050610b0a5f830186610a18565b610b17602083018561075c565b610b246040830184610a18565b949350505050565b7f4e487b71000000000000000000000000000000000000000000000000000000005f52603260045260245ffd5b5f604082019050610b6c5f83018561075c565b610b79602083018461075c565b9392505050565b7f4e487b71000000000000000000000000000000000000000000000000000000005f52601260045260245ffd5b7f4e487b71000000000000000000000000000000000000000000000000000000005f52601160045260245ffd5b5f610be482610753565b91507fffffffffffffffffffffffffffffffffffffffffffffffffffffffffffffffff8203610c1657610c15610bad565b5b600182019050919050565b5f610c2b82610753565b9150610c3683610753565b925082610c4657610c45610b80565b5b82820690509291505056fea2646970667358221220f2f28a5c5b2b0b4103e59b0e57efe87e47764d3814afb9799a2035428cd6fb0c64736f6c634300081e0033","linkReferences":{}},"methodIdentifiers":{"depth()":"631c56ef","nextLeafIndex()":"0be4f422","push(bytes32)":"b298e36b","root()":"ebf0c717","setup(uint8,bytes32)":"b66987b6","sides(uint256)":"b3eb738a","update(uint256,bytes32,bytes32,bytes32[])":"1935699e","zeros(uint256)":"e8295588"},"id":214}