{"abi":[{"type":"function","name":"bar","inputs":[],"outputs":[],"stateMutability":"nonpayable"},{"type":"function","name":"foo","inputs":[],"outputs":[],"stateMutability":"nonpayable"},{"type":"function","name":"multicall","inputs":[{"name":"data","type":"bytes[]","internalType":"bytes[]"}],"outputs":[{"name":"results","type":"bytes[]","internalType":"bytes[]"}],"stateMutability":"nonpayable"},{"type":"error","name":"AddressEmptyCode","inputs":[{"name":"target","type":"address","internalType":"address"}]},{"type":"error","name":"FailedCall","inputs":[]}],"bytecode":{"object":"0x6080604052348015600e575f5ffd5b5061083f8061001c5f395ff3fe608060405234801561000f575f5ffd5b506004361061003f575f3560e01c8063ac9650d814610043578063c298557814610073578063febb0f7e1461007d575b5f5ffd5b61005d60048036038101906100589190610417565b610087565b60405161006a919061058d565b60405180910390f35b61007b610268565b005b61008561026a565b005b60605f61009261026c565b73ffffffffffffffffffffffffffffffffffffffff163373ffffffffffffffffffffffffffffffffffffffff1614610132575f366100ce610273565b5f3690506100dc91906105e3565b9080926100eb9392919061061e565b8080601f0160208091040260200160405190810160405280939291908181526020018383808284375f81840152601f19601f82011690508083019250505050505050610180565b5f67ffffffffffffffff81111561014c5761014b610658565b5b6040519080825280601f01601f19166020018201604052801561017e5781602001600182028036833780820191505090505b505b90508383905067ffffffffffffffff81111561019f5761019e610658565b5b6040519080825280602002602001820160405280156101d257816020015b60608152602001906001900390816101bd5790505b5091505f5f90505b8484905081101561026057610235308686848181106101fc576101fb610685565b5b905060200281019061020e91906106be565b856040516020016102219392919061078c565b60405160208183030381529060405261027a565b83828151811061024857610247610685565b5b602002602001018190525080806001019150506101da565b505092915050565b565b565b5f33905090565b5f5f905090565b60605f610287848461036b565b90508080156102bd57505f61029a61037f565b11806102bc57505f8473ffffffffffffffffffffffffffffffffffffffff163b115b5b156102d2576102ca610386565b915050610365565b801561031557836040517f9996b31500000000000000000000000000000000000000000000000000000000815260040161030c91906107f0565b60405180910390fd5b5f61031e61037f565b11156103315761032c6103a3565b610363565b6040517fd6bda27500000000000000000000000000000000000000000000000000000000815260040160405180910390fd5b505b92915050565b5f5f5f835160208501865af4905092915050565b5f3d905090565b606060405190503d81523d5f602083013e3d602001810160405290565b6040513d5f823e3d81fd5b5f5ffd5b5f5ffd5b5f5ffd5b5f5ffd5b5f5ffd5b5f5f83601f8401126103d7576103d66103b6565b5b8235905067ffffffffffffffff8111156103f4576103f36103ba565b5b6020830191508360208202830111156104105761040f6103be565b5b9250929050565b5f5f6020838503121561042d5761042c6103ae565b5b5f83013567ffffffffffffffff81111561044a576104496103b2565b5b610456858286016103c2565b92509250509250929050565b5f81519050919050565b5f82825260208201905092915050565b5f819050602082019050919050565b5f81519050919050565b5f82825260208201905092915050565b8281835e5f83830152505050565b5f601f19601f8301169050919050565b5f6104cd8261048b565b6104d78185610495565b93506104e78185602086016104a5565b6104f0816104b3565b840191505092915050565b5f61050683836104c3565b905092915050565b5f602082019050919050565b5f61052482610462565b61052e818561046c565b9350836020820285016105408561047c565b805f5b8581101561057b578484038952815161055c85826104fb565b94506105678361050e565b925060208a01995050600181019050610543565b50829750879550505050505092915050565b5f6020820190508181035f8301526105a5818461051a565b905092915050565b5f819050919050565b7f4e487b71000000000000000000000000000000000000000000000000000000005f52601160045260245ffd5b5f6105ed826105ad565b91506105f8836105ad565b92508282039050818111156106105761060f6105b6565b5b92915050565b5f5ffd5b5f5ffd5b5f5f8585111561063157610630610616565b5b838611156106425761064161061a565b5b6001850283019150848603905094509492505050565b7f4e487b71000000000000000000000000000000000000000000000000000000005f52604160045260245ffd5b7f4e487b71000000000000000000000000000000000000000000000000000000005f52603260045260245ffd5b5f5ffd5b5f5ffd5b5f5ffd5b5f5f833560016020038436030381126106da576106d96106b2565b5b80840192508235915067ffffffffffffffff8211156106fc576106fb6106b6565b5b602083019250600182023603831315610718576107176106ba565b5b509250929050565b5f81905092915050565b828183375f83830152505050565b5f6107438385610720565b935061075083858461072a565b82840190509392505050565b5f6107668261048b565b6107708185610720565b93506107808185602086016104a5565b80840191505092915050565b5f610798828587610738565b91506107a4828461075c565b9150819050949350505050565b5f73ffffffffffffffffffffffffffffffffffffffff82169050919050565b5f6107da826107b1565b9050919050565b6107ea816107d0565b82525050565b5f6020820190506108035f8301846107e1565b9291505056fea2646970667358221220f1c48095996617901e42e770ac859fb3424918621b05818e12c4097fe563ee6464736f6c634300081e0033","linkReferences":{}},"methodIdentifiers":{"bar()":"febb0f7e","foo()":"c2985578","multicall(bytes[])":"ac9650d8"},"id":258}