{"abi":[{"type":"function","name":"callSender","inputs":[{"name":"data","type":"bytes","internalType":"bytes"}],"outputs":[],"stateMutability":"nonpayable"},{"type":"function","name":"staticcallSender","inputs":[{"name":"data","type":"bytes","internalType":"bytes"}],"outputs":[],"stateMutability":"view"}],"bytecode":{"object":"0x6080604052348015600e575f5ffd5b506103988061001c5f395ff3fe608060405234801561000f575f5ffd5b5060043610610034575f3560e01c80633ac48f0a14610038578063f8123dd514610054575b5f5ffd5b610052600480360381019061004d919061024b565b610070565b005b61006e6004803603810190610069919061024b565b610125565b005b5f6100796101db565b73ffffffffffffffffffffffffffffffffffffffff16838360405161009f9291906102d2565b5f60405180830381855afa9150503d805f81146100d7576040519150601f19603f3d011682016040523d82523d5f602084013e6100dc565b606091505b5050905080610120576040517f08c379a000000000000000000000000000000000000000000000000000000000815260040161011790610344565b60405180910390fd5b505050565b5f61012e6101db565b73ffffffffffffffffffffffffffffffffffffffff1683836040516101549291906102d2565b5f604051808303815f865af19150503d805f811461018d576040519150601f19603f3d011682016040523d82523d5f602084013e610192565b606091505b50509050806101d6576040517f08c379a00000000000000000000000000000000000000000000000000000000081526004016101cd90610344565b60405180910390fd5b505050565b5f33905090565b5f5ffd5b5f5ffd5b5f5ffd5b5f5ffd5b5f5ffd5b5f5f83601f84011261020b5761020a6101ea565b5b8235905067ffffffffffffffff811115610228576102276101ee565b5b602083019150836001820283011115610244576102436101f2565b5b9250929050565b5f5f60208385031215610261576102606101e2565b5b5f83013567ffffffffffffffff81111561027e5761027d6101e6565b5b61028a858286016101f6565b92509250509250929050565b5f81905092915050565b828183375f83830152505050565b5f6102b98385610296565b93506102c68385846102a0565b82840190509392505050565b5f6102de8284866102ae565b91508190509392505050565b5f82825260208201905092915050565b7f5265656e7472616e637941747461636b3a206661696c65642063616c6c0000005f82015250565b5f61032e601d836102ea565b9150610339826102fa565b602082019050919050565b5f6020820190508181035f83015261035b81610322565b905091905056fea264697066735822122058182938cea21838b1c7859ead79a3aafe3f981f97c547b15e45a4c58f909d3564736f6c634300081e0033","linkReferences":{}},"methodIdentifiers":{"callSender(bytes)":"f8123dd5","staticcallSender(bytes)":"3ac48f0a"},"id":218}