{"abi":[{"type":"function","name":"getCurrentUserOpHashFromEntryPoint","inputs":[{"name":"entryPoint","type":"address","internalType":"contract IEntryPoint"}],"outputs":[],"stateMutability":"nonpayable"},{"type":"event","name":"GotCurrentUserOpHash","inputs":[{"name":"count","type":"uint256","indexed":false,"internalType":"uint256"},{"name":"userOpHash","type":"bytes32","indexed":false,"internalType":"bytes32"}],"anonymous":false}],"bytecode":{"object":"0x6080604052348015600e575f5ffd5b506102fa8061001c5f395ff3fe608060405234801561000f575f5ffd5b5060043610610029575f3560e01c8063d871100b1461002d575b5f5ffd5b61004760048036038101906100429190610179565b610049565b005b5f8173ffffffffffffffffffffffffffffffffffffffff1663b0a398d16040518163ffffffff1660e01b8152600401602060405180830381865afa158015610093573d5f5f3e3d5ffd5b505050506040513d601f19601f820116820180604052508101906100b791906101d7565b90507ffda9a6807e676f5c6bb14ab1c2ab361fee370ba5ecd4a947c207896cbebceb1d5f5f8154809291906100eb90610238565b91905055826040516100fe92919061029d565b60405180910390a15050565b5f5ffd5b5f73ffffffffffffffffffffffffffffffffffffffff82169050919050565b5f6101378261010e565b9050919050565b5f6101488261012d565b9050919050565b6101588161013e565b8114610162575f5ffd5b50565b5f813590506101738161014f565b92915050565b5f6020828403121561018e5761018d61010a565b5b5f61019b84828501610165565b91505092915050565b5f819050919050565b6101b6816101a4565b81146101c0575f5ffd5b50565b5f815190506101d1816101ad565b92915050565b5f602082840312156101ec576101eb61010a565b5b5f6101f9848285016101c3565b91505092915050565b7f4e487b71000000000000000000000000000000000000000000000000000000005f52601160045260245ffd5b5f819050919050565b5f6102428261022f565b91507fffffffffffffffffffffffffffffffffffffffffffffffffffffffffffffffff820361027457610273610202565b5b600182019050919050565b6102888161022f565b82525050565b610297816101a4565b82525050565b5f6040820190506102b05f83018561027f565b6102bd602083018461028e565b939250505056fea26469706673582212206e031f82f158173072aa683db4b7f7128889bd635a3a15dad09bdc837ee6e6df64736f6c634300081e0033","linkReferences":{}},"methodIdentifiers":{"getCurrentUserOpHashFromEntryPoint(address)":"d871100b"},"id":37}