{"abi":[{"type":"receive","stateMutability":"payable"},{"type":"function","name":"setAcceptEther","inputs":[{"name":"acceptEther","type":"bool","internalType":"bool"}],"outputs":[],"stateMutability":"nonpayable"}],"bytecode":{"object":"0x6080604052348015600e575f5ffd5b5061010b8061001c5f395ff3fe608060405260043610601e575f3560e01c80634fea120c14603d576039565b366039575f5f9054906101000a900460ff166037575f5ffd5b005b5f5ffd5b3480156047575f5ffd5b50605e6004803603810190605a919060af565b6060565b005b805f5f6101000a81548160ff02191690831515021790555050565b5f5ffd5b5f8115159050919050565b609181607f565b8114609a575f5ffd5b50565b5f8135905060a981608a565b92915050565b5f6020828403121560c15760c0607b565b5b5f60cc84828501609d565b9150509291505056fea2646970667358221220a710b51faddddfd2617f4e0c4059a774a2eb860a00f205d56743d1b281a1df8e64736f6c634300081e0033","linkReferences":{}},"methodIdentifiers":{"setAcceptEther(bool)":"4fea120c"},"id":211}