{"abi":[{"type":"function","name":"allowance","inputs":[{"name":"owner","type":"address","internalType":"address"},{"name":"spender","type":"address","internalType":"address"},{"name":"id","type":"uint256","internalType":"uint256"}],"outputs":[{"name":"","type":"uint256","internalType":"uint256"}],"stateMutability":"view"},{"type":"function","name":"approve","inputs":[{"name":"spender","type":"address","internalType":"address"},{"name":"id","type":"uint256","internalType":"uint256"},{"name":"amount","type":"uint256","internalType":"uint256"}],"outputs":[{"name":"","type":"bool","internalType":"bool"}],"stateMutability":"nonpayable"},{"type":"function","name":"balanceOf","inputs":[{"name":"owner","type":"address","internalType":"address"},{"name":"id","type":"uint256","internalType":"uint256"}],"outputs":[{"name":"","type":"uint256","internalType":"uint256"}],"stateMutability":"view"},{"type":"function","name":"decimals","inputs":[{"name":"id","type":"uint256","internalType":"uint256"}],"outputs":[{"name":"","type":"uint8","internalType":"uint8"}],"stateMutability":"view"},{"type":"function","name":"isOperator","inputs":[{"name":"owner","type":"address","internalType":"address"},{"name":"spender","type":"address","internalType":"address"}],"outputs":[{"name":"","type":"bool","internalType":"bool"}],"stateMutability":"view"},{"type":"function","name":"name","inputs":[{"name":"id","type":"uint256","internalType":"uint256"}],"outputs":[{"name":"","type":"string","internalType":"string"}],"stateMutability":"view"},{"type":"function","name":"setOperator","inputs":[{"name":"spender","type":"address","internalType":"address"},{"name":"approved","type":"bool","internalType":"bool"}],"outputs":[{"name":"","type":"bool","internalType":"bool"}],"stateMutability":"nonpayable"},{"type":"function","name":"supportsInterface","inputs":[{"name":"interfaceId","type":"bytes4","internalType":"bytes4"}],"outputs":[{"name":"","type":"bool","internalType":"bool"}],"stateMutability":"view"},{"type":"function","name":"symbol","inputs":[{"name":"id","type":"uint256","internalType":"uint256"}],"outputs":[{"name":"","type":"string","internalType":"string"}],"stateMutability":"view"},{"type":"function","name":"transfer","inputs":[{"name":"receiver","type":"address","internalType":"address"},{"name":"id","type":"uint256","internalType":"uint256"},{"name":"amount","type":"uint256","internalType":"uint256"}],"outputs":[{"name":"","type":"bool","internalType":"bool"}],"stateMutability":"nonpayable"},{"type":"function","name":"transferFrom","inputs":[{"name":"sender","type":"address","internalType":"address"},{"name":"receiver","type":"address","internalType":"address"},{"name":"id","type":"uint256","internalType":"uint256"},{"name":"amount","type":"uint256","internalType":"uint256"}],"outputs":[{"name":"","type":"bool","internalType":"bool"}],"stateMutability":"nonpayable"},{"type":"event","name":"Approval","inputs":[{"name":"owner","type":"address","indexed":true,"internalType":"address"},{"name":"spender","type":"address","indexed":true,"internalType":"address"},{"name":"id","type":"uint256","indexed":true,"internalType":"uint256"},{"name":"amount","type":"uint256","indexed":false,"internalType":"uint256"}],"anonymous":false},{"type":"event","name":"ERC6909DecimalsUpdated","inputs":[{"name":"id","type":"uint256","indexed":true,"internalType":"uint256"},{"name":"newDecimals","type":"uint8","indexed":false,"internalType":"uint8"}],"anonymous":false},{"type":"event","name":"ERC6909NameUpdated","inputs":[{"name":"id","type":"uint256","indexed":true,"internalType":"uint256"},{"name":"newName","type":"string","indexed":false,"internalType":"string"}],"anonymous":false},{"type":"event","name":"ERC6909SymbolUpdated","inputs":[{"name":"id","type":"uint256","indexed":true,"internalType":"uint256"},{"name":"newSymbol","type":"string","indexed":false,"internalType":"string"}],"anonymous":false},{"type":"event","name":"OperatorSet","inputs":[{"name":"owner","type":"address","indexed":true,"internalType":"address"},{"name":"spender","type":"address","indexed":true,"internalType":"address"},{"name":"approved","type":"bool","indexed":false,"internalType":"bool"}],"anonymous":false},{"type":"event","name":"Transfer","inputs":[{"name":"caller","type":"address","indexed":false,"internalType":"address"},{"name":"sender","type":"address","indexed":true,"internalType":"address"},{"name":"receiver","type":"address","indexed":true,"internalType":"address"},{"name":"id","type":"uint256","indexed":true,"internalType":"uint256"},{"name":"amount","type":"uint256","indexed":false,"internalType":"uint256"}],"anonymous":false},{"type":"error","name":"ERC6909InsufficientAllowance","inputs":[{"name":"spender","type":"address","internalType":"address"},{"name":"allowance","type":"uint256","internalType":"uint256"},{"name":"needed","type":"uint256","internalType":"uint256"},{"name":"id","type":"uint256","internalType":"uint256"}]},{"type":"error","name":"ERC6909InsufficientBalance","inputs":[{"name":"sender","type":"address","internalType":"address"},{"name":"balance","type":"uint256","internalType":"uint256"},{"name":"needed","type":"uint256","internalType":"uint256"},{"name":"id","type":"uint256","internalType":"uint256"}]},{"type":"error","name":"ERC6909InvalidApprover","inputs":[{"name":"approver","type":"address","internalType":"address"}]},{"type":"error","name":"ERC6909InvalidReceiver","inputs":[{"name":"receiver","type":"address","internalType":"address"}]},{"type":"error","name":"ERC6909InvalidSender","inputs":[{"name":"sender","type":"address","internalType":"address"}]},{"type":"error","name":"ERC6909InvalidSpender","inputs":[{"name":"spender","type":"address","internalType":"address"}]}],"bytecode":{"object":"0x6080604052348015600e575f5ffd5b506115878061001c5f395ff3fe608060405234801561000f575f5ffd5b50600436106100a5575f3560e01c8063426a84931161006f578063426a8493146101995780634e41a1fb146101c9578063558a7297146101f9578063598af9e714610229578063b6363cf214610259578063fe99049a14610289576100a5565b8062ad800c146100a9578062fdd58e146100d957806301ffc9a714610109578063095bcdb6146101395780633f47e66214610169575b5f5ffd5b6100c360048036038101906100be9190610ff6565b6102b9565b6040516100d09190611091565b60405180910390f35b6100f360048036038101906100ee919061110b565b61035c565b6040516101009190611158565b60405180910390f35b610123600480360381019061011e91906111c6565b6103b1565b604051610130919061120b565b60405180910390f35b610153600480360381019061014e9190611224565b61042a565b604051610160919061120b565b60405180910390f35b610183600480360381019061017e9190610ff6565b610449565b604051610190919061128f565b60405180910390f35b6101b360048036038101906101ae9190611224565b610472565b6040516101c0919061120b565b60405180910390f35b6101e360048036038101906101de9190610ff6565b610491565b6040516101f09190611091565b60405180910390f35b610213600480360381019061020e91906112d2565b610535565b604051610220919061120b565b60405180910390f35b610243600480360381019061023e9190611310565b610552565b6040516102509190611158565b60405180910390f35b610273600480360381019061026e9190611360565b6105e4565b604051610280919061120b565b60405180910390f35b6102a3600480360381019061029e919061139e565b610672565b6040516102b0919061120b565b60405180910390f35b606060035f8381526020019081526020015f205f0180546102d99061142f565b80601f01602080910402602001604051908101604052809291908181526020018280546103059061142f565b80156103505780601f1061032757610100808354040283529160200191610350565b820191905f5260205f20905b81548152906001019060200180831161033357829003601f168201915b50505050509050919050565b5f5f5f8473ffffffffffffffffffffffffffffffffffffffff1673ffffffffffffffffffffffffffffffffffffffff1681526020019081526020015f205f8381526020019081526020015f2054905092915050565b5f7f71abc795000000000000000000000000000000000000000000000000000000007bffffffffffffffffffffffffffffffffffffffffffffffffffffffff1916827bffffffffffffffffffffffffffffffffffffffffffffffffffffffff191614806104235750610422826106ec565b5b9050919050565b5f61043e610436610765565b85858561076c565b600190509392505050565b5f60035f8381526020019081526020015f206002015f9054906101000a900460ff169050919050565b5f61048661047e610765565b85858561085e565b600190509392505050565b606060035f8381526020019081526020015f2060010180546104b29061142f565b80601f01602080910402602001604051908101604052809291908181526020018280546104de9061142f565b80156105295780601f1061050057610100808354040283529160200191610529565b820191905f5260205f20905b81548152906001019060200180831161050c57829003601f168201915b50505050509050919050565b5f610548610541610765565b8484610a36565b6001905092915050565b5f60025f8573ffffffffffffffffffffffffffffffffffffffff1673ffffffffffffffffffffffffffffffffffffffff1681526020019081526020015f205f8473ffffffffffffffffffffffffffffffffffffffff1673ffffffffffffffffffffffffffffffffffffffff1681526020019081526020015f205f8381526020019081526020015f205490509392505050565b5f60015f8473ffffffffffffffffffffffffffffffffffffffff1673ffffffffffffffffffffffffffffffffffffffff1681526020019081526020015f205f8373ffffffffffffffffffffffffffffffffffffffff1673ffffffffffffffffffffffffffffffffffffffff1681526020019081526020015f205f9054906101000a900460ff16905092915050565b5f5f61067c610765565b90508073ffffffffffffffffffffffffffffffffffffffff168673ffffffffffffffffffffffffffffffffffffffff16141580156106c157506106bf86826105e4565b155b156106d3576106d286828686610c0f565b5b6106df8686868661076c565b6001915050949350505050565b5f7f0f632fb3000000000000000000000000000000000000000000000000000000007bffffffffffffffffffffffffffffffffffffffffffffffffffffffff1916827bffffffffffffffffffffffffffffffffffffffffffffffffffffffff1916148061075e575061075d82610d26565b5b9050919050565b5f33905090565b5f73ffffffffffffffffffffffffffffffffffffffff168473ffffffffffffffffffffffffffffffffffffffff16036107dc575f6040517fa43520800000000000000000000000000000000000000000000000000000000081526004016107d3919061146e565b60405180910390fd5b5f73ffffffffffffffffffffffffffffffffffffffff168373ffffffffffffffffffffffffffffffffffffffff160361084c575f6040517fb8bbd610000000000000000000000000000000000000000000000000000000008152600401610843919061146e565b60405180910390fd5b61085884848484610d8f565b50505050565b5f73ffffffffffffffffffffffffffffffffffffffff168473ffffffffffffffffffffffffffffffffffffffff16036108ce575f6040517fcc766a980000000000000000000000000000000000000000000000000000000081526004016108c5919061146e565b60405180910390fd5b5f73ffffffffffffffffffffffffffffffffffffffff168373ffffffffffffffffffffffffffffffffffffffff160361093e575f6040517f6f65f465000000000000000000000000000000000000000000000000000000008152600401610935919061146e565b60405180910390fd5b8060025f8673ffffffffffffffffffffffffffffffffffffffff1673ffffffffffffffffffffffffffffffffffffffff1681526020019081526020015f205f8573ffffffffffffffffffffffffffffffffffffffff1673ffffffffffffffffffffffffffffffffffffffff1681526020019081526020015f205f8481526020019081526020015f2081905550818373ffffffffffffffffffffffffffffffffffffffff168573ffffffffffffffffffffffffffffffffffffffff167fb3fd5071835887567a0671151121894ddccc2842f1d10bedad13e0d17cace9a784604051610a289190611158565b60405180910390a450505050565b5f73ffffffffffffffffffffffffffffffffffffffff168373ffffffffffffffffffffffffffffffffffffffff1603610aa6575f6040517fcc766a98000000000000000000000000000000000000000000000000000000008152600401610a9d919061146e565b60405180910390fd5b5f73ffffffffffffffffffffffffffffffffffffffff168273ffffffffffffffffffffffffffffffffffffffff1603610b16575f6040517f6f65f465000000000000000000000000000000000000000000000000000000008152600401610b0d919061146e565b60405180910390fd5b8060015f8573ffffffffffffffffffffffffffffffffffffffff1673ffffffffffffffffffffffffffffffffffffffff1681526020019081526020015f205f8473ffffffffffffffffffffffffffffffffffffffff1673ffffffffffffffffffffffffffffffffffffffff1681526020019081526020015f205f6101000a81548160ff0219169083151502179055508173ffffffffffffffffffffffffffffffffffffffff168373ffffffffffffffffffffffffffffffffffffffff167fceb576d9f15e4e200fdb5096d64d5dfd667e16def20c1eefd14256d8e3faa26783604051610c02919061120b565b60405180910390a3505050565b5f610c1b858585610552565b90507fffffffffffffffffffffffffffffffffffffffffffffffffffffffffffffffff811015610d1f5781811015610c9057838183856040517f58a3fd5a000000000000000000000000000000000000000000000000000000008152600401610c879493929190611487565b60405180910390fd5b81810360025f8773ffffffffffffffffffffffffffffffffffffffff1673ffffffffffffffffffffffffffffffffffffffff1681526020019081526020015f205f8673ffffffffffffffffffffffffffffffffffffffff1673ffffffffffffffffffffffffffffffffffffffff1681526020019081526020015f205f8581526020019081526020015f20819055505b5050505050565b5f7f01ffc9a7000000000000000000000000000000000000000000000000000000007bffffffffffffffffffffffffffffffffffffffffffffffffffffffff1916827bffffffffffffffffffffffffffffffffffffffffffffffffffffffff1916149050919050565b5f610d98610765565b90505f73ffffffffffffffffffffffffffffffffffffffff168573ffffffffffffffffffffffffffffffffffffffff1614610ebb575f5f5f8773ffffffffffffffffffffffffffffffffffffffff1673ffffffffffffffffffffffffffffffffffffffff1681526020019081526020015f205f8581526020019081526020015f2054905082811015610e6757858184866040517fb1b4fec0000000000000000000000000000000000000000000000000000000008152600401610e5e9493929190611487565b60405180910390fd5b8281035f5f8873ffffffffffffffffffffffffffffffffffffffff1673ffffffffffffffffffffffffffffffffffffffff1681526020019081526020015f205f8681526020019081526020015f2081905550505b5f73ffffffffffffffffffffffffffffffffffffffff168473ffffffffffffffffffffffffffffffffffffffff1614610f5057815f5f8673ffffffffffffffffffffffffffffffffffffffff1673ffffffffffffffffffffffffffffffffffffffff1681526020019081526020015f205f8581526020019081526020015f205f828254610f4891906114f7565b925050819055505b828473ffffffffffffffffffffffffffffffffffffffff168673ffffffffffffffffffffffffffffffffffffffff167f1b3d7edb2e9c0b0e7c525b20aaaef0f5940d2ed71663c7d39266ecafac7288598486604051610fb092919061152a565b60405180910390a45050505050565b5f5ffd5b5f819050919050565b610fd581610fc3565b8114610fdf575f5ffd5b50565b5f81359050610ff081610fcc565b92915050565b5f6020828403121561100b5761100a610fbf565b5b5f61101884828501610fe2565b91505092915050565b5f81519050919050565b5f82825260208201905092915050565b8281835e5f83830152505050565b5f601f19601f8301169050919050565b5f61106382611021565b61106d818561102b565b935061107d81856020860161103b565b61108681611049565b840191505092915050565b5f6020820190508181035f8301526110a98184611059565b905092915050565b5f73ffffffffffffffffffffffffffffffffffffffff82169050919050565b5f6110da826110b1565b9050919050565b6110ea816110d0565b81146110f4575f5ffd5b50565b5f81359050611105816110e1565b92915050565b5f5f6040838503121561112157611120610fbf565b5b5f61112e858286016110f7565b925050602061113f85828601610fe2565b9150509250929050565b61115281610fc3565b82525050565b5f60208201905061116b5f830184611149565b92915050565b5f7fffffffff0000000000000000000000000000000000000000000000000000000082169050919050565b6111a581611171565b81146111af575f5ffd5b50565b5f813590506111c08161119c565b92915050565b5f602082840312156111db576111da610fbf565b5b5f6111e8848285016111b2565b91505092915050565b5f8115159050919050565b611205816111f1565b82525050565b5f60208201905061121e5f8301846111fc565b92915050565b5f5f5f6060848603121561123b5761123a610fbf565b5b5f611248868287016110f7565b935050602061125986828701610fe2565b925050604061126a86828701610fe2565b9150509250925092565b5f60ff82169050919050565b61128981611274565b82525050565b5f6020820190506112a25f830184611280565b92915050565b6112b1816111f1565b81146112bb575f5ffd5b50565b5f813590506112cc816112a8565b92915050565b5f5f604083850312156112e8576112e7610fbf565b5b5f6112f5858286016110f7565b9250506020611306858286016112be565b9150509250929050565b5f5f5f6060848603121561132757611326610fbf565b5b5f611334868287016110f7565b9350506020611345868287016110f7565b925050604061135686828701610fe2565b9150509250925092565b5f5f6040838503121561137657611375610fbf565b5b5f611383858286016110f7565b9250506020611394858286016110f7565b9150509250929050565b5f5f5f5f608085870312156113b6576113b5610fbf565b5b5f6113c3878288016110f7565b94505060206113d4878288016110f7565b93505060406113e587828801610fe2565b92505060606113f687828801610fe2565b91505092959194509250565b7f4e487b71000000000000000000000000000000000000000000000000000000005f52602260045260245ffd5b5f600282049050600182168061144657607f821691505b60208210810361145957611458611402565b5b50919050565b611468816110d0565b82525050565b5f6020820190506114815f83018461145f565b92915050565b5f60808201905061149a5f83018761145f565b6114a76020830186611149565b6114b46040830185611149565b6114c16060830184611149565b95945050505050565b7f4e487b71000000000000000000000000000000000000000000000000000000005f52601160045260245ffd5b5f61150182610fc3565b915061150c83610fc3565b9250828201905080821115611524576115236114ca565b5b92915050565b5f60408201905061153d5f83018561145f565b61154a6020830184611149565b939250505056fea2646970667358221220da50841ad5523a9b7d57b4f0724c419268708e2b14b0dedd883c6a37616c236164736f6c634300081e0033","linkReferences":{}},"methodIdentifiers":{"allowance(address,address,uint256)":"598af9e7","approve(address,uint256,uint256)":"426a8493","balanceOf(address,uint256)":"00fdd58e","decimals(uint256)":"3f47e662","isOperator(address,address)":"b6363cf2","name(uint256)":"00ad800c","setOperator(address,bool)":"558a7297","supportsInterface(bytes4)":"01ffc9a7","symbol(uint256)":"4e41a1fb","transfer(address,uint256,uint256)":"095bcdb6","transferFrom(address,address,uint256,uint256)":"fe99049a"},"id":349}