{"abi":[{"type":"function","name":"allowance","inputs":[{"name":"owner","type":"address","internalType":"address"},{"name":"spender","type":"address","internalType":"address"}],"outputs":[{"name":"","type":"uint256","internalType":"uint256"}],"stateMutability":"view"},{"type":"function","name":"approve","inputs":[{"name":"spender","type":"address","internalType":"address"},{"name":"value","type":"uint256","internalType":"uint256"}],"outputs":[{"name":"","type":"bool","internalType":"bool"}],"stateMutability":"nonpayable"},{"type":"function","name":"balanceOf","inputs":[{"name":"account","type":"address","internalType":"address"}],"outputs":[{"name":"","type":"uint256","internalType":"uint256"}],"stateMutability":"view"},{"type":"function","name":"decimals","inputs":[],"outputs":[{"name":"","type":"uint8","internalType":"uint8"}],"stateMutability":"view"},{"type":"function","name":"functionCall","inputs":[{"name":"target","type":"address","internalType":"address"},{"name":"data","type":"bytes","internalType":"bytes"}],"outputs":[{"name":"","type":"bytes","internalType":"bytes"}],"stateMutability":"nonpayable"},{"type":"function","name":"name","inputs":[],"outputs":[{"name":"","type":"string","internalType":"string"}],"stateMutability":"view"},{"type":"function","name":"scheduleReenter","inputs":[{"name":"when","type":"uint8","internalType":"enum ERC20Reentrant.Type"},{"name":"target","type":"address","internalType":"address"},{"name":"data","type":"bytes","internalType":"bytes"}],"outputs":[],"stateMutability":"nonpayable"},{"type":"function","name":"symbol","inputs":[],"outputs":[{"name":"","type":"string","internalType":"string"}],"stateMutability":"view"},{"type":"function","name":"totalSupply","inputs":[],"outputs":[{"name":"","type":"uint256","internalType":"uint256"}],"stateMutability":"view"},{"type":"function","name":"transfer","inputs":[{"name":"to","type":"address","internalType":"address"},{"name":"value","type":"uint256","internalType":"uint256"}],"outputs":[{"name":"","type":"bool","internalType":"bool"}],"stateMutability":"nonpayable"},{"type":"function","name":"transferFrom","inputs":[{"name":"from","type":"address","internalType":"address"},{"name":"to","type":"address","internalType":"address"},{"name":"value","type":"uint256","internalType":"uint256"}],"outputs":[{"name":"","type":"bool","internalType":"bool"}],"stateMutability":"nonpayable"},{"type":"event","name":"Approval","inputs":[{"name":"owner","type":"address","indexed":true,"internalType":"address"},{"name":"spender","type":"address","indexed":true,"internalType":"address"},{"name":"value","type":"uint256","indexed":false,"internalType":"uint256"}],"anonymous":false},{"type":"event","name":"Transfer","inputs":[{"name":"from","type":"address","indexed":true,"internalType":"address"},{"name":"to","type":"address","indexed":true,"internalType":"address"},{"name":"value","type":"uint256","indexed":false,"internalType":"uint256"}],"anonymous":false},{"type":"error","name":"AddressEmptyCode","inputs":[{"name":"target","type":"address","internalType":"address"}]},{"type":"error","name":"ERC20InsufficientAllowance","inputs":[{"name":"spender","type":"address","internalType":"address"},{"name":"allowance","type":"uint256","internalType":"uint256"},{"name":"needed","type":"uint256","internalType":"uint256"}]},{"type":"error","name":"ERC20InsufficientBalance","inputs":[{"name":"sender","type":"address","internalType":"address"},{"name":"balance","type":"uint256","internalType":"uint256"},{"name":"needed","type":"uint256","internalType":"uint256"}]},{"type":"error","name":"ERC20InvalidApprover","inputs":[{"name":"approver","type":"address","internalType":"address"}]},{"type":"error","name":"ERC20InvalidReceiver","inputs":[{"name":"receiver","type":"address","internalType":"address"}]},{"type":"error","name":"ERC20InvalidSender","inputs":[{"name":"sender","type":"address","internalType":"address"}]},{"type":"error","name":"ERC20InvalidSpender","inputs":[{"name":"spender","type":"address","internalType":"address"}]},{"type":"error","name":"FailedCall","inputs":[]},{"type":"error","name":"InsufficientBalance","inputs":[{"name":"balance","type":"uint256","internalType":"uint256"},{"name":"needed","type":"uint256","internalType":"uint256"}]}],"bytecode":{"object":"0x608060405234801561000f575f5ffd5b506040518060400160405280600481526020017f54455354000000000000000000000000000000000000000000000000000000008152506040518060400160405280600381526020017f5453540000000000000000000000000000000000000000000000000000000000815250816003908161008b91906102e0565b50806004908161009b91906102e0565b5050506103af565b5f81519050919050565b7f4e487b71000000000000000000000000000000000000000000000000000000005f52604160045260245ffd5b7f4e487b71000000000000000000000000000000000000000000000000000000005f52602260045260245ffd5b5f600282049050600182168061011e57607f821691505b602082108103610131576101306100da565b5b50919050565b5f819050815f5260205f209050919050565b5f6020601f8301049050919050565b5f82821b905092915050565b5f600883026101937fffffffffffffffffffffffffffffffffffffffffffffffffffffffffffffffff82610158565b61019d8683610158565b95508019841693508086168417925050509392505050565b5f819050919050565b5f819050919050565b5f6101e16101dc6101d7846101b5565b6101be565b6101b5565b9050919050565b5f819050919050565b6101fa836101c7565b61020e610206826101e8565b848454610164565b825550505050565b5f5f905090565b610225610216565b6102308184846101f1565b505050565b5b81811015610253576102485f8261021d565b600181019050610236565b5050565b601f8211156102985761026981610137565b61027284610149565b81016020851015610281578190505b61029561028d85610149565b830182610235565b50505b505050565b5f82821c905092915050565b5f6102b85f198460080261029d565b1980831691505092915050565b5f6102d083836102a9565b9150826002028217905092915050565b6102e9826100a3565b67ffffffffffffffff811115610302576103016100ad565b5b61030c8254610107565b610317828285610257565b5f60209050601f831160018114610348575f8415610336578287015190505b61034085826102c5565b8655506103a7565b601f19841661035686610137565b5f5b8281101561037d57848901518255600182019150602085019450602081019050610358565b8683101561039a5784890151610396601f8916826102a9565b8355505b6001600288020188555050505b505050505050565b611870806103bc5f395ff3fe608060405234801561000f575f5ffd5b50600436106100a7575f3560e01c806370a082311161006f57806370a082311461016557806395d89b4114610195578063a0b5ffb0146101b3578063a9059cbb146101e3578063cd594b6314610213578063dd62ed3e1461022f576100a7565b806306fdde03146100ab578063095ea7b3146100c957806318160ddd146100f957806323b872dd14610117578063313ce56714610147575b5f5ffd5b6100b361025f565b6040516100c09190610f28565b60405180910390f35b6100e360048036038101906100de9190610fe6565b6102ef565b6040516100f0919061103e565b60405180910390f35b610101610311565b60405161010e9190611066565b60405180910390f35b610131600480360381019061012c919061107f565b61031a565b60405161013e919061103e565b60405180910390f35b61014f610348565b60405161015c91906110ea565b60405180910390f35b61017f600480360381019061017a9190611103565b610350565b60405161018c9190611066565b60405180910390f35b61019d610395565b6040516101aa9190610f28565b60405180910390f35b6101cd60048036038101906101c8919061125a565b610425565b6040516101da9190611306565b60405180910390f35b6101fd60048036038101906101f89190610fe6565b610439565b60405161020a919061103e565b60405180910390f35b61022d600480360381019061022891906113a6565b61045b565b005b61024960048036038101906102449190611417565b6104dd565b6040516102569190611066565b60405180910390f35b60606003805461026e90611482565b80601f016020809104026020016040519081016040528092919081815260200182805461029a90611482565b80156102e55780601f106102bc576101008083540402835291602001916102e5565b820191905f5260205f20905b8154815290600101906020018083116102c857829003601f168201915b5050505050905090565b5f5f6102f961055f565b9050610306818585610566565b600191505092915050565b5f600254905090565b5f5f61032461055f565b9050610331858285610578565b61033c85858561060b565b60019150509392505050565b5f6012905090565b5f5f5f8373ffffffffffffffffffffffffffffffffffffffff1673ffffffffffffffffffffffffffffffffffffffff1681526020019081526020015f20549050919050565b6060600480546103a490611482565b80601f01602080910402602001604051908101604052809291908181526020018280546103d090611482565b801561041b5780601f106103f25761010080835404028352916020019161041b565b820191905f5260205f20905b8154815290600101906020018083116103fe57829003601f168201915b5050505050905090565b606061043183836106fb565b905092915050565b5f5f61044361055f565b905061045081858561060b565b600191505092915050565b8360055f6101000a81548160ff0219169083600281111561047f5761047e6114b2565b5b021790555082600560016101000a81548173ffffffffffffffffffffffffffffffffffffffff021916908373ffffffffffffffffffffffffffffffffffffffff1602179055508181600691826104d6929190611689565b5050505050565b5f60015f8473ffffffffffffffffffffffffffffffffffffffff1673ffffffffffffffffffffffffffffffffffffffff1681526020019081526020015f205f8373ffffffffffffffffffffffffffffffffffffffff1673ffffffffffffffffffffffffffffffffffffffff1681526020019081526020015f2054905092915050565b5f33905090565b6105738383836001610710565b505050565b5f61058384846104dd565b90507fffffffffffffffffffffffffffffffffffffffffffffffffffffffffffffffff81101561060557818110156105f6578281836040517ffb8f41b20000000000000000000000000000000000000000000000000000000081526004016105ed93929190611765565b60405180910390fd5b61060484848484035f610710565b5b50505050565b5f73ffffffffffffffffffffffffffffffffffffffff168373ffffffffffffffffffffffffffffffffffffffff160361067b575f6040517f96c6fd1e000000000000000000000000000000000000000000000000000000008152600401610672919061179a565b60405180910390fd5b5f73ffffffffffffffffffffffffffffffffffffffff168273ffffffffffffffffffffffffffffffffffffffff16036106eb575f6040517fec442f050000000000000000000000000000000000000000000000000000000081526004016106e2919061179a565b60405180910390fd5b6106f68383836108df565b505050565b606061070883835f610b20565b905092915050565b5f73ffffffffffffffffffffffffffffffffffffffff168473ffffffffffffffffffffffffffffffffffffffff1603610780575f6040517fe602df05000000000000000000000000000000000000000000000000000000008152600401610777919061179a565b60405180910390fd5b5f73ffffffffffffffffffffffffffffffffffffffff168373ffffffffffffffffffffffffffffffffffffffff16036107f0575f6040517f94280d620000000000000000000000000000000000000000000000000000000081526004016107e7919061179a565b60405180910390fd5b8160015f8673ffffffffffffffffffffffffffffffffffffffff1673ffffffffffffffffffffffffffffffffffffffff1681526020019081526020015f205f8573ffffffffffffffffffffffffffffffffffffffff1673ffffffffffffffffffffffffffffffffffffffff1681526020019081526020015f208190555080156108d9578273ffffffffffffffffffffffffffffffffffffffff168473ffffffffffffffffffffffffffffffffffffffff167f8c5be1e5ebec7d5bd14f71427d1e84f3dd0314c0f7b2291e5b200ac8c7c3b925846040516108d09190611066565b60405180910390a35b50505050565b600160028111156108f3576108f26114b2565b5b60055f9054906101000a900460ff166002811115610914576109136114b2565b5b036109f8575f60055f6101000a81548160ff0219169083600281111561093d5761093c6114b2565b5b02179055506109f6600560019054906101000a900473ffffffffffffffffffffffffffffffffffffffff166006805461097590611482565b80601f01602080910402602001604051908101604052809291908181526020018280546109a190611482565b80156109ec5780601f106109c3576101008083540402835291602001916109ec565b820191905f5260205f20905b8154815290600101906020018083116109cf57829003601f168201915b5050505050610425565b505b610a03838383610c5a565b600280811115610a1657610a156114b2565b5b60055f9054906101000a900460ff166002811115610a3757610a366114b2565b5b03610b1b575f60055f6101000a81548160ff02191690836002811115610a6057610a5f6114b2565b5b0217905550610b19600560019054906101000a900473ffffffffffffffffffffffffffffffffffffffff1660068054610a9890611482565b80601f0160208091040260200160405190810160405280929190818152602001828054610ac490611482565b8015610b0f5780601f10610ae657610100808354040283529160200191610b0f565b820191905f5260205f20905b815481529060010190602001808311610af257829003601f168201915b5050505050610425565b505b505050565b606081471015610b695747826040517fcf479181000000000000000000000000000000000000000000000000000000008152600401610b609291906117b3565b60405180910390fd5b5f610b75858486610e73565b9050808015610bab57505f610b88610e89565b1180610baa57505f8573ffffffffffffffffffffffffffffffffffffffff163b115b5b15610bc057610bb8610e90565b915050610c53565b8015610c0357846040517f9996b315000000000000000000000000000000000000000000000000000000008152600401610bfa919061179a565b60405180910390fd5b5f610c0c610e89565b1115610c1f57610c1a610ead565b610c51565b6040517fd6bda27500000000000000000000000000000000000000000000000000000000815260040160405180910390fd5b505b9392505050565b5f73ffffffffffffffffffffffffffffffffffffffff168373ffffffffffffffffffffffffffffffffffffffff1603610caa578060025f828254610c9e9190611807565b92505081905550610d78565b5f5f5f8573ffffffffffffffffffffffffffffffffffffffff1673ffffffffffffffffffffffffffffffffffffffff1681526020019081526020015f2054905081811015610d33578381836040517fe450d38c000000000000000000000000000000000000000000000000000000008152600401610d2a93929190611765565b60405180910390fd5b8181035f5f8673ffffffffffffffffffffffffffffffffffffffff1673ffffffffffffffffffffffffffffffffffffffff1681526020019081526020015f2081905550505b5f73ffffffffffffffffffffffffffffffffffffffff168273ffffffffffffffffffffffffffffffffffffffff1603610dbf578060025f8282540392505081905550610e09565b805f5f8473ffffffffffffffffffffffffffffffffffffffff1673ffffffffffffffffffffffffffffffffffffffff1681526020019081526020015f205f82825401925050819055505b8173ffffffffffffffffffffffffffffffffffffffff168373ffffffffffffffffffffffffffffffffffffffff167fddf252ad1be2c89b69c2b068fc378daa952ba7f163c4a11628f55a4df523b3ef83604051610e669190611066565b60405180910390a3505050565b5f5f5f83516020850186885af190509392505050565b5f3d905090565b606060405190503d81523d5f602083013e3d602001810160405290565b6040513d5f823e3d81fd5b5f81519050919050565b5f82825260208201905092915050565b8281835e5f83830152505050565b5f601f19601f8301169050919050565b5f610efa82610eb8565b610f048185610ec2565b9350610f14818560208601610ed2565b610f1d81610ee0565b840191505092915050565b5f6020820190508181035f830152610f408184610ef0565b905092915050565b5f604051905090565b5f5ffd5b5f5ffd5b5f73ffffffffffffffffffffffffffffffffffffffff82169050919050565b5f610f8282610f59565b9050919050565b610f9281610f78565b8114610f9c575f5ffd5b50565b5f81359050610fad81610f89565b92915050565b5f819050919050565b610fc581610fb3565b8114610fcf575f5ffd5b50565b5f81359050610fe081610fbc565b92915050565b5f5f60408385031215610ffc57610ffb610f51565b5b5f61100985828601610f9f565b925050602061101a85828601610fd2565b9150509250929050565b5f8115159050919050565b61103881611024565b82525050565b5f6020820190506110515f83018461102f565b92915050565b61106081610fb3565b82525050565b5f6020820190506110795f830184611057565b92915050565b5f5f5f6060848603121561109657611095610f51565b5b5f6110a386828701610f9f565b93505060206110b486828701610f9f565b92505060406110c586828701610fd2565b9150509250925092565b5f60ff82169050919050565b6110e4816110cf565b82525050565b5f6020820190506110fd5f8301846110db565b92915050565b5f6020828403121561111857611117610f51565b5b5f61112584828501610f9f565b91505092915050565b5f5ffd5b5f5ffd5b7f4e487b71000000000000000000000000000000000000000000000000000000005f52604160045260245ffd5b61116c82610ee0565b810181811067ffffffffffffffff8211171561118b5761118a611136565b5b80604052505050565b5f61119d610f48565b90506111a98282611163565b919050565b5f67ffffffffffffffff8211156111c8576111c7611136565b5b6111d182610ee0565b9050602081019050919050565b828183375f83830152505050565b5f6111fe6111f9846111ae565b611194565b90508281526020810184848401111561121a57611219611132565b5b6112258482856111de565b509392505050565b5f82601f8301126112415761124061112e565b5b81356112518482602086016111ec565b91505092915050565b5f5f604083850312156112705761126f610f51565b5b5f61127d85828601610f9f565b925050602083013567ffffffffffffffff81111561129e5761129d610f55565b5b6112aa8582860161122d565b9150509250929050565b5f81519050919050565b5f82825260208201905092915050565b5f6112d8826112b4565b6112e281856112be565b93506112f2818560208601610ed2565b6112fb81610ee0565b840191505092915050565b5f6020820190508181035f83015261131e81846112ce565b905092915050565b60038110611332575f5ffd5b50565b5f8135905061134381611326565b92915050565b5f5ffd5b5f5ffd5b5f5f83601f8401126113665761136561112e565b5b8235905067ffffffffffffffff81111561138357611382611349565b5b60208301915083600182028301111561139f5761139e61134d565b5b9250929050565b5f5f5f5f606085870312156113be576113bd610f51565b5b5f6113cb87828801611335565b94505060206113dc87828801610f9f565b935050604085013567ffffffffffffffff8111156113fd576113fc610f55565b5b61140987828801611351565b925092505092959194509250565b5f5f6040838503121561142d5761142c610f51565b5b5f61143a85828601610f9f565b925050602061144b85828601610f9f565b9150509250929050565b7f4e487b71000000000000000000000000000000000000000000000000000000005f52602260045260245ffd5b5f600282049050600182168061149957607f821691505b6020821081036114ac576114ab611455565b5b50919050565b7f4e487b71000000000000000000000000000000000000000000000000000000005f52602160045260245ffd5b5f82905092915050565b5f819050815f5260205f209050919050565b5f6020601f8301049050919050565b5f82821b905092915050565b5f600883026115457fffffffffffffffffffffffffffffffffffffffffffffffffffffffffffffffff8261150a565b61154f868361150a565b95508019841693508086168417925050509392505050565b5f819050919050565b5f61158a61158561158084610fb3565b611567565b610fb3565b9050919050565b5f819050919050565b6115a383611570565b6115b76115af82611591565b848454611516565b825550505050565b5f5f905090565b6115ce6115bf565b6115d981848461159a565b505050565b5b818110156115fc576115f15f826115c6565b6001810190506115df565b5050565b601f82111561164157611612816114e9565b61161b846114fb565b8101602085101561162a578190505b61163e611636856114fb565b8301826115de565b50505b505050565b5f82821c905092915050565b5f6116615f1984600802611646565b1980831691505092915050565b5f6116798383611652565b9150826002028217905092915050565b61169383836114df565b67ffffffffffffffff8111156116ac576116ab611136565b5b6116b68254611482565b6116c1828285611600565b5f601f8311600181146116ee575f84156116dc578287013590505b6116e6858261166e565b86555061174d565b601f1984166116fc866114e9565b5f5b82811015611723578489013582556001820191506020850194506020810190506116fe565b86831015611740578489013561173c601f891682611652565b8355505b6001600288020188555050505b50505050505050565b61175f81610f78565b82525050565b5f6060820190506117785f830186611756565b6117856020830185611057565b6117926040830184611057565b949350505050565b5f6020820190506117ad5f830184611756565b92915050565b5f6040820190506117c65f830185611057565b6117d36020830184611057565b9392505050565b7f4e487b71000000000000000000000000000000000000000000000000000000005f52601160045260245ffd5b5f61181182610fb3565b915061181c83610fb3565b9250828201905080821115611834576118336117da565b5b9291505056fea2646970667358221220f0f42b5274dd8479b8a997412a98889ebe88ab4a388ac4c6ada8325020e1abc764736f6c634300081e0033","linkReferences":{}},"methodIdentifiers":{"allowance(address,address)":"dd62ed3e","approve(address,uint256)":"095ea7b3","balanceOf(address)":"70a08231","decimals()":"313ce567","functionCall(address,bytes)":"a0b5ffb0","name()":"06fdde03","scheduleReenter(uint8,address,bytes)":"cd594b63","symbol()":"95d89b41","totalSupply()":"18160ddd","transfer(address,uint256)":"a9059cbb","transferFrom(address,address,uint256)":"23b872dd"},"id":294}