{"abi":[{"type":"constructor","inputs":[{"name":"array","type":"address[]","internalType":"address[]"}],"stateMutability":"nonpayable"},{"type":"function","name":"length","inputs":[],"outputs":[{"name":"","type":"uint256","internalType":"uint256"}],"stateMutability":"view"},{"type":"function","name":"sort","inputs":[{"name":"array","type":"address[]","internalType":"address[]"}],"outputs":[{"name":"","type":"address[]","internalType":"address[]"}],"stateMutability":"pure"},{"type":"function","name":"sortReverse","inputs":[{"name":"array","type":"address[]","internalType":"address[]"}],"outputs":[{"name":"","type":"address[]","internalType":"address[]"}],"stateMutability":"pure"},{"type":"function","name":"unsafeAccess","inputs":[{"name":"pos","type":"uint256","internalType":"uint256"}],"outputs":[{"name":"","type":"address","internalType":"address"}],"stateMutability":"view"},{"type":"function","name":"unsafeSetLength","inputs":[{"name":"newLength","type":"uint256","internalType":"uint256"}],"outputs":[],"stateMutability":"nonpayable"}],"bytecode":{"object":"0x608060405234801561000f575f5ffd5b50604051610a91380380610a91833981810160405281019061003191906102aa565b805f908051906020019061004692919061004d565b50506102f1565b828054828255905f5260205f209081019282156100c3579160200282015b828111156100c2578251825f6101000a81548173ffffffffffffffffffffffffffffffffffffffff021916908373ffffffffffffffffffffffffffffffffffffffff1602179055509160200191906001019061006b565b5b5090506100d091906100d4565b5090565b5b808211156100eb575f815f9055506001016100d5565b5090565b5f604051905090565b5f5ffd5b5f5ffd5b5f5ffd5b5f601f19601f8301169050919050565b7f4e487b71000000000000000000000000000000000000000000000000000000005f52604160045260245ffd5b61014a82610104565b810181811067ffffffffffffffff8211171561016957610168610114565b5b80604052505050565b5f61017b6100ef565b90506101878282610141565b919050565b5f67ffffffffffffffff8211156101a6576101a5610114565b5b602082029050602081019050919050565b5f5ffd5b5f73ffffffffffffffffffffffffffffffffffffffff82169050919050565b5f6101e4826101bb565b9050919050565b6101f4816101da565b81146101fe575f5ffd5b50565b5f8151905061020f816101eb565b92915050565b5f6102276102228461018c565b610172565b9050808382526020820190506020840283018581111561024a576102496101b7565b5b835b81811015610273578061025f8882610201565b84526020840193505060208101905061024c565b5050509392505050565b5f82601f83011261029157610290610100565b5b81516102a1848260208601610215565b91505092915050565b5f602082840312156102bf576102be6100f8565b5b5f82015167ffffffffffffffff8111156102dc576102db6100fc565b5b6102e88482850161027d565b91505092915050565b610793806102fe5f395ff3fe608060405234801561000f575f5ffd5b5060043610610055575f3560e01c8063128424a7146100595780631f7b6d321461008957806340aa934d146100a757806346d1dbac146100d7578063e9fdbeba14610107575b5f5ffd5b610073600480360381019061006e9190610564565b610123565b6040516100809190610662565b60405180910390f35b610091610135565b60405161009e919061069a565b60405180910390f35b6100c160048036038101906100bc91906106dd565b610140565b6040516100ce9190610717565b60405180910390f35b6100f160048036038101906100ec9190610564565b61017d565b6040516100fe9190610662565b60405180910390f35b610121600480360381019061011c91906106dd565b61019b565b005b606061012e826101b1565b9050919050565b5f5f80549050905090565b5f610154825f6101d090919063ffffffff16565b5f015f9054906101000a900473ffffffffffffffffffffffffffffffffffffffff169050919050565b60606101946102018361023990919063ffffffff16565b9050919050565b6101ae815f61025f90919063ffffffff16565b50565b60606101c76101bf83610266565b61027061027c565b50819050919050565b5f5f8390506101f86101f3846101e5846102a2565b6102b190919063ffffffff16565b6102c1565b91505092915050565b5f8173ffffffffffffffffffffffffffffffffffffffff168373ffffffffffffffffffffffffffffffffffffffff1611905092915050565b606061025561024784610266565b610250846102ca565b61027c565b5082905092915050565b8082555050565b6060819050919050565b5f818310905092915050565b606061029961028a846102d5565b610293856102e1565b846102f8565b82905092915050565b5f815f5260205f209050919050565b5f81835f1c015f1b905092915050565b5f819050919050565b61039f819050919050565b5f602082019050919050565b5f60208251026102f0836102d5565b019050919050565b604083830310610380575f61030c84610385565b90505f8490505f6020860190505b848110156103595761033861032e82610385565b848663ffffffff16565b1561034e5760208201915061034d828261038f565b5b60208101905061031a565b50610364858261038f565b61036f8582856102f8565b61037d6020820185856102f8565b50505b505050565b5f81519050919050565b8151815180845281835250505050565b6103a7610730565b565b5f604051905090565b5f5ffd5b5f5ffd5b5f5ffd5b5f601f19601f8301169050919050565b7f4e487b71000000000000000000000000000000000000000000000000000000005f52604160045260245ffd5b610404826103be565b810181811067ffffffffffffffff82111715610423576104226103ce565b5b80604052505050565b5f6104356103a9565b905061044182826103fb565b919050565b5f67ffffffffffffffff8211156104605761045f6103ce565b5b602082029050602081019050919050565b5f5ffd5b5f73ffffffffffffffffffffffffffffffffffffffff82169050919050565b5f61049e82610475565b9050919050565b6104ae81610494565b81146104b8575f5ffd5b50565b5f813590506104c9816104a5565b92915050565b5f6104e16104dc84610446565b61042c565b9050808382526020820190506020840283018581111561050457610503610471565b5b835b8181101561052d578061051988826104bb565b845260208401935050602081019050610506565b5050509392505050565b5f82601f83011261054b5761054a6103ba565b5b813561055b8482602086016104cf565b91505092915050565b5f60208284031215610579576105786103b2565b5b5f82013567ffffffffffffffff811115610596576105956103b6565b5b6105a284828501610537565b91505092915050565b5f81519050919050565b5f82825260208201905092915050565b5f819050602082019050919050565b6105dd81610494565b82525050565b5f6105ee83836105d4565b60208301905092915050565b5f602082019050919050565b5f610610826105ab565b61061a81856105b5565b9350610625836105c5565b805f5b8381101561065557815161063c88826105e3565b9750610647836105fa565b925050600181019050610628565b5085935050505092915050565b5f6020820190508181035f83015261067a8184610606565b905092915050565b5f819050919050565b61069481610682565b82525050565b5f6020820190506106ad5f83018461068b565b92915050565b6106bc81610682565b81146106c6575f5ffd5b50565b5f813590506106d7816106b3565b92915050565b5f602082840312156106f2576106f16103b2565b5b5f6106ff848285016106c9565b91505092915050565b61071181610494565b82525050565b5f60208201905061072a5f830184610708565b92915050565b7f4e487b71000000000000000000000000000000000000000000000000000000005f52605160045260245ffdfea264697066735822122088e7668f2a21cf6f8bd8d36f1169fbc818a115083e0db31a652affe14c39940b64736f6c634300081e0033","linkReferences":{}},"methodIdentifiers":{"length()":"1f7b6d32","sort(address[])":"128424a7","sortReverse(address[])":"46d1dbac","unsafeAccess(uint256)":"40aa934d","unsafeSetLength(uint256)":"e9fdbeba"},"id":198}