{"abi":[{"type":"constructor","inputs":[{"name":"array","type":"bytes32[]","internalType":"bytes32[]"}],"stateMutability":"nonpayable"},{"type":"function","name":"length","inputs":[],"outputs":[{"name":"","type":"uint256","internalType":"uint256"}],"stateMutability":"view"},{"type":"function","name":"sort","inputs":[{"name":"array","type":"bytes32[]","internalType":"bytes32[]"}],"outputs":[{"name":"","type":"bytes32[]","internalType":"bytes32[]"}],"stateMutability":"pure"},{"type":"function","name":"sortReverse","inputs":[{"name":"array","type":"bytes32[]","internalType":"bytes32[]"}],"outputs":[{"name":"","type":"bytes32[]","internalType":"bytes32[]"}],"stateMutability":"pure"},{"type":"function","name":"unsafeAccess","inputs":[{"name":"pos","type":"uint256","internalType":"uint256"}],"outputs":[{"name":"","type":"bytes32","internalType":"bytes32"}],"stateMutability":"view"},{"type":"function","name":"unsafeSetLength","inputs":[{"name":"newLength","type":"uint256","internalType":"uint256"}],"outputs":[],"stateMutability":"nonpayable"}],"bytecode":{"object":"0x608060405234801561000f575f5ffd5b506040516109c03803806109c083398181016040528101906100319190610247565b805f908051906020019061004692919061004d565b505061028e565b828054828255905f5260205f20908101928215610087579160200282015b8281111561008657825182559160200191906001019061006b565b5b5090506100949190610098565b5090565b5b808211156100af575f815f905550600101610099565b5090565b5f604051905090565b5f5ffd5b5f5ffd5b5f5ffd5b5f601f19601f8301169050919050565b7f4e487b71000000000000000000000000000000000000000000000000000000005f52604160045260245ffd5b61010e826100c8565b810181811067ffffffffffffffff8211171561012d5761012c6100d8565b5b80604052505050565b5f61013f6100b3565b905061014b8282610105565b919050565b5f67ffffffffffffffff82111561016a576101696100d8565b5b602082029050602081019050919050565b5f5ffd5b5f819050919050565b6101918161017f565b811461019b575f5ffd5b50565b5f815190506101ac81610188565b92915050565b5f6101c46101bf84610150565b610136565b905080838252602082019050602084028301858111156101e7576101e661017b565b5b835b8181101561021057806101fc888261019e565b8452602084019350506020810190506101e9565b5050509392505050565b5f82601f83011261022e5761022d6100c4565b5b815161023e8482602086016101b2565b91505092915050565b5f6020828403121561025c5761025b6100bc565b5b5f82015167ffffffffffffffff811115610279576102786100c0565b5b6102858482850161021a565b91505092915050565b6107258061029b5f395ff3fe608060405234801561000f575f5ffd5b5060043610610055575f3560e01c80631f7b6d3214610059578063216ee6551461007757806340aa934d146100a75780638ea613b7146100d7578063e9fdbeba14610107575b5f5ffd5b610061610123565b60405161006e919061037a565b60405180910390f35b610091600480360381019061008c9190610527565b61012e565b60405161009e9190610625565b60405180910390f35b6100c160048036038101906100bc919061066f565b61014c565b6040516100ce91906106a9565b60405180910390f35b6100f160048036038101906100ec9190610527565b61016a565b6040516100fe9190610625565b60405180910390f35b610121600480360381019061011c919061066f565b61017c565b005b5f5f80549050905090565b6060610145610192836101a290919063ffffffff16565b9050919050565b5f610160825f6101c890919063ffffffff16565b5f01549050919050565b6060610175826101f9565b9050919050565b61018f815f61021890919063ffffffff16565b50565b5f815f1c835f1c11905092915050565b60606101be6101b08461021f565b6101b984610229565b610234565b5082905092915050565b5f5f8390506101f06101eb846101dd8461025a565b61026990919063ffffffff16565b610279565b91505092915050565b606061020f6102078361021f565b610282610234565b50819050919050565b8082555050565b6060819050919050565b610358819050919050565b60606102516102428461028e565b61024b8561029a565b846102b1565b82905092915050565b5f815f5260205f209050919050565b5f81835f1c015f1b905092915050565b5f819050919050565b5f818310905092915050565b5f602082019050919050565b5f60208251026102a98361028e565b019050919050565b604083830310610339575f6102c58461033e565b90505f8490505f6020860190505b84811015610312576102f16102e78261033e565b848663ffffffff16565b15610307576020820191506103068282610348565b5b6020810190506102d3565b5061031d8582610348565b6103288582856102b1565b6103366020820185856102b1565b50505b505050565b5f81519050919050565b8151815180845281835250505050565b6103606106c2565b565b5f819050919050565b61037481610362565b82525050565b5f60208201905061038d5f83018461036b565b92915050565b5f604051905090565b5f5ffd5b5f5ffd5b5f5ffd5b5f601f19601f8301169050919050565b7f4e487b71000000000000000000000000000000000000000000000000000000005f52604160045260245ffd5b6103ee826103a8565b810181811067ffffffffffffffff8211171561040d5761040c6103b8565b5b80604052505050565b5f61041f610393565b905061042b82826103e5565b919050565b5f67ffffffffffffffff82111561044a576104496103b8565b5b602082029050602081019050919050565b5f5ffd5b5f819050919050565b6104718161045f565b811461047b575f5ffd5b50565b5f8135905061048c81610468565b92915050565b5f6104a461049f84610430565b610416565b905080838252602082019050602084028301858111156104c7576104c661045b565b5b835b818110156104f057806104dc888261047e565b8452602084019350506020810190506104c9565b5050509392505050565b5f82601f83011261050e5761050d6103a4565b5b813561051e848260208601610492565b91505092915050565b5f6020828403121561053c5761053b61039c565b5b5f82013567ffffffffffffffff811115610559576105586103a0565b5b610565848285016104fa565b91505092915050565b5f81519050919050565b5f82825260208201905092915050565b5f819050602082019050919050565b6105a08161045f565b82525050565b5f6105b18383610597565b60208301905092915050565b5f602082019050919050565b5f6105d38261056e565b6105dd8185610578565b93506105e883610588565b805f5b838110156106185781516105ff88826105a6565b975061060a836105bd565b9250506001810190506105eb565b5085935050505092915050565b5f6020820190508181035f83015261063d81846105c9565b905092915050565b61064e81610362565b8114610658575f5ffd5b50565b5f8135905061066981610645565b92915050565b5f602082840312156106845761068361039c565b5b5f6106918482850161065b565b91505092915050565b6106a38161045f565b82525050565b5f6020820190506106bc5f83018461069a565b92915050565b7f4e487b71000000000000000000000000000000000000000000000000000000005f52605160045260245ffdfea264697066735822122004157361e6d9ab9bed867525eda8b9e06db46db336ce493b684514aa9514db0864736f6c634300081e0033","linkReferences":{}},"methodIdentifiers":{"length()":"1f7b6d32","sort(bytes32[])":"8ea613b7","sortReverse(bytes32[])":"216ee655","unsafeAccess(uint256)":"40aa934d","unsafeSetLength(uint256)":"e9fdbeba"},"id":198}