{"abi":[{"type":"constructor","inputs":[{"name":"array","type":"bytes[]","internalType":"bytes[]"}],"stateMutability":"nonpayable"},{"type":"function","name":"length","inputs":[],"outputs":[{"name":"","type":"uint256","internalType":"uint256"}],"stateMutability":"view"},{"type":"function","name":"unsafeAccess","inputs":[{"name":"pos","type":"uint256","internalType":"uint256"}],"outputs":[{"name":"","type":"bytes","internalType":"bytes"}],"stateMutability":"view"},{"type":"function","name":"unsafeSetLength","inputs":[{"name":"newLength","type":"uint256","internalType":"uint256"}],"outputs":[],"stateMutability":"nonpayable"}],"bytecode":{"object":"0x608060405234801561000f575f5ffd5b50604051610a01380380610a018339818101604052810190610031919061034e565b805f908051906020019061004692919061004d565b5050610674565b828054828255905f5260205f20908101928215610093579160200282015b8281111561009257825182908161008291906105a5565b509160200191906001019061006b565b5b5090506100a091906100a4565b5090565b5b808211156100c3575f81816100ba91906100c7565b506001016100a5565b5090565b5080546100d3906103cc565b5f825580601f106100e45750610101565b601f0160209004905f5260205f20908101906101009190610104565b5b50565b5b8082111561011b575f815f905550600101610105565b5090565b5f604051905090565b5f5ffd5b5f5ffd5b5f5ffd5b5f601f19601f8301169050919050565b7f4e487b71000000000000000000000000000000000000000000000000000000005f52604160045260245ffd5b61017a82610134565b810181811067ffffffffffffffff8211171561019957610198610144565b5b80604052505050565b5f6101ab61011f565b90506101b78282610171565b919050565b5f67ffffffffffffffff8211156101d6576101d5610144565b5b602082029050602081019050919050565b5f5ffd5b5f5ffd5b5f67ffffffffffffffff82111561020957610208610144565b5b61021282610134565b9050602081019050919050565b8281835e5f83830152505050565b5f61023f61023a846101ef565b6101a2565b90508281526020810184848401111561025b5761025a6101eb565b5b61026684828561021f565b509392505050565b5f82601f83011261028257610281610130565b5b815161029284826020860161022d565b91505092915050565b5f6102ad6102a8846101bc565b6101a2565b905080838252602082019050602084028301858111156102d0576102cf6101e7565b5b835b8181101561031757805167ffffffffffffffff8111156102f5576102f4610130565b5b808601610302898261026e565b855260208501945050506020810190506102d2565b5050509392505050565b5f82601f83011261033557610334610130565b5b815161034584826020860161029b565b91505092915050565b5f6020828403121561036357610362610128565b5b5f82015167ffffffffffffffff8111156103805761037f61012c565b5b61038c84828501610321565b91505092915050565b5f81519050919050565b7f4e487b71000000000000000000000000000000000000000000000000000000005f52602260045260245ffd5b5f60028204905060018216806103e357607f821691505b6020821081036103f6576103f561039f565b5b50919050565b5f819050815f5260205f209050919050565b5f6020601f8301049050919050565b5f82821b905092915050565b5f600883026104587fffffffffffffffffffffffffffffffffffffffffffffffffffffffffffffffff8261041d565b610462868361041d565b95508019841693508086168417925050509392505050565b5f819050919050565b5f819050919050565b5f6104a66104a161049c8461047a565b610483565b61047a565b9050919050565b5f819050919050565b6104bf8361048c565b6104d36104cb826104ad565b848454610429565b825550505050565b5f5f905090565b6104ea6104db565b6104f58184846104b6565b505050565b5b818110156105185761050d5f826104e2565b6001810190506104fb565b5050565b601f82111561055d5761052e816103fc565b6105378461040e565b81016020851015610546578190505b61055a6105528561040e565b8301826104fa565b50505b505050565b5f82821c905092915050565b5f61057d5f1984600802610562565b1980831691505092915050565b5f610595838361056e565b9150826002028217905092915050565b6105ae82610395565b67ffffffffffffffff8111156105c7576105c6610144565b5b6105d182546103cc565b6105dc82828561051c565b5f60209050601f83116001811461060d575f84156105fb578287015190505b610605858261058a565b86555061066c565b601f19841661061b866103fc565b5f5b828110156106425784890151825560018201915060208501945060208101905061061d565b8683101561065f578489015161065b601f89168261056e565b8355505b6001600288020188555050505b505050505050565b610380806106815f395ff3fe608060405234801561000f575f5ffd5b506004361061003f575f3560e01c80631f7b6d321461004357806340aa934d14610061578063e9fdbeba14610091575b5f5ffd5b61004b6100ad565b60405161005891906101eb565b60405180910390f35b61007b60048036038101906100769190610232565b6100b8565b60405161008891906102cd565b60405180910390f35b6100ab60048036038101906100a69190610232565b61015d565b005b5f5f80549050905090565b60606100cd825f61017390919063ffffffff16565b5f0180546100da9061031a565b80601f01602080910402602001604051908101604052809291908181526020018280546101069061031a565b80156101515780601f1061012857610100808354040283529160200191610151565b820191905f5260205f20905b81548152906001019060200180831161013457829003601f168201915b50505050509050919050565b610170815f6101a490919063ffffffff16565b50565b5f5f83905061019b61019684610188846101ab565b6101ba90919063ffffffff16565b6101ca565b91505092915050565b8082555050565b5f815f5260205f209050919050565b5f81835f1c015f1b905092915050565b5f819050919050565b5f819050919050565b6101e5816101d3565b82525050565b5f6020820190506101fe5f8301846101dc565b92915050565b5f5ffd5b610211816101d3565b811461021b575f5ffd5b50565b5f8135905061022c81610208565b92915050565b5f6020828403121561024757610246610204565b5b5f6102548482850161021e565b91505092915050565b5f81519050919050565b5f82825260208201905092915050565b8281835e5f83830152505050565b5f601f19601f8301169050919050565b5f61029f8261025d565b6102a98185610267565b93506102b9818560208601610277565b6102c281610285565b840191505092915050565b5f6020820190508181035f8301526102e58184610295565b905092915050565b7f4e487b71000000000000000000000000000000000000000000000000000000005f52602260045260245ffd5b5f600282049050600182168061033157607f821691505b602082108103610344576103436102ed565b5b5091905056fea264697066735822122085d9827749eca273133a083317c7ebaac792448b4856d434b717cbce0dbaf3d564736f6c634300081e0033","linkReferences":{}},"methodIdentifiers":{"length()":"1f7b6d32","unsafeAccess(uint256)":"40aa934d","unsafeSetLength(uint256)":"e9fdbeba"},"id":198}