{"abi":[{"type":"constructor","inputs":[{"name":"array","type":"uint256[]","internalType":"uint256[]"}],"stateMutability":"nonpayable"},{"type":"function","name":"findUpperBound","inputs":[{"name":"value","type":"uint256","internalType":"uint256"}],"outputs":[{"name":"","type":"uint256","internalType":"uint256"}],"stateMutability":"view"},{"type":"function","name":"length","inputs":[],"outputs":[{"name":"","type":"uint256","internalType":"uint256"}],"stateMutability":"view"},{"type":"function","name":"lowerBound","inputs":[{"name":"value","type":"uint256","internalType":"uint256"}],"outputs":[{"name":"","type":"uint256","internalType":"uint256"}],"stateMutability":"view"},{"type":"function","name":"lowerBoundMemory","inputs":[{"name":"array","type":"uint256[]","internalType":"uint256[]"},{"name":"value","type":"uint256","internalType":"uint256"}],"outputs":[{"name":"","type":"uint256","internalType":"uint256"}],"stateMutability":"pure"},{"type":"function","name":"sort","inputs":[{"name":"array","type":"uint256[]","internalType":"uint256[]"}],"outputs":[{"name":"","type":"uint256[]","internalType":"uint256[]"}],"stateMutability":"pure"},{"type":"function","name":"sortReverse","inputs":[{"name":"array","type":"uint256[]","internalType":"uint256[]"}],"outputs":[{"name":"","type":"uint256[]","internalType":"uint256[]"}],"stateMutability":"pure"},{"type":"function","name":"unsafeAccess","inputs":[{"name":"pos","type":"uint256","internalType":"uint256"}],"outputs":[{"name":"","type":"uint256","internalType":"uint256"}],"stateMutability":"view"},{"type":"function","name":"unsafeSetLength","inputs":[{"name":"newLength","type":"uint256","internalType":"uint256"}],"outputs":[],"stateMutability":"nonpayable"},{"type":"function","name":"upperBound","inputs":[{"name":"value","type":"uint256","internalType":"uint256"}],"outputs":[{"name":"","type":"uint256","internalType":"uint256"}],"stateMutability":"view"},{"type":"function","name":"upperBoundMemory","inputs":[{"name":"array","type":"uint256[]","internalType":"uint256[]"},{"name":"value","type":"uint256","internalType":"uint256"}],"outputs":[{"name":"","type":"uint256","internalType":"uint256"}],"stateMutability":"pure"}],"bytecode":{"object":"0x608060405234801561000f575f5ffd5b50604051610e40380380610e4083398181016040528101906100319190610247565b805f908051906020019061004692919061004d565b505061028e565b828054828255905f5260205f20908101928215610087579160200282015b8281111561008657825182559160200191906001019061006b565b5b5090506100949190610098565b5090565b5b808211156100af575f815f905550600101610099565b5090565b5f604051905090565b5f5ffd5b5f5ffd5b5f5ffd5b5f601f19601f8301169050919050565b7f4e487b71000000000000000000000000000000000000000000000000000000005f52604160045260245ffd5b61010e826100c8565b810181811067ffffffffffffffff8211171561012d5761012c6100d8565b5b80604052505050565b5f61013f6100b3565b905061014b8282610105565b919050565b5f67ffffffffffffffff82111561016a576101696100d8565b5b602082029050602081019050919050565b5f5ffd5b5f819050919050565b6101918161017f565b811461019b575f5ffd5b50565b5f815190506101ac81610188565b92915050565b5f6101c46101bf84610150565b610136565b905080838252602082019050602084028301858111156101e7576101e661017b565b5b835b8181101561021057806101fc888261019e565b8452602084019350506020810190506101e9565b5050509392505050565b5f82601f83011261022e5761022d6100c4565b5b815161023e8482602086016101b2565b91505092915050565b5f6020828403121561025c5761025b6100bc565b5b5f82015167ffffffffffffffff811115610279576102786100c0565b5b6102858482850161021a565b91505092915050565b610ba58061029b5f395ff3fe608060405234801561000f575f5ffd5b506004361061009c575f3560e01c806340aa934d1161006457806340aa934d1461017e57806374380a78146101ae5780639ec8b026146101de578063e9fdbeba1461020e578063ed4400171461022a5761009c565b8063054615f6146100a05780631f7b6d32146100d0578063206ce879146100ee578063233c1d6a1461011e57806333e3a58a1461014e575b5f5ffd5b6100ba60048036038101906100b591906108e4565b61025a565b6040516100c7919061094d565b60405180910390f35b6100d8610276565b6040516100e5919061094d565b60405180910390f35b61010860048036038101906101039190610966565b610281565b6040516101159190610a64565b60405180910390f35b61013860048036038101906101339190610a84565b61029f565b604051610145919061094d565b60405180910390f35b61016860048036038101906101639190610a84565b6102ba565b604051610175919061094d565b60405180910390f35b61019860048036038101906101939190610a84565b6102d5565b6040516101a5919061094d565b60405180910390f35b6101c860048036038101906101c39190610a84565b6102f3565b6040516101d5919061094d565b60405180910390f35b6101f860048036038101906101f39190610966565b61030e565b6040516102059190610a64565b60405180910390f35b61022860048036038101906102239190610a84565b610320565b005b610244600480360381019061023f91906108e4565b610336565b604051610251919061094d565b60405180910390f35b5f61026e828461035290919063ffffffff16565b905092915050565b5f5f80549050905090565b60606102986103b5836103c190919063ffffffff16565b9050919050565b5f6102b3825f6103e790919063ffffffff16565b9050919050565b5f6102ce825f61045090919063ffffffff16565b9050919050565b5f6102e9825f61050390919063ffffffff16565b5f01549050919050565b5f610307825f61053490919063ffffffff16565b9050919050565b60606103198261059d565b9050919050565b610333815f6105b490919063ffffffff16565b50565b5f61034a82846105bb90919063ffffffff16565b905092915050565b5f5f5f90505f845190505f810361036d575f925050506103af565b5b808210156103a9575f610381838361061e565b90508461038e878361063f565b101561039f576001810192506103a3565b8091505b5061036e565b81925050505b92915050565b5f818311905092915050565b60606103de6103cf84610652565b6103d88561065e565b84610675565b82905092915050565b5f5f5f90505f848054905090505f8103610405575f9250505061044a565b5b80821015610444575f610419838361061e565b9050846104268783610503565b5f015411156104375780915061043e565b6001810192505b50610406565b81925050505b92915050565b5f5f5f90505f848054905090505f810361046e575f925050506104fd565b5b808210156104b6575f610482838361061e565b90508461048f8783610503565b5f015411156104a0578091506104b0565b6001816104ad9190610adc565b92505b5061046f565b5f821180156104dc5750836104d7866001856104d29190610b0f565b610503565b5f0154145b156104f7576001826104ee9190610b0f565b925050506104fd565b81925050505b92915050565b5f5f83905061052b6105268461051884610702565b61071190919063ffffffff16565b610721565b91505092915050565b5f5f5f90505f848054905090505f8103610552575f92505050610597565b5b80821015610591575f610566838361061e565b9050846105738783610503565b5f015410156105875760018101925061058b565b8091505b50610553565b81925050505b92915050565b60606105ab8261072a6103c1565b50819050919050565b8082555050565b5f5f5f90505f845190505f81036105d6575f92505050610618565b5b80821015610612575f6105ea838361061e565b9050846105f7878361063f565b11156106055780915061060c565b6001810192505b506105d7565b81925050505b92915050565b5f60028284188161063257610631610b42565b5b0482841601905092915050565b5f60208202602084010151905092915050565b5f602082019050919050565b5f602082510261066d83610652565b019050919050565b6040838303106106fd575f61068984610736565b90505f8490505f6020860190505b848110156106d6576106b56106ab82610736565b848663ffffffff16565b156106cb576020820191506106ca8282610740565b5b602081019050610697565b506106e18582610740565b6106ec858285610675565b6106fa602082018585610675565b50505b505050565b5f815f5260205f209050919050565b5f81835f1c015f1b905092915050565b5f819050919050565b5f818310905092915050565b5f81519050919050565b8151815180845281835250505050565b5f604051905090565b5f5ffd5b5f5ffd5b5f5ffd5b5f601f19601f8301169050919050565b7f4e487b71000000000000000000000000000000000000000000000000000000005f52604160045260245ffd5b6107ab82610765565b810181811067ffffffffffffffff821117156107ca576107c9610775565b5b80604052505050565b5f6107dc610750565b90506107e882826107a2565b919050565b5f67ffffffffffffffff82111561080757610806610775565b5b602082029050602081019050919050565b5f5ffd5b5f819050919050565b61082e8161081c565b8114610838575f5ffd5b50565b5f8135905061084981610825565b92915050565b5f61086161085c846107ed565b6107d3565b9050808382526020820190506020840283018581111561088457610883610818565b5b835b818110156108ad5780610899888261083b565b845260208401935050602081019050610886565b5050509392505050565b5f82601f8301126108cb576108ca610761565b5b81356108db84826020860161084f565b91505092915050565b5f5f604083850312156108fa576108f9610759565b5b5f83013567ffffffffffffffff8111156109175761091661075d565b5b610923858286016108b7565b92505060206109348582860161083b565b9150509250929050565b6109478161081c565b82525050565b5f6020820190506109605f83018461093e565b92915050565b5f6020828403121561097b5761097a610759565b5b5f82013567ffffffffffffffff8111156109985761099761075d565b5b6109a4848285016108b7565b91505092915050565b5f81519050919050565b5f82825260208201905092915050565b5f819050602082019050919050565b6109df8161081c565b82525050565b5f6109f083836109d6565b60208301905092915050565b5f602082019050919050565b5f610a12826109ad565b610a1c81856109b7565b9350610a27836109c7565b805f5b83811015610a57578151610a3e88826109e5565b9750610a49836109fc565b925050600181019050610a2a565b5085935050505092915050565b5f6020820190508181035f830152610a7c8184610a08565b905092915050565b5f60208284031215610a9957610a98610759565b5b5f610aa68482850161083b565b91505092915050565b7f4e487b71000000000000000000000000000000000000000000000000000000005f52601160045260245ffd5b5f610ae68261081c565b9150610af18361081c565b9250828201905080821115610b0957610b08610aaf565b5b92915050565b5f610b198261081c565b9150610b248361081c565b9250828203905081811115610b3c57610b3b610aaf565b5b92915050565b7f4e487b71000000000000000000000000000000000000000000000000000000005f52601260045260245ffdfea2646970667358221220bd80343b5cf4630fdcbb536bdbf87bc5af415f3181a0bb3c5c8facdc9f5583c664736f6c634300081e0033","linkReferences":{}},"methodIdentifiers":{"findUpperBound(uint256)":"33e3a58a","length()":"1f7b6d32","lowerBound(uint256)":"74380a78","lowerBoundMemory(uint256[],uint256)":"054615f6","sort(uint256[])":"9ec8b026","sortReverse(uint256[])":"206ce879","unsafeAccess(uint256)":"40aa934d","unsafeSetLength(uint256)":"e9fdbeba","upperBound(uint256)":"233c1d6a","upperBoundMemory(uint256[],uint256)":"ed440017"},"id":198}