{"abi":[{"type":"constructor","inputs":[],"stateMutability":"nonpayable"},{"type":"function","name":"callback","inputs":[],"outputs":[],"stateMutability":"nonpayable"},{"type":"function","name":"countAndCall","inputs":[{"name":"attacker","type":"address","internalType":"contract ReentrancyAttack"}],"outputs":[],"stateMutability":"nonpayable"},{"type":"function","name":"countAndCallView","inputs":[{"name":"attacker","type":"address","internalType":"contract ReentrancyAttack"}],"outputs":[],"stateMutability":"nonpayable"},{"type":"function","name":"countLocalRecursive","inputs":[{"name":"n","type":"uint256","internalType":"uint256"}],"outputs":[],"stateMutability":"nonpayable"},{"type":"function","name":"countThisRecursive","inputs":[{"name":"n","type":"uint256","internalType":"uint256"}],"outputs":[],"stateMutability":"nonpayable"},{"type":"function","name":"counter","inputs":[],"outputs":[{"name":"","type":"uint256","internalType":"uint256"}],"stateMutability":"view"},{"type":"function","name":"guardedCheckEntered","inputs":[],"outputs":[],"stateMutability":"nonpayable"},{"type":"function","name":"unguardedCheckNotEntered","inputs":[],"outputs":[],"stateMutability":"view"},{"type":"function","name":"viewCallback","inputs":[],"outputs":[{"name":"","type":"uint256","internalType":"uint256"}],"stateMutability":"view"},{"type":"error","name":"ReentrancyGuardReentrantCall","inputs":[]}],"bytecode":{"object":"0x6080604052348015600e575f5ffd5b5060016029601f603960201b60201c565b606260201b60201c565b5f01819055505f5f81905550606b565b5f7f9b779b17422d0df92223018b32b4d1fa46e071723d6817e2486d003becc55f005f1b905090565b5f819050919050565b610930806100785f395ff3fe608060405234801561000f575f5ffd5b5060043610610091575f3560e01c806396ffa6901161006457806396ffa690146100f7578063a408f31214610113578063b672ad8b1461011d578063cb52417614610139578063cecc95a71461015557610091565b8063083b27321461009557806332e2a0411461009f57806361bc221a146100bd5780638c5344fa146100db575b5f5ffd5b61009d61015f565b005b6100a7610179565b6040516100b49190610607565b60405180910390f35b6100c5610189565b6040516100d29190610607565b60405180910390f35b6100f560048036038101906100f0919061064e565b61018e565b005b610111600480360381019061010c919061064e565b6102d5565b005b61011b61030e565b005b610137600480360381019061013291906106e4565b610330565b005b610153600480360381019061014e91906106e4565b610414565b005b61015d6104f7565b005b61016761050a565b61016f61052c565b610177610546565b565b5f610182610560565b5f54905090565b5f5481565b61019661050a565b5f8111156102ca576101a661052c565b5f3073ffffffffffffffffffffffffffffffffffffffff163073ffffffffffffffffffffffffffffffffffffffff16638c5344fa6001856101e7919061073c565b6040516024016101f79190610607565b604051602081830303815290604052915060e01b6020820180517bffffffffffffffffffffffffffffffffffffffffffffffffffffffff838183161783525050505060405161024691906107c1565b5f604051808303815f865af19150503d805f811461027f576040519150601f19603f3d011682016040523d82523d5f602084013e610284565b606091505b50509050806102c8576040517f08c379a00000000000000000000000000000000000000000000000000000000081526004016102bf90610831565b60405180910390fd5b505b6102d2610546565b50565b6102dd61050a565b5f811115610303576102ed61052c565b6103026001826102fd919061073c565b6102d5565b5b61030b610546565b50565b61031661050a565b61031e6105a1565b610326575f5ffd5b61032e610546565b565b61033861050a565b61034061052c565b8073ffffffffffffffffffffffffffffffffffffffff1663f8123dd53073ffffffffffffffffffffffffffffffffffffffff1663083b2732604051602401604051602081830303815290604052915060e01b6020820180517bffffffffffffffffffffffffffffffffffffffffffffffffffffffff83818316178352505050506040518263ffffffff1660e01b81526004016103dc91906108a7565b5f604051808303815f87803b1580156103f3575f5ffd5b505af1158015610405573d5f5f3e3d5ffd5b50505050610411610546565b50565b61041c61050a565b61042461052c565b8073ffffffffffffffffffffffffffffffffffffffff16633ac48f0a3073ffffffffffffffffffffffffffffffffffffffff166332e2a041604051602401604051602081830303815290604052915060e01b6020820180517bffffffffffffffffffffffffffffffffffffffffffffffffffffffff83818316178352505050506040518263ffffffff1660e01b81526004016104c091906108a7565b5f6040518083038186803b1580156104d6575f5ffd5b505afa1580156104e8573d5f5f3e3d5ffd5b505050506104f4610546565b50565b6104ff6105a1565b15610508575f5ffd5b565b610512610560565b600261052461051f6105bd565b6105e6565b5f0181905550565b60015f5f82825461053d91906108c7565b92505081905550565b60016105586105536105bd565b6105e6565b5f0181905550565b6105686105a1565b1561059f576040517f3ee5aeb500000000000000000000000000000000000000000000000000000000815260040160405180910390fd5b565b5f60026105b46105af6105bd565b6105e6565b5f015414905090565b5f7f9b779b17422d0df92223018b32b4d1fa46e071723d6817e2486d003becc55f005f1b905090565b5f819050919050565b5f819050919050565b610601816105ef565b82525050565b5f60208201905061061a5f8301846105f8565b92915050565b5f5ffd5b61062d816105ef565b8114610637575f5ffd5b50565b5f8135905061064881610624565b92915050565b5f6020828403121561066357610662610620565b5b5f6106708482850161063a565b91505092915050565b5f73ffffffffffffffffffffffffffffffffffffffff82169050919050565b5f6106a282610679565b9050919050565b5f6106b382610698565b9050919050565b6106c3816106a9565b81146106cd575f5ffd5b50565b5f813590506106de816106ba565b92915050565b5f602082840312156106f9576106f8610620565b5b5f610706848285016106d0565b91505092915050565b7f4e487b71000000000000000000000000000000000000000000000000000000005f52601160045260245ffd5b5f610746826105ef565b9150610751836105ef565b92508282039050818111156107695761076861070f565b5b92915050565b5f81519050919050565b5f81905092915050565b8281835e5f83830152505050565b5f61079b8261076f565b6107a58185610779565b93506107b5818560208601610783565b80840191505092915050565b5f6107cc8284610791565b915081905092915050565b5f82825260208201905092915050565b7f5265656e7472616e63794d6f636b3a206661696c65642063616c6c00000000005f82015250565b5f61081b601b836107d7565b9150610826826107e7565b602082019050919050565b5f6020820190508181035f8301526108488161080f565b9050919050565b5f82825260208201905092915050565b5f601f19601f8301169050919050565b5f6108798261076f565b610883818561084f565b9350610893818560208601610783565b61089c8161085f565b840191505092915050565b5f6020820190508181035f8301526108bf818461086f565b905092915050565b5f6108d1826105ef565b91506108dc836105ef565b92508282019050808211156108f4576108f361070f565b5b9291505056fea2646970667358221220ac583d130956c4656eb8e4ec23f98c804160df08605d3ab7b3d1367abc89aa5164736f6c634300081e0033","linkReferences":{}},"methodIdentifiers":{"callback()":"083b2732","countAndCall(address)":"b672ad8b","countAndCallView(address)":"cb524176","countLocalRecursive(uint256)":"96ffa690","countThisRecursive(uint256)":"8c5344fa","counter()":"61bc221a","guardedCheckEntered()":"a408f312","unguardedCheckNotEntered()":"cecc95a7","viewCallback()":"32e2a041"},"id":219}