{"abi":[{"type":"constructor","inputs":[],"stateMutability":"nonpayable"},{"type":"function","name":"CLOCK_MODE","inputs":[],"outputs":[{"name":"","type":"string","internalType":"string"}],"stateMutability":"pure"},{"type":"function","name":"DOMAIN_SEPARATOR","inputs":[],"outputs":[{"name":"","type":"bytes32","internalType":"bytes32"}],"stateMutability":"view"},{"type":"function","name":"allowance","inputs":[{"name":"owner","type":"address","internalType":"address"},{"name":"spender","type":"address","internalType":"address"}],"outputs":[{"name":"","type":"uint256","internalType":"uint256"}],"stateMutability":"view"},{"type":"function","name":"approve","inputs":[{"name":"spender","type":"address","internalType":"address"},{"name":"value","type":"uint256","internalType":"uint256"}],"outputs":[{"name":"","type":"bool","internalType":"bool"}],"stateMutability":"nonpayable"},{"type":"function","name":"balanceOf","inputs":[{"name":"account","type":"address","internalType":"address"}],"outputs":[{"name":"","type":"uint256","internalType":"uint256"}],"stateMutability":"view"},{"type":"function","name":"checkpoints","inputs":[{"name":"account","type":"address","internalType":"address"},{"name":"pos","type":"uint32","internalType":"uint32"}],"outputs":[{"name":"","type":"tuple","internalType":"struct Checkpoints.Checkpoint208","components":[{"name":"_key","type":"uint48","internalType":"uint48"},{"name":"_value","type":"uint208","internalType":"uint208"}]}],"stateMutability":"view"},{"type":"function","name":"clock","inputs":[],"outputs":[{"name":"","type":"uint48","internalType":"uint48"}],"stateMutability":"view"},{"type":"function","name":"decimals","inputs":[],"outputs":[{"name":"","type":"uint8","internalType":"uint8"}],"stateMutability":"view"},{"type":"function","name":"delegate","inputs":[{"name":"delegatee","type":"address","internalType":"address"}],"outputs":[],"stateMutability":"nonpayable"},{"type":"function","name":"delegateBySig","inputs":[{"name":"delegatee","type":"address","internalType":"address"},{"name":"nonce","type":"uint256","internalType":"uint256"},{"name":"expiry","type":"uint256","internalType":"uint256"},{"name":"v","type":"uint8","internalType":"uint8"},{"name":"r","type":"bytes32","internalType":"bytes32"},{"name":"s","type":"bytes32","internalType":"bytes32"}],"outputs":[],"stateMutability":"nonpayable"},{"type":"function","name":"delegates","inputs":[{"name":"account","type":"address","internalType":"address"}],"outputs":[{"name":"","type":"address","internalType":"address"}],"stateMutability":"view"},{"type":"function","name":"eip712Domain","inputs":[],"outputs":[{"name":"fields","type":"bytes1","internalType":"bytes1"},{"name":"name","type":"string","internalType":"string"},{"name":"version","type":"string","internalType":"string"},{"name":"chainId","type":"uint256","internalType":"uint256"},{"name":"verifyingContract","type":"address","internalType":"address"},{"name":"salt","type":"bytes32","internalType":"bytes32"},{"name":"extensions","type":"uint256[]","internalType":"uint256[]"}],"stateMutability":"view"},{"type":"function","name":"getPastTotalSupply","inputs":[{"name":"timepoint","type":"uint256","internalType":"uint256"}],"outputs":[{"name":"","type":"uint256","internalType":"uint256"}],"stateMutability":"view"},{"type":"function","name":"getPastVotes","inputs":[{"name":"account","type":"address","internalType":"address"},{"name":"timepoint","type":"uint256","internalType":"uint256"}],"outputs":[{"name":"","type":"uint256","internalType":"uint256"}],"stateMutability":"view"},{"type":"function","name":"getVotes","inputs":[{"name":"account","type":"address","internalType":"address"}],"outputs":[{"name":"","type":"uint256","internalType":"uint256"}],"stateMutability":"view"},{"type":"function","name":"name","inputs":[],"outputs":[{"name":"","type":"string","internalType":"string"}],"stateMutability":"view"},{"type":"function","name":"nonces","inputs":[{"name":"owner","type":"address","internalType":"address"}],"outputs":[{"name":"","type":"uint256","internalType":"uint256"}],"stateMutability":"view"},{"type":"function","name":"numCheckpoints","inputs":[{"name":"account","type":"address","internalType":"address"}],"outputs":[{"name":"","type":"uint32","internalType":"uint32"}],"stateMutability":"view"},{"type":"function","name":"permit","inputs":[{"name":"owner","type":"address","internalType":"address"},{"name":"spender","type":"address","internalType":"address"},{"name":"value","type":"uint256","internalType":"uint256"},{"name":"deadline","type":"uint256","internalType":"uint256"},{"name":"v","type":"uint8","internalType":"uint8"},{"name":"r","type":"bytes32","internalType":"bytes32"},{"name":"s","type":"bytes32","internalType":"bytes32"}],"outputs":[],"stateMutability":"nonpayable"},{"type":"function","name":"symbol","inputs":[],"outputs":[{"name":"","type":"string","internalType":"string"}],"stateMutability":"view"},{"type":"function","name":"totalSupply","inputs":[],"outputs":[{"name":"","type":"uint256","internalType":"uint256"}],"stateMutability":"view"},{"type":"function","name":"transfer","inputs":[{"name":"to","type":"address","internalType":"address"},{"name":"value","type":"uint256","internalType":"uint256"}],"outputs":[{"name":"","type":"bool","internalType":"bool"}],"stateMutability":"nonpayable"},{"type":"function","name":"transferFrom","inputs":[{"name":"from","type":"address","internalType":"address"},{"name":"to","type":"address","internalType":"address"},{"name":"value","type":"uint256","internalType":"uint256"}],"outputs":[{"name":"","type":"bool","internalType":"bool"}],"stateMutability":"nonpayable"},{"type":"event","name":"Approval","inputs":[{"name":"owner","type":"address","indexed":true,"internalType":"address"},{"name":"spender","type":"address","indexed":true,"internalType":"address"},{"name":"value","type":"uint256","indexed":false,"internalType":"uint256"}],"anonymous":false},{"type":"event","name":"DelegateChanged","inputs":[{"name":"delegator","type":"address","indexed":true,"internalType":"address"},{"name":"fromDelegate","type":"address","indexed":true,"internalType":"address"},{"name":"toDelegate","type":"address","indexed":true,"internalType":"address"}],"anonymous":false},{"type":"event","name":"DelegateVotesChanged","inputs":[{"name":"delegate","type":"address","indexed":true,"internalType":"address"},{"name":"previousVotes","type":"uint256","indexed":false,"internalType":"uint256"},{"name":"newVotes","type":"uint256","indexed":false,"internalType":"uint256"}],"anonymous":false},{"type":"event","name":"EIP712DomainChanged","inputs":[],"anonymous":false},{"type":"event","name":"Transfer","inputs":[{"name":"from","type":"address","indexed":true,"internalType":"address"},{"name":"to","type":"address","indexed":true,"internalType":"address"},{"name":"value","type":"uint256","indexed":false,"internalType":"uint256"}],"anonymous":false},{"type":"error","name":"CheckpointUnorderedInsertion","inputs":[]},{"type":"error","name":"ECDSAInvalidSignature","inputs":[]},{"type":"error","name":"ECDSAInvalidSignatureLength","inputs":[{"name":"length","type":"uint256","internalType":"uint256"}]},{"type":"error","name":"ECDSAInvalidSignatureS","inputs":[{"name":"s","type":"bytes32","internalType":"bytes32"}]},{"type":"error","name":"ERC20ExceededSafeSupply","inputs":[{"name":"increasedSupply","type":"uint256","internalType":"uint256"},{"name":"cap","type":"uint256","internalType":"uint256"}]},{"type":"error","name":"ERC20InsufficientAllowance","inputs":[{"name":"spender","type":"address","internalType":"address"},{"name":"allowance","type":"uint256","internalType":"uint256"},{"name":"needed","type":"uint256","internalType":"uint256"}]},{"type":"error","name":"ERC20InsufficientBalance","inputs":[{"name":"sender","type":"address","internalType":"address"},{"name":"balance","type":"uint256","internalType":"uint256"},{"name":"needed","type":"uint256","internalType":"uint256"}]},{"type":"error","name":"ERC20InvalidApprover","inputs":[{"name":"approver","type":"address","internalType":"address"}]},{"type":"error","name":"ERC20InvalidReceiver","inputs":[{"name":"receiver","type":"address","internalType":"address"}]},{"type":"error","name":"ERC20InvalidSender","inputs":[{"name":"sender","type":"address","internalType":"address"}]},{"type":"error","name":"ERC20InvalidSpender","inputs":[{"name":"spender","type":"address","internalType":"address"}]},{"type":"error","name":"ERC2612ExpiredSignature","inputs":[{"name":"deadline","type":"uint256","internalType":"uint256"}]},{"type":"error","name":"ERC2612InvalidSigner","inputs":[{"name":"signer","type":"address","internalType":"address"},{"name":"owner","type":"address","internalType":"address"}]},{"type":"error","name":"ERC5805FutureLookup","inputs":[{"name":"timepoint","type":"uint256","internalType":"uint256"},{"name":"clock","type":"uint48","internalType":"uint48"}]},{"type":"error","name":"ERC6372InconsistentClock","inputs":[]},{"type":"error","name":"InvalidAccountNonce","inputs":[{"name":"account","type":"address","internalType":"address"},{"name":"currentNonce","type":"uint256","internalType":"uint256"}]},{"type":"error","name":"InvalidShortString","inputs":[]},{"type":"error","name":"SafeCastOverflowedUintDowncast","inputs":[{"name":"bits","type":"uint8","internalType":"uint8"},{"name":"value","type":"uint256","internalType":"uint256"}]},{"type":"error","name":"StringTooLong","inputs":[{"name":"str","type":"string","internalType":"string"}]},{"type":"error","name":"VotesExpiredSignature","inputs":[{"name":"expiry","type":"uint256","internalType":"uint256"}]}],"bytecode":{"object":"0x610160604052348015610010575f5ffd5b506040518060400160405280601581526020017f4d79546f6b656e54696d657374616d7042617365640000000000000000000000815250806040518060400160405280600181526020017f31000000000000000000000000000000000000000000000000000000000000008152506040518060400160405280601581526020017f4d79546f6b656e54696d657374616d70426173656400000000000000000000008152506040518060400160405280600381526020017f4d544b000000000000000000000000000000000000000000000000000000000081525081600390816100f9919061050e565b508060049081610109919061050e565b5050506101206005836101bc60201b90919060201c565b610120818152505061013c6006826101bc60201b90919060201c565b6101408181525050818051906020012060e08181525050808051906020012061010081815250504660a0818152505061017961020960201b60201c565b608081815250503073ffffffffffffffffffffffffffffffffffffffff1660c08173ffffffffffffffffffffffffffffffffffffffff16815250505050506107ad565b5f6020835110156101dd576101d68361026360201b60201c565b9050610203565b826101ed836102c860201b60201c565b5f0190816101fb919061050e565b5060ff5f1b90505b92915050565b5f7f8b73c3c69bb8fe3d512ecc4cf759cc79239f7b179b0ffacaa9a75d522b39400f60e051610100514630604051602001610248959493929190610643565b60405160208183030381529060405280519060200120905090565b5f5f829050601f815111156102af57826040517f305a27a90000000000000000000000000000000000000000000000000000000081526004016102a691906106fa565b60405180910390fd5b8051816102bb90610747565b5f1c175f1b915050919050565b5f819050919050565b5f81519050919050565b7f4e487b71000000000000000000000000000000000000000000000000000000005f52604160045260245ffd5b7f4e487b71000000000000000000000000000000000000000000000000000000005f52602260045260245ffd5b5f600282049050600182168061034c57607f821691505b60208210810361035f5761035e610308565b5b50919050565b5f819050815f5260205f209050919050565b5f6020601f8301049050919050565b5f82821b905092915050565b5f600883026103c17fffffffffffffffffffffffffffffffffffffffffffffffffffffffffffffffff82610386565b6103cb8683610386565b95508019841693508086168417925050509392505050565b5f819050919050565b5f819050919050565b5f61040f61040a610405846103e3565b6103ec565b6103e3565b9050919050565b5f819050919050565b610428836103f5565b61043c61043482610416565b848454610392565b825550505050565b5f5f905090565b610453610444565b61045e81848461041f565b505050565b5b81811015610481576104765f8261044b565b600181019050610464565b5050565b601f8211156104c65761049781610365565b6104a084610377565b810160208510156104af578190505b6104c36104bb85610377565b830182610463565b50505b505050565b5f82821c905092915050565b5f6104e65f19846008026104cb565b1980831691505092915050565b5f6104fe83836104d7565b9150826002028217905092915050565b610517826102d1565b67ffffffffffffffff8111156105305761052f6102db565b5b61053a8254610335565b610545828285610485565b5f60209050601f831160018114610576575f8415610564578287015190505b61056e85826104f3565b8655506105d5565b601f19841661058486610365565b5f5b828110156105ab57848901518255600182019150602085019450602081019050610586565b868310156105c857848901516105c4601f8916826104d7565b8355505b6001600288020188555050505b505050505050565b5f819050919050565b6105ef816105dd565b82525050565b6105fe816103e3565b82525050565b5f73ffffffffffffffffffffffffffffffffffffffff82169050919050565b5f61062d82610604565b9050919050565b61063d81610623565b82525050565b5f60a0820190506106565f8301886105e6565b61066360208301876105e6565b61067060408301866105e6565b61067d60608301856105f5565b61068a6080830184610634565b9695505050505050565b5f82825260208201905092915050565b8281835e5f83830152505050565b5f601f19601f8301169050919050565b5f6106cc826102d1565b6106d68185610694565b93506106e68185602086016106a4565b6106ef816106b2565b840191505092915050565b5f6020820190508181035f83015261071281846106c2565b905092915050565b5f81519050919050565b5f819050602082019050919050565b5f61073e82516105dd565b80915050919050565b5f6107518261071a565b8261075b84610724565b905061076681610733565b925060208210156107a6576107a17fffffffffffffffffffffffffffffffffffffffffffffffffffffffffffffffff83602003600802610386565b831692505b5050919050565b60805160a05160c05160e05161010051610120516101405161355a6107fe5f395f61118a01525f61114f01525f61159201525f61157101525f610dc201525f610e1801525f610e41015261355a5ff3fe608060405234801561000f575f5ffd5b506004361061014b575f3560e01c806370a08231116100c15780639ab24eb01161007a5780639ab24eb0146103e1578063a9059cbb14610411578063c3cda52014610441578063d505accf1461045d578063dd62ed3e14610479578063f1127ed8146104a95761014b565b806370a08231146102f15780637ecebe001461032157806384b0196e146103515780638e539e8c1461037557806391ddadf4146103a557806395d89b41146103c35761014b565b80633644e515116101135780633644e515146102095780633a46b1a8146102275780634bf5d7e914610257578063587cde1e146102755780635c19a95c146102a55780636fcfff45146102c15761014b565b806306fdde031461014f578063095ea7b31461016d57806318160ddd1461019d57806323b872dd146101bb578063313ce567146101eb575b5f5ffd5b6101576104d9565b60405161016491906128ad565b60405180910390f35b6101876004803603810190610182919061295e565b610569565b60405161019491906129b6565b60405180910390f35b6101a561058b565b6040516101b291906129de565b60405180910390f35b6101d560048036038101906101d091906129f7565b610594565b6040516101e291906129b6565b60405180910390f35b6101f36105c2565b6040516102009190612a62565b60405180910390f35b6102116105ca565b60405161021e9190612a93565b60405180910390f35b610241600480360381019061023c919061295e565b6105d8565b60405161024e91906129de565b60405180910390f35b61025f610654565b60405161026c91906128ad565b60405180910390f35b61028f600480360381019061028a9190612aac565b610691565b60405161029c9190612ae6565b60405180910390f35b6102bf60048036038101906102ba9190612aac565b6106f6565b005b6102db60048036038101906102d69190612aac565b61070f565b6040516102e89190612b1d565b60405180910390f35b61030b60048036038101906103069190612aac565b610720565b60405161031891906129de565b60405180910390f35b61033b60048036038101906103369190612aac565b610765565b60405161034891906129de565b60405180910390f35b610359610776565b60405161036c9796959493929190612c27565b60405180910390f35b61038f600480360381019061038a9190612ca9565b61081b565b60405161039c91906129de565b60405180910390f35b6103ad61085b565b6040516103ba9190612cf4565b60405180910390f35b6103cb610862565b6040516103d891906128ad565b60405180910390f35b6103fb60048036038101906103f69190612aac565b6108f2565b60405161040891906129de565b60405180910390f35b61042b6004803603810190610426919061295e565b61095b565b60405161043891906129b6565b60405180910390f35b61045b60048036038101906104569190612d61565b61097d565b005b61047760048036038101906104729190612dea565b610a42565b005b610493600480360381019061048e9190612e87565b610b87565b6040516104a091906129de565b60405180910390f35b6104c360048036038101906104be9190612eef565b610c09565b6040516104d09190612f9d565b60405180910390f35b6060600380546104e890612fe3565b80601f016020809104026020016040519081016040528092919081815260200182805461051490612fe3565b801561055f5780601f106105365761010080835404028352916020019161055f565b820191905f5260205f20905b81548152906001019060200180831161054257829003601f168201915b5050505050905090565b5f5f610573610c23565b9050610580818585610c2a565b600191505092915050565b5f600254905090565b5f5f61059e610c23565b90506105ab858285610c3c565b6105b6858585610ccf565b60019150509392505050565b5f6012905090565b5f6105d3610dbf565b905090565b5f6106306105e583610e75565b60095f8673ffffffffffffffffffffffffffffffffffffffff1673ffffffffffffffffffffffffffffffffffffffff1681526020019081526020015f20610ee090919063ffffffff16565b79ffffffffffffffffffffffffffffffffffffffffffffffffffff16905092915050565b60606040518060400160405280600e81526020017f6d6f64653d74696d657374616d70000000000000000000000000000000000000815250905090565b5f60085f8373ffffffffffffffffffffffffffffffffffffffff1673ffffffffffffffffffffffffffffffffffffffff1681526020019081526020015f205f9054906101000a900473ffffffffffffffffffffffffffffffffffffffff169050919050565b5f6106ff610c23565b905061070b8183610fd0565b5050565b5f610719826110e0565b9050919050565b5f5f5f8373ffffffffffffffffffffffffffffffffffffffff1673ffffffffffffffffffffffffffffffffffffffff1681526020019081526020015f20549050919050565b5f61076f82611135565b9050919050565b5f6060805f5f5f6060610787611146565b61078f611181565b46305f5f1b5f67ffffffffffffffff8111156107ae576107ad613013565b5b6040519080825280602002602001820160405280156107dc5781602001602082028036833780820191505090505b507f0f00000000000000000000000000000000000000000000000000000000000000959493929190965096509650965096509650965090919293949596565b5f61083861082883610e75565b600a610ee090919063ffffffff16565b79ffffffffffffffffffffffffffffffffffffffffffffffffffff169050919050565b5f42905090565b60606004805461087190612fe3565b80601f016020809104026020016040519081016040528092919081815260200182805461089d90612fe3565b80156108e85780601f106108bf576101008083540402835291602001916108e8565b820191905f5260205f20905b8154815290600101906020018083116108cb57829003601f168201915b5050505050905090565b5f61093860095f8473ffffffffffffffffffffffffffffffffffffffff1673ffffffffffffffffffffffffffffffffffffffff1681526020019081526020015f206111bc565b79ffffffffffffffffffffffffffffffffffffffffffffffffffff169050919050565b5f5f610965610c23565b9050610972818585610ccf565b600191505092915050565b834211156109c257836040517f4683af0e0000000000000000000000000000000000000000000000000000000081526004016109b991906129de565b60405180910390fd5b5f610a23610a1b7fe48329057bfd03d55e49b547132e39cffd9c1820ad7b9d4c5307691425d15adf898989604051602001610a009493929190613040565b6040516020818303038152906040528051906020012061121e565b858585611237565b9050610a2f8187611265565b610a398188610fd0565b50505050505050565b83421115610a8757836040517f62791302000000000000000000000000000000000000000000000000000000008152600401610a7e91906129de565b60405180910390fd5b5f7f6e71edae12b1b97f4d1f60370fef10105fa2faae0126114a169c64845d6126c9888888610ab58c6112bc565b89604051602001610acb96959493929190613083565b6040516020818303038152906040528051906020012090505f610aed8261121e565b90505f610afc82878787611237565b90508973ffffffffffffffffffffffffffffffffffffffff168173ffffffffffffffffffffffffffffffffffffffff1614610b7057808a6040517f4b800e46000000000000000000000000000000000000000000000000000000008152600401610b679291906130e2565b60405180910390fd5b610b7b8a8a8a610c2a565b50505050505050505050565b5f60015f8473ffffffffffffffffffffffffffffffffffffffff1673ffffffffffffffffffffffffffffffffffffffff1681526020019081526020015f205f8373ffffffffffffffffffffffffffffffffffffffff1673ffffffffffffffffffffffffffffffffffffffff1681526020019081526020015f2054905092915050565b610c11612801565b610c1b838361130f565b905092915050565b5f33905090565b610c37838383600161136e565b505050565b5f610c478484610b87565b90507fffffffffffffffffffffffffffffffffffffffffffffffffffffffffffffffff811015610cc95781811015610cba578281836040517ffb8f41b2000000000000000000000000000000000000000000000000000000008152600401610cb193929190613109565b60405180910390fd5b610cc884848484035f61136e565b5b50505050565b5f73ffffffffffffffffffffffffffffffffffffffff168373ffffffffffffffffffffffffffffffffffffffff1603610d3f575f6040517f96c6fd1e000000000000000000000000000000000000000000000000000000008152600401610d369190612ae6565b60405180910390fd5b5f73ffffffffffffffffffffffffffffffffffffffff168273ffffffffffffffffffffffffffffffffffffffff1603610daf575f6040517fec442f05000000000000000000000000000000000000000000000000000000008152600401610da69190612ae6565b60405180910390fd5b610dba83838361153d565b505050565b5f7f000000000000000000000000000000000000000000000000000000000000000073ffffffffffffffffffffffffffffffffffffffff163073ffffffffffffffffffffffffffffffffffffffff16148015610e3a57507f000000000000000000000000000000000000000000000000000000000000000046145b15610e67577f00000000000000000000000000000000000000000000000000000000000000009050610e72565b610e6f61154d565b90505b90565b5f5f610e7f61085b565b90508065ffffffffffff168310610ecf5782816040517fecd3f81e000000000000000000000000000000000000000000000000000000008152600401610ec692919061313e565b60405180910390fd5b610ed8836115e2565b915050919050565b5f5f835f018054905090505f5f90505f8290506005831115610f64575f610f068461163b565b84610f119190613192565b9050610f1f875f01826117d5565b5f015f9054906101000a900465ffffffffffff1665ffffffffffff168665ffffffffffff161015610f5257809150610f62565b600181610f5f91906131c5565b92505b505b5f610f73875f018785856117e7565b90505f8114610fc257610f94875f01600183610f8f9190613192565b6117d5565b5f0160069054906101000a900479ffffffffffffffffffffffffffffffffffffffffffffffffffff16610fc4565b5f5b94505050505092915050565b5f610fda83610691565b90508160085f8573ffffffffffffffffffffffffffffffffffffffff1673ffffffffffffffffffffffffffffffffffffffff1681526020019081526020015f205f6101000a81548173ffffffffffffffffffffffffffffffffffffffff021916908373ffffffffffffffffffffffffffffffffffffffff1602179055508173ffffffffffffffffffffffffffffffffffffffff168173ffffffffffffffffffffffffffffffffffffffff168473ffffffffffffffffffffffffffffffffffffffff167f3134e8a2e6d97e929a7e54011ea5485d7d196dd5f0ba4d4ef95803e8e3fc257f60405160405180910390a46110db81836110d68661185c565b61186d565b505050565b5f61112e61112960095f8573ffffffffffffffffffffffffffffffffffffffff1673ffffffffffffffffffffffffffffffffffffffff1681526020019081526020015f20611add565b611aec565b9050919050565b5f61113f82611b43565b9050919050565b606061117c60057f0000000000000000000000000000000000000000000000000000000000000000611b8990919063ffffffff16565b905090565b60606111b760067f0000000000000000000000000000000000000000000000000000000000000000611b8990919063ffffffff16565b905090565b5f5f825f018054905090505f8114611214576111e6835f016001836111e19190613192565b6117d5565b5f0160069054906101000a900479ffffffffffffffffffffffffffffffffffffffffffffffffffff16611216565b5f5b915050919050565b5f61123061122a610dbf565b83611c36565b9050919050565b5f5f5f5f61124788888888611c76565b9250925092506112578282611d5d565b829350505050949350505050565b5f61126f836112bc565b90508082146112b75782816040517f752d88c00000000000000000000000000000000000000000000000000000000081526004016112ae9291906131f8565b60405180910390fd5b505050565b5f60075f8373ffffffffffffffffffffffffffffffffffffffff1673ffffffffffffffffffffffffffffffffffffffff1681526020019081526020015f205f815480929190600101919050559050919050565b611317612801565b6113668260095f8673ffffffffffffffffffffffffffffffffffffffff1673ffffffffffffffffffffffffffffffffffffffff1681526020019081526020015f20611ebf90919063ffffffff16565b905092915050565b5f73ffffffffffffffffffffffffffffffffffffffff168473ffffffffffffffffffffffffffffffffffffffff16036113de575f6040517fe602df050000000000000000000000000000000000000000000000000000000081526004016113d59190612ae6565b60405180910390fd5b5f73ffffffffffffffffffffffffffffffffffffffff168373ffffffffffffffffffffffffffffffffffffffff160361144e575f6040517f94280d620000000000000000000000000000000000000000000000000000000081526004016114459190612ae6565b60405180910390fd5b8160015f8673ffffffffffffffffffffffffffffffffffffffff1673ffffffffffffffffffffffffffffffffffffffff1681526020019081526020015f205f8573ffffffffffffffffffffffffffffffffffffffff1673ffffffffffffffffffffffffffffffffffffffff1681526020019081526020015f20819055508015611537578273ffffffffffffffffffffffffffffffffffffffff168473ffffffffffffffffffffffffffffffffffffffff167f8c5be1e5ebec7d5bd14f71427d1e84f3dd0314c0f7b2291e5b200ac8c7c3b9258460405161152e91906129de565b60405180910390a35b50505050565b611548838383611f8e565b505050565b5f7f8b73c3c69bb8fe3d512ecc4cf759cc79239f7b179b0ffacaa9a75d522b39400f7f00000000000000000000000000000000000000000000000000000000000000007f000000000000000000000000000000000000000000000000000000000000000046306040516020016115c795949392919061321f565b60405160208183030381529060405280519060200120905090565b5f65ffffffffffff8016821115611633576030826040517f6dfcc65000000000000000000000000000000000000000000000000000000000815260040161162a9291906132b2565b60405180910390fd5b819050919050565b5f6001821161164c578190506117d0565b5f8290505f60019050700100000000000000000000000000000000821061167c57608082901c9150604081901b90505b68010000000000000000821061169b57604082901c9150602081901b90505b64010000000082106116b657602082901c9150601081901b90505b6201000082106116cf57601082901c9150600881901b90505b61010082106116e757600882901c9150600481901b90505b601082106116fe57600482901c9150600281901b90505b6004821061170e57600181901b90505b600181600302901c9050600181858161172a576117296132d9565b5b048201901c90506001818581611743576117426132d9565b5b048201901c9050600181858161175c5761175b6132d9565b5b048201901c90506001818581611775576117746132d9565b5b048201901c9050600181858161178e5761178d6132d9565b5b048201901c905060018185816117a7576117a66132d9565b5b048201901c90506117c98185816117c1576117c06132d9565b5b04821161203c565b8103925050505b919050565b5f825f528160205f2001905092915050565b5f5b81831015611851575f6117fc8484612047565b90508465ffffffffffff1661181187836117d5565b5f015f9054906101000a900465ffffffffffff1665ffffffffffff16111561183b5780925061184b565b60018161184891906131c5565b93505b506117e9565b819050949350505050565b5f61186682610720565b9050919050565b8173ffffffffffffffffffffffffffffffffffffffff168373ffffffffffffffffffffffffffffffffffffffff16141580156118a857505f81115b15611ad8575f73ffffffffffffffffffffffffffffffffffffffff168373ffffffffffffffffffffffffffffffffffffffff16146119c2575f5f61193360095f8773ffffffffffffffffffffffffffffffffffffffff1673ffffffffffffffffffffffffffffffffffffffff1681526020019081526020015f2061206861192e8661207d565b6120ea565b79ffffffffffffffffffffffffffffffffffffffffffffffffffff16915079ffffffffffffffffffffffffffffffffffffffffffffffffffff1691508473ffffffffffffffffffffffffffffffffffffffff167fdec2bacdd2f05b59de34da9b523dff8be42e5e38e818c82fdb0bae774387a72483836040516119b7929190613306565b60405180910390a250505b5f73ffffffffffffffffffffffffffffffffffffffff168273ffffffffffffffffffffffffffffffffffffffff1614611ad7575f5f611a4860095f8673ffffffffffffffffffffffffffffffffffffffff1673ffffffffffffffffffffffffffffffffffffffff1681526020019081526020015f20612129611a438661207d565b6120ea565b79ffffffffffffffffffffffffffffffffffffffffffffffffffff16915079ffffffffffffffffffffffffffffffffffffffffffffffffffff1691508373ffffffffffffffffffffffffffffffffffffffff167fdec2bacdd2f05b59de34da9b523dff8be42e5e38e818c82fdb0bae774387a7248383604051611acc929190613306565b60405180910390a250505b5b505050565b5f815f01805490509050919050565b5f63ffffffff8016821115611b3b576020826040517f6dfcc650000000000000000000000000000000000000000000000000000000008152600401611b32929190613366565b60405180910390fd5b819050919050565b5f60075f8373ffffffffffffffffffffffffffffffffffffffff1673ffffffffffffffffffffffffffffffffffffffff1681526020019081526020015f20549050919050565b606060ff5f1b8314611ba557611b9e8361213e565b9050611c30565b818054611bb190612fe3565b80601f0160208091040260200160405190810160405280929190818152602001828054611bdd90612fe3565b8015611c285780601f10611bff57610100808354040283529160200191611c28565b820191905f5260205f20905b815481529060010190602001808311611c0b57829003601f168201915b505050505090505b92915050565b5f6040517f190100000000000000000000000000000000000000000000000000000000000081528360028201528260228201526042812091505092915050565b5f5f5f7f7fffffffffffffffffffffffffffffff5d576e7357a4501ddfe92f46681b20a0845f1c1115611cb2575f600385925092509250611d53565b5f6001888888886040515f8152602001604052604051611cd5949392919061338d565b6020604051602081039080840390855afa158015611cf5573d5f5f3e3d5ffd5b5050506020604051035190505f73ffffffffffffffffffffffffffffffffffffffff168173ffffffffffffffffffffffffffffffffffffffff1603611d46575f60015f5f1b93509350935050611d53565b805f5f5f1b935093509350505b9450945094915050565b5f6003811115611d7057611d6f6133d0565b5b826003811115611d8357611d826133d0565b5b0315611ebb5760016003811115611d9d57611d9c6133d0565b5b826003811115611db057611daf6133d0565b5b03611de7576040517ff645eedf00000000000000000000000000000000000000000000000000000000815260040160405180910390fd5b60026003811115611dfb57611dfa6133d0565b5b826003811115611e0e57611e0d6133d0565b5b03611e5257805f1c6040517ffce698f7000000000000000000000000000000000000000000000000000000008152600401611e4991906129de565b60405180910390fd5b600380811115611e6557611e646133d0565b5b826003811115611e7857611e776133d0565b5b03611eba57806040517fd78bce0c000000000000000000000000000000000000000000000000000000008152600401611eb19190612a93565b60405180910390fd5b5b5050565b611ec7612801565b825f018263ffffffff1681548110611ee257611ee16133fd565b5b905f5260205f20016040518060400160405290815f82015f9054906101000a900465ffffffffffff1665ffffffffffff1665ffffffffffff1681526020015f820160069054906101000a900479ffffffffffffffffffffffffffffffffffffffffffffffffffff1679ffffffffffffffffffffffffffffffffffffffffffffffffffff1679ffffffffffffffffffffffffffffffffffffffffffffffffffff1681525050905092915050565b611f998383836121b0565b5f73ffffffffffffffffffffffffffffffffffffffff168373ffffffffffffffffffffffffffffffffffffffff160361202c575f611fd561058b565b90505f611fe06123c9565b9050808211156120295781816040517f1cb15d26000000000000000000000000000000000000000000000000000000008152600401612020929190613306565b60405180910390fd5b50505b6120378383836123ec565b505050565b5f8115159050919050565b5f60028284188161205b5761205a6132d9565b5b0482841601905092915050565b5f8183612075919061342a565b905092915050565b5f79ffffffffffffffffffffffffffffffffffffffffffffffffffff80168211156120e25760d0826040517f6dfcc6500000000000000000000000000000000000000000000000000000000081526004016120d99291906134b0565b60405180910390fd5b819050919050565b5f5f61211d6120f761085b565b61210d612103886111bc565b868863ffffffff16565b876124a49092919063ffffffff16565b91509150935093915050565b5f818361213691906134d7565b905092915050565b60605f61214a836124bf565b90505f602067ffffffffffffffff81111561216857612167613013565b5b6040519080825280601f01601f19166020018201604052801561219a5781602001600182028036833780820191505090505b5090508181528360208201528092505050919050565b5f73ffffffffffffffffffffffffffffffffffffffff168373ffffffffffffffffffffffffffffffffffffffff1603612200578060025f8282546121f491906131c5565b925050819055506122ce565b5f5f5f8573ffffffffffffffffffffffffffffffffffffffff1673ffffffffffffffffffffffffffffffffffffffff1681526020019081526020015f2054905081811015612289578381836040517fe450d38c00000000000000000000000000000000000000000000000000000000815260040161228093929190613109565b60405180910390fd5b8181035f5f8673ffffffffffffffffffffffffffffffffffffffff1673ffffffffffffffffffffffffffffffffffffffff1681526020019081526020015f2081905550505b5f73ffffffffffffffffffffffffffffffffffffffff168273ffffffffffffffffffffffffffffffffffffffff1603612315578060025f828254039250508190555061235f565b805f5f8473ffffffffffffffffffffffffffffffffffffffff1673ffffffffffffffffffffffffffffffffffffffff1681526020019081526020015f205f82825401925050819055505b8173ffffffffffffffffffffffffffffffffffffffff168373ffffffffffffffffffffffffffffffffffffffff167fddf252ad1be2c89b69c2b068fc378daa952ba7f163c4a11628f55a4df523b3ef836040516123bc91906129de565b60405180910390a3505050565b5f79ffffffffffffffffffffffffffffffffffffffffffffffffffff8016905090565b5f73ffffffffffffffffffffffffffffffffffffffff168373ffffffffffffffffffffffffffffffffffffffff160361243857612435600a6121296124308461207d565b6120ea565b50505b5f73ffffffffffffffffffffffffffffffffffffffff168273ffffffffffffffffffffffffffffffffffffffff160361248457612481600a61206861247c8461207d565b6120ea565b50505b61249f61249084610691565b61249984610691565b8361186d565b505050565b5f5f6124b3855f01858561250d565b91509150935093915050565b5f5f60ff835f1c169050601f811115612504576040517fb3512b0c00000000000000000000000000000000000000000000000000000000815260040160405180910390fd5b80915050919050565b5f5f5f858054905090505f811115612719575f612536876001846125319190613192565b6117d5565b90505f815f015f9054906101000a900465ffffffffffff1690505f825f0160069054906101000a900479ffffffffffffffffffffffffffffffffffffffffffffffffffff1690508765ffffffffffff168265ffffffffffff1611156125c7576040517f2520601d00000000000000000000000000000000000000000000000000000000815260040160405180910390fd5b8765ffffffffffff168265ffffffffffff16036126315786835f0160066101000a81548179ffffffffffffffffffffffffffffffffffffffffffffffffffff021916908379ffffffffffffffffffffffffffffffffffffffffffffffffffff16021790555061270a565b8860405180604001604052808a65ffffffffffff1681526020018979ffffffffffffffffffffffffffffffffffffffffffffffffffff16815250908060018154018082558091505060019003905f5260205f20015f909190919091505f820151815f015f6101000a81548165ffffffffffff021916908365ffffffffffff1602179055506020820151815f0160066101000a81548179ffffffffffffffffffffffffffffffffffffffffffffffffffff021916908379ffffffffffffffffffffffffffffffffffffffffffffffffffff16021790555050505b808795509550505050506127f9565b8560405180604001604052808765ffffffffffff1681526020018679ffffffffffffffffffffffffffffffffffffffffffffffffffff16815250908060018154018082558091505060019003905f5260205f20015f909190919091505f820151815f015f6101000a81548165ffffffffffff021916908365ffffffffffff1602179055506020820151815f0160066101000a81548179ffffffffffffffffffffffffffffffffffffffffffffffffffff021916908379ffffffffffffffffffffffffffffffffffffffffffffffffffff16021790555050505f8492509250505b935093915050565b60405180604001604052805f65ffffffffffff1681526020015f79ffffffffffffffffffffffffffffffffffffffffffffffffffff1681525090565b5f81519050919050565b5f82825260208201905092915050565b8281835e5f83830152505050565b5f601f19601f8301169050919050565b5f61287f8261283d565b6128898185612847565b9350612899818560208601612857565b6128a281612865565b840191505092915050565b5f6020820190508181035f8301526128c58184612875565b905092915050565b5f5ffd5b5f73ffffffffffffffffffffffffffffffffffffffff82169050919050565b5f6128fa826128d1565b9050919050565b61290a816128f0565b8114612914575f5ffd5b50565b5f8135905061292581612901565b92915050565b5f819050919050565b61293d8161292b565b8114612947575f5ffd5b50565b5f8135905061295881612934565b92915050565b5f5f60408385031215612974576129736128cd565b5b5f61298185828601612917565b92505060206129928582860161294a565b9150509250929050565b5f8115159050919050565b6129b08161299c565b82525050565b5f6020820190506129c95f8301846129a7565b92915050565b6129d88161292b565b82525050565b5f6020820190506129f15f8301846129cf565b92915050565b5f5f5f60608486031215612a0e57612a0d6128cd565b5b5f612a1b86828701612917565b9350506020612a2c86828701612917565b9250506040612a3d8682870161294a565b9150509250925092565b5f60ff82169050919050565b612a5c81612a47565b82525050565b5f602082019050612a755f830184612a53565b92915050565b5f819050919050565b612a8d81612a7b565b82525050565b5f602082019050612aa65f830184612a84565b92915050565b5f60208284031215612ac157612ac06128cd565b5b5f612ace84828501612917565b91505092915050565b612ae0816128f0565b82525050565b5f602082019050612af95f830184612ad7565b92915050565b5f63ffffffff82169050919050565b612b1781612aff565b82525050565b5f602082019050612b305f830184612b0e565b92915050565b5f7fff0000000000000000000000000000000000000000000000000000000000000082169050919050565b612b6a81612b36565b82525050565b5f81519050919050565b5f82825260208201905092915050565b5f819050602082019050919050565b612ba28161292b565b82525050565b5f612bb38383612b99565b60208301905092915050565b5f602082019050919050565b5f612bd582612b70565b612bdf8185612b7a565b9350612bea83612b8a565b805f5b83811015612c1a578151612c018882612ba8565b9750612c0c83612bbf565b925050600181019050612bed565b5085935050505092915050565b5f60e082019050612c3a5f83018a612b61565b8181036020830152612c4c8189612875565b90508181036040830152612c608188612875565b9050612c6f60608301876129cf565b612c7c6080830186612ad7565b612c8960a0830185612a84565b81810360c0830152612c9b8184612bcb565b905098975050505050505050565b5f60208284031215612cbe57612cbd6128cd565b5b5f612ccb8482850161294a565b91505092915050565b5f65ffffffffffff82169050919050565b612cee81612cd4565b82525050565b5f602082019050612d075f830184612ce5565b92915050565b612d1681612a47565b8114612d20575f5ffd5b50565b5f81359050612d3181612d0d565b92915050565b612d4081612a7b565b8114612d4a575f5ffd5b50565b5f81359050612d5b81612d37565b92915050565b5f5f5f5f5f5f60c08789031215612d7b57612d7a6128cd565b5b5f612d8889828a01612917565b9650506020612d9989828a0161294a565b9550506040612daa89828a0161294a565b9450506060612dbb89828a01612d23565b9350506080612dcc89828a01612d4d565b92505060a0612ddd89828a01612d4d565b9150509295509295509295565b5f5f5f5f5f5f5f60e0888a031215612e0557612e046128cd565b5b5f612e128a828b01612917565b9750506020612e238a828b01612917565b9650506040612e348a828b0161294a565b9550506060612e458a828b0161294a565b9450506080612e568a828b01612d23565b93505060a0612e678a828b01612d4d565b92505060c0612e788a828b01612d4d565b91505092959891949750929550565b5f5f60408385031215612e9d57612e9c6128cd565b5b5f612eaa85828601612917565b9250506020612ebb85828601612917565b9150509250929050565b612ece81612aff565b8114612ed8575f5ffd5b50565b5f81359050612ee981612ec5565b92915050565b5f5f60408385031215612f0557612f046128cd565b5b5f612f1285828601612917565b9250506020612f2385828601612edb565b9150509250929050565b612f3681612cd4565b82525050565b5f79ffffffffffffffffffffffffffffffffffffffffffffffffffff82169050919050565b612f6a81612f3c565b82525050565b604082015f820151612f845f850182612f2d565b506020820151612f976020850182612f61565b50505050565b5f604082019050612fb05f830184612f70565b92915050565b7f4e487b71000000000000000000000000000000000000000000000000000000005f52602260045260245ffd5b5f6002820490506001821680612ffa57607f821691505b60208210810361300d5761300c612fb6565b5b50919050565b7f4e487b71000000000000000000000000000000000000000000000000000000005f52604160045260245ffd5b5f6080820190506130535f830187612a84565b6130606020830186612ad7565b61306d60408301856129cf565b61307a60608301846129cf565b95945050505050565b5f60c0820190506130965f830189612a84565b6130a36020830188612ad7565b6130b06040830187612ad7565b6130bd60608301866129cf565b6130ca60808301856129cf565b6130d760a08301846129cf565b979650505050505050565b5f6040820190506130f55f830185612ad7565b6131026020830184612ad7565b9392505050565b5f60608201905061311c5f830186612ad7565b61312960208301856129cf565b61313660408301846129cf565b949350505050565b5f6040820190506131515f8301856129cf565b61315e6020830184612ce5565b9392505050565b7f4e487b71000000000000000000000000000000000000000000000000000000005f52601160045260245ffd5b5f61319c8261292b565b91506131a78361292b565b92508282039050818111156131bf576131be613165565b5b92915050565b5f6131cf8261292b565b91506131da8361292b565b92508282019050808211156131f2576131f1613165565b5b92915050565b5f60408201905061320b5f830185612ad7565b61321860208301846129cf565b9392505050565b5f60a0820190506132325f830188612a84565b61323f6020830187612a84565b61324c6040830186612a84565b61325960608301856129cf565b6132666080830184612ad7565b9695505050505050565b5f819050919050565b5f819050919050565b5f61329c61329761329284613270565b613279565b612a47565b9050919050565b6132ac81613282565b82525050565b5f6040820190506132c55f8301856132a3565b6132d260208301846129cf565b9392505050565b7f4e487b71000000000000000000000000000000000000000000000000000000005f52601260045260245ffd5b5f6040820190506133195f8301856129cf565b61332660208301846129cf565b9392505050565b5f819050919050565b5f61335061334b6133468461332d565b613279565b612a47565b9050919050565b61336081613336565b82525050565b5f6040820190506133795f830185613357565b61338660208301846129cf565b9392505050565b5f6080820190506133a05f830187612a84565b6133ad6020830186612a53565b6133ba6040830185612a84565b6133c76060830184612a84565b95945050505050565b7f4e487b71000000000000000000000000000000000000000000000000000000005f52602160045260245ffd5b7f4e487b71000000000000000000000000000000000000000000000000000000005f52603260045260245ffd5b5f61343482612f3c565b915061343f83612f3c565b9250828203905079ffffffffffffffffffffffffffffffffffffffffffffffffffff81111561347157613470613165565b5b92915050565b5f819050919050565b5f61349a61349561349084613477565b613279565b612a47565b9050919050565b6134aa81613480565b82525050565b5f6040820190506134c35f8301856134a1565b6134d060208301846129cf565b9392505050565b5f6134e182612f3c565b91506134ec83612f3c565b9250828201905079ffffffffffffffffffffffffffffffffffffffffffffffffffff81111561351e5761351d613165565b5b9291505056fea26469706673582212209e50e7cd5259afc0395fde8ec96124714ad39bb1e747240a09919ec328250d6564736f6c634300081e0033","linkReferences":{}},"methodIdentifiers":{"CLOCK_MODE()":"4bf5d7e9","DOMAIN_SEPARATOR()":"3644e515","allowance(address,address)":"dd62ed3e","approve(address,uint256)":"095ea7b3","balanceOf(address)":"70a08231","checkpoints(address,uint32)":"f1127ed8","clock()":"91ddadf4","decimals()":"313ce567","delegate(address)":"5c19a95c","delegateBySig(address,uint256,uint256,uint8,bytes32,bytes32)":"c3cda520","delegates(address)":"587cde1e","eip712Domain()":"84b0196e","getPastTotalSupply(uint256)":"8e539e8c","getPastVotes(address,uint256)":"3a46b1a8","getVotes(address)":"9ab24eb0","name()":"06fdde03","nonces(address)":"7ecebe00","numCheckpoints(address)":"6fcfff45","permit(address,address,uint256,uint256,uint8,bytes32,bytes32)":"d505accf","symbol()":"95d89b41","totalSupply()":"18160ddd","transfer(address,uint256)":"a9059cbb","transferFrom(address,address,uint256)":"23b872dd"},"id":250}