{"abi":[{"type":"constructor","inputs":[{"name":"initialAdmin","type":"address","internalType":"address"}],"stateMutability":"nonpayable"},{"type":"function","name":"ADMIN_ROLE","inputs":[],"outputs":[{"name":"","type":"uint64","internalType":"uint64"}],"stateMutability":"view"},{"type":"function","name":"PUBLIC_ROLE","inputs":[],"outputs":[{"name":"","type":"uint64","internalType":"uint64"}],"stateMutability":"view"},{"type":"function","name":"canCall","inputs":[{"name":"caller","type":"address","internalType":"address"},{"name":"target","type":"address","internalType":"address"},{"name":"selector","type":"bytes4","internalType":"bytes4"}],"outputs":[{"name":"immediate","type":"bool","internalType":"bool"},{"name":"delay","type":"uint32","internalType":"uint32"}],"stateMutability":"view"},{"type":"function","name":"cancel","inputs":[{"name":"caller","type":"address","internalType":"address"},{"name":"target","type":"address","internalType":"address"},{"name":"data","type":"bytes","internalType":"bytes"}],"outputs":[{"name":"","type":"uint32","internalType":"uint32"}],"stateMutability":"nonpayable"},{"type":"function","name":"consumeScheduledOp","inputs":[{"name":"caller","type":"address","internalType":"address"},{"name":"data","type":"bytes","internalType":"bytes"}],"outputs":[],"stateMutability":"nonpayable"},{"type":"function","name":"execute","inputs":[{"name":"target","type":"address","internalType":"address"},{"name":"data","type":"bytes","internalType":"bytes"}],"outputs":[{"name":"","type":"uint32","internalType":"uint32"}],"stateMutability":"payable"},{"type":"function","name":"expiration","inputs":[],"outputs":[{"name":"","type":"uint32","internalType":"uint32"}],"stateMutability":"view"},{"type":"function","name":"getAccess","inputs":[{"name":"roleId","type":"uint64","internalType":"uint64"},{"name":"account","type":"address","internalType":"address"}],"outputs":[{"name":"since","type":"uint48","internalType":"uint48"},{"name":"currentDelay","type":"uint32","internalType":"uint32"},{"name":"pendingDelay","type":"uint32","internalType":"uint32"},{"name":"effect","type":"uint48","internalType":"uint48"}],"stateMutability":"view"},{"type":"function","name":"getNonce","inputs":[{"name":"id","type":"bytes32","internalType":"bytes32"}],"outputs":[{"name":"","type":"uint32","internalType":"uint32"}],"stateMutability":"view"},{"type":"function","name":"getRoleAdmin","inputs":[{"name":"roleId","type":"uint64","internalType":"uint64"}],"outputs":[{"name":"","type":"uint64","internalType":"uint64"}],"stateMutability":"view"},{"type":"function","name":"getRoleGrantDelay","inputs":[{"name":"roleId","type":"uint64","internalType":"uint64"}],"outputs":[{"name":"","type":"uint32","internalType":"uint32"}],"stateMutability":"view"},{"type":"function","name":"getRoleGuardian","inputs":[{"name":"roleId","type":"uint64","internalType":"uint64"}],"outputs":[{"name":"","type":"uint64","internalType":"uint64"}],"stateMutability":"view"},{"type":"function","name":"getSchedule","inputs":[{"name":"id","type":"bytes32","internalType":"bytes32"}],"outputs":[{"name":"","type":"uint48","internalType":"uint48"}],"stateMutability":"view"},{"type":"function","name":"getTargetAdminDelay","inputs":[{"name":"target","type":"address","internalType":"address"}],"outputs":[{"name":"","type":"uint32","internalType":"uint32"}],"stateMutability":"view"},{"type":"function","name":"getTargetFunctionRole","inputs":[{"name":"target","type":"address","internalType":"address"},{"name":"selector","type":"bytes4","internalType":"bytes4"}],"outputs":[{"name":"","type":"uint64","internalType":"uint64"}],"stateMutability":"view"},{"type":"function","name":"grantRole","inputs":[{"name":"roleId","type":"uint64","internalType":"uint64"},{"name":"account","type":"address","internalType":"address"},{"name":"executionDelay","type":"uint32","internalType":"uint32"}],"outputs":[],"stateMutability":"nonpayable"},{"type":"function","name":"hasRole","inputs":[{"name":"roleId","type":"uint64","internalType":"uint64"},{"name":"account","type":"address","internalType":"address"}],"outputs":[{"name":"isMember","type":"bool","internalType":"bool"},{"name":"executionDelay","type":"uint32","internalType":"uint32"}],"stateMutability":"view"},{"type":"function","name":"hashOperation","inputs":[{"name":"caller","type":"address","internalType":"address"},{"name":"target","type":"address","internalType":"address"},{"name":"data","type":"bytes","internalType":"bytes"}],"outputs":[{"name":"","type":"bytes32","internalType":"bytes32"}],"stateMutability":"view"},{"type":"function","name":"isTargetClosed","inputs":[{"name":"target","type":"address","internalType":"address"}],"outputs":[{"name":"","type":"bool","internalType":"bool"}],"stateMutability":"view"},{"type":"function","name":"labelRole","inputs":[{"name":"roleId","type":"uint64","internalType":"uint64"},{"name":"label","type":"string","internalType":"string"}],"outputs":[],"stateMutability":"nonpayable"},{"type":"function","name":"minSetback","inputs":[],"outputs":[{"name":"","type":"uint32","internalType":"uint32"}],"stateMutability":"view"},{"type":"function","name":"multicall","inputs":[{"name":"data","type":"bytes[]","internalType":"bytes[]"}],"outputs":[{"name":"results","type":"bytes[]","internalType":"bytes[]"}],"stateMutability":"nonpayable"},{"type":"function","name":"renounceRole","inputs":[{"name":"roleId","type":"uint64","internalType":"uint64"},{"name":"callerConfirmation","type":"address","internalType":"address"}],"outputs":[],"stateMutability":"nonpayable"},{"type":"function","name":"revokeRole","inputs":[{"name":"roleId","type":"uint64","internalType":"uint64"},{"name":"account","type":"address","internalType":"address"}],"outputs":[],"stateMutability":"nonpayable"},{"type":"function","name":"schedule","inputs":[{"name":"target","type":"address","internalType":"address"},{"name":"data","type":"bytes","internalType":"bytes"},{"name":"when","type":"uint48","internalType":"uint48"}],"outputs":[{"name":"operationId","type":"bytes32","internalType":"bytes32"},{"name":"nonce","type":"uint32","internalType":"uint32"}],"stateMutability":"nonpayable"},{"type":"function","name":"setGrantDelay","inputs":[{"name":"roleId","type":"uint64","internalType":"uint64"},{"name":"newDelay","type":"uint32","internalType":"uint32"}],"outputs":[],"stateMutability":"nonpayable"},{"type":"function","name":"setRoleAdmin","inputs":[{"name":"roleId","type":"uint64","internalType":"uint64"},{"name":"admin","type":"uint64","internalType":"uint64"}],"outputs":[],"stateMutability":"nonpayable"},{"type":"function","name":"setRoleGuardian","inputs":[{"name":"roleId","type":"uint64","internalType":"uint64"},{"name":"guardian","type":"uint64","internalType":"uint64"}],"outputs":[],"stateMutability":"nonpayable"},{"type":"function","name":"setTargetAdminDelay","inputs":[{"name":"target","type":"address","internalType":"address"},{"name":"newDelay","type":"uint32","internalType":"uint32"}],"outputs":[],"stateMutability":"nonpayable"},{"type":"function","name":"setTargetClosed","inputs":[{"name":"target","type":"address","internalType":"address"},{"name":"closed","type":"bool","internalType":"bool"}],"outputs":[],"stateMutability":"nonpayable"},{"type":"function","name":"setTargetFunctionRole","inputs":[{"name":"target","type":"address","internalType":"address"},{"name":"selectors","type":"bytes4[]","internalType":"bytes4[]"},{"name":"roleId","type":"uint64","internalType":"uint64"}],"outputs":[],"stateMutability":"nonpayable"},{"type":"function","name":"updateAuthority","inputs":[{"name":"target","type":"address","internalType":"address"},{"name":"newAuthority","type":"address","internalType":"address"}],"outputs":[],"stateMutability":"nonpayable"},{"type":"event","name":"OperationCanceled","inputs":[{"name":"operationId","type":"bytes32","indexed":true,"internalType":"bytes32"},{"name":"nonce","type":"uint32","indexed":true,"internalType":"uint32"}],"anonymous":false},{"type":"event","name":"OperationExecuted","inputs":[{"name":"operationId","type":"bytes32","indexed":true,"internalType":"bytes32"},{"name":"nonce","type":"uint32","indexed":true,"internalType":"uint32"}],"anonymous":false},{"type":"event","name":"OperationScheduled","inputs":[{"name":"operationId","type":"bytes32","indexed":true,"internalType":"bytes32"},{"name":"nonce","type":"uint32","indexed":true,"internalType":"uint32"},{"name":"schedule","type":"uint48","indexed":false,"internalType":"uint48"},{"name":"caller","type":"address","indexed":false,"internalType":"address"},{"name":"target","type":"address","indexed":false,"internalType":"address"},{"name":"data","type":"bytes","indexed":false,"internalType":"bytes"}],"anonymous":false},{"type":"event","name":"RoleAdminChanged","inputs":[{"name":"roleId","type":"uint64","indexed":true,"internalType":"uint64"},{"name":"admin","type":"uint64","indexed":true,"internalType":"uint64"}],"anonymous":false},{"type":"event","name":"RoleGrantDelayChanged","inputs":[{"name":"roleId","type":"uint64","indexed":true,"internalType":"uint64"},{"name":"delay","type":"uint32","indexed":false,"internalType":"uint32"},{"name":"since","type":"uint48","indexed":false,"internalType":"uint48"}],"anonymous":false},{"type":"event","name":"RoleGranted","inputs":[{"name":"roleId","type":"uint64","indexed":true,"internalType":"uint64"},{"name":"account","type":"address","indexed":true,"internalType":"address"},{"name":"delay","type":"uint32","indexed":false,"internalType":"uint32"},{"name":"since","type":"uint48","indexed":false,"internalType":"uint48"},{"name":"newMember","type":"bool","indexed":false,"internalType":"bool"}],"anonymous":false},{"type":"event","name":"RoleGuardianChanged","inputs":[{"name":"roleId","type":"uint64","indexed":true,"internalType":"uint64"},{"name":"guardian","type":"uint64","indexed":true,"internalType":"uint64"}],"anonymous":false},{"type":"event","name":"RoleLabel","inputs":[{"name":"roleId","type":"uint64","indexed":true,"internalType":"uint64"},{"name":"label","type":"string","indexed":false,"internalType":"string"}],"anonymous":false},{"type":"event","name":"RoleRevoked","inputs":[{"name":"roleId","type":"uint64","indexed":true,"internalType":"uint64"},{"name":"account","type":"address","indexed":true,"internalType":"address"}],"anonymous":false},{"type":"event","name":"TargetAdminDelayUpdated","inputs":[{"name":"target","type":"address","indexed":true,"internalType":"address"},{"name":"delay","type":"uint32","indexed":false,"internalType":"uint32"},{"name":"since","type":"uint48","indexed":false,"internalType":"uint48"}],"anonymous":false},{"type":"event","name":"TargetClosed","inputs":[{"name":"target","type":"address","indexed":true,"internalType":"address"},{"name":"closed","type":"bool","indexed":false,"internalType":"bool"}],"anonymous":false},{"type":"event","name":"TargetFunctionRoleUpdated","inputs":[{"name":"target","type":"address","indexed":true,"internalType":"address"},{"name":"selector","type":"bytes4","indexed":false,"internalType":"bytes4"},{"name":"roleId","type":"uint64","indexed":true,"internalType":"uint64"}],"anonymous":false},{"type":"error","name":"AccessManagerAlreadyScheduled","inputs":[{"name":"operationId","type":"bytes32","internalType":"bytes32"}]},{"type":"error","name":"AccessManagerBadConfirmation","inputs":[]},{"type":"error","name":"AccessManagerExpired","inputs":[{"name":"operationId","type":"bytes32","internalType":"bytes32"}]},{"type":"error","name":"AccessManagerInvalidInitialAdmin","inputs":[{"name":"initialAdmin","type":"address","internalType":"address"}]},{"type":"error","name":"AccessManagerLockedRole","inputs":[{"name":"roleId","type":"uint64","internalType":"uint64"}]},{"type":"error","name":"AccessManagerNotReady","inputs":[{"name":"operationId","type":"bytes32","internalType":"bytes32"}]},{"type":"error","name":"AccessManagerNotScheduled","inputs":[{"name":"operationId","type":"bytes32","internalType":"bytes32"}]},{"type":"error","name":"AccessManagerUnauthorizedAccount","inputs":[{"name":"msgsender","type":"address","internalType":"address"},{"name":"roleId","type":"uint64","internalType":"uint64"}]},{"type":"error","name":"AccessManagerUnauthorizedCall","inputs":[{"name":"caller","type":"address","internalType":"address"},{"name":"target","type":"address","internalType":"address"},{"name":"selector","type":"bytes4","internalType":"bytes4"}]},{"type":"error","name":"AccessManagerUnauthorizedCancel","inputs":[{"name":"msgsender","type":"address","internalType":"address"},{"name":"caller","type":"address","internalType":"address"},{"name":"target","type":"address","internalType":"address"},{"name":"selector","type":"bytes4","internalType":"bytes4"}]},{"type":"error","name":"AccessManagerUnauthorizedConsume","inputs":[{"name":"target","type":"address","internalType":"address"}]},{"type":"error","name":"AddressEmptyCode","inputs":[{"name":"target","type":"address","internalType":"address"}]},{"type":"error","name":"FailedCall","inputs":[]},{"type":"error","name":"InsufficientBalance","inputs":[{"name":"balance","type":"uint256","internalType":"uint256"},{"name":"needed","type":"uint256","internalType":"uint256"}]},{"type":"error","name":"SafeCastOverflowedUintDowncast","inputs":[{"name":"bits","type":"uint8","internalType":"uint8"},{"name":"value","type":"uint256","internalType":"uint256"}]}],"bytecode":{"object":"0x608060405234801561000f575f5ffd5b50604051614e08380380614e0883398181016040528101906100319190610783565b5f73ffffffffffffffffffffffffffffffffffffffff168173ffffffffffffffffffffffffffffffffffffffff16036100a1575f6040517f0813ada200000000000000000000000000000000000000000000000000000000815260040161009891906107bd565b60405180910390fd5b6100b35f825f5f6100ba60201b60201c565b50506109c8565b5f67ffffffffffffffff80168567ffffffffffffffff160361011357846040517f1871a90c00000000000000000000000000000000000000000000000000000000815260040161010a91906107f8565b60405180910390fd5b5f5f60015f8867ffffffffffffffff1667ffffffffffffffff1681526020019081526020015f205f015f8773ffffffffffffffffffffffffffffffffffffffff1673ffffffffffffffffffffffffffffffffffffffff1681526020019081526020015f205f015f9054906101000a900465ffffffffffff1665ffffffffffff161490505f81156102cb578463ffffffff166101b261047760201b60201c565b6101bc919061084f565b905060405180604001604052808265ffffffffffff1681526020016101ec8663ffffffff1661048c60201b60201c565b6dffffffffffffffffffffffffffff1681525060015f8967ffffffffffffffff1667ffffffffffffffff1681526020019081526020015f205f015f8873ffffffffffffffffffffffffffffffffffffffff1673ffffffffffffffffffffffffffffffffffffffff1681526020019081526020015f205f820151815f015f6101000a81548165ffffffffffff021916908365ffffffffffff1602179055506020820151815f0160066101000a8154816dffffffffffffffffffffffffffff02191690836dffffffffffffffffffffffffffff16021790555090505061040d565b61036e845f60015f8b67ffffffffffffffff1667ffffffffffffffff1681526020019081526020015f205f015f8a73ffffffffffffffffffffffffffffffffffffffff1673ffffffffffffffffffffffffffffffffffffffff1681526020019081526020015f205f0160069054906101000a90046dffffffffffffffffffffffffffff166dffffffffffffffffffffffffffff1661049b60201b9092919060201c565b60015f8a67ffffffffffffffff1667ffffffffffffffff1681526020019081526020015f205f015f8973ffffffffffffffffffffffffffffffffffffffff1673ffffffffffffffffffffffffffffffffffffffff1681526020019081526020015f205f0160068294508391906101000a8154816dffffffffffffffffffffffffffff02191690836dffffffffffffffffffffffffffff16021790555050505b8573ffffffffffffffffffffffffffffffffffffffff168767ffffffffffffffff167ff98448b987f1428e0e230e1f3c6e2ce15b5693eaf31827fbd0b1ec4b424ae7cf868486604051610462939291906108cf565b60405180910390a38192505050949350505050565b5f6104874261054160201b60201c565b905090565b5f8163ffffffff169050919050565b5f5f5f6104bd866dffffffffffffffffffffffffffff1661059a60201b60201c565b90505f6105018563ffffffff168763ffffffff168463ffffffff16116104e3575f6104f0565b87846104ef9190610904565b5b63ffffffff166105c860201b60201c565b90508063ffffffff1661051861047760201b60201c565b610522919061084f565b92506105358287856105e460201b60201c565b93505050935093915050565b5f65ffffffffffff8016821115610592576030826040517f6dfcc6500000000000000000000000000000000000000000000000000000000081526004016105899291906109a1565b60405180910390fd5b819050919050565b5f5f6105bb836dffffffffffffffffffffffffffff1661062f60201b60201c565b5050905080915050919050565b5f6105dc828411848461065c60201b60201c565b905092915050565b5f8263ffffffff1660208563ffffffff166dffffffffffffffffffffffffffff16901b60408465ffffffffffff166dffffffffffffffffffffffffffff16901b171790509392505050565b5f5f5f61064f8461064461047760201b60201c565b61067b60201b60201c565b9250925092509193909250565b5f61066c846106da60201b60201c565b82841802821890509392505050565b5f5f5f61069d856dffffffffffffffffffffffffffff166106e560201b60201c565b8093508194508295505050508365ffffffffffff168165ffffffffffff1611156106c9578282826106cd565b815f5f5b9250925092509250925092565b5f8115159050919050565b5f5f5f5f8490508092506020816dffffffffffffffffffffffffffff16901c93506040816dffffffffffffffffffffffffffff16901c9150509193909250565b5f5ffd5b5f73ffffffffffffffffffffffffffffffffffffffff82169050919050565b5f61075282610729565b9050919050565b61076281610748565b811461076c575f5ffd5b50565b5f8151905061077d81610759565b92915050565b5f6020828403121561079857610797610725565b5b5f6107a58482850161076f565b91505092915050565b6107b781610748565b82525050565b5f6020820190506107d05f8301846107ae565b92915050565b5f67ffffffffffffffff82169050919050565b6107f2816107d6565b82525050565b5f60208201905061080b5f8301846107e9565b92915050565b5f65ffffffffffff82169050919050565b7f4e487b71000000000000000000000000000000000000000000000000000000005f52601160045260245ffd5b5f61085982610811565b915061086483610811565b9250828201905065ffffffffffff81111561088257610881610822565b5b92915050565b5f63ffffffff82169050919050565b6108a081610888565b82525050565b6108af81610811565b82525050565b5f8115159050919050565b6108c9816108b5565b82525050565b5f6060820190506108e25f830186610897565b6108ef60208301856108a6565b6108fc60408301846108c0565b949350505050565b5f61090e82610888565b915061091983610888565b9250828203905063ffffffff81111561093557610934610822565b5b92915050565b5f819050919050565b5f60ff82169050919050565b5f819050919050565b5f61097361096e6109698461093b565b610950565b610944565b9050919050565b61098381610959565b82525050565b5f819050919050565b61099b81610989565b82525050565b5f6040820190506109b45f83018561097a565b6109c16020830184610992565b9392505050565b614433806109d55f395ff3fe6080604052600436106101e2575f3560e01c80636d5115bd11610101578063b700961311610094578063d22b598911610063578063d22b59891461075f578063d6bb62c614610787578063f801a698146107c3578063fe0776f514610800576101e2565b8063b700961314610693578063b7d2b162146106d0578063cc1b6c81146106f8578063d1f856ee14610722576101e2565b8063a166aa89116100d0578063a166aa89146105b7578063a64d95ce146105f3578063abd9bd2a1461061b578063ac9650d814610657576101e2565b80636d5115bd1461050157806375b238fc1461053d578063853551b81461056757806394c7d7ee1461058f576101e2565b806330cae187116101795780634665096d116101485780634665096d146104375780634c1da1e214610461578063529629521461049d578063530dd456146104c5576101e2565b806330cae1871461036d5780633adc277a146103955780633ca7c02a146103d15780634136a33c146103fb576101e2565b806318ff183c116101b557806318ff183c146102ae5780631cff79cd146102d657806325c471a0146103065780633078f1141461032e576101e2565b806308d6122d146101e65780630b0a93ba1461020e57806312be87271461024a578063167bd39514610286575b5f5ffd5b3480156101f1575f5ffd5b5061020c6004803603810190610207919061332c565b610828565b005b348015610219575f5ffd5b50610234600480360381019061022f919061339d565b610884565b60405161024191906133d7565b60405180910390f35b348015610255575f5ffd5b50610270600480360381019061026b919061339d565b6108c9565b60405161027d919061340e565b60405180910390f35b348015610291575f5ffd5b506102ac60048036038101906102a7919061345c565b61092c565b005b3480156102b9575f5ffd5b506102d460048036038101906102cf919061349a565b610942565b005b6102f060048036038101906102eb919061352d565b6109b4565b6040516102fd919061340e565b60405180910390f35b348015610311575f5ffd5b5061032c600480360381019061032791906135b4565b610aff565b005b348015610339575f5ffd5b50610354600480360381019061034f9190613604565b610b21565b6040516103649493929190613662565b60405180910390f35b348015610378575f5ffd5b50610393600480360381019061038e91906136a5565b610bed565b005b3480156103a0575f5ffd5b506103bb60048036038101906103b69190613716565b610c03565b6040516103c89190613741565b60405180910390f35b3480156103dc575f5ffd5b506103e5610c49565b6040516103f291906133d7565b60405180910390f35b348015610406575f5ffd5b50610421600480360381019061041c9190613716565b610c55565b60405161042e919061340e565b60405180910390f35b348015610442575f5ffd5b5061044b610c81565b604051610458919061340e565b60405180910390f35b34801561046c575f5ffd5b506104876004803603810190610482919061375a565b610c8b565b604051610494919061340e565b60405180910390f35b3480156104a8575f5ffd5b506104c360048036038101906104be91906136a5565b610d04565b005b3480156104d0575f5ffd5b506104eb60048036038101906104e6919061339d565b610d1a565b6040516104f891906133d7565b60405180910390f35b34801561050c575f5ffd5b50610527600480360381019061052291906137da565b610d5e565b60405161053491906133d7565b60405180910390f35b348015610548575f5ffd5b50610551610e06565b60405161055e91906133d7565b60405180910390f35b348015610572575f5ffd5b5061058d6004803603810190610588919061386d565b610e0a565b005b34801561059a575f5ffd5b506105b560048036038101906105b0919061352d565b610ed2565b005b3480156105c2575f5ffd5b506105dd60048036038101906105d8919061375a565b610fed565b6040516105ea91906138d9565b60405180910390f35b3480156105fe575f5ffd5b50610619600480360381019061061491906138f2565b611042565b005b348015610626575f5ffd5b50610641600480360381019061063c9190613930565b611058565b60405161064e91906139b0565b60405180910390f35b348015610662575f5ffd5b5061067d60048036038101906106789190613a1e565b611090565b60405161068a9190613b94565b60405180910390f35b34801561069e575f5ffd5b506106b960048036038101906106b49190613bb4565b611271565b6040516106c7929190613c04565b60405180910390f35b3480156106db575f5ffd5b506106f660048036038101906106f19190613604565b611317565b005b348015610703575f5ffd5b5061070c61132e565b604051610719919061340e565b60405180910390f35b34801561072d575f5ffd5b5061074860048036038101906107439190613604565b611338565b604051610756929190613c04565b60405180910390f35b34801561076a575f5ffd5b5061078560048036038101906107809190613c2b565b6113b1565b005b348015610792575f5ffd5b506107ad60048036038101906107a89190613930565b6113c7565b6040516107ba919061340e565b60405180910390f35b3480156107ce575f5ffd5b506107e960048036038101906107e49190613c93565b6115a7565b6040516107f7929190613d04565b60405180910390f35b34801561080b575f5ffd5b5061082660048036038101906108219190613604565b61177b565b005b6108306117f6565b5f5f90505b8383905081101561087d576108728585858481811061085757610856613d2b565b5b905060200201602081019061086c9190613d58565b8461189f565b806001019050610835565b5050505050565b5f60015f8367ffffffffffffffff1667ffffffffffffffff1681526020019081526020015f2060010160089054906101000a900467ffffffffffffffff169050919050565b5f61092560015f8467ffffffffffffffff1667ffffffffffffffff1681526020019081526020015f2060010160109054906101000a90046dffffffffffffffffffffffffffff166dffffffffffffffffffffffffffff166119ae565b9050919050565b6109346117f6565b61093e82826119d6565b5050565b61094a6117f6565b8173ffffffffffffffffffffffffffffffffffffffff16637a9e5e4b826040518263ffffffff1660e01b81526004016109839190613d92565b5f604051808303815f87803b15801561099a575f5ffd5b505af11580156109ac573d5f5f3e3d5ffd5b505050505050565b5f5f6109be611a7f565b90505f5f6109ce83888888611a86565b91509150811580156109e557505f8163ffffffff16145b15610a345782876109f68888611b04565b6040517f81c6f24b000000000000000000000000000000000000000000000000000000008152600401610a2b93929190613dba565b60405180910390fd5b5f610a4184898989611058565b90505f5f8363ffffffff16141580610a6957505f610a5e83610c03565b65ffffffffffff1614155b15610a7a57610a7782611b2b565b90505b5f6003549050610a938a610a8e8b8b611b04565b611cd3565b600381905550610ae78a8a8a8080601f0160208091040260200160405190810160405280939291908181526020018383808284375f81840152601f19601f8201169050808301925050505050505034611d1d565b50806003819055508196505050505050509392505050565b610b076117f6565b610b1b8383610b15866108c9565b84611e57565b50505050565b5f5f5f5f5f60015f8867ffffffffffffffff1667ffffffffffffffff1681526020019081526020015f205f015f8773ffffffffffffffffffffffffffffffffffffffff1673ffffffffffffffffffffffffffffffffffffffff1681526020019081526020015f209050805f015f9054906101000a900465ffffffffffff169450610bd7815f0160069054906101000a90046dffffffffffffffffffffffffffff166dffffffffffffffffffffffffffff16612208565b8094508195508296505050505092959194509250565b610bf56117f6565b610bff8282612229565b5050565b5f5f60025f8481526020019081526020015f205f015f9054906101000a900465ffffffffffff169050610c3581612334565b610c3f5780610c41565b5f5b915050919050565b67ffffffffffffffff81565b5f60025f8381526020019081526020015f205f0160069054906101000a900463ffffffff169050919050565b5f62093a80905090565b5f610cfd5f5f8473ffffffffffffffffffffffffffffffffffffffff1673ffffffffffffffffffffffffffffffffffffffff1681526020019081526020015f206001015f9054906101000a90046dffffffffffffffffffffffffffff166dffffffffffffffffffffffffffff166119ae565b9050919050565b610d0c6117f6565b610d16828261236f565b5050565b5f60015f8367ffffffffffffffff1667ffffffffffffffff1681526020019081526020015f206001015f9054906101000a900467ffffffffffffffff169050919050565b5f5f5f8473ffffffffffffffffffffffffffffffffffffffff1673ffffffffffffffffffffffffffffffffffffffff1681526020019081526020015f205f015f837bffffffffffffffffffffffffffffffffffffffffffffffffffffffff19167bffffffffffffffffffffffffffffffffffffffffffffffffffffffff191681526020019081526020015f205f9054906101000a900467ffffffffffffffff16905092915050565b5f81565b610e126117f6565b5f67ffffffffffffffff168367ffffffffffffffff161480610e47575067ffffffffffffffff80168367ffffffffffffffff16145b15610e8957826040517f1871a90c000000000000000000000000000000000000000000000000000000008152600401610e8091906133d7565b60405180910390fd5b8267ffffffffffffffff167f1256f5b5ecb89caec12db449738f2fbcd1ba5806cf38f35413f4e5c15bf6a4508383604051610ec5929190613e39565b60405180910390a2505050565b5f610edb611a7f565b9050638fb3603760e01b7bffffffffffffffffffffffffffffffffffffffffffffffffffffffff19168173ffffffffffffffffffffffffffffffffffffffff16638fb360376040518163ffffffff1660e01b8152600401602060405180830381865afa158015610f4d573d5f5f3e3d5ffd5b505050506040513d601f19601f82011682018060405250810190610f719190613e6f565b7bffffffffffffffffffffffffffffffffffffffffffffffffffffffff191614610fd257806040517f320ff748000000000000000000000000000000000000000000000000000000008152600401610fc99190613d92565b60405180910390fd5b610fe6610fe185838686611058565b611b2b565b5050505050565b5f5f5f8373ffffffffffffffffffffffffffffffffffffffff1673ffffffffffffffffffffffffffffffffffffffff1681526020019081526020015f20600101600e9054906101000a900460ff169050919050565b61104a6117f6565b611054828261247b565b5050565b5f848484846040516020016110709493929190613ed6565b604051602081830303815290604052805190602001209050949350505050565b60605f61109b611a7f565b73ffffffffffffffffffffffffffffffffffffffff163373ffffffffffffffffffffffffffffffffffffffff161461113b575f366110d76125ed565b5f3690506110e59190613f4a565b9080926110f493929190613f85565b8080601f0160208091040260200160405190810160405280939291908181526020018383808284375f81840152601f19601f82011690508083019250505050505050611189565b5f67ffffffffffffffff81111561115557611154613fbf565b5b6040519080825280601f01601f1916602001820160405280156111875781602001600182028036833780820191505090505b505b90508383905067ffffffffffffffff8111156111a8576111a7613fbf565b5b6040519080825280602002602001820160405280156111db57816020015b60608152602001906001900390816111c65790505b5091505f5f90505b848490508110156112695761123e3086868481811061120557611204613d2b565b5b90506020028101906112179190613ff8565b8560405160200161122a939291906140b8565b6040516020818303038152906040526125f4565b83828151811061125157611250613d2b565b5b602002602001018190525080806001019150506111e3565b505092915050565b5f5f61127c84610fed565b1561128c575f5f9150915061130f565b3073ffffffffffffffffffffffffffffffffffffffff168573ffffffffffffffffffffffffffffffffffffffff16036112d3576112c984846126e5565b5f9150915061130f565b5f6112de8585610d5e565b90505f5f6112ec8389611338565b91509150816112fc575f5f611307565b5f8163ffffffff1614815b945094505050505b935093915050565b61131f6117f6565b61132982826126fc565b505050565b5f62069780905090565b5f5f67ffffffffffffffff80168467ffffffffffffffff16036113615760015f915091506113aa565b5f5f61136d8686610b21565b5050915091505f8265ffffffffffff16141580156113a2575061138e6128d6565b65ffffffffffff168265ffffffffffff1611155b819350935050505b9250929050565b6113b96117f6565b6113c382826128e5565b5050565b5f5f6113d1611a7f565b90505f6113de8585611b04565b90505f6113ed88888888611058565b90505f60025f8381526020019081526020015f205f015f9054906101000a900465ffffffffffff1665ffffffffffff160361145f57806040517f60a299b000000000000000000000000000000000000000000000000000000000815260040161145691906139b0565b60405180910390fd5b8273ffffffffffffffffffffffffffffffffffffffff168873ffffffffffffffffffffffffffffffffffffffff1614611516575f61149d5f85611338565b5090505f6114bc6114b66114b18b87610d5e565b610884565b86611338565b509050811580156114cb575080155b1561151357848a8a866040517f3fe2751c00000000000000000000000000000000000000000000000000000000815260040161150a94939291906140dd565b60405180910390fd5b50505b60025f8281526020019081526020015f205f015f6101000a81549065ffffffffffff02191690555f60025f8381526020019081526020015f205f0160069054906101000a900463ffffffff1690508063ffffffff16827fbd9ac67a6e2f6463b80927326310338bcbb4bdb7936ce1365ea3e01067e7b9f760405160405180910390a380945050505050949350505050565b5f5f5f6115b2611a7f565b90505f6115c182898989611a86565b9150505f8163ffffffff166115d46128d6565b6115de9190614120565b90505f8263ffffffff16148061161657505f8665ffffffffffff1611801561161557508065ffffffffffff168665ffffffffffff16105b5b156116655782896116278a8a611b04565b6040517f81c6f24b00000000000000000000000000000000000000000000000000000000815260040161165c93929190613dba565b60405180910390fd5b61167f8665ffffffffffff168265ffffffffffff16612a37565b955061168d838a8a8a611058565b945061169885612a4d565b600160025f8781526020019081526020015f205f0160069054906101000a900463ffffffff160193508560025f8781526020019081526020015f205f015f6101000a81548165ffffffffffff021916908365ffffffffffff1602179055508360025f8781526020019081526020015f205f0160066101000a81548163ffffffff021916908363ffffffff1602179055508363ffffffff16857f82a2da5dee54ea8021c6545b4444620291e07ee83be6dd57edb175062715f3b488868d8d8d604051611767959493929190614159565b60405180910390a350505094509492505050565b611783611a7f565b73ffffffffffffffffffffffffffffffffffffffff168173ffffffffffffffffffffffffffffffffffffffff16146117e7576040517f5f159e6300000000000000000000000000000000000000000000000000000000815260040160405180910390fd5b6117f182826126fc565b505050565b5f6117ff611a7f565b90505f5f6118148361180f612ad9565b612ae5565b915091508161189a575f8163ffffffff160361187e575f61183b611836612ad9565b612bdd565b5091505083816040517ff07e038f0000000000000000000000000000000000000000000000000000000081526004016118759291906141a5565b60405180910390fd5b611898611893843061188e612ad9565b611058565b611b2b565b505b505050565b805f5f8573ffffffffffffffffffffffffffffffffffffffff1673ffffffffffffffffffffffffffffffffffffffff1681526020019081526020015f205f015f847bffffffffffffffffffffffffffffffffffffffffffffffffffffffff19167bffffffffffffffffffffffffffffffffffffffffffffffffffffffff191681526020019081526020015f205f6101000a81548167ffffffffffffffff021916908367ffffffffffffffff1602179055508067ffffffffffffffff168373ffffffffffffffffffffffffffffffffffffffff167f9ea6790c7dadfd01c9f8b9762b3682607af2c7e79e05a9f9fdf5580dde949151846040516119a191906141cc565b60405180910390a3505050565b5f5f6119c9836dffffffffffffffffffffffffffff16612208565b5050905080915050919050565b805f5f8473ffffffffffffffffffffffffffffffffffffffff1673ffffffffffffffffffffffffffffffffffffffff1681526020019081526020015f20600101600e6101000a81548160ff0219169083151502179055508173ffffffffffffffffffffffffffffffffffffffff167f90d4e7bb7e5d933792b3562e1741306f8be94837e1348dacef9b6f1df56eb13882604051611a7391906138d9565b60405180910390a25050565b5f33905090565b5f5f3073ffffffffffffffffffffffffffffffffffffffff168573ffffffffffffffffffffffffffffffffffffffff1603611acf57611ac6868585612ae5565b91509150611afb565b60048484905010611af357611aee8686611ae98787611b04565b611271565b611af6565b5f5f5b915091505b94509492505050565b5f82825f90600492611b1893929190613f85565b90611b2391906141fb565b905092915050565b5f5f60025f8481526020019081526020015f205f015f9054906101000a900465ffffffffffff1690505f60025f8581526020019081526020015f205f0160069054906101000a900463ffffffff1690505f8265ffffffffffff1603611bc757836040517f60a299b0000000000000000000000000000000000000000000000000000000008152600401611bbe91906139b0565b60405180910390fd5b611bcf6128d6565b65ffffffffffff168265ffffffffffff161115611c2357836040517f18cb6b7a000000000000000000000000000000000000000000000000000000008152600401611c1a91906139b0565b60405180910390fd5b611c2c82612334565b15611c6e57836040517f78a5d6e4000000000000000000000000000000000000000000000000000000008152600401611c6591906139b0565b60405180910390fd5b60025f8581526020019081526020015f205f015f6101000a81549065ffffffffffff02191690558063ffffffff16847f76a2a46953689d4861a5d3f6ed883ad7e6af674a21f8e162707159fc9dde614d60405160405180910390a38092505050919050565b5f611d158373ffffffffffffffffffffffffffffffffffffffff165f1b837bffffffffffffffffffffffffffffffffffffffffffffffffffffffff1916612fc1565b905092915050565b606081471015611d665747826040517fcf479181000000000000000000000000000000000000000000000000000000008152600401611d5d929190614268565b60405180910390fd5b5f611d72858486612fd5565b9050808015611da857505f611d85612feb565b1180611da757505f8573ffffffffffffffffffffffffffffffffffffffff163b115b5b15611dbd57611db5612ff2565b915050611e50565b8015611e0057846040517f9996b315000000000000000000000000000000000000000000000000000000008152600401611df79190613d92565b60405180910390fd5b5f611e09612feb565b1115611e1c57611e1761300f565b611e4e565b6040517fd6bda27500000000000000000000000000000000000000000000000000000000815260040160405180910390fd5b505b9392505050565b5f67ffffffffffffffff80168567ffffffffffffffff1603611eb057846040517f1871a90c000000000000000000000000000000000000000000000000000000008152600401611ea791906133d7565b60405180910390fd5b5f5f60015f8867ffffffffffffffff1667ffffffffffffffff1681526020019081526020015f205f015f8773ffffffffffffffffffffffffffffffffffffffff1673ffffffffffffffffffffffffffffffffffffffff1681526020019081526020015f205f015f9054906101000a900465ffffffffffff1665ffffffffffff161490505f811561205c578463ffffffff16611f496128d6565b611f539190614120565b905060405180604001604052808265ffffffffffff168152602001611f7d8663ffffffff1661301a565b6dffffffffffffffffffffffffffff1681525060015f8967ffffffffffffffff1667ffffffffffffffff1681526020019081526020015f205f015f8873ffffffffffffffffffffffffffffffffffffffff1673ffffffffffffffffffffffffffffffffffffffff1681526020019081526020015f205f820151815f015f6101000a81548165ffffffffffff021916908365ffffffffffff1602179055506020820151815f0160066101000a8154816dffffffffffffffffffffffffffff02191690836dffffffffffffffffffffffffffff16021790555090505061219e565b6120ff845f60015f8b67ffffffffffffffff1667ffffffffffffffff1681526020019081526020015f205f015f8a73ffffffffffffffffffffffffffffffffffffffff1673ffffffffffffffffffffffffffffffffffffffff1681526020019081526020015f205f0160069054906101000a90046dffffffffffffffffffffffffffff166dffffffffffffffffffffffffffff166130299092919063ffffffff16565b60015f8a67ffffffffffffffff1667ffffffffffffffff1681526020019081526020015f205f015f8973ffffffffffffffffffffffffffffffffffffffff1673ffffffffffffffffffffffffffffffffffffffff1681526020019081526020015f205f0160068294508391906101000a8154816dffffffffffffffffffffffffffff02191690836dffffffffffffffffffffffffffff16021790555050505b8573ffffffffffffffffffffffffffffffffffffffff168767ffffffffffffffff167ff98448b987f1428e0e230e1f3c6e2ce15b5693eaf31827fbd0b1ec4b424ae7cf8684866040516121f39392919061428f565b60405180910390a38192505050949350505050565b5f5f5f61221c846122176128d6565b6130b7565b9250925092509193909250565b5f67ffffffffffffffff168267ffffffffffffffff16148061225e575067ffffffffffffffff80168267ffffffffffffffff16145b156122a057816040517f1871a90c00000000000000000000000000000000000000000000000000000000815260040161229791906133d7565b60405180910390fd5b8060015f8467ffffffffffffffff1667ffffffffffffffff1681526020019081526020015f206001015f6101000a81548167ffffffffffffffff021916908367ffffffffffffffff1602179055508067ffffffffffffffff168267ffffffffffffffff167f1fd6dd7631312dfac2205b52913f99de03b4d7e381d5d27d3dbfe0713e6e634060405160405180910390a35050565b5f61233d6128d6565b65ffffffffffff1661234d610c81565b63ffffffff168361235e9190614120565b65ffffffffffff1611159050919050565b5f67ffffffffffffffff168267ffffffffffffffff1614806123a4575067ffffffffffffffff80168267ffffffffffffffff16145b156123e657816040517f1871a90c0000000000000000000000000000000000000000000000000000000081526004016123dd91906133d7565b60405180910390fd5b8060015f8467ffffffffffffffff1667ffffffffffffffff1681526020019081526020015f2060010160086101000a81548167ffffffffffffffff021916908367ffffffffffffffff1602179055508067ffffffffffffffff168267ffffffffffffffff167f7a8059630b897b5de4c08ade69f8b90c3ead1f8596d62d10b6c4d14a0afb4ae260405160405180910390a35050565b67ffffffffffffffff80168267ffffffffffffffff16036124d357816040517f1871a90c0000000000000000000000000000000000000000000000000000000081526004016124ca91906133d7565b60405180910390fd5b5f612542826124e061132e565b60015f8767ffffffffffffffff1667ffffffffffffffff1681526020019081526020015f2060010160109054906101000a90046dffffffffffffffffffffffffffff166dffffffffffffffffffffffffffff166130299092919063ffffffff16565b60015f8667ffffffffffffffff1667ffffffffffffffff1681526020019081526020015f2060010160108294508391906101000a8154816dffffffffffffffffffffffffffff02191690836dffffffffffffffffffffffffffff16021790555050508267ffffffffffffffff167ffeb69018ee8b8fd50ea86348f1267d07673379f72cffdeccec63853ee8ce8b4883836040516125e09291906142c4565b60405180910390a2505050565b5f5f905090565b60605f6126018484613110565b905080801561263757505f612614612feb565b118061263657505f8473ffffffffffffffffffffffffffffffffffffffff163b115b5b1561264c57612644612ff2565b9150506126df565b801561268f57836040517f9996b3150000000000000000000000000000000000000000000000000000000081526004016126869190613d92565b60405180910390fd5b5f612698612feb565b11156126ab576126a661300f565b6126dd565b6040517fd6bda27500000000000000000000000000000000000000000000000000000000815260040160405180910390fd5b505b92915050565b5f6126f08383611cd3565b60035414905092915050565b5f67ffffffffffffffff80168367ffffffffffffffff160361275557826040517f1871a90c00000000000000000000000000000000000000000000000000000000815260040161274c91906133d7565b60405180910390fd5b5f60015f8567ffffffffffffffff1667ffffffffffffffff1681526020019081526020015f205f015f8473ffffffffffffffffffffffffffffffffffffffff1673ffffffffffffffffffffffffffffffffffffffff1681526020019081526020015f205f015f9054906101000a900465ffffffffffff1665ffffffffffff16036127e1575f90506128d0565b60015f8467ffffffffffffffff1667ffffffffffffffff1681526020019081526020015f205f015f8373ffffffffffffffffffffffffffffffffffffffff1673ffffffffffffffffffffffffffffffffffffffff1681526020019081526020015f205f5f82015f6101000a81549065ffffffffffff02191690555f820160066101000a8154906dffffffffffffffffffffffffffff021916905550508173ffffffffffffffffffffffffffffffffffffffff168367ffffffffffffffff167ff229baa593af28c41b1d16b748cd7688f0c83aaf92d4be41c44005defe84c16660405160405180910390a3600190505b92915050565b5f6128e042613124565b905090565b5f61296a826128f261132e565b5f5f8773ffffffffffffffffffffffffffffffffffffffff1673ffffffffffffffffffffffffffffffffffffffff1681526020019081526020015f206001015f9054906101000a90046dffffffffffffffffffffffffffff166dffffffffffffffffffffffffffff166130299092919063ffffffff16565b5f5f8673ffffffffffffffffffffffffffffffffffffffff1673ffffffffffffffffffffffffffffffffffffffff1681526020019081526020015f206001015f8294508391906101000a8154816dffffffffffffffffffffffffffff02191690836dffffffffffffffffffffffffffff16021790555050508273ffffffffffffffffffffffffffffffffffffffff167fa56b76017453f399ec2327ba00375dbfb1fd070ff854341ad6191e6a2e2de19c8383604051612a2a9291906142c4565b60405180910390a2505050565b5f612a45828411848461317d565b905092915050565b5f60025f8381526020019081526020015f205f015f9054906101000a900465ffffffffffff1690505f8165ffffffffffff1614158015612a935750612a9181612334565b155b15612ad557816040517f813e9459000000000000000000000000000000000000000000000000000000008152600401612acc91906139b0565b60405180910390fd5b5050565b365f5f36915091509091565b5f5f6004848490501015612afe575f5f91509150612bd5565b3073ffffffffffffffffffffffffffffffffffffffff168573ffffffffffffffffffffffffffffffffffffffff1603612b4e57612b4430612b3f8686611b04565b6126e5565b5f91509150612bd5565b5f5f5f612b5b8787612bdd565b92509250925082158015612b745750612b7330610fed565b5b15612b87575f5f94509450505050612bd5565b5f5f612b93848b611338565b9150915081612bac575f5f965096505050505050612bd5565b612bc28363ffffffff168263ffffffff16612a37565b95505f8663ffffffff1614965050505050505b935093915050565b5f5f5f6004858590501015612bfa575f5f5f925092509250612fba565b5f612c058686611b04565b905063853551b860e01b7bffffffffffffffffffffffffffffffffffffffffffffffffffffffff1916817bffffffffffffffffffffffffffffffffffffffffffffffffffffffff19161480612c9e57506330cae18760e01b7bffffffffffffffffffffffffffffffffffffffffffffffffffffffff1916817bffffffffffffffffffffffffffffffffffffffffffffffffffffffff1916145b80612ced5750635296295260e01b7bffffffffffffffffffffffffffffffffffffffffffffffffffffffff1916817bffffffffffffffffffffffffffffffffffffffffffffffffffffffff1916145b80612d3c575063a64d95ce60e01b7bffffffffffffffffffffffffffffffffffffffffffffffffffffffff1916817bffffffffffffffffffffffffffffffffffffffffffffffffffffffff1916145b80612d8b575063d22b598960e01b7bffffffffffffffffffffffffffffffffffffffffffffffffffffffff1916817bffffffffffffffffffffffffffffffffffffffffffffffffffffffff1916145b15612da05760015f5f93509350935050612fba565b6318ff183c60e01b7bffffffffffffffffffffffffffffffffffffffffffffffffffffffff1916817bffffffffffffffffffffffffffffffffffffffffffffffffffffffff19161480612e37575063167bd39560e01b7bffffffffffffffffffffffffffffffffffffffffffffffffffffffff1916817bffffffffffffffffffffffffffffffffffffffffffffffffffffffff1916145b80612e8657506308d6122d60e01b7bffffffffffffffffffffffffffffffffffffffffffffffffffffffff1916817bffffffffffffffffffffffffffffffffffffffffffffffffffffffff1916145b15612ecd575f8686600490602492612ea093929190613f85565b810190612ead9190614326565b90505f612eb982610c8b565b905060015f82955095509550505050612fba565b6325c471a060e01b7bffffffffffffffffffffffffffffffffffffffffffffffffffffffff1916817bffffffffffffffffffffffffffffffffffffffffffffffffffffffff19161480612f64575063b7d2b16260e01b7bffffffffffffffffffffffffffffffffffffffffffffffffffffffff1916817bffffffffffffffffffffffffffffffffffffffffffffffffffffffff1916145b15612fa6575f8686600490602492612f7e93929190613f85565b810190612f8b919061339d565b90506001612f9882610d1a565b5f9450945094505050612fba565b5f612fb13083610d5e565b5f935093509350505b9250925092565b5f825f528160205260405f20905092915050565b5f5f5f83516020850186885af190509392505050565b5f3d905090565b606060405190503d81523d5f602083013e3d602001810160405290565b6040513d5f823e3d81fd5b5f8163ffffffff169050919050565b5f5f5f613045866dffffffffffffffffffffffffffff166119ae565b90505f6130838563ffffffff168763ffffffff168463ffffffff161161306b575f613078565b87846130779190614351565b5b63ffffffff16612a37565b90508063ffffffff166130946128d6565b61309e9190614120565b92506130ab828785613196565b93505050935093915050565b5f5f5f6130d3856dffffffffffffffffffffffffffff166131e1565b8093508194508295505050508365ffffffffffff168165ffffffffffff1611156130ff57828282613103565b815f5f5b9250925092509250925092565b5f5f5f835160208501865af4905092915050565b5f65ffffffffffff8016821115613175576030826040517f6dfcc65000000000000000000000000000000000000000000000000000000000815260040161316c9291906143d6565b60405180910390fd5b819050919050565b5f61318784613221565b82841802821890509392505050565b5f8263ffffffff1660208563ffffffff166dffffffffffffffffffffffffffff16901b60408465ffffffffffff166dffffffffffffffffffffffffffff16901b171790509392505050565b5f5f5f5f8490508092506020816dffffffffffffffffffffffffffff16901c93506040816dffffffffffffffffffffffffffff16901c9150509193909250565b5f8115159050919050565b5f5ffd5b5f5ffd5b5f73ffffffffffffffffffffffffffffffffffffffff82169050919050565b5f61325d82613234565b9050919050565b61326d81613253565b8114613277575f5ffd5b50565b5f8135905061328881613264565b92915050565b5f5ffd5b5f5ffd5b5f5ffd5b5f5f83601f8401126132af576132ae61328e565b5b8235905067ffffffffffffffff8111156132cc576132cb613292565b5b6020830191508360208202830111156132e8576132e7613296565b5b9250929050565b5f67ffffffffffffffff82169050919050565b61330b816132ef565b8114613315575f5ffd5b50565b5f8135905061332681613302565b92915050565b5f5f5f5f606085870312156133445761334361322c565b5b5f6133518782880161327a565b945050602085013567ffffffffffffffff81111561337257613371613230565b5b61337e8782880161329a565b9350935050604061339187828801613318565b91505092959194509250565b5f602082840312156133b2576133b161322c565b5b5f6133bf84828501613318565b91505092915050565b6133d1816132ef565b82525050565b5f6020820190506133ea5f8301846133c8565b92915050565b5f63ffffffff82169050919050565b613408816133f0565b82525050565b5f6020820190506134215f8301846133ff565b92915050565b5f8115159050919050565b61343b81613427565b8114613445575f5ffd5b50565b5f8135905061345681613432565b92915050565b5f5f604083850312156134725761347161322c565b5b5f61347f8582860161327a565b925050602061349085828601613448565b9150509250929050565b5f5f604083850312156134b0576134af61322c565b5b5f6134bd8582860161327a565b92505060206134ce8582860161327a565b9150509250929050565b5f5f83601f8401126134ed576134ec61328e565b5b8235905067ffffffffffffffff81111561350a57613509613292565b5b60208301915083600182028301111561352657613525613296565b5b9250929050565b5f5f5f604084860312156135445761354361322c565b5b5f6135518682870161327a565b935050602084013567ffffffffffffffff81111561357257613571613230565b5b61357e868287016134d8565b92509250509250925092565b613593816133f0565b811461359d575f5ffd5b50565b5f813590506135ae8161358a565b92915050565b5f5f5f606084860312156135cb576135ca61322c565b5b5f6135d886828701613318565b93505060206135e98682870161327a565b92505060406135fa868287016135a0565b9150509250925092565b5f5f6040838503121561361a5761361961322c565b5b5f61362785828601613318565b92505060206136388582860161327a565b9150509250929050565b5f65ffffffffffff82169050919050565b61365c81613642565b82525050565b5f6080820190506136755f830187613653565b61368260208301866133ff565b61368f60408301856133ff565b61369c6060830184613653565b95945050505050565b5f5f604083850312156136bb576136ba61322c565b5b5f6136c885828601613318565b92505060206136d985828601613318565b9150509250929050565b5f819050919050565b6136f5816136e3565b81146136ff575f5ffd5b50565b5f81359050613710816136ec565b92915050565b5f6020828403121561372b5761372a61322c565b5b5f61373884828501613702565b91505092915050565b5f6020820190506137545f830184613653565b92915050565b5f6020828403121561376f5761376e61322c565b5b5f61377c8482850161327a565b91505092915050565b5f7fffffffff0000000000000000000000000000000000000000000000000000000082169050919050565b6137b981613785565b81146137c3575f5ffd5b50565b5f813590506137d4816137b0565b92915050565b5f5f604083850312156137f0576137ef61322c565b5b5f6137fd8582860161327a565b925050602061380e858286016137c6565b9150509250929050565b5f5f83601f84011261382d5761382c61328e565b5b8235905067ffffffffffffffff81111561384a57613849613292565b5b60208301915083600182028301111561386657613865613296565b5b9250929050565b5f5f5f604084860312156138845761388361322c565b5b5f61389186828701613318565b935050602084013567ffffffffffffffff8111156138b2576138b1613230565b5b6138be86828701613818565b92509250509250925092565b6138d381613427565b82525050565b5f6020820190506138ec5f8301846138ca565b92915050565b5f5f604083850312156139085761390761322c565b5b5f61391585828601613318565b9250506020613926858286016135a0565b9150509250929050565b5f5f5f5f606085870312156139485761394761322c565b5b5f6139558782880161327a565b94505060206139668782880161327a565b935050604085013567ffffffffffffffff81111561398757613986613230565b5b613993878288016134d8565b925092505092959194509250565b6139aa816136e3565b82525050565b5f6020820190506139c35f8301846139a1565b92915050565b5f5f83601f8401126139de576139dd61328e565b5b8235905067ffffffffffffffff8111156139fb576139fa613292565b5b602083019150836020820283011115613a1757613a16613296565b5b9250929050565b5f5f60208385031215613a3457613a3361322c565b5b5f83013567ffffffffffffffff811115613a5157613a50613230565b5b613a5d858286016139c9565b92509250509250929050565b5f81519050919050565b5f82825260208201905092915050565b5f819050602082019050919050565b5f81519050919050565b5f82825260208201905092915050565b8281835e5f83830152505050565b5f601f19601f8301169050919050565b5f613ad482613a92565b613ade8185613a9c565b9350613aee818560208601613aac565b613af781613aba565b840191505092915050565b5f613b0d8383613aca565b905092915050565b5f602082019050919050565b5f613b2b82613a69565b613b358185613a73565b935083602082028501613b4785613a83565b805f5b85811015613b825784840389528151613b638582613b02565b9450613b6e83613b15565b925060208a01995050600181019050613b4a565b50829750879550505050505092915050565b5f6020820190508181035f830152613bac8184613b21565b905092915050565b5f5f5f60608486031215613bcb57613bca61322c565b5b5f613bd88682870161327a565b9350506020613be98682870161327a565b9250506040613bfa868287016137c6565b9150509250925092565b5f604082019050613c175f8301856138ca565b613c2460208301846133ff565b9392505050565b5f5f60408385031215613c4157613c4061322c565b5b5f613c4e8582860161327a565b9250506020613c5f858286016135a0565b9150509250929050565b613c7281613642565b8114613c7c575f5ffd5b50565b5f81359050613c8d81613c69565b92915050565b5f5f5f5f60608587031215613cab57613caa61322c565b5b5f613cb88782880161327a565b945050602085013567ffffffffffffffff811115613cd957613cd8613230565b5b613ce5878288016134d8565b93509350506040613cf887828801613c7f565b91505092959194509250565b5f604082019050613d175f8301856139a1565b613d2460208301846133ff565b9392505050565b7f4e487b71000000000000000000000000000000000000000000000000000000005f52603260045260245ffd5b5f60208284031215613d6d57613d6c61322c565b5b5f613d7a848285016137c6565b91505092915050565b613d8c81613253565b82525050565b5f602082019050613da55f830184613d83565b92915050565b613db481613785565b82525050565b5f606082019050613dcd5f830186613d83565b613dda6020830185613d83565b613de76040830184613dab565b949350505050565b5f82825260208201905092915050565b828183375f83830152505050565b5f613e188385613def565b9350613e25838584613dff565b613e2e83613aba565b840190509392505050565b5f6020820190508181035f830152613e52818486613e0d565b90509392505050565b5f81519050613e69816137b0565b92915050565b5f60208284031215613e8457613e8361322c565b5b5f613e9184828501613e5b565b91505092915050565b5f82825260208201905092915050565b5f613eb58385613e9a565b9350613ec2838584613dff565b613ecb83613aba565b840190509392505050565b5f606082019050613ee95f830187613d83565b613ef66020830186613d83565b8181036040830152613f09818486613eaa565b905095945050505050565b5f819050919050565b7f4e487b71000000000000000000000000000000000000000000000000000000005f52601160045260245ffd5b5f613f5482613f14565b9150613f5f83613f14565b9250828203905081811115613f7757613f76613f1d565b5b92915050565b5f5ffd5b5f5ffd5b5f5f85851115613f9857613f97613f7d565b5b83861115613fa957613fa8613f81565b5b6001850283019150848603905094509492505050565b7f4e487b71000000000000000000000000000000000000000000000000000000005f52604160045260245ffd5b5f5ffd5b5f5ffd5b5f5ffd5b5f5f8335600160200384360303811261401457614013613fec565b5b80840192508235915067ffffffffffffffff82111561403657614035613ff0565b5b60208301925060018202360383131561405257614051613ff4565b5b509250929050565b5f81905092915050565b5f61406f838561405a565b935061407c838584613dff565b82840190509392505050565b5f61409282613a92565b61409c818561405a565b93506140ac818560208601613aac565b80840191505092915050565b5f6140c4828587614064565b91506140d08284614088565b9150819050949350505050565b5f6080820190506140f05f830187613d83565b6140fd6020830186613d83565b61410a6040830185613d83565b6141176060830184613dab565b95945050505050565b5f61412a82613642565b915061413583613642565b9250828201905065ffffffffffff81111561415357614152613f1d565b5b92915050565b5f60808201905061416c5f830188613653565b6141796020830187613d83565b6141866040830186613d83565b8181036060830152614199818486613eaa565b90509695505050505050565b5f6040820190506141b85f830185613d83565b6141c560208301846133c8565b9392505050565b5f6020820190506141df5f830184613dab565b92915050565b5f82905092915050565b5f82821b905092915050565b5f61420683836141e5565b826142118135613785565b925060048210156142515761424c7fffffffff00000000000000000000000000000000000000000000000000000000836004036008026141ef565b831692505b505092915050565b61426281613f14565b82525050565b5f60408201905061427b5f830185614259565b6142886020830184614259565b9392505050565b5f6060820190506142a25f8301866133ff565b6142af6020830185613653565b6142bc60408301846138ca565b949350505050565b5f6040820190506142d75f8301856133ff565b6142e46020830184613653565b9392505050565b5f6142f582613234565b9050919050565b614305816142eb565b811461430f575f5ffd5b50565b5f81359050614320816142fc565b92915050565b5f6020828403121561433b5761433a61322c565b5b5f61434884828501614312565b91505092915050565b5f61435b826133f0565b9150614366836133f0565b9250828203905063ffffffff81111561438257614381613f1d565b5b92915050565b5f819050919050565b5f60ff82169050919050565b5f819050919050565b5f6143c06143bb6143b684614388565b61439d565b614391565b9050919050565b6143d0816143a6565b82525050565b5f6040820190506143e95f8301856143c7565b6143f66020830184614259565b939250505056fea26469706673582212204d98609698cff0b84403127352abba84e9ddf28f40c2005142bd247aac4d395764736f6c634300081e0033","linkReferences":{}},"methodIdentifiers":{"ADMIN_ROLE()":"75b238fc","PUBLIC_ROLE()":"3ca7c02a","canCall(address,address,bytes4)":"b7009613","cancel(address,address,bytes)":"d6bb62c6","consumeScheduledOp(address,bytes)":"94c7d7ee","execute(address,bytes)":"1cff79cd","expiration()":"4665096d","getAccess(uint64,address)":"3078f114","getNonce(bytes32)":"4136a33c","getRoleAdmin(uint64)":"530dd456","getRoleGrantDelay(uint64)":"12be8727","getRoleGuardian(uint64)":"0b0a93ba","getSchedule(bytes32)":"3adc277a","getTargetAdminDelay(address)":"4c1da1e2","getTargetFunctionRole(address,bytes4)":"6d5115bd","grantRole(uint64,address,uint32)":"25c471a0","hasRole(uint64,address)":"d1f856ee","hashOperation(address,address,bytes)":"abd9bd2a","isTargetClosed(address)":"a166aa89","labelRole(uint64,string)":"853551b8","minSetback()":"cc1b6c81","multicall(bytes[])":"ac9650d8","renounceRole(uint64,address)":"fe0776f5","revokeRole(uint64,address)":"b7d2b162","schedule(address,bytes,uint48)":"f801a698","setGrantDelay(uint64,uint32)":"a64d95ce","setRoleAdmin(uint64,uint64)":"30cae187","setRoleGuardian(uint64,uint64)":"52962952","setTargetAdminDelay(address,uint32)":"d22b5989","setTargetClosed(address,bool)":"167bd395","setTargetFunctionRole(address,bytes4[],uint64)":"08d6122d","updateAuthority(address,address)":"18ff183c"},"id":117}