{"abi":[{"type":"function","name":"disableReentrancy","inputs":[],"outputs":[],"stateMutability":"nonpayable"},{"type":"function","name":"enableReentrancy","inputs":[{"name":"target","type":"address","internalType":"address"},{"name":"data","type":"bytes","internalType":"bytes"}],"outputs":[],"stateMutability":"nonpayable"},{"type":"function","name":"reenter","inputs":[],"outputs":[],"stateMutability":"nonpayable"},{"type":"error","name":"AddressEmptyCode","inputs":[{"name":"target","type":"address","internalType":"address"}]},{"type":"error","name":"FailedCall","inputs":[]},{"type":"error","name":"InsufficientBalance","inputs":[{"name":"balance","type":"uint256","internalType":"uint256"},{"name":"needed","type":"uint256","internalType":"uint256"}]}],"bytecode":{"object":"0x6080604052348015600e575f5ffd5b5061081a8061001c5f395ff3fe608060405234801561000f575f5ffd5b506004361061003f575f3560e01c806316b3283714610043578063a0fe97e31461005f578063cc23fb1c14610069575b5f5ffd5b61005d6004803603810190610058919061041f565b610073565b005b6100676100c9565b005b6100716101ac565b005b825f5f6101000a81548173ffffffffffffffffffffffffffffffffffffffff021916908373ffffffffffffffffffffffffffffffffffffffff1602179055508181600191826100c39291906106b9565b50505050565b60025f9054906101000a900460ff166101aa57600160025f6101000a81548160ff0219169083151502179055506101a85f5f9054906101000a900473ffffffffffffffffffffffffffffffffffffffff1660018054610127906104e0565b80601f0160208091040260200160405190810160405280929190818152602001828054610153906104e0565b801561019e5780601f106101755761010080835404028352916020019161019e565b820191905f5260205f20905b81548152906001019060200180831161018157829003601f168201915b50505050506101c8565b505b565b600160025f6101000a81548160ff021916908315150217905550565b60606101d583835f6101dd565b905092915050565b6060814710156102265747826040517fcf47918100000000000000000000000000000000000000000000000000000000815260040161021d929190610795565b60405180910390fd5b5f610232858486610317565b905080801561026857505f61024561032d565b118061026757505f8573ffffffffffffffffffffffffffffffffffffffff163b115b5b1561027d57610275610334565b915050610310565b80156102c057846040517f9996b3150000000000000000000000000000000000000000000000000000000081526004016102b791906107cb565b60405180910390fd5b5f6102c961032d565b11156102dc576102d7610351565b61030e565b6040517fd6bda27500000000000000000000000000000000000000000000000000000000815260040160405180910390fd5b505b9392505050565b5f5f5f83516020850186885af190509392505050565b5f3d905090565b606060405190503d81523d5f602083013e3d602001810160405290565b6040513d5f823e3d81fd5b5f5ffd5b5f5ffd5b5f73ffffffffffffffffffffffffffffffffffffffff82169050919050565b5f61038d82610364565b9050919050565b61039d81610383565b81146103a7575f5ffd5b50565b5f813590506103b881610394565b92915050565b5f5ffd5b5f5ffd5b5f5ffd5b5f5f83601f8401126103df576103de6103be565b5b8235905067ffffffffffffffff8111156103fc576103fb6103c2565b5b602083019150836001820283011115610418576104176103c6565b5b9250929050565b5f5f5f604084860312156104365761043561035c565b5b5f610443868287016103aa565b935050602084013567ffffffffffffffff81111561046457610463610360565b5b610470868287016103ca565b92509250509250925092565b5f82905092915050565b7f4e487b71000000000000000000000000000000000000000000000000000000005f52604160045260245ffd5b7f4e487b71000000000000000000000000000000000000000000000000000000005f52602260045260245ffd5b5f60028204905060018216806104f757607f821691505b60208210810361050a576105096104b3565b5b50919050565b5f819050815f5260205f209050919050565b5f6020601f8301049050919050565b5f82821b905092915050565b5f6008830261056c7fffffffffffffffffffffffffffffffffffffffffffffffffffffffffffffffff82610531565b6105768683610531565b95508019841693508086168417925050509392505050565b5f819050919050565b5f819050919050565b5f6105ba6105b56105b08461058e565b610597565b61058e565b9050919050565b5f819050919050565b6105d3836105a0565b6105e76105df826105c1565b84845461053d565b825550505050565b5f5f905090565b6105fe6105ef565b6106098184846105ca565b505050565b5b8181101561062c576106215f826105f6565b60018101905061060f565b5050565b601f8211156106715761064281610510565b61064b84610522565b8101602085101561065a578190505b61066e61066685610522565b83018261060e565b50505b505050565b5f82821c905092915050565b5f6106915f1984600802610676565b1980831691505092915050565b5f6106a98383610682565b9150826002028217905092915050565b6106c3838361047c565b67ffffffffffffffff8111156106dc576106db610486565b5b6106e682546104e0565b6106f1828285610630565b5f601f83116001811461071e575f841561070c578287013590505b610716858261069e565b86555061077d565b601f19841661072c86610510565b5f5b828110156107535784890135825560018201915060208501945060208101905061072e565b86831015610770578489013561076c601f891682610682565b8355505b6001600288020188555050505b50505050505050565b61078f8161058e565b82525050565b5f6040820190506107a85f830185610786565b6107b56020830184610786565b9392505050565b6107c581610383565b82525050565b5f6020820190506107de5f8301846107bc565b9291505056fea2646970667358221220113ff17b4a2960f26a885690778852eec721c8d38ee328ca3922d074cc6fa3d464736f6c634300081e0033","linkReferences":{}},"methodIdentifiers":{"disableReentrancy()":"cc23fb1c","enableReentrancy(address,bytes)":"16b32837","reenter()":"a0fe97e3"},"id":225}