{"abi":[{"type":"constructor","inputs":[{"name":"beneficiary","type":"address","internalType":"address"},{"name":"startTimestamp","type":"uint64","internalType":"uint64"},{"name":"durationSeconds","type":"uint64","internalType":"uint64"}],"stateMutability":"payable"},{"type":"receive","stateMutability":"payable"},{"type":"function","name":"duration","inputs":[],"outputs":[{"name":"","type":"uint256","internalType":"uint256"}],"stateMutability":"view"},{"type":"function","name":"end","inputs":[],"outputs":[{"name":"","type":"uint256","internalType":"uint256"}],"stateMutability":"view"},{"type":"function","name":"owner","inputs":[],"outputs":[{"name":"","type":"address","internalType":"address"}],"stateMutability":"view"},{"type":"function","name":"releasable","inputs":[{"name":"token","type":"address","internalType":"address"}],"outputs":[{"name":"","type":"uint256","internalType":"uint256"}],"stateMutability":"view"},{"type":"function","name":"releasable","inputs":[],"outputs":[{"name":"","type":"uint256","internalType":"uint256"}],"stateMutability":"view"},{"type":"function","name":"release","inputs":[{"name":"token","type":"address","internalType":"address"}],"outputs":[],"stateMutability":"nonpayable"},{"type":"function","name":"release","inputs":[],"outputs":[],"stateMutability":"nonpayable"},{"type":"function","name":"released","inputs":[],"outputs":[{"name":"","type":"uint256","internalType":"uint256"}],"stateMutability":"view"},{"type":"function","name":"released","inputs":[{"name":"token","type":"address","internalType":"address"}],"outputs":[{"name":"","type":"uint256","internalType":"uint256"}],"stateMutability":"view"},{"type":"function","name":"renounceOwnership","inputs":[],"outputs":[],"stateMutability":"nonpayable"},{"type":"function","name":"start","inputs":[],"outputs":[{"name":"","type":"uint256","internalType":"uint256"}],"stateMutability":"view"},{"type":"function","name":"transferOwnership","inputs":[{"name":"newOwner","type":"address","internalType":"address"}],"outputs":[],"stateMutability":"nonpayable"},{"type":"function","name":"vestedAmount","inputs":[{"name":"timestamp","type":"uint64","internalType":"uint64"}],"outputs":[{"name":"","type":"uint256","internalType":"uint256"}],"stateMutability":"view"},{"type":"function","name":"vestedAmount","inputs":[{"name":"token","type":"address","internalType":"address"},{"name":"timestamp","type":"uint64","internalType":"uint64"}],"outputs":[{"name":"","type":"uint256","internalType":"uint256"}],"stateMutability":"view"},{"type":"event","name":"ERC20Released","inputs":[{"name":"token","type":"address","indexed":true,"internalType":"address"},{"name":"amount","type":"uint256","indexed":false,"internalType":"uint256"}],"anonymous":false},{"type":"event","name":"EtherReleased","inputs":[{"name":"amount","type":"uint256","indexed":false,"internalType":"uint256"}],"anonymous":false},{"type":"event","name":"OwnershipTransferred","inputs":[{"name":"previousOwner","type":"address","indexed":true,"internalType":"address"},{"name":"newOwner","type":"address","indexed":true,"internalType":"address"}],"anonymous":false},{"type":"error","name":"FailedCall","inputs":[]},{"type":"error","name":"InsufficientBalance","inputs":[{"name":"balance","type":"uint256","internalType":"uint256"},{"name":"needed","type":"uint256","internalType":"uint256"}]},{"type":"error","name":"OwnableInvalidOwner","inputs":[{"name":"owner","type":"address","internalType":"address"}]},{"type":"error","name":"OwnableUnauthorizedAccount","inputs":[{"name":"account","type":"address","internalType":"address"}]},{"type":"error","name":"SafeERC20FailedOperation","inputs":[{"name":"token","type":"address","internalType":"address"}]}],"bytecode":{"object":"0x60c06040526040516110c83803806110c883398181016040528101906100259190610242565b825f73ffffffffffffffffffffffffffffffffffffffff168173ffffffffffffffffffffffffffffffffffffffff1603610096575f6040517f1e4fbdf700000000000000000000000000000000000000000000000000000000815260040161008d91906102a1565b60405180910390fd5b6100a5816100e660201b60201c565b508167ffffffffffffffff1660808167ffffffffffffffff16815250508067ffffffffffffffff1660a08167ffffffffffffffff16815250505050506102ba565b5f5f5f9054906101000a900473ffffffffffffffffffffffffffffffffffffffff169050815f5f6101000a81548173ffffffffffffffffffffffffffffffffffffffff021916908373ffffffffffffffffffffffffffffffffffffffff1602179055508173ffffffffffffffffffffffffffffffffffffffff168173ffffffffffffffffffffffffffffffffffffffff167f8be0079c531659141344cd1fd0a4f28419497f9722a3daafe3b4186f6b6457e060405160405180910390a35050565b5f5ffd5b5f73ffffffffffffffffffffffffffffffffffffffff82169050919050565b5f6101d4826101ab565b9050919050565b6101e4816101ca565b81146101ee575f5ffd5b50565b5f815190506101ff816101db565b92915050565b5f67ffffffffffffffff82169050919050565b61022181610205565b811461022b575f5ffd5b50565b5f8151905061023c81610218565b92915050565b5f5f5f60608486031215610259576102586101a7565b5b5f610266868287016101f1565b93505060206102778682870161022e565b92505060406102888682870161022e565b9150509250925092565b61029b816101ca565b82525050565b5f6020820190506102b45f830184610292565b92915050565b60805160a051610ded6102db5f395f61037a01525f6106270152610ded5ff3fe6080604052600436106100e0575f3560e01c8063961325211161007e578063be9a655511610058578063be9a6555146102ad578063efbe1c1c146102d7578063f2fde38b14610301578063fbccedae14610329576100e7565b8063961325211461020b5780639852595c14610235578063a3f8eace14610271576100e7565b8063715018a6116100ba578063715018a614610179578063810ec23b1461018f57806386d1a69f146101cb5780638da5cb5b146101e1576100e7565b80630a17b06b146100eb5780630fb5a6b4146101275780631916558714610151576100e7565b366100e757005b5f5ffd5b3480156100f6575f5ffd5b50610111600480360381019061010c9190610ac3565b610353565b60405161011e9190610b06565b60405180910390f35b348015610132575f5ffd5b5061013b610377565b6040516101489190610b06565b60405180910390f35b34801561015c575f5ffd5b5061017760048036038101906101729190610b79565b6103a8565b005b348015610184575f5ffd5b5061018d61046b565b005b34801561019a575f5ffd5b506101b560048036038101906101b09190610ba4565b61047e565b6040516101c29190610b06565b60405180910390f35b3480156101d6575f5ffd5b506101df61051b565b005b3480156101ec575f5ffd5b506101f5610589565b6040516102029190610bf1565b60405180910390f35b348015610216575f5ffd5b5061021f6105b0565b60405161022c9190610b06565b60405180910390f35b348015610240575f5ffd5b5061025b60048036038101906102569190610b79565b6105b9565b6040516102689190610b06565b60405180910390f35b34801561027c575f5ffd5b5061029760048036038101906102929190610b79565b6105ff565b6040516102a49190610b06565b60405180910390f35b3480156102b8575f5ffd5b506102c1610624565b6040516102ce9190610b06565b60405180910390f35b3480156102e2575f5ffd5b506102eb610655565b6040516102f89190610b06565b60405180910390f35b34801561030c575f5ffd5b5061032760048036038101906103229190610b79565b610675565b005b348015610334575f5ffd5b5061033d6106f9565b60405161034a9190610b06565b60405180910390f35b5f61037061035f6105b0565b4761036a9190610c37565b8361071a565b9050919050565b5f7f000000000000000000000000000000000000000000000000000000000000000067ffffffffffffffff16905090565b5f6103b2826105ff565b90508060025f8473ffffffffffffffffffffffffffffffffffffffff1673ffffffffffffffffffffffffffffffffffffffff1681526020019081526020015f205f8282546104009190610c37565b925050819055508173ffffffffffffffffffffffffffffffffffffffff167fc0e523490dd523c33b1878c9eb14ff46991e3f5b2cd33710918618f2a39cba1b8260405161044d9190610b06565b60405180910390a261046782610461610589565b8361079f565b5050565b6104736107f2565b61047c5f610879565b565b5f61051361048b846105b9565b8473ffffffffffffffffffffffffffffffffffffffff166370a08231306040518263ffffffff1660e01b81526004016104c49190610bf1565b602060405180830381865afa1580156104df573d5f5f3e3d5ffd5b505050506040513d601f19601f820116820180604052508101906105039190610c94565b61050d9190610c37565b8361071a565b905092915050565b5f6105246106f9565b90508060015f8282546105379190610c37565b925050819055507fda9d4e5f101b8b9b1c5b76d0c5a9f7923571acfc02376aa076b75a8c080c956b8160405161056d9190610b06565b60405180910390a1610586610580610589565b8261093a565b50565b5f5f5f9054906101000a900473ffffffffffffffffffffffffffffffffffffffff16905090565b5f600154905090565b5f60025f8373ffffffffffffffffffffffffffffffffffffffff1673ffffffffffffffffffffffffffffffffffffffff1681526020019081526020015f20549050919050565b5f610609826105b9565b610613834261047e565b61061d9190610cbf565b9050919050565b5f7f000000000000000000000000000000000000000000000000000000000000000067ffffffffffffffff16905090565b5f61065e610377565b610666610624565b6106709190610c37565b905090565b61067d6107f2565b5f73ffffffffffffffffffffffffffffffffffffffff168173ffffffffffffffffffffffffffffffffffffffff16036106ed575f6040517f1e4fbdf70000000000000000000000000000000000000000000000000000000081526004016106e49190610bf1565b60405180910390fd5b6106f681610879565b50565b5f6107026105b0565b61070b42610353565b6107159190610cbf565b905090565b5f610723610624565b8267ffffffffffffffff16101561073c575f9050610799565b610744610655565b8267ffffffffffffffff161061075c57829050610799565b610764610377565b61076c610624565b8367ffffffffffffffff166107819190610cbf565b8461078c9190610cf2565b6107969190610d60565b90505b92915050565b6107ac83838360016109f1565b6107ed57826040517f5274afe70000000000000000000000000000000000000000000000000000000081526004016107e49190610bf1565b60405180910390fd5b505050565b6107fa610a53565b73ffffffffffffffffffffffffffffffffffffffff16610818610589565b73ffffffffffffffffffffffffffffffffffffffff16146108775761083b610a53565b6040517f118cdaa700000000000000000000000000000000000000000000000000000000815260040161086e9190610bf1565b60405180910390fd5b565b5f5f5f9054906101000a900473ffffffffffffffffffffffffffffffffffffffff169050815f5f6101000a81548173ffffffffffffffffffffffffffffffffffffffff021916908373ffffffffffffffffffffffffffffffffffffffff1602179055508173ffffffffffffffffffffffffffffffffffffffff168173ffffffffffffffffffffffffffffffffffffffff167f8be0079c531659141344cd1fd0a4f28419497f9722a3daafe3b4186f6b6457e060405160405180910390a35050565b804710156109815747816040517fcf479181000000000000000000000000000000000000000000000000000000008152600401610978929190610d90565b60405180910390fd5b61099a828260405180602001604052805f815250610a5a565b6109ed575f6109a7610a70565b11156109ba576109b5610a77565b6109ec565b6040517fd6bda27500000000000000000000000000000000000000000000000000000000815260040160405180910390fd5b5b5050565b5f5f63a9059cbb60e01b9050604051815f525f1960601c86166004528460245260205f60445f5f8b5af1925060015f51148316610a45578383151615610a39573d5f823e3d81fd5b5f873b113d1516831692505b806040525050949350505050565b5f33905090565b5f5f5f83516020850186885af190509392505050565b5f3d905090565b6040513d5f823e3d81fd5b5f5ffd5b5f67ffffffffffffffff82169050919050565b610aa281610a86565b8114610aac575f5ffd5b50565b5f81359050610abd81610a99565b92915050565b5f60208284031215610ad857610ad7610a82565b5b5f610ae584828501610aaf565b91505092915050565b5f819050919050565b610b0081610aee565b82525050565b5f602082019050610b195f830184610af7565b92915050565b5f73ffffffffffffffffffffffffffffffffffffffff82169050919050565b5f610b4882610b1f565b9050919050565b610b5881610b3e565b8114610b62575f5ffd5b50565b5f81359050610b7381610b4f565b92915050565b5f60208284031215610b8e57610b8d610a82565b5b5f610b9b84828501610b65565b91505092915050565b5f5f60408385031215610bba57610bb9610a82565b5b5f610bc785828601610b65565b9250506020610bd885828601610aaf565b9150509250929050565b610beb81610b3e565b82525050565b5f602082019050610c045f830184610be2565b92915050565b7f4e487b71000000000000000000000000000000000000000000000000000000005f52601160045260245ffd5b5f610c4182610aee565b9150610c4c83610aee565b9250828201905080821115610c6457610c63610c0a565b5b92915050565b610c7381610aee565b8114610c7d575f5ffd5b50565b5f81519050610c8e81610c6a565b92915050565b5f60208284031215610ca957610ca8610a82565b5b5f610cb684828501610c80565b91505092915050565b5f610cc982610aee565b9150610cd483610aee565b9250828203905081811115610cec57610ceb610c0a565b5b92915050565b5f610cfc82610aee565b9150610d0783610aee565b9250828202610d1581610aee565b91508282048414831517610d2c57610d2b610c0a565b5b5092915050565b7f4e487b71000000000000000000000000000000000000000000000000000000005f52601260045260245ffd5b5f610d6a82610aee565b9150610d7583610aee565b925082610d8557610d84610d33565b5b828204905092915050565b5f604082019050610da35f830185610af7565b610db06020830184610af7565b939250505056fea26469706673582212207487dbb7f22c4b399b52c963fd738f4e2cd216e038df12fc9a8942074dc7765164736f6c634300081e0033","linkReferences":{}},"methodIdentifiers":{"duration()":"0fb5a6b4","end()":"efbe1c1c","owner()":"8da5cb5b","releasable()":"fbccedae","releasable(address)":"a3f8eace","release()":"86d1a69f","release(address)":"19165587","released()":"96132521","released(address)":"9852595c","renounceOwnership()":"715018a6","start()":"be9a6555","transferOwnership(address)":"f2fde38b","vestedAmount(address,uint64)":"810ec23b","vestedAmount(uint64)":"0a17b06b"},"id":134}