{"abi":[{"type":"function","name":"execute","inputs":[{"name":"calls","type":"tuple[]","internalType":"struct BatchCaller.Call[]","components":[{"name":"target","type":"address","internalType":"address"},{"name":"value","type":"uint256","internalType":"uint256"},{"name":"data","type":"bytes","internalType":"bytes"}]}],"outputs":[{"name":"","type":"bytes[]","internalType":"bytes[]"}],"stateMutability":"nonpayable"},{"type":"error","name":"AddressEmptyCode","inputs":[{"name":"target","type":"address","internalType":"address"}]},{"type":"error","name":"FailedCall","inputs":[]},{"type":"error","name":"InsufficientBalance","inputs":[{"name":"balance","type":"uint256","internalType":"uint256"},{"name":"needed","type":"uint256","internalType":"uint256"}]}],"bytecode":{"object":"0x6080604052348015600e575f5ffd5b506107638061001c5f395ff3fe608060405234801561000f575f5ffd5b5060043610610029575f3560e01c80633f707e6b1461002d575b5f5ffd5b610047600480360381019061004291906103bc565b61005d565b6040516100549190610532565b60405180910390f35b60605f8383905067ffffffffffffffff81111561007d5761007c610552565b5b6040519080825280602002602001820160405280156100b057816020015b606081526020019060019003908161009b5790505b5090505f5f90505b848490508110156101c9576101a08585838181106100d9576100d861057f565b5b90506020028101906100eb91906105b8565b5f0160208101906100fc9190610639565b86868481811061010f5761010e61057f565b5b905060200281019061012191906105b8565b80604001906101309190610664565b8080601f0160208091040260200160405190810160405280939291908181526020018383808284375f81840152601f19601f820116905080830192505050505050508787858181106101855761018461057f565b5b905060200281019061019791906105b8565b602001356101d4565b8282815181106101b3576101b261057f565b5b60200260200101819052508060010190506100b8565b508091505092915050565b60608147101561021d5747826040517fcf4791810000000000000000000000000000000000000000000000000000000081526004016102149291906106de565b60405180910390fd5b5f61022985848661030e565b905080801561025f57505f61023c610324565b118061025e57505f8573ffffffffffffffffffffffffffffffffffffffff163b115b5b156102745761026c61032b565b915050610307565b80156102b757846040517f9996b3150000000000000000000000000000000000000000000000000000000081526004016102ae9190610714565b60405180910390fd5b5f6102c0610324565b11156102d3576102ce610348565b610305565b6040517fd6bda27500000000000000000000000000000000000000000000000000000000815260040160405180910390fd5b505b9392505050565b5f5f5f83516020850186885af190509392505050565b5f3d905090565b606060405190503d81523d5f602083013e3d602001810160405290565b6040513d5f823e3d81fd5b5f5ffd5b5f5ffd5b5f5ffd5b5f5ffd5b5f5ffd5b5f5f83601f84011261037c5761037b61035b565b5b8235905067ffffffffffffffff8111156103995761039861035f565b5b6020830191508360208202830111156103b5576103b4610363565b5b9250929050565b5f5f602083850312156103d2576103d1610353565b5b5f83013567ffffffffffffffff8111156103ef576103ee610357565b5b6103fb85828601610367565b92509250509250929050565b5f81519050919050565b5f82825260208201905092915050565b5f819050602082019050919050565b5f81519050919050565b5f82825260208201905092915050565b8281835e5f83830152505050565b5f601f19601f8301169050919050565b5f61047282610430565b61047c818561043a565b935061048c81856020860161044a565b61049581610458565b840191505092915050565b5f6104ab8383610468565b905092915050565b5f602082019050919050565b5f6104c982610407565b6104d38185610411565b9350836020820285016104e585610421565b805f5b85811015610520578484038952815161050185826104a0565b945061050c836104b3565b925060208a019950506001810190506104e8565b50829750879550505050505092915050565b5f6020820190508181035f83015261054a81846104bf565b905092915050565b7f4e487b71000000000000000000000000000000000000000000000000000000005f52604160045260245ffd5b7f4e487b71000000000000000000000000000000000000000000000000000000005f52603260045260245ffd5b5f5ffd5b5f5ffd5b5f5ffd5b5f823560016060038336030381126105d3576105d26105ac565b5b80830191505092915050565b5f73ffffffffffffffffffffffffffffffffffffffff82169050919050565b5f610608826105df565b9050919050565b610618816105fe565b8114610622575f5ffd5b50565b5f813590506106338161060f565b92915050565b5f6020828403121561064e5761064d610353565b5b5f61065b84828501610625565b91505092915050565b5f5f833560016020038436030381126106805761067f6105ac565b5b80840192508235915067ffffffffffffffff8211156106a2576106a16105b0565b5b6020830192506001820236038313156106be576106bd6105b4565b5b509250929050565b5f819050919050565b6106d8816106c6565b82525050565b5f6040820190506106f15f8301856106cf565b6106fe60208301846106cf565b9392505050565b61070e816105fe565b82525050565b5f6020820190506107275f830184610705565b9291505056fea2646970667358221220c34b1d9dea86fdf796d7271e33548e22a77580e430a1e0bb09f49fbf6680380664736f6c634300081e0033","linkReferences":{}},"methodIdentifiers":{"execute((address,uint256,bytes)[])":"3f707e6b"},"id":201}