{"abi":[{"type":"constructor","inputs":[{"name":"_token","type":"address","internalType":"contract IVotes"},{"name":"_timelock","type":"address","internalType":"contract TimelockController"}],"stateMutability":"nonpayable"},{"type":"receive","stateMutability":"payable"},{"type":"function","name":"BALLOT_TYPEHASH","inputs":[],"outputs":[{"name":"","type":"bytes32","internalType":"bytes32"}],"stateMutability":"view"},{"type":"function","name":"CLOCK_MODE","inputs":[],"outputs":[{"name":"","type":"string","internalType":"string"}],"stateMutability":"view"},{"type":"function","name":"COUNTING_MODE","inputs":[],"outputs":[{"name":"","type":"string","internalType":"string"}],"stateMutability":"pure"},{"type":"function","name":"EXTENDED_BALLOT_TYPEHASH","inputs":[],"outputs":[{"name":"","type":"bytes32","internalType":"bytes32"}],"stateMutability":"view"},{"type":"function","name":"cancel","inputs":[{"name":"targets","type":"address[]","internalType":"address[]"},{"name":"values","type":"uint256[]","internalType":"uint256[]"},{"name":"calldatas","type":"bytes[]","internalType":"bytes[]"},{"name":"descriptionHash","type":"bytes32","internalType":"bytes32"}],"outputs":[{"name":"","type":"uint256","internalType":"uint256"}],"stateMutability":"nonpayable"},{"type":"function","name":"castVote","inputs":[{"name":"proposalId","type":"uint256","internalType":"uint256"},{"name":"support","type":"uint8","internalType":"uint8"}],"outputs":[{"name":"","type":"uint256","internalType":"uint256"}],"stateMutability":"nonpayable"},{"type":"function","name":"castVoteBySig","inputs":[{"name":"proposalId","type":"uint256","internalType":"uint256"},{"name":"support","type":"uint8","internalType":"uint8"},{"name":"voter","type":"address","internalType":"address"},{"name":"signature","type":"bytes","internalType":"bytes"}],"outputs":[{"name":"","type":"uint256","internalType":"uint256"}],"stateMutability":"nonpayable"},{"type":"function","name":"castVoteWithReason","inputs":[{"name":"proposalId","type":"uint256","internalType":"uint256"},{"name":"support","type":"uint8","internalType":"uint8"},{"name":"reason","type":"string","internalType":"string"}],"outputs":[{"name":"","type":"uint256","internalType":"uint256"}],"stateMutability":"nonpayable"},{"type":"function","name":"castVoteWithReasonAndParams","inputs":[{"name":"proposalId","type":"uint256","internalType":"uint256"},{"name":"support","type":"uint8","internalType":"uint8"},{"name":"reason","type":"string","internalType":"string"},{"name":"params","type":"bytes","internalType":"bytes"}],"outputs":[{"name":"","type":"uint256","internalType":"uint256"}],"stateMutability":"nonpayable"},{"type":"function","name":"castVoteWithReasonAndParamsBySig","inputs":[{"name":"proposalId","type":"uint256","internalType":"uint256"},{"name":"support","type":"uint8","internalType":"uint8"},{"name":"voter","type":"address","internalType":"address"},{"name":"reason","type":"string","internalType":"string"},{"name":"params","type":"bytes","internalType":"bytes"},{"name":"signature","type":"bytes","internalType":"bytes"}],"outputs":[{"name":"","type":"uint256","internalType":"uint256"}],"stateMutability":"nonpayable"},{"type":"function","name":"clock","inputs":[],"outputs":[{"name":"","type":"uint48","internalType":"uint48"}],"stateMutability":"view"},{"type":"function","name":"eip712Domain","inputs":[],"outputs":[{"name":"fields","type":"bytes1","internalType":"bytes1"},{"name":"name","type":"string","internalType":"string"},{"name":"version","type":"string","internalType":"string"},{"name":"chainId","type":"uint256","internalType":"uint256"},{"name":"verifyingContract","type":"address","internalType":"address"},{"name":"salt","type":"bytes32","internalType":"bytes32"},{"name":"extensions","type":"uint256[]","internalType":"uint256[]"}],"stateMutability":"view"},{"type":"function","name":"execute","inputs":[{"name":"targets","type":"address[]","internalType":"address[]"},{"name":"values","type":"uint256[]","internalType":"uint256[]"},{"name":"calldatas","type":"bytes[]","internalType":"bytes[]"},{"name":"descriptionHash","type":"bytes32","internalType":"bytes32"}],"outputs":[{"name":"","type":"uint256","internalType":"uint256"}],"stateMutability":"payable"},{"type":"function","name":"getProposalId","inputs":[{"name":"targets","type":"address[]","internalType":"address[]"},{"name":"values","type":"uint256[]","internalType":"uint256[]"},{"name":"calldatas","type":"bytes[]","internalType":"bytes[]"},{"name":"descriptionHash","type":"bytes32","internalType":"bytes32"}],"outputs":[{"name":"","type":"uint256","internalType":"uint256"}],"stateMutability":"view"},{"type":"function","name":"getVotes","inputs":[{"name":"account","type":"address","internalType":"address"},{"name":"timepoint","type":"uint256","internalType":"uint256"}],"outputs":[{"name":"","type":"uint256","internalType":"uint256"}],"stateMutability":"view"},{"type":"function","name":"getVotesWithParams","inputs":[{"name":"account","type":"address","internalType":"address"},{"name":"timepoint","type":"uint256","internalType":"uint256"},{"name":"params","type":"bytes","internalType":"bytes"}],"outputs":[{"name":"","type":"uint256","internalType":"uint256"}],"stateMutability":"view"},{"type":"function","name":"hasVoted","inputs":[{"name":"proposalId","type":"uint256","internalType":"uint256"},{"name":"account","type":"address","internalType":"address"}],"outputs":[{"name":"","type":"bool","internalType":"bool"}],"stateMutability":"view"},{"type":"function","name":"hashProposal","inputs":[{"name":"targets","type":"address[]","internalType":"address[]"},{"name":"values","type":"uint256[]","internalType":"uint256[]"},{"name":"calldatas","type":"bytes[]","internalType":"bytes[]"},{"name":"descriptionHash","type":"bytes32","internalType":"bytes32"}],"outputs":[{"name":"","type":"uint256","internalType":"uint256"}],"stateMutability":"pure"},{"type":"function","name":"name","inputs":[],"outputs":[{"name":"","type":"string","internalType":"string"}],"stateMutability":"view"},{"type":"function","name":"nonces","inputs":[{"name":"owner","type":"address","internalType":"address"}],"outputs":[{"name":"","type":"uint256","internalType":"uint256"}],"stateMutability":"view"},{"type":"function","name":"onERC1155BatchReceived","inputs":[{"name":"","type":"address","internalType":"address"},{"name":"","type":"address","internalType":"address"},{"name":"","type":"uint256[]","internalType":"uint256[]"},{"name":"","type":"uint256[]","internalType":"uint256[]"},{"name":"","type":"bytes","internalType":"bytes"}],"outputs":[{"name":"","type":"bytes4","internalType":"bytes4"}],"stateMutability":"nonpayable"},{"type":"function","name":"onERC1155Received","inputs":[{"name":"","type":"address","internalType":"address"},{"name":"","type":"address","internalType":"address"},{"name":"","type":"uint256","internalType":"uint256"},{"name":"","type":"uint256","internalType":"uint256"},{"name":"","type":"bytes","internalType":"bytes"}],"outputs":[{"name":"","type":"bytes4","internalType":"bytes4"}],"stateMutability":"nonpayable"},{"type":"function","name":"onERC721Received","inputs":[{"name":"","type":"address","internalType":"address"},{"name":"","type":"address","internalType":"address"},{"name":"","type":"uint256","internalType":"uint256"},{"name":"","type":"bytes","internalType":"bytes"}],"outputs":[{"name":"","type":"bytes4","internalType":"bytes4"}],"stateMutability":"nonpayable"},{"type":"function","name":"proposalDeadline","inputs":[{"name":"proposalId","type":"uint256","internalType":"uint256"}],"outputs":[{"name":"","type":"uint256","internalType":"uint256"}],"stateMutability":"view"},{"type":"function","name":"proposalEta","inputs":[{"name":"proposalId","type":"uint256","internalType":"uint256"}],"outputs":[{"name":"","type":"uint256","internalType":"uint256"}],"stateMutability":"view"},{"type":"function","name":"proposalNeedsQueuing","inputs":[{"name":"proposalId","type":"uint256","internalType":"uint256"}],"outputs":[{"name":"","type":"bool","internalType":"bool"}],"stateMutability":"view"},{"type":"function","name":"proposalProposer","inputs":[{"name":"proposalId","type":"uint256","internalType":"uint256"}],"outputs":[{"name":"","type":"address","internalType":"address"}],"stateMutability":"view"},{"type":"function","name":"proposalSnapshot","inputs":[{"name":"proposalId","type":"uint256","internalType":"uint256"}],"outputs":[{"name":"","type":"uint256","internalType":"uint256"}],"stateMutability":"view"},{"type":"function","name":"proposalThreshold","inputs":[],"outputs":[{"name":"","type":"uint256","internalType":"uint256"}],"stateMutability":"pure"},{"type":"function","name":"proposalVotes","inputs":[{"name":"proposalId","type":"uint256","internalType":"uint256"}],"outputs":[{"name":"againstVotes","type":"uint256","internalType":"uint256"},{"name":"forVotes","type":"uint256","internalType":"uint256"},{"name":"abstainVotes","type":"uint256","internalType":"uint256"}],"stateMutability":"view"},{"type":"function","name":"propose","inputs":[{"name":"targets","type":"address[]","internalType":"address[]"},{"name":"values","type":"uint256[]","internalType":"uint256[]"},{"name":"calldatas","type":"bytes[]","internalType":"bytes[]"},{"name":"description","type":"string","internalType":"string"}],"outputs":[{"name":"","type":"uint256","internalType":"uint256"}],"stateMutability":"nonpayable"},{"type":"function","name":"queue","inputs":[{"name":"targets","type":"address[]","internalType":"address[]"},{"name":"values","type":"uint256[]","internalType":"uint256[]"},{"name":"calldatas","type":"bytes[]","internalType":"bytes[]"},{"name":"descriptionHash","type":"bytes32","internalType":"bytes32"}],"outputs":[{"name":"","type":"uint256","internalType":"uint256"}],"stateMutability":"nonpayable"},{"type":"function","name":"quorum","inputs":[{"name":"timepoint","type":"uint256","internalType":"uint256"}],"outputs":[{"name":"","type":"uint256","internalType":"uint256"}],"stateMutability":"view"},{"type":"function","name":"quorumDenominator","inputs":[],"outputs":[{"name":"","type":"uint256","internalType":"uint256"}],"stateMutability":"view"},{"type":"function","name":"quorumNumerator","inputs":[{"name":"timepoint","type":"uint256","internalType":"uint256"}],"outputs":[{"name":"","type":"uint256","internalType":"uint256"}],"stateMutability":"view"},{"type":"function","name":"quorumNumerator","inputs":[],"outputs":[{"name":"","type":"uint256","internalType":"uint256"}],"stateMutability":"view"},{"type":"function","name":"relay","inputs":[{"name":"target","type":"address","internalType":"address"},{"name":"value","type":"uint256","internalType":"uint256"},{"name":"data","type":"bytes","internalType":"bytes"}],"outputs":[],"stateMutability":"payable"},{"type":"function","name":"state","inputs":[{"name":"proposalId","type":"uint256","internalType":"uint256"}],"outputs":[{"name":"","type":"uint8","internalType":"enum IGovernor.ProposalState"}],"stateMutability":"view"},{"type":"function","name":"supportsInterface","inputs":[{"name":"interfaceId","type":"bytes4","internalType":"bytes4"}],"outputs":[{"name":"","type":"bool","internalType":"bool"}],"stateMutability":"view"},{"type":"function","name":"timelock","inputs":[],"outputs":[{"name":"","type":"address","internalType":"address"}],"stateMutability":"view"},{"type":"function","name":"token","inputs":[],"outputs":[{"name":"","type":"address","internalType":"contract IERC5805"}],"stateMutability":"view"},{"type":"function","name":"updateQuorumNumerator","inputs":[{"name":"newQuorumNumerator","type":"uint256","internalType":"uint256"}],"outputs":[],"stateMutability":"nonpayable"},{"type":"function","name":"updateTimelock","inputs":[{"name":"newTimelock","type":"address","internalType":"contract TimelockController"}],"outputs":[],"stateMutability":"nonpayable"},{"type":"function","name":"version","inputs":[],"outputs":[{"name":"","type":"string","internalType":"string"}],"stateMutability":"view"},{"type":"function","name":"votingDelay","inputs":[],"outputs":[{"name":"","type":"uint256","internalType":"uint256"}],"stateMutability":"pure"},{"type":"function","name":"votingPeriod","inputs":[],"outputs":[{"name":"","type":"uint256","internalType":"uint256"}],"stateMutability":"pure"},{"type":"event","name":"EIP712DomainChanged","inputs":[],"anonymous":false},{"type":"event","name":"ProposalCanceled","inputs":[{"name":"proposalId","type":"uint256","indexed":false,"internalType":"uint256"}],"anonymous":false},{"type":"event","name":"ProposalCreated","inputs":[{"name":"proposalId","type":"uint256","indexed":false,"internalType":"uint256"},{"name":"proposer","type":"address","indexed":false,"internalType":"address"},{"name":"targets","type":"address[]","indexed":false,"internalType":"address[]"},{"name":"values","type":"uint256[]","indexed":false,"internalType":"uint256[]"},{"name":"signatures","type":"string[]","indexed":false,"internalType":"string[]"},{"name":"calldatas","type":"bytes[]","indexed":false,"internalType":"bytes[]"},{"name":"voteStart","type":"uint256","indexed":false,"internalType":"uint256"},{"name":"voteEnd","type":"uint256","indexed":false,"internalType":"uint256"},{"name":"description","type":"string","indexed":false,"internalType":"string"}],"anonymous":false},{"type":"event","name":"ProposalExecuted","inputs":[{"name":"proposalId","type":"uint256","indexed":false,"internalType":"uint256"}],"anonymous":false},{"type":"event","name":"ProposalQueued","inputs":[{"name":"proposalId","type":"uint256","indexed":false,"internalType":"uint256"},{"name":"etaSeconds","type":"uint256","indexed":false,"internalType":"uint256"}],"anonymous":false},{"type":"event","name":"QuorumNumeratorUpdated","inputs":[{"name":"oldQuorumNumerator","type":"uint256","indexed":false,"internalType":"uint256"},{"name":"newQuorumNumerator","type":"uint256","indexed":false,"internalType":"uint256"}],"anonymous":false},{"type":"event","name":"TimelockChange","inputs":[{"name":"oldTimelock","type":"address","indexed":false,"internalType":"address"},{"name":"newTimelock","type":"address","indexed":false,"internalType":"address"}],"anonymous":false},{"type":"event","name":"VoteCast","inputs":[{"name":"voter","type":"address","indexed":true,"internalType":"address"},{"name":"proposalId","type":"uint256","indexed":false,"internalType":"uint256"},{"name":"support","type":"uint8","indexed":false,"internalType":"uint8"},{"name":"weight","type":"uint256","indexed":false,"internalType":"uint256"},{"name":"reason","type":"string","indexed":false,"internalType":"string"}],"anonymous":false},{"type":"event","name":"VoteCastWithParams","inputs":[{"name":"voter","type":"address","indexed":true,"internalType":"address"},{"name":"proposalId","type":"uint256","indexed":false,"internalType":"uint256"},{"name":"support","type":"uint8","indexed":false,"internalType":"uint8"},{"name":"weight","type":"uint256","indexed":false,"internalType":"uint256"},{"name":"reason","type":"string","indexed":false,"internalType":"string"},{"name":"params","type":"bytes","indexed":false,"internalType":"bytes"}],"anonymous":false},{"type":"error","name":"CheckpointUnorderedInsertion","inputs":[]},{"type":"error","name":"FailedCall","inputs":[]},{"type":"error","name":"GovernorAlreadyCastVote","inputs":[{"name":"voter","type":"address","internalType":"address"}]},{"type":"error","name":"GovernorAlreadyQueuedProposal","inputs":[{"name":"proposalId","type":"uint256","internalType":"uint256"}]},{"type":"error","name":"GovernorDisabledDeposit","inputs":[]},{"type":"error","name":"GovernorInsufficientProposerVotes","inputs":[{"name":"proposer","type":"address","internalType":"address"},{"name":"votes","type":"uint256","internalType":"uint256"},{"name":"threshold","type":"uint256","internalType":"uint256"}]},{"type":"error","name":"GovernorInvalidProposalLength","inputs":[{"name":"targets","type":"uint256","internalType":"uint256"},{"name":"calldatas","type":"uint256","internalType":"uint256"},{"name":"values","type":"uint256","internalType":"uint256"}]},{"type":"error","name":"GovernorInvalidQuorumFraction","inputs":[{"name":"quorumNumerator","type":"uint256","internalType":"uint256"},{"name":"quorumDenominator","type":"uint256","internalType":"uint256"}]},{"type":"error","name":"GovernorInvalidSignature","inputs":[{"name":"voter","type":"address","internalType":"address"}]},{"type":"error","name":"GovernorInvalidVoteParams","inputs":[]},{"type":"error","name":"GovernorInvalidVoteType","inputs":[]},{"type":"error","name":"GovernorInvalidVotingPeriod","inputs":[{"name":"votingPeriod","type":"uint256","internalType":"uint256"}]},{"type":"error","name":"GovernorNonexistentProposal","inputs":[{"name":"proposalId","type":"uint256","internalType":"uint256"}]},{"type":"error","name":"GovernorNotQueuedProposal","inputs":[{"name":"proposalId","type":"uint256","internalType":"uint256"}]},{"type":"error","name":"GovernorOnlyExecutor","inputs":[{"name":"account","type":"address","internalType":"address"}]},{"type":"error","name":"GovernorQueueNotImplemented","inputs":[]},{"type":"error","name":"GovernorRestrictedProposer","inputs":[{"name":"proposer","type":"address","internalType":"address"}]},{"type":"error","name":"GovernorUnableToCancel","inputs":[{"name":"proposalId","type":"uint256","internalType":"uint256"},{"name":"account","type":"address","internalType":"address"}]},{"type":"error","name":"GovernorUnexpectedProposalState","inputs":[{"name":"proposalId","type":"uint256","internalType":"uint256"},{"name":"current","type":"uint8","internalType":"enum IGovernor.ProposalState"},{"name":"expectedStates","type":"bytes32","internalType":"bytes32"}]},{"type":"error","name":"InvalidAccountNonce","inputs":[{"name":"account","type":"address","internalType":"address"},{"name":"currentNonce","type":"uint256","internalType":"uint256"}]},{"type":"error","name":"InvalidShortString","inputs":[]},{"type":"error","name":"SafeCastOverflowedUintDowncast","inputs":[{"name":"bits","type":"uint8","internalType":"uint8"},{"name":"value","type":"uint256","internalType":"uint256"}]},{"type":"error","name":"StringTooLong","inputs":[{"name":"str","type":"string","internalType":"string"}]}],"bytecode":{"object":"0x610180604052348015610010575f5ffd5b50604051617d26380380617d2683398181016040528101906100329190610a61565b806004836040518060400160405280600a81526020017f4d79476f7665726e6f72000000000000000000000000000000000000000000008152508061007b61019260201b60201c565b61008e5f836101cf60201b90919060201c565b61012081815250506100aa6001826101cf60201b90919060201c565b6101408181525050818051906020012060e08181525050808051906020012061010081815250504660a081815250506100e761021c60201b60201c565b608081815250503073ffffffffffffffffffffffffffffffffffffffff1660c08173ffffffffffffffffffffffffffffffffffffffff1681525050505080600390816101339190610cdc565b50508073ffffffffffffffffffffffffffffffffffffffff166101608173ffffffffffffffffffffffffffffffffffffffff16815250505061017a8161027660201b60201c565b5061018a8161035060201b60201c565b50505061112b565b60606040518060400160405280600181526020017f3100000000000000000000000000000000000000000000000000000000000000815250905090565b5f6020835110156101f0576101e9836103ed60201b60201c565b9050610216565b826102008361045260201b60201c565b5f01908161020e9190610cdc565b5060ff5f1b90505b92915050565b5f7f8b73c3c69bb8fe3d512ecc4cf759cc79239f7b179b0ffacaa9a75d522b39400f60e05161010051463060405160200161025b959493929190610de1565b60405160208183030381529060405280519060200120905090565b5f61028561045b60201b60201c565b9050808211156102ce5781816040517f243e54450000000000000000000000000000000000000000000000000000000081526004016102c5929190610e32565b60405180910390fd5b5f6102dd61046360201b60201c565b90506103106102f061049560201b60201c565b6102ff8561052c60201b60201c565b600861059960201b9092919060201c565b50507f0553476bf02ef2726e8ce5ced78d63e26e602e4a2257b1f559418e24b46339978184604051610343929190610e32565b60405180910390a1505050565b7f08f74ea46ef7894f65eabfb5e6e695de773a000b47c529ab559178069b22640160095f9054906101000a900473ffffffffffffffffffffffffffffffffffffffff16826040516103a2929190610e59565b60405180910390a18060095f6101000a81548173ffffffffffffffffffffffffffffffffffffffff021916908373ffffffffffffffffffffffffffffffffffffffff16021790555050565b5f5f829050601f8151111561043957826040517f305a27a90000000000000000000000000000000000000000000000000000000081526004016104309190610ee6565b60405180910390fd5b80518161044590610f33565b5f1c175f1b915050919050565b5f819050919050565b5f6064905090565b5f61047460086105ba60201b60201c565b79ffffffffffffffffffffffffffffffffffffffffffffffffffff16905090565b5f6104a461062260201b60201c565b73ffffffffffffffffffffffffffffffffffffffff166391ddadf46040518163ffffffff1660e01b8152600401602060405180830381865afa92505050801561050b57506040513d601f19601f820116820180604052508101906105089190610fd4565b60015b6105245761051d61062c60201b60201c565b9050610529565b809150505b90565b5f79ffffffffffffffffffffffffffffffffffffffffffffffffffff80168211156105915760d0826040517f6dfcc650000000000000000000000000000000000000000000000000000000008152600401610588929190611044565b60405180910390fd5b819050919050565b5f5f6105ae855f01858561064160201b60201c565b91509150935093915050565b5f5f825f018054905090505f8114610618576105ea835f016001836105df9190611098565b61093b60201b60201c565b5f0160069054906101000a900479ffffffffffffffffffffffffffffffffffffffffffffffffffff1661061a565b5f5b915050919050565b5f61016051905090565b5f61063c4361094d60201b60201c565b905090565b5f5f5f858054905090505f811115610853575f610670876001846106659190611098565b61093b60201b60201c565b90505f815f015f9054906101000a900465ffffffffffff1690505f825f0160069054906101000a900479ffffffffffffffffffffffffffffffffffffffffffffffffffff1690508765ffffffffffff168265ffffffffffff161115610701576040517f2520601d00000000000000000000000000000000000000000000000000000000815260040160405180910390fd5b8765ffffffffffff168265ffffffffffff160361076b5786835f0160066101000a81548179ffffffffffffffffffffffffffffffffffffffffffffffffffff021916908379ffffffffffffffffffffffffffffffffffffffffffffffffffff160217905550610844565b8860405180604001604052808a65ffffffffffff1681526020018979ffffffffffffffffffffffffffffffffffffffffffffffffffff16815250908060018154018082558091505060019003905f5260205f20015f909190919091505f820151815f015f6101000a81548165ffffffffffff021916908365ffffffffffff1602179055506020820151815f0160066101000a81548179ffffffffffffffffffffffffffffffffffffffffffffffffffff021916908379ffffffffffffffffffffffffffffffffffffffffffffffffffff16021790555050505b80879550955050505050610933565b8560405180604001604052808765ffffffffffff1681526020018679ffffffffffffffffffffffffffffffffffffffffffffffffffff16815250908060018154018082558091505060019003905f5260205f20015f909190919091505f820151815f015f6101000a81548165ffffffffffff021916908365ffffffffffff1602179055506020820151815f0160066101000a81548179ffffffffffffffffffffffffffffffffffffffffffffffffffff021916908379ffffffffffffffffffffffffffffffffffffffffffffffffffff16021790555050505f8492509250505b935093915050565b5f825f528160205f2001905092915050565b5f65ffffffffffff801682111561099e576030826040517f6dfcc650000000000000000000000000000000000000000000000000000000008152600401610995929190611104565b60405180910390fd5b819050919050565b5f5ffd5b5f73ffffffffffffffffffffffffffffffffffffffff82169050919050565b5f6109d3826109aa565b9050919050565b5f6109e4826109c9565b9050919050565b6109f4816109da565b81146109fe575f5ffd5b50565b5f81519050610a0f816109eb565b92915050565b5f610a1f826109aa565b9050919050565b5f610a3082610a15565b9050919050565b610a4081610a26565b8114610a4a575f5ffd5b50565b5f81519050610a5b81610a37565b92915050565b5f5f60408385031215610a7757610a766109a6565b5b5f610a8485828601610a01565b9250506020610a9585828601610a4d565b9150509250929050565b5f81519050919050565b7f4e487b71000000000000000000000000000000000000000000000000000000005f52604160045260245ffd5b7f4e487b71000000000000000000000000000000000000000000000000000000005f52602260045260245ffd5b5f6002820490506001821680610b1a57607f821691505b602082108103610b2d57610b2c610ad6565b5b50919050565b5f819050815f5260205f209050919050565b5f6020601f8301049050919050565b5f82821b905092915050565b5f60088302610b8f7fffffffffffffffffffffffffffffffffffffffffffffffffffffffffffffffff82610b54565b610b998683610b54565b95508019841693508086168417925050509392505050565b5f819050919050565b5f819050919050565b5f610bdd610bd8610bd384610bb1565b610bba565b610bb1565b9050919050565b5f819050919050565b610bf683610bc3565b610c0a610c0282610be4565b848454610b60565b825550505050565b5f5f905090565b610c21610c12565b610c2c818484610bed565b505050565b5b81811015610c4f57610c445f82610c19565b600181019050610c32565b5050565b601f821115610c9457610c6581610b33565b610c6e84610b45565b81016020851015610c7d578190505b610c91610c8985610b45565b830182610c31565b50505b505050565b5f82821c905092915050565b5f610cb45f1984600802610c99565b1980831691505092915050565b5f610ccc8383610ca5565b9150826002028217905092915050565b610ce582610a9f565b67ffffffffffffffff811115610cfe57610cfd610aa9565b5b610d088254610b03565b610d13828285610c53565b5f60209050601f831160018114610d44575f8415610d32578287015190505b610d3c8582610cc1565b865550610da3565b601f198416610d5286610b33565b5f5b82811015610d7957848901518255600182019150602085019450602081019050610d54565b86831015610d965784890151610d92601f891682610ca5565b8355505b6001600288020188555050505b505050505050565b5f819050919050565b610dbd81610dab565b82525050565b610dcc81610bb1565b82525050565b610ddb816109c9565b82525050565b5f60a082019050610df45f830188610db4565b610e016020830187610db4565b610e0e6040830186610db4565b610e1b6060830185610dc3565b610e286080830184610dd2565b9695505050505050565b5f604082019050610e455f830185610dc3565b610e526020830184610dc3565b9392505050565b5f604082019050610e6c5f830185610dd2565b610e796020830184610dd2565b9392505050565b5f82825260208201905092915050565b8281835e5f83830152505050565b5f601f19601f8301169050919050565b5f610eb882610a9f565b610ec28185610e80565b9350610ed2818560208601610e90565b610edb81610e9e565b840191505092915050565b5f6020820190508181035f830152610efe8184610eae565b905092915050565b5f81519050919050565b5f819050602082019050919050565b5f610f2a8251610dab565b80915050919050565b5f610f3d82610f06565b82610f4784610f10565b9050610f5281610f1f565b92506020821015610f9257610f8d7fffffffffffffffffffffffffffffffffffffffffffffffffffffffffffffffff83602003600802610b54565b831692505b5050919050565b5f65ffffffffffff82169050919050565b610fb381610f99565b8114610fbd575f5ffd5b50565b5f81519050610fce81610faa565b92915050565b5f60208284031215610fe957610fe86109a6565b5b5f610ff684828501610fc0565b91505092915050565b5f819050919050565b5f60ff82169050919050565b5f61102e61102961102484610fff565b610bba565b611008565b9050919050565b61103e81611014565b82525050565b5f6040820190506110575f830185611035565b6110646020830184610dc3565b9392505050565b7f4e487b71000000000000000000000000000000000000000000000000000000005f52601160045260245ffd5b5f6110a282610bb1565b91506110ad83610bb1565b92508282039050818111156110c5576110c461106b565b5b92915050565b5f819050919050565b5f6110ee6110e96110e4846110cb565b610bba565b611008565b9050919050565b6110fe816110d4565b82525050565b5f6040820190506111175f8301856110f5565b6111246020830184610dc3565b9392505050565b60805160a05160c05160e05161010051610120516101405161016051616ba06111865f395f611d9901525f6129d701525f61299c01525f6146c701525f6146a601525f61411f01525f61417501525f61419e0152616ba05ff3fe608060405260043610610280575f3560e01c80637ecebe001161014e578063b58131b0116100c0578063dd4e2ba511610079578063dd4e2ba514610b33578063deaaa7cc14610b5d578063eb9019d414610b87578063f23a6e6114610bc3578063f8ce560a14610bff578063fc0c546a14610c3b576102f3565b8063b58131b014610a0f578063bc197c8114610a39578063c01f9e3714610a75578063c28bc2fa14610ab1578063c59057e414610acd578063d33219b414610b09576102f3565b80639a802a6d116101125780639a802a6d146108cd578063a7713a7014610909578063a890c91014610933578063a8f8a6681461095b578063a9a9529414610997578063ab58fb8e146109d3576102f3565b80637ecebe00146107d157806384b0196e1461080d5780638ff262e31461083d57806391ddadf41461087957806397c3d334146108a3576102f3565b80633e4f49e6116101f257806356781388116101ab57806356781388146106695780635b8d0e0d146106a55780635f398a14146106e157806360c4247f1461071d5780637b3c71d3146107595780637d5e81e214610795576102f3565b80633e4f49e614610523578063438596321461055f578063452115d61461059b5780634bf5d7e9146105d7578063544ffc9c1461060157806354fd4d501461063f576102f3565b8063150b7a0211610244578063150b7a02146103eb578063160cbed7146104275780632656227d146104635780632d63f693146104935780632fe3e261146104cf5780633932abb1146104f9576102f3565b806301ffc9a7146102f757806302a251a31461033357806306f3f9e61461035d57806306fdde0314610385578063143489d0146103af576102f3565b366102f3573073ffffffffffffffffffffffffffffffffffffffff166102a4610c65565b73ffffffffffffffffffffffffffffffffffffffff16146102f1576040517fe90a651e00000000000000000000000000000000000000000000000000000000815260040160405180910390fd5b005b5f5ffd5b348015610302575f5ffd5b5061031d60048036038101906103189190614963565b610c73565b60405161032a91906149a8565b60405180910390f35b34801561033e575f5ffd5b50610347610dc5565b60405161035491906149d9565b60405180910390f35b348015610368575f5ffd5b50610383600480360381019061037e9190614a1c565b610dce565b005b348015610390575f5ffd5b50610399610de2565b6040516103a69190614ab7565b60405180910390f35b3480156103ba575f5ffd5b506103d560048036038101906103d09190614a1c565b610e72565b6040516103e29190614b16565b60405180910390f35b3480156103f6575f5ffd5b50610411600480360381019061040c9190614c85565b610ead565b60405161041e9190614d14565b60405180910390f35b348015610432575f5ffd5b5061044d60048036038101906104489190614fc2565b610f2c565b60405161045a91906149d9565b60405180910390f35b61047d60048036038101906104789190614fc2565b611022565b60405161048a91906149d9565b60405180910390f35b34801561049e575f5ffd5b506104b960048036038101906104b49190614a1c565b6111ff565b6040516104c691906149d9565b60405180910390f35b3480156104da575f5ffd5b506104e3611235565b6040516104f09190615089565b60405180910390f35b348015610504575f5ffd5b5061050d611259565b60405161051a91906149d9565b60405180910390f35b34801561052e575f5ffd5b5061054960048036038101906105449190614a1c565b611262565b6040516105569190615115565b60405180910390f35b34801561056a575f5ffd5b506105856004803603810190610580919061512e565b611273565b60405161059291906149a8565b60405180910390f35b3480156105a6575f5ffd5b506105c160048036038101906105bc9190614fc2565b6112d8565b6040516105ce91906149d9565b60405180910390f35b3480156105e2575f5ffd5b506105eb611358565b6040516105f89190614ab7565b60405180910390f35b34801561060c575f5ffd5b5061062760048036038101906106229190614a1c565b611415565b6040516106369392919061516c565b60405180910390f35b34801561064a575f5ffd5b50610653611448565b6040516106609190614ab7565b60405180910390f35b348015610674575f5ffd5b5061068f600480360381019061068a91906151d7565b611485565b60405161069c91906149d9565b60405180910390f35b3480156106b0575f5ffd5b506106cb60048036038101906106c6919061526e565b6114b4565b6040516106d891906149d9565b60405180910390f35b3480156106ec575f5ffd5b5061070760048036038101906107029190615350565b6115a4565b60405161071491906149d9565b60405180910390f35b348015610728575f5ffd5b50610743600480360381019061073e9190614a1c565b61160c565b60405161075091906149d9565b60405180910390f35b348015610764575f5ffd5b5061077f600480360381019061077a91906153f0565b61161f565b60405161078c91906149d9565b60405180910390f35b3480156107a0575f5ffd5b506107bb60048036038101906107b691906154ff565b611685565b6040516107c891906149d9565b60405180910390f35b3480156107dc575f5ffd5b506107f760048036038101906107f291906155d3565b61177b565b60405161080491906149d9565b60405180910390f35b348015610818575f5ffd5b506108216117c1565b60405161083497969594939291906156ef565b60405180910390f35b348015610848575f5ffd5b50610863600480360381019061085e9190615771565b611866565b60405161087091906149d9565b60405180910390f35b348015610884575f5ffd5b5061088d6118d8565b60405161089a9190615811565b60405180910390f35b3480156108ae575f5ffd5b506108b7611963565b6040516108c491906149d9565b60405180910390f35b3480156108d8575f5ffd5b506108f360048036038101906108ee919061582a565b61196b565b60405161090091906149d9565b60405180910390f35b348015610914575f5ffd5b5061091d611980565b60405161092a91906149d9565b60405180910390f35b34801561093e575f5ffd5b50610959600480360381019061095491906158e2565b6119ac565b005b348015610966575f5ffd5b50610981600480360381019061097c9190614fc2565b6119c0565b60405161098e91906149d9565b60405180910390f35b3480156109a2575f5ffd5b506109bd60048036038101906109b89190614a1c565b6119d7565b6040516109ca91906149a8565b60405180910390f35b3480156109de575f5ffd5b506109f960048036038101906109f49190614a1c565b6119e8565b604051610a0691906149d9565b60405180910390f35b348015610a1a575f5ffd5b50610a23611a1e565b604051610a3091906149d9565b60405180910390f35b348015610a44575f5ffd5b50610a5f6004803603810190610a5a919061590d565b611a25565b604051610a6c9190614d14565b60405180910390f35b348015610a80575f5ffd5b50610a9b6004803603810190610a969190614a1c565b611aa5565b604051610aa891906149d9565b60405180910390f35b610acb6004803603810190610ac69190615a2d565b611b0f565b005b348015610ad8575f5ffd5b50610af36004803603810190610aee9190614fc2565b611b98565b604051610b0091906149d9565b60405180910390f35b348015610b14575f5ffd5b50610b1d611bd2565b604051610b2a9190614b16565b60405180910390f35b348015610b3e575f5ffd5b50610b47611bfa565b604051610b549190614ab7565b60405180910390f35b348015610b68575f5ffd5b50610b71611c37565b604051610b7e9190615089565b60405180910390f35b348015610b92575f5ffd5b50610bad6004803603810190610ba89190615a9e565b611c5b565b604051610bba91906149d9565b60405180910390f35b348015610bce575f5ffd5b50610be96004803603810190610be49190615adc565b611c76565b604051610bf69190614d14565b60405180910390f35b348015610c0a575f5ffd5b50610c256004803603810190610c209190614a1c565b611cf6565b604051610c3291906149d9565b60405180910390f35b348015610c46575f5ffd5b50610c4f611d96565b604051610c5c9190615bca565b60405180910390f35b5f610c6e611dbd565b905090565b5f7fcdbdfcee000000000000000000000000000000000000000000000000000000007bffffffffffffffffffffffffffffffffffffffffffffffffffffffff1916827bffffffffffffffffffffffffffffffffffffffffffffffffffffffff19161480610d46575063a8f8a66860e01b7fcdbdfcee00000000000000000000000000000000000000000000000000000000187bffffffffffffffffffffffffffffffffffffffffffffffffffffffff1916827bffffffffffffffffffffffffffffffffffffffffffffffffffffffff1916145b80610dae57507f4e2312e0000000000000000000000000000000000000000000000000000000007bffffffffffffffffffffffffffffffffffffffffffffffffffffffff1916827bffffffffffffffffffffffffffffffffffffffffffffffffffffffff1916145b80610dbe5750610dbd82611de5565b5b9050919050565b5f61c4e0905090565b610dd6611e4e565b610ddf81611f43565b50565b606060038054610df190615c10565b80601f0160208091040260200160405190810160405280929190818152602001828054610e1d90615c10565b8015610e685780601f10610e3f57610100808354040283529160200191610e68565b820191905f5260205f20905b815481529060010190602001808311610e4b57829003601f168201915b5050505050905090565b5f60045f8381526020019081526020015f205f015f9054906101000a900473ffffffffffffffffffffffffffffffffffffffff169050919050565b5f3073ffffffffffffffffffffffffffffffffffffffff16610ecd610c65565b73ffffffffffffffffffffffffffffffffffffffff1614610f1a576040517fe90a651e00000000000000000000000000000000000000000000000000000000815260040160405180910390fd5b63150b7a0260e01b9050949350505050565b5f5f610f3a868686866119c0565b9050610f4f81610f4a6004612005565b612029565b505f610f5e8288888888612094565b90505f8165ffffffffffff1614610fe3578060045f8481526020019081526020015f206001015f6101000a81548165ffffffffffff021916908365ffffffffffff1602179055507f9a2e42fd6722813d69113e7d0079d3d940171428df7373df9c7f7617cfda28928282604051610fd6929190615c70565b60405180910390a1611015565b6040517f90884a4600000000000000000000000000000000000000000000000000000000815260040160405180910390fd5b8192505050949350505050565b5f5f611030868686866119c0565b9050611050816110406005612005565b61104a6004612005565b17612029565b50600160045f8381526020019081526020015f205f01601e6101000a81548160ff0219169083151502179055503073ffffffffffffffffffffffffffffffffffffffff1661109c610c65565b73ffffffffffffffffffffffffffffffffffffffff1614611155575f5f90505b8651811015611153573073ffffffffffffffffffffffffffffffffffffffff168782815181106110ef576110ee615c97565b5b602002602001015173ffffffffffffffffffffffffffffffffffffffff16036111485761114785828151811061112857611127615c97565b5b60200260200101518051906020012060056120ad90919063ffffffff16565b5b8060010190506110bc565b505b61116281878787876120cf565b3073ffffffffffffffffffffffffffffffffffffffff16611181610c65565b73ffffffffffffffffffffffffffffffffffffffff16141580156111ac57506111aa60056120e3565b155b156111bc576111bb600561214f565b5b7f712ae1383f79ac853f8d882153778e0260ef8f03b504e2866e0593e04d2b291f816040516111eb91906149d9565b60405180910390a180915050949350505050565b5f60045f8381526020019081526020015f205f0160149054906101000a900465ffffffffffff1665ffffffffffff169050919050565b7f3e83946653575f9a39005e1545185629e92736b7528ab20ca3816f315424a81181565b5f611c20905090565b5f61126c826121c5565b9050919050565b5f60075f8481526020019081526020015f206003015f8373ffffffffffffffffffffffffffffffffffffffff1673ffffffffffffffffffffffffffffffffffffffff1681526020019081526020015f205f9054906101000a900460ff16905092915050565b5f5f6112e6868686866119c0565b90505f6112f161237a565b90506112fd8282612381565b6113405781816040517f8fe5d8a9000000000000000000000000000000000000000000000000000000008152600401611337929190615cc4565b60405180910390fd5b61134c878787876123f8565b92505050949350505050565b6060611362611d96565b73ffffffffffffffffffffffffffffffffffffffff16634bf5d7e96040518163ffffffff1660e01b81526004015f60405180830381865afa9250505080156113cc57506040513d5f823e3d601f19601f820116820180604052508101906113c99190615d59565b60015b61140d576040518060400160405280601d81526020017f6d6f64653d626c6f636b6e756d6265722666726f6d3d64656661756c740000008152509050611412565b809150505b90565b5f5f5f5f60075f8681526020019081526020015f209050805f015481600101548260020154935093509350509193909250565b60606040518060400160405280600181526020017f3100000000000000000000000000000000000000000000000000000000000000815250905090565b5f5f61148f61237a565b90506114ab84828560405180602001604052805f81525061240f565b91505092915050565b5f61150688888888888080601f0160208091040260200160405190810160405280939291908181526020018383808284375f81840152601f19601f82011690508083019250505050505050878761242e565b61154757856040517f94ab6c0700000000000000000000000000000000000000000000000000000000815260040161153e9190614b16565b60405180910390fd5b61159788878988888080601f0160208091040260200160405190810160405280939291908181526020018383808284375f81840152601f19601f82011690508083019250505050505050876124b6565b9050979650505050505050565b5f5f6115ae61237a565b905061160087828888888080601f0160208091040260200160405190810160405280939291908181526020018383808284375f81840152601f19601f82011690508083019250505050505050876124b6565b91505095945050505050565b5f6116186008836125c0565b9050919050565b5f5f61162961237a565b905061167a86828787878080601f0160208091040260200160405190810160405280939291908181526020018383808284375f81840152601f19601f8201169050808301925050505050505061240f565b915050949350505050565b5f5f61168f61237a565b905061169b8184612629565b6116dc57806040517fd9b395570000000000000000000000000000000000000000000000000000000081526004016116d39190614b16565b60405180910390fd5b5f6116e5611a1e565b90505f811115611762575f6117158360016116fe6118d8565b6117089190615dcd565b65ffffffffffff16611c5b565b905081811015611760578281836040517fc242ee1600000000000000000000000000000000000000000000000000000000815260040161175793929190615e06565b60405180910390fd5b505b61176f878787878661270f565b92505050949350505050565b5f60025f8373ffffffffffffffffffffffffffffffffffffffff1673ffffffffffffffffffffffffffffffffffffffff1681526020019081526020015f20549050919050565b5f6060805f5f5f60606117d2612994565b6117da6129ce565b46305f5f1b5f67ffffffffffffffff8111156117f9576117f8614b61565b5b6040519080825280602002602001820160405280156118275781602001602082028036833780820191505090505b507f0f00000000000000000000000000000000000000000000000000000000000000959493929190965096509650965096509650965090919293949596565b5f61187385858585612a09565b6118b457826040517f94ab6c070000000000000000000000000000000000000000000000000000000081526004016118ab9190614b16565b60405180910390fd5b6118ce85848660405180602001604052805f81525061240f565b9050949350505050565b5f6118e1611d96565b73ffffffffffffffffffffffffffffffffffffffff166391ddadf46040518163ffffffff1660e01b8152600401602060405180830381865afa92505050801561194857506040513d601f19601f820116820180604052508101906119459190615e65565b60015b61195b57611954612a7d565b9050611960565b809150505b90565b5f6064905090565b5f611977848484612a8c565b90509392505050565b5f61198b6008612b17565b79ffffffffffffffffffffffffffffffffffffffffffffffffffff16905090565b6119b4611e4e565b6119bd81612b79565b50565b5f6119cd85858585611b98565b9050949350505050565b5f6119e182612c16565b9050919050565b5f60045f8381526020019081526020015f206001015f9054906101000a900465ffffffffffff1665ffffffffffff169050919050565b5f5f905090565b5f3073ffffffffffffffffffffffffffffffffffffffff16611a45610c65565b73ffffffffffffffffffffffffffffffffffffffff1614611a92576040517fe90a651e00000000000000000000000000000000000000000000000000000000815260040160405180910390fd5b63bc197c8160e01b905095945050505050565b5f60045f8381526020019081526020015f205f01601a9054906101000a900463ffffffff1663ffffffff1660045f8481526020019081526020015f205f0160149054906101000a900465ffffffffffff16611b009190615e90565b65ffffffffffff169050919050565b611b17611e4e565b5f5f8573ffffffffffffffffffffffffffffffffffffffff16858585604051611b41929190615ef7565b5f6040518083038185875af1925050503d805f8114611b7b576040519150601f19603f3d011682016040523d82523d5f602084013e611b80565b606091505b5091509150611b8f8282612c20565b50505050505050565b5f84848484604051602001611bb094939291906160d3565b604051602081830303815290604052805190602001205f1c9050949350505050565b5f60095f9054906101000a900473ffffffffffffffffffffffffffffffffffffffff16905090565b60606040518060400160405280602081526020017f737570706f72743d627261766f2671756f72756d3d666f722c6162737461696e815250905090565b7ff2aad550cf55f045cb27e9c559f9889fdfb6e6cdaa032301d6ea397784ae51d781565b5f611c6e8383611c69612c80565b612a8c565b905092915050565b5f3073ffffffffffffffffffffffffffffffffffffffff16611c96610c65565b73ffffffffffffffffffffffffffffffffffffffff1614611ce3576040517fe90a651e00000000000000000000000000000000000000000000000000000000815260040160405180910390fd5b63f23a6e6160e01b905095945050505050565b5f611d8f611d02611d96565b73ffffffffffffffffffffffffffffffffffffffff16638e539e8c846040518263ffffffff1660e01b8152600401611d3a91906149d9565b602060405180830381865afa158015611d55573d5f5f3e3d5ffd5b505050506040513d601f19601f82011682018060405250810190611d79919061613f565b611d828461160c565b611d8a611963565b612c96565b9050919050565b5f7f0000000000000000000000000000000000000000000000000000000000000000905090565b5f60095f9054906101000a900473ffffffffffffffffffffffffffffffffffffffff16905090565b5f7f01ffc9a7000000000000000000000000000000000000000000000000000000007bffffffffffffffffffffffffffffffffffffffffffffffffffffffff1916827bffffffffffffffffffffffffffffffffffffffffffffffffffffffff1916149050919050565b611e5661237a565b73ffffffffffffffffffffffffffffffffffffffff16611e74610c65565b73ffffffffffffffffffffffffffffffffffffffff1614611ed357611e9761237a565b6040517f47096e47000000000000000000000000000000000000000000000000000000008152600401611eca9190614b16565b60405180910390fd5b3073ffffffffffffffffffffffffffffffffffffffff16611ef2610c65565b73ffffffffffffffffffffffffffffffffffffffff1614611f41575f611f16612d75565b604051611f24929190615ef7565b604051809103902090505b80611f3a6005612d81565b03611f2f57505b565b5f611f4c611963565b905080821115611f955781816040517f243e5445000000000000000000000000000000000000000000000000000000008152600401611f8c92919061616a565b60405180910390fd5b5f611f9e611980565b9050611fc5611fab6118d8565b611fb485612dab565b6008612e189092919063ffffffff16565b50507f0553476bf02ef2726e8ce5ced78d63e26e602e4a2257b1f559418e24b46339978184604051611ff892919061616a565b60405180910390a1505050565b5f816007811115612019576120186150a2565b5b60ff166001901b5f1b9050919050565b5f5f61203484611262565b90505f5f1b8361204383612005565b160361208a578381846040517f31b75e4d00000000000000000000000000000000000000000000000000000000815260040161208193929190616191565b60405180910390fd5b8091505092915050565b5f6120a28686868686612e33565b905095945050505050565b5f6120b88383613039565b9050806120ca576120c96041613137565b5b505050565b6120dc8585858585613148565b5050505050565b5f815f015f9054906101000a90046fffffffffffffffffffffffffffffffff166fffffffffffffffffffffffffffffffff16825f0160109054906101000a90046fffffffffffffffffffffffffffffffff166fffffffffffffffffffffffffffffffff16149050919050565b5f815f015f6101000a8154816fffffffffffffffffffffffffffffffff02191690836fffffffffffffffffffffffffffffffff1602179055505f815f0160106101000a8154816fffffffffffffffffffffffffffffffff02191690836fffffffffffffffffffffffffffffffff16021790555050565b5f5f6121d0836131fc565b9050600560078111156121e6576121e56150a2565b5b8160078111156121f9576121f86150a2565b5b146122075780915050612375565b5f600a5f8581526020019081526020015f2054905060095f9054906101000a900473ffffffffffffffffffffffffffffffffffffffff1673ffffffffffffffffffffffffffffffffffffffff1663584b153e826040518263ffffffff1660e01b81526004016122769190615089565b602060405180830381865afa158015612291573d5f5f3e3d5ffd5b505050506040513d601f19601f820116820180604052508101906122b591906161f0565b156122c557600592505050612375565b60095f9054906101000a900473ffffffffffffffffffffffffffffffffffffffff1673ffffffffffffffffffffffffffffffffffffffff16632ab0f529826040518263ffffffff1660e01b815260040161231f9190615089565b602060405180830381865afa15801561233a573d5f5f3e3d5ffd5b505050506040513d601f19601f8201168201806040525081019061235e91906161f0565b1561236e57600792505050612375565b6002925050505b919050565b5f33905090565b5f5f6007811115612395576123946150a2565b5b61239e84611262565b60078111156123b0576123af6150a2565b5b1480156123f057506123c183610e72565b73ffffffffffffffffffffffffffffffffffffffff168273ffffffffffffffffffffffffffffffffffffffff16145b905092915050565b5f61240585858585613353565b9050949350505050565b5f6124248585858561241f612c80565b6124b6565b9050949350505050565b5f6124aa856124a47f3e83946653575f9a39005e1545185629e92736b7528ab20ca3816f315424a8118a8a8a6124638c61342a565b8b805190602001208b80519060200120604051602001612489979695949392919061622a565b6040516020818303038152906040528051906020012061347d565b84613496565b90509695505050505050565b5f6124ca866124c56001612005565b612029565b505f6124df866124d9896111ff565b85612a8c565b90505f6124ef8888888588613542565b90505f845103612552578673ffffffffffffffffffffffffffffffffffffffff167fb8e138887d0aa13bab447e82de9d5c1777041ecd21ca36ba824ff1e6c07ddda4898884896040516125459493929190616297565b60405180910390a26125a9565b8673ffffffffffffffffffffffffffffffffffffffff167fe2babfbac5889a709b63bb7f598b324e08bc5a4fb9ec647fb3cbc9ec07eb871289888489896040516125a0959493929190616329565b60405180910390a25b6125b288613737565b809250505095945050505050565b5f5f5f6125cc8561373a565b9250925050838265ffffffffffff161115612601576125fc6125ed856137c9565b8661382290919063ffffffff16565b612603565b805b79ffffffffffffffffffffffffffffffffffffffffffffffffffff169250505092915050565b5f5f825190506034811015612642576001915050612709565b5f6126508460348403613912565b90507f2370726f706f7365723d0000000000000000000000000000000000000000000075ffffffffffffffffffffffffffffffffffffffffffff19168175ffffffffffffffffffffffffffffffffffffffffffff1916146126b657600192505050612709565b5f5f6126c686602a860386613922565b9150915081158061270257508673ffffffffffffffffffffffffffffffffffffffff168173ffffffffffffffffffffffffffffffffffffffff16145b9450505050505b92915050565b5f61272386868686805190602001206119c0565b90508451865114158061273857508351865114155b8061274357505f8651145b1561278c578551845186516040517f447b05d00000000000000000000000000000000000000000000000000000000081526004016127839392919061516c565b60405180910390fd5b5f60045f8381526020019081526020015f205f0160149054906101000a900465ffffffffffff1665ffffffffffff161461280b57806127ca82611262565b5f5f1b6040517f31b75e4d00000000000000000000000000000000000000000000000000000000815260040161280293929190616191565b60405180910390fd5b5f612814611259565b61281c6118d8565b65ffffffffffff1661282e9190616388565b90505f612839610dc5565b90505f60045f8581526020019081526020015f20905084815f015f6101000a81548173ffffffffffffffffffffffffffffffffffffffff021916908373ffffffffffffffffffffffffffffffffffffffff160217905550612899836137c9565b815f0160146101000a81548165ffffffffffff021916908365ffffffffffff1602179055506128c782613a33565b815f01601a6101000a81548163ffffffff021916908363ffffffff1602179055507f7d84a6263ae0d98d3329bd7b46bb4e8d6f98cd35a7adb45c274c8b7fd5ebd5e084868b8b8d5167ffffffffffffffff81111561292857612927614b61565b5b60405190808252806020026020018201604052801561295b57816020015b60608152602001906001900390816129465790505b508c89898b61296a9190616388565b8e604051612980999897969594939291906164be565b60405180910390a150505095945050505050565b60606129c95f7f0000000000000000000000000000000000000000000000000000000000000000613a8a90919063ffffffff16565b905090565b6060612a0460017f0000000000000000000000000000000000000000000000000000000000000000613a8a90919063ffffffff16565b905090565b5f612a7383612a6d7ff2aad550cf55f045cb27e9c559f9889fdfb6e6cdaa032301d6ea397784ae51d7888888612a3e8a61342a565b604051602001612a5295949392919061656c565b6040516020818303038152906040528051906020012061347d565b84613496565b9050949350505050565b5f612a87436137c9565b905090565b5f612a95611d96565b73ffffffffffffffffffffffffffffffffffffffff16633a46b1a885856040518363ffffffff1660e01b8152600401612acf9291906165bd565b602060405180830381865afa158015612aea573d5f5f3e3d5ffd5b505050506040513d601f19601f82011682018060405250810190612b0e919061613f565b90509392505050565b5f5f825f018054905090505f8114612b6f57612b41835f01600183612b3c91906165e4565b613b37565b5f0160069054906101000a900479ffffffffffffffffffffffffffffffffffffffffffffffffffff16612b71565b5f5b915050919050565b7f08f74ea46ef7894f65eabfb5e6e695de773a000b47c529ab559178069b22640160095f9054906101000a900473ffffffffffffffffffffffffffffffffffffffff1682604051612bcb929190616617565b60405180910390a18060095f6101000a81548173ffffffffffffffffffffffffffffffffffffffff021916908373ffffffffffffffffffffffffffffffffffffffff16021790555050565b5f60019050919050565b60608215612c3057819050612c7a565b5f82511115612c4757612c4282613b49565b612c79565b6040517fd6bda27500000000000000000000000000000000000000000000000000000000815260040160405180910390fd5b5b92915050565b606060405180602001604052805f815250905090565b5f5f5f612ca38686613b51565b915091505f8203612cc857838181612cbe57612cbd61663e565b5b0492505050612d6e565b818411612ce757612ce6612ce15f861460126011613b6e565b613137565b5b5f8486880990508181118303925080820391505f855f038616905080860495508083049250600181825f0304019050808402831792505f600287600302189050808702600203810290508087026002038102905080870260020381029050808702600203810290508087026002038102905080870260020381029050808402955050505050505b9392505050565b365f5f36915091509091565b5f5f5f612d8d84613b87565b9150915081612da157612da06031613137565b5b8092505050919050565b5f79ffffffffffffffffffffffffffffffffffffffffffffffffffff8016821115612e105760d0826040517f6dfcc650000000000000000000000000000000000000000000000000000000008152600401612e079291906166a4565b60405180910390fd5b819050919050565b5f5f612e27855f018585613cbe565b91509150935093915050565b5f5f60095f9054906101000a900473ffffffffffffffffffffffffffffffffffffffff1673ffffffffffffffffffffffffffffffffffffffff1663f27a0c926040518163ffffffff1660e01b8152600401602060405180830381865afa158015612e9f573d5f5f3e3d5ffd5b505050506040513d601f19601f82011682018060405250810190612ec3919061613f565b90505f612ecf84613fb2565b905060095f9054906101000a900473ffffffffffffffffffffffffffffffffffffffff1673ffffffffffffffffffffffffffffffffffffffff1663b1c5f4278888885f866040518663ffffffff1660e01b8152600401612f3395949392919061670f565b602060405180830381865afa158015612f4e573d5f5f3e3d5ffd5b505050506040513d601f19601f82011682018060405250810190612f729190616789565b600a5f8a81526020019081526020015f208190555060095f9054906101000a900473ffffffffffffffffffffffffffffffffffffffff1673ffffffffffffffffffffffffffffffffffffffff16638f2a0bb08888885f86886040518763ffffffff1660e01b8152600401612feb969594939291906167b4565b5f604051808303815f87803b158015613002575f5ffd5b505af1158015613014573d5f5f3e3d5ffd5b5050505061302c82426130279190616388565b6137c9565b9250505095945050505050565b5f5f835f0160109054906101000a90046fffffffffffffffffffffffffffffffff169050835f015f9054906101000a90046fffffffffffffffffffffffffffffffff166fffffffffffffffffffffffffffffffff16600182016fffffffffffffffffffffffffffffffff16036130b2575f915050613131565b82846001015f836fffffffffffffffffffffffffffffffff166fffffffffffffffffffffffffffffffff1681526020019081526020015f208190555060018101845f0160106101000a8154816fffffffffffffffffffffffffffffffff02191690836fffffffffffffffffffffffffffffffff16021790555060019150505b92915050565b634e487b715f52806020526024601cfd5b60095f9054906101000a900473ffffffffffffffffffffffffffffffffffffffff1673ffffffffffffffffffffffffffffffffffffffff1663e38335e5348686865f61319388613fb2565b6040518763ffffffff1660e01b81526004016131b395949392919061670f565b5f604051808303818588803b1580156131ca575f5ffd5b505af11580156131dc573d5f5f3e3d5ffd5b5050505050600a5f8681526020019081526020015f205f90555050505050565b5f5f60045f8481526020019081526020015f2090505f815f01601e9054906101000a900460ff1690505f825f01601f9054906101000a900460ff169050811561324b576007935050505061334e565b801561325d576002935050505061334e565b5f613267866111ff565b90505f81036132ad57856040517f6ad060750000000000000000000000000000000000000000000000000000000081526004016132a491906149d9565b60405180910390fd5b5f6132b66118d8565b65ffffffffffff1690508082106132d4575f9550505050505061334e565b5f6132de88611aa5565b90508181106132f6576001965050505050505061334e565b6132ff88613fcf565b1580613311575061330f88614013565b155b15613325576003965050505050505061334e565b5f61332f896119e8565b03613343576004965050505050505061334e565b600596505050505050505b919050565b5f5f6133618686868661403a565b90505f600a5f8381526020019081526020015f205490505f5f1b811461341d5760095f9054906101000a900473ffffffffffffffffffffffffffffffffffffffff1673ffffffffffffffffffffffffffffffffffffffff1663c4d252f5826040518263ffffffff1660e01b81526004016133db9190615089565b5f604051808303815f87803b1580156133f2575f5ffd5b505af1158015613404573d5f5f3e3d5ffd5b50505050600a5f8381526020019081526020015f205f90555b8192505050949350505050565b5f60025f8373ffffffffffffffffffffffffffffffffffffffff1673ffffffffffffffffffffffffffffffffffffffff1681526020019081526020015f205f815480929190600101919050559050919050565b5f61348f61348961411c565b836141d2565b9050919050565b5f5f8473ffffffffffffffffffffffffffffffffffffffff163b0361352d575f5f6134c18585614212565b50915091505f60038111156134d9576134d86150a2565b5b8160038111156134ec576134eb6150a2565b5b14801561352457508573ffffffffffffffffffffffffffffffffffffffff168273ffffffffffffffffffffffffffffffffffffffff16145b9250505061353b565b613538848484614267565b90505b9392505050565b5f5f60075f8881526020019081526020015f209050806003015f8773ffffffffffffffffffffffffffffffffffffffff1673ffffffffffffffffffffffffffffffffffffffff1681526020019081526020015f205f9054906101000a900460ff16156135e557856040517f71c6af490000000000000000000000000000000000000000000000000000000081526004016135dc9190614b16565b60405180910390fd5b6001816003015f8873ffffffffffffffffffffffffffffffffffffffff1673ffffffffffffffffffffffffffffffffffffffff1681526020019081526020015f205f6101000a81548160ff0219169083151502179055505f600281111561364f5761364e6150a2565b5b60ff168560ff16036136795783815f015f82825461366d9190616388565b9250508190555061372a565b6001600281111561368d5761368c6150a2565b5b60ff168560ff16036136b85783816001015f8282546136ac9190616388565b92505081905550613729565b6002808111156136cb576136ca6150a2565b5b60ff168560ff16036136f65783816002015f8282546136ea9190616388565b92505081905550613728565b6040517f06b337c200000000000000000000000000000000000000000000000000000000815260040160405180910390fd5b5b5b8391505095945050505050565b50565b5f5f5f5f845f018054905090505f810361375d575f5f5f935093509350506137c2565b5f613776865f0160018461377191906165e4565b613b37565b90506001815f015f9054906101000a900465ffffffffffff16825f0160069054906101000a900479ffffffffffffffffffffffffffffffffffffffffffffffffffff1694509450945050505b9193909250565b5f65ffffffffffff801682111561381a576030826040517f6dfcc650000000000000000000000000000000000000000000000000000000008152600401613811929190616861565b60405180910390fd5b819050919050565b5f5f835f018054905090505f5f90505f82905060058311156138a6575f613848846142b8565b8461385391906165e4565b9050613861875f0182613b37565b5f015f9054906101000a900465ffffffffffff1665ffffffffffff168665ffffffffffff161015613894578091506138a4565b6001816138a19190616388565b92505b505b5f6138b5875f01878585614452565b90505f8114613904576138d6875f016001836138d191906165e4565b613b37565b5f0160069054906101000a900479ffffffffffffffffffffffffffffffffffffffffffffffffffff16613906565b5f5b94505050505092915050565b5f81602084010151905092915050565b5f5f845183118061393257508284115b15613942575f5f91509150613a2b565b5f6001856139509190616388565b841180156139c857507f30780000000000000000000000000000000000000000000000000000000000007dffffffffffffffffffffffffffffffffffffffffffffffffffffffffffff19166139a587876144c7565b7dffffffffffffffffffffffffffffffffffffffffffffffffffffffffffff1916145b90505f60026139d88315156144d7565b6139e29190616888565b60286139ee9190616388565b90508086866139fd91906165e4565b03613a22575f5f613a0f8989896144e2565b9150915081819550955050505050613a2b565b5f5f9350935050505b935093915050565b5f63ffffffff8016821115613a82576020826040517f6dfcc650000000000000000000000000000000000000000000000000000000008152600401613a79929190616902565b60405180910390fd5b819050919050565b606060ff5f1b8314613aa657613a9f83614610565b9050613b31565b818054613ab290615c10565b80601f0160208091040260200160405190810160405280929190818152602001828054613ade90615c10565b8015613b295780601f10613b0057610100808354040283529160200191613b29565b820191905f5260205f20905b815481529060010190602001808311613b0c57829003601f168201915b505050505090505b92915050565b5f825f528160205f2001905092915050565b805160208201fd5b5f5f5f198385098385029150818110828203039250509250929050565b5f613b78846144d7565b82841802821890509392505050565b5f5f5f835f015f9054906101000a90046fffffffffffffffffffffffffffffffff169050835f0160109054906101000a90046fffffffffffffffffffffffffffffffff166fffffffffffffffffffffffffffffffff16816fffffffffffffffffffffffffffffffff1603613c03575f5f5f1b9250925050613cb9565b60019250836001015f826fffffffffffffffffffffffffffffffff166fffffffffffffffffffffffffffffffff1681526020019081526020015f20549150836001015f826fffffffffffffffffffffffffffffffff166fffffffffffffffffffffffffffffffff1681526020019081526020015f205f905560018101845f015f6101000a8154816fffffffffffffffffffffffffffffffff02191690836fffffffffffffffffffffffffffffffff160217905550505b915091565b5f5f5f858054905090505f811115613eca575f613ce787600184613ce291906165e4565b613b37565b90505f815f015f9054906101000a900465ffffffffffff1690505f825f0160069054906101000a900479ffffffffffffffffffffffffffffffffffffffffffffffffffff1690508765ffffffffffff168265ffffffffffff161115613d78576040517f2520601d00000000000000000000000000000000000000000000000000000000815260040160405180910390fd5b8765ffffffffffff168265ffffffffffff1603613de25786835f0160066101000a81548179ffffffffffffffffffffffffffffffffffffffffffffffffffff021916908379ffffffffffffffffffffffffffffffffffffffffffffffffffff160217905550613ebb565b8860405180604001604052808a65ffffffffffff1681526020018979ffffffffffffffffffffffffffffffffffffffffffffffffffff16815250908060018154018082558091505060019003905f5260205f20015f909190919091505f820151815f015f6101000a81548165ffffffffffff021916908365ffffffffffff1602179055506020820151815f0160066101000a81548179ffffffffffffffffffffffffffffffffffffffffffffffffffff021916908379ffffffffffffffffffffffffffffffffffffffffffffffffffff16021790555050505b80879550955050505050613faa565b8560405180604001604052808765ffffffffffff1681526020018679ffffffffffffffffffffffffffffffffffffffffffffffffffff16815250908060018154018082558091505060019003905f5260205f20015f909190919091505f820151815f015f6101000a81548165ffffffffffff021916908365ffffffffffff1602179055506020820151815f0160066101000a81548179ffffffffffffffffffffffffffffffffffffffffffffffffffff021916908379ffffffffffffffffffffffffffffffffffffffffffffffffffff16021790555050505f8492509250505b935093915050565b5f813060601b6bffffffffffffffffffffffff1916189050919050565b5f5f60075f8481526020019081526020015f20905080600201548160010154613ff89190616388565b614009614004856111ff565b611cf6565b1115915050919050565b5f5f60075f8481526020019081526020015f209050805f0154816001015411915050919050565b5f5f614048868686866119c0565b90506140ac816140586007612005565b6140626006612005565b61406c6002612005565b600180600780811115614082576140816150a2565b5b61408c9190616929565b60026140989190616a8c565b6140a291906165e4565b5f1b181818612029565b50600160045f8381526020019081526020015f205f01601f6101000a81548160ff0219169083151502179055507f789cf55be980739dad1d0699b93b58e806b51c9d96619bfa8fe0a28abaa7b30c8160405161410891906149d9565b60405180910390a180915050949350505050565b5f7f000000000000000000000000000000000000000000000000000000000000000073ffffffffffffffffffffffffffffffffffffffff163073ffffffffffffffffffffffffffffffffffffffff1614801561419757507f000000000000000000000000000000000000000000000000000000000000000046145b156141c4577f000000000000000000000000000000000000000000000000000000000000000090506141cf565b6141cc614682565b90505b90565b5f6040517f190100000000000000000000000000000000000000000000000000000000000081528360028201528260228201526042812091505092915050565b5f5f5f6041845103614252575f5f5f602087015192506040870151915060608701515f1a905061424488828585614717565b955095509550505050614260565b5f600285515f1b9250925092505b9250925092565b5f5f631626ba7e60e01b90505f83519050604051828152856004820152604060248201526020820185604483015e60205f60648401838a5afa835f5114601f3d111681169450505050509392505050565b5f600182116142c95781905061444d565b5f8290505f6001905070010000000000000000000000000000000082106142f957608082901c9150604081901b90505b68010000000000000000821061431857604082901c9150602081901b90505b640100000000821061433357602082901c9150601081901b90505b62010000821061434c57601082901c9150600881901b90505b610100821061436457600882901c9150600481901b90505b6010821061437b57600482901c9150600281901b90505b6004821061438b57600181901b90505b600181600302901c905060018185816143a7576143a661663e565b5b048201901c905060018185816143c0576143bf61663e565b5b048201901c905060018185816143d9576143d861663e565b5b048201901c905060018185816143f2576143f161663e565b5b048201901c9050600181858161440b5761440a61663e565b5b048201901c905060018185816144245761442361663e565b5b048201901c905061444681858161443e5761443d61663e565b5b0482116144d7565b8103925050505b919050565b5f5b818310156144bc575f61446784846147fe565b90508465ffffffffffff1661447c8783613b37565b5f015f9054906101000a900465ffffffffffff1665ffffffffffff1611156144a6578092506144b6565b6001816144b39190616388565b93505b50614454565b819050949350505050565b5f81602084010151905092915050565b5f8115159050919050565b5f5f5f8590505f6001866144f69190616388565b8511801561456e57507f30780000000000000000000000000000000000000000000000000000000000007dffffffffffffffffffffffffffffffffffffffffffffffffffffffffffff191661454b83886144c7565b7dffffffffffffffffffffffffffffffffffffffffffffffffffffffffffff1916145b90505f600261457e8315156144d7565b6145889190616888565b90505f5f90505f828961459b9190616388565b90505b878110156145fb575f6145b96145b487846144c7565b61481f565b9050600f8160ff1611156145d8575f5f97509750505050505050614608565b6010836145e59190616888565b92508060ff16830192505080600101905061459e565b5060018195509550505050505b935093915050565b60605f61461c836148af565b90505f602067ffffffffffffffff81111561463a57614639614b61565b5b6040519080825280601f01601f19166020018201604052801561466c5781602001600182028036833780820191505090505b5090508181528360208201528092505050919050565b5f7f8b73c3c69bb8fe3d512ecc4cf759cc79239f7b179b0ffacaa9a75d522b39400f7f00000000000000000000000000000000000000000000000000000000000000007f000000000000000000000000000000000000000000000000000000000000000046306040516020016146fc959493929190616ad6565b60405160208183030381529060405280519060200120905090565b5f5f5f7f7fffffffffffffffffffffffffffffff5d576e7357a4501ddfe92f46681b20a0845f1c1115614753575f6003859250925092506147f4565b5f6001888888886040515f81526020016040526040516147769493929190616b27565b6020604051602081039080840390855afa158015614796573d5f5f3e3d5ffd5b5050506020604051035190505f73ffffffffffffffffffffffffffffffffffffffff168173ffffffffffffffffffffffffffffffffffffffff16036147e7575f60015f5f1b935093509350506147f4565b805f5f5f1b935093509350505b9450945094915050565b5f6002828418816148125761481161663e565b5b0482841601905092915050565b5f5f8260f81c9050602f8160ff1611801561483d5750603a8160ff16105b1561484d576030810390506148a5565b60608160ff16118015614863575060678160ff16105b15614873576057810390506148a4565b60408160ff16118015614889575060478160ff16105b15614899576037810390506148a3565b60ff9150506148aa565b5b5b809150505b919050565b5f5f60ff835f1c169050601f8111156148f4576040517fb3512b0c00000000000000000000000000000000000000000000000000000000815260040160405180910390fd5b80915050919050565b5f604051905090565b5f5ffd5b5f5ffd5b5f7fffffffff0000000000000000000000000000000000000000000000000000000082169050919050565b6149428161490e565b811461494c575f5ffd5b50565b5f8135905061495d81614939565b92915050565b5f6020828403121561497857614977614906565b5b5f6149858482850161494f565b91505092915050565b5f8115159050919050565b6149a28161498e565b82525050565b5f6020820190506149bb5f830184614999565b92915050565b5f819050919050565b6149d3816149c1565b82525050565b5f6020820190506149ec5f8301846149ca565b92915050565b6149fb816149c1565b8114614a05575f5ffd5b50565b5f81359050614a16816149f2565b92915050565b5f60208284031215614a3157614a30614906565b5b5f614a3e84828501614a08565b91505092915050565b5f81519050919050565b5f82825260208201905092915050565b8281835e5f83830152505050565b5f601f19601f8301169050919050565b5f614a8982614a47565b614a938185614a51565b9350614aa3818560208601614a61565b614aac81614a6f565b840191505092915050565b5f6020820190508181035f830152614acf8184614a7f565b905092915050565b5f73ffffffffffffffffffffffffffffffffffffffff82169050919050565b5f614b0082614ad7565b9050919050565b614b1081614af6565b82525050565b5f602082019050614b295f830184614b07565b92915050565b614b3881614af6565b8114614b42575f5ffd5b50565b5f81359050614b5381614b2f565b92915050565b5f5ffd5b5f5ffd5b7f4e487b71000000000000000000000000000000000000000000000000000000005f52604160045260245ffd5b614b9782614a6f565b810181811067ffffffffffffffff82111715614bb657614bb5614b61565b5b80604052505050565b5f614bc86148fd565b9050614bd48282614b8e565b919050565b5f67ffffffffffffffff821115614bf357614bf2614b61565b5b614bfc82614a6f565b9050602081019050919050565b828183375f83830152505050565b5f614c29614c2484614bd9565b614bbf565b905082815260208101848484011115614c4557614c44614b5d565b5b614c50848285614c09565b509392505050565b5f82601f830112614c6c57614c6b614b59565b5b8135614c7c848260208601614c17565b91505092915050565b5f5f5f5f60808587031215614c9d57614c9c614906565b5b5f614caa87828801614b45565b9450506020614cbb87828801614b45565b9350506040614ccc87828801614a08565b925050606085013567ffffffffffffffff811115614ced57614cec61490a565b5b614cf987828801614c58565b91505092959194509250565b614d0e8161490e565b82525050565b5f602082019050614d275f830184614d05565b92915050565b5f67ffffffffffffffff821115614d4757614d46614b61565b5b602082029050602081019050919050565b5f5ffd5b5f614d6e614d6984614d2d565b614bbf565b90508083825260208201905060208402830185811115614d9157614d90614d58565b5b835b81811015614dba5780614da68882614b45565b845260208401935050602081019050614d93565b5050509392505050565b5f82601f830112614dd857614dd7614b59565b5b8135614de8848260208601614d5c565b91505092915050565b5f67ffffffffffffffff821115614e0b57614e0a614b61565b5b602082029050602081019050919050565b5f614e2e614e2984614df1565b614bbf565b90508083825260208201905060208402830185811115614e5157614e50614d58565b5b835b81811015614e7a5780614e668882614a08565b845260208401935050602081019050614e53565b5050509392505050565b5f82601f830112614e9857614e97614b59565b5b8135614ea8848260208601614e1c565b91505092915050565b5f67ffffffffffffffff821115614ecb57614eca614b61565b5b602082029050602081019050919050565b5f614eee614ee984614eb1565b614bbf565b90508083825260208201905060208402830185811115614f1157614f10614d58565b5b835b81811015614f5857803567ffffffffffffffff811115614f3657614f35614b59565b5b808601614f438982614c58565b85526020850194505050602081019050614f13565b5050509392505050565b5f82601f830112614f7657614f75614b59565b5b8135614f86848260208601614edc565b91505092915050565b5f819050919050565b614fa181614f8f565b8114614fab575f5ffd5b50565b5f81359050614fbc81614f98565b92915050565b5f5f5f5f60808587031215614fda57614fd9614906565b5b5f85013567ffffffffffffffff811115614ff757614ff661490a565b5b61500387828801614dc4565b945050602085013567ffffffffffffffff8111156150245761502361490a565b5b61503087828801614e84565b935050604085013567ffffffffffffffff8111156150515761505061490a565b5b61505d87828801614f62565b925050606061506e87828801614fae565b91505092959194509250565b61508381614f8f565b82525050565b5f60208201905061509c5f83018461507a565b92915050565b7f4e487b71000000000000000000000000000000000000000000000000000000005f52602160045260245ffd5b600881106150e0576150df6150a2565b5b50565b5f8190506150f0826150cf565b919050565b5f6150ff826150e3565b9050919050565b61510f816150f5565b82525050565b5f6020820190506151285f830184615106565b92915050565b5f5f6040838503121561514457615143614906565b5b5f61515185828601614a08565b925050602061516285828601614b45565b9150509250929050565b5f60608201905061517f5f8301866149ca565b61518c60208301856149ca565b61519960408301846149ca565b949350505050565b5f60ff82169050919050565b6151b6816151a1565b81146151c0575f5ffd5b50565b5f813590506151d1816151ad565b92915050565b5f5f604083850312156151ed576151ec614906565b5b5f6151fa85828601614a08565b925050602061520b858286016151c3565b9150509250929050565b5f5ffd5b5f5f83601f84011261522e5761522d614b59565b5b8235905067ffffffffffffffff81111561524b5761524a615215565b5b60208301915083600182028301111561526757615266614d58565b5b9250929050565b5f5f5f5f5f5f5f60c0888a03121561528957615288614906565b5b5f6152968a828b01614a08565b97505060206152a78a828b016151c3565b96505060406152b88a828b01614b45565b955050606088013567ffffffffffffffff8111156152d9576152d861490a565b5b6152e58a828b01615219565b9450945050608088013567ffffffffffffffff8111156153085761530761490a565b5b6153148a828b01614c58565b92505060a088013567ffffffffffffffff8111156153355761533461490a565b5b6153418a828b01614c58565b91505092959891949750929550565b5f5f5f5f5f6080868803121561536957615368614906565b5b5f61537688828901614a08565b9550506020615387888289016151c3565b945050604086013567ffffffffffffffff8111156153a8576153a761490a565b5b6153b488828901615219565b9350935050606086013567ffffffffffffffff8111156153d7576153d661490a565b5b6153e388828901614c58565b9150509295509295909350565b5f5f5f5f6060858703121561540857615407614906565b5b5f61541587828801614a08565b9450506020615426878288016151c3565b935050604085013567ffffffffffffffff8111156154475761544661490a565b5b61545387828801615219565b925092505092959194509250565b5f67ffffffffffffffff82111561547b5761547a614b61565b5b61548482614a6f565b9050602081019050919050565b5f6154a361549e84615461565b614bbf565b9050828152602081018484840111156154bf576154be614b5d565b5b6154ca848285614c09565b509392505050565b5f82601f8301126154e6576154e5614b59565b5b81356154f6848260208601615491565b91505092915050565b5f5f5f5f6080858703121561551757615516614906565b5b5f85013567ffffffffffffffff8111156155345761553361490a565b5b61554087828801614dc4565b945050602085013567ffffffffffffffff8111156155615761556061490a565b5b61556d87828801614e84565b935050604085013567ffffffffffffffff81111561558e5761558d61490a565b5b61559a87828801614f62565b925050606085013567ffffffffffffffff8111156155bb576155ba61490a565b5b6155c7878288016154d2565b91505092959194509250565b5f602082840312156155e8576155e7614906565b5b5f6155f584828501614b45565b91505092915050565b5f7fff0000000000000000000000000000000000000000000000000000000000000082169050919050565b615632816155fe565b82525050565b5f81519050919050565b5f82825260208201905092915050565b5f819050602082019050919050565b61566a816149c1565b82525050565b5f61567b8383615661565b60208301905092915050565b5f602082019050919050565b5f61569d82615638565b6156a78185615642565b93506156b283615652565b805f5b838110156156e25781516156c98882615670565b97506156d483615687565b9250506001810190506156b5565b5085935050505092915050565b5f60e0820190506157025f83018a615629565b81810360208301526157148189614a7f565b905081810360408301526157288188614a7f565b905061573760608301876149ca565b6157446080830186614b07565b61575160a083018561507a565b81810360c08301526157638184615693565b905098975050505050505050565b5f5f5f5f6080858703121561578957615788614906565b5b5f61579687828801614a08565b94505060206157a7878288016151c3565b93505060406157b887828801614b45565b925050606085013567ffffffffffffffff8111156157d9576157d861490a565b5b6157e587828801614c58565b91505092959194509250565b5f65ffffffffffff82169050919050565b61580b816157f1565b82525050565b5f6020820190506158245f830184615802565b92915050565b5f5f5f6060848603121561584157615840614906565b5b5f61584e86828701614b45565b935050602061585f86828701614a08565b925050604084013567ffffffffffffffff8111156158805761587f61490a565b5b61588c86828701614c58565b9150509250925092565b5f6158a082614ad7565b9050919050565b5f6158b182615896565b9050919050565b6158c1816158a7565b81146158cb575f5ffd5b50565b5f813590506158dc816158b8565b92915050565b5f602082840312156158f7576158f6614906565b5b5f615904848285016158ce565b91505092915050565b5f5f5f5f5f60a0868803121561592657615925614906565b5b5f61593388828901614b45565b955050602061594488828901614b45565b945050604086013567ffffffffffffffff8111156159655761596461490a565b5b61597188828901614e84565b935050606086013567ffffffffffffffff8111156159925761599161490a565b5b61599e88828901614e84565b925050608086013567ffffffffffffffff8111156159bf576159be61490a565b5b6159cb88828901614c58565b9150509295509295909350565b5f5f83601f8401126159ed576159ec614b59565b5b8235905067ffffffffffffffff811115615a0a57615a09615215565b5b602083019150836001820283011115615a2657615a25614d58565b5b9250929050565b5f5f5f5f60608587031215615a4557615a44614906565b5b5f615a5287828801614b45565b9450506020615a6387828801614a08565b935050604085013567ffffffffffffffff811115615a8457615a8361490a565b5b615a90878288016159d8565b925092505092959194509250565b5f5f60408385031215615ab457615ab3614906565b5b5f615ac185828601614b45565b9250506020615ad285828601614a08565b9150509250929050565b5f5f5f5f5f60a08688031215615af557615af4614906565b5b5f615b0288828901614b45565b9550506020615b1388828901614b45565b9450506040615b2488828901614a08565b9350506060615b3588828901614a08565b925050608086013567ffffffffffffffff811115615b5657615b5561490a565b5b615b6288828901614c58565b9150509295509295909350565b5f819050919050565b5f615b92615b8d615b8884614ad7565b615b6f565b614ad7565b9050919050565b5f615ba382615b78565b9050919050565b5f615bb482615b99565b9050919050565b615bc481615baa565b82525050565b5f602082019050615bdd5f830184615bbb565b92915050565b7f4e487b71000000000000000000000000000000000000000000000000000000005f52602260045260245ffd5b5f6002820490506001821680615c2757607f821691505b602082108103615c3a57615c39615be3565b5b50919050565b5f615c5a615c55615c50846157f1565b615b6f565b6149c1565b9050919050565b615c6a81615c40565b82525050565b5f604082019050615c835f8301856149ca565b615c906020830184615c61565b9392505050565b7f4e487b71000000000000000000000000000000000000000000000000000000005f52603260045260245ffd5b5f604082019050615cd75f8301856149ca565b615ce46020830184614b07565b9392505050565b5f615cfd615cf884615461565b614bbf565b905082815260208101848484011115615d1957615d18614b5d565b5b615d24848285614a61565b509392505050565b5f82601f830112615d4057615d3f614b59565b5b8151615d50848260208601615ceb565b91505092915050565b5f60208284031215615d6e57615d6d614906565b5b5f82015167ffffffffffffffff811115615d8b57615d8a61490a565b5b615d9784828501615d2c565b91505092915050565b7f4e487b71000000000000000000000000000000000000000000000000000000005f52601160045260245ffd5b5f615dd7826157f1565b9150615de2836157f1565b9250828203905065ffffffffffff811115615e0057615dff615da0565b5b92915050565b5f606082019050615e195f830186614b07565b615e2660208301856149ca565b615e3360408301846149ca565b949350505050565b615e44816157f1565b8114615e4e575f5ffd5b50565b5f81519050615e5f81615e3b565b92915050565b5f60208284031215615e7a57615e79614906565b5b5f615e8784828501615e51565b91505092915050565b5f615e9a826157f1565b9150615ea5836157f1565b9250828201905065ffffffffffff811115615ec357615ec2615da0565b5b92915050565b5f81905092915050565b5f615ede8385615ec9565b9350615eeb838584614c09565b82840190509392505050565b5f615f03828486615ed3565b91508190509392505050565b5f81519050919050565b5f82825260208201905092915050565b5f819050602082019050919050565b615f4181614af6565b82525050565b5f615f528383615f38565b60208301905092915050565b5f602082019050919050565b5f615f7482615f0f565b615f7e8185615f19565b9350615f8983615f29565b805f5b83811015615fb9578151615fa08882615f47565b9750615fab83615f5e565b925050600181019050615f8c565b5085935050505092915050565b5f81519050919050565b5f82825260208201905092915050565b5f819050602082019050919050565b5f81519050919050565b5f82825260208201905092915050565b5f61601382615fef565b61601d8185615ff9565b935061602d818560208601614a61565b61603681614a6f565b840191505092915050565b5f61604c8383616009565b905092915050565b5f602082019050919050565b5f61606a82615fc6565b6160748185615fd0565b93508360208202850161608685615fe0565b805f5b858110156160c157848403895281516160a28582616041565b94506160ad83616054565b925060208a01995050600181019050616089565b50829750879550505050505092915050565b5f6080820190508181035f8301526160eb8187615f6a565b905081810360208301526160ff8186615693565b905081810360408301526161138185616060565b9050616122606083018461507a565b95945050505050565b5f81519050616139816149f2565b92915050565b5f6020828403121561615457616153614906565b5b5f6161618482850161612b565b91505092915050565b5f60408201905061617d5f8301856149ca565b61618a60208301846149ca565b9392505050565b5f6060820190506161a45f8301866149ca565b6161b16020830185615106565b6161be604083018461507a565b949350505050565b6161cf8161498e565b81146161d9575f5ffd5b50565b5f815190506161ea816161c6565b92915050565b5f6020828403121561620557616204614906565b5b5f616212848285016161dc565b91505092915050565b616224816151a1565b82525050565b5f60e08201905061623d5f83018a61507a565b61624a60208301896149ca565b616257604083018861621b565b6162646060830187614b07565b61627160808301866149ca565b61627e60a083018561507a565b61628b60c083018461507a565b98975050505050505050565b5f6080820190506162aa5f8301876149ca565b6162b7602083018661621b565b6162c460408301856149ca565b81810360608301526162d68184614a7f565b905095945050505050565b5f82825260208201905092915050565b5f6162fb82615fef565b61630581856162e1565b9350616315818560208601614a61565b61631e81614a6f565b840191505092915050565b5f60a08201905061633c5f8301886149ca565b616349602083018761621b565b61635660408301866149ca565b81810360608301526163688185614a7f565b9050818103608083015261637c81846162f1565b90509695505050505050565b5f616392826149c1565b915061639d836149c1565b92508282019050808211156163b5576163b4615da0565b5b92915050565b5f81519050919050565b5f82825260208201905092915050565b5f819050602082019050919050565b5f82825260208201905092915050565b5f6163fe82614a47565b61640881856163e4565b9350616418818560208601614a61565b61642181614a6f565b840191505092915050565b5f61643783836163f4565b905092915050565b5f602082019050919050565b5f616455826163bb565b61645f81856163c5565b935083602082028501616471856163d5565b805f5b858110156164ac578484038952815161648d858261642c565b94506164988361643f565b925060208a01995050600181019050616474565b50829750879550505050505092915050565b5f610120820190506164d25f83018c6149ca565b6164df602083018b614b07565b81810360408301526164f1818a615f6a565b905081810360608301526165058189615693565b90508181036080830152616519818861644b565b905081810360a083015261652d8187616060565b905061653c60c08301866149ca565b61654960e08301856149ca565b81810361010083015261655c8184614a7f565b90509a9950505050505050505050565b5f60a08201905061657f5f83018861507a565b61658c60208301876149ca565b616599604083018661621b565b6165a66060830185614b07565b6165b360808301846149ca565b9695505050505050565b5f6040820190506165d05f830185614b07565b6165dd60208301846149ca565b9392505050565b5f6165ee826149c1565b91506165f9836149c1565b925082820390508181111561661157616610615da0565b5b92915050565b5f60408201905061662a5f830185614b07565b6166376020830184614b07565b9392505050565b7f4e487b71000000000000000000000000000000000000000000000000000000005f52601260045260245ffd5b5f819050919050565b5f61668e6166896166848461666b565b615b6f565b6151a1565b9050919050565b61669e81616674565b82525050565b5f6040820190506166b75f830185616695565b6166c460208301846149ca565b9392505050565b5f819050919050565b5f815f1b9050919050565b5f6166f96166f46166ef846166cb565b6166d4565b614f8f565b9050919050565b616709816166df565b82525050565b5f60a0820190508181035f8301526167278188615f6a565b9050818103602083015261673b8187615693565b9050818103604083015261674f8186616060565b905061675e6060830185616700565b61676b608083018461507a565b9695505050505050565b5f8151905061678381614f98565b92915050565b5f6020828403121561679e5761679d614906565b5b5f6167ab84828501616775565b91505092915050565b5f60c0820190508181035f8301526167cc8189615f6a565b905081810360208301526167e08188615693565b905081810360408301526167f48187616060565b90506168036060830186616700565b616810608083018561507a565b61681d60a08301846149ca565b979650505050505050565b5f819050919050565b5f61684b61684661684184616828565b615b6f565b6151a1565b9050919050565b61685b81616831565b82525050565b5f6040820190506168745f830185616852565b61688160208301846149ca565b9392505050565b5f616892826149c1565b915061689d836149c1565b92508282026168ab816149c1565b915082820484148315176168c2576168c1615da0565b5b5092915050565b5f819050919050565b5f6168ec6168e76168e2846168c9565b615b6f565b6151a1565b9050919050565b6168fc816168d2565b82525050565b5f6040820190506169155f8301856168f3565b61692260208301846149ca565b9392505050565b5f616933826151a1565b915061693e836151a1565b9250828201905060ff81111561695757616956615da0565b5b92915050565b5f8160011c9050919050565b5f5f8291508390505b60018511156169b25780860481111561698e5761698d615da0565b5b600185161561699d5780820291505b80810290506169ab8561695d565b9450616972565b94509492505050565b5f826169ca5760019050616a85565b816169d7575f9050616a85565b81600181146169ed57600281146169f757616a26565b6001915050616a85565b60ff841115616a0957616a08615da0565b5b8360020a915084821115616a2057616a1f615da0565b5b50616a85565b5060208310610133831016604e8410600b8410161715616a5b5782820a905083811115616a5657616a55615da0565b5b616a85565b616a688484846001616969565b92509050818404811115616a7f57616a7e615da0565b5b81810290505b9392505050565b5f616a96826149c1565b9150616aa1836151a1565b9250616ace7fffffffffffffffffffffffffffffffffffffffffffffffffffffffffffffffff84846169bb565b905092915050565b5f60a082019050616ae95f83018861507a565b616af6602083018761507a565b616b03604083018661507a565b616b1060608301856149ca565b616b1d6080830184614b07565b9695505050505050565b5f608082019050616b3a5f83018761507a565b616b47602083018661621b565b616b54604083018561507a565b616b61606083018461507a565b9594505050505056fea2646970667358221220d49151edf096d0acf4ecd7f1802f1979608a2e6f717bb6410ecaa836efd1fa3764736f6c634300081e0033","linkReferences":{}},"methodIdentifiers":{"BALLOT_TYPEHASH()":"deaaa7cc","CLOCK_MODE()":"4bf5d7e9","COUNTING_MODE()":"dd4e2ba5","EXTENDED_BALLOT_TYPEHASH()":"2fe3e261","cancel(address[],uint256[],bytes[],bytes32)":"452115d6","castVote(uint256,uint8)":"56781388","castVoteBySig(uint256,uint8,address,bytes)":"8ff262e3","castVoteWithReason(uint256,uint8,string)":"7b3c71d3","castVoteWithReasonAndParams(uint256,uint8,string,bytes)":"5f398a14","castVoteWithReasonAndParamsBySig(uint256,uint8,address,string,bytes,bytes)":"5b8d0e0d","clock()":"91ddadf4","eip712Domain()":"84b0196e","execute(address[],uint256[],bytes[],bytes32)":"2656227d","getProposalId(address[],uint256[],bytes[],bytes32)":"a8f8a668","getVotes(address,uint256)":"eb9019d4","getVotesWithParams(address,uint256,bytes)":"9a802a6d","hasVoted(uint256,address)":"43859632","hashProposal(address[],uint256[],bytes[],bytes32)":"c59057e4","name()":"06fdde03","nonces(address)":"7ecebe00","onERC1155BatchReceived(address,address,uint256[],uint256[],bytes)":"bc197c81","onERC1155Received(address,address,uint256,uint256,bytes)":"f23a6e61","onERC721Received(address,address,uint256,bytes)":"150b7a02","proposalDeadline(uint256)":"c01f9e37","proposalEta(uint256)":"ab58fb8e","proposalNeedsQueuing(uint256)":"a9a95294","proposalProposer(uint256)":"143489d0","proposalSnapshot(uint256)":"2d63f693","proposalThreshold()":"b58131b0","proposalVotes(uint256)":"544ffc9c","propose(address[],uint256[],bytes[],string)":"7d5e81e2","queue(address[],uint256[],bytes[],bytes32)":"160cbed7","quorum(uint256)":"f8ce560a","quorumDenominator()":"97c3d334","quorumNumerator()":"a7713a70","quorumNumerator(uint256)":"60c4247f","relay(address,uint256,bytes)":"c28bc2fa","state(uint256)":"3e4f49e6","supportsInterface(bytes4)":"01ffc9a7","timelock()":"d33219b4","token()":"fc0c546a","updateQuorumNumerator(uint256)":"06f3f9e6","updateTimelock(address)":"a890c910","version()":"54fd4d50","votingDelay()":"3932abb1","votingPeriod()":"02a251a3"},"id":248}