{"abi":[{"type":"function","name":"get","inputs":[],"outputs":[{"name":"","type":"bool","internalType":"bool"}],"stateMutability":"pure"},{"type":"function","name":"initialize","inputs":[{"name":"_value","type":"uint256","internalType":"uint256"},{"name":"_text","type":"string","internalType":"string"},{"name":"_values","type":"uint256[]","internalType":"uint256[]"}],"outputs":[],"stateMutability":"nonpayable"},{"type":"function","name":"initializeNonPayable","inputs":[],"outputs":[],"stateMutability":"nonpayable"},{"type":"function","name":"initializeNonPayableWithValue","inputs":[{"name":"_value","type":"uint256","internalType":"uint256"}],"outputs":[],"stateMutability":"nonpayable"},{"type":"function","name":"initializePayable","inputs":[],"outputs":[],"stateMutability":"payable"},{"type":"function","name":"initializePayableWithValue","inputs":[{"name":"_value","type":"uint256","internalType":"uint256"}],"outputs":[],"stateMutability":"payable"},{"type":"function","name":"reverts","inputs":[],"outputs":[],"stateMutability":"pure"},{"type":"function","name":"text","inputs":[],"outputs":[{"name":"","type":"string","internalType":"string"}],"stateMutability":"view"},{"type":"function","name":"unsafeOverrideAdmin","inputs":[{"name":"newAdmin","type":"address","internalType":"address"}],"outputs":[],"stateMutability":"nonpayable"},{"type":"function","name":"value","inputs":[],"outputs":[{"name":"","type":"uint256","internalType":"uint256"}],"stateMutability":"view"},{"type":"function","name":"values","inputs":[{"name":"","type":"uint256","internalType":"uint256"}],"outputs":[{"name":"","type":"uint256","internalType":"uint256"}],"stateMutability":"view"},{"type":"function","name":"version","inputs":[],"outputs":[{"name":"","type":"string","internalType":"string"}],"stateMutability":"pure"}],"bytecode":{"object":"0x6080604052348015600e575f5ffd5b50610c848061001c5f395ff3fe6080604052600436106100a6575f3560e01c80635e383d21116100635780635e383d211461017c5780636d4ce63c146101b8578063763e2831146101e25780639fba1f9a1461020a578063d31f8b6b14610214578063e79f5bee1461023c576100a6565b806319af86e7146100aa5780631f1bd692146100d2578063227367d5146100fc5780633bccbbc9146101125780633fa4f2451461012857806354fd4d5014610152575b5f5ffd5b3480156100b5575f5ffd5b506100d060048036038101906100cb919061052e565b610258565b005b3480156100dd575f5ffd5b506100e66102c6565b6040516100f391906105c9565b60405180910390f35b348015610107575f5ffd5b50610110610352565b005b34801561011d575f5ffd5b5061012661035b565b005b348015610133575f5ffd5b5061013c61039d565b6040516101499190610601565b60405180910390f35b34801561015d575f5ffd5b506101666103a2565b60405161017391906105c9565b60405180910390f35b348015610187575f5ffd5b506101a2600480360381019061019d9190610644565b6103df565b6040516101af9190610601565b60405180910390f35b3480156101c3575f5ffd5b506101cc6103ff565b6040516101d99190610689565b60405180910390f35b3480156101ed575f5ffd5b5061020860048036038101906102039190610644565b610407565b005b610212610410565b005b34801561021f575f5ffd5b5061023a60048036038101906102359190610892565b610419565b005b61025660048036038101906102519190610644565b61044b565b005b806102847fb53127684a568b3173ae13b9f8a6016e243e63b6e8ee1178d6a717850b5d61035f1b610454565b5f015f6101000a81548173ffffffffffffffffffffffffffffffffffffffff021916908373ffffffffffffffffffffffffffffffffffffffff16021790555050565b600180546102d390610947565b80601f01602080910402602001604051908101604052809291908181526020018280546102ff90610947565b801561034a5780601f106103215761010080835404028352916020019161034a565b820191905f5260205f20905b81548152906001019060200180831161032d57829003601f168201915b505050505081565b600a5f81905550565b5f61039b576040517f08c379a0000000000000000000000000000000000000000000000000000000008152600401610392906109c1565b60405180910390fd5b565b5f5481565b60606040518060400160405280600281526020017f5631000000000000000000000000000000000000000000000000000000000000815250905090565b600281815481106103ee575f80fd5b905f5260205f20015f915090505481565b5f6001905090565b805f8190555050565b60645f81905550565b825f81905550816001908161042e9190610b7f565b50806002908051906020019061044592919061045d565b50505050565b805f8190555050565b5f819050919050565b828054828255905f5260205f20908101928215610497579160200282015b8281111561049657825182559160200191906001019061047b565b5b5090506104a491906104a8565b5090565b5b808211156104bf575f815f9055506001016104a9565b5090565b5f604051905090565b5f5ffd5b5f5ffd5b5f73ffffffffffffffffffffffffffffffffffffffff82169050919050565b5f6104fd826104d4565b9050919050565b61050d816104f3565b8114610517575f5ffd5b50565b5f8135905061052881610504565b92915050565b5f60208284031215610543576105426104cc565b5b5f6105508482850161051a565b91505092915050565b5f81519050919050565b5f82825260208201905092915050565b8281835e5f83830152505050565b5f601f19601f8301169050919050565b5f61059b82610559565b6105a58185610563565b93506105b5818560208601610573565b6105be81610581565b840191505092915050565b5f6020820190508181035f8301526105e18184610591565b905092915050565b5f819050919050565b6105fb816105e9565b82525050565b5f6020820190506106145f8301846105f2565b92915050565b610623816105e9565b811461062d575f5ffd5b50565b5f8135905061063e8161061a565b92915050565b5f60208284031215610659576106586104cc565b5b5f61066684828501610630565b91505092915050565b5f8115159050919050565b6106838161066f565b82525050565b5f60208201905061069c5f83018461067a565b92915050565b5f5ffd5b5f5ffd5b7f4e487b71000000000000000000000000000000000000000000000000000000005f52604160045260245ffd5b6106e082610581565b810181811067ffffffffffffffff821117156106ff576106fe6106aa565b5b80604052505050565b5f6107116104c3565b905061071d82826106d7565b919050565b5f67ffffffffffffffff82111561073c5761073b6106aa565b5b61074582610581565b9050602081019050919050565b828183375f83830152505050565b5f61077261076d84610722565b610708565b90508281526020810184848401111561078e5761078d6106a6565b5b610799848285610752565b509392505050565b5f82601f8301126107b5576107b46106a2565b5b81356107c5848260208601610760565b91505092915050565b5f67ffffffffffffffff8211156107e8576107e76106aa565b5b602082029050602081019050919050565b5f5ffd5b5f61080f61080a846107ce565b610708565b90508083825260208201905060208402830185811115610832576108316107f9565b5b835b8181101561085b57806108478882610630565b845260208401935050602081019050610834565b5050509392505050565b5f82601f830112610879576108786106a2565b5b81356108898482602086016107fd565b91505092915050565b5f5f5f606084860312156108a9576108a86104cc565b5b5f6108b686828701610630565b935050602084013567ffffffffffffffff8111156108d7576108d66104d0565b5b6108e3868287016107a1565b925050604084013567ffffffffffffffff811115610904576109036104d0565b5b61091086828701610865565b9150509250925092565b7f4e487b71000000000000000000000000000000000000000000000000000000005f52602260045260245ffd5b5f600282049050600182168061095e57607f821691505b6020821081036109715761097061091a565b5b50919050565b7f44756d6d79496d706c656d656e746174696f6e207265766572746564000000005f82015250565b5f6109ab601c83610563565b91506109b682610977565b602082019050919050565b5f6020820190508181035f8301526109d88161099f565b9050919050565b5f819050815f5260205f209050919050565b5f6020601f8301049050919050565b5f82821b905092915050565b5f60088302610a3b7fffffffffffffffffffffffffffffffffffffffffffffffffffffffffffffffff82610a00565b610a458683610a00565b95508019841693508086168417925050509392505050565b5f819050919050565b5f610a80610a7b610a76846105e9565b610a5d565b6105e9565b9050919050565b5f819050919050565b610a9983610a66565b610aad610aa582610a87565b848454610a0c565b825550505050565b5f5f905090565b610ac4610ab5565b610acf818484610a90565b505050565b5b81811015610af257610ae75f82610abc565b600181019050610ad5565b5050565b601f821115610b3757610b08816109df565b610b11846109f1565b81016020851015610b20578190505b610b34610b2c856109f1565b830182610ad4565b50505b505050565b5f82821c905092915050565b5f610b575f1984600802610b3c565b1980831691505092915050565b5f610b6f8383610b48565b9150826002028217905092915050565b610b8882610559565b67ffffffffffffffff811115610ba157610ba06106aa565b5b610bab8254610947565b610bb6828285610af6565b5f60209050601f831160018114610be7575f8415610bd5578287015190505b610bdf8582610b64565b865550610c46565b601f198416610bf5866109df565b5f5b82811015610c1c57848901518255600182019150602085019450602081019050610bf7565b86831015610c395784890151610c35601f891682610b48565b8355505b6001600288020188555050505b50505050505056fea2646970667358221220cdc50087665fb0080e0b5d9a5a576c69debce522d9bdecf26796da2e212756b164736f6c634300081e0033","linkReferences":{}},"methodIdentifiers":{"get()":"6d4ce63c","initialize(uint256,string,uint256[])":"d31f8b6b","initializeNonPayable()":"227367d5","initializeNonPayableWithValue(uint256)":"763e2831","initializePayable()":"9fba1f9a","initializePayableWithValue(uint256)":"e79f5bee","reverts()":"3bccbbc9","text()":"1f1bd692","unsafeOverrideAdmin(address)":"19af86e7","value()":"3fa4f245","values(uint256)":"5e383d21","version()":"54fd4d50"},"id":205}