{"abi":[{"type":"function","name":"allowance","inputs":[{"name":"owner","type":"address","internalType":"address"},{"name":"spender","type":"address","internalType":"address"},{"name":"id","type":"uint256","internalType":"uint256"}],"outputs":[{"name":"","type":"uint256","internalType":"uint256"}],"stateMutability":"view"},{"type":"function","name":"approve","inputs":[{"name":"spender","type":"address","internalType":"address"},{"name":"id","type":"uint256","internalType":"uint256"},{"name":"amount","type":"uint256","internalType":"uint256"}],"outputs":[{"name":"","type":"bool","internalType":"bool"}],"stateMutability":"nonpayable"},{"type":"function","name":"balanceOf","inputs":[{"name":"owner","type":"address","internalType":"address"},{"name":"id","type":"uint256","internalType":"uint256"}],"outputs":[{"name":"","type":"uint256","internalType":"uint256"}],"stateMutability":"view"},{"type":"function","name":"contractURI","inputs":[],"outputs":[{"name":"","type":"string","internalType":"string"}],"stateMutability":"view"},{"type":"function","name":"isOperator","inputs":[{"name":"owner","type":"address","internalType":"address"},{"name":"spender","type":"address","internalType":"address"}],"outputs":[{"name":"","type":"bool","internalType":"bool"}],"stateMutability":"view"},{"type":"function","name":"setOperator","inputs":[{"name":"spender","type":"address","internalType":"address"},{"name":"approved","type":"bool","internalType":"bool"}],"outputs":[{"name":"","type":"bool","internalType":"bool"}],"stateMutability":"nonpayable"},{"type":"function","name":"supportsInterface","inputs":[{"name":"interfaceId","type":"bytes4","internalType":"bytes4"}],"outputs":[{"name":"","type":"bool","internalType":"bool"}],"stateMutability":"view"},{"type":"function","name":"tokenURI","inputs":[{"name":"id","type":"uint256","internalType":"uint256"}],"outputs":[{"name":"","type":"string","internalType":"string"}],"stateMutability":"view"},{"type":"function","name":"transfer","inputs":[{"name":"receiver","type":"address","internalType":"address"},{"name":"id","type":"uint256","internalType":"uint256"},{"name":"amount","type":"uint256","internalType":"uint256"}],"outputs":[{"name":"","type":"bool","internalType":"bool"}],"stateMutability":"nonpayable"},{"type":"function","name":"transferFrom","inputs":[{"name":"sender","type":"address","internalType":"address"},{"name":"receiver","type":"address","internalType":"address"},{"name":"id","type":"uint256","internalType":"uint256"},{"name":"amount","type":"uint256","internalType":"uint256"}],"outputs":[{"name":"","type":"bool","internalType":"bool"}],"stateMutability":"nonpayable"},{"type":"event","name":"Approval","inputs":[{"name":"owner","type":"address","indexed":true,"internalType":"address"},{"name":"spender","type":"address","indexed":true,"internalType":"address"},{"name":"id","type":"uint256","indexed":true,"internalType":"uint256"},{"name":"amount","type":"uint256","indexed":false,"internalType":"uint256"}],"anonymous":false},{"type":"event","name":"ContractURIUpdated","inputs":[],"anonymous":false},{"type":"event","name":"OperatorSet","inputs":[{"name":"owner","type":"address","indexed":true,"internalType":"address"},{"name":"spender","type":"address","indexed":true,"internalType":"address"},{"name":"approved","type":"bool","indexed":false,"internalType":"bool"}],"anonymous":false},{"type":"event","name":"Transfer","inputs":[{"name":"caller","type":"address","indexed":false,"internalType":"address"},{"name":"sender","type":"address","indexed":true,"internalType":"address"},{"name":"receiver","type":"address","indexed":true,"internalType":"address"},{"name":"id","type":"uint256","indexed":true,"internalType":"uint256"},{"name":"amount","type":"uint256","indexed":false,"internalType":"uint256"}],"anonymous":false},{"type":"event","name":"URI","inputs":[{"name":"value","type":"string","indexed":false,"internalType":"string"},{"name":"id","type":"uint256","indexed":true,"internalType":"uint256"}],"anonymous":false},{"type":"error","name":"ERC6909InsufficientAllowance","inputs":[{"name":"spender","type":"address","internalType":"address"},{"name":"allowance","type":"uint256","internalType":"uint256"},{"name":"needed","type":"uint256","internalType":"uint256"},{"name":"id","type":"uint256","internalType":"uint256"}]},{"type":"error","name":"ERC6909InsufficientBalance","inputs":[{"name":"sender","type":"address","internalType":"address"},{"name":"balance","type":"uint256","internalType":"uint256"},{"name":"needed","type":"uint256","internalType":"uint256"},{"name":"id","type":"uint256","internalType":"uint256"}]},{"type":"error","name":"ERC6909InvalidApprover","inputs":[{"name":"approver","type":"address","internalType":"address"}]},{"type":"error","name":"ERC6909InvalidReceiver","inputs":[{"name":"receiver","type":"address","internalType":"address"}]},{"type":"error","name":"ERC6909InvalidSender","inputs":[{"name":"sender","type":"address","internalType":"address"}]},{"type":"error","name":"ERC6909InvalidSpender","inputs":[{"name":"spender","type":"address","internalType":"address"}]}],"bytecode":{"object":"0x6080604052348015600e575f5ffd5b506114c88061001c5f395ff3fe608060405234801561000f575f5ffd5b506004361061009b575f3560e01c8063598af9e711610064578063598af9e71461018f578063b6363cf2146101bf578063c87b56dd146101ef578063e8a3d4851461021f578063fe99049a1461023d5761009b565b8062fdd58e1461009f57806301ffc9a7146100cf578063095bcdb6146100ff578063426a84931461012f578063558a72971461015f575b5f5ffd5b6100b960048036038101906100b49190610fc5565b61026d565b6040516100c69190611012565b60405180910390f35b6100e960048036038101906100e49190611080565b6102c2565b6040516100f691906110c5565b60405180910390f35b610119600480360381019061011491906110de565b61033b565b60405161012691906110c5565b60405180910390f35b610149600480360381019061014491906110de565b61035a565b60405161015691906110c5565b60405180910390f35b61017960048036038101906101749190611158565b610379565b60405161018691906110c5565b60405180910390f35b6101a960048036038101906101a49190611196565b610396565b6040516101b69190611012565b60405180910390f35b6101d960048036038101906101d491906111e6565b610428565b6040516101e691906110c5565b60405180910390f35b61020960048036038101906102049190611224565b6104b6565b60405161021691906112bf565b60405180910390f35b610227610557565b60405161023491906112bf565b60405180910390f35b610257600480360381019061025291906112df565b6105e7565b60405161026491906110c5565b60405180910390f35b5f5f5f8473ffffffffffffffffffffffffffffffffffffffff1673ffffffffffffffffffffffffffffffffffffffff1681526020019081526020015f205f8381526020019081526020015f2054905092915050565b5f7f20d88258000000000000000000000000000000000000000000000000000000007bffffffffffffffffffffffffffffffffffffffffffffffffffffffff1916827bffffffffffffffffffffffffffffffffffffffffffffffffffffffff19161480610334575061033382610661565b5b9050919050565b5f61034f6103476106da565b8585856106e1565b600190509392505050565b5f61036e6103666106da565b8585856107d3565b600190509392505050565b5f61038c6103856106da565b84846109ab565b6001905092915050565b5f60025f8573ffffffffffffffffffffffffffffffffffffffff1673ffffffffffffffffffffffffffffffffffffffff1681526020019081526020015f205f8473ffffffffffffffffffffffffffffffffffffffff1673ffffffffffffffffffffffffffffffffffffffff1681526020019081526020015f205f8381526020019081526020015f205490509392505050565b5f60015f8473ffffffffffffffffffffffffffffffffffffffff1673ffffffffffffffffffffffffffffffffffffffff1681526020019081526020015f205f8373ffffffffffffffffffffffffffffffffffffffff1673ffffffffffffffffffffffffffffffffffffffff1681526020019081526020015f205f9054906101000a900460ff16905092915050565b606060045f8381526020019081526020015f2080546104d490611370565b80601f016020809104026020016040519081016040528092919081815260200182805461050090611370565b801561054b5780601f106105225761010080835404028352916020019161054b565b820191905f5260205f20905b81548152906001019060200180831161052e57829003601f168201915b50505050509050919050565b60606003805461056690611370565b80601f016020809104026020016040519081016040528092919081815260200182805461059290611370565b80156105dd5780601f106105b4576101008083540402835291602001916105dd565b820191905f5260205f20905b8154815290600101906020018083116105c057829003601f168201915b5050505050905090565b5f5f6105f16106da565b90508073ffffffffffffffffffffffffffffffffffffffff168673ffffffffffffffffffffffffffffffffffffffff161415801561063657506106348682610428565b155b156106485761064786828686610b84565b5b610654868686866106e1565b6001915050949350505050565b5f7f0f632fb3000000000000000000000000000000000000000000000000000000007bffffffffffffffffffffffffffffffffffffffffffffffffffffffff1916827bffffffffffffffffffffffffffffffffffffffffffffffffffffffff191614806106d357506106d282610c9b565b5b9050919050565b5f33905090565b5f73ffffffffffffffffffffffffffffffffffffffff168473ffffffffffffffffffffffffffffffffffffffff1603610751575f6040517fa435208000000000000000000000000000000000000000000000000000000000815260040161074891906113af565b60405180910390fd5b5f73ffffffffffffffffffffffffffffffffffffffff168373ffffffffffffffffffffffffffffffffffffffff16036107c1575f6040517fb8bbd6100000000000000000000000000000000000000000000000000000000081526004016107b891906113af565b60405180910390fd5b6107cd84848484610d04565b50505050565b5f73ffffffffffffffffffffffffffffffffffffffff168473ffffffffffffffffffffffffffffffffffffffff1603610843575f6040517fcc766a9800000000000000000000000000000000000000000000000000000000815260040161083a91906113af565b60405180910390fd5b5f73ffffffffffffffffffffffffffffffffffffffff168373ffffffffffffffffffffffffffffffffffffffff16036108b3575f6040517f6f65f4650000000000000000000000000000000000000000000000000000000081526004016108aa91906113af565b60405180910390fd5b8060025f8673ffffffffffffffffffffffffffffffffffffffff1673ffffffffffffffffffffffffffffffffffffffff1681526020019081526020015f205f8573ffffffffffffffffffffffffffffffffffffffff1673ffffffffffffffffffffffffffffffffffffffff1681526020019081526020015f205f8481526020019081526020015f2081905550818373ffffffffffffffffffffffffffffffffffffffff168573ffffffffffffffffffffffffffffffffffffffff167fb3fd5071835887567a0671151121894ddccc2842f1d10bedad13e0d17cace9a78460405161099d9190611012565b60405180910390a450505050565b5f73ffffffffffffffffffffffffffffffffffffffff168373ffffffffffffffffffffffffffffffffffffffff1603610a1b575f6040517fcc766a98000000000000000000000000000000000000000000000000000000008152600401610a1291906113af565b60405180910390fd5b5f73ffffffffffffffffffffffffffffffffffffffff168273ffffffffffffffffffffffffffffffffffffffff1603610a8b575f6040517f6f65f465000000000000000000000000000000000000000000000000000000008152600401610a8291906113af565b60405180910390fd5b8060015f8573ffffffffffffffffffffffffffffffffffffffff1673ffffffffffffffffffffffffffffffffffffffff1681526020019081526020015f205f8473ffffffffffffffffffffffffffffffffffffffff1673ffffffffffffffffffffffffffffffffffffffff1681526020019081526020015f205f6101000a81548160ff0219169083151502179055508173ffffffffffffffffffffffffffffffffffffffff168373ffffffffffffffffffffffffffffffffffffffff167fceb576d9f15e4e200fdb5096d64d5dfd667e16def20c1eefd14256d8e3faa26783604051610b7791906110c5565b60405180910390a3505050565b5f610b90858585610396565b90507fffffffffffffffffffffffffffffffffffffffffffffffffffffffffffffffff811015610c945781811015610c0557838183856040517f58a3fd5a000000000000000000000000000000000000000000000000000000008152600401610bfc94939291906113c8565b60405180910390fd5b81810360025f8773ffffffffffffffffffffffffffffffffffffffff1673ffffffffffffffffffffffffffffffffffffffff1681526020019081526020015f205f8673ffffffffffffffffffffffffffffffffffffffff1673ffffffffffffffffffffffffffffffffffffffff1681526020019081526020015f205f8581526020019081526020015f20819055505b5050505050565b5f7f01ffc9a7000000000000000000000000000000000000000000000000000000007bffffffffffffffffffffffffffffffffffffffffffffffffffffffff1916827bffffffffffffffffffffffffffffffffffffffffffffffffffffffff1916149050919050565b5f610d0d6106da565b90505f73ffffffffffffffffffffffffffffffffffffffff168573ffffffffffffffffffffffffffffffffffffffff1614610e30575f5f5f8773ffffffffffffffffffffffffffffffffffffffff1673ffffffffffffffffffffffffffffffffffffffff1681526020019081526020015f205f8581526020019081526020015f2054905082811015610ddc57858184866040517fb1b4fec0000000000000000000000000000000000000000000000000000000008152600401610dd394939291906113c8565b60405180910390fd5b8281035f5f8873ffffffffffffffffffffffffffffffffffffffff1673ffffffffffffffffffffffffffffffffffffffff1681526020019081526020015f205f8681526020019081526020015f2081905550505b5f73ffffffffffffffffffffffffffffffffffffffff168473ffffffffffffffffffffffffffffffffffffffff1614610ec557815f5f8673ffffffffffffffffffffffffffffffffffffffff1673ffffffffffffffffffffffffffffffffffffffff1681526020019081526020015f205f8581526020019081526020015f205f828254610ebd9190611438565b925050819055505b828473ffffffffffffffffffffffffffffffffffffffff168673ffffffffffffffffffffffffffffffffffffffff167f1b3d7edb2e9c0b0e7c525b20aaaef0f5940d2ed71663c7d39266ecafac7288598486604051610f2592919061146b565b60405180910390a45050505050565b5f5ffd5b5f73ffffffffffffffffffffffffffffffffffffffff82169050919050565b5f610f6182610f38565b9050919050565b610f7181610f57565b8114610f7b575f5ffd5b50565b5f81359050610f8c81610f68565b92915050565b5f819050919050565b610fa481610f92565b8114610fae575f5ffd5b50565b5f81359050610fbf81610f9b565b92915050565b5f5f60408385031215610fdb57610fda610f34565b5b5f610fe885828601610f7e565b9250506020610ff985828601610fb1565b9150509250929050565b61100c81610f92565b82525050565b5f6020820190506110255f830184611003565b92915050565b5f7fffffffff0000000000000000000000000000000000000000000000000000000082169050919050565b61105f8161102b565b8114611069575f5ffd5b50565b5f8135905061107a81611056565b92915050565b5f6020828403121561109557611094610f34565b5b5f6110a28482850161106c565b91505092915050565b5f8115159050919050565b6110bf816110ab565b82525050565b5f6020820190506110d85f8301846110b6565b92915050565b5f5f5f606084860312156110f5576110f4610f34565b5b5f61110286828701610f7e565b935050602061111386828701610fb1565b925050604061112486828701610fb1565b9150509250925092565b611137816110ab565b8114611141575f5ffd5b50565b5f813590506111528161112e565b92915050565b5f5f6040838503121561116e5761116d610f34565b5b5f61117b85828601610f7e565b925050602061118c85828601611144565b9150509250929050565b5f5f5f606084860312156111ad576111ac610f34565b5b5f6111ba86828701610f7e565b93505060206111cb86828701610f7e565b92505060406111dc86828701610fb1565b9150509250925092565b5f5f604083850312156111fc576111fb610f34565b5b5f61120985828601610f7e565b925050602061121a85828601610f7e565b9150509250929050565b5f6020828403121561123957611238610f34565b5b5f61124684828501610fb1565b91505092915050565b5f81519050919050565b5f82825260208201905092915050565b8281835e5f83830152505050565b5f601f19601f8301169050919050565b5f6112918261124f565b61129b8185611259565b93506112ab818560208601611269565b6112b481611277565b840191505092915050565b5f6020820190508181035f8301526112d78184611287565b905092915050565b5f5f5f5f608085870312156112f7576112f6610f34565b5b5f61130487828801610f7e565b945050602061131587828801610f7e565b935050604061132687828801610fb1565b925050606061133787828801610fb1565b91505092959194509250565b7f4e487b71000000000000000000000000000000000000000000000000000000005f52602260045260245ffd5b5f600282049050600182168061138757607f821691505b60208210810361139a57611399611343565b5b50919050565b6113a981610f57565b82525050565b5f6020820190506113c25f8301846113a0565b92915050565b5f6080820190506113db5f8301876113a0565b6113e86020830186611003565b6113f56040830185611003565b6114026060830184611003565b95945050505050565b7f4e487b71000000000000000000000000000000000000000000000000000000005f52601160045260245ffd5b5f61144282610f92565b915061144d83610f92565b92508282019050808211156114655761146461140b565b5b92915050565b5f60408201905061147e5f8301856113a0565b61148b6020830184611003565b939250505056fea26469706673582212203a3a6971f2d51eac89edbc4b49e97a638cb8f782e1bacb30f98fcd3e258e334c64736f6c634300081e0033","linkReferences":{}},"methodIdentifiers":{"allowance(address,address,uint256)":"598af9e7","approve(address,uint256,uint256)":"426a8493","balanceOf(address,uint256)":"00fdd58e","contractURI()":"e8a3d485","isOperator(address,address)":"b6363cf2","setOperator(address,bool)":"558a7297","supportsInterface(bytes4)":"01ffc9a7","tokenURI(uint256)":"c87b56dd","transfer(address,uint256,uint256)":"095bcdb6","transferFrom(address,address,uint256,uint256)":"fe99049a"},"id":348}