{"abi":[{"type":"constructor","inputs":[{"name":"enableReturn","type":"bool","internalType":"bool"},{"name":"enableApprove","type":"bool","internalType":"bool"}],"stateMutability":"nonpayable"},{"type":"function","name":"onFlashLoan","inputs":[{"name":"","type":"address","internalType":"address"},{"name":"token","type":"address","internalType":"address"},{"name":"amount","type":"uint256","internalType":"uint256"},{"name":"fee","type":"uint256","internalType":"uint256"},{"name":"data","type":"bytes","internalType":"bytes"}],"outputs":[{"name":"","type":"bytes32","internalType":"bytes32"}],"stateMutability":"nonpayable"},{"type":"event","name":"BalanceOf","inputs":[{"name":"token","type":"address","indexed":false,"internalType":"address"},{"name":"account","type":"address","indexed":false,"internalType":"address"},{"name":"value","type":"uint256","indexed":false,"internalType":"uint256"}],"anonymous":false},{"type":"event","name":"TotalSupply","inputs":[{"name":"token","type":"address","indexed":false,"internalType":"address"},{"name":"value","type":"uint256","indexed":false,"internalType":"uint256"}],"anonymous":false},{"type":"error","name":"AddressEmptyCode","inputs":[{"name":"target","type":"address","internalType":"address"}]},{"type":"error","name":"FailedCall","inputs":[]},{"type":"error","name":"InsufficientBalance","inputs":[{"name":"balance","type":"uint256","internalType":"uint256"},{"name":"needed","type":"uint256","internalType":"uint256"}]}],"bytecode":{"object":"0x60c060405234801561000f575f5ffd5b5060405161097738038061097783398181016040528101906100319190610089565b80151560808115158152505081151560a08115158152505050506100c7565b5f5ffd5b5f8115159050919050565b61006881610054565b8114610072575f5ffd5b50565b5f815190506100838161005f565b92915050565b5f5f6040838503121561009f5761009e610050565b5b5f6100ac85828601610075565b92505060206100bd85828601610075565b9150509250929050565b60805160a05161088f6100e85f395f6102f601525f610248015261088f5ff3fe608060405234801561000f575f5ffd5b5060043610610029575f3560e01c806323e30c8b1461002d575b5f5ffd5b610047600480360381019061004291906105d9565b61005d565b6040516100549190610687565b60405180910390f35b5f8573ffffffffffffffffffffffffffffffffffffffff163373ffffffffffffffffffffffffffffffffffffffff1614610095575f5ffd5b7f6ff2acfcb07917b1e80e53f0fe390b467b1151d15b38730a6e08397799c05a8b86308873ffffffffffffffffffffffffffffffffffffffff166370a08231306040518263ffffffff1660e01b81526004016100f191906106af565b602060405180830381865afa15801561010c573d5f5f3e3d5ffd5b505050506040513d601f19601f8201168201806040525081019061013091906106dc565b60405161013f93929190610716565b60405180910390a17f7249fd4c03cce09b30a13d77804b198e2647c0ccd59eadf4de4e7c16099badc5868773ffffffffffffffffffffffffffffffffffffffff166318160ddd6040518163ffffffff1660e01b8152600401602060405180830381865afa1580156101b2573d5f5f3e3d5ffd5b505050506040513d601f19601f820116820180604052508101906101d691906106dc565b6040516101e492919061074b565b60405180910390a15f838390501115610246576102448684848080601f0160208091040260200160405190810160405280939291908181526020018383808284375f81840152601f19601f8201169050808301925050505050505061034f565b505b7f0000000000000000000000000000000000000000000000000000000000000000156102f4578573ffffffffffffffffffffffffffffffffffffffff1663095ea7b3878688610295919061079f565b6040518363ffffffff1660e01b81526004016102b292919061074b565b6020604051808303815f875af11580156102ce573d5f5f3e3d5ffd5b505050506040513d601f19601f820116820180604052508101906102f29190610807565b505b7f0000000000000000000000000000000000000000000000000000000000000000610321575f5f1b610343565b7f439148f0bbc682ca079e46d6e2c2f0c1e3b820f1a291b069d8882abf8cf18dd95b90509695505050505050565b606061035c83835f610364565b905092915050565b6060814710156103ad5747826040517fcf4791810000000000000000000000000000000000000000000000000000000081526004016103a4929190610832565b60405180910390fd5b5f6103b985848661049e565b90508080156103ef57505f6103cc6104b4565b11806103ee57505f8573ffffffffffffffffffffffffffffffffffffffff163b115b5b15610404576103fc6104bb565b915050610497565b801561044757846040517f9996b31500000000000000000000000000000000000000000000000000000000815260040161043e91906106af565b60405180910390fd5b5f6104506104b4565b11156104635761045e6104d8565b610495565b6040517fd6bda27500000000000000000000000000000000000000000000000000000000815260040160405180910390fd5b505b9392505050565b5f5f5f83516020850186885af190509392505050565b5f3d905090565b606060405190503d81523d5f602083013e3d602001810160405290565b6040513d5f823e3d81fd5b5f5ffd5b5f5ffd5b5f73ffffffffffffffffffffffffffffffffffffffff82169050919050565b5f610514826104eb565b9050919050565b6105248161050a565b811461052e575f5ffd5b50565b5f8135905061053f8161051b565b92915050565b5f819050919050565b61055781610545565b8114610561575f5ffd5b50565b5f813590506105728161054e565b92915050565b5f5ffd5b5f5ffd5b5f5ffd5b5f5f83601f84011261059957610598610578565b5b8235905067ffffffffffffffff8111156105b6576105b561057c565b5b6020830191508360018202830111156105d2576105d1610580565b5b9250929050565b5f5f5f5f5f5f60a087890312156105f3576105f26104e3565b5b5f61060089828a01610531565b965050602061061189828a01610531565b955050604061062289828a01610564565b945050606061063389828a01610564565b935050608087013567ffffffffffffffff811115610654576106536104e7565b5b61066089828a01610584565b92509250509295509295509295565b5f819050919050565b6106818161066f565b82525050565b5f60208201905061069a5f830184610678565b92915050565b6106a98161050a565b82525050565b5f6020820190506106c25f8301846106a0565b92915050565b5f815190506106d68161054e565b92915050565b5f602082840312156106f1576106f06104e3565b5b5f6106fe848285016106c8565b91505092915050565b61071081610545565b82525050565b5f6060820190506107295f8301866106a0565b61073660208301856106a0565b6107436040830184610707565b949350505050565b5f60408201905061075e5f8301856106a0565b61076b6020830184610707565b9392505050565b7f4e487b71000000000000000000000000000000000000000000000000000000005f52601160045260245ffd5b5f6107a982610545565b91506107b483610545565b92508282019050808211156107cc576107cb610772565b5b92915050565b5f8115159050919050565b6107e6816107d2565b81146107f0575f5ffd5b50565b5f81519050610801816107dd565b92915050565b5f6020828403121561081c5761081b6104e3565b5b5f610829848285016107f3565b91505092915050565b5f6040820190506108455f830185610707565b6108526020830184610707565b939250505056fea26469706673582212205cf88a17675a870001953582ba1d68fe7ee845a50942c81fc185a6719526c2da64736f6c634300081e0033","linkReferences":{}},"methodIdentifiers":{"onFlashLoan(address,address,uint256,uint256,bytes)":"23e30c8b"},"id":210}