{"abi":[{"type":"function","name":"getValue","inputs":[{"name":"_number","type":"uint256","internalType":"uint256"}],"outputs":[{"name":"","type":"uint256","internalType":"uint256"}],"stateMutability":"view"},{"type":"function","name":"initialize","inputs":[],"outputs":[],"stateMutability":"nonpayable"},{"type":"function","name":"setValue","inputs":[{"name":"_number","type":"uint256","internalType":"uint256"}],"outputs":[],"stateMutability":"nonpayable"},{"type":"event","name":"Initialized","inputs":[{"name":"version","type":"uint64","indexed":false,"internalType":"uint64"}],"anonymous":false},{"type":"error","name":"InvalidInitialization","inputs":[]},{"type":"error","name":"NotInitializing","inputs":[]}],"bytecode":{"object":"0x6080604052348015600e575f5ffd5b506103f88061001c5f395ff3fe608060405234801561000f575f5ffd5b506004361061003f575f3560e01c80630ff4c9161461004357806355241077146100735780638129fc1c1461008f575b5f5ffd5b61005d600480360381019061005891906102a1565b610099565b60405161006a91906102db565b60405180910390f35b61008d600480360381019061008891906102a1565b6100ae565b005b6100976100b7565b005b5f815f546100a79190610321565b9050919050565b805f8190555050565b5f6100c061022e565b90505f815f0160089054906101000a900460ff161590505f825f015f9054906101000a900467ffffffffffffffff1690505f5f8267ffffffffffffffff161480156101085750825b90505f60018367ffffffffffffffff1614801561013b57505f3073ffffffffffffffffffffffffffffffffffffffff163b145b905081158015610149575080155b15610180576040517ff92ee8a900000000000000000000000000000000000000000000000000000000815260040160405180910390fd5b6001855f015f6101000a81548167ffffffffffffffff021916908367ffffffffffffffff16021790555083156101cd576001855f0160086101000a81548160ff0219169083151502179055505b8315610227575f855f0160086101000a81548160ff0219169083151502179055507fc7f505b2f371ae2175ee4913f4499e1f2633a7b5936321eed1cdaeb6115181d2600160405161021e91906103a9565b60405180910390a15b5050505050565b5f5f610238610241565b90508091505090565b5f7ff0c57e16840df040f15088dc2f81fe391c3923bec73e23a9662efc9c229c6a005f1b905090565b5f5ffd5b5f819050919050565b6102808161026e565b811461028a575f5ffd5b50565b5f8135905061029b81610277565b92915050565b5f602082840312156102b6576102b561026a565b5b5f6102c38482850161028d565b91505092915050565b6102d58161026e565b82525050565b5f6020820190506102ee5f8301846102cc565b92915050565b7f4e487b71000000000000000000000000000000000000000000000000000000005f52601160045260245ffd5b5f61032b8261026e565b91506103368361026e565b925082820190508082111561034e5761034d6102f4565b5b92915050565b5f819050919050565b5f67ffffffffffffffff82169050919050565b5f819050919050565b5f61039361038e61038984610354565b610370565b61035d565b9050919050565b6103a381610379565b82525050565b5f6020820190506103bc5f83018461039a565b9291505056fea2646970667358221220616e0de1eeebe544c01fc63fb69366808cc2ac88545bd3263f3683627cff3dbf64736f6c634300081e0033","linkReferences":{}},"methodIdentifiers":{"getValue(uint256)":"0ff4c916","initialize()":"8129fc1c","setValue(uint256)":"55241077"},"id":221}