{"abi":[{"type":"function","name":"initialize","inputs":[],"outputs":[],"stateMutability":"nonpayable"},{"type":"function","name":"setValue","inputs":[{"name":"_number","type":"uint256","internalType":"uint256"}],"outputs":[],"stateMutability":"nonpayable"},{"type":"event","name":"Initialized","inputs":[{"name":"version","type":"uint64","indexed":false,"internalType":"uint64"}],"anonymous":false},{"type":"error","name":"InvalidInitialization","inputs":[]},{"type":"error","name":"NotInitializing","inputs":[]}],"bytecode":{"object":"0x6080604052348015600e575f5ffd5b506103208061001c5f395ff3fe608060405234801561000f575f5ffd5b5060043610610034575f3560e01c806355241077146100385780638129fc1c14610054575b5f5ffd5b610052600480360381019061004d9190610251565b61005e565b005b61005c610067565b005b805f8190555050565b5f6100706101de565b90505f815f0160089054906101000a900460ff161590505f825f015f9054906101000a900467ffffffffffffffff1690505f5f8267ffffffffffffffff161480156100b85750825b90505f60018367ffffffffffffffff161480156100eb57505f3073ffffffffffffffffffffffffffffffffffffffff163b145b9050811580156100f9575080155b15610130576040517ff92ee8a900000000000000000000000000000000000000000000000000000000815260040160405180910390fd5b6001855f015f6101000a81548167ffffffffffffffff021916908367ffffffffffffffff160217905550831561017d576001855f0160086101000a81548160ff0219169083151502179055505b83156101d7575f855f0160086101000a81548160ff0219169083151502179055507fc7f505b2f371ae2175ee4913f4499e1f2633a7b5936321eed1cdaeb6115181d260016040516101ce91906102d1565b60405180910390a15b5050505050565b5f5f6101e86101f1565b90508091505090565b5f7ff0c57e16840df040f15088dc2f81fe391c3923bec73e23a9662efc9c229c6a005f1b905090565b5f5ffd5b5f819050919050565b6102308161021e565b811461023a575f5ffd5b50565b5f8135905061024b81610227565b92915050565b5f602082840312156102665761026561021a565b5b5f6102738482850161023d565b91505092915050565b5f819050919050565b5f67ffffffffffffffff82169050919050565b5f819050919050565b5f6102bb6102b66102b18461027c565b610298565b610285565b9050919050565b6102cb816102a1565b82525050565b5f6020820190506102e45f8301846102c2565b9291505056fea26469706673582212206c422e9439f2fdf028efaae1ef23c379415d2e1f93ccf95d64b84be7e12afcb464736f6c634300081e0033","linkReferences":{}},"methodIdentifiers":{"initialize()":"8129fc1c","setValue(uint256)":"55241077"},"id":221}