{"abi":[{"type":"function","name":"initialize","inputs":[],"outputs":[],"stateMutability":"nonpayable"},{"type":"function","name":"initialize","inputs":[{"name":"value","type":"uint256","internalType":"uint256"}],"outputs":[],"stateMutability":"nonpayable"},{"type":"function","name":"isHuman","inputs":[],"outputs":[{"name":"","type":"bool","internalType":"bool"}],"stateMutability":"view"},{"type":"function","name":"mother","inputs":[],"outputs":[{"name":"","type":"uint256","internalType":"uint256"}],"stateMutability":"view"},{"type":"event","name":"Initialized","inputs":[{"name":"version","type":"uint64","indexed":false,"internalType":"uint64"}],"anonymous":false},{"type":"error","name":"InvalidInitialization","inputs":[]},{"type":"error","name":"NotInitializing","inputs":[]}],"bytecode":{"object":"0x6080604052348015600e575f5ffd5b506106258061001c5f395ff3fe608060405234801561000f575f5ffd5b506004361061004a575f3560e01c80634a6c9db61461004e5780638129fc1c1461006c578063ed7dfee314610076578063fe4b84df14610094575b5f5ffd5b6100566100b0565b60405161006391906104de565b60405180910390f35b6100746100c1565b005b61007e610240565b60405161008b919061050f565b60405180910390f35b6100ae60048036038101906100a99190610556565b610246565b005b5f5f9054906101000a900460ff1681565b5f6100ca6103c7565b90505f815f0160089054906101000a900460ff161590505f825f015f9054906101000a900467ffffffffffffffff1690505f5f8267ffffffffffffffff161480156101125750825b90505f60018367ffffffffffffffff1614801561014557505f3073ffffffffffffffffffffffffffffffffffffffff163b145b905081158015610153575080155b1561018a576040517ff92ee8a900000000000000000000000000000000000000000000000000000000815260040160405180910390fd5b6001855f015f6101000a81548167ffffffffffffffff021916908367ffffffffffffffff16021790555083156101d7576001855f0160086101000a81548160ff0219169083151502179055505b6101df6103da565b8315610239575f855f0160086101000a81548160ff0219169083151502179055507fc7f505b2f371ae2175ee4913f4499e1f2633a7b5936321eed1cdaeb6115181d2600160405161023091906105d6565b60405180910390a15b5050505050565b60015481565b5f61024f6103c7565b90505f815f0160089054906101000a900460ff161590505f825f015f9054906101000a900467ffffffffffffffff1690505f5f8267ffffffffffffffff161480156102975750825b90505f60018367ffffffffffffffff161480156102ca57505f3073ffffffffffffffffffffffffffffffffffffffff163b145b9050811580156102d8575080155b1561030f576040517ff92ee8a900000000000000000000000000000000000000000000000000000000815260040160405180910390fd5b6001855f015f6101000a81548167ffffffffffffffff021916908367ffffffffffffffff160217905550831561035c576001855f0160086101000a81548160ff0219169083151502179055505b610365866103ec565b83156103bf575f855f0160086101000a81548160ff0219169083151502179055507fc7f505b2f371ae2175ee4913f4499e1f2633a7b5936321eed1cdaeb6115181d260016040516103b691906105d6565b60405180910390a15b505050505050565b5f5f6103d1610408565b90508091505090565b6103e2610431565b6103ea610471565b565b6103f4610431565b6103fc6103da565b61040581610494565b50565b5f7ff0c57e16840df040f15088dc2f81fe391c3923bec73e23a9662efc9c229c6a005f1b905090565b6104396104a6565b61046f576040517fd7e6bcf800000000000000000000000000000000000000000000000000000000815260040160405180910390fd5b565b610479610431565b60015f5f6101000a81548160ff021916908315150217905550565b61049c610431565b8060018190555050565b5f6104af6103c7565b5f0160089054906101000a900460ff16905090565b5f8115159050919050565b6104d8816104c4565b82525050565b5f6020820190506104f15f8301846104cf565b92915050565b5f819050919050565b610509816104f7565b82525050565b5f6020820190506105225f830184610500565b92915050565b5f5ffd5b610535816104f7565b811461053f575f5ffd5b50565b5f813590506105508161052c565b92915050565b5f6020828403121561056b5761056a610528565b5b5f61057884828501610542565b91505092915050565b5f819050919050565b5f67ffffffffffffffff82169050919050565b5f819050919050565b5f6105c06105bb6105b684610581565b61059d565b61058a565b9050919050565b6105d0816105a6565b82525050565b5f6020820190506105e95f8301846105c7565b9291505056fea2646970667358221220dd1ebc49f1ba819a687dd470d8be938d3439b63b06efd138a1aab7e312093fd964736f6c634300081e0033","linkReferences":{}},"methodIdentifiers":{"initialize()":"8129fc1c","initialize(uint256)":"fe4b84df","isHuman()":"4a6c9db6","mother()":"ed7dfee3"},"id":216}