{"abi":[{"type":"function","name":"father","inputs":[],"outputs":[{"name":"","type":"uint256","internalType":"uint256"}],"stateMutability":"view"},{"type":"function","name":"gramps","inputs":[],"outputs":[{"name":"","type":"string","internalType":"string"}],"stateMutability":"view"},{"type":"function","name":"initialize","inputs":[],"outputs":[],"stateMutability":"nonpayable"},{"type":"function","name":"initialize","inputs":[{"name":"_gramps","type":"string","internalType":"string"},{"name":"_father","type":"uint256","internalType":"uint256"}],"outputs":[],"stateMutability":"nonpayable"},{"type":"function","name":"initialize","inputs":[{"name":"value","type":"string","internalType":"string"}],"outputs":[],"stateMutability":"nonpayable"},{"type":"function","name":"isHuman","inputs":[],"outputs":[{"name":"","type":"bool","internalType":"bool"}],"stateMutability":"view"},{"type":"event","name":"Initialized","inputs":[{"name":"version","type":"uint64","indexed":false,"internalType":"uint64"}],"anonymous":false},{"type":"error","name":"InvalidInitialization","inputs":[]},{"type":"error","name":"NotInitializing","inputs":[]}],"bytecode":{"object":"0x6080604052348015600e575f5ffd5b50610dbf8061001c5f395ff3fe608060405234801561000f575f5ffd5b5060043610610060575f3560e01c80631c8aca3b146100645780634a6c9db6146100825780638129fc1c146100a05780638beaf7d7146100aa578063f62d1888146100c6578063fa39851f146100e2575b5f5ffd5b61006c610100565b6040516100799190610774565b60405180910390f35b61008a610106565b60405161009791906107a7565b60405180910390f35b6100a8610117565b005b6100c460048036038101906100bf9190610937565b610296565b005b6100e060048036038101906100db9190610991565b610419565b005b6100ea61059a565b6040516100f79190610a38565b60405180910390f35b60025481565b5f5f9054906101000a900460ff1681565b5f610120610626565b90505f815f0160089054906101000a900460ff161590505f825f015f9054906101000a900467ffffffffffffffff1690505f5f8267ffffffffffffffff161480156101685750825b90505f60018367ffffffffffffffff1614801561019b57505f3073ffffffffffffffffffffffffffffffffffffffff163b145b9050811580156101a9575080155b156101e0576040517ff92ee8a900000000000000000000000000000000000000000000000000000000815260040160405180910390fd5b6001855f015f6101000a81548167ffffffffffffffff021916908367ffffffffffffffff160217905550831561022d576001855f0160086101000a81548160ff0219169083151502179055505b610235610639565b831561028f575f855f0160086101000a81548160ff0219169083151502179055507fc7f505b2f371ae2175ee4913f4499e1f2633a7b5936321eed1cdaeb6115181d260016040516102869190610aad565b60405180910390a15b5050505050565b5f61029f610626565b90505f815f0160089054906101000a900460ff161590505f825f015f9054906101000a900467ffffffffffffffff1690505f5f8267ffffffffffffffff161480156102e75750825b90505f60018367ffffffffffffffff1614801561031a57505f3073ffffffffffffffffffffffffffffffffffffffff163b145b905081158015610328575080155b1561035f576040517ff92ee8a900000000000000000000000000000000000000000000000000000000815260040160405180910390fd5b6001855f015f6101000a81548167ffffffffffffffff021916908367ffffffffffffffff16021790555083156103ac576001855f0160086101000a81548160ff0219169083151502179055505b6103b6878761064b565b8315610410575f855f0160086101000a81548160ff0219169083151502179055507fc7f505b2f371ae2175ee4913f4499e1f2633a7b5936321eed1cdaeb6115181d260016040516104079190610aad565b60405180910390a15b50505050505050565b5f610422610626565b90505f815f0160089054906101000a900460ff161590505f825f015f9054906101000a900467ffffffffffffffff1690505f5f8267ffffffffffffffff1614801561046a5750825b90505f60018367ffffffffffffffff1614801561049d57505f3073ffffffffffffffffffffffffffffffffffffffff163b145b9050811580156104ab575080155b156104e2576040517ff92ee8a900000000000000000000000000000000000000000000000000000000815260040160405180910390fd5b6001855f015f6101000a81548167ffffffffffffffff021916908367ffffffffffffffff160217905550831561052f576001855f0160086101000a81548160ff0219169083151502179055505b61053886610669565b8315610592575f855f0160086101000a81548160ff0219169083151502179055507fc7f505b2f371ae2175ee4913f4499e1f2633a7b5936321eed1cdaeb6115181d260016040516105899190610aad565b60405180910390a15b505050505050565b600180546105a790610af3565b80601f01602080910402602001604051908101604052809291908181526020018280546105d390610af3565b801561061e5780601f106105f55761010080835404028352916020019161061e565b820191905f5260205f20905b81548152906001019060200180831161060157829003601f168201915b505050505081565b5f5f610630610685565b90508091505090565b6106416106ae565b6106496106ee565b565b6106536106ae565b61065c82610669565b61066581610711565b5050565b6106716106ae565b610679610639565b61068281610723565b50565b5f7ff0c57e16840df040f15088dc2f81fe391c3923bec73e23a9662efc9c229c6a005f1b905090565b6106b661073e565b6106ec576040517fd7e6bcf800000000000000000000000000000000000000000000000000000000815260040160405180910390fd5b565b6106f66106ae565b60015f5f6101000a81548160ff021916908315150217905550565b6107196106ae565b8060028190555050565b61072b6106ae565b806001908161073a9190610cba565b5050565b5f610747610626565b5f0160089054906101000a900460ff16905090565b5f819050919050565b61076e8161075c565b82525050565b5f6020820190506107875f830184610765565b92915050565b5f8115159050919050565b6107a18161078d565b82525050565b5f6020820190506107ba5f830184610798565b92915050565b5f604051905090565b5f5ffd5b5f5ffd5b5f5ffd5b5f5ffd5b5f601f19601f8301169050919050565b7f4e487b71000000000000000000000000000000000000000000000000000000005f52604160045260245ffd5b61081f826107d9565b810181811067ffffffffffffffff8211171561083e5761083d6107e9565b5b80604052505050565b5f6108506107c0565b905061085c8282610816565b919050565b5f67ffffffffffffffff82111561087b5761087a6107e9565b5b610884826107d9565b9050602081019050919050565b828183375f83830152505050565b5f6108b16108ac84610861565b610847565b9050828152602081018484840111156108cd576108cc6107d5565b5b6108d8848285610891565b509392505050565b5f82601f8301126108f4576108f36107d1565b5b813561090484826020860161089f565b91505092915050565b6109168161075c565b8114610920575f5ffd5b50565b5f813590506109318161090d565b92915050565b5f5f6040838503121561094d5761094c6107c9565b5b5f83013567ffffffffffffffff81111561096a576109696107cd565b5b610976858286016108e0565b925050602061098785828601610923565b9150509250929050565b5f602082840312156109a6576109a56107c9565b5b5f82013567ffffffffffffffff8111156109c3576109c26107cd565b5b6109cf848285016108e0565b91505092915050565b5f81519050919050565b5f82825260208201905092915050565b8281835e5f83830152505050565b5f610a0a826109d8565b610a1481856109e2565b9350610a248185602086016109f2565b610a2d816107d9565b840191505092915050565b5f6020820190508181035f830152610a508184610a00565b905092915050565b5f819050919050565b5f67ffffffffffffffff82169050919050565b5f819050919050565b5f610a97610a92610a8d84610a58565b610a74565b610a61565b9050919050565b610aa781610a7d565b82525050565b5f602082019050610ac05f830184610a9e565b92915050565b7f4e487b71000000000000000000000000000000000000000000000000000000005f52602260045260245ffd5b5f6002820490506001821680610b0a57607f821691505b602082108103610b1d57610b1c610ac6565b5b50919050565b5f819050815f5260205f209050919050565b5f6020601f8301049050919050565b5f82821b905092915050565b5f60088302610b7f7fffffffffffffffffffffffffffffffffffffffffffffffffffffffffffffffff82610b44565b610b898683610b44565b95508019841693508086168417925050509392505050565b5f610bbb610bb6610bb18461075c565b610a74565b61075c565b9050919050565b5f819050919050565b610bd483610ba1565b610be8610be082610bc2565b848454610b50565b825550505050565b5f5f905090565b610bff610bf0565b610c0a818484610bcb565b505050565b5b81811015610c2d57610c225f82610bf7565b600181019050610c10565b5050565b601f821115610c7257610c4381610b23565b610c4c84610b35565b81016020851015610c5b578190505b610c6f610c6785610b35565b830182610c0f565b50505b505050565b5f82821c905092915050565b5f610c925f1984600802610c77565b1980831691505092915050565b5f610caa8383610c83565b9150826002028217905092915050565b610cc3826109d8565b67ffffffffffffffff811115610cdc57610cdb6107e9565b5b610ce68254610af3565b610cf1828285610c31565b5f60209050601f831160018114610d22575f8415610d10578287015190505b610d1a8582610c9f565b865550610d81565b601f198416610d3086610b23565b5f5b82811015610d5757848901518255600182019150602085019450602081019050610d32565b86831015610d745784890151610d70601f891682610c83565b8355505b6001600288020188555050505b50505050505056fea264697066735822122072ad2a00ac8917e8db079e4b17c2726b7bbb9e240ea8c6c3f19694016a056ca564736f6c634300081e0033","linkReferences":{}},"methodIdentifiers":{"father()":"1c8aca3b","gramps()":"fa39851f","initialize()":"8129fc1c","initialize(string)":"f62d1888","initialize(string,uint256)":"8beaf7d7","isHuman()":"4a6c9db6"},"id":216}