{"abi":[{"type":"function","name":"gramps","inputs":[],"outputs":[{"name":"","type":"string","internalType":"string"}],"stateMutability":"view"},{"type":"function","name":"initialize","inputs":[],"outputs":[],"stateMutability":"nonpayable"},{"type":"function","name":"initialize","inputs":[{"name":"value","type":"string","internalType":"string"}],"outputs":[],"stateMutability":"nonpayable"},{"type":"function","name":"isHuman","inputs":[],"outputs":[{"name":"","type":"bool","internalType":"bool"}],"stateMutability":"view"},{"type":"event","name":"Initialized","inputs":[{"name":"version","type":"uint64","indexed":false,"internalType":"uint64"}],"anonymous":false},{"type":"error","name":"InvalidInitialization","inputs":[]},{"type":"error","name":"NotInitializing","inputs":[]}],"bytecode":{"object":"0x6080604052348015600e575f5ffd5b50610b0a8061001c5f395ff3fe608060405234801561000f575f5ffd5b506004361061004a575f3560e01c80634a6c9db61461004e5780638129fc1c1461006c578063f62d188814610076578063fa39851f14610092575b5f5ffd5b6100566100b0565b604051610063919061056d565b60405180910390f35b6100746100c1565b005b610090600480360381019061008b91906106d3565b610240565b005b61009a6103c1565b6040516100a7919061077a565b60405180910390f35b5f5f9054906101000a900460ff1681565b5f6100ca61044d565b90505f815f0160089054906101000a900460ff161590505f825f015f9054906101000a900467ffffffffffffffff1690505f5f8267ffffffffffffffff161480156101125750825b90505f60018367ffffffffffffffff1614801561014557505f3073ffffffffffffffffffffffffffffffffffffffff163b145b905081158015610153575080155b1561018a576040517ff92ee8a900000000000000000000000000000000000000000000000000000000815260040160405180910390fd5b6001855f015f6101000a81548167ffffffffffffffff021916908367ffffffffffffffff16021790555083156101d7576001855f0160086101000a81548160ff0219169083151502179055505b6101df610460565b8315610239575f855f0160086101000a81548160ff0219169083151502179055507fc7f505b2f371ae2175ee4913f4499e1f2633a7b5936321eed1cdaeb6115181d2600160405161023091906107ef565b60405180910390a15b5050505050565b5f61024961044d565b90505f815f0160089054906101000a900460ff161590505f825f015f9054906101000a900467ffffffffffffffff1690505f5f8267ffffffffffffffff161480156102915750825b90505f60018367ffffffffffffffff161480156102c457505f3073ffffffffffffffffffffffffffffffffffffffff163b145b9050811580156102d2575080155b15610309576040517ff92ee8a900000000000000000000000000000000000000000000000000000000815260040160405180910390fd5b6001855f015f6101000a81548167ffffffffffffffff021916908367ffffffffffffffff1602179055508315610356576001855f0160086101000a81548160ff0219169083151502179055505b61035f86610472565b83156103b9575f855f0160086101000a81548160ff0219169083151502179055507fc7f505b2f371ae2175ee4913f4499e1f2633a7b5936321eed1cdaeb6115181d260016040516103b091906107ef565b60405180910390a15b505050505050565b600180546103ce90610835565b80601f01602080910402602001604051908101604052809291908181526020018280546103fa90610835565b80156104455780601f1061041c57610100808354040283529160200191610445565b820191905f5260205f20905b81548152906001019060200180831161042857829003601f168201915b505050505081565b5f5f61045761048e565b90508091505090565b6104686104b7565b6104706104f7565b565b61047a6104b7565b610482610460565b61048b8161051a565b50565b5f7ff0c57e16840df040f15088dc2f81fe391c3923bec73e23a9662efc9c229c6a005f1b905090565b6104bf610535565b6104f5576040517fd7e6bcf800000000000000000000000000000000000000000000000000000000815260040160405180910390fd5b565b6104ff6104b7565b60015f5f6101000a81548160ff021916908315150217905550565b6105226104b7565b80600190816105319190610a05565b5050565b5f61053e61044d565b5f0160089054906101000a900460ff16905090565b5f8115159050919050565b61056781610553565b82525050565b5f6020820190506105805f83018461055e565b92915050565b5f604051905090565b5f5ffd5b5f5ffd5b5f5ffd5b5f5ffd5b5f601f19601f8301169050919050565b7f4e487b71000000000000000000000000000000000000000000000000000000005f52604160045260245ffd5b6105e58261059f565b810181811067ffffffffffffffff82111715610604576106036105af565b5b80604052505050565b5f610616610586565b905061062282826105dc565b919050565b5f67ffffffffffffffff821115610641576106406105af565b5b61064a8261059f565b9050602081019050919050565b828183375f83830152505050565b5f61067761067284610627565b61060d565b9050828152602081018484840111156106935761069261059b565b5b61069e848285610657565b509392505050565b5f82601f8301126106ba576106b9610597565b5b81356106ca848260208601610665565b91505092915050565b5f602082840312156106e8576106e761058f565b5b5f82013567ffffffffffffffff81111561070557610704610593565b5b610711848285016106a6565b91505092915050565b5f81519050919050565b5f82825260208201905092915050565b8281835e5f83830152505050565b5f61074c8261071a565b6107568185610724565b9350610766818560208601610734565b61076f8161059f565b840191505092915050565b5f6020820190508181035f8301526107928184610742565b905092915050565b5f819050919050565b5f67ffffffffffffffff82169050919050565b5f819050919050565b5f6107d96107d46107cf8461079a565b6107b6565b6107a3565b9050919050565b6107e9816107bf565b82525050565b5f6020820190506108025f8301846107e0565b92915050565b7f4e487b71000000000000000000000000000000000000000000000000000000005f52602260045260245ffd5b5f600282049050600182168061084c57607f821691505b60208210810361085f5761085e610808565b5b50919050565b5f819050815f5260205f209050919050565b5f6020601f8301049050919050565b5f82821b905092915050565b5f600883026108c17fffffffffffffffffffffffffffffffffffffffffffffffffffffffffffffffff82610886565b6108cb8683610886565b95508019841693508086168417925050509392505050565b5f819050919050565b5f6109066109016108fc846108e3565b6107b6565b6108e3565b9050919050565b5f819050919050565b61091f836108ec565b61093361092b8261090d565b848454610892565b825550505050565b5f5f905090565b61094a61093b565b610955818484610916565b505050565b5b818110156109785761096d5f82610942565b60018101905061095b565b5050565b601f8211156109bd5761098e81610865565b61099784610877565b810160208510156109a6578190505b6109ba6109b285610877565b83018261095a565b50505b505050565b5f82821c905092915050565b5f6109dd5f19846008026109c2565b1980831691505092915050565b5f6109f583836109ce565b9150826002028217905092915050565b610a0e8261071a565b67ffffffffffffffff811115610a2757610a266105af565b5b610a318254610835565b610a3c82828561097c565b5f60209050601f831160018114610a6d575f8415610a5b578287015190505b610a6585826109ea565b865550610acc565b601f198416610a7b86610865565b5f5b82811015610aa257848901518255600182019150602085019450602081019050610a7d565b86831015610abf5784890151610abb601f8916826109ce565b8355505b6001600288020188555050505b50505050505056fea2646970667358221220b26f1a83d0708636ead4b6694c050cb007a4329c131083f1a5e7968b17e503c664736f6c634300081e0033","linkReferences":{}},"methodIdentifiers":{"gramps()":"fa39851f","initialize()":"8129fc1c","initialize(string)":"f62d1888","isHuman()":"4a6c9db6"},"id":216}