{"abi":[{"type":"function","name":"multicall","inputs":[{"name":"data","type":"bytes[]","internalType":"bytes[]"}],"outputs":[{"name":"results","type":"bytes[]","internalType":"bytes[]"}],"stateMutability":"nonpayable"},{"type":"function","name":"tloadAddress","inputs":[{"name":"slot","type":"bytes32","internalType":"bytes32"}],"outputs":[],"stateMutability":"nonpayable"},{"type":"function","name":"tloadBoolean","inputs":[{"name":"slot","type":"bytes32","internalType":"bytes32"}],"outputs":[],"stateMutability":"nonpayable"},{"type":"function","name":"tloadBytes32","inputs":[{"name":"slot","type":"bytes32","internalType":"bytes32"}],"outputs":[],"stateMutability":"nonpayable"},{"type":"function","name":"tloadInt256","inputs":[{"name":"slot","type":"bytes32","internalType":"bytes32"}],"outputs":[],"stateMutability":"nonpayable"},{"type":"function","name":"tloadUint256","inputs":[{"name":"slot","type":"bytes32","internalType":"bytes32"}],"outputs":[],"stateMutability":"nonpayable"},{"type":"function","name":"tstore","inputs":[{"name":"slot","type":"bytes32","internalType":"bytes32"},{"name":"value","type":"address","internalType":"address"}],"outputs":[],"stateMutability":"nonpayable"},{"type":"function","name":"tstore","inputs":[{"name":"slot","type":"bytes32","internalType":"bytes32"},{"name":"value","type":"bool","internalType":"bool"}],"outputs":[],"stateMutability":"nonpayable"},{"type":"function","name":"tstore","inputs":[{"name":"slot","type":"bytes32","internalType":"bytes32"},{"name":"value","type":"uint256","internalType":"uint256"}],"outputs":[],"stateMutability":"nonpayable"},{"type":"function","name":"tstore","inputs":[{"name":"slot","type":"bytes32","internalType":"bytes32"},{"name":"value","type":"int256","internalType":"int256"}],"outputs":[],"stateMutability":"nonpayable"},{"type":"function","name":"tstore","inputs":[{"name":"slot","type":"bytes32","internalType":"bytes32"},{"name":"value","type":"bytes32","internalType":"bytes32"}],"outputs":[],"stateMutability":"nonpayable"},{"type":"event","name":"AddressValue","inputs":[{"name":"slot","type":"bytes32","indexed":false,"internalType":"bytes32"},{"name":"value","type":"address","indexed":false,"internalType":"address"}],"anonymous":false},{"type":"event","name":"BooleanValue","inputs":[{"name":"slot","type":"bytes32","indexed":false,"internalType":"bytes32"},{"name":"value","type":"bool","indexed":false,"internalType":"bool"}],"anonymous":false},{"type":"event","name":"Bytes32Value","inputs":[{"name":"slot","type":"bytes32","indexed":false,"internalType":"bytes32"},{"name":"value","type":"bytes32","indexed":false,"internalType":"bytes32"}],"anonymous":false},{"type":"event","name":"Int256Value","inputs":[{"name":"slot","type":"bytes32","indexed":false,"internalType":"bytes32"},{"name":"value","type":"int256","indexed":false,"internalType":"int256"}],"anonymous":false},{"type":"event","name":"Uint256Value","inputs":[{"name":"slot","type":"bytes32","indexed":false,"internalType":"bytes32"},{"name":"value","type":"uint256","indexed":false,"internalType":"uint256"}],"anonymous":false},{"type":"error","name":"AddressEmptyCode","inputs":[{"name":"target","type":"address","internalType":"address"}]},{"type":"error","name":"FailedCall","inputs":[]}],"bytecode":{"object":"0x6080604052348015600e575f5ffd5b50610f8f8061001c5f395ff3fe608060405234801561000f575f5ffd5b50600436106100a7575f3560e01c806385daa7b41161006f57806385daa7b414610137578063938ee4c814610153578063ac9650d81461016f578063ba96e3ea1461019f578063bd4522bb146101bb578063d25bb762146101d7576100a7565b806320656eb6146100ab5780632ddc1e8f146100c75780634912c97c146100e35780635d6f2b93146100ff578063824bd70b1461011b575b5f5ffd5b6100c560048036038101906100c091906107ea565b6101f3565b005b6100e160048036038101906100dc919061086f565b61023f565b005b6100fd60048036038101906100f891906107ea565b61025e565b005b610119600480360381019061011491906108e2565b6102aa565b005b61013560048036038101906101309190610953565b6102c9565b005b610151600480360381019061014c91906107ea565b6102e8565b005b61016d600480360381019061016891906109c4565b610334565b005b61018960048036038101906101849190610a63565b610353565b6040516101969190610bd9565b60405180910390f35b6101b960048036038101906101b491906107ea565b610534565b005b6101d560048036038101906101d091906107ea565b610580565b005b6101f160048036038101906101ec9190610bf9565b6105cc565b005b7f71eecf44688d15d894339e18504cad8f6634d454a9496b065503cebfac1f9b6381610226610221846105eb565b6105f4565b604051610234929190610c55565b60405180910390a150565b61025a8161024c846105fe565b61060790919063ffffffff16565b5050565b7fbf9aaddfa8a1b987c7c32a9295dea19fb7b4e3b5b05f05c831f3634ef90e1a5e8161029161028c8461060e565b610617565b60405161029f929190610c7c565b60405180910390a150565b6102c5816102b784610621565b61062a90919063ffffffff16565b5050565b6102e4816102d684610631565b61063a90919063ffffffff16565b5050565b7f3d52ff56f17a99f5b126ffe58fc0ff5637819d2f2390fcb898ca339d5c7af2b38161031b61031684610621565b610641565b604051610329929190610cb2565b60405180910390a150565b61034f81610341846105eb565b61064b90919063ffffffff16565b5050565b60605f61035e610652565b73ffffffffffffffffffffffffffffffffffffffff163373ffffffffffffffffffffffffffffffffffffffff16146103fe575f3661039a610659565b5f3690506103a89190610d06565b9080926103b793929190610d41565b8080601f0160208091040260200160405190810160405280939291908181526020018383808284375f81840152601f19601f8201169050808301925050505050505061044c565b5f67ffffffffffffffff81111561041857610417610d7b565b5b6040519080825280601f01601f19166020018201604052801561044a5781602001600182028036833780820191505090505b505b90508383905067ffffffffffffffff81111561046b5761046a610d7b565b5b60405190808252806020026020018201604052801561049e57816020015b60608152602001906001900390816104895790505b5091505f5f90505b8484905081101561052c57610501308686848181106104c8576104c7610da8565b5b90506020028101906104da9190610de1565b856040516020016104ed93929190610eaf565b604051602081830303815290604052610660565b83828151811061051457610513610da8565b5b602002602001018190525080806001019150506104a6565b505092915050565b7f28adb451742b081abc04788984120a5256bb9cb76cd5b61a181c8a088c08e49d81610567610562846105fe565b610751565b604051610575929190610ee3565b60405180910390a150565b7faa96f8aa155cc584d3b4080ac3c322f1347d2b82ac812e67a8ee926d3057a198816105b36105ae84610631565b61075b565b6040516105c1929190610f19565b60405180910390a150565b6105e7816105d98461060e565b61076590919063ffffffff16565b5050565b5f819050919050565b5f815c9050919050565b5f819050919050565b80825d5050565b5f819050919050565b5f815c9050919050565b5f819050919050565b80825d5050565b5f819050919050565b80825d5050565b5f815c9050919050565b80825d5050565b5f33905090565b5f5f905090565b60605f61066d848461076c565b90508080156106a357505f610680610780565b11806106a257505f8473ffffffffffffffffffffffffffffffffffffffff163b115b5b156106b8576106b0610787565b91505061074b565b80156106fb57836040517f9996b3150000000000000000000000000000000000000000000000000000000081526004016106f29190610f40565b60405180910390fd5b5f610704610780565b1115610717576107126107a4565b610749565b6040517fd6bda27500000000000000000000000000000000000000000000000000000000815260040160405180910390fd5b505b92915050565b5f815c9050919050565b5f815c9050919050565b80825d5050565b5f5f5f835160208501865af4905092915050565b5f3d905090565b606060405190503d81523d5f602083013e3d602001810160405290565b6040513d5f823e3d81fd5b5f5ffd5b5f5ffd5b5f819050919050565b6107c9816107b7565b81146107d3575f5ffd5b50565b5f813590506107e4816107c0565b92915050565b5f602082840312156107ff576107fe6107af565b5b5f61080c848285016107d6565b91505092915050565b5f73ffffffffffffffffffffffffffffffffffffffff82169050919050565b5f61083e82610815565b9050919050565b61084e81610834565b8114610858575f5ffd5b50565b5f8135905061086981610845565b92915050565b5f5f60408385031215610885576108846107af565b5b5f610892858286016107d6565b92505060206108a38582860161085b565b9150509250929050565b5f8115159050919050565b6108c1816108ad565b81146108cb575f5ffd5b50565b5f813590506108dc816108b8565b92915050565b5f5f604083850312156108f8576108f76107af565b5b5f610905858286016107d6565b9250506020610916858286016108ce565b9150509250929050565b5f819050919050565b61093281610920565b811461093c575f5ffd5b50565b5f8135905061094d81610929565b92915050565b5f5f60408385031215610969576109686107af565b5b5f610976858286016107d6565b92505060206109878582860161093f565b9150509250929050565b5f819050919050565b6109a381610991565b81146109ad575f5ffd5b50565b5f813590506109be8161099a565b92915050565b5f5f604083850312156109da576109d96107af565b5b5f6109e7858286016107d6565b92505060206109f8858286016109b0565b9150509250929050565b5f5ffd5b5f5ffd5b5f5ffd5b5f5f83601f840112610a2357610a22610a02565b5b8235905067ffffffffffffffff811115610a4057610a3f610a06565b5b602083019150836020820283011115610a5c57610a5b610a0a565b5b9250929050565b5f5f60208385031215610a7957610a786107af565b5b5f83013567ffffffffffffffff811115610a9657610a956107b3565b5b610aa285828601610a0e565b92509250509250929050565b5f81519050919050565b5f82825260208201905092915050565b5f819050602082019050919050565b5f81519050919050565b5f82825260208201905092915050565b8281835e5f83830152505050565b5f601f19601f8301169050919050565b5f610b1982610ad7565b610b238185610ae1565b9350610b33818560208601610af1565b610b3c81610aff565b840191505092915050565b5f610b528383610b0f565b905092915050565b5f602082019050919050565b5f610b7082610aae565b610b7a8185610ab8565b935083602082028501610b8c85610ac8565b805f5b85811015610bc75784840389528151610ba88582610b47565b9450610bb383610b5a565b925060208a01995050600181019050610b8f565b50829750879550505050505092915050565b5f6020820190508181035f830152610bf18184610b66565b905092915050565b5f5f60408385031215610c0f57610c0e6107af565b5b5f610c1c858286016107d6565b9250506020610c2d858286016107d6565b9150509250929050565b610c40816107b7565b82525050565b610c4f81610991565b82525050565b5f604082019050610c685f830185610c37565b610c756020830184610c46565b9392505050565b5f604082019050610c8f5f830185610c37565b610c9c6020830184610c37565b9392505050565b610cac816108ad565b82525050565b5f604082019050610cc55f830185610c37565b610cd26020830184610ca3565b9392505050565b7f4e487b71000000000000000000000000000000000000000000000000000000005f52601160045260245ffd5b5f610d1082610920565b9150610d1b83610920565b9250828203905081811115610d3357610d32610cd9565b5b92915050565b5f5ffd5b5f5ffd5b5f5f85851115610d5457610d53610d39565b5b83861115610d6557610d64610d3d565b5b6001850283019150848603905094509492505050565b7f4e487b71000000000000000000000000000000000000000000000000000000005f52604160045260245ffd5b7f4e487b71000000000000000000000000000000000000000000000000000000005f52603260045260245ffd5b5f5ffd5b5f5ffd5b5f5ffd5b5f5f83356001602003843603038112610dfd57610dfc610dd5565b5b80840192508235915067ffffffffffffffff821115610e1f57610e1e610dd9565b5b602083019250600182023603831315610e3b57610e3a610ddd565b5b509250929050565b5f81905092915050565b828183375f83830152505050565b5f610e668385610e43565b9350610e73838584610e4d565b82840190509392505050565b5f610e8982610ad7565b610e938185610e43565b9350610ea3818560208601610af1565b80840191505092915050565b5f610ebb828587610e5b565b9150610ec78284610e7f565b9150819050949350505050565b610edd81610834565b82525050565b5f604082019050610ef65f830185610c37565b610f036020830184610ed4565b9392505050565b610f1381610920565b82525050565b5f604082019050610f2c5f830185610c37565b610f396020830184610f0a565b9392505050565b5f602082019050610f535f830184610ed4565b9291505056fea26469706673582212201976fc0b50e911aa271bd51487b0feb199adfe8372744ec04fc0fe1639fa1efe64736f6c634300081e0033","linkReferences":{}},"methodIdentifiers":{"multicall(bytes[])":"ac9650d8","tloadAddress(bytes32)":"ba96e3ea","tloadBoolean(bytes32)":"85daa7b4","tloadBytes32(bytes32)":"4912c97c","tloadInt256(bytes32)":"20656eb6","tloadUint256(bytes32)":"bd4522bb","tstore(bytes32,address)":"2ddc1e8f","tstore(bytes32,bool)":"5d6f2b93","tstore(bytes32,bytes32)":"d25bb762","tstore(bytes32,int256)":"938ee4c8","tstore(bytes32,uint256)":"824bd70b"},"id":226}