{"abi":[{"type":"constructor","inputs":[{"name":"anEntryPoint","type":"address","internalType":"contract IEntryPoint"}],"stateMutability":"nonpayable"},{"type":"fallback","stateMutability":"payable"},{"type":"receive","stateMutability":"payable"},{"type":"function","name":"entryPoint","inputs":[],"outputs":[{"name":"","type":"address","internalType":"contract IEntryPoint"}],"stateMutability":"view"},{"type":"function","name":"execute","inputs":[{"name":"target","type":"address","internalType":"address"},{"name":"value","type":"uint256","internalType":"uint256"},{"name":"data","type":"bytes","internalType":"bytes"}],"outputs":[],"stateMutability":"nonpayable"},{"type":"function","name":"executeBatch","inputs":[{"name":"calls","type":"tuple[]","internalType":"struct BaseAccount.Call[]","components":[{"name":"target","type":"address","internalType":"address"},{"name":"value","type":"uint256","internalType":"uint256"},{"name":"data","type":"bytes","internalType":"bytes"}]}],"outputs":[],"stateMutability":"nonpayable"},{"type":"function","name":"getNonce","inputs":[],"outputs":[{"name":"","type":"uint256","internalType":"uint256"}],"stateMutability":"view"},{"type":"function","name":"isValidSignature","inputs":[{"name":"hash","type":"bytes32","internalType":"bytes32"},{"name":"signature","type":"bytes","internalType":"bytes"}],"outputs":[{"name":"magicValue","type":"bytes4","internalType":"bytes4"}],"stateMutability":"view"},{"type":"function","name":"onERC1155BatchReceived","inputs":[{"name":"","type":"address","internalType":"address"},{"name":"","type":"address","internalType":"address"},{"name":"","type":"uint256[]","internalType":"uint256[]"},{"name":"","type":"uint256[]","internalType":"uint256[]"},{"name":"","type":"bytes","internalType":"bytes"}],"outputs":[{"name":"","type":"bytes4","internalType":"bytes4"}],"stateMutability":"nonpayable"},{"type":"function","name":"onERC1155Received","inputs":[{"name":"","type":"address","internalType":"address"},{"name":"","type":"address","internalType":"address"},{"name":"","type":"uint256","internalType":"uint256"},{"name":"","type":"uint256","internalType":"uint256"},{"name":"","type":"bytes","internalType":"bytes"}],"outputs":[{"name":"","type":"bytes4","internalType":"bytes4"}],"stateMutability":"nonpayable"},{"type":"function","name":"onERC721Received","inputs":[{"name":"","type":"address","internalType":"address"},{"name":"","type":"address","internalType":"address"},{"name":"","type":"uint256","internalType":"uint256"},{"name":"","type":"bytes","internalType":"bytes"}],"outputs":[{"name":"","type":"bytes4","internalType":"bytes4"}],"stateMutability":"nonpayable"},{"type":"function","name":"supportsInterface","inputs":[{"name":"id","type":"bytes4","internalType":"bytes4"}],"outputs":[{"name":"","type":"bool","internalType":"bool"}],"stateMutability":"pure"},{"type":"function","name":"testInit","inputs":[],"outputs":[],"stateMutability":"nonpayable"},{"type":"function","name":"testInitCalled","inputs":[],"outputs":[{"name":"","type":"bool","internalType":"bool"}],"stateMutability":"view"},{"type":"function","name":"validateUserOp","inputs":[{"name":"userOp","type":"tuple","internalType":"struct PackedUserOperation","components":[{"name":"sender","type":"address","internalType":"address"},{"name":"nonce","type":"uint256","internalType":"uint256"},{"name":"initCode","type":"bytes","internalType":"bytes"},{"name":"callData","type":"bytes","internalType":"bytes"},{"name":"accountGasLimits","type":"bytes32","internalType":"bytes32"},{"name":"preVerificationGas","type":"uint256","internalType":"uint256"},{"name":"gasFees","type":"bytes32","internalType":"bytes32"},{"name":"paymasterAndData","type":"bytes","internalType":"bytes"},{"name":"signature","type":"bytes","internalType":"bytes"}]},{"name":"userOpHash","type":"bytes32","internalType":"bytes32"},{"name":"missingAccountFunds","type":"uint256","internalType":"uint256"}],"outputs":[{"name":"validationData","type":"uint256","internalType":"uint256"}],"stateMutability":"nonpayable"},{"type":"error","name":"ECDSAInvalidSignature","inputs":[]},{"type":"error","name":"ECDSAInvalidSignatureLength","inputs":[{"name":"length","type":"uint256","internalType":"uint256"}]},{"type":"error","name":"ECDSAInvalidSignatureS","inputs":[{"name":"s","type":"bytes32","internalType":"bytes32"}]},{"type":"error","name":"ExecuteError","inputs":[{"name":"index","type":"uint256","internalType":"uint256"},{"name":"error","type":"bytes","internalType":"bytes"}]},{"type":"error","name":"NotFromEntryPoint","inputs":[{"name":"msgSender","type":"address","internalType":"address"},{"name":"entity","type":"address","internalType":"address"},{"name":"entryPoint","type":"address","internalType":"address"}]}],"bytecode":{"object":"0x60a060405234801561000f575f5ffd5b50604051611bf1380380611bf1833981810160405281019061003191906100dc565b808073ffffffffffffffffffffffffffffffffffffffff1660808173ffffffffffffffffffffffffffffffffffffffff16815250505050610107565b5f5ffd5b5f73ffffffffffffffffffffffffffffffffffffffff82169050919050565b5f61009a82610071565b9050919050565b5f6100ab82610090565b9050919050565b6100bb816100a1565b81146100c5575f5ffd5b50565b5f815190506100d6816100b2565b92915050565b5f602082840312156100f1576100f061006d565b5b5f6100fe848285016100c8565b91505092915050565b608051611ad261011f5f395f6106b80152611ad25ff3fe6080604052600436106100aa575f3560e01c8063b0d691fe11610063578063b0d691fe146101ef578063b5d11e9914610219578063b61d27f61461022f578063bc197c8114610257578063d087d28814610293578063f23a6e61146102bd576100ab565b806301ffc9a7146100ad578063150b7a02146100e95780631626ba7e1461012557806319822f7c1461016157806334fcd5be1461019d5780637cadf65a146101c5576100ab565b5b005b3480156100b8575f5ffd5b506100d360048036038101906100ce9190610e9c565b6102f9565b6040516100e09190610ee1565b60405180910390f35b3480156100f4575f5ffd5b5061010f600480360381019061010a91906110c3565b610502565b60405161011c9190611152565b60405180910390f35b348015610130575f5ffd5b5061014b6004803603810190610146919061119e565b610515565b6040516101589190611152565b60405180910390f35b34801561016c575f5ffd5b506101876004803603810190610182919061121b565b610542565b6040516101949190611296565b60405180910390f35b3480156101a8575f5ffd5b506101c360048036038101906101be919061130c565b610574565b005b3480156101d0575f5ffd5b506101d96106a4565b6040516101e69190610ee1565b60405180910390f35b3480156101fa575f5ffd5b506102036106b5565b60405161021091906113b2565b60405180910390f35b348015610224575f5ffd5b5061022d6106dc565b005b34801561023a575f5ffd5b5061025560048036038101906102509190611420565b6106f7565b005b348015610262575f5ffd5b5061027d60048036038101906102789190611551565b610766565b60405161028a9190611152565b60405180910390f35b34801561029e575f5ffd5b506102a761077a565b6040516102b49190611296565b60405180910390f35b3480156102c8575f5ffd5b506102e360048036038101906102de919061161c565b610801565b6040516102f09190611152565b60405180910390f35b5f7f01ffc9a7000000000000000000000000000000000000000000000000000000007bffffffffffffffffffffffffffffffffffffffffffffffffffffffff1916827bffffffffffffffffffffffffffffffffffffffffffffffffffffffff191614806103c357507f19822f7c000000000000000000000000000000000000000000000000000000007bffffffffffffffffffffffffffffffffffffffffffffffffffffffff1916827bffffffffffffffffffffffffffffffffffffffffffffffffffffffff1916145b8061042b57507f1626ba7e000000000000000000000000000000000000000000000000000000007bffffffffffffffffffffffffffffffffffffffffffffffffffffffff1916827bffffffffffffffffffffffffffffffffffffffffffffffffffffffff1916145b8061049357507f4e2312e0000000000000000000000000000000000000000000000000000000007bffffffffffffffffffffffffffffffffffffffffffffffffffffffff1916827bffffffffffffffffffffffffffffffffffffffffffffffffffffffff1916145b806104fb57507f150b7a02000000000000000000000000000000000000000000000000000000007bffffffffffffffffffffffffffffffffffffffffffffffffffffffff1916827bffffffffffffffffffffffffffffffffffffffffffffffffffffffff1916145b9050919050565b5f63150b7a0260e01b9050949350505050565b5f6105208383610815565b6105315763ffffffff60e01b61053a565b631626ba7e60e01b5b905092915050565b5f61054b610856565b61055584846108e0565b9050610564846020013561095b565b61056d8261095e565b9392505050565b61057c6109d2565b5f8282905090505f5f90505b8181101561069e57368484838181106105a4576105a36116af565b5b90506020028101906105b691906116e8565b90505f61062b825f0160208101906105ce919061170f565b83602001358480604001906105e3919061173a565b8080601f0160208091040260200160405190810160405280939291908181526020018383808284375f81840152601f19601f820116905080830192505050505050505a610a92565b90508061068f576001840361064757610642610aa9565b61068e565b826106515f610abc565b6040517f5a1546750000000000000000000000000000000000000000000000000000000081526004016106859291906117fc565b60405180910390fd5b5b50508080600101915050610588565b50505050565b5f5f9054906101000a900460ff1681565b5f7f0000000000000000000000000000000000000000000000000000000000000000905090565b60015f5f6101000a81548160ff021916908315150217905550565b6106ff6109d2565b5f61074f858585858080601f0160208091040260200160405190810160405280939291908181526020018383808284375f81840152601f19601f820116905080830192505050505050505a610a92565b90508061075f5761075e610aa9565b5b5050505050565b5f63bc197c8160e01b905095945050505050565b5f6107836106b5565b73ffffffffffffffffffffffffffffffffffffffff166335567e1a305f6040518363ffffffff1660e01b81526004016107bd929190611895565b602060405180830381865afa1580156107d8573d5f5f3e3d5ffd5b505050506040513d601f19601f820116820180604052508101906107fc91906118d0565b905090565b5f63f23a6e6160e01b905095945050505050565b5f3073ffffffffffffffffffffffffffffffffffffffff166108378484610af4565b73ffffffffffffffffffffffffffffffffffffffff1614905092915050565b61085e6106b5565b73ffffffffffffffffffffffffffffffffffffffff163373ffffffffffffffffffffffffffffffffffffffff161433306108966106b5565b9091926108db576040517ffe34a6d30000000000000000000000000000000000000000000000000000000081526004016108d2939291906118fb565b60405180910390fd5b505050565b5f60148380604001906108f3919061173a565b90501115610949575f5f9054906101000a900460ff16610948576040517f08c379a000000000000000000000000000000000000000000000000000000000815260040161093f9061198a565b60405180910390fd5b5b6109538383610b1e565b905092915050565b50565b5f81146109cf575f3373ffffffffffffffffffffffffffffffffffffffff168260405161098a906119d5565b5f6040518083038185875af1925050503d805f81146109c4576040519150601f19603f3d011682016040523d82523d5f602084013e6109c9565b606091505b50509050505b50565b3073ffffffffffffffffffffffffffffffffffffffff163373ffffffffffffffffffffffffffffffffffffffff161480610a3e5750610a0f6106b5565b73ffffffffffffffffffffffffffffffffffffffff163373ffffffffffffffffffffffffffffffffffffffff16145b3330610a486106b5565b909192610a8d576040517ffe34a6d3000000000000000000000000000000000000000000000000000000008152600401610a84939291906118fb565b60405180910390fd5b505050565b5f5f5f845160208601878987f19050949350505050565b610aba610ab55f610abc565b610b90565b565b60603d5f831115610ad45782811115610ad3578290505b5b604051602082018101604052818152815f602083013e8092505050919050565b5f5f5f5f610b028686610b98565b925092509250610b128282610bed565b82935050505092915050565b5f610b7b8284806101000190610b34919061173a565b8080601f0160208091040260200160405190810160405280939291908181526020018383808284375f81840152601f19601f82011690508083019250505050505050610815565b610b86576001610b88565b5f5b905092915050565b805160208201fd5b5f5f5f6041845103610bd8575f5f5f602087015192506040870151915060608701515f1a9050610bca88828585610d4f565b955095509550505050610be6565b5f600285515f1b9250925092505b9250925092565b5f6003811115610c0057610bff6119e9565b5b826003811115610c1357610c126119e9565b5b0315610d4b5760016003811115610c2d57610c2c6119e9565b5b826003811115610c4057610c3f6119e9565b5b03610c77576040517ff645eedf00000000000000000000000000000000000000000000000000000000815260040160405180910390fd5b60026003811115610c8b57610c8a6119e9565b5b826003811115610c9e57610c9d6119e9565b5b03610ce257805f1c6040517ffce698f7000000000000000000000000000000000000000000000000000000008152600401610cd99190611296565b60405180910390fd5b600380811115610cf557610cf46119e9565b5b826003811115610d0857610d076119e9565b5b03610d4a57806040517fd78bce0c000000000000000000000000000000000000000000000000000000008152600401610d419190611a25565b60405180910390fd5b5b5050565b5f5f5f7f7fffffffffffffffffffffffffffffff5d576e7357a4501ddfe92f46681b20a0845f1c1115610d8b575f600385925092509250610e2c565b5f6001888888886040515f8152602001604052604051610dae9493929190611a59565b6020604051602081039080840390855afa158015610dce573d5f5f3e3d5ffd5b5050506020604051035190505f73ffffffffffffffffffffffffffffffffffffffff168173ffffffffffffffffffffffffffffffffffffffff1603610e1f575f60015f5f1b93509350935050610e2c565b805f5f5f1b935093509350505b9450945094915050565b5f604051905090565b5f5ffd5b5f5ffd5b5f7fffffffff0000000000000000000000000000000000000000000000000000000082169050919050565b610e7b81610e47565b8114610e85575f5ffd5b50565b5f81359050610e9681610e72565b92915050565b5f60208284031215610eb157610eb0610e3f565b5b5f610ebe84828501610e88565b91505092915050565b5f8115159050919050565b610edb81610ec7565b82525050565b5f602082019050610ef45f830184610ed2565b92915050565b5f73ffffffffffffffffffffffffffffffffffffffff82169050919050565b5f610f2382610efa565b9050919050565b610f3381610f19565b8114610f3d575f5ffd5b50565b5f81359050610f4e81610f2a565b92915050565b5f819050919050565b610f6681610f54565b8114610f70575f5ffd5b50565b5f81359050610f8181610f5d565b92915050565b5f5ffd5b5f5ffd5b5f601f19601f8301169050919050565b7f4e487b71000000000000000000000000000000000000000000000000000000005f52604160045260245ffd5b610fd582610f8f565b810181811067ffffffffffffffff82111715610ff457610ff3610f9f565b5b80604052505050565b5f611006610e36565b90506110128282610fcc565b919050565b5f67ffffffffffffffff82111561103157611030610f9f565b5b61103a82610f8f565b9050602081019050919050565b828183375f83830152505050565b5f61106761106284611017565b610ffd565b90508281526020810184848401111561108357611082610f8b565b5b61108e848285611047565b509392505050565b5f82601f8301126110aa576110a9610f87565b5b81356110ba848260208601611055565b91505092915050565b5f5f5f5f608085870312156110db576110da610e3f565b5b5f6110e887828801610f40565b94505060206110f987828801610f40565b935050604061110a87828801610f73565b925050606085013567ffffffffffffffff81111561112b5761112a610e43565b5b61113787828801611096565b91505092959194509250565b61114c81610e47565b82525050565b5f6020820190506111655f830184611143565b92915050565b5f819050919050565b61117d8161116b565b8114611187575f5ffd5b50565b5f8135905061119881611174565b92915050565b5f5f604083850312156111b4576111b3610e3f565b5b5f6111c18582860161118a565b925050602083013567ffffffffffffffff8111156111e2576111e1610e43565b5b6111ee85828601611096565b9150509250929050565b5f5ffd5b5f6101208284031215611212576112116111f8565b5b81905092915050565b5f5f5f6060848603121561123257611231610e3f565b5b5f84013567ffffffffffffffff81111561124f5761124e610e43565b5b61125b868287016111fc565b935050602061126c8682870161118a565b925050604061127d86828701610f73565b9150509250925092565b61129081610f54565b82525050565b5f6020820190506112a95f830184611287565b92915050565b5f5ffd5b5f5ffd5b5f5f83601f8401126112cc576112cb610f87565b5b8235905067ffffffffffffffff8111156112e9576112e86112af565b5b602083019150836020820283011115611305576113046112b3565b5b9250929050565b5f5f6020838503121561132257611321610e3f565b5b5f83013567ffffffffffffffff81111561133f5761133e610e43565b5b61134b858286016112b7565b92509250509250929050565b5f819050919050565b5f61137a61137561137084610efa565b611357565b610efa565b9050919050565b5f61138b82611360565b9050919050565b5f61139c82611381565b9050919050565b6113ac81611392565b82525050565b5f6020820190506113c55f8301846113a3565b92915050565b5f5f83601f8401126113e0576113df610f87565b5b8235905067ffffffffffffffff8111156113fd576113fc6112af565b5b602083019150836001820283011115611419576114186112b3565b5b9250929050565b5f5f5f5f6060858703121561143857611437610e3f565b5b5f61144587828801610f40565b945050602061145687828801610f73565b935050604085013567ffffffffffffffff81111561147757611476610e43565b5b611483878288016113cb565b925092505092959194509250565b5f67ffffffffffffffff8211156114ab576114aa610f9f565b5b602082029050602081019050919050565b5f6114ce6114c984611491565b610ffd565b905080838252602082019050602084028301858111156114f1576114f06112b3565b5b835b8181101561151a57806115068882610f73565b8452602084019350506020810190506114f3565b5050509392505050565b5f82601f83011261153857611537610f87565b5b81356115488482602086016114bc565b91505092915050565b5f5f5f5f5f60a0868803121561156a57611569610e3f565b5b5f61157788828901610f40565b955050602061158888828901610f40565b945050604086013567ffffffffffffffff8111156115a9576115a8610e43565b5b6115b588828901611524565b935050606086013567ffffffffffffffff8111156115d6576115d5610e43565b5b6115e288828901611524565b925050608086013567ffffffffffffffff81111561160357611602610e43565b5b61160f88828901611096565b9150509295509295909350565b5f5f5f5f5f60a0868803121561163557611634610e3f565b5b5f61164288828901610f40565b955050602061165388828901610f40565b945050604061166488828901610f73565b935050606061167588828901610f73565b925050608086013567ffffffffffffffff81111561169657611695610e43565b5b6116a288828901611096565b9150509295509295909350565b7f4e487b71000000000000000000000000000000000000000000000000000000005f52603260045260245ffd5b5f5ffd5b5f5ffd5b5f5ffd5b5f82356001606003833603038112611703576117026116dc565b5b80830191505092915050565b5f6020828403121561172457611723610e3f565b5b5f61173184828501610f40565b91505092915050565b5f5f83356001602003843603038112611756576117556116dc565b5b80840192508235915067ffffffffffffffff821115611778576117776116e0565b5b602083019250600182023603831315611794576117936116e4565b5b509250929050565b5f81519050919050565b5f82825260208201905092915050565b8281835e5f83830152505050565b5f6117ce8261179c565b6117d881856117a6565b93506117e88185602086016117b6565b6117f181610f8f565b840191505092915050565b5f60408201905061180f5f830185611287565b818103602083015261182181846117c4565b90509392505050565b61183381610f19565b82525050565b5f819050919050565b5f77ffffffffffffffffffffffffffffffffffffffffffffffff82169050919050565b5f61187f61187a61187584611839565b611357565b611842565b9050919050565b61188f81611865565b82525050565b5f6040820190506118a85f83018561182a565b6118b56020830184611886565b9392505050565b5f815190506118ca81610f5d565b92915050565b5f602082840312156118e5576118e4610e3f565b5b5f6118f2848285016118bc565b91505092915050565b5f60608201905061190e5f83018661182a565b61191b602083018561182a565b611928604083018461182a565b949350505050565b5f82825260208201905092915050565b7f74657374496e6974206e6f742063616c6c6564000000000000000000000000005f82015250565b5f611974601383611930565b915061197f82611940565b602082019050919050565b5f6020820190508181035f8301526119a181611968565b9050919050565b5f81905092915050565b50565b5f6119c05f836119a8565b91506119cb826119b2565b5f82019050919050565b5f6119df826119b5565b9150819050919050565b7f4e487b71000000000000000000000000000000000000000000000000000000005f52602160045260245ffd5b611a1f8161116b565b82525050565b5f602082019050611a385f830184611a16565b92915050565b5f60ff82169050919050565b611a5381611a3e565b82525050565b5f608082019050611a6c5f830187611a16565b611a796020830186611a4a565b611a866040830185611a16565b611a936060830184611a16565b9594505050505056fea2646970667358221220048ac2a98ce5ca505eb47314a55511216c7377d61a42bd537c69f704b2702dda64736f6c634300081e0033","linkReferences":{}},"methodIdentifiers":{"entryPoint()":"b0d691fe","execute(address,uint256,bytes)":"b61d27f6","executeBatch((address,uint256,bytes)[])":"34fcd5be","getNonce()":"d087d288","isValidSignature(bytes32,bytes)":"1626ba7e","onERC1155BatchReceived(address,address,uint256[],uint256[],bytes)":"bc197c81","onERC1155Received(address,address,uint256,uint256,bytes)":"f23a6e61","onERC721Received(address,address,uint256,bytes)":"150b7a02","supportsInterface(bytes4)":"01ffc9a7","testInit()":"b5d11e99","testInitCalled()":"7cadf65a","validateUserOp((address,uint256,bytes,bytes,bytes32,uint256,bytes32,bytes,bytes),bytes32,uint256)":"19822f7c"},"id":39}