{"abi":[{"type":"constructor","inputs":[],"stateMutability":"nonpayable"},{"type":"function","name":"approve","inputs":[{"name":"to","type":"address","internalType":"address"},{"name":"tokenId","type":"uint256","internalType":"uint256"}],"outputs":[],"stateMutability":"nonpayable"},{"type":"function","name":"awardItem","inputs":[{"name":"player","type":"address","internalType":"address"},{"name":"tokenURI","type":"string","internalType":"string"}],"outputs":[{"name":"","type":"uint256","internalType":"uint256"}],"stateMutability":"nonpayable"},{"type":"function","name":"balanceOf","inputs":[{"name":"owner","type":"address","internalType":"address"}],"outputs":[{"name":"","type":"uint256","internalType":"uint256"}],"stateMutability":"view"},{"type":"function","name":"getApproved","inputs":[{"name":"tokenId","type":"uint256","internalType":"uint256"}],"outputs":[{"name":"","type":"address","internalType":"address"}],"stateMutability":"view"},{"type":"function","name":"isApprovedForAll","inputs":[{"name":"owner","type":"address","internalType":"address"},{"name":"operator","type":"address","internalType":"address"}],"outputs":[{"name":"","type":"bool","internalType":"bool"}],"stateMutability":"view"},{"type":"function","name":"name","inputs":[],"outputs":[{"name":"","type":"string","internalType":"string"}],"stateMutability":"view"},{"type":"function","name":"ownerOf","inputs":[{"name":"tokenId","type":"uint256","internalType":"uint256"}],"outputs":[{"name":"","type":"address","internalType":"address"}],"stateMutability":"view"},{"type":"function","name":"safeTransferFrom","inputs":[{"name":"from","type":"address","internalType":"address"},{"name":"to","type":"address","internalType":"address"},{"name":"tokenId","type":"uint256","internalType":"uint256"}],"outputs":[],"stateMutability":"nonpayable"},{"type":"function","name":"safeTransferFrom","inputs":[{"name":"from","type":"address","internalType":"address"},{"name":"to","type":"address","internalType":"address"},{"name":"tokenId","type":"uint256","internalType":"uint256"},{"name":"data","type":"bytes","internalType":"bytes"}],"outputs":[],"stateMutability":"nonpayable"},{"type":"function","name":"setApprovalForAll","inputs":[{"name":"operator","type":"address","internalType":"address"},{"name":"approved","type":"bool","internalType":"bool"}],"outputs":[],"stateMutability":"nonpayable"},{"type":"function","name":"supportsInterface","inputs":[{"name":"interfaceId","type":"bytes4","internalType":"bytes4"}],"outputs":[{"name":"","type":"bool","internalType":"bool"}],"stateMutability":"view"},{"type":"function","name":"symbol","inputs":[],"outputs":[{"name":"","type":"string","internalType":"string"}],"stateMutability":"view"},{"type":"function","name":"tokenURI","inputs":[{"name":"tokenId","type":"uint256","internalType":"uint256"}],"outputs":[{"name":"","type":"string","internalType":"string"}],"stateMutability":"view"},{"type":"function","name":"transferFrom","inputs":[{"name":"from","type":"address","internalType":"address"},{"name":"to","type":"address","internalType":"address"},{"name":"tokenId","type":"uint256","internalType":"uint256"}],"outputs":[],"stateMutability":"nonpayable"},{"type":"event","name":"Approval","inputs":[{"name":"owner","type":"address","indexed":true,"internalType":"address"},{"name":"approved","type":"address","indexed":true,"internalType":"address"},{"name":"tokenId","type":"uint256","indexed":true,"internalType":"uint256"}],"anonymous":false},{"type":"event","name":"ApprovalForAll","inputs":[{"name":"owner","type":"address","indexed":true,"internalType":"address"},{"name":"operator","type":"address","indexed":true,"internalType":"address"},{"name":"approved","type":"bool","indexed":false,"internalType":"bool"}],"anonymous":false},{"type":"event","name":"BatchMetadataUpdate","inputs":[{"name":"_fromTokenId","type":"uint256","indexed":false,"internalType":"uint256"},{"name":"_toTokenId","type":"uint256","indexed":false,"internalType":"uint256"}],"anonymous":false},{"type":"event","name":"MetadataUpdate","inputs":[{"name":"_tokenId","type":"uint256","indexed":false,"internalType":"uint256"}],"anonymous":false},{"type":"event","name":"Transfer","inputs":[{"name":"from","type":"address","indexed":true,"internalType":"address"},{"name":"to","type":"address","indexed":true,"internalType":"address"},{"name":"tokenId","type":"uint256","indexed":true,"internalType":"uint256"}],"anonymous":false},{"type":"error","name":"ERC721IncorrectOwner","inputs":[{"name":"sender","type":"address","internalType":"address"},{"name":"tokenId","type":"uint256","internalType":"uint256"},{"name":"owner","type":"address","internalType":"address"}]},{"type":"error","name":"ERC721InsufficientApproval","inputs":[{"name":"operator","type":"address","internalType":"address"},{"name":"tokenId","type":"uint256","internalType":"uint256"}]},{"type":"error","name":"ERC721InvalidApprover","inputs":[{"name":"approver","type":"address","internalType":"address"}]},{"type":"error","name":"ERC721InvalidOperator","inputs":[{"name":"operator","type":"address","internalType":"address"}]},{"type":"error","name":"ERC721InvalidOwner","inputs":[{"name":"owner","type":"address","internalType":"address"}]},{"type":"error","name":"ERC721InvalidReceiver","inputs":[{"name":"receiver","type":"address","internalType":"address"}]},{"type":"error","name":"ERC721InvalidSender","inputs":[{"name":"sender","type":"address","internalType":"address"}]},{"type":"error","name":"ERC721NonexistentToken","inputs":[{"name":"tokenId","type":"uint256","internalType":"uint256"}]}],"bytecode":{"object":"0x608060405234801561000f575f5ffd5b506040518060400160405280600881526020017f47616d654974656d0000000000000000000000000000000000000000000000008152506040518060400160405280600381526020017f49544d0000000000000000000000000000000000000000000000000000000000815250815f908161008a91906102df565b50806001908161009a91906102df565b5050506103ae565b5f81519050919050565b7f4e487b71000000000000000000000000000000000000000000000000000000005f52604160045260245ffd5b7f4e487b71000000000000000000000000000000000000000000000000000000005f52602260045260245ffd5b5f600282049050600182168061011d57607f821691505b6020821081036101305761012f6100d9565b5b50919050565b5f819050815f5260205f209050919050565b5f6020601f8301049050919050565b5f82821b905092915050565b5f600883026101927fffffffffffffffffffffffffffffffffffffffffffffffffffffffffffffffff82610157565b61019c8683610157565b95508019841693508086168417925050509392505050565b5f819050919050565b5f819050919050565b5f6101e06101db6101d6846101b4565b6101bd565b6101b4565b9050919050565b5f819050919050565b6101f9836101c6565b61020d610205826101e7565b848454610163565b825550505050565b5f5f905090565b610224610215565b61022f8184846101f0565b505050565b5b81811015610252576102475f8261021c565b600181019050610235565b5050565b601f8211156102975761026881610136565b61027184610148565b81016020851015610280578190505b61029461028c85610148565b830182610234565b50505b505050565b5f82821c905092915050565b5f6102b75f198460080261029c565b1980831691505092915050565b5f6102cf83836102a8565b9150826002028217905092915050565b6102e8826100a2565b67ffffffffffffffff811115610301576103006100ac565b5b61030b8254610106565b610316828285610256565b5f60209050601f831160018114610347575f8415610335578287015190505b61033f85826102c4565b8655506103a6565b601f19841661035586610136565b5f5b8281101561037c57848901518255600182019150602085019450602081019050610357565b868310156103995784890151610395601f8916826102a8565b8355505b6001600288020188555050505b505050505050565b61235e806103bb5f395ff3fe608060405234801561000f575f5ffd5b50600436106100e8575f3560e01c806370a082311161008a578063b88d4fde11610064578063b88d4fde14610258578063c87b56dd14610274578063cf378343146102a4578063e985e9c5146102d4576100e8565b806370a08231146101ee57806395d89b411461021e578063a22cb4651461023c576100e8565b8063095ea7b3116100c6578063095ea7b31461016a57806323b872dd1461018657806342842e0e146101a25780636352211e146101be576100e8565b806301ffc9a7146100ec57806306fdde031461011c578063081812fc1461013a575b5f5ffd5b6101066004803603810190610101919061182e565b610304565b6040516101139190611873565b60405180910390f35b610124610364565b60405161013191906118fc565b60405180910390f35b610154600480360381019061014f919061194f565b6103f3565b60405161016191906119b9565b60405180910390f35b610184600480360381019061017f91906119fc565b61040e565b005b6101a0600480360381019061019b9190611a3a565b610424565b005b6101bc60048036038101906101b79190611a3a565b610523565b005b6101d860048036038101906101d3919061194f565b610542565b6040516101e591906119b9565b60405180910390f35b61020860048036038101906102039190611a8a565b610553565b6040516102159190611ac4565b60405180910390f35b610226610609565b60405161023391906118fc565b60405180910390f35b61025660048036038101906102519190611b07565b610699565b005b610272600480360381019061026d9190611c71565b6106af565b005b61028e6004803603810190610289919061194f565b6106d4565b60405161029b91906118fc565b60405180910390f35b6102be60048036038101906102b99190611d8f565b610750565b6040516102cb9190611ac4565b60405180910390f35b6102ee60048036038101906102e99190611de9565b610788565b6040516102fb9190611873565b60405180910390f35b5f634906490660e01b7bffffffffffffffffffffffffffffffffffffffffffffffffffffffff1916827bffffffffffffffffffffffffffffffffffffffffffffffffffffffff1916148061035d575061035c82610816565b5b9050919050565b60605f805461037290611e54565b80601f016020809104026020016040519081016040528092919081815260200182805461039e90611e54565b80156103e95780601f106103c0576101008083540402835291602001916103e9565b820191905f5260205f20905b8154815290600101906020018083116103cc57829003601f168201915b5050505050905090565b5f6103fd826108f7565b506104078261097d565b9050919050565b610420828261041b6109b6565b6109bd565b5050565b5f73ffffffffffffffffffffffffffffffffffffffff168273ffffffffffffffffffffffffffffffffffffffff1603610494575f6040517f64a0ae9200000000000000000000000000000000000000000000000000000000815260040161048b91906119b9565b60405180910390fd5b5f6104a783836104a26109b6565b6109cf565b90508373ffffffffffffffffffffffffffffffffffffffff168173ffffffffffffffffffffffffffffffffffffffff161461051d578382826040517f64283d7b00000000000000000000000000000000000000000000000000000000815260040161051493929190611e84565b60405180910390fd5b50505050565b61053d83838360405180602001604052805f8152506106af565b505050565b5f61054c826108f7565b9050919050565b5f5f73ffffffffffffffffffffffffffffffffffffffff168273ffffffffffffffffffffffffffffffffffffffff16036105c4575f6040517f89c62b640000000000000000000000000000000000000000000000000000000081526004016105bb91906119b9565b60405180910390fd5b60035f8373ffffffffffffffffffffffffffffffffffffffff1673ffffffffffffffffffffffffffffffffffffffff1681526020019081526020015f20549050919050565b60606001805461061890611e54565b80601f016020809104026020016040519081016040528092919081815260200182805461064490611e54565b801561068f5780601f106106665761010080835404028352916020019161068f565b820191905f5260205f20905b81548152906001019060200180831161067257829003601f168201915b5050505050905090565b6106ab6106a46109b6565b8383610bda565b5050565b6106ba848484610424565b6106ce6106c56109b6565b85858585610db3565b50505050565b60606106df826108f7565b505f6106e9610f5f565b90505f6106f584610f75565b90505f82510361070957809250505061074b565b5f8151111561073d578181604051602001610725929190611ef3565b6040516020818303038152906040529250505061074b565b61074684611016565b925050505b919050565b5f5f60075f81548092919061076490611f43565b919050559050610774848261107c565b61077e818461116f565b8091505092915050565b5f60055f8473ffffffffffffffffffffffffffffffffffffffff1673ffffffffffffffffffffffffffffffffffffffff1681526020019081526020015f205f8373ffffffffffffffffffffffffffffffffffffffff1673ffffffffffffffffffffffffffffffffffffffff1681526020019081526020015f205f9054906101000a900460ff16905092915050565b5f7f80ac58cd000000000000000000000000000000000000000000000000000000007bffffffffffffffffffffffffffffffffffffffffffffffffffffffff1916827bffffffffffffffffffffffffffffffffffffffffffffffffffffffff191614806108e057507f5b5e139f000000000000000000000000000000000000000000000000000000007bffffffffffffffffffffffffffffffffffffffffffffffffffffffff1916827bffffffffffffffffffffffffffffffffffffffffffffffffffffffff1916145b806108f057506108ef826111c9565b5b9050919050565b5f5f61090283611232565b90505f73ffffffffffffffffffffffffffffffffffffffff168173ffffffffffffffffffffffffffffffffffffffff160361097457826040517f7e27328900000000000000000000000000000000000000000000000000000000815260040161096b9190611ac4565b60405180910390fd5b80915050919050565b5f60045f8381526020019081526020015f205f9054906101000a900473ffffffffffffffffffffffffffffffffffffffff169050919050565b5f33905090565b6109ca838383600161126b565b505050565b5f5f6109da84611232565b90505f73ffffffffffffffffffffffffffffffffffffffff168373ffffffffffffffffffffffffffffffffffffffff1614610a1b57610a1a81848661142a565b5b5f73ffffffffffffffffffffffffffffffffffffffff168173ffffffffffffffffffffffffffffffffffffffff1614610aa657610a5a5f855f5f61126b565b600160035f8373ffffffffffffffffffffffffffffffffffffffff1673ffffffffffffffffffffffffffffffffffffffff1681526020019081526020015f205f82825403925050819055505b5f73ffffffffffffffffffffffffffffffffffffffff168573ffffffffffffffffffffffffffffffffffffffff1614610b2557600160035f8773ffffffffffffffffffffffffffffffffffffffff1673ffffffffffffffffffffffffffffffffffffffff1681526020019081526020015f205f82825401925050819055505b8460025f8681526020019081526020015f205f6101000a81548173ffffffffffffffffffffffffffffffffffffffff021916908373ffffffffffffffffffffffffffffffffffffffff160217905550838573ffffffffffffffffffffffffffffffffffffffff168273ffffffffffffffffffffffffffffffffffffffff167fddf252ad1be2c89b69c2b068fc378daa952ba7f163c4a11628f55a4df523b3ef60405160405180910390a4809150509392505050565b5f73ffffffffffffffffffffffffffffffffffffffff168373ffffffffffffffffffffffffffffffffffffffff1603610c4a575f6040517fa9fbf51f000000000000000000000000000000000000000000000000000000008152600401610c4191906119b9565b60405180910390fd5b5f73ffffffffffffffffffffffffffffffffffffffff168273ffffffffffffffffffffffffffffffffffffffff1603610cba57816040517f5b08ba18000000000000000000000000000000000000000000000000000000008152600401610cb191906119b9565b60405180910390fd5b8060055f8573ffffffffffffffffffffffffffffffffffffffff1673ffffffffffffffffffffffffffffffffffffffff1681526020019081526020015f205f8473ffffffffffffffffffffffffffffffffffffffff1673ffffffffffffffffffffffffffffffffffffffff1681526020019081526020015f205f6101000a81548160ff0219169083151502179055508173ffffffffffffffffffffffffffffffffffffffff168373ffffffffffffffffffffffffffffffffffffffff167f17307eab39ab6107e8899845ad3d59bd9653f200f220920489ca2b5937696c3183604051610da69190611873565b60405180910390a3505050565b5f8373ffffffffffffffffffffffffffffffffffffffff163b1115610f58578273ffffffffffffffffffffffffffffffffffffffff1663150b7a02868685856040518563ffffffff1660e01b8152600401610e119493929190611fdc565b6020604051808303815f875af1925050508015610e4c57506040513d601f19601f82011682018060405250810190610e49919061203a565b60015b610ecd573d805f8114610e7a576040519150601f19603f3d011682016040523d82523d5f602084013e610e7f565b606091505b505f815103610ec557836040517f64a0ae92000000000000000000000000000000000000000000000000000000008152600401610ebc91906119b9565b60405180910390fd5b805160208201fd5b63150b7a0260e01b7bffffffffffffffffffffffffffffffffffffffffffffffffffffffff1916817bffffffffffffffffffffffffffffffffffffffffffffffffffffffff191614610f5657836040517f64a0ae92000000000000000000000000000000000000000000000000000000008152600401610f4d91906119b9565b60405180910390fd5b505b5050505050565b606060405180602001604052805f815250905090565b606060065f8381526020019081526020015f208054610f9390611e54565b80601f0160208091040260200160405190810160405280929190818152602001828054610fbf90611e54565b801561100a5780601f10610fe15761010080835404028352916020019161100a565b820191905f5260205f20905b815481529060010190602001808311610fed57829003601f168201915b50505050509050919050565b6060611021826108f7565b505f61102b610f5f565b90505f8151116110495760405180602001604052805f815250611074565b80611053846114ed565b604051602001611064929190611ef3565b6040516020818303038152906040525b915050919050565b5f73ffffffffffffffffffffffffffffffffffffffff168273ffffffffffffffffffffffffffffffffffffffff16036110ec575f6040517f64a0ae920000000000000000000000000000000000000000000000000000000081526004016110e391906119b9565b60405180910390fd5b5f6110f883835f6109cf565b90505f73ffffffffffffffffffffffffffffffffffffffff168173ffffffffffffffffffffffffffffffffffffffff161461116a575f6040517f73c6ac6e00000000000000000000000000000000000000000000000000000000815260040161116191906119b9565b60405180910390fd5b505050565b8060065f8481526020019081526020015f20908161118d9190612205565b507ff8e1a15aba9398e019f0b49df1a4fde98ee17ae345cb5f6b5e2c27f5033e8ce7826040516111bd9190611ac4565b60405180910390a15050565b5f7f01ffc9a7000000000000000000000000000000000000000000000000000000007bffffffffffffffffffffffffffffffffffffffffffffffffffffffff1916827bffffffffffffffffffffffffffffffffffffffffffffffffffffffff1916149050919050565b5f60025f8381526020019081526020015f205f9054906101000a900473ffffffffffffffffffffffffffffffffffffffff169050919050565b80806112a357505f73ffffffffffffffffffffffffffffffffffffffff168273ffffffffffffffffffffffffffffffffffffffff1614155b156113d5575f6112b2846108f7565b90505f73ffffffffffffffffffffffffffffffffffffffff168373ffffffffffffffffffffffffffffffffffffffff161415801561131c57508273ffffffffffffffffffffffffffffffffffffffff168173ffffffffffffffffffffffffffffffffffffffff1614155b801561132f575061132d8184610788565b155b1561137157826040517fa9fbf51f00000000000000000000000000000000000000000000000000000000815260040161136891906119b9565b60405180910390fd5b81156113d357838573ffffffffffffffffffffffffffffffffffffffff168273ffffffffffffffffffffffffffffffffffffffff167f8c5be1e5ebec7d5bd14f71427d1e84f3dd0314c0f7b2291e5b200ac8c7c3b92560405160405180910390a45b505b8360045f8581526020019081526020015f205f6101000a81548173ffffffffffffffffffffffffffffffffffffffff021916908373ffffffffffffffffffffffffffffffffffffffff16021790555050505050565b6114358383836115b7565b6114e8575f73ffffffffffffffffffffffffffffffffffffffff168373ffffffffffffffffffffffffffffffffffffffff16036114a957806040517f7e2732890000000000000000000000000000000000000000000000000000000081526004016114a09190611ac4565b60405180910390fd5b81816040517f177e802f0000000000000000000000000000000000000000000000000000000081526004016114df9291906122d4565b60405180910390fd5b505050565b60605f60016114fb84611677565b0190505f8167ffffffffffffffff81111561151957611518611b4d565b5b6040519080825280601f01601f19166020018201604052801561154b5781602001600182028036833780820191505090505b5090505f82602083010190505b6001156115ac578080600190039150507f3031323334353637383961626364656600000000000000000000000000000000600a86061a8153600a85816115a1576115a06122fb565b5b0494505f8503611558575b819350505050919050565b5f5f73ffffffffffffffffffffffffffffffffffffffff168373ffffffffffffffffffffffffffffffffffffffff161415801561166e57508273ffffffffffffffffffffffffffffffffffffffff168473ffffffffffffffffffffffffffffffffffffffff16148061162f575061162e8484610788565b5b8061166d57508273ffffffffffffffffffffffffffffffffffffffff166116558361097d565b73ffffffffffffffffffffffffffffffffffffffff16145b5b90509392505050565b5f5f5f90507a184f03e93ff9f4daa797ed6e38ed64bf6a1f01000000000000000083106116d3577a184f03e93ff9f4daa797ed6e38ed64bf6a1f01000000000000000083816116c9576116c86122fb565b5b0492506040810190505b6d04ee2d6d415b85acef81000000008310611710576d04ee2d6d415b85acef81000000008381611706576117056122fb565b5b0492506020810190505b662386f26fc10000831061173f57662386f26fc100008381611735576117346122fb565b5b0492506010810190505b6305f5e1008310611768576305f5e100838161175e5761175d6122fb565b5b0492506008810190505b612710831061178d576127108381611783576117826122fb565b5b0492506004810190505b606483106117b057606483816117a6576117a56122fb565b5b0492506002810190505b600a83106117bf576001810190505b80915050919050565b5f604051905090565b5f5ffd5b5f5ffd5b5f7fffffffff0000000000000000000000000000000000000000000000000000000082169050919050565b61180d816117d9565b8114611817575f5ffd5b50565b5f8135905061182881611804565b92915050565b5f60208284031215611843576118426117d1565b5b5f6118508482850161181a565b91505092915050565b5f8115159050919050565b61186d81611859565b82525050565b5f6020820190506118865f830184611864565b92915050565b5f81519050919050565b5f82825260208201905092915050565b8281835e5f83830152505050565b5f601f19601f8301169050919050565b5f6118ce8261188c565b6118d88185611896565b93506118e88185602086016118a6565b6118f1816118b4565b840191505092915050565b5f6020820190508181035f83015261191481846118c4565b905092915050565b5f819050919050565b61192e8161191c565b8114611938575f5ffd5b50565b5f8135905061194981611925565b92915050565b5f60208284031215611964576119636117d1565b5b5f6119718482850161193b565b91505092915050565b5f73ffffffffffffffffffffffffffffffffffffffff82169050919050565b5f6119a38261197a565b9050919050565b6119b381611999565b82525050565b5f6020820190506119cc5f8301846119aa565b92915050565b6119db81611999565b81146119e5575f5ffd5b50565b5f813590506119f6816119d2565b92915050565b5f5f60408385031215611a1257611a116117d1565b5b5f611a1f858286016119e8565b9250506020611a308582860161193b565b9150509250929050565b5f5f5f60608486031215611a5157611a506117d1565b5b5f611a5e868287016119e8565b9350506020611a6f868287016119e8565b9250506040611a808682870161193b565b9150509250925092565b5f60208284031215611a9f57611a9e6117d1565b5b5f611aac848285016119e8565b91505092915050565b611abe8161191c565b82525050565b5f602082019050611ad75f830184611ab5565b92915050565b611ae681611859565b8114611af0575f5ffd5b50565b5f81359050611b0181611add565b92915050565b5f5f60408385031215611b1d57611b1c6117d1565b5b5f611b2a858286016119e8565b9250506020611b3b85828601611af3565b9150509250929050565b5f5ffd5b5f5ffd5b7f4e487b71000000000000000000000000000000000000000000000000000000005f52604160045260245ffd5b611b83826118b4565b810181811067ffffffffffffffff82111715611ba257611ba1611b4d565b5b80604052505050565b5f611bb46117c8565b9050611bc08282611b7a565b919050565b5f67ffffffffffffffff821115611bdf57611bde611b4d565b5b611be8826118b4565b9050602081019050919050565b828183375f83830152505050565b5f611c15611c1084611bc5565b611bab565b905082815260208101848484011115611c3157611c30611b49565b5b611c3c848285611bf5565b509392505050565b5f82601f830112611c5857611c57611b45565b5b8135611c68848260208601611c03565b91505092915050565b5f5f5f5f60808587031215611c8957611c886117d1565b5b5f611c96878288016119e8565b9450506020611ca7878288016119e8565b9350506040611cb88782880161193b565b925050606085013567ffffffffffffffff811115611cd957611cd86117d5565b5b611ce587828801611c44565b91505092959194509250565b5f67ffffffffffffffff821115611d0b57611d0a611b4d565b5b611d14826118b4565b9050602081019050919050565b5f611d33611d2e84611cf1565b611bab565b905082815260208101848484011115611d4f57611d4e611b49565b5b611d5a848285611bf5565b509392505050565b5f82601f830112611d7657611d75611b45565b5b8135611d86848260208601611d21565b91505092915050565b5f5f60408385031215611da557611da46117d1565b5b5f611db2858286016119e8565b925050602083013567ffffffffffffffff811115611dd357611dd26117d5565b5b611ddf85828601611d62565b9150509250929050565b5f5f60408385031215611dff57611dfe6117d1565b5b5f611e0c858286016119e8565b9250506020611e1d858286016119e8565b9150509250929050565b7f4e487b71000000000000000000000000000000000000000000000000000000005f52602260045260245ffd5b5f6002820490506001821680611e6b57607f821691505b602082108103611e7e57611e7d611e27565b5b50919050565b5f606082019050611e975f8301866119aa565b611ea46020830185611ab5565b611eb160408301846119aa565b949350505050565b5f81905092915050565b5f611ecd8261188c565b611ed78185611eb9565b9350611ee78185602086016118a6565b80840191505092915050565b5f611efe8285611ec3565b9150611f0a8284611ec3565b91508190509392505050565b7f4e487b71000000000000000000000000000000000000000000000000000000005f52601160045260245ffd5b5f611f4d8261191c565b91507fffffffffffffffffffffffffffffffffffffffffffffffffffffffffffffffff8203611f7f57611f7e611f16565b5b600182019050919050565b5f81519050919050565b5f82825260208201905092915050565b5f611fae82611f8a565b611fb88185611f94565b9350611fc88185602086016118a6565b611fd1816118b4565b840191505092915050565b5f608082019050611fef5f8301876119aa565b611ffc60208301866119aa565b6120096040830185611ab5565b818103606083015261201b8184611fa4565b905095945050505050565b5f8151905061203481611804565b92915050565b5f6020828403121561204f5761204e6117d1565b5b5f61205c84828501612026565b91505092915050565b5f819050815f5260205f209050919050565b5f6020601f8301049050919050565b5f82821b905092915050565b5f600883026120c17fffffffffffffffffffffffffffffffffffffffffffffffffffffffffffffffff82612086565b6120cb8683612086565b95508019841693508086168417925050509392505050565b5f819050919050565b5f6121066121016120fc8461191c565b6120e3565b61191c565b9050919050565b5f819050919050565b61211f836120ec565b61213361212b8261210d565b848454612092565b825550505050565b5f5f905090565b61214a61213b565b612155818484612116565b505050565b5b818110156121785761216d5f82612142565b60018101905061215b565b5050565b601f8211156121bd5761218e81612065565b61219784612077565b810160208510156121a6578190505b6121ba6121b285612077565b83018261215a565b50505b505050565b5f82821c905092915050565b5f6121dd5f19846008026121c2565b1980831691505092915050565b5f6121f583836121ce565b9150826002028217905092915050565b61220e8261188c565b67ffffffffffffffff81111561222757612226611b4d565b5b6122318254611e54565b61223c82828561217c565b5f60209050601f83116001811461226d575f841561225b578287015190505b61226585826121ea565b8655506122cc565b601f19841661227b86612065565b5f5b828110156122a25784890151825560018201915060208501945060208101905061227d565b868310156122bf57848901516122bb601f8916826121ce565b8355505b6001600288020188555050505b505050505050565b5f6040820190506122e75f8301856119aa565b6122f46020830184611ab5565b9392505050565b7f4e487b71000000000000000000000000000000000000000000000000000000005f52601260045260245ffdfea26469706673582212207f05fda4de9854dba6b93ebf92fdc183acbea95ea56a2a9277adcec3c32ec73e64736f6c634300081e0033","linkReferences":{}},"methodIdentifiers":{"approve(address,uint256)":"095ea7b3","awardItem(address,string)":"cf378343","balanceOf(address)":"70a08231","getApproved(uint256)":"081812fc","isApprovedForAll(address,address)":"e985e9c5","name()":"06fdde03","ownerOf(uint256)":"6352211e","safeTransferFrom(address,address,uint256)":"42842e0e","safeTransferFrom(address,address,uint256,bytes)":"b88d4fde","setApprovalForAll(address,bool)":"a22cb465","supportsInterface(bytes4)":"01ffc9a7","symbol()":"95d89b41","tokenURI(uint256)":"c87b56dd","transferFrom(address,address,uint256)":"23b872dd"},"id":256}