{"abi":[{"type":"function","name":"bytesMap","inputs":[{"name":"key","type":"uint256","internalType":"uint256"}],"outputs":[{"name":"","type":"bytes","internalType":"bytes"}],"stateMutability":"view"},{"type":"function","name":"getAddressSlot","inputs":[{"name":"slot","type":"bytes32","internalType":"bytes32"}],"outputs":[{"name":"","type":"address","internalType":"address"}],"stateMutability":"view"},{"type":"function","name":"getBooleanSlot","inputs":[{"name":"slot","type":"bytes32","internalType":"bytes32"}],"outputs":[{"name":"","type":"bool","internalType":"bool"}],"stateMutability":"view"},{"type":"function","name":"getBytes32Slot","inputs":[{"name":"slot","type":"bytes32","internalType":"bytes32"}],"outputs":[{"name":"","type":"bytes32","internalType":"bytes32"}],"stateMutability":"view"},{"type":"function","name":"getBytesSlot","inputs":[{"name":"slot","type":"bytes32","internalType":"bytes32"}],"outputs":[{"name":"","type":"bytes","internalType":"bytes"}],"stateMutability":"view"},{"type":"function","name":"getBytesStorage","inputs":[{"name":"key","type":"uint256","internalType":"uint256"}],"outputs":[{"name":"","type":"bytes","internalType":"bytes"}],"stateMutability":"view"},{"type":"function","name":"getInt256Slot","inputs":[{"name":"slot","type":"bytes32","internalType":"bytes32"}],"outputs":[{"name":"","type":"int256","internalType":"int256"}],"stateMutability":"view"},{"type":"function","name":"getStringSlot","inputs":[{"name":"slot","type":"bytes32","internalType":"bytes32"}],"outputs":[{"name":"","type":"string","internalType":"string"}],"stateMutability":"view"},{"type":"function","name":"getStringStorage","inputs":[{"name":"key","type":"uint256","internalType":"uint256"}],"outputs":[{"name":"","type":"string","internalType":"string"}],"stateMutability":"view"},{"type":"function","name":"getUint256Slot","inputs":[{"name":"slot","type":"bytes32","internalType":"bytes32"}],"outputs":[{"name":"","type":"uint256","internalType":"uint256"}],"stateMutability":"view"},{"type":"function","name":"multicall","inputs":[{"name":"data","type":"bytes[]","internalType":"bytes[]"}],"outputs":[{"name":"results","type":"bytes[]","internalType":"bytes[]"}],"stateMutability":"nonpayable"},{"type":"function","name":"setAddressSlot","inputs":[{"name":"slot","type":"bytes32","internalType":"bytes32"},{"name":"value","type":"address","internalType":"address"}],"outputs":[],"stateMutability":"nonpayable"},{"type":"function","name":"setBooleanSlot","inputs":[{"name":"slot","type":"bytes32","internalType":"bytes32"},{"name":"value","type":"bool","internalType":"bool"}],"outputs":[],"stateMutability":"nonpayable"},{"type":"function","name":"setBytes32Slot","inputs":[{"name":"slot","type":"bytes32","internalType":"bytes32"},{"name":"value","type":"bytes32","internalType":"bytes32"}],"outputs":[],"stateMutability":"nonpayable"},{"type":"function","name":"setBytesSlot","inputs":[{"name":"slot","type":"bytes32","internalType":"bytes32"},{"name":"value","type":"bytes","internalType":"bytes"}],"outputs":[],"stateMutability":"nonpayable"},{"type":"function","name":"setBytesStorage","inputs":[{"name":"key","type":"uint256","internalType":"uint256"},{"name":"value","type":"bytes","internalType":"bytes"}],"outputs":[],"stateMutability":"nonpayable"},{"type":"function","name":"setInt256Slot","inputs":[{"name":"slot","type":"bytes32","internalType":"bytes32"},{"name":"value","type":"int256","internalType":"int256"}],"outputs":[],"stateMutability":"nonpayable"},{"type":"function","name":"setStringSlot","inputs":[{"name":"slot","type":"bytes32","internalType":"bytes32"},{"name":"value","type":"string","internalType":"string"}],"outputs":[],"stateMutability":"nonpayable"},{"type":"function","name":"setStringStorage","inputs":[{"name":"key","type":"uint256","internalType":"uint256"},{"name":"value","type":"string","internalType":"string"}],"outputs":[],"stateMutability":"nonpayable"},{"type":"function","name":"setUint256Slot","inputs":[{"name":"slot","type":"bytes32","internalType":"bytes32"},{"name":"value","type":"uint256","internalType":"uint256"}],"outputs":[],"stateMutability":"nonpayable"},{"type":"function","name":"stringMap","inputs":[{"name":"key","type":"uint256","internalType":"uint256"}],"outputs":[{"name":"","type":"string","internalType":"string"}],"stateMutability":"view"},{"type":"error","name":"AddressEmptyCode","inputs":[{"name":"target","type":"address","internalType":"address"}]},{"type":"error","name":"FailedCall","inputs":[]}],"bytecode":{"object":"0x6080604052348015600e575f5ffd5b50611c2d8061001c5f395ff3fe608060405234801561000f575f5ffd5b5060043610610135575f3560e01c806383681c5b116100b6578063ac9650d81161007a578063ac9650d814610369578063b62b81ef14610399578063b86c5dd5146103c9578063dd4e2762146103e5578063df6e58d614610415578063e8ff0b1d1461044557610135565b806383681c5b146102b5578063913a2e32146102d1578063949a352c146102ed5780639b22f3431461031d578063a55a27f61461034d57610135565b806347e57533116100fd57806347e57533146102015780634c650c86146102315780635a46e25d1461024d5780636e0e04831461027d578063767e35e01461029957610135565b80630afb30ba146101395780631e133d0f1461015557806329c027e01461018557806337f4a46d146101b55780633e60bd78146101e5575b5f5ffd5b610153600480360381019061014e9190610e22565b610475565b005b61016f600480360381019061016a9190610e7f565b6104a5565b60405161017c9190610f1a565b60405180910390f35b61019f600480360381019061019a9190610f6d565b61053f565b6040516101ac9190610fb0565b60405180910390f35b6101cf60048036038101906101ca9190610f6d565b610553565b6040516101dc9190610fe3565b60405180910390f35b6101ff60048036038101906101fa9190611051565b610573565b005b61021b60048036038101906102169190610f6d565b6105a2565b6040516102289190611100565b60405180910390f35b61024b60048036038101906102469190611120565b61063d565b005b61026760048036038101906102629190610e7f565b610651565b6040516102749190611100565b60405180910390f35b6102976004803603810190610292919061115e565b6106ec565b005b6102b360048036038101906102ae919061119c565b610700565b005b6102cf60048036038101906102ca9190611223565b610720565b005b6102eb60048036038101906102e69190611261565b610734565b005b61030760048036038101906103029190610f6d565b610754565b60405161031491906112cd565b60405180910390f35b61033760048036038101906103329190610e7f565b610768565b6040516103449190611100565b60405180910390f35b61036760048036038101906103629190611310565b610813565b005b610383600480360381019061037e91906113a3565b610839565b60405161039091906114f1565b60405180910390f35b6103b360048036038101906103ae9190610f6d565b610a1a565b6040516103c09190610f1a565b60405180910390f35b6103e360048036038101906103de919061156b565b610ab5565b005b6103ff60048036038101906103fa9190610f6d565b610b02565b60405161040c91906115b8565b60405180910390f35b61042f600480360381019061042a9190610e7f565b610b16565b60405161043c9190610f1a565b60405180910390f35b61045f600480360381019061045a9190610f6d565b610bc0565b60405161046c91906115e0565b60405180910390f35b818161049060015f8781526020019081526020015f20610bf3565b5f01918261049f92919061182d565b50505050565b5f602052805f5260405f205f9150905080546104c09061165d565b80601f01602080910402602001604051908101604052809291908181526020018280546104ec9061165d565b80156105375780601f1061050e57610100808354040283529160200191610537565b820191905f5260205f20905b81548152906001019060200180831161051a57829003601f168201915b505050505081565b5f61054982610bfc565b5f01549050919050565b5f61055d82610c05565b5f015f9054906101000a900460ff169050919050565b818161058d5f5f8781526020019081526020015f20610c0e565b5f01918261059c92919061195c565b50505050565b60606105ad82610c17565b5f0180546105ba9061165d565b80601f01602080910402602001604051908101604052809291908181526020018280546105e69061165d565b80156106315780601f1061060857610100808354040283529160200191610631565b820191905f5260205f20905b81548152906001019060200180831161061457829003601f168201915b50505050509050919050565b8061064783610c20565b5f01819055505050565b6001602052805f5260405f205f91509050805461066d9061165d565b80601f01602080910402602001604051908101604052809291908181526020018280546106999061165d565b80156106e45780601f106106bb576101008083540402835291602001916106e4565b820191905f5260205f20905b8154815290600101906020018083116106c757829003601f168201915b505050505081565b806106f683610c29565b5f01819055505050565b818161070b85610c17565b5f01918261071a92919061182d565b50505050565b8061072a83610bfc565b5f01819055505050565b818161073f85610c32565b5f01918261074e92919061195c565b50505050565b5f61075e82610c20565b5f01549050919050565b606061078360015f8481526020019081526020015f20610bf3565b5f0180546107909061165d565b80601f01602080910402602001604051908101604052809291908181526020018280546107bc9061165d565b80156108075780601f106107de57610100808354040283529160200191610807565b820191905f5260205f20905b8154815290600101906020018083116107ea57829003601f168201915b50505050509050919050565b8061081d83610c05565b5f015f6101000a81548160ff0219169083151502179055505050565b60605f610844610c3b565b73ffffffffffffffffffffffffffffffffffffffff163373ffffffffffffffffffffffffffffffffffffffff16146108e4575f36610880610c42565b5f36905061088e9190611a56565b90809261089d93929190611a91565b8080601f0160208091040260200160405190810160405280939291908181526020018383808284375f81840152601f19601f82011690508083019250505050505050610932565b5f67ffffffffffffffff8111156108fe576108fd611603565b5b6040519080825280601f01601f1916602001820160405280156109305781602001600182028036833780820191505090505b505b90508383905067ffffffffffffffff81111561095157610950611603565b5b60405190808252806020026020018201604052801561098457816020015b606081526020019060019003908161096f5790505b5091505f5f90505b84849050811015610a12576109e7308686848181106109ae576109ad611acb565b5b90506020028101906109c09190611b04565b856040516020016109d393929190611bd2565b604051602081830303815290604052610c49565b8382815181106109fa576109f9611acb565b5b6020026020010181905250808060010191505061098c565b505092915050565b6060610a2582610c32565b5f018054610a329061165d565b80601f0160208091040260200160405190810160405280929190818152602001828054610a5e9061165d565b8015610aa95780601f10610a8057610100808354040283529160200191610aa9565b820191905f5260205f20905b815481529060010190602001808311610a8c57829003601f168201915b50505050509050919050565b80610abf83610d3a565b5f015f6101000a81548173ffffffffffffffffffffffffffffffffffffffff021916908373ffffffffffffffffffffffffffffffffffffffff1602179055505050565b5f610b0c82610c29565b5f01549050919050565b6060610b305f5f8481526020019081526020015f20610c0e565b5f018054610b3d9061165d565b80601f0160208091040260200160405190810160405280929190818152602001828054610b699061165d565b8015610bb45780601f10610b8b57610100808354040283529160200191610bb4565b820191905f5260205f20905b815481529060010190602001808311610b9757829003601f168201915b50505050509050919050565b5f610bca82610d3a565b5f015f9054906101000a900473ffffffffffffffffffffffffffffffffffffffff169050919050565b5f819050919050565b5f819050919050565b5f819050919050565b5f819050919050565b5f819050919050565b5f819050919050565b5f819050919050565b5f819050919050565b5f33905090565b5f5f905090565b60605f610c568484610d43565b9050808015610c8c57505f610c69610d57565b1180610c8b57505f8473ffffffffffffffffffffffffffffffffffffffff163b115b5b15610ca157610c99610d5e565b915050610d34565b8015610ce457836040517f9996b315000000000000000000000000000000000000000000000000000000008152600401610cdb91906115e0565b60405180910390fd5b5f610ced610d57565b1115610d0057610cfb610d7b565b610d32565b6040517fd6bda27500000000000000000000000000000000000000000000000000000000815260040160405180910390fd5b505b92915050565b5f819050919050565b5f5f5f835160208501865af4905092915050565b5f3d905090565b606060405190503d81523d5f602083013e3d602001810160405290565b6040513d5f823e3d81fd5b5f5ffd5b5f5ffd5b5f819050919050565b610da081610d8e565b8114610daa575f5ffd5b50565b5f81359050610dbb81610d97565b92915050565b5f5ffd5b5f5ffd5b5f5ffd5b5f5f83601f840112610de257610de1610dc1565b5b8235905067ffffffffffffffff811115610dff57610dfe610dc5565b5b602083019150836001820283011115610e1b57610e1a610dc9565b5b9250929050565b5f5f5f60408486031215610e3957610e38610d86565b5b5f610e4686828701610dad565b935050602084013567ffffffffffffffff811115610e6757610e66610d8a565b5b610e7386828701610dcd565b92509250509250925092565b5f60208284031215610e9457610e93610d86565b5b5f610ea184828501610dad565b91505092915050565b5f81519050919050565b5f82825260208201905092915050565b8281835e5f83830152505050565b5f601f19601f8301169050919050565b5f610eec82610eaa565b610ef68185610eb4565b9350610f06818560208601610ec4565b610f0f81610ed2565b840191505092915050565b5f6020820190508181035f830152610f328184610ee2565b905092915050565b5f819050919050565b610f4c81610f3a565b8114610f56575f5ffd5b50565b5f81359050610f6781610f43565b92915050565b5f60208284031215610f8257610f81610d86565b5b5f610f8f84828501610f59565b91505092915050565b5f819050919050565b610faa81610f98565b82525050565b5f602082019050610fc35f830184610fa1565b92915050565b5f8115159050919050565b610fdd81610fc9565b82525050565b5f602082019050610ff65f830184610fd4565b92915050565b5f5f83601f84011261101157611010610dc1565b5b8235905067ffffffffffffffff81111561102e5761102d610dc5565b5b60208301915083600182028301111561104a57611049610dc9565b5b9250929050565b5f5f5f6040848603121561106857611067610d86565b5b5f61107586828701610dad565b935050602084013567ffffffffffffffff81111561109657611095610d8a565b5b6110a286828701610ffc565b92509250509250925092565b5f81519050919050565b5f82825260208201905092915050565b5f6110d2826110ae565b6110dc81856110b8565b93506110ec818560208601610ec4565b6110f581610ed2565b840191505092915050565b5f6020820190508181035f83015261111881846110c8565b905092915050565b5f5f6040838503121561113657611135610d86565b5b5f61114385828601610f59565b925050602061115485828601610dad565b9150509250929050565b5f5f6040838503121561117457611173610d86565b5b5f61118185828601610f59565b925050602061119285828601610f59565b9150509250929050565b5f5f5f604084860312156111b3576111b2610d86565b5b5f6111c086828701610f59565b935050602084013567ffffffffffffffff8111156111e1576111e0610d8a565b5b6111ed86828701610dcd565b92509250509250925092565b61120281610f98565b811461120c575f5ffd5b50565b5f8135905061121d816111f9565b92915050565b5f5f6040838503121561123957611238610d86565b5b5f61124685828601610f59565b92505060206112578582860161120f565b9150509250929050565b5f5f5f6040848603121561127857611277610d86565b5b5f61128586828701610f59565b935050602084013567ffffffffffffffff8111156112a6576112a5610d8a565b5b6112b286828701610ffc565b92509250509250925092565b6112c781610d8e565b82525050565b5f6020820190506112e05f8301846112be565b92915050565b6112ef81610fc9565b81146112f9575f5ffd5b50565b5f8135905061130a816112e6565b92915050565b5f5f6040838503121561132657611325610d86565b5b5f61133385828601610f59565b9250506020611344858286016112fc565b9150509250929050565b5f5f83601f84011261136357611362610dc1565b5b8235905067ffffffffffffffff8111156113805761137f610dc5565b5b60208301915083602082028301111561139c5761139b610dc9565b5b9250929050565b5f5f602083850312156113b9576113b8610d86565b5b5f83013567ffffffffffffffff8111156113d6576113d5610d8a565b5b6113e28582860161134e565b92509250509250929050565b5f81519050919050565b5f82825260208201905092915050565b5f819050602082019050919050565b5f82825260208201905092915050565b5f611431826110ae565b61143b8185611417565b935061144b818560208601610ec4565b61145481610ed2565b840191505092915050565b5f61146a8383611427565b905092915050565b5f602082019050919050565b5f611488826113ee565b61149281856113f8565b9350836020820285016114a485611408565b805f5b858110156114df57848403895281516114c0858261145f565b94506114cb83611472565b925060208a019950506001810190506114a7565b50829750879550505050505092915050565b5f6020820190508181035f830152611509818461147e565b905092915050565b5f73ffffffffffffffffffffffffffffffffffffffff82169050919050565b5f61153a82611511565b9050919050565b61154a81611530565b8114611554575f5ffd5b50565b5f8135905061156581611541565b92915050565b5f5f6040838503121561158157611580610d86565b5b5f61158e85828601610f59565b925050602061159f85828601611557565b9150509250929050565b6115b281610f3a565b82525050565b5f6020820190506115cb5f8301846115a9565b92915050565b6115da81611530565b82525050565b5f6020820190506115f35f8301846115d1565b92915050565b5f82905092915050565b7f4e487b71000000000000000000000000000000000000000000000000000000005f52604160045260245ffd5b7f4e487b71000000000000000000000000000000000000000000000000000000005f52602260045260245ffd5b5f600282049050600182168061167457607f821691505b60208210810361168757611686611630565b5b50919050565b5f819050815f5260205f209050919050565b5f6020601f8301049050919050565b5f82821b905092915050565b5f600883026116e97fffffffffffffffffffffffffffffffffffffffffffffffffffffffffffffffff826116ae565b6116f386836116ae565b95508019841693508086168417925050509392505050565b5f819050919050565b5f61172e61172961172484610d8e565b61170b565b610d8e565b9050919050565b5f819050919050565b61174783611714565b61175b61175382611735565b8484546116ba565b825550505050565b5f5f905090565b611772611763565b61177d81848461173e565b505050565b5b818110156117a0576117955f8261176a565b600181019050611783565b5050565b601f8211156117e5576117b68161168d565b6117bf8461169f565b810160208510156117ce578190505b6117e26117da8561169f565b830182611782565b50505b505050565b5f82821c905092915050565b5f6118055f19846008026117ea565b1980831691505092915050565b5f61181d83836117f6565b9150826002028217905092915050565b61183783836115f9565b67ffffffffffffffff8111156118505761184f611603565b5b61185a825461165d565b6118658282856117a4565b5f601f831160018114611892575f8415611880578287013590505b61188a8582611812565b8655506118f1565b601f1984166118a08661168d565b5f5b828110156118c7578489013582556001820191506020850194506020810190506118a2565b868310156118e457848901356118e0601f8916826117f6565b8355505b6001600288020188555050505b50505050505050565b5f82905092915050565b5f819050815f5260205f209050919050565b601f8211156119575761192881611904565b6119318461169f565b81016020851015611940578190505b61195461194c8561169f565b830182611782565b50505b505050565b61196683836118fa565b67ffffffffffffffff81111561197f5761197e611603565b5b611989825461165d565b611994828285611916565b5f601f8311600181146119c1575f84156119af578287013590505b6119b98582611812565b865550611a20565b601f1984166119cf86611904565b5f5b828110156119f6578489013582556001820191506020850194506020810190506119d1565b86831015611a135784890135611a0f601f8916826117f6565b8355505b6001600288020188555050505b50505050505050565b7f4e487b71000000000000000000000000000000000000000000000000000000005f52601160045260245ffd5b5f611a6082610d8e565b9150611a6b83610d8e565b9250828203905081811115611a8357611a82611a29565b5b92915050565b5f5ffd5b5f5ffd5b5f5f85851115611aa457611aa3611a89565b5b83861115611ab557611ab4611a8d565b5b6001850283019150848603905094509492505050565b7f4e487b71000000000000000000000000000000000000000000000000000000005f52603260045260245ffd5b5f5ffd5b5f5ffd5b5f5ffd5b5f5f83356001602003843603038112611b2057611b1f611af8565b5b80840192508235915067ffffffffffffffff821115611b4257611b41611afc565b5b602083019250600182023603831315611b5e57611b5d611b00565b5b509250929050565b5f81905092915050565b828183375f83830152505050565b5f611b898385611b66565b9350611b96838584611b70565b82840190509392505050565b5f611bac826110ae565b611bb68185611b66565b9350611bc6818560208601610ec4565b80840191505092915050565b5f611bde828587611b7e565b9150611bea8284611ba2565b915081905094935050505056fea2646970667358221220d3051ed82c56cba2f98fb0449fb1c5fdea73299e3fdd90d301f5fb85109aee8d64736f6c634300081e0033","linkReferences":{}},"methodIdentifiers":{"bytesMap(uint256)":"5a46e25d","getAddressSlot(bytes32)":"e8ff0b1d","getBooleanSlot(bytes32)":"37f4a46d","getBytes32Slot(bytes32)":"dd4e2762","getBytesSlot(bytes32)":"47e57533","getBytesStorage(uint256)":"9b22f343","getInt256Slot(bytes32)":"29c027e0","getStringSlot(bytes32)":"b62b81ef","getStringStorage(uint256)":"df6e58d6","getUint256Slot(bytes32)":"949a352c","multicall(bytes[])":"ac9650d8","setAddressSlot(bytes32,address)":"b86c5dd5","setBooleanSlot(bytes32,bool)":"a55a27f6","setBytes32Slot(bytes32,bytes32)":"6e0e0483","setBytesSlot(bytes32,bytes)":"767e35e0","setBytesStorage(uint256,bytes)":"0afb30ba","setInt256Slot(bytes32,int256)":"83681c5b","setStringSlot(bytes32,string)":"913a2e32","setStringStorage(uint256,string)":"3e60bd78","setUint256Slot(bytes32,uint256)":"4c650c86","stringMap(uint256)":"1e133d0f"},"id":224}