{"abi":[{"type":"constructor","inputs":[],"stateMutability":"nonpayable"},{"type":"receive","stateMutability":"payable"},{"type":"function","name":"addStake","inputs":[{"name":"unstakeDelaySec","type":"uint32","internalType":"uint32"}],"outputs":[],"stateMutability":"payable"},{"type":"function","name":"balanceOf","inputs":[{"name":"account","type":"address","internalType":"address"}],"outputs":[{"name":"","type":"uint256","internalType":"uint256"}],"stateMutability":"view"},{"type":"function","name":"delegateAndRevert","inputs":[{"name":"target","type":"address","internalType":"address"},{"name":"data","type":"bytes","internalType":"bytes"}],"outputs":[],"stateMutability":"nonpayable"},{"type":"function","name":"depositTo","inputs":[{"name":"account","type":"address","internalType":"address"}],"outputs":[],"stateMutability":"payable"},{"type":"function","name":"eip712Domain","inputs":[],"outputs":[{"name":"fields","type":"bytes1","internalType":"bytes1"},{"name":"name","type":"string","internalType":"string"},{"name":"version","type":"string","internalType":"string"},{"name":"chainId","type":"uint256","internalType":"uint256"},{"name":"verifyingContract","type":"address","internalType":"address"},{"name":"salt","type":"bytes32","internalType":"bytes32"},{"name":"extensions","type":"uint256[]","internalType":"uint256[]"}],"stateMutability":"view"},{"type":"function","name":"getCurrentUserOpHash","inputs":[],"outputs":[{"name":"","type":"bytes32","internalType":"bytes32"}],"stateMutability":"view"},{"type":"function","name":"getDepositInfo","inputs":[{"name":"account","type":"address","internalType":"address"}],"outputs":[{"name":"info","type":"tuple","internalType":"struct IStakeManager.DepositInfo","components":[{"name":"deposit","type":"uint256","internalType":"uint256"},{"name":"staked","type":"bool","internalType":"bool"},{"name":"stake","type":"uint112","internalType":"uint112"},{"name":"unstakeDelaySec","type":"uint32","internalType":"uint32"},{"name":"withdrawTime","type":"uint48","internalType":"uint48"}]}],"stateMutability":"view"},{"type":"function","name":"getDomainSeparatorV4","inputs":[],"outputs":[{"name":"","type":"bytes32","internalType":"bytes32"}],"stateMutability":"view"},{"type":"function","name":"getNonce","inputs":[{"name":"sender","type":"address","internalType":"address"},{"name":"key","type":"uint192","internalType":"uint192"}],"outputs":[{"name":"nonce","type":"uint256","internalType":"uint256"}],"stateMutability":"view"},{"type":"function","name":"getPackedUserOpTypeHash","inputs":[],"outputs":[{"name":"","type":"bytes32","internalType":"bytes32"}],"stateMutability":"pure"},{"type":"function","name":"getSenderAddress","inputs":[{"name":"initCode","type":"bytes","internalType":"bytes"}],"outputs":[],"stateMutability":"nonpayable"},{"type":"function","name":"getUserOpHash","inputs":[{"name":"userOp","type":"tuple","internalType":"struct PackedUserOperation","components":[{"name":"sender","type":"address","internalType":"address"},{"name":"nonce","type":"uint256","internalType":"uint256"},{"name":"initCode","type":"bytes","internalType":"bytes"},{"name":"callData","type":"bytes","internalType":"bytes"},{"name":"accountGasLimits","type":"bytes32","internalType":"bytes32"},{"name":"preVerificationGas","type":"uint256","internalType":"uint256"},{"name":"gasFees","type":"bytes32","internalType":"bytes32"},{"name":"paymasterAndData","type":"bytes","internalType":"bytes"},{"name":"signature","type":"bytes","internalType":"bytes"}]}],"outputs":[{"name":"","type":"bytes32","internalType":"bytes32"}],"stateMutability":"view"},{"type":"function","name":"handleAggregatedOps","inputs":[{"name":"opsPerAggregator","type":"tuple[]","internalType":"struct IEntryPoint.UserOpsPerAggregator[]","components":[{"name":"userOps","type":"tuple[]","internalType":"struct PackedUserOperation[]","components":[{"name":"sender","type":"address","internalType":"address"},{"name":"nonce","type":"uint256","internalType":"uint256"},{"name":"initCode","type":"bytes","internalType":"bytes"},{"name":"callData","type":"bytes","internalType":"bytes"},{"name":"accountGasLimits","type":"bytes32","internalType":"bytes32"},{"name":"preVerificationGas","type":"uint256","internalType":"uint256"},{"name":"gasFees","type":"bytes32","internalType":"bytes32"},{"name":"paymasterAndData","type":"bytes","internalType":"bytes"},{"name":"signature","type":"bytes","internalType":"bytes"}]},{"name":"aggregator","type":"address","internalType":"contract IAggregator"},{"name":"signature","type":"bytes","internalType":"bytes"}]},{"name":"beneficiary","type":"address","internalType":"address payable"}],"outputs":[],"stateMutability":"nonpayable"},{"type":"function","name":"handleOps","inputs":[{"name":"ops","type":"tuple[]","internalType":"struct PackedUserOperation[]","components":[{"name":"sender","type":"address","internalType":"address"},{"name":"nonce","type":"uint256","internalType":"uint256"},{"name":"initCode","type":"bytes","internalType":"bytes"},{"name":"callData","type":"bytes","internalType":"bytes"},{"name":"accountGasLimits","type":"bytes32","internalType":"bytes32"},{"name":"preVerificationGas","type":"uint256","internalType":"uint256"},{"name":"gasFees","type":"bytes32","internalType":"bytes32"},{"name":"paymasterAndData","type":"bytes","internalType":"bytes"},{"name":"signature","type":"bytes","internalType":"bytes"}]},{"name":"beneficiary","type":"address","internalType":"address payable"}],"outputs":[],"stateMutability":"nonpayable"},{"type":"function","name":"incrementNonce","inputs":[{"name":"key","type":"uint192","internalType":"uint192"}],"outputs":[],"stateMutability":"nonpayable"},{"type":"function","name":"innerHandleOp","inputs":[{"name":"callData","type":"bytes","internalType":"bytes"},{"name":"opInfo","type":"tuple","internalType":"struct EntryPoint.UserOpInfo","components":[{"name":"mUserOp","type":"tuple","internalType":"struct EntryPoint.MemoryUserOp","components":[{"name":"sender","type":"address","internalType":"address"},{"name":"nonce","type":"uint256","internalType":"uint256"},{"name":"verificationGasLimit","type":"uint256","internalType":"uint256"},{"name":"callGasLimit","type":"uint256","internalType":"uint256"},{"name":"paymasterVerificationGasLimit","type":"uint256","internalType":"uint256"},{"name":"paymasterPostOpGasLimit","type":"uint256","internalType":"uint256"},{"name":"preVerificationGas","type":"uint256","internalType":"uint256"},{"name":"paymaster","type":"address","internalType":"address"},{"name":"maxFeePerGas","type":"uint256","internalType":"uint256"},{"name":"maxPriorityFeePerGas","type":"uint256","internalType":"uint256"}]},{"name":"userOpHash","type":"bytes32","internalType":"bytes32"},{"name":"prefund","type":"uint256","internalType":"uint256"},{"name":"contextOffset","type":"uint256","internalType":"uint256"},{"name":"preOpGas","type":"uint256","internalType":"uint256"}]},{"name":"context","type":"bytes","internalType":"bytes"}],"outputs":[{"name":"actualGasCost","type":"uint256","internalType":"uint256"}],"stateMutability":"nonpayable"},{"type":"function","name":"nonceSequenceNumber","inputs":[{"name":"","type":"address","internalType":"address"},{"name":"","type":"uint192","internalType":"uint192"}],"outputs":[{"name":"","type":"uint256","internalType":"uint256"}],"stateMutability":"view"},{"type":"function","name":"senderCreator","inputs":[],"outputs":[{"name":"","type":"address","internalType":"contract ISenderCreator"}],"stateMutability":"view"},{"type":"function","name":"supportsInterface","inputs":[{"name":"interfaceId","type":"bytes4","internalType":"bytes4"}],"outputs":[{"name":"","type":"bool","internalType":"bool"}],"stateMutability":"view"},{"type":"function","name":"unlockStake","inputs":[],"outputs":[],"stateMutability":"nonpayable"},{"type":"function","name":"withdrawStake","inputs":[{"name":"withdrawAddress","type":"address","internalType":"address payable"}],"outputs":[],"stateMutability":"nonpayable"},{"type":"function","name":"withdrawTo","inputs":[{"name":"withdrawAddress","type":"address","internalType":"address payable"},{"name":"withdrawAmount","type":"uint256","internalType":"uint256"}],"outputs":[],"stateMutability":"nonpayable"},{"type":"event","name":"AccountDeployed","inputs":[{"name":"userOpHash","type":"bytes32","indexed":true,"internalType":"bytes32"},{"name":"sender","type":"address","indexed":true,"internalType":"address"},{"name":"factory","type":"address","indexed":false,"internalType":"address"},{"name":"paymaster","type":"address","indexed":false,"internalType":"address"}],"anonymous":false},{"type":"event","name":"BeforeExecution","inputs":[],"anonymous":false},{"type":"event","name":"Deposited","inputs":[{"name":"account","type":"address","indexed":true,"internalType":"address"},{"name":"totalDeposit","type":"uint256","indexed":false,"internalType":"uint256"}],"anonymous":false},{"type":"event","name":"EIP712DomainChanged","inputs":[],"anonymous":false},{"type":"event","name":"EIP7702AccountInitialized","inputs":[{"name":"userOpHash","type":"bytes32","indexed":true,"internalType":"bytes32"},{"name":"sender","type":"address","indexed":true,"internalType":"address"},{"name":"delegate","type":"address","indexed":true,"internalType":"address"}],"anonymous":false},{"type":"event","name":"IgnoredInitCode","inputs":[{"name":"userOpHash","type":"bytes32","indexed":true,"internalType":"bytes32"},{"name":"sender","type":"address","indexed":true,"internalType":"address"},{"name":"unusedFactory","type":"address","indexed":false,"internalType":"address"}],"anonymous":false},{"type":"event","name":"PostOpRevertReason","inputs":[{"name":"userOpHash","type":"bytes32","indexed":true,"internalType":"bytes32"},{"name":"sender","type":"address","indexed":true,"internalType":"address"},{"name":"nonce","type":"uint256","indexed":false,"internalType":"uint256"},{"name":"revertReason","type":"bytes","indexed":false,"internalType":"bytes"}],"anonymous":false},{"type":"event","name":"SignatureAggregatorChanged","inputs":[{"name":"aggregator","type":"address","indexed":true,"internalType":"address"}],"anonymous":false},{"type":"event","name":"StakeLocked","inputs":[{"name":"account","type":"address","indexed":true,"internalType":"address"},{"name":"totalStaked","type":"uint256","indexed":false,"internalType":"uint256"},{"name":"unstakeDelaySec","type":"uint256","indexed":false,"internalType":"uint256"}],"anonymous":false},{"type":"event","name":"StakeUnlocked","inputs":[{"name":"account","type":"address","indexed":true,"internalType":"address"},{"name":"withdrawTime","type":"uint256","indexed":false,"internalType":"uint256"}],"anonymous":false},{"type":"event","name":"StakeWithdrawn","inputs":[{"name":"account","type":"address","indexed":true,"internalType":"address"},{"name":"withdrawAddress","type":"address","indexed":false,"internalType":"address"},{"name":"amount","type":"uint256","indexed":false,"internalType":"uint256"}],"anonymous":false},{"type":"event","name":"UserOperationEvent","inputs":[{"name":"userOpHash","type":"bytes32","indexed":true,"internalType":"bytes32"},{"name":"sender","type":"address","indexed":true,"internalType":"address"},{"name":"paymaster","type":"address","indexed":true,"internalType":"address"},{"name":"nonce","type":"uint256","indexed":false,"internalType":"uint256"},{"name":"success","type":"bool","indexed":false,"internalType":"bool"},{"name":"actualGasCost","type":"uint256","indexed":false,"internalType":"uint256"},{"name":"actualGasUsed","type":"uint256","indexed":false,"internalType":"uint256"}],"anonymous":false},{"type":"event","name":"UserOperationPrefundTooLow","inputs":[{"name":"userOpHash","type":"bytes32","indexed":true,"internalType":"bytes32"},{"name":"sender","type":"address","indexed":true,"internalType":"address"},{"name":"nonce","type":"uint256","indexed":false,"internalType":"uint256"}],"anonymous":false},{"type":"event","name":"UserOperationRevertReason","inputs":[{"name":"userOpHash","type":"bytes32","indexed":true,"internalType":"bytes32"},{"name":"sender","type":"address","indexed":true,"internalType":"address"},{"name":"nonce","type":"uint256","indexed":false,"internalType":"uint256"},{"name":"revertReason","type":"bytes","indexed":false,"internalType":"bytes"}],"anonymous":false},{"type":"event","name":"Withdrawn","inputs":[{"name":"account","type":"address","indexed":true,"internalType":"address"},{"name":"withdrawAddress","type":"address","indexed":false,"internalType":"address"},{"name":"amount","type":"uint256","indexed":false,"internalType":"uint256"}],"anonymous":false},{"type":"error","name":"DelegateAndRevert","inputs":[{"name":"success","type":"bool","internalType":"bool"},{"name":"ret","type":"bytes","internalType":"bytes"}]},{"type":"error","name":"DepositWithdrawalFailed","inputs":[{"name":"account","type":"address","internalType":"address"},{"name":"withdrawAddress","type":"address","internalType":"address"},{"name":"amount","type":"uint256","internalType":"uint256"},{"name":"revertReason","type":"bytes","internalType":"bytes"}]},{"type":"error","name":"Eip7702SenderNotDelegate","inputs":[{"name":"sender","type":"address","internalType":"address"}]},{"type":"error","name":"Eip7702SenderWithoutCode","inputs":[{"name":"sender","type":"address","internalType":"address"}]},{"type":"error","name":"FailedOp","inputs":[{"name":"opIndex","type":"uint256","internalType":"uint256"},{"name":"reason","type":"string","internalType":"string"}]},{"type":"error","name":"FailedOpWithRevert","inputs":[{"name":"opIndex","type":"uint256","internalType":"uint256"},{"name":"reason","type":"string","internalType":"string"},{"name":"inner","type":"bytes","internalType":"bytes"}]},{"type":"error","name":"FailedSendToBeneficiary","inputs":[{"name":"beneficiary","type":"address","internalType":"address"},{"name":"amount","type":"uint256","internalType":"uint256"},{"name":"revertData","type":"bytes","internalType":"bytes"}]},{"type":"error","name":"InsufficientDeposit","inputs":[{"name":"currentDeposit","type":"uint256","internalType":"uint256"},{"name":"withdrawAmount","type":"uint256","internalType":"uint256"}]},{"type":"error","name":"InternalFunction","inputs":[]},{"type":"error","name":"InvalidBeneficiary","inputs":[{"name":"beneficiary","type":"address","internalType":"address"}]},{"type":"error","name":"InvalidPaymaster","inputs":[{"name":"paymaster","type":"address","internalType":"address"}]},{"type":"error","name":"InvalidPaymasterData","inputs":[{"name":"paymasterAndDataLength","type":"uint256","internalType":"uint256"}]},{"type":"error","name":"InvalidPaymasterSignatureLength","inputs":[{"name":"dataLength","type":"uint256","internalType":"uint256"},{"name":"pmSignatureLength","type":"uint256","internalType":"uint256"}]},{"type":"error","name":"InvalidShortString","inputs":[]},{"type":"error","name":"InvalidStake","inputs":[{"name":"msgValue","type":"uint256","internalType":"uint256"},{"name":"currentStake","type":"uint256","internalType":"uint256"}]},{"type":"error","name":"InvalidUnstakeDelay","inputs":[{"name":"newUnstakeDelaySec","type":"uint256","internalType":"uint256"},{"name":"currentUnstakeDelaySec","type":"uint256","internalType":"uint256"}]},{"type":"error","name":"NotStaked","inputs":[{"name":"currentStake","type":"uint256","internalType":"uint256"},{"name":"unstakeDelaySec","type":"uint256","internalType":"uint256"},{"name":"staked","type":"bool","internalType":"bool"}]},{"type":"error","name":"PostOpReverted","inputs":[{"name":"returnData","type":"bytes","internalType":"bytes"}]},{"type":"error","name":"Reentrancy","inputs":[]},{"type":"error","name":"SenderAddressResult","inputs":[{"name":"sender","type":"address","internalType":"address"}]},{"type":"error","name":"SignatureValidationFailed","inputs":[{"name":"aggregator","type":"address","internalType":"address"}]},{"type":"error","name":"StakeNotUnlocked","inputs":[{"name":"withdrawTime","type":"uint256","internalType":"uint256"},{"name":"blockTimestamp","type":"uint256","internalType":"uint256"}]},{"type":"error","name":"StakeWithdrawalFailed","inputs":[{"name":"account","type":"address","internalType":"address"},{"name":"withdrawAddress","type":"address","internalType":"address"},{"name":"amount","type":"uint256","internalType":"uint256"},{"name":"revertReason","type":"bytes","internalType":"bytes"}]},{"type":"error","name":"StringTooLong","inputs":[{"name":"str","type":"string","internalType":"string"}]},{"type":"error","name":"WithdrawalNotDue","inputs":[{"name":"withdrawTime","type":"uint256","internalType":"uint256"},{"name":"blockTimestamp","type":"uint256","internalType":"uint256"}]}],"bytecode":{"object":"0x6101806040526040516100119061029a565b604051809103905ff08015801561002a573d5f5f3e3d5ffd5b5073ffffffffffffffffffffffffffffffffffffffff166101609073ffffffffffffffffffffffffffffffffffffffff16815250348015610069575f5ffd5b506040518060400160405280600781526020017f45524334333337000000000000000000000000000000000000000000000000008152506040518060400160405280600181526020017f31000000000000000000000000000000000000000000000000000000000000008152506100ea60028361018560201b90919060201c565b610120818152505061010660038261018560201b90919060201c565b6101408181525050818051906020012060e08181525050808051906020012061010081815250504660a081815250506101436101d260201b60201c565b608081815250503073ffffffffffffffffffffffffffffffffffffffff1660c08173ffffffffffffffffffffffffffffffffffffffff16815250505050610783565b5f6020835110156101a65761019f8361022c60201b60201c565b90506101cc565b826101b68361029160201b60201c565b5f0190816101c491906104e4565b5060ff5f1b90505b92915050565b5f7f8b73c3c69bb8fe3d512ecc4cf759cc79239f7b179b0ffacaa9a75d522b39400f60e051610100514630604051602001610211959493929190610619565b60405160208183030381529060405280519060200120905090565b5f5f829050601f8151111561027857826040517f305a27a900000000000000000000000000000000000000000000000000000000815260040161026f91906106d0565b60405180910390fd5b8051816102849061071d565b5f1c175f1b915050919050565b5f819050919050565b61095e80617acf83390190565b5f81519050919050565b7f4e487b71000000000000000000000000000000000000000000000000000000005f52604160045260245ffd5b7f4e487b71000000000000000000000000000000000000000000000000000000005f52602260045260245ffd5b5f600282049050600182168061032257607f821691505b602082108103610335576103346102de565b5b50919050565b5f819050815f5260205f209050919050565b5f6020601f8301049050919050565b5f82821b905092915050565b5f600883026103977fffffffffffffffffffffffffffffffffffffffffffffffffffffffffffffffff8261035c565b6103a1868361035c565b95508019841693508086168417925050509392505050565b5f819050919050565b5f819050919050565b5f6103e56103e06103db846103b9565b6103c2565b6103b9565b9050919050565b5f819050919050565b6103fe836103cb565b61041261040a826103ec565b848454610368565b825550505050565b5f5f905090565b61042961041a565b6104348184846103f5565b505050565b5b818110156104575761044c5f82610421565b60018101905061043a565b5050565b601f82111561049c5761046d8161033b565b6104768461034d565b81016020851015610485578190505b6104996104918561034d565b830182610439565b50505b505050565b5f82821c905092915050565b5f6104bc5f19846008026104a1565b1980831691505092915050565b5f6104d483836104ad565b9150826002028217905092915050565b6104ed826102a7565b67ffffffffffffffff811115610506576105056102b1565b5b610510825461030b565b61051b82828561045b565b5f60209050601f83116001811461054c575f841561053a578287015190505b61054485826104c9565b8655506105ab565b601f19841661055a8661033b565b5f5b828110156105815784890151825560018201915060208501945060208101905061055c565b8683101561059e578489015161059a601f8916826104ad565b8355505b6001600288020188555050505b505050505050565b5f819050919050565b6105c5816105b3565b82525050565b6105d4816103b9565b82525050565b5f73ffffffffffffffffffffffffffffffffffffffff82169050919050565b5f610603826105da565b9050919050565b610613816105f9565b82525050565b5f60a08201905061062c5f8301886105bc565b61063960208301876105bc565b61064660408301866105bc565b61065360608301856105cb565b610660608083018461060a565b9695505050505050565b5f82825260208201905092915050565b8281835e5f83830152505050565b5f601f19601f8301169050919050565b5f6106a2826102a7565b6106ac818561066a565b93506106bc81856020860161067a565b6106c581610688565b840191505092915050565b5f6020820190508181035f8301526106e88184610698565b905092915050565b5f81519050919050565b5f819050602082019050919050565b5f61071482516105b3565b80915050919050565b5f610727826106f0565b82610731846106fa565b905061073c81610709565b9250602082101561077c576107777fffffffffffffffffffffffffffffffffffffffffffffffffffffffffffffffff8360200360080261035c565b831692505b5050919050565b60805160a05160c05160e051610100516101205161014051610160516172f16107de5f395f610d3d01525f612bc801525f612b8d01525f612d9201525f612d7101525f61242501525f61247b01525f6124a401526172f15ff3fe608060405260043610610137575f3560e01c80635287ce12116100aa5780639b249f691161006e5780639b249f6914610459578063b0a398d114610481578063b760faf9146104ab578063bb9fe6bf146104c7578063c23a5cea146104dd578063dbed18e01461050557610147565b80635287ce121461036157806370a082311461039d578063765e827f146103d957806384b0196e14610401578063850aaf621461043157610147565b806313c65a6e116100fc57806313c65a6e14610231578063154e58dc1461025b5780631b2e01b814610285578063205c2878146102c157806322cdde4c146102e957806335567e1a1461032557610147565b806242dc531461014b57806301ffc9a7146101875780630396cb60146101c357806309ccb880146101df5780630bd28e3b1461020957610147565b36610147576101453361052d565b005b5f5ffd5b348015610156575f5ffd5b50610171600480360381019061016c9190614bf0565b61058c565b60405161017e9190614c8e565b60405180910390f35b348015610192575f5ffd5b506101ad60048036038101906101a89190614cfc565b610772565b6040516101ba9190614d41565b60405180910390f35b6101dd60048036038101906101d89190614d93565b610967565b005b3480156101ea575f5ffd5b506101f3610d3a565b6040516102009190614e19565b60405180910390f35b348015610214575f5ffd5b5061022f600480360381019061022a9190614e7f565b610d61565b005b34801561023c575f5ffd5b50610245610df9565b6040516102529190614eb9565b60405180910390f35b348015610266575f5ffd5b5061026f610e07565b60405161027c9190614eb9565b60405180910390f35b348015610290575f5ffd5b506102ab60048036038101906102a69190614ed2565b610e2e565b6040516102b89190614c8e565b60405180910390f35b3480156102cc575f5ffd5b506102e760048036038101906102e29190614f4b565b610e4e565b005b3480156102f4575f5ffd5b5061030f600480360381019061030a9190614fac565b611004565b60405161031c9190614eb9565b60405180910390f35b348015610330575f5ffd5b5061034b60048036038101906103469190614ed2565b61103c565b6040516103589190614c8e565b60405180910390f35b34801561036c575f5ffd5b5061038760048036038101906103829190614ff3565b6110e6565b60405161039491906150f9565b60405180910390f35b3480156103a8575f5ffd5b506103c360048036038101906103be9190614ff3565b6111f5565b6040516103d09190614c8e565b60405180910390f35b3480156103e4575f5ffd5b506103ff60048036038101906103fa9190615167565b61123c565b005b34801561040c575f5ffd5b506104156113d9565b6040516104289796959493929190615315565b60405180910390f35b34801561043c575f5ffd5b5061045760048036038101906104529190615397565b61147e565b005b348015610464575f5ffd5b5061047f600480360381019061047a91906153f4565b611528565b005b34801561048c575f5ffd5b506104956115ea565b6040516104a29190614eb9565b60405180910390f35b6104c560048036038101906104c09190614ff3565b61052d565b005b3480156104d2575f5ffd5b506104db6115f2565b005b3480156104e8575f5ffd5b5061050360048036038101906104fe919061543f565b611837565b005b348015610510575f5ffd5b5061052b600480360381019061052691906154bf565b611bc7565b005b5f610538823461207e565b90508173ffffffffffffffffffffffffffffffffffffffff167f2da466a7b24304f47e87fa2e1e5a81b9831ce54fec19055ce277ca2f39ba42c4826040516105809190614c8e565b60405180910390a25050565b5f5f5a90503073ffffffffffffffffffffffffffffffffffffffff163373ffffffffffffffffffffffffffffffffffffffff16146105f6576040517f9fbdaa0900000000000000000000000000000000000000000000000000000000815260040160405180910390fd5b5f855f015190505f816060015190506127108260a001518201016040603f5a02816106245761062361551c565b5b041015610653577fdeaddead000000000000000000000000000000000000000000000000000000005f5260205ffd5b5f5f90505f89511115610708575f610670845f01515f8c866120da565b905080610706575f6106806120f1565b90505f61068e6108006120fa565b90505f815111156106f657855f015173ffffffffffffffffffffffffffffffffffffffff168b602001517f1c4fada7374c0a9ee8841fc38afe82932dc0f8e69012e927f061a8bae611a2018860200151846040516106ed92919061559b565b60405180910390a35b6106ff82612132565b6001935050505b505b5f88608001515a8603019050610763828a8a8a8080601f0160208091040260200160405190810160405280939291908181526020018383808284375f81840152601f19601f8201169050808301925050505050505084612139565b95505050505050949350505050565b5f7f3e84f021000000000000000000000000000000000000000000000000000000007fcf28ef97000000000000000000000000000000000000000000000000000000007f283f54890000000000000000000000000000000000000000000000000000000018187bffffffffffffffffffffffffffffffffffffffffffffffffffffffff1916827bffffffffffffffffffffffffffffffffffffffffffffffffffffffff1916148061088057507f283f5489000000000000000000000000000000000000000000000000000000007bffffffffffffffffffffffffffffffffffffffffffffffffffffffff1916827bffffffffffffffffffffffffffffffffffffffffffffffffffffffff1916145b806108e857507fcf28ef97000000000000000000000000000000000000000000000000000000007bffffffffffffffffffffffffffffffffffffffffffffffffffffffff1916827bffffffffffffffffffffffffffffffffffffffffffffffffffffffff1916145b8061095057507f3e84f021000000000000000000000000000000000000000000000000000000007bffffffffffffffffffffffffffffffffffffffffffffffffffffffff1916827bffffffffffffffffffffffffffffffffffffffffffffffffffffffff1916145b80610960575061095f826123b9565b5b9050919050565b5f5f5f3373ffffffffffffffffffffffffffffffffffffffff1673ffffffffffffffffffffffffffffffffffffffff1681526020019081526020015f2090505f8263ffffffff16118282600101600f9054906101000a900463ffffffff169091610a08576040517fe1823bce0000000000000000000000000000000000000000000000000000000081526004016109ff9291906155f9565b60405180910390fd5b505080600101600f9054906101000a900463ffffffff1663ffffffff168263ffffffff1610158282600101600f9054906101000a900463ffffffff169091610a87576040517fe1823bce000000000000000000000000000000000000000000000000000000008152600401610a7e9291906155f9565b60405180910390fd5b50505f348260010160019054906101000a90046dffffffffffffffffffffffffffff166dffffffffffffffffffffffffffff16610ac4919061564d565b90505f8111348360010160019054906101000a90046dffffffffffffffffffffffffffff169091610b2c576040517f0e10009c000000000000000000000000000000000000000000000000000000008152600401610b239291906156b0565b60405180910390fd5b50506dffffffffffffffffffffffffffff8016811115348360010160019054906101000a90046dffffffffffffffffffffffffffff169091610ba5576040517f0e10009c000000000000000000000000000000000000000000000000000000008152600401610b9c9291906156b0565b60405180910390fd5b50506040518060a00160405280835f01548152602001600115158152602001826dffffffffffffffffffffffffffff1681526020018463ffffffff1681526020015f65ffffffffffff168152505f5f3373ffffffffffffffffffffffffffffffffffffffff1673ffffffffffffffffffffffffffffffffffffffff1681526020019081526020015f205f820151815f01556020820151816001015f6101000a81548160ff02191690831515021790555060408201518160010160016101000a8154816dffffffffffffffffffffffffffff02191690836dffffffffffffffffffffffffffff160217905550606082015181600101600f6101000a81548163ffffffff021916908363ffffffff16021790555060808201518160010160136101000a81548165ffffffffffff021916908365ffffffffffff1602179055509050503373ffffffffffffffffffffffffffffffffffffffff167fa5ae833d0bb1dcd632d98a8b70973e8516812898e19bf27b70071ebc8dc52c018285604051610d2d9291906156d7565b60405180910390a2505050565b5f7f0000000000000000000000000000000000000000000000000000000000000000905090565b60015f3373ffffffffffffffffffffffffffffffffffffffff1673ffffffffffffffffffffffffffffffffffffffff1681526020019081526020015f205f8277ffffffffffffffffffffffffffffffffffffffffffffffff1677ffffffffffffffffffffffffffffffffffffffffffffffff1681526020019081526020015f205f815480929190610df1906156fe565b919050555050565b5f610e02612422565b905090565b5f7f29a0bca4af4be3421398da00295e58e6d7de38cb492214754cb6a47507dd6f8e905090565b6001602052815f5260405f20602052805f5260405f205f91509150505481565b5f5f5f3373ffffffffffffffffffffffffffffffffffffffff1673ffffffffffffffffffffffffffffffffffffffff1681526020019081526020015f2090505f815f015490508083111581849091610edd576040517f25c3f46e000000000000000000000000000000000000000000000000000000008152600401610ed4929190615745565b60405180910390fd5b50508281610eeb919061576c565b825f01819055503373ffffffffffffffffffffffffffffffffffffffff167fd1c19fbcd4551a5edfb66d43d2e337c04837afda3482b42bdf569a8fccdae5fb8585604051610f3a9291906157bf565b60405180910390a25f5f8573ffffffffffffffffffffffffffffffffffffffff1685604051610f6890615813565b5f6040518083038185875af1925050503d805f8114610fa2576040519150601f19603f3d011682016040523d82523d5f602084013e610fa7565b606091505b5091509150813387878490919293610ff8576040517f9f3d6933000000000000000000000000000000000000000000000000000000008152600401610fef9493929190615827565b60405180910390fd5b50505050505050505050565b5f5f61100f836124d8565b905061103461101c610df9565b61102f83866125a990919063ffffffff16565b6125c3565b915050919050565b5f60408277ffffffffffffffffffffffffffffffffffffffffffffffff16901b60015f8573ffffffffffffffffffffffffffffffffffffffff1673ffffffffffffffffffffffffffffffffffffffff1681526020019081526020015f205f8477ffffffffffffffffffffffffffffffffffffffffffffffff1677ffffffffffffffffffffffffffffffffffffffffffffffff1681526020019081526020015f205417905092915050565b6110ee6146cd565b5f5f8373ffffffffffffffffffffffffffffffffffffffff1673ffffffffffffffffffffffffffffffffffffffff1681526020019081526020015f206040518060a00160405290815f8201548152602001600182015f9054906101000a900460ff161515151581526020016001820160019054906101000a90046dffffffffffffffffffffffffffff166dffffffffffffffffffffffffffff166dffffffffffffffffffffffffffff16815260200160018201600f9054906101000a900463ffffffff1663ffffffff1663ffffffff1681526020016001820160139054906101000a900465ffffffffffff1665ffffffffffff1665ffffffffffff16815250509050919050565b5f5f5f8373ffffffffffffffffffffffffffffffffffffffff1673ffffffffffffffffffffffffffffffffffffffff1681526020019081526020015f205f01549050919050565b3373ffffffffffffffffffffffffffffffffffffffff163273ffffffffffffffffffffffffffffffffffffffff1614801561128d57505f3373ffffffffffffffffffffffffffffffffffffffff163b145b6112c3576040517fab143c0600000000000000000000000000000000000000000000000000000000815260040160405180910390fd5b5f8383905090505f8167ffffffffffffffff8111156112e5576112e461482a565b5b60405190808252806020026020018201604052801561131e57816020015b61130b614717565b8152602001906001900390816113035790505b50905061132e8585835f5f612603565b505f5f90507fbb47ee3e183a558b1a2ff0874b079f3fc5478b7454eacf2bfc5af2ff5878f97260405160405180910390a15f5f90505b838110156113c6576113b58188888481811061138357611382615871565b5b905060200281019061139591906158aa565b8584815181106113a8576113a7615871565b5b6020026020010151612696565b820191508080600101915050611364565b506113d18482612a4d565b505050505050565b5f6060805f5f5f60606113ea612b84565b6113f2612bbf565b46305f5f1b5f67ffffffffffffffff8111156114115761141061482a565b5b60405190808252806020026020018201604052801561143f5781602001602082028036833780820191505090505b507f0f00000000000000000000000000000000000000000000000000000000000000959493929190965096509650965096509650965090919293949596565b5f5f8473ffffffffffffffffffffffffffffffffffffffff1684846040516114a79291906158f6565b5f60405180830381855af49150503d805f81146114df576040519150601f19603f3d011682016040523d82523d5f602084013e6114e4565b606091505b509150915081816040517f9941055400000000000000000000000000000000000000000000000000000000815260040161151f92919061590e565b60405180910390fd5b5f611531610d3a565b73ffffffffffffffffffffffffffffffffffffffff1663570e1a3684846040518363ffffffff1660e01b815260040161156b929190615968565b6020604051808303815f875af1158015611587573d5f5f3e3d5ffd5b505050506040513d601f19601f820116820180604052508101906115ab919061599e565b9050806040517f6ca7b8060000000000000000000000000000000000000000000000000000000081526004016115e191906159c9565b60405180910390fd5b5f5f5c905090565b5f5f5f3373ffffffffffffffffffffffffffffffffffffffff1673ffffffffffffffffffffffffffffffffffffffff1681526020019081526020015f2090505f81600101600f9054906101000a900463ffffffff1663ffffffff1614158160010160019054906101000a90046dffffffffffffffffffffffffffff1682600101600f9054906101000a900463ffffffff16836001015f9054906101000a900460ff169091926116d9576040517f8421e8e50000000000000000000000000000000000000000000000000000000081526004016116d0939291906159e2565b60405180910390fd5b505050806001015f9054906101000a900460ff168160010160019054906101000a90046dffffffffffffffffffffffffffff1682600101600f9054906101000a900463ffffffff16836001015f9054906101000a900460ff16909192611777576040517f8421e8e500000000000000000000000000000000000000000000000000000000815260040161176e939291906159e2565b60405180910390fd5b5050505f81600101600f9054906101000a900463ffffffff1663ffffffff16426117a19190615a17565b9050808260010160136101000a81548165ffffffffffff021916908365ffffffffffff1602179055505f826001015f6101000a81548160ff0219169083151502179055503373ffffffffffffffffffffffffffffffffffffffff167ffa9b3c14cc825c412c9ed81b3ba365a5b459439403f18829e572ed53a4180f0a8260405161182b9190615a80565b60405180910390a25050565b5f5f5f3373ffffffffffffffffffffffffffffffffffffffff1673ffffffffffffffffffffffffffffffffffffffff1681526020019081526020015f2090505f8160010160019054906101000a90046dffffffffffffffffffffffffffff166dffffffffffffffffffffffffffff1690505f81118260010160019054906101000a90046dffffffffffffffffffffffffffff1683600101600f9054906101000a900463ffffffff16846001015f9054906101000a900460ff16909192611935576040517f8421e8e500000000000000000000000000000000000000000000000000000000815260040161192c939291906159e2565b60405180910390fd5b5050505f8260010160139054906101000a900465ffffffffffff1665ffffffffffff16118260010160139054906101000a900465ffffffffffff164290916119b4576040517ffbd021d60000000000000000000000000000000000000000000000000000000081526004016119ab929190615a99565b60405180910390fd5b5050428260010160139054906101000a900465ffffffffffff1665ffffffffffff1611158260010160139054906101000a900465ffffffffffff16429091611a33576040517f561d3312000000000000000000000000000000000000000000000000000000008152600401611a2a929190615a99565b60405180910390fd5b50505f82600101600f6101000a81548163ffffffff021916908363ffffffff1602179055505f8260010160136101000a81548165ffffffffffff021916908365ffffffffffff1602179055505f8260010160016101000a8154816dffffffffffffffffffffffffffff02191690836dffffffffffffffffffffffffffff1602179055503373ffffffffffffffffffffffffffffffffffffffff167fb7c918e0e249f999e965cafeb6c664271b3f4317d296461500e71da39f0cbda38483604051611afe9291906157bf565b60405180910390a25f5f8473ffffffffffffffffffffffffffffffffffffffff1683604051611b2c90615813565b5f6040518083038185875af1925050503d805f8114611b66576040519150601f19603f3d011682016040523d82523d5f602084013e611b6b565b606091505b5091509150813386858490919293611bbc576040517f0dcf087c000000000000000000000000000000000000000000000000000000008152600401611bb39493929190615827565b60405180910390fd5b505050505050505050565b3373ffffffffffffffffffffffffffffffffffffffff163273ffffffffffffffffffffffffffffffffffffffff16148015611c1857505f3373ffffffffffffffffffffffffffffffffffffffff163b145b611c4e576040517fab143c0600000000000000000000000000000000000000000000000000000000815260040160405180910390fd5b5f8383905090505f5f90505f5f90505b82811015611e305736868683818110611c7a57611c79615871565b5b9050602002810190611c8c9190615ac0565b9050365f82805f0190611c9f9190615ae7565b915091505f836020016020810190611cb79190615b84565b9050600173ffffffffffffffffffffffffffffffffffffffff168173ffffffffffffffffffffffffffffffffffffffff1614158190611d2c576040517f86a9f750000000000000000000000000000000000000000000000000000000008152600401611d2391906159c9565b60405180910390fd5b505f73ffffffffffffffffffffffffffffffffffffffff168173ffffffffffffffffffffffffffffffffffffffff1614611e17578073ffffffffffffffffffffffffffffffffffffffff16632dd811338484878060400190611d8e9190615baf565b6040518563ffffffff1660e01b8152600401611dad9493929190615f14565b5f604051808303815f87803b158015611dc4575f5ffd5b505af1925050508015611dd5575060015b611e1657806040517f86a9f750000000000000000000000000000000000000000000000000000000008152600401611e0d91906159c9565b60405180910390fd5b5b8282905086019550505050508080600101915050611c5e565b505f8167ffffffffffffffff811115611e4c57611e4b61482a565b5b604051908082528060200260200182016040528015611e8557816020015b611e72614717565b815260200190600190039081611e6a5790505b5090505f5f90505f5f90505b84811015611f0e5736888883818110611ead57611eac615871565b5b9050602002810190611ebf9190615ac0565b9050365f82805f0190611ed29190615ae7565b915091505f836020016020810190611eea9190615b84565b9050611ef9838389848a612603565b86019550505050508080600101915050611e91565b507fbb47ee3e183a558b1a2ff0874b079f3fc5478b7454eacf2bfc5af2ff5878f97260405160405180910390a15f5f90505f91505f5f90505b858110156120695736898983818110611f6357611f62615871565b5b9050602002810190611f759190615ac0565b9050806020016020810190611f8a9190615b84565b73ffffffffffffffffffffffffffffffffffffffff167f575ff3acadd5ab348fe1855e217e0f3678f8d767d7494c9f9fefbee2e17cca4d60405160405180910390a2365f82805f0190611fdd9190615ae7565b915091505f8282905090505f5f90505b818110156120575761203e8885858481811061200c5761200b615871565b5b905060200281019061201e91906158aa565b8b8b8151811061203157612030615871565b5b6020026020010151612696565b8701965087806001019850508080600101915050611fed565b50505050508080600101915050611f47565b506120748682612a4d565b5050505050505050565b5f5f5f5f8573ffffffffffffffffffffffffffffffffffffffff1673ffffffffffffffffffffffffffffffffffffffff1681526020019081526020015f2090505f83825f015401905080825f0181905550809250505092915050565b5f5f5f845160208601878987f19050949350505050565b5f604051905090565b60603d5f8311156121125782811115612111578290505b5b604051602082018101604052818152815f602083013e8092505050919050565b8060405250565b5f5f5a90505f5f865f015190505f61215082612bfa565b90505f8260e0015190505f896080015188039050612172818560600151612c22565b88019750505f5f73ffffffffffffffffffffffffffffffffffffffff168273ffffffffffffffffffffffffffffffffffffffff16036121b657835f015194506122cd565b8194505f895111156122cc5782880296505f5a90506002808111156121de576121dd615f4d565b5b8c60028111156121f1576121f0615f4d565b5b146122b3578273ffffffffffffffffffffffffffffffffffffffff16637c627b218660a001518e8d8c896040518663ffffffff1660e01b815260040161223a9493929190615fc0565b5f604051808303815f88803b158015612251575f5ffd5b5087f193505050508015612263575060015b6122b2575f6122736108006120fa565b9050806040517fad7954bc0000000000000000000000000000000000000000000000000000000081526004016122a9919061600a565b60405180910390fd5b5b5f5a820390506122c7818760a00151612c22565b925050505b5b805a8703018801975082880296505f8a60400151905087811015612360576002808111156122fe576122fd615f4d565b5b8c600281111561231157612310615f4d565b5b03612333578097506123228b612c60565b61232e8b5f8a8c612cc3565b61235b565b7fdeadaa51000000000000000000000000000000000000000000000000000000005f5260205ffd5b6123aa565b5f8882039050612370878261207e565b505f5f600281111561238557612384615f4d565b5b8e600281111561239857612397615f4d565b5b1490506123a78d828c8e612cc3565b50505b50505050505050949350505050565b5f7f01ffc9a7000000000000000000000000000000000000000000000000000000007bffffffffffffffffffffffffffffffffffffffffffffffffffffffff1916827bffffffffffffffffffffffffffffffffffffffffffffffffffffffff1916149050919050565b5f7f000000000000000000000000000000000000000000000000000000000000000073ffffffffffffffffffffffffffffffffffffffff163073ffffffffffffffffffffffffffffffffffffffff1614801561249d57507f000000000000000000000000000000000000000000000000000000000000000046145b156124ca577f000000000000000000000000000000000000000000000000000000000000000090506124d5565b6124d2612d4d565b90505b90565b5f365f8380604001906124eb9190615baf565b915091506124f98282612de2565b612509575f5f1b925050506125a4565b5f612524855f01602081019061251f9190614ff3565b612e4d565b9050601483839050116125625780604051602001612542919061606f565b6040516020818303038152906040528051906020012093505050506125a4565b808383601490809261257693929190616091565b604051602001612588939291906160cb565b6040516020818303038152906040528051906020012093505050505b919050565b5f6125b48383612f50565b80519060200120905092915050565b5f6040517f190100000000000000000000000000000000000000000000000000000000000081528360028201528260228201526042812091505092915050565b5f8585905090505f5f90505b8181101561268c575f858285018151811061262d5761262c615871565b5b602002602001015190505f5f61266a8487018b8b8781811061265257612651615871565b5b905060200281019061266491906158aa565b85613048565b9150915061267c84870183838a61324e565b505050808060010191505061260f565b5095945050505050565b5f5f5a905082602001515f81905d505f6126b3846060015161346c565b90505f5f6126bf6120f1565b9050365f8880606001906126d39190615baf565b9150915060605f8260038111156126e957843591505b50638dd7712f60e01b7bffffffffffffffffffffffffffffffffffffffffffffffffffffffff1916817bffffffffffffffffffffffffffffffffffffffffffffffffffffffff19160361280f575f8b8b6020015160405160240161274e92919061621b565b604051602081830303815290604052638dd7712f60e01b6020820180517bffffffffffffffffffffffffffffffffffffffffffffffffffffffff838183161783525050505090503073ffffffffffffffffffffffffffffffffffffffff166242dc53828d8b6040516024016127c59392919061637e565b604051602081830303815290604052915060e01b6020820180517bffffffffffffffffffffffffffffffffffffffffffffffffffffffff8381831617835250505050925050612886565b3073ffffffffffffffffffffffffffffffffffffffff166242dc5385858d8b60405160240161284194939291906163c3565b604051602081830303815290604052915060e01b6020820180517bffffffffffffffffffffffffffffffffffffffffffffffffffffffff838183161783525050505091505b60205f8351602085015f305af195505f5198506128a285612132565b505050505080612a43575f3d806020036128c05760205f5f3e5f5191505b507fdeaddead00000000000000000000000000000000000000000000000000000000810361292557876040517f220266b600000000000000000000000000000000000000000000000000000000815260040161291c9190616454565b60405180910390fd5b7fdeadaa51000000000000000000000000000000000000000000000000000000008103612991575f86608001515a8661295e919061576c565b612968919061564d565b90505f8760400151905061297b88612c60565b612987885f8385612cc3565b8096505050612a41565b5f61299a6120f1565b9050865f01515f015173ffffffffffffffffffffffffffffffffffffffff1687602001517ff62676f440ff169a3a9afdbf812e89e7f95975ee8e5c31214ffdef631c5f4792895f0151602001516129f26108006120fa565b604051612a0092919061559b565b60405180910390a3612a1181612132565b5f87608001515a87612a23919061576c565b612a2d919061564d565b9050612a3c6002898784612139565b965050505b505b5050509392505050565b5f73ffffffffffffffffffffffffffffffffffffffff168273ffffffffffffffffffffffffffffffffffffffff1614158290612abf576040517f1a3b45fd000000000000000000000000000000000000000000000000000000008152600401612ab69190616480565b60405180910390fd5b505f5f1b5f81905d505f5f8373ffffffffffffffffffffffffffffffffffffffff1683604051612aee90615813565b5f6040518083038185875af1925050503d805f8114612b28576040519150601f19603f3d011682016040523d82523d5f602084013e612b2d565b606091505b509150915081848483909192612b7b576040517f40848e61000000000000000000000000000000000000000000000000000000008152600401612b7293929190616499565b60405180910390fd5b50505050505050565b6060612bba60027f000000000000000000000000000000000000000000000000000000000000000061347690919063ffffffff16565b905090565b6060612bf560037f000000000000000000000000000000000000000000000000000000000000000061347690919063ffffffff16565b905090565b5f5f82610100015190505f8361012001519050612c1982488301613523565b92505050919050565b5f619c4083018211612c36575f9050612c5a565b5f83830390505f6064600a830281612c5157612c5061551c565b5b04905080925050505b92915050565b805f01515f015173ffffffffffffffffffffffffffffffffffffffff1681602001517f67b4fa9642f42120bf031f3051d1824b0fe25627945b27b8a6a65d5761d5482e835f015160200151604051612cb89190614c8e565b60405180910390a350565b835f015160e0015173ffffffffffffffffffffffffffffffffffffffff16845f01515f015173ffffffffffffffffffffffffffffffffffffffff1685602001517f49628fd1471006c1482da88028e9ce4dbb080b815c9b0344d39e5a8e6ec1419f875f015160200151878787604051612d3f94939291906164d5565b60405180910390a450505050565b5f7f8b73c3c69bb8fe3d512ecc4cf759cc79239f7b179b0ffacaa9a75d522b39400f7f00000000000000000000000000000000000000000000000000000000000000007f00000000000000000000000000000000000000000000000000000000000000004630604051602001612dc7959493929190616518565b60405160208183030381529060405280519060200120905090565b5f6002838390501015612df7575f9050612e47565b5f8335905061770260f01b7dffffffffffffffffffffffffffffffffffffffffffffffffffffffffffff19166bffffffffffffffffffffffff1916816bffffffffffffffffffffffff1916149150505b92915050565b5f5f60175f5f853c5f51905062ef010060e81b7cffffffffffffffffffffffffffffffffffffffffffffffffffffffffff1916817cffffffffffffffffffffffffffffffffffffffffffffffffffffffffff191614612f40575f8373ffffffffffffffffffffffffffffffffffffffff163b118390612f02576040517fe5819b95000000000000000000000000000000000000000000000000000000008152600401612ef991906159c9565b60405180910390fd5b50826040517f9f4e4cc9000000000000000000000000000000000000000000000000000000008152600401612f3791906159c9565b60405180910390fd5b601881901b60601c915050919050565b60605f835f016020810190612f659190614ff3565b90505f846020013590505f5f5f1b8503612f9657612f91868060400190612f8c9190615baf565b61353b565b612f98565b845b90505f612fb3878060600190612fae9190615baf565b61353b565b90505f876080013590505f8860a0013590505f8960c0013590505f612fe68b8060e00190612fe19190615baf565b613551565b90507f29a0bca4af4be3421398da00295e58e6d7de38cb492214754cb6a47507dd6f8e888888888888888860405160200161302999989796959493929190616569565b6040516020818303038152906040529850505050505050505092915050565b5f5f5f5a90505f845f0151905061305f86826135a5565b5f6130686120f1565b905061307387611004565b86602001818152505061308581612132565b5f826040015190505f8361012001518461010001518560a0015186608001518760600151868960c0015117171717171790506effffffffffffffffffffffffffffff80168111158a9061310e576040517f220266b6000000000000000000000000000000000000000000000000000000008152600401613105919061663e565b60405180910390fd5b505f6131198561378c565b9050808960400181815250506131318b8b8b846137bd565b9750613144855f015186602001516138df565b8b90613186576040517f220266b600000000000000000000000000000000000000000000000000000000815260040161317d91906166b4565b60405180910390fd5b50825a870311156131ce578a6040517f220266b60000000000000000000000000000000000000000000000000000000081526004016131c5919061672a565b60405180910390fd5b60605f73ffffffffffffffffffffffffffffffffffffffff168660e0015173ffffffffffffffffffffffffffffffffffffffff161461321b576132128c8c8c613996565b80995081925050505b61322481613a6e565b8a60600181815250508a60a001355a8803018a608001818152505050505050505050935093915050565b5f5f5f61325a86613a77565b9250925092508273ffffffffffffffffffffffffffffffffffffffff168473ffffffffffffffffffffffffffffffffffffffff16146132d057866040517f220266b60000000000000000000000000000000000000000000000000000000081526004016132c791906167a0565b60405180910390fd5b811561335657801561331957866040517f220266b60000000000000000000000000000000000000000000000000000000081526004016133109190616816565b60405180910390fd5b866040517f220266b600000000000000000000000000000000000000000000000000000000815260040161334d919061688c565b60405180910390fd5b5f61336086613a77565b8094508195508293505050505f73ffffffffffffffffffffffffffffffffffffffff168173ffffffffffffffffffffffffffffffffffffffff16146133dc57876040517f220266b60000000000000000000000000000000000000000000000000000000081526004016133d39190616902565b60405180910390fd5b821561346257811561342557876040517f220266b600000000000000000000000000000000000000000000000000000000815260040161341c9190616978565b60405180910390fd5b876040517f220266b60000000000000000000000000000000000000000000000000000000081526004016134599190616a14565b60405180910390fd5b5050505050505050565b6060819050919050565b606060ff5f1b83146134925761348b83613b6a565b905061351d565b81805461349e90616a6d565b80601f01602080910402602001604051908101604052809291908181526020018280546134ca90616a6d565b80156135155780601f106134ec57610100808354040283529160200191613515565b820191905f5260205f20905b8154815290600101906020018083116134f857829003601f168201915b505050505090505b92915050565b5f8183106135315781613533565b825b905092915050565b5f60405182808583378082209250505092915050565b5f5f61355d8484613bdc565b90505f8111156135915761358984846002600801840187879050036722e325a29743965660c01b613cfb565b91505061359f565b61359b848461353b565b9150505b92915050565b815f0160208101906135b79190614ff3565b815f019073ffffffffffffffffffffffffffffffffffffffff16908173ffffffffffffffffffffffffffffffffffffffff168152505081602001358160200181815250506136088260800135613d1c565b8260400183606001828152508281525050508160a001358160c00181815250506136358260c00135613d1c565b8261012001836101000182815250828152505050365f838060e0019061365b9190615baf565b915091505f82829050111561378657603482829050101582829050906136b7576040517f120aaab50000000000000000000000000000000000000000000000000000000081526004016136ae9190614c8e565b60405180910390fd5b505f6136c38383613d39565b866080018760a00182815250828152508293505050505f73ffffffffffffffffffffffffffffffffffffffff168173ffffffffffffffffffffffffffffffffffffffff161415819061374b576040517fd8ccb29200000000000000000000000000000000000000000000000000000000815260040161374291906159c9565b60405180910390fd5b50808460e0019073ffffffffffffffffffffffffffffffffffffffff16908173ffffffffffffffffffffffffffffffffffffffff1681525050505b50505050565b5f5f8260c001518360a001518460800151856060015186604001510101010190508261010001518102915050919050565b5f5f835f015190505f815f015190506137e687868880604001906137e19190615baf565b613dd8565b5f8260e0015190505f5f90505f73ffffffffffffffffffffffffffffffffffffffff168273ffffffffffffffffffffffffffffffffffffffff1603613846575f61382f846111f5565b905086811161384057808703613842565b5f5b9150505b61385289898984614230565b94505f73ffffffffffffffffffffffffffffffffffffffff168273ffffffffffffffffffffffffffffffffffffffff16036138d3576138918387614391565b6138d257886040517f220266b60000000000000000000000000000000000000000000000000000000081526004016138c99190616ae7565b60405180910390fd5b5b50505050949350505050565b5f5f604083901c90505f8390508067ffffffffffffffff1660015f8773ffffffffffffffffffffffffffffffffffffffff1673ffffffffffffffffffffffffffffffffffffffff1681526020019081526020015f205f8477ffffffffffffffffffffffffffffffffffffffffffffffff1677ffffffffffffffffffffffffffffffffffffffffffffffff1681526020019081526020015f205f815480929190613987906156fe565b91905055149250505092915050565b60605f5f5a90505f845f015190505f8160e0015190505f866040015190506139be8282614391565b6139ff57886040517f220266b60000000000000000000000000000000000000000000000000000000081526004016139f69190616b5d565b60405180910390fd5b5f83608001519050613a128a8a8a614401565b8097508198505050805a86031115613a6157896040517f220266b6000000000000000000000000000000000000000000000000000000008152600401613a589190616bd3565b60405180910390fd5b5050505050935093915050565b5f819050919050565b5f5f5f5f8403613a8f575f5f5f925092509250613b63565b5f613a998561459c565b90506580000000000065ffffffffffff16816020015165ffffffffffff1610158015613adf57506580000000000065ffffffffffff16816040015165ffffffffffff1610155b15613b2f575f657fffffffffff82602001511690505f657fffffffffff83604001511690508065ffffffffffff16431180613b2257508165ffffffffffff164311155b9450600193505050613b5b565b806040015165ffffffffffff16421180613b555750806020015165ffffffffffff164211155b92505f91505b805f01519350505b9193909250565b60605f613b768361461c565b90505f602067ffffffffffffffff811115613b9457613b9361482a565b5b6040519080825280601f01601f191660200182016040528015613bc65781602001600182028036833780820191505090505b5090508181528360208201528092505050919050565b5f5f8383905090506002600801603401811015613bfc575f915050613cf5565b5f848460088403908492613c1293929190616091565b90613c1d9190616c40565b90506722e325a29743965660c01b77ffffffffffffffffffffffffffffffffffffffffffffffff19168177ffffffffffffffffffffffffffffffffffffffffffffffff191614613c71575f92505050613cf5565b5f858560026008018503908092613c8a93929190616091565b90613c959190616cc9565b60f01c61ffff16905060026008016034018303811115613cee5782816040517f07b9a191000000000000000000000000000000000000000000000000000000008152600401613ce5929190615745565b60405180910390fd5b8093505050505b92915050565b5f604051838682378284820152600884019350838120915050949350505050565b5f5f613d278361466a565b613d3084614679565b91509150915091565b5f5f5f84845f90601492613d4f93929190616091565b90613d5a9190616d52565b60601c8585601490602492613d7193929190616091565b90613d7c9190616ddb565b60801c8686602490603492613d9393929190616091565b90613d9e9190616ddb565b60801c816fffffffffffffffffffffffffffffffff169150806fffffffffffffffffffffffffffffffff1690509250925092509250925092565b5f8282905014614229575f835f01515f01519050613df68383612de2565b15613f1b576014838390501115613f1557613e0f610d3a565b73ffffffffffffffffffffffffffffffffffffffff1663c09ad0d9855f0151604001518386866014908092613e4693929190616091565b6040518563ffffffff1660e01b8152600401613e6493929190616e39565b5f604051808303815f88803b158015613e7b575f5ffd5b5087f1158015613e8d573d5f5f3e3d5ffd5b50505050505f613eb28273ffffffffffffffffffffffffffffffffffffffff16612e4d565b90508073ffffffffffffffffffffffffffffffffffffffff168273ffffffffffffffffffffffffffffffffffffffff1686602001517f7c9f9ade6a03a0bba484e52df872467a270e798ffc1adab9dfaa8d0e627f054460405160405180910390a4505b5061422a565b6014838390501015613f6457846040517f220266b6000000000000000000000000000000000000000000000000000000008152600401613f5b9190616eb3565b60405180910390fd5b5f83835f90601492613f7893929190616091565b90613f839190616d52565b60601c90505f8273ffffffffffffffffffffffffffffffffffffffff163b14614000578173ffffffffffffffffffffffffffffffffffffffff1685602001517fa39bcda08ffd11bafb11c4f170ef24fc6dc1a9d1b0394d90dbd19e0b919050e983604051613ff191906159c9565b60405180910390a3505061422a565b5f614009610d3a565b73ffffffffffffffffffffffffffffffffffffffff1663570e1a36875f01516040015187876040518463ffffffff1660e01b815260040161404b929190615968565b6020604051808303815f8887f1158015614067573d5f5f3e3d5ffd5b50505050506040513d601f19601f8201168201806040525081019061408c919061599e565b90505f73ffffffffffffffffffffffffffffffffffffffff168173ffffffffffffffffffffffffffffffffffffffff16036140fe57866040517f220266b60000000000000000000000000000000000000000000000000000000081526004016140f59190616f29565b60405180910390fd5b8273ffffffffffffffffffffffffffffffffffffffff168173ffffffffffffffffffffffffffffffffffffffff161461416e57866040517f220266b60000000000000000000000000000000000000000000000000000000081526004016141659190616f9f565b60405180910390fd5b5f8173ffffffffffffffffffffffffffffffffffffffff163b036141c957866040517f220266b60000000000000000000000000000000000000000000000000000000081526004016141c09190617015565b60405180910390fd5b8273ffffffffffffffffffffffffffffffffffffffff1686602001517fd51a9c61267aa6196961883ecf5ff2da6619c37dac0fa92122513fb32c032d2d84895f015160e0015160405161421d929190617041565b60405180910390a35050505b5b50505050565b5f5f835f01516040015190505f845f01515f015190505f5f6142506120f1565b90505f8888602001518860405160240161426c93929190617068565b6040516020818303038152906040526319822f7c60e01b6020820180517bffffffffffffffffffffffffffffffffffffffffffffffffffffffff8381831617835250505050905060205f8251602084015f888af192505f51955060203d146142d2575f92505b6142db82612132565b505080614386575f8273ffffffffffffffffffffffffffffffffffffffff163b0361433d57876040517f220266b600000000000000000000000000000000000000000000000000000000815260040161433491906170ee565b60405180910390fd5b876143496108006120fa565b6040517f65c8fd4d00000000000000000000000000000000000000000000000000000000815260040161437d929190617164565b60405180910390fd5b505050949350505050565b5f5f5f5f8573ffffffffffffffffffffffffffffffffffffffff1673ffffffffffffffffffffffffffffffffffffffff1681526020019081526020015f2090505f815f01549050838110156143ea575f925050506143fb565b838103825f01819055506001925050505b92915050565b60605f5f61440d6120f1565b90505f858560200151866040015160405160240161442d93929190617068565b6040516020818303038152906040526352b7512c60e01b6020820180517bffffffffffffffffffffffffffffffffffffffffffffffffffffffff838183161783525050505090505f855f015160e0015190505f865f01516080015190505f5f5f5f5f5f885160208a015f8a8af193503d9050805f893e60208801519850875191506040880199508951925083614506578c6144c96108006120fa565b6040517f65c8fd4d0000000000000000000000000000000000000000000000000000000081526004016144fd9291906171ef565b60405180910390fd5b5f602080601f86018161451c5761451b61551c565b5b040260600190506040831415806145335750808214155b15614581578d6145446108006120fa565b6040517f65c8fd4d00000000000000000000000000000000000000000000000000000000815260040161457892919061727a565b60405180910390fd5b5061458c8882614696565b5050505050505050935093915050565b6145a4614748565b5f8290505f60a084901c90505f8165ffffffffffff16036145c95765ffffffffffff90505b5f60d085901c905060405180606001604052808473ffffffffffffffffffffffffffffffffffffffff1681526020018265ffffffffffff1681526020018365ffffffffffff168152509350505050919050565b5f5f60ff835f1c169050601f811115614661576040517fb3512b0c00000000000000000000000000000000000000000000000000000000815260040160405180910390fd5b80915050919050565b5f6080825f1c901c9050919050565b5f815f1c6fffffffffffffffffffffffffffffffff169050919050565b6146a081836146a5565b6146c9565b6146ae826146b9565b810180604052505050565b5f601f19601f8301169050919050565b5050565b6040518060a001604052805f81526020015f151581526020015f6dffffffffffffffffffffffffffff1681526020015f63ffffffff1681526020015f65ffffffffffff1681525090565b6040518060a0016040528061472a61478c565b81526020015f81526020015f81526020015f81526020015f81525090565b60405180606001604052805f73ffffffffffffffffffffffffffffffffffffffff1681526020015f65ffffffffffff1681526020015f65ffffffffffff1681525090565b6040518061014001604052805f73ffffffffffffffffffffffffffffffffffffffff1681526020015f81526020015f81526020015f81526020015f81526020015f81526020015f81526020015f73ffffffffffffffffffffffffffffffffffffffff1681526020015f81526020015f81525090565b5f604051905090565b5f5ffd5b5f5ffd5b5f5ffd5b5f5ffd5b5f601f19601f8301169050919050565b7f4e487b71000000000000000000000000000000000000000000000000000000005f52604160045260245ffd5b6148608261481a565b810181811067ffffffffffffffff8211171561487f5761487e61482a565b5b80604052505050565b5f614891614801565b905061489d8282614857565b919050565b5f67ffffffffffffffff8211156148bc576148bb61482a565b5b6148c58261481a565b9050602081019050919050565b828183375f83830152505050565b5f6148f26148ed846148a2565b614888565b90508281526020810184848401111561490e5761490d614816565b5b6149198482856148d2565b509392505050565b5f82601f83011261493557614934614812565b5b81356149458482602086016148e0565b91505092915050565b5f5ffd5b5f73ffffffffffffffffffffffffffffffffffffffff82169050919050565b5f61497b82614952565b9050919050565b61498b81614971565b8114614995575f5ffd5b50565b5f813590506149a681614982565b92915050565b5f819050919050565b6149be816149ac565b81146149c8575f5ffd5b50565b5f813590506149d9816149b5565b92915050565b5f61014082840312156149f5576149f461494e565b5b614a00610140614888565b90505f614a0f84828501614998565b5f830152506020614a22848285016149cb565b6020830152506040614a36848285016149cb565b6040830152506060614a4a848285016149cb565b6060830152506080614a5e848285016149cb565b60808301525060a0614a72848285016149cb565b60a08301525060c0614a86848285016149cb565b60c08301525060e0614a9a84828501614998565b60e083015250610100614aaf848285016149cb565b61010083015250610120614ac5848285016149cb565b6101208301525092915050565b5f819050919050565b614ae481614ad2565b8114614aee575f5ffd5b50565b5f81359050614aff81614adb565b92915050565b5f6101c08284031215614b1b57614b1a61494e565b5b614b2560a0614888565b90505f614b34848285016149df565b5f83015250610140614b4884828501614af1565b602083015250610160614b5d848285016149cb565b604083015250610180614b72848285016149cb565b6060830152506101a0614b87848285016149cb565b60808301525092915050565b5f5ffd5b5f5ffd5b5f5f83601f840112614bb057614baf614812565b5b8235905067ffffffffffffffff811115614bcd57614bcc614b93565b5b602083019150836001820283011115614be957614be8614b97565b5b9250929050565b5f5f5f5f6102008587031215614c0957614c0861480a565b5b5f85013567ffffffffffffffff811115614c2657614c2561480e565b5b614c3287828801614921565b9450506020614c4387828801614b05565b9350506101e085013567ffffffffffffffff811115614c6557614c6461480e565b5b614c7187828801614b9b565b925092505092959194509250565b614c88816149ac565b82525050565b5f602082019050614ca15f830184614c7f565b92915050565b5f7fffffffff0000000000000000000000000000000000000000000000000000000082169050919050565b614cdb81614ca7565b8114614ce5575f5ffd5b50565b5f81359050614cf681614cd2565b92915050565b5f60208284031215614d1157614d1061480a565b5b5f614d1e84828501614ce8565b91505092915050565b5f8115159050919050565b614d3b81614d27565b82525050565b5f602082019050614d545f830184614d32565b92915050565b5f63ffffffff82169050919050565b614d7281614d5a565b8114614d7c575f5ffd5b50565b5f81359050614d8d81614d69565b92915050565b5f60208284031215614da857614da761480a565b5b5f614db584828501614d7f565b91505092915050565b5f819050919050565b5f614de1614ddc614dd784614952565b614dbe565b614952565b9050919050565b5f614df282614dc7565b9050919050565b5f614e0382614de8565b9050919050565b614e1381614df9565b82525050565b5f602082019050614e2c5f830184614e0a565b92915050565b5f77ffffffffffffffffffffffffffffffffffffffffffffffff82169050919050565b614e5e81614e32565b8114614e68575f5ffd5b50565b5f81359050614e7981614e55565b92915050565b5f60208284031215614e9457614e9361480a565b5b5f614ea184828501614e6b565b91505092915050565b614eb381614ad2565b82525050565b5f602082019050614ecc5f830184614eaa565b92915050565b5f5f60408385031215614ee857614ee761480a565b5b5f614ef585828601614998565b9250506020614f0685828601614e6b565b9150509250929050565b5f614f1a82614952565b9050919050565b614f2a81614f10565b8114614f34575f5ffd5b50565b5f81359050614f4581614f21565b92915050565b5f5f60408385031215614f6157614f6061480a565b5b5f614f6e85828601614f37565b9250506020614f7f858286016149cb565b9150509250929050565b5f5ffd5b5f6101208284031215614fa357614fa2614f89565b5b81905092915050565b5f60208284031215614fc157614fc061480a565b5b5f82013567ffffffffffffffff811115614fde57614fdd61480e565b5b614fea84828501614f8d565b91505092915050565b5f602082840312156150085761500761480a565b5b5f61501584828501614998565b91505092915050565b615027816149ac565b82525050565b61503681614d27565b82525050565b5f6dffffffffffffffffffffffffffff82169050919050565b61505e8161503c565b82525050565b61506d81614d5a565b82525050565b5f65ffffffffffff82169050919050565b61508d81615073565b82525050565b60a082015f8201516150a75f85018261501e565b5060208201516150ba602085018261502d565b5060408201516150cd6040850182615055565b5060608201516150e06060850182615064565b5060808201516150f36080850182615084565b50505050565b5f60a08201905061510c5f830184615093565b92915050565b5f5f83601f84011261512757615126614812565b5b8235905067ffffffffffffffff81111561514457615143614b93565b5b6020830191508360208202830111156151605761515f614b97565b5b9250929050565b5f5f5f6040848603121561517e5761517d61480a565b5b5f84013567ffffffffffffffff81111561519b5761519a61480e565b5b6151a786828701615112565b935093505060206151ba86828701614f37565b9150509250925092565b5f7fff0000000000000000000000000000000000000000000000000000000000000082169050919050565b6151f8816151c4565b82525050565b5f81519050919050565b5f82825260208201905092915050565b8281835e5f83830152505050565b5f615230826151fe565b61523a8185615208565b935061524a818560208601615218565b6152538161481a565b840191505092915050565b61526781614971565b82525050565b5f81519050919050565b5f82825260208201905092915050565b5f819050602082019050919050565b5f6152a1838361501e565b60208301905092915050565b5f602082019050919050565b5f6152c38261526d565b6152cd8185615277565b93506152d883615287565b805f5b838110156153085781516152ef8882615296565b97506152fa836152ad565b9250506001810190506152db565b5085935050505092915050565b5f60e0820190506153285f83018a6151ef565b818103602083015261533a8189615226565b9050818103604083015261534e8188615226565b905061535d6060830187614c7f565b61536a608083018661525e565b61537760a0830185614eaa565b81810360c083015261538981846152b9565b905098975050505050505050565b5f5f5f604084860312156153ae576153ad61480a565b5b5f6153bb86828701614998565b935050602084013567ffffffffffffffff8111156153dc576153db61480e565b5b6153e886828701614b9b565b92509250509250925092565b5f5f6020838503121561540a5761540961480a565b5b5f83013567ffffffffffffffff8111156154275761542661480e565b5b61543385828601614b9b565b92509250509250929050565b5f602082840312156154545761545361480a565b5b5f61546184828501614f37565b91505092915050565b5f5f83601f84011261547f5761547e614812565b5b8235905067ffffffffffffffff81111561549c5761549b614b93565b5b6020830191508360208202830111156154b8576154b7614b97565b5b9250929050565b5f5f5f604084860312156154d6576154d561480a565b5b5f84013567ffffffffffffffff8111156154f3576154f261480e565b5b6154ff8682870161546a565b9350935050602061551286828701614f37565b9150509250925092565b7f4e487b71000000000000000000000000000000000000000000000000000000005f52601260045260245ffd5b5f81519050919050565b5f82825260208201905092915050565b5f61556d82615549565b6155778185615553565b9350615587818560208601615218565b6155908161481a565b840191505092915050565b5f6040820190506155ae5f830185614c7f565b81810360208301526155c08184615563565b90509392505050565b5f6155e36155de6155d984614d5a565b614dbe565b6149ac565b9050919050565b6155f3816155c9565b82525050565b5f60408201905061560c5f8301856155ea565b61561960208301846155ea565b9392505050565b7f4e487b71000000000000000000000000000000000000000000000000000000005f52601160045260245ffd5b5f615657826149ac565b9150615662836149ac565b925082820190508082111561567a57615679615620565b5b92915050565b5f61569a6156956156908461503c565b614dbe565b6149ac565b9050919050565b6156aa81615680565b82525050565b5f6040820190506156c35f830185614c7f565b6156d060208301846156a1565b9392505050565b5f6040820190506156ea5f830185614c7f565b6156f760208301846155ea565b9392505050565b5f615708826149ac565b91507fffffffffffffffffffffffffffffffffffffffffffffffffffffffffffffffff820361573a57615739615620565b5b600182019050919050565b5f6040820190506157585f830185614c7f565b6157656020830184614c7f565b9392505050565b5f615776826149ac565b9150615781836149ac565b925082820390508181111561579957615798615620565b5b92915050565b5f6157a982614de8565b9050919050565b6157b98161579f565b82525050565b5f6040820190506157d25f8301856157b0565b6157df6020830184614c7f565b9392505050565b5f81905092915050565b50565b5f6157fe5f836157e6565b9150615809826157f0565b5f82019050919050565b5f61581d826157f3565b9150819050919050565b5f60808201905061583a5f83018761525e565b61584760208301866157b0565b6158546040830185614c7f565b81810360608301526158668184615563565b905095945050505050565b7f4e487b71000000000000000000000000000000000000000000000000000000005f52603260045260245ffd5b5f5ffd5b5f5ffd5b5f5ffd5b5f82356001610120038336030381126158c6576158c561589e565b5b80830191505092915050565b5f6158dd83856157e6565b93506158ea8385846148d2565b82840190509392505050565b5f6159028284866158d2565b91508190509392505050565b5f6040820190506159215f830185614d32565b81810360208301526159338184615563565b90509392505050565b5f6159478385615553565b93506159548385846148d2565b61595d8361481a565b840190509392505050565b5f6020820190508181035f83015261598181848661593c565b90509392505050565b5f8151905061599881614982565b92915050565b5f602082840312156159b3576159b261480a565b5b5f6159c08482850161598a565b91505092915050565b5f6020820190506159dc5f83018461525e565b92915050565b5f6060820190506159f55f8301866156a1565b615a0260208301856155ea565b615a0f6040830184614d32565b949350505050565b5f615a2182615073565b9150615a2c83615073565b9250828201905065ffffffffffff811115615a4a57615a49615620565b5b92915050565b5f615a6a615a65615a6084615073565b614dbe565b6149ac565b9050919050565b615a7a81615a50565b82525050565b5f602082019050615a935f830184615a71565b92915050565b5f604082019050615aac5f830185615a71565b615ab96020830184614c7f565b9392505050565b5f82356001606003833603038112615adb57615ada61589e565b5b80830191505092915050565b5f5f83356001602003843603038112615b0357615b0261589e565b5b80840192508235915067ffffffffffffffff821115615b2557615b246158a2565b5b602083019250602082023603831315615b4157615b406158a6565b5b509250929050565b5f615b5382614971565b9050919050565b615b6381615b49565b8114615b6d575f5ffd5b50565b5f81359050615b7e81615b5a565b92915050565b5f60208284031215615b9957615b9861480a565b5b5f615ba684828501615b70565b91505092915050565b5f5f83356001602003843603038112615bcb57615bca61589e565b5b80840192508235915067ffffffffffffffff821115615bed57615bec6158a2565b5b602083019250600182023603831315615c0957615c086158a6565b5b509250929050565b5f82825260208201905092915050565b5f819050919050565b5f615c386020840184614998565b905092915050565b615c4981614971565b82525050565b5f615c5d60208401846149cb565b905092915050565b5f5ffd5b5f5ffd5b5f5ffd5b5f5f83356001602003843603038112615c8d57615c8c615c6d565b5b83810192508235915060208301925067ffffffffffffffff821115615cb557615cb4615c65565b5b600182023603831315615ccb57615cca615c69565b5b509250929050565b5f82825260208201905092915050565b5f615cee8385615cd3565b9350615cfb8385846148d2565b615d048361481a565b840190509392505050565b5f615d1d6020840184614af1565b905092915050565b615d2e81614ad2565b82525050565b5f6101208301615d465f840184615c2a565b615d525f860182615c40565b50615d606020840184615c4f565b615d6d602086018261501e565b50615d7b6040840184615c71565b8583036040870152615d8e838284615ce3565b92505050615d9f6060840184615c71565b8583036060870152615db2838284615ce3565b92505050615dc36080840184615d0f565b615dd06080860182615d25565b50615dde60a0840184615c4f565b615deb60a086018261501e565b50615df960c0840184615d0f565b615e0660c0860182615d25565b50615e1460e0840184615c71565b85830360e0870152615e27838284615ce3565b92505050615e39610100840184615c71565b858303610100870152615e4d838284615ce3565b925050508091505092915050565b5f615e668383615d34565b905092915050565b5f8235600161012003833603038112615e8a57615e89615c6d565b5b82810191505092915050565b5f602082019050919050565b5f615ead8385615c11565b935083602084028501615ebf84615c21565b805f5b87811015615f02578484038952615ed98284615e6e565b615ee38582615e5b565b9450615eee83615e96565b925060208a01995050600181019050615ec2565b50829750879450505050509392505050565b5f6040820190508181035f830152615f2d818688615ea2565b90508181036020830152615f4281848661593c565b905095945050505050565b7f4e487b71000000000000000000000000000000000000000000000000000000005f52602160045260245ffd5b60038110615f8b57615f8a615f4d565b5b50565b5f819050615f9b82615f7a565b919050565b5f615faa82615f8e565b9050919050565b615fba81615fa0565b82525050565b5f608082019050615fd35f830187615fb1565b8181036020830152615fe58186615563565b9050615ff46040830185614c7f565b6160016060830184614c7f565b95945050505050565b5f6020820190508181035f8301526160228184615563565b905092915050565b5f8160601b9050919050565b5f6160408261602a565b9050919050565b5f61605182616036565b9050919050565b61606961606482614971565b616047565b82525050565b5f61607a8284616058565b60148201915081905092915050565b5f5ffd5b5f5ffd5b5f5f858511156160a4576160a3616089565b5b838611156160b5576160b461608d565b5b6001850283019150848603905094509492505050565b5f6160d68286616058565b6014820191506160e78284866158d2565b9150819050949350505050565b5f61012083016161065f840184615c2a565b6161125f860182615c40565b506161206020840184615c4f565b61612d602086018261501e565b5061613b6040840184615c71565b858303604087015261614e838284615ce3565b9250505061615f6060840184615c71565b8583036060870152616172838284615ce3565b925050506161836080840184615d0f565b6161906080860182615d25565b5061619e60a0840184615c4f565b6161ab60a086018261501e565b506161b960c0840184615d0f565b6161c660c0860182615d25565b506161d460e0840184615c71565b85830360e08701526161e7838284615ce3565b925050506161f9610100840184615c71565b85830361010087015261620d838284615ce3565b925050508091505092915050565b5f6040820190508181035f83015261623381856160f4565b90506162426020830184614eaa565b9392505050565b61014082015f82015161625e5f850182615c40565b506020820151616271602085018261501e565b506040820151616284604085018261501e565b506060820151616297606085018261501e565b5060808201516162aa608085018261501e565b5060a08201516162bd60a085018261501e565b5060c08201516162d060c085018261501e565b5060e08201516162e360e0850182615c40565b506101008201516162f861010085018261501e565b5061012082015161630d61012085018261501e565b50505050565b6101c082015f8201516163285f850182616249565b50602082015161633c610140850182615d25565b50604082015161635061016085018261501e565b50606082015161636461018085018261501e565b5060808201516163786101a085018261501e565b50505050565b5f610200820190508181035f8301526163978186615563565b90506163a66020830185616313565b8181036101e08301526163b98184615563565b9050949350505050565b5f610200820190508181035f8301526163dd81868861593c565b90506163ec6020830185616313565b8181036101e08301526163ff8184615563565b905095945050505050565b7f41413935206f7574206f662067617300000000000000000000000000000000005f82015250565b5f61643e600f83615208565b91506164498261640a565b602082019050919050565b5f6040820190506164675f830184614c7f565b818103602083015261647881616432565b905092915050565b5f6020820190506164935f8301846157b0565b92915050565b5f6060820190506164ac5f8301866157b0565b6164b96020830185614c7f565b81810360408301526164cb8184615563565b9050949350505050565b5f6080820190506164e85f830187614c7f565b6164f56020830186614d32565b6165026040830185614c7f565b61650f6060830184614c7f565b95945050505050565b5f60a08201905061652b5f830188614eaa565b6165386020830187614eaa565b6165456040830186614eaa565b6165526060830185614c7f565b61655f608083018461525e565b9695505050505050565b5f6101208201905061657d5f83018c614eaa565b61658a602083018b61525e565b616597604083018a614c7f565b6165a46060830189614eaa565b6165b16080830188614eaa565b6165be60a0830187614eaa565b6165cb60c0830186614c7f565b6165d860e0830185614eaa565b6165e6610100830184614eaa565b9a9950505050505050505050565b7f41413934206761732076616c756573206f766572666c6f7700000000000000005f82015250565b5f616628601883615208565b9150616633826165f4565b602082019050919050565b5f6040820190506166515f830184614c7f565b81810360208301526166628161661c565b905092915050565b7f4141323520696e76616c6964206163636f756e74206e6f6e63650000000000005f82015250565b5f61669e601a83615208565b91506166a98261666a565b602082019050919050565b5f6040820190506166c75f830184614c7f565b81810360208301526166d881616692565b905092915050565b7f41413236206f76657220766572696669636174696f6e4761734c696d697400005f82015250565b5f616714601e83615208565b915061671f826166e0565b602082019050919050565b5f60408201905061673d5f830184614c7f565b818103602083015261674e81616708565b905092915050565b7f41413234207369676e6174757265206572726f720000000000000000000000005f82015250565b5f61678a601483615208565b915061679582616756565b602082019050919050565b5f6040820190506167b35f830184614c7f565b81810360208301526167c48161677e565b905092915050565b7f41413237206f7574736964652076616c696420626c6f636b2072616e676500005f82015250565b5f616800601e83615208565b915061680b826167cc565b602082019050919050565b5f6040820190506168295f830184614c7f565b818103602083015261683a816167f4565b905092915050565b7f414132322065787069726564206f72206e6f74206475650000000000000000005f82015250565b5f616876601783615208565b915061688182616842565b602082019050919050565b5f60408201905061689f5f830184614c7f565b81810360208301526168b08161686a565b905092915050565b7f41413334207369676e6174757265206572726f720000000000000000000000005f82015250565b5f6168ec601483615208565b91506168f7826168b8565b602082019050919050565b5f6040820190506169155f830184614c7f565b8181036020830152616926816168e0565b905092915050565b7f41413337207061796d617374657220696e76616c20626c6f636b2072616e67655f82015250565b5f616962602083615208565b915061696d8261692e565b602082019050919050565b5f60408201905061698b5f830184614c7f565b818103602083015261699c81616956565b905092915050565b7f41413332207061796d61737465722065787069726564206f72206e6f742064755f8201527f6500000000000000000000000000000000000000000000000000000000000000602082015250565b5f6169fe602183615208565b9150616a09826169a4565b604082019050919050565b5f604082019050616a275f830184614c7f565b8181036020830152616a38816169f2565b905092915050565b7f4e487b71000000000000000000000000000000000000000000000000000000005f52602260045260245ffd5b5f6002820490506001821680616a8457607f821691505b602082108103616a9757616a96616a40565b5b50919050565b7f41413231206469646e2774207061792070726566756e640000000000000000005f82015250565b5f616ad1601783615208565b9150616adc82616a9d565b602082019050919050565b5f604082019050616afa5f830184614c7f565b8181036020830152616b0b81616ac5565b905092915050565b7f41413331207061796d6173746572206465706f73697420746f6f206c6f7700005f82015250565b5f616b47601e83615208565b9150616b5282616b13565b602082019050919050565b5f604082019050616b705f830184614c7f565b8181036020830152616b8181616b3b565b905092915050565b7f41413336206f76657220706d566572696669636174696f6e4761734c696d69745f82015250565b5f616bbd602083615208565b9150616bc882616b89565b602082019050919050565b5f604082019050616be65f830184614c7f565b8181036020830152616bf781616bb1565b905092915050565b5f82905092915050565b5f7fffffffffffffffff00000000000000000000000000000000000000000000000082169050919050565b5f82821b905092915050565b5f616c4b8383616bff565b82616c568135616c09565b92506008821015616c9657616c917fffffffffffffffff00000000000000000000000000000000000000000000000083600803600802616c34565b831692505b505092915050565b5f7fffff00000000000000000000000000000000000000000000000000000000000082169050919050565b5f616cd48383616bff565b82616cdf8135616c9e565b92506002821015616d1f57616d1a7fffff00000000000000000000000000000000000000000000000000000000000083600203600802616c34565b831692505b505092915050565b5f7fffffffffffffffffffffffffffffffffffffffff00000000000000000000000082169050919050565b5f616d5d8383616bff565b82616d688135616d27565b92506014821015616da857616da37fffffffffffffffffffffffffffffffffffffffff00000000000000000000000083601403600802616c34565b831692505b505092915050565b5f7fffffffffffffffffffffffffffffffff0000000000000000000000000000000082169050919050565b5f616de68383616bff565b82616df18135616db0565b92506010821015616e3157616e2c7fffffffffffffffffffffffffffffffff0000000000000000000000000000000083601003600802616c34565b831692505b505092915050565b5f604082019050616e4c5f83018661525e565b8181036020830152616e5f81848661593c565b9050949350505050565b7f4141393920696e6974436f646520746f6f20736d616c6c0000000000000000005f82015250565b5f616e9d601783615208565b9150616ea882616e69565b602082019050919050565b5f604082019050616ec65f830184614c7f565b8181036020830152616ed781616e91565b905092915050565b7f4141313320696e6974436f6465206661696c6564206f72204f4f4700000000005f82015250565b5f616f13601b83615208565b9150616f1e82616edf565b602082019050919050565b5f604082019050616f3c5f830184614c7f565b8181036020830152616f4d81616f07565b905092915050565b7f4141313420696e6974436f6465206d7573742072657475726e2073656e6465725f82015250565b5f616f89602083615208565b9150616f9482616f55565b602082019050919050565b5f604082019050616fb25f830184614c7f565b8181036020830152616fc381616f7d565b905092915050565b7f4141313520696e6974436f6465206d757374206372656174652073656e6465725f82015250565b5f616fff602083615208565b915061700a82616fcb565b602082019050919050565b5f6040820190506170285f830184614c7f565b818103602083015261703981616ff3565b905092915050565b5f6040820190506170545f83018561525e565b617061602083018461525e565b9392505050565b5f6060820190508181035f83015261708081866160f4565b905061708f6020830185614eaa565b61709c6040830184614c7f565b949350505050565b7f41413230206163636f756e74206e6f74206465706c6f796564000000000000005f82015250565b5f6170d8601983615208565b91506170e3826170a4565b602082019050919050565b5f6040820190506171015f830184614c7f565b8181036020830152617112816170cc565b905092915050565b7f41413233207265766572746564000000000000000000000000000000000000005f82015250565b5f61714e600d83615208565b91506171598261711a565b602082019050919050565b5f6060820190506171775f830185614c7f565b818103602083015261718881617142565b9050818103604083015261719c8184615563565b90509392505050565b7f41413333207265766572746564000000000000000000000000000000000000005f82015250565b5f6171d9600d83615208565b91506171e4826171a5565b602082019050919050565b5f6060820190506172025f830185614c7f565b8181036020830152617213816171cd565b905081810360408301526172278184615563565b90509392505050565b7f41413335206d616c666f726d6564207061796d617374657220646174610000005f82015250565b5f617264601d83615208565b915061726f82617230565b602082019050919050565b5f60608201905061728d5f830185614c7f565b818103602083015261729e81617258565b905081810360408301526172b28184615563565b9050939250505056fea2646970667358221220503331985d37250781b918aae1f3f4f95ebcff9f518dda9670108b5fcae2c10b64736f6c634300081e003360a060405234801561000f575f5ffd5b503373ffffffffffffffffffffffffffffffffffffffff1660808173ffffffffffffffffffffffffffffffffffffffff16815250506080516108e76100775f395f818160b0015281816101010152818161020a0152818161022e015261027f01526108e75ff3fe608060405234801561000f575f5ffd5b506004361061003f575f3560e01c8063570e1a3614610043578063b0d691fe14610073578063c09ad0d914610091575b5f5ffd5b61005d600480360381019061005891906103f6565b6100ad565b60405161006a9190610480565b60405180910390f35b61007b610208565b6040516100889190610480565b60405180910390f35b6100ab60048036038101906100a691906105fb565b61022c565b005b5f7f000000000000000000000000000000000000000000000000000000000000000073ffffffffffffffffffffffffffffffffffffffff163373ffffffffffffffffffffffffffffffffffffffff161433307f0000000000000000000000000000000000000000000000000000000000000000909192610165576040517ffe34a6d300000000000000000000000000000000000000000000000000000000815260040161015c93929190610655565b60405180910390fd5b5050505f83835f9060149261017c93929190610692565b90610187919061070d565b60601c90505f848460149080926101a093929190610692565b8080601f0160208091040260200160405190810160405280939291908181526020018383808284375f81840152601f19601f8201169050808301925050505050505090505f60205f8351602085015f875af1905080156101ff575f5193505b50505092915050565b7f000000000000000000000000000000000000000000000000000000000000000081565b7f000000000000000000000000000000000000000000000000000000000000000073ffffffffffffffffffffffffffffffffffffffff163373ffffffffffffffffffffffffffffffffffffffff161433307f00000000000000000000000000000000000000000000000000000000000000009091926102e3576040517ffe34a6d30000000000000000000000000000000000000000000000000000000081526004016102da93929190610655565b60405180910390fd5b5050505f5f5f8351602085015f875af1905080610347575f61030661080061034c565b90505f816040517f65c8fd4d00000000000000000000000000000000000000000000000000000000815260040161033e929190610870565b60405180910390fd5b505050565b60603d5f8311156103645782811115610363578290505b5b604051602082018101604052818152815f602083013e8092505050919050565b5f604051905090565b5f5ffd5b5f5ffd5b5f5ffd5b5f5ffd5b5f5ffd5b5f5f83601f8401126103b6576103b5610395565b5b8235905067ffffffffffffffff8111156103d3576103d2610399565b5b6020830191508360018202830111156103ef576103ee61039d565b5b9250929050565b5f5f6020838503121561040c5761040b61038d565b5b5f83013567ffffffffffffffff81111561042957610428610391565b5b610435858286016103a1565b92509250509250929050565b5f73ffffffffffffffffffffffffffffffffffffffff82169050919050565b5f61046a82610441565b9050919050565b61047a81610460565b82525050565b5f6020820190506104935f830184610471565b92915050565b6104a281610460565b81146104ac575f5ffd5b50565b5f813590506104bd81610499565b92915050565b5f5ffd5b5f601f19601f8301169050919050565b7f4e487b71000000000000000000000000000000000000000000000000000000005f52604160045260245ffd5b61050d826104c7565b810181811067ffffffffffffffff8211171561052c5761052b6104d7565b5b80604052505050565b5f61053e610384565b905061054a8282610504565b919050565b5f67ffffffffffffffff821115610569576105686104d7565b5b610572826104c7565b9050602081019050919050565b828183375f83830152505050565b5f61059f61059a8461054f565b610535565b9050828152602081018484840111156105bb576105ba6104c3565b5b6105c684828561057f565b509392505050565b5f82601f8301126105e2576105e1610395565b5b81356105f284826020860161058d565b91505092915050565b5f5f604083850312156106115761061061038d565b5b5f61061e858286016104af565b925050602083013567ffffffffffffffff81111561063f5761063e610391565b5b61064b858286016105ce565b9150509250929050565b5f6060820190506106685f830186610471565b6106756020830185610471565b6106826040830184610471565b949350505050565b5f5ffd5b5f5ffd5b5f5f858511156106a5576106a461068a565b5b838611156106b6576106b561068e565b5b6001850283019150848603905094509492505050565b5f82905092915050565b5f7fffffffffffffffffffffffffffffffffffffffff00000000000000000000000082169050919050565b5f82821b905092915050565b5f61071883836106cc565b8261072381356106d6565b925060148210156107635761075e7fffffffffffffffffffffffffffffffffffffffff00000000000000000000000083601403600802610701565b831692505b505092915050565b5f819050919050565b5f819050919050565b5f819050919050565b5f6107a061079b6107968461076b565b61077d565b610774565b9050919050565b6107b081610786565b82525050565b5f82825260208201905092915050565b7f4141313320454950373730322073656e64657220696e6974206661696c6564005f82015250565b5f6107fa601f836107b6565b9150610805826107c6565b602082019050919050565b5f81519050919050565b5f82825260208201905092915050565b8281835e5f83830152505050565b5f61084282610810565b61084c818561081a565b935061085c81856020860161082a565b610865816104c7565b840191505092915050565b5f6060820190506108835f8301856107a7565b8181036020830152610894816107ee565b905081810360408301526108a88184610838565b9050939250505056fea26469706673582212208ff93ec4f3e2784eadbd8a88944264b94bc70cbf1aedfe05a06ab893a1bf6a5e64736f6c634300081e0033","linkReferences":{}},"methodIdentifiers":{"addStake(uint32)":"0396cb60","balanceOf(address)":"70a08231","delegateAndRevert(address,bytes)":"850aaf62","depositTo(address)":"b760faf9","eip712Domain()":"84b0196e","getCurrentUserOpHash()":"b0a398d1","getDepositInfo(address)":"5287ce12","getDomainSeparatorV4()":"13c65a6e","getNonce(address,uint192)":"35567e1a","getPackedUserOpTypeHash()":"154e58dc","getSenderAddress(bytes)":"9b249f69","getUserOpHash((address,uint256,bytes,bytes,bytes32,uint256,bytes32,bytes,bytes))":"22cdde4c","handleAggregatedOps(((address,uint256,bytes,bytes,bytes32,uint256,bytes32,bytes,bytes)[],address,bytes)[],address)":"dbed18e0","handleOps((address,uint256,bytes,bytes,bytes32,uint256,bytes32,bytes,bytes)[],address)":"765e827f","incrementNonce(uint192)":"0bd28e3b","innerHandleOp(bytes,((address,uint256,uint256,uint256,uint256,uint256,uint256,address,uint256,uint256),bytes32,uint256,uint256,uint256),bytes)":"0042dc53","nonceSequenceNumber(address,uint192)":"1b2e01b8","senderCreator()":"09ccb880","supportsInterface(bytes4)":"01ffc9a7","unlockStake()":"bb9fe6bf","withdrawStake(address)":"c23a5cea","withdrawTo(address,uint256)":"205c2878"},"id":7}