{"abi":[{"type":"constructor","inputs":[],"stateMutability":"nonpayable"},{"type":"function","name":"onTransferReceived","inputs":[{"name":"operator","type":"address","internalType":"address"},{"name":"from","type":"address","internalType":"address"},{"name":"value","type":"uint256","internalType":"uint256"},{"name":"data","type":"bytes","internalType":"bytes"}],"outputs":[{"name":"","type":"bytes4","internalType":"bytes4"}],"stateMutability":"nonpayable"},{"type":"function","name":"setUp","inputs":[{"name":"retval","type":"bytes4","internalType":"bytes4"},{"name":"error","type":"uint8","internalType":"enum ERC1363ReceiverMock.RevertType"}],"outputs":[],"stateMutability":"nonpayable"},{"type":"event","name":"Received","inputs":[{"name":"operator","type":"address","indexed":false,"internalType":"address"},{"name":"from","type":"address","indexed":false,"internalType":"address"},{"name":"value","type":"uint256","indexed":false,"internalType":"uint256"},{"name":"data","type":"bytes","indexed":false,"internalType":"bytes"}],"anonymous":false},{"type":"error","name":"CustomError","inputs":[{"name":"","type":"bytes4","internalType":"bytes4"}]}],"bytecode":{"object":"0x6080604052348015600e575f5ffd5b506388a7ca5c60e01b5f5f6101000a81548163ffffffff021916908360e01c02179055505f5f60046101000a81548160ff021916908360048111156053576052605c565b5b02179055506089565b7f4e487b71000000000000000000000000000000000000000000000000000000005f52602160045260245ffd5b6106fa806100965f395ff3fe608060405234801561000f575f5ffd5b5060043610610034575f3560e01c8063793179851461003857806388a7ca5c14610054575b5f5ffd5b610052600480360381019061004d9190610326565b610084565b005b61006e60048036038101906100699190610452565b6100cd565b60405161007b91906104e5565b60405180910390f35b815f5f6101000a81548163ffffffff021916908360e01c0217905550805f60046101000a81548160ff021916908360048111156100c4576100c36104fe565b5b02179055505050565b5f600160048111156100e2576100e16104fe565b5b5f60049054906101000a900460ff166004811115610103576101026104fe565b5b0361010c575f5ffd5b600260048111156101205761011f6104fe565b5b5f60049054906101000a900460ff166004811115610141576101406104fe565b5b03610181576040517f08c379a000000000000000000000000000000000000000000000000000000000815260040161017890610585565b60405180910390fd5b60036004811115610195576101946104fe565b5b5f60049054906101000a900460ff1660048111156101b6576101b56104fe565b5b03610205575f5f9054906101000a900460e01b6040517f66435bc00000000000000000000000000000000000000000000000000000000081526004016101fc91906104e5565b60405180910390fd5b600480811115610218576102176104fe565b5b5f60049054906101000a900460ff166004811115610239576102386104fe565b5b0361024f575f5f5f61024b91906105d0565b9050505b7ed9411ae77b2bacabe5cbe62a2abdbeb78992a0182c6f3c83e0029c7615d6b68686868686604051610285959493929190610678565b60405180910390a15f5f9054906101000a900460e01b905095945050505050565b5f5ffd5b5f5ffd5b5f7fffffffff0000000000000000000000000000000000000000000000000000000082169050919050565b6102e2816102ae565b81146102ec575f5ffd5b50565b5f813590506102fd816102d9565b92915050565b6005811061030f575f5ffd5b50565b5f8135905061032081610303565b92915050565b5f5f6040838503121561033c5761033b6102a6565b5b5f610349858286016102ef565b925050602061035a85828601610312565b9150509250929050565b5f73ffffffffffffffffffffffffffffffffffffffff82169050919050565b5f61038d82610364565b9050919050565b61039d81610383565b81146103a7575f5ffd5b50565b5f813590506103b881610394565b92915050565b5f819050919050565b6103d0816103be565b81146103da575f5ffd5b50565b5f813590506103eb816103c7565b92915050565b5f5ffd5b5f5ffd5b5f5ffd5b5f5f83601f840112610412576104116103f1565b5b8235905067ffffffffffffffff81111561042f5761042e6103f5565b5b60208301915083600182028301111561044b5761044a6103f9565b5b9250929050565b5f5f5f5f5f6080868803121561046b5761046a6102a6565b5b5f610478888289016103aa565b9550506020610489888289016103aa565b945050604061049a888289016103dd565b935050606086013567ffffffffffffffff8111156104bb576104ba6102aa565b5b6104c7888289016103fd565b92509250509295509295909350565b6104df816102ae565b82525050565b5f6020820190506104f85f8301846104d6565b92915050565b7f4e487b71000000000000000000000000000000000000000000000000000000005f52602160045260245ffd5b5f82825260208201905092915050565b7f4552433133363352656365697665724d6f636b3a20726576657274696e6700005f82015250565b5f61056f601e8361052b565b915061057a8261053b565b602082019050919050565b5f6020820190508181035f83015261059c81610563565b9050919050565b7f4e487b71000000000000000000000000000000000000000000000000000000005f52601260045260245ffd5b5f6105da826103be565b91506105e5836103be565b9250826105f5576105f46105a3565b5b828204905092915050565b61060981610383565b82525050565b610618816103be565b82525050565b5f82825260208201905092915050565b828183375f83830152505050565b5f601f19601f8301169050919050565b5f610657838561061e565b935061066483858461062e565b61066d8361063c565b840190509392505050565b5f60808201905061068b5f830188610600565b6106986020830187610600565b6106a5604083018661060f565b81810360608301526106b881848661064c565b9050969550505050505056fea26469706673582212201452beda54166a332a25ad8e57782131c370fbc5aa8df5424a9777aef1b5ba8464736f6c634300081e0033","linkReferences":{}},"methodIdentifiers":{"onTransferReceived(address,address,uint256,bytes)":"88a7ca5c","setUp(bytes4,uint8)":"79317985"},"id":281}