{"abi":[{"type":"constructor","inputs":[{"name":"originalOwner","type":"address","internalType":"address"}],"stateMutability":"nonpayable"},{"type":"function","name":"isValidSignature","inputs":[{"name":"hash","type":"bytes32","internalType":"bytes32"},{"name":"signature","type":"bytes","internalType":"bytes"}],"outputs":[{"name":"magicValue","type":"bytes4","internalType":"bytes4"}],"stateMutability":"view"},{"type":"function","name":"owner","inputs":[],"outputs":[{"name":"","type":"address","internalType":"address"}],"stateMutability":"view"},{"type":"function","name":"renounceOwnership","inputs":[],"outputs":[],"stateMutability":"nonpayable"},{"type":"function","name":"transferOwnership","inputs":[{"name":"newOwner","type":"address","internalType":"address"}],"outputs":[],"stateMutability":"nonpayable"},{"type":"event","name":"OwnershipTransferred","inputs":[{"name":"previousOwner","type":"address","indexed":true,"internalType":"address"},{"name":"newOwner","type":"address","indexed":true,"internalType":"address"}],"anonymous":false},{"type":"error","name":"ECDSAInvalidSignature","inputs":[]},{"type":"error","name":"ECDSAInvalidSignatureLength","inputs":[{"name":"length","type":"uint256","internalType":"uint256"}]},{"type":"error","name":"ECDSAInvalidSignatureS","inputs":[{"name":"s","type":"bytes32","internalType":"bytes32"}]},{"type":"error","name":"OwnableInvalidOwner","inputs":[{"name":"owner","type":"address","internalType":"address"}]},{"type":"error","name":"OwnableUnauthorizedAccount","inputs":[{"name":"account","type":"address","internalType":"address"}]}],"bytecode":{"object":"0x608060405234801561000f575f5ffd5b50604051610c20380380610c20833981810160405281019061003191906101d7565b805f73ffffffffffffffffffffffffffffffffffffffff168173ffffffffffffffffffffffffffffffffffffffff16036100a2575f6040517f1e4fbdf70000000000000000000000000000000000000000000000000000000081526004016100999190610211565b60405180910390fd5b6100b1816100b860201b60201c565b505061022a565b5f5f5f9054906101000a900473ffffffffffffffffffffffffffffffffffffffff169050815f5f6101000a81548173ffffffffffffffffffffffffffffffffffffffff021916908373ffffffffffffffffffffffffffffffffffffffff1602179055508173ffffffffffffffffffffffffffffffffffffffff168173ffffffffffffffffffffffffffffffffffffffff167f8be0079c531659141344cd1fd0a4f28419497f9722a3daafe3b4186f6b6457e060405160405180910390a35050565b5f5ffd5b5f73ffffffffffffffffffffffffffffffffffffffff82169050919050565b5f6101a68261017d565b9050919050565b6101b68161019c565b81146101c0575f5ffd5b50565b5f815190506101d1816101ad565b92915050565b5f602082840312156101ec576101eb610179565b5b5f6101f9848285016101c3565b91505092915050565b61020b8161019c565b82525050565b5f6020820190506102245f830184610202565b92915050565b6109e9806102375f395ff3fe608060405234801561000f575f5ffd5b506004361061004a575f3560e01c80631626ba7e1461004e578063715018a61461007e5780638da5cb5b14610088578063f2fde38b146100a6575b5f5ffd5b61006860048036038101906100639190610775565b6100c2565b6040516100759190610809565b60405180910390f35b610086610120565b005b610090610133565b60405161009d9190610861565b60405180910390f35b6100c060048036038101906100bb91906108a4565b61015a565b005b5f6100cb610133565b73ffffffffffffffffffffffffffffffffffffffff166100eb84846101de565b73ffffffffffffffffffffffffffffffffffffffff161461010f575f60e01b610118565b631626ba7e60e01b5b905092915050565b610128610208565b6101315f61028f565b565b5f5f5f9054906101000a900473ffffffffffffffffffffffffffffffffffffffff16905090565b610162610208565b5f73ffffffffffffffffffffffffffffffffffffffff168173ffffffffffffffffffffffffffffffffffffffff16036101d2575f6040517f1e4fbdf70000000000000000000000000000000000000000000000000000000081526004016101c99190610861565b60405180910390fd5b6101db8161028f565b50565b5f5f5f5f6101ec8686610350565b9250925092506101fc82826103a5565b82935050505092915050565b610210610507565b73ffffffffffffffffffffffffffffffffffffffff1661022e610133565b73ffffffffffffffffffffffffffffffffffffffff161461028d57610251610507565b6040517f118cdaa70000000000000000000000000000000000000000000000000000000081526004016102849190610861565b60405180910390fd5b565b5f5f5f9054906101000a900473ffffffffffffffffffffffffffffffffffffffff169050815f5f6101000a81548173ffffffffffffffffffffffffffffffffffffffff021916908373ffffffffffffffffffffffffffffffffffffffff1602179055508173ffffffffffffffffffffffffffffffffffffffff168173ffffffffffffffffffffffffffffffffffffffff167f8be0079c531659141344cd1fd0a4f28419497f9722a3daafe3b4186f6b6457e060405160405180910390a35050565b5f5f5f6041845103610390575f5f5f602087015192506040870151915060608701515f1a90506103828882858561050e565b95509550955050505061039e565b5f600285515f1b9250925092505b9250925092565b5f60038111156103b8576103b76108cf565b5b8260038111156103cb576103ca6108cf565b5b031561050357600160038111156103e5576103e46108cf565b5b8260038111156103f8576103f76108cf565b5b0361042f576040517ff645eedf00000000000000000000000000000000000000000000000000000000815260040160405180910390fd5b60026003811115610443576104426108cf565b5b826003811115610456576104556108cf565b5b0361049a57805f1c6040517ffce698f70000000000000000000000000000000000000000000000000000000081526004016104919190610914565b60405180910390fd5b6003808111156104ad576104ac6108cf565b5b8260038111156104c0576104bf6108cf565b5b0361050257806040517fd78bce0c0000000000000000000000000000000000000000000000000000000081526004016104f9919061093c565b60405180910390fd5b5b5050565b5f33905090565b5f5f5f7f7fffffffffffffffffffffffffffffff5d576e7357a4501ddfe92f46681b20a0845f1c111561054a575f6003859250925092506105eb565b5f6001888888886040515f815260200160405260405161056d9493929190610970565b6020604051602081039080840390855afa15801561058d573d5f5f3e3d5ffd5b5050506020604051035190505f73ffffffffffffffffffffffffffffffffffffffff168173ffffffffffffffffffffffffffffffffffffffff16036105de575f60015f5f1b935093509350506105eb565b805f5f5f1b935093509350505b9450945094915050565b5f604051905090565b5f5ffd5b5f5ffd5b5f819050919050565b61061881610606565b8114610622575f5ffd5b50565b5f813590506106338161060f565b92915050565b5f5ffd5b5f5ffd5b5f601f19601f8301169050919050565b7f4e487b71000000000000000000000000000000000000000000000000000000005f52604160045260245ffd5b61068782610641565b810181811067ffffffffffffffff821117156106a6576106a5610651565b5b80604052505050565b5f6106b86105f5565b90506106c4828261067e565b919050565b5f67ffffffffffffffff8211156106e3576106e2610651565b5b6106ec82610641565b9050602081019050919050565b828183375f83830152505050565b5f610719610714846106c9565b6106af565b9050828152602081018484840111156107355761073461063d565b5b6107408482856106f9565b509392505050565b5f82601f83011261075c5761075b610639565b5b813561076c848260208601610707565b91505092915050565b5f5f6040838503121561078b5761078a6105fe565b5b5f61079885828601610625565b925050602083013567ffffffffffffffff8111156107b9576107b8610602565b5b6107c585828601610748565b9150509250929050565b5f7fffffffff0000000000000000000000000000000000000000000000000000000082169050919050565b610803816107cf565b82525050565b5f60208201905061081c5f8301846107fa565b92915050565b5f73ffffffffffffffffffffffffffffffffffffffff82169050919050565b5f61084b82610822565b9050919050565b61085b81610841565b82525050565b5f6020820190506108745f830184610852565b92915050565b61088381610841565b811461088d575f5ffd5b50565b5f8135905061089e8161087a565b92915050565b5f602082840312156108b9576108b86105fe565b5b5f6108c684828501610890565b91505092915050565b7f4e487b71000000000000000000000000000000000000000000000000000000005f52602160045260245ffd5b5f819050919050565b61090e816108fc565b82525050565b5f6020820190506109275f830184610905565b92915050565b61093681610606565b82525050565b5f60208201905061094f5f83018461092d565b92915050565b5f60ff82169050919050565b61096a81610955565b82525050565b5f6080820190506109835f83018761092d565b6109906020830186610961565b61099d604083018561092d565b6109aa606083018461092d565b9594505050505056fea26469706673582212200a58866dc8a0744cbad63081f3265b532a277d889c153914f3bbc95bfcb501c564736f6c634300081e0033","linkReferences":{}},"methodIdentifiers":{"isValidSignature(bytes32,bytes)":"1626ba7e","owner()":"8da5cb5b","renounceOwnership()":"715018a6","transferOwnership(address)":"f2fde38b"},"id":207}