{"abi":[{"type":"function","name":"isValidSignature","inputs":[{"name":"","type":"bytes32","internalType":"bytes32"},{"name":"","type":"bytes","internalType":"bytes"}],"outputs":[{"name":"","type":"bytes4","internalType":"bytes4"}],"stateMutability":"pure"}],"bytecode":{"object":"0x6080604052348015600e575f5ffd5b506102e98061001c5f395ff3fe608060405234801561000f575f5ffd5b5060043610610029575f3560e01c80631626ba7e1461002d575b5f5ffd5b61004760048036038101906100429190610206565b61005d565b604051610054919061029a565b60405180910390f35b5f7fffffffffffffffffffffffffffffffffffffffffffffffffffffffffffffffff5f5260205ff35b5f604051905090565b5f5ffd5b5f5ffd5b5f819050919050565b6100a981610097565b81146100b3575f5ffd5b50565b5f813590506100c4816100a0565b92915050565b5f5ffd5b5f5ffd5b5f601f19601f8301169050919050565b7f4e487b71000000000000000000000000000000000000000000000000000000005f52604160045260245ffd5b610118826100d2565b810181811067ffffffffffffffff82111715610137576101366100e2565b5b80604052505050565b5f610149610086565b9050610155828261010f565b919050565b5f67ffffffffffffffff821115610174576101736100e2565b5b61017d826100d2565b9050602081019050919050565b828183375f83830152505050565b5f6101aa6101a58461015a565b610140565b9050828152602081018484840111156101c6576101c56100ce565b5b6101d184828561018a565b509392505050565b5f82601f8301126101ed576101ec6100ca565b5b81356101fd848260208601610198565b91505092915050565b5f5f6040838503121561021c5761021b61008f565b5b5f610229858286016100b6565b925050602083013567ffffffffffffffff81111561024a57610249610093565b5b610256858286016101d9565b9150509250929050565b5f7fffffffff0000000000000000000000000000000000000000000000000000000082169050919050565b61029481610260565b82525050565b5f6020820190506102ad5f83018461028b565b9291505056fea2646970667358221220029e522ea9981e82b0c4847b034740df44b054bd149b4af808f3ffb63bc9ee3a64736f6c634300081e0033","linkReferences":{}},"methodIdentifiers":{"isValidSignature(bytes32,bytes)":"1626ba7e"},"id":207}