{"abi":[{"type":"function","name":"allowance","inputs":[{"name":"owner","type":"address","internalType":"address"},{"name":"spender","type":"address","internalType":"address"},{"name":"id","type":"uint256","internalType":"uint256"}],"outputs":[{"name":"","type":"uint256","internalType":"uint256"}],"stateMutability":"view"},{"type":"function","name":"approve","inputs":[{"name":"spender","type":"address","internalType":"address"},{"name":"id","type":"uint256","internalType":"uint256"},{"name":"amount","type":"uint256","internalType":"uint256"}],"outputs":[{"name":"","type":"bool","internalType":"bool"}],"stateMutability":"nonpayable"},{"type":"function","name":"balanceOf","inputs":[{"name":"owner","type":"address","internalType":"address"},{"name":"id","type":"uint256","internalType":"uint256"}],"outputs":[{"name":"","type":"uint256","internalType":"uint256"}],"stateMutability":"view"},{"type":"function","name":"isOperator","inputs":[{"name":"owner","type":"address","internalType":"address"},{"name":"spender","type":"address","internalType":"address"}],"outputs":[{"name":"","type":"bool","internalType":"bool"}],"stateMutability":"view"},{"type":"function","name":"setOperator","inputs":[{"name":"spender","type":"address","internalType":"address"},{"name":"approved","type":"bool","internalType":"bool"}],"outputs":[{"name":"","type":"bool","internalType":"bool"}],"stateMutability":"nonpayable"},{"type":"function","name":"supportsInterface","inputs":[{"name":"interfaceId","type":"bytes4","internalType":"bytes4"}],"outputs":[{"name":"","type":"bool","internalType":"bool"}],"stateMutability":"view"},{"type":"function","name":"totalSupply","inputs":[{"name":"id","type":"uint256","internalType":"uint256"}],"outputs":[{"name":"","type":"uint256","internalType":"uint256"}],"stateMutability":"view"},{"type":"function","name":"transfer","inputs":[{"name":"receiver","type":"address","internalType":"address"},{"name":"id","type":"uint256","internalType":"uint256"},{"name":"amount","type":"uint256","internalType":"uint256"}],"outputs":[{"name":"","type":"bool","internalType":"bool"}],"stateMutability":"nonpayable"},{"type":"function","name":"transferFrom","inputs":[{"name":"sender","type":"address","internalType":"address"},{"name":"receiver","type":"address","internalType":"address"},{"name":"id","type":"uint256","internalType":"uint256"},{"name":"amount","type":"uint256","internalType":"uint256"}],"outputs":[{"name":"","type":"bool","internalType":"bool"}],"stateMutability":"nonpayable"},{"type":"event","name":"Approval","inputs":[{"name":"owner","type":"address","indexed":true,"internalType":"address"},{"name":"spender","type":"address","indexed":true,"internalType":"address"},{"name":"id","type":"uint256","indexed":true,"internalType":"uint256"},{"name":"amount","type":"uint256","indexed":false,"internalType":"uint256"}],"anonymous":false},{"type":"event","name":"OperatorSet","inputs":[{"name":"owner","type":"address","indexed":true,"internalType":"address"},{"name":"spender","type":"address","indexed":true,"internalType":"address"},{"name":"approved","type":"bool","indexed":false,"internalType":"bool"}],"anonymous":false},{"type":"event","name":"Transfer","inputs":[{"name":"caller","type":"address","indexed":false,"internalType":"address"},{"name":"sender","type":"address","indexed":true,"internalType":"address"},{"name":"receiver","type":"address","indexed":true,"internalType":"address"},{"name":"id","type":"uint256","indexed":true,"internalType":"uint256"},{"name":"amount","type":"uint256","indexed":false,"internalType":"uint256"}],"anonymous":false},{"type":"error","name":"ERC6909InsufficientAllowance","inputs":[{"name":"spender","type":"address","internalType":"address"},{"name":"allowance","type":"uint256","internalType":"uint256"},{"name":"needed","type":"uint256","internalType":"uint256"},{"name":"id","type":"uint256","internalType":"uint256"}]},{"type":"error","name":"ERC6909InsufficientBalance","inputs":[{"name":"sender","type":"address","internalType":"address"},{"name":"balance","type":"uint256","internalType":"uint256"},{"name":"needed","type":"uint256","internalType":"uint256"},{"name":"id","type":"uint256","internalType":"uint256"}]},{"type":"error","name":"ERC6909InvalidApprover","inputs":[{"name":"approver","type":"address","internalType":"address"}]},{"type":"error","name":"ERC6909InvalidReceiver","inputs":[{"name":"receiver","type":"address","internalType":"address"}]},{"type":"error","name":"ERC6909InvalidSender","inputs":[{"name":"sender","type":"address","internalType":"address"}]},{"type":"error","name":"ERC6909InvalidSpender","inputs":[{"name":"spender","type":"address","internalType":"address"}]}],"bytecode":{"object":"0x6080604052348015600e575f5ffd5b5061135a8061001c5f395ff3fe608060405234801561000f575f5ffd5b5060043610610090575f3560e01c8063558a729711610064578063558a729714610154578063598af9e714610184578063b6363cf2146101b4578063bd85b039146101e4578063fe99049a1461021457610090565b8062fdd58e1461009457806301ffc9a7146100c4578063095bcdb6146100f4578063426a849314610124575b5f5ffd5b6100ae60048036038101906100a99190610f44565b610244565b6040516100bb9190610f91565b60405180910390f35b6100de60048036038101906100d99190610fff565b610299565b6040516100eb9190611044565b60405180910390f35b61010e6004803603810190610109919061105d565b610312565b60405161011b9190611044565b60405180910390f35b61013e6004803603810190610139919061105d565b610331565b60405161014b9190611044565b60405180910390f35b61016e600480360381019061016991906110d7565b610350565b60405161017b9190611044565b60405180910390f35b61019e60048036038101906101999190611115565b61036d565b6040516101ab9190610f91565b60405180910390f35b6101ce60048036038101906101c99190611165565b6103ff565b6040516101db9190611044565b60405180910390f35b6101fe60048036038101906101f991906111a3565b61048d565b60405161020b9190610f91565b60405180910390f35b61022e600480360381019061022991906111ce565b6104a7565b60405161023b9190611044565b60405180910390f35b5f5f5f8473ffffffffffffffffffffffffffffffffffffffff1673ffffffffffffffffffffffffffffffffffffffff1681526020019081526020015f205f8381526020019081526020015f2054905092915050565b5f7fbd85b039000000000000000000000000000000000000000000000000000000007bffffffffffffffffffffffffffffffffffffffffffffffffffffffff1916827bffffffffffffffffffffffffffffffffffffffffffffffffffffffff1916148061030b575061030a82610521565b5b9050919050565b5f61032661031e61059a565b8585856105a1565b600190509392505050565b5f61034561033d61059a565b858585610693565b600190509392505050565b5f61036361035c61059a565b848461086b565b6001905092915050565b5f60025f8573ffffffffffffffffffffffffffffffffffffffff1673ffffffffffffffffffffffffffffffffffffffff1681526020019081526020015f205f8473ffffffffffffffffffffffffffffffffffffffff1673ffffffffffffffffffffffffffffffffffffffff1681526020019081526020015f205f8381526020019081526020015f205490509392505050565b5f60015f8473ffffffffffffffffffffffffffffffffffffffff1673ffffffffffffffffffffffffffffffffffffffff1681526020019081526020015f205f8373ffffffffffffffffffffffffffffffffffffffff1673ffffffffffffffffffffffffffffffffffffffff1681526020019081526020015f205f9054906101000a900460ff16905092915050565b5f60035f8381526020019081526020015f20549050919050565b5f5f6104b161059a565b90508073ffffffffffffffffffffffffffffffffffffffff168673ffffffffffffffffffffffffffffffffffffffff16141580156104f657506104f486826103ff565b155b156105085761050786828686610a44565b5b610514868686866105a1565b6001915050949350505050565b5f7f0f632fb3000000000000000000000000000000000000000000000000000000007bffffffffffffffffffffffffffffffffffffffffffffffffffffffff1916827bffffffffffffffffffffffffffffffffffffffffffffffffffffffff19161480610593575061059282610b5b565b5b9050919050565b5f33905090565b5f73ffffffffffffffffffffffffffffffffffffffff168473ffffffffffffffffffffffffffffffffffffffff1603610611575f6040517fa43520800000000000000000000000000000000000000000000000000000000081526004016106089190611241565b60405180910390fd5b5f73ffffffffffffffffffffffffffffffffffffffff168373ffffffffffffffffffffffffffffffffffffffff1603610681575f6040517fb8bbd6100000000000000000000000000000000000000000000000000000000081526004016106789190611241565b60405180910390fd5b61068d84848484610bc4565b50505050565b5f73ffffffffffffffffffffffffffffffffffffffff168473ffffffffffffffffffffffffffffffffffffffff1603610703575f6040517fcc766a980000000000000000000000000000000000000000000000000000000081526004016106fa9190611241565b60405180910390fd5b5f73ffffffffffffffffffffffffffffffffffffffff168373ffffffffffffffffffffffffffffffffffffffff1603610773575f6040517f6f65f46500000000000000000000000000000000000000000000000000000000815260040161076a9190611241565b60405180910390fd5b8060025f8673ffffffffffffffffffffffffffffffffffffffff1673ffffffffffffffffffffffffffffffffffffffff1681526020019081526020015f205f8573ffffffffffffffffffffffffffffffffffffffff1673ffffffffffffffffffffffffffffffffffffffff1681526020019081526020015f205f8481526020019081526020015f2081905550818373ffffffffffffffffffffffffffffffffffffffff168573ffffffffffffffffffffffffffffffffffffffff167fb3fd5071835887567a0671151121894ddccc2842f1d10bedad13e0d17cace9a78460405161085d9190610f91565b60405180910390a450505050565b5f73ffffffffffffffffffffffffffffffffffffffff168373ffffffffffffffffffffffffffffffffffffffff16036108db575f6040517fcc766a980000000000000000000000000000000000000000000000000000000081526004016108d29190611241565b60405180910390fd5b5f73ffffffffffffffffffffffffffffffffffffffff168273ffffffffffffffffffffffffffffffffffffffff160361094b575f6040517f6f65f4650000000000000000000000000000000000000000000000000000000081526004016109429190611241565b60405180910390fd5b8060015f8573ffffffffffffffffffffffffffffffffffffffff1673ffffffffffffffffffffffffffffffffffffffff1681526020019081526020015f205f8473ffffffffffffffffffffffffffffffffffffffff1673ffffffffffffffffffffffffffffffffffffffff1681526020019081526020015f205f6101000a81548160ff0219169083151502179055508173ffffffffffffffffffffffffffffffffffffffff168373ffffffffffffffffffffffffffffffffffffffff167fceb576d9f15e4e200fdb5096d64d5dfd667e16def20c1eefd14256d8e3faa26783604051610a379190611044565b60405180910390a3505050565b5f610a5085858561036d565b90507fffffffffffffffffffffffffffffffffffffffffffffffffffffffffffffffff811015610b545781811015610ac557838183856040517f58a3fd5a000000000000000000000000000000000000000000000000000000008152600401610abc949392919061125a565b60405180910390fd5b81810360025f8773ffffffffffffffffffffffffffffffffffffffff1673ffffffffffffffffffffffffffffffffffffffff1681526020019081526020015f205f8673ffffffffffffffffffffffffffffffffffffffff1673ffffffffffffffffffffffffffffffffffffffff1681526020019081526020015f205f8581526020019081526020015f20819055505b5050505050565b5f7f01ffc9a7000000000000000000000000000000000000000000000000000000007bffffffffffffffffffffffffffffffffffffffffffffffffffffffff1916827bffffffffffffffffffffffffffffffffffffffffffffffffffffffff1916149050919050565b610bd084848484610c83565b5f73ffffffffffffffffffffffffffffffffffffffff168473ffffffffffffffffffffffffffffffffffffffff1603610c2b578060035f8481526020019081526020015f205f828254610c2391906112ca565b925050819055505b5f73ffffffffffffffffffffffffffffffffffffffff168373ffffffffffffffffffffffffffffffffffffffff1603610c7d578060035f8481526020019081526020015f205f82825403925050819055505b50505050565b5f610c8c61059a565b90505f73ffffffffffffffffffffffffffffffffffffffff168573ffffffffffffffffffffffffffffffffffffffff1614610daf575f5f5f8773ffffffffffffffffffffffffffffffffffffffff1673ffffffffffffffffffffffffffffffffffffffff1681526020019081526020015f205f8581526020019081526020015f2054905082811015610d5b57858184866040517fb1b4fec0000000000000000000000000000000000000000000000000000000008152600401610d52949392919061125a565b60405180910390fd5b8281035f5f8873ffffffffffffffffffffffffffffffffffffffff1673ffffffffffffffffffffffffffffffffffffffff1681526020019081526020015f205f8681526020019081526020015f2081905550505b5f73ffffffffffffffffffffffffffffffffffffffff168473ffffffffffffffffffffffffffffffffffffffff1614610e4457815f5f8673ffffffffffffffffffffffffffffffffffffffff1673ffffffffffffffffffffffffffffffffffffffff1681526020019081526020015f205f8581526020019081526020015f205f828254610e3c91906112ca565b925050819055505b828473ffffffffffffffffffffffffffffffffffffffff168673ffffffffffffffffffffffffffffffffffffffff167f1b3d7edb2e9c0b0e7c525b20aaaef0f5940d2ed71663c7d39266ecafac7288598486604051610ea49291906112fd565b60405180910390a45050505050565b5f5ffd5b5f73ffffffffffffffffffffffffffffffffffffffff82169050919050565b5f610ee082610eb7565b9050919050565b610ef081610ed6565b8114610efa575f5ffd5b50565b5f81359050610f0b81610ee7565b92915050565b5f819050919050565b610f2381610f11565b8114610f2d575f5ffd5b50565b5f81359050610f3e81610f1a565b92915050565b5f5f60408385031215610f5a57610f59610eb3565b5b5f610f6785828601610efd565b9250506020610f7885828601610f30565b9150509250929050565b610f8b81610f11565b82525050565b5f602082019050610fa45f830184610f82565b92915050565b5f7fffffffff0000000000000000000000000000000000000000000000000000000082169050919050565b610fde81610faa565b8114610fe8575f5ffd5b50565b5f81359050610ff981610fd5565b92915050565b5f6020828403121561101457611013610eb3565b5b5f61102184828501610feb565b91505092915050565b5f8115159050919050565b61103e8161102a565b82525050565b5f6020820190506110575f830184611035565b92915050565b5f5f5f6060848603121561107457611073610eb3565b5b5f61108186828701610efd565b935050602061109286828701610f30565b92505060406110a386828701610f30565b9150509250925092565b6110b68161102a565b81146110c0575f5ffd5b50565b5f813590506110d1816110ad565b92915050565b5f5f604083850312156110ed576110ec610eb3565b5b5f6110fa85828601610efd565b925050602061110b858286016110c3565b9150509250929050565b5f5f5f6060848603121561112c5761112b610eb3565b5b5f61113986828701610efd565b935050602061114a86828701610efd565b925050604061115b86828701610f30565b9150509250925092565b5f5f6040838503121561117b5761117a610eb3565b5b5f61118885828601610efd565b925050602061119985828601610efd565b9150509250929050565b5f602082840312156111b8576111b7610eb3565b5b5f6111c584828501610f30565b91505092915050565b5f5f5f5f608085870312156111e6576111e5610eb3565b5b5f6111f387828801610efd565b945050602061120487828801610efd565b935050604061121587828801610f30565b925050606061122687828801610f30565b91505092959194509250565b61123b81610ed6565b82525050565b5f6020820190506112545f830184611232565b92915050565b5f60808201905061126d5f830187611232565b61127a6020830186610f82565b6112876040830185610f82565b6112946060830184610f82565b95945050505050565b7f4e487b71000000000000000000000000000000000000000000000000000000005f52601160045260245ffd5b5f6112d482610f11565b91506112df83610f11565b92508282019050808211156112f7576112f661129d565b5b92915050565b5f6040820190506113105f830185611232565b61131d6020830184610f82565b939250505056fea2646970667358221220a63189ed46a52325629a512aba8905a6d65952695af6e2edbee81c51f7a7952c64736f6c634300081e0033","linkReferences":{}},"methodIdentifiers":{"allowance(address,address,uint256)":"598af9e7","approve(address,uint256,uint256)":"426a8493","balanceOf(address,uint256)":"00fdd58e","isOperator(address,address)":"b6363cf2","setOperator(address,bool)":"558a7297","supportsInterface(bytes4)":"01ffc9a7","totalSupply(uint256)":"bd85b039","transfer(address,uint256,uint256)":"095bcdb6","transferFrom(address,address,uint256,uint256)":"fe99049a"},"id":350}