{"abi":[{"type":"constructor","inputs":[{"name":"anEntryPoint","type":"address","internalType":"contract IEntryPoint"},{"name":"anAggregator","type":"address","internalType":"address"}],"stateMutability":"nonpayable"},{"type":"function","name":"accountImplementation","inputs":[],"outputs":[{"name":"","type":"address","internalType":"contract TestAggregatedAccount"}],"stateMutability":"view"},{"type":"function","name":"createAccount","inputs":[{"name":"owner","type":"address","internalType":"address"},{"name":"salt","type":"uint256","internalType":"uint256"}],"outputs":[{"name":"ret","type":"address","internalType":"contract TestAggregatedAccount"}],"stateMutability":"nonpayable"},{"type":"function","name":"getAddress","inputs":[{"name":"owner","type":"address","internalType":"address"},{"name":"salt","type":"uint256","internalType":"uint256"}],"outputs":[{"name":"","type":"address","internalType":"address"}],"stateMutability":"view"}],"bytecode":{"object":"0x60a060405234801561000f575f5ffd5b5060405161360238038061360283398181016040528101906100319190610144565b818160405161003f9061009e565b61004a9291906101ec565b604051809103905ff080158015610063573d5f5f3e3d5ffd5b5073ffffffffffffffffffffffffffffffffffffffff1660808173ffffffffffffffffffffffffffffffffffffffff16815250505050610213565b61277580610e8d83390190565b5f5ffd5b5f73ffffffffffffffffffffffffffffffffffffffff82169050919050565b5f6100d8826100af565b9050919050565b5f6100e9826100ce565b9050919050565b6100f9816100df565b8114610103575f5ffd5b50565b5f81519050610114816100f0565b92915050565b610123816100ce565b811461012d575f5ffd5b50565b5f8151905061013e8161011a565b92915050565b5f5f6040838503121561015a576101596100ab565b5b5f61016785828601610106565b925050602061017885828601610130565b9150509250929050565b5f819050919050565b5f6101a56101a061019b846100af565b610182565b6100af565b9050919050565b5f6101b68261018b565b9050919050565b5f6101c7826101ac565b9050919050565b6101d7816101bd565b82525050565b6101e6816100ce565b82525050565b5f6040820190506101ff5f8301856101ce565b61020c60208301846101dd565b9392505050565b608051610c556102385f395f818160c30152818161012501526102070152610c555ff3fe608060405234801561000f575f5ffd5b506004361061003f575f3560e01c806311464fbe146100435780635fbfb9cf146100615780638cb84e1814610091575b5f5ffd5b61004b6100c1565b60405161005891906103ab565b60405180910390f35b61007b60048036038101906100769190610436565b6100e5565b60405161008891906103ab565b60405180910390f35b6100ab60048036038101906100a69190610436565b6101da565b6040516100b89190610483565b60405180910390f35b7f000000000000000000000000000000000000000000000000000000000000000081565b5f5f6100f184846101da565b90505f8173ffffffffffffffffffffffffffffffffffffffff163b90505f8111156101205781925050506101d4565b835f1b7f0000000000000000000000000000000000000000000000000000000000000000866040516024016101559190610483565b60405160208183030381529060405263c4d66de860e01b6020820180517bffffffffffffffffffffffffffffffffffffffffffffffffffffffff83818316178352505050506040516101a690610324565b6101b192919061050c565b8190604051809103905ff59050801580156101ce573d5f5f3e3d5ffd5b50925050505b92915050565b5f6102c8825f1b604051806020016101f190610324565b6020820181038252601f19601f820116604052507f0000000000000000000000000000000000000000000000000000000000000000866040516024016102379190610483565b60405160208183030381529060405263c4d66de860e01b6020820180517bffffffffffffffffffffffffffffffffffffffffffffffffffffffff838183161783525050505060405160200161028d92919061050c565b6040516020818303038152906040526040516020016102ad929190610574565b604051602081830303815290604052805190602001206102d0565b905092915050565b5f6102dc8383306102e4565b905092915050565b5f604051836040820152846020820152828152600b810160ff815373ffffffffffffffffffffffffffffffffffffffff6055822016925050509392505050565b6106888061059883390190565b5f73ffffffffffffffffffffffffffffffffffffffff82169050919050565b5f819050919050565b5f61037361036e61036984610331565b610350565b610331565b9050919050565b5f61038482610359565b9050919050565b5f6103958261037a565b9050919050565b6103a58161038b565b82525050565b5f6020820190506103be5f83018461039c565b92915050565b5f5ffd5b5f6103d282610331565b9050919050565b6103e2816103c8565b81146103ec575f5ffd5b50565b5f813590506103fd816103d9565b92915050565b5f819050919050565b61041581610403565b811461041f575f5ffd5b50565b5f813590506104308161040c565b92915050565b5f5f6040838503121561044c5761044b6103c4565b5b5f610459858286016103ef565b925050602061046a85828601610422565b9150509250929050565b61047d816103c8565b82525050565b5f6020820190506104965f830184610474565b92915050565b5f81519050919050565b5f82825260208201905092915050565b8281835e5f83830152505050565b5f601f19601f8301169050919050565b5f6104de8261049c565b6104e881856104a6565b93506104f88185602086016104b6565b610501816104c4565b840191505092915050565b5f60408201905061051f5f830185610474565b818103602083015261053181846104d4565b90509392505050565b5f81905092915050565b5f61054e8261049c565b610558818561053a565b93506105688185602086016104b6565b80840191505092915050565b5f61057f8285610544565b915061058b8284610544565b9150819050939250505056fe608060405260405161068838038061068883398181016040528101906100259190610526565b61003361008e60201b60201c565b15801561004057505f8151145b15610077576040517fc28a273c00000000000000000000000000000000000000000000000000000000815260040160405180910390fd5b610087828261009560201b60201c565b50506105a8565b5f5f905090565b6100a48261011960201b60201c565b8173ffffffffffffffffffffffffffffffffffffffff167fbc7cd75a20ee27fd9adebab32041f755214dbc6bffa90cc0225b39da2e5c2d3b60405160405180910390a25f815111156101065761010082826101e860201b60201c565b50610115565b6101146102f760201b60201c565b5b5050565b5f8173ffffffffffffffffffffffffffffffffffffffff163b0361017457806040517f4c9c8ce300000000000000000000000000000000000000000000000000000000815260040161016b919061058f565b60405180910390fd5b806101a67f360894a13ba1a3210667c828492db98dca3e2076cc3735a920a3ca505d382bbc5f1b61033360201b60201c565b5f015f6101000a81548173ffffffffffffffffffffffffffffffffffffffff021916908373ffffffffffffffffffffffffffffffffffffffff16021790555050565b60605f6101fb848461033c60201b60201c565b905080801561023757505f61021461035060201b60201c565b118061023657505f8473ffffffffffffffffffffffffffffffffffffffff163b115b5b156102525761024a61035760201b60201c565b9150506102f1565b801561029557836040517f9996b31500000000000000000000000000000000000000000000000000000000815260040161028c919061058f565b60405180910390fd5b5f6102a461035060201b60201c565b11156102bd576102b861037460201b60201c565b6102ef565b6040517fd6bda27500000000000000000000000000000000000000000000000000000000815260040160405180910390fd5b505b92915050565b5f341115610331576040517fb398979f00000000000000000000000000000000000000000000000000000000815260040160405180910390fd5b565b5f819050919050565b5f5f5f835160208501865af4905092915050565b5f3d905090565b606060405190503d81523d5f602083013e3d602001810160405290565b6040513d5f823e3d81fd5b5f604051905090565b5f5ffd5b5f5ffd5b5f73ffffffffffffffffffffffffffffffffffffffff82169050919050565b5f6103b982610390565b9050919050565b6103c9816103af565b81146103d3575f5ffd5b50565b5f815190506103e4816103c0565b92915050565b5f5ffd5b5f5ffd5b5f601f19601f8301169050919050565b7f4e487b71000000000000000000000000000000000000000000000000000000005f52604160045260245ffd5b610438826103f2565b810181811067ffffffffffffffff8211171561045757610456610402565b5b80604052505050565b5f61046961037f565b9050610475828261042f565b919050565b5f67ffffffffffffffff82111561049457610493610402565b5b61049d826103f2565b9050602081019050919050565b8281835e5f83830152505050565b5f6104ca6104c58461047a565b610460565b9050828152602081018484840111156104e6576104e56103ee565b5b6104f18482856104aa565b509392505050565b5f82601f83011261050d5761050c6103ea565b5b815161051d8482602086016104b8565b91505092915050565b5f5f6040838503121561053c5761053b610388565b5b5f610549858286016103d6565b925050602083015167ffffffffffffffff81111561056a5761056961038c565b5b610576858286016104f9565b9150509250929050565b610589816103af565b82525050565b5f6020820190506105a25f830184610580565b92915050565b60d4806105b45f395ff3fe6080604052600a600c565b005b60186014601a565b6026565b565b5f60216044565b905090565b365f5f375f5f365f845af43d5f5f3e805f81146040573d5ff35b3d5ffd5b5f606e7f360894a13ba1a3210667c828492db98dca3e2076cc3735a920a3ca505d382bbc5f1b6095565b5f015f9054906101000a900473ffffffffffffffffffffffffffffffffffffffff16905090565b5f81905091905056fea264697066735822122079c996e75296f35cbfd31daa355bc56228fd5120e10f56d3c98c3f9a7d2632fe64736f6c634300081e0033a2646970667358221220dd16ebe6943834fff246154286b107ba4f3c8ef831811e3fcc084174ae2cfb7b64736f6c634300081e003360e06040523073ffffffffffffffffffffffffffffffffffffffff1660809073ffffffffffffffffffffffffffffffffffffffff16815250348015610042575f5ffd5b50604051612775380380612775833981810160405281019061006491906102bc565b818073ffffffffffffffffffffffffffffffffffffffff1660a08173ffffffffffffffffffffffffffffffffffffffff16815250506100a76100e360201b60201c565b508073ffffffffffffffffffffffffffffffffffffffff1660c08173ffffffffffffffffffffffffffffffffffffffff16815250505050610335565b5f6100f26101e160201b60201c565b9050805f0160089054906101000a900460ff161561013c576040517ff92ee8a900000000000000000000000000000000000000000000000000000000815260040160405180910390fd5b67ffffffffffffffff8016815f015f9054906101000a900467ffffffffffffffff1667ffffffffffffffff16146101de5767ffffffffffffffff815f015f6101000a81548167ffffffffffffffff021916908367ffffffffffffffff1602179055507fc7f505b2f371ae2175ee4913f4499e1f2633a7b5936321eed1cdaeb6115181d267ffffffffffffffff6040516101d5919061031c565b60405180910390a15b50565b5f5f6101f16101fa60201b60201c565b90508091505090565b5f7ff0c57e16840df040f15088dc2f81fe391c3923bec73e23a9662efc9c229c6a005f1b905090565b5f5ffd5b5f73ffffffffffffffffffffffffffffffffffffffff82169050919050565b5f61025082610227565b9050919050565b5f61026182610246565b9050919050565b61027181610257565b811461027b575f5ffd5b50565b5f8151905061028c81610268565b92915050565b61029b81610246565b81146102a5575f5ffd5b50565b5f815190506102b681610292565b92915050565b5f5f604083850312156102d2576102d1610223565b5b5f6102df8582860161027e565b92505060206102f0858286016102a8565b9150509250929050565b5f67ffffffffffffffff82169050919050565b610316816102fa565b82525050565b5f60208201905061032f5f83018461030d565b92915050565b60805160a05160c0516124016103745f395f81816105b00152610c8501525f61089e01525f8181610fb70152818161100c01526111c601526124015ff3fe60806040526004361061010c575f3560e01c80638da5cb5b11610094578063bc197c8111610063578063bc197c811461033b578063c399ec8814610377578063c4d66de8146103a1578063d087d288146103c9578063f23a6e61146103f357610113565b80638da5cb5b14610295578063ad3cb1cc146102bf578063b0d691fe146102e9578063b61d27f61461031357610113565b806334fcd5be116100db57806334fcd5be146101f55780634a58db191461021d5780634d44560d146102275780634f1ef2861461024f57806352d1902d1461026b57610113565b806301ffc9a714610117578063150b7a021461015357806319822f7c1461018f578063245a7bfc146101cb57610113565b3661011357005b5f5ffd5b348015610122575f5ffd5b5061013d60048036038101906101389190611705565b61042f565b60405161014a919061174a565b60405180910390f35b34801561015e575f5ffd5b5061017960048036038101906101749190611851565b610568565b60405161018691906118e4565b60405180910390f35b34801561019a575f5ffd5b506101b560048036038101906101b09190611953565b61057c565b6040516101c291906119ce565b60405180910390f35b3480156101d6575f5ffd5b506101df6105ae565b6040516101ec91906119f6565b60405180910390f35b348015610200575f5ffd5b5061021b60048036038101906102169190611a64565b6105d2565b005b610225610702565b005b348015610232575f5ffd5b5061024d60048036038101906102489190611aea565b610773565b005b61026960048036038101906102649190611c60565b6107ee565b005b348015610276575f5ffd5b5061027f61080d565b60405161028c9190611cc9565b60405180910390f35b3480156102a0575f5ffd5b506102a961083e565b6040516102b691906119f6565b60405180910390f35b3480156102ca575f5ffd5b506102d3610862565b6040516102e09190611d42565b60405180910390f35b3480156102f4575f5ffd5b506102fd61089b565b60405161030a9190611dbd565b60405180910390f35b34801561031e575f5ffd5b5061033960048036038101906103349190611dd6565b6108c2565b005b348015610346575f5ffd5b50610361600480360381019061035c9190611e9c565b610931565b60405161036e91906118e4565b60405180910390f35b348015610382575f5ffd5b5061038b610948565b60405161039891906119ce565b60405180910390f35b3480156103ac575f5ffd5b506103c760048036038101906103c29190611f73565b6109cd565b005b3480156103d4575f5ffd5b506103dd610b4e565b6040516103ea91906119ce565b60405180910390f35b3480156103fe575f5ffd5b5061041960048036038101906104149190611f9e565b610bd5565b60405161042691906118e4565b60405180910390f35b5f7f150b7a02000000000000000000000000000000000000000000000000000000007bffffffffffffffffffffffffffffffffffffffffffffffffffffffff1916827bffffffffffffffffffffffffffffffffffffffffffffffffffffffff191614806104f957507f4e2312e0000000000000000000000000000000000000000000000000000000007bffffffffffffffffffffffffffffffffffffffffffffffffffffffff1916827bffffffffffffffffffffffffffffffffffffffffffffffffffffffff1916145b8061056157507f01ffc9a7000000000000000000000000000000000000000000000000000000007bffffffffffffffffffffffffffffffffffffffffffffffffffffffff1916827bffffffffffffffffffffffffffffffffffffffffffffffffffffffff1916145b9050919050565b5f63150b7a0260e01b905095945050505050565b5f610585610bea565b61058f8484610c74565b905061059e8460200135610ce6565b6105a782610ce9565b9392505050565b7f000000000000000000000000000000000000000000000000000000000000000081565b6105da610d5d565b5f8282905090505f5f90505b818110156106fc573684848381811061060257610601612034565b5b9050602002810190610614919061206d565b90505f610689825f01602081019061062c9190611f73565b83602001358480604001906106419190612094565b8080601f0160208091040260200160405190810160405280939291908181526020018383808284375f81840152601f19601f820116905080830192505050505050505a610e61565b9050806106ed57600184036106a5576106a0610e78565b6106ec565b826106af5f610e8b565b6040517f5a1546750000000000000000000000000000000000000000000000000000000081526004016106e3929190612148565b60405180910390fd5b5b505080806001019150506105e6565b50505050565b61070a61089b565b73ffffffffffffffffffffffffffffffffffffffff1663b760faf934306040518363ffffffff1660e01b815260040161074391906119f6565b5f604051808303818588803b15801561075a575f5ffd5b505af115801561076c573d5f5f3e3d5ffd5b5050505050565b61077b610ec3565b61078361089b565b73ffffffffffffffffffffffffffffffffffffffff1663205c287883836040518363ffffffff1660e01b81526004016107bd929190612185565b5f604051808303815f87803b1580156107d4575f5ffd5b505af11580156107e6573d5f5f3e3d5ffd5b505050505050565b6107f6610fb5565b6107ff8261109b565b61080982826110a6565b5050565b5f6108166111c4565b7f360894a13ba1a3210667c828492db98dca3e2076cc3735a920a3ca505d382bbc5f1b905090565b5f5f9054906101000a900473ffffffffffffffffffffffffffffffffffffffff1681565b6040518060400160405280600581526020017f352e302e3000000000000000000000000000000000000000000000000000000081525081565b5f7f0000000000000000000000000000000000000000000000000000000000000000905090565b6108ca610d5d565b5f61091a858585858080601f0160208091040260200160405190810160405280939291908181526020018383808284375f81840152601f19601f820116905080830192505050505050505a610e61565b90508061092a57610929610e78565b5b5050505050565b5f63bc197c8160e01b905098975050505050505050565b5f61095161089b565b73ffffffffffffffffffffffffffffffffffffffff166370a08231306040518263ffffffff1660e01b815260040161098991906119f6565b602060405180830381865afa1580156109a4573d5f5f3e3d5ffd5b505050506040513d601f19601f820116820180604052508101906109c891906121c0565b905090565b5f6109d661124b565b90505f815f0160089054906101000a900460ff161590505f825f015f9054906101000a900467ffffffffffffffff1690505f5f8267ffffffffffffffff16148015610a1e5750825b90505f60018367ffffffffffffffff16148015610a5157505f3073ffffffffffffffffffffffffffffffffffffffff163b145b905081158015610a5f575080155b15610a96576040517ff92ee8a900000000000000000000000000000000000000000000000000000000815260040160405180910390fd5b6001855f015f6101000a81548167ffffffffffffffff021916908367ffffffffffffffff1602179055508315610ae3576001855f0160086101000a81548160ff0219169083151502179055505b610aec5f61125e565b8315610b46575f855f0160086101000a81548160ff0219169083151502179055507fc7f505b2f371ae2175ee4913f4499e1f2633a7b5936321eed1cdaeb6115181d26001604051610b3d9190612237565b60405180910390a15b505050505050565b5f610b5761089b565b73ffffffffffffffffffffffffffffffffffffffff166335567e1a305f6040518363ffffffff1660e01b8152600401610b919291906122ac565b602060405180830381865afa158015610bac573d5f5f3e3d5ffd5b505050506040513d601f19601f82011682018060405250810190610bd091906121c0565b905090565b5f63f23a6e6160e01b90509695505050505050565b610bf261089b565b73ffffffffffffffffffffffffffffffffffffffff163373ffffffffffffffffffffffffffffffffffffffff16143330610c2a61089b565b909192610c6f576040517ffe34a6d3000000000000000000000000000000000000000000000000000000008152600401610c66939291906122d3565b60405180910390fd5b505050565b5f610cde60405180606001604052807f000000000000000000000000000000000000000000000000000000000000000073ffffffffffffffffffffffffffffffffffffffff1681526020015f65ffffffffffff1681526020015f65ffffffffffff16815250611321565b905092915050565b50565b5f8114610d5a575f3373ffffffffffffffffffffffffffffffffffffffff1682604051610d1590612335565b5f6040518083038185875af1925050503d805f8114610d4f576040519150601f19603f3d011682016040523d82523d5f602084013e610d54565b606091505b50509050505b50565b610d6561089b565b73ffffffffffffffffffffffffffffffffffffffff163373ffffffffffffffffffffffffffffffffffffffff161480610de957505f5f9054906101000a900473ffffffffffffffffffffffffffffffffffffffff1673ffffffffffffffffffffffffffffffffffffffff163373ffffffffffffffffffffffffffffffffffffffff16145b3330610df361089b565b5f5f9054906101000a900473ffffffffffffffffffffffffffffffffffffffff1690919293610e5b576040517f62018a31000000000000000000000000000000000000000000000000000000008152600401610e529493929190612349565b60405180910390fd5b50505050565b5f5f5f845160208601878987f19050949350505050565b610e89610e845f610e8b565b611367565b565b60603d5f831115610ea35782811115610ea2578290505b5b604051602082018101604052818152815f602083013e8092505050919050565b5f5f9054906101000a900473ffffffffffffffffffffffffffffffffffffffff1673ffffffffffffffffffffffffffffffffffffffff163373ffffffffffffffffffffffffffffffffffffffff161480610f4857503073ffffffffffffffffffffffffffffffffffffffff163373ffffffffffffffffffffffffffffffffffffffff16145b33305f5f9054906101000a900473ffffffffffffffffffffffffffffffffffffffff16909192610fb0576040517fcbce04d8000000000000000000000000000000000000000000000000000000008152600401610fa7939291906122d3565b60405180910390fd5b505050565b7f000000000000000000000000000000000000000000000000000000000000000073ffffffffffffffffffffffffffffffffffffffff163073ffffffffffffffffffffffffffffffffffffffff16148061106257507f000000000000000000000000000000000000000000000000000000000000000073ffffffffffffffffffffffffffffffffffffffff1661104961136f565b73ffffffffffffffffffffffffffffffffffffffff1614155b15611099576040517fe07c8dba00000000000000000000000000000000000000000000000000000000815260040160405180910390fd5b565b6110a3610ec3565b50565b8173ffffffffffffffffffffffffffffffffffffffff166352d1902d6040518163ffffffff1660e01b8152600401602060405180830381865afa92505050801561110e57506040513d601f19601f8201168201806040525081019061110b91906123a0565b60015b61114f57816040517f4c9c8ce300000000000000000000000000000000000000000000000000000000815260040161114691906119f6565b60405180910390fd5b7f360894a13ba1a3210667c828492db98dca3e2076cc3735a920a3ca505d382bbc5f1b81146111b557806040517faa1d49a40000000000000000000000000000000000000000000000000000000081526004016111ac9190611cc9565b60405180910390fd5b6111bf83836113c2565b505050565b7f000000000000000000000000000000000000000000000000000000000000000073ffffffffffffffffffffffffffffffffffffffff163073ffffffffffffffffffffffffffffffffffffffff1614611249576040517fe07c8dba00000000000000000000000000000000000000000000000000000000815260040160405180910390fd5b565b5f5f611255611434565b90508091505090565b805f5f6101000a81548173ffffffffffffffffffffffffffffffffffffffff021916908373ffffffffffffffffffffffffffffffffffffffff1602179055505f5f9054906101000a900473ffffffffffffffffffffffffffffffffffffffff1673ffffffffffffffffffffffffffffffffffffffff166112dc61089b565b73ffffffffffffffffffffffffffffffffffffffff167f47e55c76e7a6f1fd8996a1da8008c1ea29699cca35e7bcd057f2dec313b6e5de60405160405180910390a350565b5f60d0826020015165ffffffffffff16901b60a0836040015165ffffffffffff16901b835f015173ffffffffffffffffffffffffffffffffffffffff1617179050919050565b805160208201fd5b5f61139b7f360894a13ba1a3210667c828492db98dca3e2076cc3735a920a3ca505d382bbc5f1b61145d565b5f015f9054906101000a900473ffffffffffffffffffffffffffffffffffffffff16905090565b6113cb82611466565b8173ffffffffffffffffffffffffffffffffffffffff167fbc7cd75a20ee27fd9adebab32041f755214dbc6bffa90cc0225b39da2e5c2d3b60405160405180910390a25f8151111561142757611421828261152f565b50611430565b61142f611620565b5b5050565b5f7ff0c57e16840df040f15088dc2f81fe391c3923bec73e23a9662efc9c229c6a005f1b905090565b5f819050919050565b5f8173ffffffffffffffffffffffffffffffffffffffff163b036114c157806040517f4c9c8ce30000000000000000000000000000000000000000000000000000000081526004016114b891906119f6565b60405180910390fd5b806114ed7f360894a13ba1a3210667c828492db98dca3e2076cc3735a920a3ca505d382bbc5f1b61145d565b5f015f6101000a81548173ffffffffffffffffffffffffffffffffffffffff021916908373ffffffffffffffffffffffffffffffffffffffff16021790555050565b60605f61153c848461165c565b905080801561157257505f61154f611670565b118061157157505f8473ffffffffffffffffffffffffffffffffffffffff163b115b5b156115875761157f611677565b91505061161a565b80156115ca57836040517f9996b3150000000000000000000000000000000000000000000000000000000081526004016115c191906119f6565b60405180910390fd5b5f6115d3611670565b11156115e6576115e1611694565b611618565b6040517fd6bda27500000000000000000000000000000000000000000000000000000000815260040160405180910390fd5b505b92915050565b5f34111561165a576040517fb398979f00000000000000000000000000000000000000000000000000000000815260040160405180910390fd5b565b5f5f5f835160208501865af4905092915050565b5f3d905090565b606060405190503d81523d5f602083013e3d602001810160405290565b6040513d5f823e3d81fd5b5f604051905090565b5f5ffd5b5f5ffd5b5f7fffffffff0000000000000000000000000000000000000000000000000000000082169050919050565b6116e4816116b0565b81146116ee575f5ffd5b50565b5f813590506116ff816116db565b92915050565b5f6020828403121561171a576117196116a8565b5b5f611727848285016116f1565b91505092915050565b5f8115159050919050565b61174481611730565b82525050565b5f60208201905061175d5f83018461173b565b92915050565b5f73ffffffffffffffffffffffffffffffffffffffff82169050919050565b5f61178c82611763565b9050919050565b61179c81611782565b81146117a6575f5ffd5b50565b5f813590506117b781611793565b92915050565b5f819050919050565b6117cf816117bd565b81146117d9575f5ffd5b50565b5f813590506117ea816117c6565b92915050565b5f5ffd5b5f5ffd5b5f5ffd5b5f5f83601f840112611811576118106117f0565b5b8235905067ffffffffffffffff81111561182e5761182d6117f4565b5b60208301915083600182028301111561184a576118496117f8565b5b9250929050565b5f5f5f5f5f6080868803121561186a576118696116a8565b5b5f611877888289016117a9565b9550506020611888888289016117a9565b9450506040611899888289016117dc565b935050606086013567ffffffffffffffff8111156118ba576118b96116ac565b5b6118c6888289016117fc565b92509250509295509295909350565b6118de816116b0565b82525050565b5f6020820190506118f75f8301846118d5565b92915050565b5f5ffd5b5f6101208284031215611917576119166118fd565b5b81905092915050565b5f819050919050565b61193281611920565b811461193c575f5ffd5b50565b5f8135905061194d81611929565b92915050565b5f5f5f6060848603121561196a576119696116a8565b5b5f84013567ffffffffffffffff811115611987576119866116ac565b5b61199386828701611901565b93505060206119a48682870161193f565b92505060406119b5868287016117dc565b9150509250925092565b6119c8816117bd565b82525050565b5f6020820190506119e15f8301846119bf565b92915050565b6119f081611782565b82525050565b5f602082019050611a095f8301846119e7565b92915050565b5f5f83601f840112611a2457611a236117f0565b5b8235905067ffffffffffffffff811115611a4157611a406117f4565b5b602083019150836020820283011115611a5d57611a5c6117f8565b5b9250929050565b5f5f60208385031215611a7a57611a796116a8565b5b5f83013567ffffffffffffffff811115611a9757611a966116ac565b5b611aa385828601611a0f565b92509250509250929050565b5f611ab982611763565b9050919050565b611ac981611aaf565b8114611ad3575f5ffd5b50565b5f81359050611ae481611ac0565b92915050565b5f5f60408385031215611b0057611aff6116a8565b5b5f611b0d85828601611ad6565b9250506020611b1e858286016117dc565b9150509250929050565b5f5ffd5b5f601f19601f8301169050919050565b7f4e487b71000000000000000000000000000000000000000000000000000000005f52604160045260245ffd5b611b7282611b2c565b810181811067ffffffffffffffff82111715611b9157611b90611b3c565b5b80604052505050565b5f611ba361169f565b9050611baf8282611b69565b919050565b5f67ffffffffffffffff821115611bce57611bcd611b3c565b5b611bd782611b2c565b9050602081019050919050565b828183375f83830152505050565b5f611c04611bff84611bb4565b611b9a565b905082815260208101848484011115611c2057611c1f611b28565b5b611c2b848285611be4565b509392505050565b5f82601f830112611c4757611c466117f0565b5b8135611c57848260208601611bf2565b91505092915050565b5f5f60408385031215611c7657611c756116a8565b5b5f611c83858286016117a9565b925050602083013567ffffffffffffffff811115611ca457611ca36116ac565b5b611cb085828601611c33565b9150509250929050565b611cc381611920565b82525050565b5f602082019050611cdc5f830184611cba565b92915050565b5f81519050919050565b5f82825260208201905092915050565b8281835e5f83830152505050565b5f611d1482611ce2565b611d1e8185611cec565b9350611d2e818560208601611cfc565b611d3781611b2c565b840191505092915050565b5f6020820190508181035f830152611d5a8184611d0a565b905092915050565b5f819050919050565b5f611d85611d80611d7b84611763565b611d62565b611763565b9050919050565b5f611d9682611d6b565b9050919050565b5f611da782611d8c565b9050919050565b611db781611d9d565b82525050565b5f602082019050611dd05f830184611dae565b92915050565b5f5f5f5f60608587031215611dee57611ded6116a8565b5b5f611dfb878288016117a9565b9450506020611e0c878288016117dc565b935050604085013567ffffffffffffffff811115611e2d57611e2c6116ac565b5b611e39878288016117fc565b925092505092959194509250565b5f5f83601f840112611e5c57611e5b6117f0565b5b8235905067ffffffffffffffff811115611e7957611e786117f4565b5b602083019150836020820283011115611e9557611e946117f8565b5b9250929050565b5f5f5f5f5f5f5f5f60a0898b031215611eb857611eb76116a8565b5b5f611ec58b828c016117a9565b9850506020611ed68b828c016117a9565b975050604089013567ffffffffffffffff811115611ef757611ef66116ac565b5b611f038b828c01611e47565b9650965050606089013567ffffffffffffffff811115611f2657611f256116ac565b5b611f328b828c01611e47565b9450945050608089013567ffffffffffffffff811115611f5557611f546116ac565b5b611f618b828c016117fc565b92509250509295985092959890939650565b5f60208284031215611f8857611f876116a8565b5b5f611f95848285016117a9565b91505092915050565b5f5f5f5f5f5f60a08789031215611fb857611fb76116a8565b5b5f611fc589828a016117a9565b9650506020611fd689828a016117a9565b9550506040611fe789828a016117dc565b9450506060611ff889828a016117dc565b935050608087013567ffffffffffffffff811115612019576120186116ac565b5b61202589828a016117fc565b92509250509295509295509295565b7f4e487b71000000000000000000000000000000000000000000000000000000005f52603260045260245ffd5b5f5ffd5b5f5ffd5b5f5ffd5b5f8235600160600383360303811261208857612087612061565b5b80830191505092915050565b5f5f833560016020038436030381126120b0576120af612061565b5b80840192508235915067ffffffffffffffff8211156120d2576120d1612065565b5b6020830192506001820236038313156120ee576120ed612069565b5b509250929050565b5f81519050919050565b5f82825260208201905092915050565b5f61211a826120f6565b6121248185612100565b9350612134818560208601611cfc565b61213d81611b2c565b840191505092915050565b5f60408201905061215b5f8301856119bf565b818103602083015261216d8184612110565b90509392505050565b61217f81611aaf565b82525050565b5f6040820190506121985f830185612176565b6121a560208301846119bf565b9392505050565b5f815190506121ba816117c6565b92915050565b5f602082840312156121d5576121d46116a8565b5b5f6121e2848285016121ac565b91505092915050565b5f819050919050565b5f67ffffffffffffffff82169050919050565b5f61222161221c612217846121eb565b611d62565b6121f4565b9050919050565b61223181612207565b82525050565b5f60208201905061224a5f830184612228565b92915050565b5f819050919050565b5f77ffffffffffffffffffffffffffffffffffffffffffffffff82169050919050565b5f61229661229161228c84612250565b611d62565b612259565b9050919050565b6122a68161227c565b82525050565b5f6040820190506122bf5f8301856119e7565b6122cc602083018461229d565b9392505050565b5f6060820190506122e65f8301866119e7565b6122f360208301856119e7565b61230060408301846119e7565b949350505050565b5f81905092915050565b50565b5f6123205f83612308565b915061232b82612312565b5f82019050919050565b5f61233f82612315565b9150819050919050565b5f60808201905061235c5f8301876119e7565b61236960208301866119e7565b61237660408301856119e7565b61238360608301846119e7565b95945050505050565b5f8151905061239a81611929565b92915050565b5f602082840312156123b5576123b46116a8565b5b5f6123c28482850161238c565b9150509291505056fea26469706673582212201e3f630251092dabc4ad27ea73b4055b88f1a2dce5522cdf12c4fbc4cd5ba03d64736f6c634300081e0033","linkReferences":{}},"methodIdentifiers":{"accountImplementation()":"11464fbe","createAccount(address,uint256)":"5fbfb9cf","getAddress(address,uint256)":"8cb84e18"},"id":35}