{"abi":[{"type":"constructor","inputs":[{"name":"_ep","type":"address","internalType":"contract IEntryPoint"}],"stateMutability":"payable"},{"type":"function","name":"revertLong","inputs":[{"name":"length","type":"uint256","internalType":"uint256"}],"outputs":[],"stateMutability":"pure"},{"type":"function","name":"validateUserOp","inputs":[{"name":"","type":"tuple","internalType":"struct PackedUserOperation","components":[{"name":"sender","type":"address","internalType":"address"},{"name":"nonce","type":"uint256","internalType":"uint256"},{"name":"initCode","type":"bytes","internalType":"bytes"},{"name":"callData","type":"bytes","internalType":"bytes"},{"name":"accountGasLimits","type":"bytes32","internalType":"bytes32"},{"name":"preVerificationGas","type":"uint256","internalType":"uint256"},{"name":"gasFees","type":"bytes32","internalType":"bytes32"},{"name":"paymasterAndData","type":"bytes","internalType":"bytes"},{"name":"signature","type":"bytes","internalType":"bytes"}]},{"name":"","type":"bytes32","internalType":"bytes32"},{"name":"missingAccountFunds","type":"uint256","internalType":"uint256"}],"outputs":[{"name":"validationData","type":"uint256","internalType":"uint256"}],"stateMutability":"nonpayable"}],"bytecode":{"object":"0x608060405260405161040a38038061040a833981810160405281019061002591906100d9565b805f5f6101000a81548173ffffffffffffffffffffffffffffffffffffffff021916908373ffffffffffffffffffffffffffffffffffffffff16021790555050610104565b5f5ffd5b5f73ffffffffffffffffffffffffffffffffffffffff82169050919050565b5f6100978261006e565b9050919050565b5f6100a88261008d565b9050919050565b6100b88161009e565b81146100c2575f5ffd5b50565b5f815190506100d3816100af565b92915050565b5f602082840312156100ee576100ed61006a565b5b5f6100fb848285016100c5565b91505092915050565b6102f9806101115f395ff3fe608060405234801561000f575f5ffd5b5060043610610034575f3560e01c806319822f7c14610038578063be76c6ef14610068575b5f5ffd5b610052600480360381019061004d91906101ac565b610084565b60405161005f9190610227565b60405180910390f35b610082600480360381019061007d9190610240565b610117565b005b5f5f5f9054906101000a900473ffffffffffffffffffffffffffffffffffffffff1673ffffffffffffffffffffffffffffffffffffffff1663b760faf983306040518363ffffffff1660e01b81526004016100df91906102aa565b5f604051808303818588803b1580156100f6575f5ffd5b505af1158015610108573d5f5f3e3d5ffd5b50505050505f90509392505050565b805ffd5b5f5ffd5b5f5ffd5b5f5ffd5b5f610120828403121561013d5761013c610123565b5b81905092915050565b5f819050919050565b61015881610146565b8114610162575f5ffd5b50565b5f813590506101738161014f565b92915050565b5f819050919050565b61018b81610179565b8114610195575f5ffd5b50565b5f813590506101a681610182565b92915050565b5f5f5f606084860312156101c3576101c261011b565b5b5f84013567ffffffffffffffff8111156101e0576101df61011f565b5b6101ec86828701610127565b93505060206101fd86828701610165565b925050604061020e86828701610198565b9150509250925092565b61022181610179565b82525050565b5f60208201905061023a5f830184610218565b92915050565b5f602082840312156102555761025461011b565b5b5f61026284828501610198565b91505092915050565b5f73ffffffffffffffffffffffffffffffffffffffff82169050919050565b5f6102948261026b565b9050919050565b6102a48161028a565b82525050565b5f6020820190506102bd5f83018461029b565b9291505056fea2646970667358221220838c9356924ad06c929fb733cc2f0426aa15eb0464b25abb119d8c90c63919e564736f6c634300081e0033","linkReferences":{}},"methodIdentifiers":{"revertLong(uint256)":"be76c6ef","validateUserOp((address,uint256,bytes,bytes,bytes32,uint256,bytes32,bytes,bytes),bytes32,uint256)":"19822f7c"},"id":49}