{"abi":[{"type":"constructor","inputs":[{"name":"anEntryPoint","type":"address","internalType":"contract IEntryPoint"}],"stateMutability":"nonpayable"},{"type":"receive","stateMutability":"payable"},{"type":"function","name":"UPGRADE_INTERFACE_VERSION","inputs":[],"outputs":[{"name":"","type":"string","internalType":"string"}],"stateMutability":"view"},{"type":"function","name":"addDeposit","inputs":[],"outputs":[],"stateMutability":"payable"},{"type":"function","name":"addTemporaryOwner","inputs":[{"name":"owner","type":"address","internalType":"address"},{"name":"_after","type":"uint48","internalType":"uint48"},{"name":"_until","type":"uint48","internalType":"uint48"}],"outputs":[],"stateMutability":"nonpayable"},{"type":"function","name":"entryPoint","inputs":[],"outputs":[{"name":"","type":"address","internalType":"contract IEntryPoint"}],"stateMutability":"view"},{"type":"function","name":"execute","inputs":[{"name":"target","type":"address","internalType":"address"},{"name":"value","type":"uint256","internalType":"uint256"},{"name":"data","type":"bytes","internalType":"bytes"}],"outputs":[],"stateMutability":"nonpayable"},{"type":"function","name":"executeBatch","inputs":[{"name":"calls","type":"tuple[]","internalType":"struct BaseAccount.Call[]","components":[{"name":"target","type":"address","internalType":"address"},{"name":"value","type":"uint256","internalType":"uint256"},{"name":"data","type":"bytes","internalType":"bytes"}]}],"outputs":[],"stateMutability":"nonpayable"},{"type":"function","name":"getDeposit","inputs":[],"outputs":[{"name":"","type":"uint256","internalType":"uint256"}],"stateMutability":"view"},{"type":"function","name":"getNonce","inputs":[],"outputs":[{"name":"","type":"uint256","internalType":"uint256"}],"stateMutability":"view"},{"type":"function","name":"initialize","inputs":[{"name":"anOwner","type":"address","internalType":"address"}],"outputs":[],"stateMutability":"nonpayable"},{"type":"function","name":"onERC1155BatchReceived","inputs":[{"name":"","type":"address","internalType":"address"},{"name":"","type":"address","internalType":"address"},{"name":"","type":"uint256[]","internalType":"uint256[]"},{"name":"","type":"uint256[]","internalType":"uint256[]"},{"name":"","type":"bytes","internalType":"bytes"}],"outputs":[{"name":"","type":"bytes4","internalType":"bytes4"}],"stateMutability":"pure"},{"type":"function","name":"onERC1155Received","inputs":[{"name":"","type":"address","internalType":"address"},{"name":"","type":"address","internalType":"address"},{"name":"","type":"uint256","internalType":"uint256"},{"name":"","type":"uint256","internalType":"uint256"},{"name":"","type":"bytes","internalType":"bytes"}],"outputs":[{"name":"","type":"bytes4","internalType":"bytes4"}],"stateMutability":"pure"},{"type":"function","name":"onERC721Received","inputs":[{"name":"","type":"address","internalType":"address"},{"name":"","type":"address","internalType":"address"},{"name":"","type":"uint256","internalType":"uint256"},{"name":"","type":"bytes","internalType":"bytes"}],"outputs":[{"name":"","type":"bytes4","internalType":"bytes4"}],"stateMutability":"pure"},{"type":"function","name":"owner","inputs":[],"outputs":[{"name":"","type":"address","internalType":"address"}],"stateMutability":"view"},{"type":"function","name":"ownerAfter","inputs":[{"name":"","type":"address","internalType":"address"}],"outputs":[{"name":"","type":"uint48","internalType":"uint48"}],"stateMutability":"view"},{"type":"function","name":"ownerUntil","inputs":[{"name":"","type":"address","internalType":"address"}],"outputs":[{"name":"","type":"uint48","internalType":"uint48"}],"stateMutability":"view"},{"type":"function","name":"proxiableUUID","inputs":[],"outputs":[{"name":"","type":"bytes32","internalType":"bytes32"}],"stateMutability":"view"},{"type":"function","name":"supportsInterface","inputs":[{"name":"interfaceId","type":"bytes4","internalType":"bytes4"}],"outputs":[{"name":"","type":"bool","internalType":"bool"}],"stateMutability":"view"},{"type":"function","name":"upgradeToAndCall","inputs":[{"name":"newImplementation","type":"address","internalType":"address"},{"name":"data","type":"bytes","internalType":"bytes"}],"outputs":[],"stateMutability":"payable"},{"type":"function","name":"validateUserOp","inputs":[{"name":"userOp","type":"tuple","internalType":"struct PackedUserOperation","components":[{"name":"sender","type":"address","internalType":"address"},{"name":"nonce","type":"uint256","internalType":"uint256"},{"name":"initCode","type":"bytes","internalType":"bytes"},{"name":"callData","type":"bytes","internalType":"bytes"},{"name":"accountGasLimits","type":"bytes32","internalType":"bytes32"},{"name":"preVerificationGas","type":"uint256","internalType":"uint256"},{"name":"gasFees","type":"bytes32","internalType":"bytes32"},{"name":"paymasterAndData","type":"bytes","internalType":"bytes"},{"name":"signature","type":"bytes","internalType":"bytes"}]},{"name":"userOpHash","type":"bytes32","internalType":"bytes32"},{"name":"missingAccountFunds","type":"uint256","internalType":"uint256"}],"outputs":[{"name":"validationData","type":"uint256","internalType":"uint256"}],"stateMutability":"nonpayable"},{"type":"function","name":"withdrawDepositTo","inputs":[{"name":"withdrawAddress","type":"address","internalType":"address payable"},{"name":"amount","type":"uint256","internalType":"uint256"}],"outputs":[],"stateMutability":"nonpayable"},{"type":"event","name":"Initialized","inputs":[{"name":"version","type":"uint64","indexed":false,"internalType":"uint64"}],"anonymous":false},{"type":"event","name":"SimpleAccountInitialized","inputs":[{"name":"entryPoint","type":"address","indexed":true,"internalType":"contract IEntryPoint"},{"name":"owner","type":"address","indexed":true,"internalType":"address"}],"anonymous":false},{"type":"event","name":"Upgraded","inputs":[{"name":"implementation","type":"address","indexed":true,"internalType":"address"}],"anonymous":false},{"type":"error","name":"AddressEmptyCode","inputs":[{"name":"target","type":"address","internalType":"address"}]},{"type":"error","name":"ECDSAInvalidSignature","inputs":[]},{"type":"error","name":"ECDSAInvalidSignatureLength","inputs":[{"name":"length","type":"uint256","internalType":"uint256"}]},{"type":"error","name":"ECDSAInvalidSignatureS","inputs":[{"name":"s","type":"bytes32","internalType":"bytes32"}]},{"type":"error","name":"ERC1967InvalidImplementation","inputs":[{"name":"implementation","type":"address","internalType":"address"}]},{"type":"error","name":"ERC1967NonPayable","inputs":[]},{"type":"error","name":"ExecuteError","inputs":[{"name":"index","type":"uint256","internalType":"uint256"},{"name":"error","type":"bytes","internalType":"bytes"}]},{"type":"error","name":"FailedCall","inputs":[]},{"type":"error","name":"InvalidInitialization","inputs":[]},{"type":"error","name":"NotFromEntryPoint","inputs":[{"name":"msgSender","type":"address","internalType":"address"},{"name":"entity","type":"address","internalType":"address"},{"name":"entryPoint","type":"address","internalType":"address"}]},{"type":"error","name":"NotInitializing","inputs":[]},{"type":"error","name":"NotOwner","inputs":[{"name":"msgSender","type":"address","internalType":"address"},{"name":"entity","type":"address","internalType":"address"},{"name":"owner","type":"address","internalType":"address"}]},{"type":"error","name":"NotOwnerOrEntryPoint","inputs":[{"name":"msgSender","type":"address","internalType":"address"},{"name":"entity","type":"address","internalType":"address"},{"name":"entryPoint","type":"address","internalType":"address"},{"name":"owner","type":"address","internalType":"address"}]},{"type":"error","name":"UUPSUnauthorizedCallContext","inputs":[]},{"type":"error","name":"UUPSUnsupportedProxiableUUID","inputs":[{"name":"slot","type":"bytes32","internalType":"bytes32"}]}],"bytecode":{"object":"0x60c06040523073ffffffffffffffffffffffffffffffffffffffff1660809073ffffffffffffffffffffffffffffffffffffffff16815250348015610042575f5ffd5b50604051612c67380380612c678339818101604052810190610064919061011f565b808073ffffffffffffffffffffffffffffffffffffffff1660a08173ffffffffffffffffffffffffffffffffffffffff16815250506100a76100ae60201b60201c565b505061014a565b565b5f5ffd5b5f73ffffffffffffffffffffffffffffffffffffffff82169050919050565b5f6100dd826100b4565b9050919050565b5f6100ee826100d3565b9050919050565b6100fe816100e4565b8114610108575f5ffd5b50565b5f81519050610119816100f5565b92915050565b5f60208284031215610134576101336100b0565b5b5f6101418482850161010b565b91505092915050565b60805160a051612aee6101795f395f61094a01525f81816112480152818161129d01526114570152612aee5ff3fe608060405260043610610122575f3560e01c80638da5cb5b1161009f578063c399ec8811610063578063c399ec88146103db578063c4d66de814610405578063cf6dca551461042d578063d087d28814610455578063f23a6e611461047f57610129565b80638da5cb5b146102f9578063ad3cb1cc14610323578063b0d691fe1461034d578063b61d27f614610377578063bc197c811461039f57610129565b80633fb5a7a1116100e65780633fb5a7a1146102455780634a58db19146102815780634d44560d1461028b5780634f1ef286146102b357806352d1902d146102cf57610129565b806301ffc9a71461012d578063150b7a021461016957806319822f7c146101a557806334fcd5be146101e15780633e4769511461020957610129565b3661012957005b5f5ffd5b348015610138575f5ffd5b50610153600480360381019061014e9190611c4c565b6104bb565b6040516101609190611c91565b60405180910390f35b348015610174575f5ffd5b5061018f600480360381019061018a9190611d98565b6105f4565b60405161019c9190611e2b565b60405180910390f35b3480156101b0575f5ffd5b506101cb60048036038101906101c69190611e9a565b610608565b6040516101d89190611f15565b60405180910390f35b3480156101ec575f5ffd5b5061020760048036038101906102029190611f83565b61063a565b005b348015610214575f5ffd5b5061022f600480360381019061022a9190611fce565b61076a565b60405161023c9190612019565b60405180910390f35b348015610250575f5ffd5b5061026b60048036038101906102669190611fce565b61078c565b6040516102789190612019565b60405180910390f35b6102896107ae565b005b348015610296575f5ffd5b506102b160048036038101906102ac919061206d565b61081f565b005b6102cd60048036038101906102c891906121e3565b61089a565b005b3480156102da575f5ffd5b506102e36108b9565b6040516102f0919061224c565b60405180910390f35b348015610304575f5ffd5b5061030d6108ea565b60405161031a9190612274565b60405180910390f35b34801561032e575f5ffd5b5061033761090e565b60405161034491906122ed565b60405180910390f35b348015610358575f5ffd5b50610361610947565b60405161036e9190612368565b60405180910390f35b348015610382575f5ffd5b5061039d60048036038101906103989190612381565b61096e565b005b3480156103aa575f5ffd5b506103c560048036038101906103c09190612447565b6109dd565b6040516103d29190611e2b565b60405180910390f35b3480156103e6575f5ffd5b506103ef6109f4565b6040516103fc9190611f15565b60405180910390f35b348015610410575f5ffd5b5061042b60048036038101906104269190611fce565b610a79565b005b348015610438575f5ffd5b50610453600480360381019061044e9190612548565b610c0b565b005b348015610460575f5ffd5b50610469610d28565b6040516104769190611f15565b60405180910390f35b34801561048a575f5ffd5b506104a560048036038101906104a09190612598565b610daf565b6040516104b29190611e2b565b60405180910390f35b5f7f150b7a02000000000000000000000000000000000000000000000000000000007bffffffffffffffffffffffffffffffffffffffffffffffffffffffff1916827bffffffffffffffffffffffffffffffffffffffffffffffffffffffff1916148061058557507f4e2312e0000000000000000000000000000000000000000000000000000000007bffffffffffffffffffffffffffffffffffffffffffffffffffffffff1916827bffffffffffffffffffffffffffffffffffffffffffffffffffffffff1916145b806105ed57507f01ffc9a7000000000000000000000000000000000000000000000000000000007bffffffffffffffffffffffffffffffffffffffffffffffffffffffff1916827bffffffffffffffffffffffffffffffffffffffffffffffffffffffff1916145b9050919050565b5f63150b7a0260e01b905095945050505050565b5f610611610dc4565b61061b8484610e4e565b905061062a8460200135610f77565b61063382610f7a565b9392505050565b610642610fee565b5f8282905090505f5f90505b81811015610764573684848381811061066a5761066961262e565b5b905060200281019061067c9190612667565b90505f6106f1825f0160208101906106949190611fce565b83602001358480604001906106a9919061268e565b8080601f0160208091040260200160405190810160405280939291908181526020018383808284375f81840152601f19601f820116905080830192505050505050505a6110f2565b905080610755576001840361070d57610708611109565b610754565b826107175f61111c565b6040517f5a15467500000000000000000000000000000000000000000000000000000000815260040161074b929190612742565b60405180910390fd5b5b5050808060010191505061064e565b50505050565b6002602052805f5260405f205f915054906101000a900465ffffffffffff1681565b6001602052805f5260405f205f915054906101000a900465ffffffffffff1681565b6107b6610947565b73ffffffffffffffffffffffffffffffffffffffff1663b760faf934306040518363ffffffff1660e01b81526004016107ef9190612274565b5f604051808303818588803b158015610806575f5ffd5b505af1158015610818573d5f5f3e3d5ffd5b5050505050565b610827611154565b61082f610947565b73ffffffffffffffffffffffffffffffffffffffff1663205c287883836040518363ffffffff1660e01b815260040161086992919061277f565b5f604051808303815f87803b158015610880575f5ffd5b505af1158015610892573d5f5f3e3d5ffd5b505050505050565b6108a2611246565b6108ab8261132c565b6108b58282611337565b5050565b5f6108c2611455565b7f360894a13ba1a3210667c828492db98dca3e2076cc3735a920a3ca505d382bbc5f1b905090565b5f5f9054906101000a900473ffffffffffffffffffffffffffffffffffffffff1681565b6040518060400160405280600581526020017f352e302e3000000000000000000000000000000000000000000000000000000081525081565b5f7f0000000000000000000000000000000000000000000000000000000000000000905090565b610976610fee565b5f6109c6858585858080601f0160208091040260200160405190810160405280939291908181526020018383808284375f81840152601f19601f820116905080830192505050505050505a6110f2565b9050806109d6576109d5611109565b5b5050505050565b5f63bc197c8160e01b905098975050505050505050565b5f6109fd610947565b73ffffffffffffffffffffffffffffffffffffffff166370a08231306040518263ffffffff1660e01b8152600401610a359190612274565b602060405180830381865afa158015610a50573d5f5f3e3d5ffd5b505050506040513d601f19601f82011682018060405250810190610a7491906127ba565b905090565b5f610a826114dc565b90505f815f0160089054906101000a900460ff161590505f825f015f9054906101000a900467ffffffffffffffff1690505f5f8267ffffffffffffffff16148015610aca5750825b90505f60018367ffffffffffffffff16148015610afd57505f3073ffffffffffffffffffffffffffffffffffffffff163b145b905081158015610b0b575080155b15610b42576040517ff92ee8a900000000000000000000000000000000000000000000000000000000815260040160405180910390fd5b6001855f015f6101000a81548167ffffffffffffffff021916908367ffffffffffffffff1602179055508315610b8f576001855f0160086101000a81548160ff0219169083151502179055505b610b98866114ef565b610ba9865f65ffffffffffff610c0b565b8315610c03575f855f0160086101000a81548160ff0219169083151502179055507fc7f505b2f371ae2175ee4913f4499e1f2633a7b5936321eed1cdaeb6115181d26001604051610bfa9190612831565b60405180910390a15b505050505050565b610c13611154565b8165ffffffffffff168165ffffffffffff1611610c65576040517f08c379a0000000000000000000000000000000000000000000000000000000008152600401610c5c90612894565b60405180910390fd5b8160015f8573ffffffffffffffffffffffffffffffffffffffff1673ffffffffffffffffffffffffffffffffffffffff1681526020019081526020015f205f6101000a81548165ffffffffffff021916908365ffffffffffff1602179055508060025f8573ffffffffffffffffffffffffffffffffffffffff1673ffffffffffffffffffffffffffffffffffffffff1681526020019081526020015f205f6101000a81548165ffffffffffff021916908365ffffffffffff160217905550505050565b5f610d31610947565b73ffffffffffffffffffffffffffffffffffffffff166335567e1a305f6040518363ffffffff1660e01b8152600401610d6b92919061290e565b602060405180830381865afa158015610d86573d5f5f3e3d5ffd5b505050506040513d601f19601f82011682018060405250810190610daa91906127ba565b905090565b5f63f23a6e6160e01b90509695505050505050565b610dcc610947565b73ffffffffffffffffffffffffffffffffffffffff163373ffffffffffffffffffffffffffffffffffffffff16143330610e04610947565b909192610e49576040517ffe34a6d3000000000000000000000000000000000000000000000000000000008152600401610e4093929190612935565b60405180910390fd5b505050565b5f5f610eac8385806101000190610e65919061268e565b8080601f0160208091040260200160405190810160405280939291908181526020018383808284375f81840152601f19601f820116905080830192505050505050506115b2565b90505f60025f8373ffffffffffffffffffffffffffffffffffffffff1673ffffffffffffffffffffffffffffffffffffffff1681526020019081526020015f205f9054906101000a900465ffffffffffff1690505f60015f8473ffffffffffffffffffffffffffffffffffffffff1673ffffffffffffffffffffffffffffffffffffffff1681526020019081526020015f205f9054906101000a900465ffffffffffff1690505f5f8365ffffffffffff16149050610f6b8184846115dc565b94505050505092915050565b50565b5f8114610feb575f3373ffffffffffffffffffffffffffffffffffffffff1682604051610fa690612997565b5f6040518083038185875af1925050503d805f8114610fe0576040519150601f19603f3d011682016040523d82523d5f602084013e610fe5565b606091505b50509050505b50565b610ff6610947565b73ffffffffffffffffffffffffffffffffffffffff163373ffffffffffffffffffffffffffffffffffffffff16148061107a57505f5f9054906101000a900473ffffffffffffffffffffffffffffffffffffffff1673ffffffffffffffffffffffffffffffffffffffff163373ffffffffffffffffffffffffffffffffffffffff16145b3330611084610947565b5f5f9054906101000a900473ffffffffffffffffffffffffffffffffffffffff16909192936110ec576040517f62018a310000000000000000000000000000000000000000000000000000000081526004016110e394939291906129ab565b60405180910390fd5b50505050565b5f5f5f845160208601878987f19050949350505050565b61111a6111155f61111c565b611610565b565b60603d5f8311156111345782811115611133578290505b5b604051602082018101604052818152815f602083013e8092505050919050565b5f5f9054906101000a900473ffffffffffffffffffffffffffffffffffffffff1673ffffffffffffffffffffffffffffffffffffffff163373ffffffffffffffffffffffffffffffffffffffff1614806111d957503073ffffffffffffffffffffffffffffffffffffffff163373ffffffffffffffffffffffffffffffffffffffff16145b33305f5f9054906101000a900473ffffffffffffffffffffffffffffffffffffffff16909192611241576040517fcbce04d800000000000000000000000000000000000000000000000000000000815260040161123893929190612935565b60405180910390fd5b505050565b7f000000000000000000000000000000000000000000000000000000000000000073ffffffffffffffffffffffffffffffffffffffff163073ffffffffffffffffffffffffffffffffffffffff1614806112f357507f000000000000000000000000000000000000000000000000000000000000000073ffffffffffffffffffffffffffffffffffffffff166112da611618565b73ffffffffffffffffffffffffffffffffffffffff1614155b1561132a576040517fe07c8dba00000000000000000000000000000000000000000000000000000000815260040160405180910390fd5b565b611334611154565b50565b8173ffffffffffffffffffffffffffffffffffffffff166352d1902d6040518163ffffffff1660e01b8152600401602060405180830381865afa92505050801561139f57506040513d601f19601f8201168201806040525081019061139c9190612a02565b60015b6113e057816040517f4c9c8ce30000000000000000000000000000000000000000000000000000000081526004016113d79190612274565b60405180910390fd5b7f360894a13ba1a3210667c828492db98dca3e2076cc3735a920a3ca505d382bbc5f1b811461144657806040517faa1d49a400000000000000000000000000000000000000000000000000000000815260040161143d919061224c565b60405180910390fd5b611450838361166b565b505050565b7f000000000000000000000000000000000000000000000000000000000000000073ffffffffffffffffffffffffffffffffffffffff163073ffffffffffffffffffffffffffffffffffffffff16146114da576040517fe07c8dba00000000000000000000000000000000000000000000000000000000815260040160405180910390fd5b565b5f5f6114e66116dd565b90508091505090565b805f5f6101000a81548173ffffffffffffffffffffffffffffffffffffffff021916908373ffffffffffffffffffffffffffffffffffffffff1602179055505f5f9054906101000a900473ffffffffffffffffffffffffffffffffffffffff1673ffffffffffffffffffffffffffffffffffffffff1661156d610947565b73ffffffffffffffffffffffffffffffffffffffff167f47e55c76e7a6f1fd8996a1da8008c1ea29699cca35e7bcd057f2dec313b6e5de60405160405180910390a350565b5f5f5f5f6115c08686611706565b9250925092506115d0828261175b565b82935050505092915050565b5f60d08265ffffffffffff16901b60a08465ffffffffffff16901b85611602575f611605565b60015b171790509392505050565b805160208201fd5b5f6116447f360894a13ba1a3210667c828492db98dca3e2076cc3735a920a3ca505d382bbc5f1b6118bd565b5f015f9054906101000a900473ffffffffffffffffffffffffffffffffffffffff16905090565b611674826118c6565b8173ffffffffffffffffffffffffffffffffffffffff167fbc7cd75a20ee27fd9adebab32041f755214dbc6bffa90cc0225b39da2e5c2d3b60405160405180910390a25f815111156116d0576116ca828261198f565b506116d9565b6116d8611a80565b5b5050565b5f7ff0c57e16840df040f15088dc2f81fe391c3923bec73e23a9662efc9c229c6a005f1b905090565b5f5f5f6041845103611746575f5f5f602087015192506040870151915060608701515f1a905061173888828585611abc565b955095509550505050611754565b5f600285515f1b9250925092505b9250925092565b5f600381111561176e5761176d612a2d565b5b82600381111561178157611780612a2d565b5b03156118b9576001600381111561179b5761179a612a2d565b5b8260038111156117ae576117ad612a2d565b5b036117e5576040517ff645eedf00000000000000000000000000000000000000000000000000000000815260040160405180910390fd5b600260038111156117f9576117f8612a2d565b5b82600381111561180c5761180b612a2d565b5b0361185057805f1c6040517ffce698f70000000000000000000000000000000000000000000000000000000081526004016118479190611f15565b60405180910390fd5b60038081111561186357611862612a2d565b5b82600381111561187657611875612a2d565b5b036118b857806040517fd78bce0c0000000000000000000000000000000000000000000000000000000081526004016118af919061224c565b60405180910390fd5b5b5050565b5f819050919050565b5f8173ffffffffffffffffffffffffffffffffffffffff163b0361192157806040517f4c9c8ce30000000000000000000000000000000000000000000000000000000081526004016119189190612274565b60405180910390fd5b8061194d7f360894a13ba1a3210667c828492db98dca3e2076cc3735a920a3ca505d382bbc5f1b6118bd565b5f015f6101000a81548173ffffffffffffffffffffffffffffffffffffffff021916908373ffffffffffffffffffffffffffffffffffffffff16021790555050565b60605f61199c8484611ba3565b90508080156119d257505f6119af611bb7565b11806119d157505f8473ffffffffffffffffffffffffffffffffffffffff163b115b5b156119e7576119df611bbe565b915050611a7a565b8015611a2a57836040517f9996b315000000000000000000000000000000000000000000000000000000008152600401611a219190612274565b60405180910390fd5b5f611a33611bb7565b1115611a4657611a41611bdb565b611a78565b6040517fd6bda27500000000000000000000000000000000000000000000000000000000815260040160405180910390fd5b505b92915050565b5f341115611aba576040517fb398979f00000000000000000000000000000000000000000000000000000000815260040160405180910390fd5b565b5f5f5f7f7fffffffffffffffffffffffffffffff5d576e7357a4501ddfe92f46681b20a0845f1c1115611af8575f600385925092509250611b99565b5f6001888888886040515f8152602001604052604051611b1b9493929190612a75565b6020604051602081039080840390855afa158015611b3b573d5f5f3e3d5ffd5b5050506020604051035190505f73ffffffffffffffffffffffffffffffffffffffff168173ffffffffffffffffffffffffffffffffffffffff1603611b8c575f60015f5f1b93509350935050611b99565b805f5f5f1b935093509350505b9450945094915050565b5f5f5f835160208501865af4905092915050565b5f3d905090565b606060405190503d81523d5f602083013e3d602001810160405290565b6040513d5f823e3d81fd5b5f604051905090565b5f5ffd5b5f5ffd5b5f7fffffffff0000000000000000000000000000000000000000000000000000000082169050919050565b611c2b81611bf7565b8114611c35575f5ffd5b50565b5f81359050611c4681611c22565b92915050565b5f60208284031215611c6157611c60611bef565b5b5f611c6e84828501611c38565b91505092915050565b5f8115159050919050565b611c8b81611c77565b82525050565b5f602082019050611ca45f830184611c82565b92915050565b5f73ffffffffffffffffffffffffffffffffffffffff82169050919050565b5f611cd382611caa565b9050919050565b611ce381611cc9565b8114611ced575f5ffd5b50565b5f81359050611cfe81611cda565b92915050565b5f819050919050565b611d1681611d04565b8114611d20575f5ffd5b50565b5f81359050611d3181611d0d565b92915050565b5f5ffd5b5f5ffd5b5f5ffd5b5f5f83601f840112611d5857611d57611d37565b5b8235905067ffffffffffffffff811115611d7557611d74611d3b565b5b602083019150836001820283011115611d9157611d90611d3f565b5b9250929050565b5f5f5f5f5f60808688031215611db157611db0611bef565b5b5f611dbe88828901611cf0565b9550506020611dcf88828901611cf0565b9450506040611de088828901611d23565b935050606086013567ffffffffffffffff811115611e0157611e00611bf3565b5b611e0d88828901611d43565b92509250509295509295909350565b611e2581611bf7565b82525050565b5f602082019050611e3e5f830184611e1c565b92915050565b5f5ffd5b5f6101208284031215611e5e57611e5d611e44565b5b81905092915050565b5f819050919050565b611e7981611e67565b8114611e83575f5ffd5b50565b5f81359050611e9481611e70565b92915050565b5f5f5f60608486031215611eb157611eb0611bef565b5b5f84013567ffffffffffffffff811115611ece57611ecd611bf3565b5b611eda86828701611e48565b9350506020611eeb86828701611e86565b9250506040611efc86828701611d23565b9150509250925092565b611f0f81611d04565b82525050565b5f602082019050611f285f830184611f06565b92915050565b5f5f83601f840112611f4357611f42611d37565b5b8235905067ffffffffffffffff811115611f6057611f5f611d3b565b5b602083019150836020820283011115611f7c57611f7b611d3f565b5b9250929050565b5f5f60208385031215611f9957611f98611bef565b5b5f83013567ffffffffffffffff811115611fb657611fb5611bf3565b5b611fc285828601611f2e565b92509250509250929050565b5f60208284031215611fe357611fe2611bef565b5b5f611ff084828501611cf0565b91505092915050565b5f65ffffffffffff82169050919050565b61201381611ff9565b82525050565b5f60208201905061202c5f83018461200a565b92915050565b5f61203c82611caa565b9050919050565b61204c81612032565b8114612056575f5ffd5b50565b5f8135905061206781612043565b92915050565b5f5f6040838503121561208357612082611bef565b5b5f61209085828601612059565b92505060206120a185828601611d23565b9150509250929050565b5f5ffd5b5f601f19601f8301169050919050565b7f4e487b71000000000000000000000000000000000000000000000000000000005f52604160045260245ffd5b6120f5826120af565b810181811067ffffffffffffffff82111715612114576121136120bf565b5b80604052505050565b5f612126611be6565b905061213282826120ec565b919050565b5f67ffffffffffffffff821115612151576121506120bf565b5b61215a826120af565b9050602081019050919050565b828183375f83830152505050565b5f61218761218284612137565b61211d565b9050828152602081018484840111156121a3576121a26120ab565b5b6121ae848285612167565b509392505050565b5f82601f8301126121ca576121c9611d37565b5b81356121da848260208601612175565b91505092915050565b5f5f604083850312156121f9576121f8611bef565b5b5f61220685828601611cf0565b925050602083013567ffffffffffffffff81111561222757612226611bf3565b5b612233858286016121b6565b9150509250929050565b61224681611e67565b82525050565b5f60208201905061225f5f83018461223d565b92915050565b61226e81611cc9565b82525050565b5f6020820190506122875f830184612265565b92915050565b5f81519050919050565b5f82825260208201905092915050565b8281835e5f83830152505050565b5f6122bf8261228d565b6122c98185612297565b93506122d98185602086016122a7565b6122e2816120af565b840191505092915050565b5f6020820190508181035f83015261230581846122b5565b905092915050565b5f819050919050565b5f61233061232b61232684611caa565b61230d565b611caa565b9050919050565b5f61234182612316565b9050919050565b5f61235282612337565b9050919050565b61236281612348565b82525050565b5f60208201905061237b5f830184612359565b92915050565b5f5f5f5f6060858703121561239957612398611bef565b5b5f6123a687828801611cf0565b94505060206123b787828801611d23565b935050604085013567ffffffffffffffff8111156123d8576123d7611bf3565b5b6123e487828801611d43565b925092505092959194509250565b5f5f83601f84011261240757612406611d37565b5b8235905067ffffffffffffffff81111561242457612423611d3b565b5b6020830191508360208202830111156124405761243f611d3f565b5b9250929050565b5f5f5f5f5f5f5f5f60a0898b03121561246357612462611bef565b5b5f6124708b828c01611cf0565b98505060206124818b828c01611cf0565b975050604089013567ffffffffffffffff8111156124a2576124a1611bf3565b5b6124ae8b828c016123f2565b9650965050606089013567ffffffffffffffff8111156124d1576124d0611bf3565b5b6124dd8b828c016123f2565b9450945050608089013567ffffffffffffffff811115612500576124ff611bf3565b5b61250c8b828c01611d43565b92509250509295985092959890939650565b61252781611ff9565b8114612531575f5ffd5b50565b5f813590506125428161251e565b92915050565b5f5f5f6060848603121561255f5761255e611bef565b5b5f61256c86828701611cf0565b935050602061257d86828701612534565b925050604061258e86828701612534565b9150509250925092565b5f5f5f5f5f5f60a087890312156125b2576125b1611bef565b5b5f6125bf89828a01611cf0565b96505060206125d089828a01611cf0565b95505060406125e189828a01611d23565b94505060606125f289828a01611d23565b935050608087013567ffffffffffffffff81111561261357612612611bf3565b5b61261f89828a01611d43565b92509250509295509295509295565b7f4e487b71000000000000000000000000000000000000000000000000000000005f52603260045260245ffd5b5f5ffd5b5f5ffd5b5f5ffd5b5f823560016060038336030381126126825761268161265b565b5b80830191505092915050565b5f5f833560016020038436030381126126aa576126a961265b565b5b80840192508235915067ffffffffffffffff8211156126cc576126cb61265f565b5b6020830192506001820236038313156126e8576126e7612663565b5b509250929050565b5f81519050919050565b5f82825260208201905092915050565b5f612714826126f0565b61271e81856126fa565b935061272e8185602086016122a7565b612737816120af565b840191505092915050565b5f6040820190506127555f830185611f06565b8181036020830152612767818461270a565b90509392505050565b61277981612032565b82525050565b5f6040820190506127925f830185612770565b61279f6020830184611f06565b9392505050565b5f815190506127b481611d0d565b92915050565b5f602082840312156127cf576127ce611bef565b5b5f6127dc848285016127a6565b91505092915050565b5f819050919050565b5f67ffffffffffffffff82169050919050565b5f61281b612816612811846127e5565b61230d565b6127ee565b9050919050565b61282b81612801565b82525050565b5f6020820190506128445f830184612822565b92915050565b7f77726f6e6720756e74696c2f61667465720000000000000000000000000000005f82015250565b5f61287e601183612297565b91506128898261284a565b602082019050919050565b5f6020820190508181035f8301526128ab81612872565b9050919050565b5f819050919050565b5f77ffffffffffffffffffffffffffffffffffffffffffffffff82169050919050565b5f6128f86128f36128ee846128b2565b61230d565b6128bb565b9050919050565b612908816128de565b82525050565b5f6040820190506129215f830185612265565b61292e60208301846128ff565b9392505050565b5f6060820190506129485f830186612265565b6129556020830185612265565b6129626040830184612265565b949350505050565b5f81905092915050565b50565b5f6129825f8361296a565b915061298d82612974565b5f82019050919050565b5f6129a182612977565b9150819050919050565b5f6080820190506129be5f830187612265565b6129cb6020830186612265565b6129d86040830185612265565b6129e56060830184612265565b95945050505050565b5f815190506129fc81611e70565b92915050565b5f60208284031215612a1757612a16611bef565b5b5f612a24848285016129ee565b91505092915050565b7f4e487b71000000000000000000000000000000000000000000000000000000005f52602160045260245ffd5b5f60ff82169050919050565b612a6f81612a5a565b82525050565b5f608082019050612a885f83018761223d565b612a956020830186612a66565b612aa2604083018561223d565b612aaf606083018461223d565b9594505050505056fea26469706673582212206bd941a25146299c16c87d38c5a0bf937600d20623eddd2bb111fe2afbcfdb8864736f6c634300081e0033","linkReferences":{}},"methodIdentifiers":{"UPGRADE_INTERFACE_VERSION()":"ad3cb1cc","addDeposit()":"4a58db19","addTemporaryOwner(address,uint48,uint48)":"cf6dca55","entryPoint()":"b0d691fe","execute(address,uint256,bytes)":"b61d27f6","executeBatch((address,uint256,bytes)[])":"34fcd5be","getDeposit()":"c399ec88","getNonce()":"d087d288","initialize(address)":"c4d66de8","onERC1155BatchReceived(address,address,uint256[],uint256[],bytes)":"bc197c81","onERC1155Received(address,address,uint256,uint256,bytes)":"f23a6e61","onERC721Received(address,address,uint256,bytes)":"150b7a02","owner()":"8da5cb5b","ownerAfter(address)":"3fb5a7a1","ownerUntil(address)":"3e476951","proxiableUUID()":"52d1902d","supportsInterface(bytes4)":"01ffc9a7","upgradeToAndCall(address,bytes)":"4f1ef286","validateUserOp((address,uint256,bytes,bytes,bytes32,uint256,bytes32,bytes,bytes),bytes32,uint256)":"19822f7c","withdrawDepositTo(address,uint256)":"4d44560d"},"id":43}