{"abi":[{"type":"constructor","inputs":[{"name":"_decimals","type":"uint8","internalType":"uint8"}],"stateMutability":"nonpayable"},{"type":"function","name":"allowance","inputs":[{"name":"owner","type":"address","internalType":"address"},{"name":"spender","type":"address","internalType":"address"}],"outputs":[{"name":"","type":"uint256","internalType":"uint256"}],"stateMutability":"view"},{"type":"function","name":"approve","inputs":[{"name":"spender","type":"address","internalType":"address"},{"name":"value","type":"uint256","internalType":"uint256"}],"outputs":[{"name":"","type":"bool","internalType":"bool"}],"stateMutability":"nonpayable"},{"type":"function","name":"balanceOf","inputs":[{"name":"account","type":"address","internalType":"address"}],"outputs":[{"name":"","type":"uint256","internalType":"uint256"}],"stateMutability":"view"},{"type":"function","name":"decimals","inputs":[],"outputs":[{"name":"","type":"uint8","internalType":"uint8"}],"stateMutability":"view"},{"type":"function","name":"name","inputs":[],"outputs":[{"name":"","type":"string","internalType":"string"}],"stateMutability":"view"},{"type":"function","name":"sudoApprove","inputs":[{"name":"_from","type":"address","internalType":"address"},{"name":"_to","type":"address","internalType":"address"},{"name":"_amount","type":"uint256","internalType":"uint256"}],"outputs":[],"stateMutability":"nonpayable"},{"type":"function","name":"sudoMint","inputs":[{"name":"_to","type":"address","internalType":"address"},{"name":"_amount","type":"uint256","internalType":"uint256"}],"outputs":[],"stateMutability":"nonpayable"},{"type":"function","name":"sudoTransfer","inputs":[{"name":"_from","type":"address","internalType":"address"},{"name":"_to","type":"address","internalType":"address"}],"outputs":[],"stateMutability":"nonpayable"},{"type":"function","name":"symbol","inputs":[],"outputs":[{"name":"","type":"string","internalType":"string"}],"stateMutability":"view"},{"type":"function","name":"totalSupply","inputs":[],"outputs":[{"name":"","type":"uint256","internalType":"uint256"}],"stateMutability":"view"},{"type":"function","name":"transfer","inputs":[{"name":"to","type":"address","internalType":"address"},{"name":"value","type":"uint256","internalType":"uint256"}],"outputs":[{"name":"","type":"bool","internalType":"bool"}],"stateMutability":"nonpayable"},{"type":"function","name":"transferFrom","inputs":[{"name":"from","type":"address","internalType":"address"},{"name":"to","type":"address","internalType":"address"},{"name":"value","type":"uint256","internalType":"uint256"}],"outputs":[{"name":"","type":"bool","internalType":"bool"}],"stateMutability":"nonpayable"},{"type":"event","name":"Approval","inputs":[{"name":"owner","type":"address","indexed":true,"internalType":"address"},{"name":"spender","type":"address","indexed":true,"internalType":"address"},{"name":"value","type":"uint256","indexed":false,"internalType":"uint256"}],"anonymous":false},{"type":"event","name":"Transfer","inputs":[{"name":"from","type":"address","indexed":true,"internalType":"address"},{"name":"to","type":"address","indexed":true,"internalType":"address"},{"name":"value","type":"uint256","indexed":false,"internalType":"uint256"}],"anonymous":false},{"type":"error","name":"ERC20InsufficientAllowance","inputs":[{"name":"spender","type":"address","internalType":"address"},{"name":"allowance","type":"uint256","internalType":"uint256"},{"name":"needed","type":"uint256","internalType":"uint256"}]},{"type":"error","name":"ERC20InsufficientBalance","inputs":[{"name":"sender","type":"address","internalType":"address"},{"name":"balance","type":"uint256","internalType":"uint256"},{"name":"needed","type":"uint256","internalType":"uint256"}]},{"type":"error","name":"ERC20InvalidApprover","inputs":[{"name":"approver","type":"address","internalType":"address"}]},{"type":"error","name":"ERC20InvalidReceiver","inputs":[{"name":"receiver","type":"address","internalType":"address"}]},{"type":"error","name":"ERC20InvalidSender","inputs":[{"name":"sender","type":"address","internalType":"address"}]},{"type":"error","name":"ERC20InvalidSpender","inputs":[{"name":"spender","type":"address","internalType":"address"}]}],"bytecode":{"object":"0x60a060405234801561000f575f5ffd5b50604051611753380380611753833981810160405281019061003191906103c5565b6040518060400160405280600981526020017f54657374455243323000000000000000000000000000000000000000000000008152506040518060400160405280600381526020017f543230000000000000000000000000000000000000000000000000000000000081525081600390816100ac919061062d565b5080600490816100bc919061062d565b5050506100d93369d3c21bcecceda10000006100ed60201b60201c565b8060ff1660808160ff168152505050610811565b5f73ffffffffffffffffffffffffffffffffffffffff168273ffffffffffffffffffffffffffffffffffffffff160361015d575f6040517fec442f05000000000000000000000000000000000000000000000000000000008152600401610154919061073b565b60405180910390fd5b61016e5f838361017260201b60201c565b5050565b5f73ffffffffffffffffffffffffffffffffffffffff168373ffffffffffffffffffffffffffffffffffffffff16036101c2578060025f8282546101b69190610781565b92505081905550610290565b5f5f5f8573ffffffffffffffffffffffffffffffffffffffff1673ffffffffffffffffffffffffffffffffffffffff1681526020019081526020015f205490508181101561024b578381836040517fe450d38c000000000000000000000000000000000000000000000000000000008152600401610242939291906107c3565b60405180910390fd5b8181035f5f8673ffffffffffffffffffffffffffffffffffffffff1673ffffffffffffffffffffffffffffffffffffffff1681526020019081526020015f2081905550505b5f73ffffffffffffffffffffffffffffffffffffffff168273ffffffffffffffffffffffffffffffffffffffff16036102d7578060025f8282540392505081905550610321565b805f5f8473ffffffffffffffffffffffffffffffffffffffff1673ffffffffffffffffffffffffffffffffffffffff1681526020019081526020015f205f82825401925050819055505b8173ffffffffffffffffffffffffffffffffffffffff168373ffffffffffffffffffffffffffffffffffffffff167fddf252ad1be2c89b69c2b068fc378daa952ba7f163c4a11628f55a4df523b3ef8360405161037e91906107f8565b60405180910390a3505050565b5f5ffd5b5f60ff82169050919050565b6103a48161038f565b81146103ae575f5ffd5b50565b5f815190506103bf8161039b565b92915050565b5f602082840312156103da576103d961038b565b5b5f6103e7848285016103b1565b91505092915050565b5f81519050919050565b7f4e487b71000000000000000000000000000000000000000000000000000000005f52604160045260245ffd5b7f4e487b71000000000000000000000000000000000000000000000000000000005f52602260045260245ffd5b5f600282049050600182168061046b57607f821691505b60208210810361047e5761047d610427565b5b50919050565b5f819050815f5260205f209050919050565b5f6020601f8301049050919050565b5f82821b905092915050565b5f600883026104e07fffffffffffffffffffffffffffffffffffffffffffffffffffffffffffffffff826104a5565b6104ea86836104a5565b95508019841693508086168417925050509392505050565b5f819050919050565b5f819050919050565b5f61052e61052961052484610502565b61050b565b610502565b9050919050565b5f819050919050565b61054783610514565b61055b61055382610535565b8484546104b1565b825550505050565b5f5f905090565b610572610563565b61057d81848461053e565b505050565b5b818110156105a0576105955f8261056a565b600181019050610583565b5050565b601f8211156105e5576105b681610484565b6105bf84610496565b810160208510156105ce578190505b6105e26105da85610496565b830182610582565b50505b505050565b5f82821c905092915050565b5f6106055f19846008026105ea565b1980831691505092915050565b5f61061d83836105f6565b9150826002028217905092915050565b610636826103f0565b67ffffffffffffffff81111561064f5761064e6103fa565b5b6106598254610454565b6106648282856105a4565b5f60209050601f831160018114610695575f8415610683578287015190505b61068d8582610612565b8655506106f4565b601f1984166106a386610484565b5f5b828110156106ca578489015182556001820191506020850194506020810190506106a5565b868310156106e757848901516106e3601f8916826105f6565b8355505b6001600288020188555050505b505050505050565b5f73ffffffffffffffffffffffffffffffffffffffff82169050919050565b5f610725826106fc565b9050919050565b6107358161071b565b82525050565b5f60208201905061074e5f83018461072c565b92915050565b7f4e487b71000000000000000000000000000000000000000000000000000000005f52601160045260245ffd5b5f61078b82610502565b915061079683610502565b92508282019050808211156107ae576107ad610754565b5b92915050565b6107bd81610502565b82525050565b5f6060820190506107d65f83018661072c565b6107e360208301856107b4565b6107f060408301846107b4565b949350505050565b5f60208201905061080b5f8301846107b4565b92915050565b608051610f2a6108295f395f61037c0152610f2a5ff3fe608060405234801561000f575f5ffd5b50600436106100b2575f3560e01c8063313ce5671161006f578063313ce5671461018a57806370a08231146101a857806395d89b41146101d8578063a9059cbb146101f6578063dd62ed3e14610226578063fb4dcefa14610256576100b2565b806305ea5c22146100b657806306fdde03146100d2578063095ea7b3146100f057806318160ddd1461012057806323b872dd1461013e5780632d688ca81461016e575b5f5ffd5b6100d060048036038101906100cb9190610bc4565b610272565b005b6100da610282565b6040516100e79190610c84565b60405180910390f35b61010a60048036038101906101059190610ca4565b610312565b6040516101179190610cfc565b60405180910390f35b610128610334565b6040516101359190610d24565b60405180910390f35b61015860048036038101906101539190610bc4565b61033d565b6040516101659190610cfc565b60405180910390f35b61018860048036038101906101839190610ca4565b61036b565b005b610192610379565b60405161019f9190610d58565b60405180910390f35b6101c260048036038101906101bd9190610d71565b6103a0565b6040516101cf9190610d24565b60405180910390f35b6101e06103e5565b6040516101ed9190610c84565b60405180910390f35b610210600480360381019061020b9190610ca4565b610475565b60405161021d9190610cfc565b60405180910390f35b610240600480360381019061023b9190610d9c565b610497565b60405161024d9190610d24565b60405180910390f35b610270600480360381019061026b9190610d9c565b610519565b005b61027d838383610530565b505050565b60606003805461029190610e07565b80601f01602080910402602001604051908101604052809291908181526020018280546102bd90610e07565b80156103085780601f106102df57610100808354040283529160200191610308565b820191905f5260205f20905b8154815290600101906020018083116102eb57829003601f168201915b5050505050905090565b5f5f61031c610542565b9050610329818585610530565b600191505092915050565b5f600254905090565b5f5f610347610542565b9050610354858285610549565b61035f8585856105dc565b60019150509392505050565b61037582826106cc565b5050565b5f7f0000000000000000000000000000000000000000000000000000000000000000905090565b5f5f5f8373ffffffffffffffffffffffffffffffffffffffff1673ffffffffffffffffffffffffffffffffffffffff1681526020019081526020015f20549050919050565b6060600480546103f490610e07565b80601f016020809104026020016040519081016040528092919081815260200182805461042090610e07565b801561046b5780601f106104425761010080835404028352916020019161046b565b820191905f5260205f20905b81548152906001019060200180831161044e57829003601f168201915b5050505050905090565b5f5f61047f610542565b905061048c8185856105dc565b600191505092915050565b5f60015f8473ffffffffffffffffffffffffffffffffffffffff1673ffffffffffffffffffffffffffffffffffffffff1681526020019081526020015f205f8373ffffffffffffffffffffffffffffffffffffffff1673ffffffffffffffffffffffffffffffffffffffff1681526020019081526020015f2054905092915050565b61052c8282610527856103a0565b6105dc565b5050565b61053d838383600161074b565b505050565b5f33905090565b5f6105548484610497565b90507fffffffffffffffffffffffffffffffffffffffffffffffffffffffffffffffff8110156105d657818110156105c7578281836040517ffb8f41b20000000000000000000000000000000000000000000000000000000081526004016105be93929190610e46565b60405180910390fd5b6105d584848484035f61074b565b5b50505050565b5f73ffffffffffffffffffffffffffffffffffffffff168373ffffffffffffffffffffffffffffffffffffffff160361064c575f6040517f96c6fd1e0000000000000000000000000000000000000000000000000000000081526004016106439190610e7b565b60405180910390fd5b5f73ffffffffffffffffffffffffffffffffffffffff168273ffffffffffffffffffffffffffffffffffffffff16036106bc575f6040517fec442f050000000000000000000000000000000000000000000000000000000081526004016106b39190610e7b565b60405180910390fd5b6106c783838361091a565b505050565b5f73ffffffffffffffffffffffffffffffffffffffff168273ffffffffffffffffffffffffffffffffffffffff160361073c575f6040517fec442f050000000000000000000000000000000000000000000000000000000081526004016107339190610e7b565b60405180910390fd5b6107475f838361091a565b5050565b5f73ffffffffffffffffffffffffffffffffffffffff168473ffffffffffffffffffffffffffffffffffffffff16036107bb575f6040517fe602df050000000000000000000000000000000000000000000000000000000081526004016107b29190610e7b565b60405180910390fd5b5f73ffffffffffffffffffffffffffffffffffffffff168373ffffffffffffffffffffffffffffffffffffffff160361082b575f6040517f94280d620000000000000000000000000000000000000000000000000000000081526004016108229190610e7b565b60405180910390fd5b8160015f8673ffffffffffffffffffffffffffffffffffffffff1673ffffffffffffffffffffffffffffffffffffffff1681526020019081526020015f205f8573ffffffffffffffffffffffffffffffffffffffff1673ffffffffffffffffffffffffffffffffffffffff1681526020019081526020015f20819055508015610914578273ffffffffffffffffffffffffffffffffffffffff168473ffffffffffffffffffffffffffffffffffffffff167f8c5be1e5ebec7d5bd14f71427d1e84f3dd0314c0f7b2291e5b200ac8c7c3b9258460405161090b9190610d24565b60405180910390a35b50505050565b5f73ffffffffffffffffffffffffffffffffffffffff168373ffffffffffffffffffffffffffffffffffffffff160361096a578060025f82825461095e9190610ec1565b92505081905550610a38565b5f5f5f8573ffffffffffffffffffffffffffffffffffffffff1673ffffffffffffffffffffffffffffffffffffffff1681526020019081526020015f20549050818110156109f3578381836040517fe450d38c0000000000000000000000000000000000000000000000000000000081526004016109ea93929190610e46565b60405180910390fd5b8181035f5f8673ffffffffffffffffffffffffffffffffffffffff1673ffffffffffffffffffffffffffffffffffffffff1681526020019081526020015f2081905550505b5f73ffffffffffffffffffffffffffffffffffffffff168273ffffffffffffffffffffffffffffffffffffffff1603610a7f578060025f8282540392505081905550610ac9565b805f5f8473ffffffffffffffffffffffffffffffffffffffff1673ffffffffffffffffffffffffffffffffffffffff1681526020019081526020015f205f82825401925050819055505b8173ffffffffffffffffffffffffffffffffffffffff168373ffffffffffffffffffffffffffffffffffffffff167fddf252ad1be2c89b69c2b068fc378daa952ba7f163c4a11628f55a4df523b3ef83604051610b269190610d24565b60405180910390a3505050565b5f5ffd5b5f73ffffffffffffffffffffffffffffffffffffffff82169050919050565b5f610b6082610b37565b9050919050565b610b7081610b56565b8114610b7a575f5ffd5b50565b5f81359050610b8b81610b67565b92915050565b5f819050919050565b610ba381610b91565b8114610bad575f5ffd5b50565b5f81359050610bbe81610b9a565b92915050565b5f5f5f60608486031215610bdb57610bda610b33565b5b5f610be886828701610b7d565b9350506020610bf986828701610b7d565b9250506040610c0a86828701610bb0565b9150509250925092565b5f81519050919050565b5f82825260208201905092915050565b8281835e5f83830152505050565b5f601f19601f8301169050919050565b5f610c5682610c14565b610c608185610c1e565b9350610c70818560208601610c2e565b610c7981610c3c565b840191505092915050565b5f6020820190508181035f830152610c9c8184610c4c565b905092915050565b5f5f60408385031215610cba57610cb9610b33565b5b5f610cc785828601610b7d565b9250506020610cd885828601610bb0565b9150509250929050565b5f8115159050919050565b610cf681610ce2565b82525050565b5f602082019050610d0f5f830184610ced565b92915050565b610d1e81610b91565b82525050565b5f602082019050610d375f830184610d15565b92915050565b5f60ff82169050919050565b610d5281610d3d565b82525050565b5f602082019050610d6b5f830184610d49565b92915050565b5f60208284031215610d8657610d85610b33565b5b5f610d9384828501610b7d565b91505092915050565b5f5f60408385031215610db257610db1610b33565b5b5f610dbf85828601610b7d565b9250506020610dd085828601610b7d565b9150509250929050565b7f4e487b71000000000000000000000000000000000000000000000000000000005f52602260045260245ffd5b5f6002820490506001821680610e1e57607f821691505b602082108103610e3157610e30610dda565b5b50919050565b610e4081610b56565b82525050565b5f606082019050610e595f830186610e37565b610e666020830185610d15565b610e736040830184610d15565b949350505050565b5f602082019050610e8e5f830184610e37565b92915050565b7f4e487b71000000000000000000000000000000000000000000000000000000005f52601160045260245ffd5b5f610ecb82610b91565b9150610ed683610b91565b9250828201905080821115610eee57610eed610e94565b5b9291505056fea26469706673582212204370daa3e3ee6c9ac52f77b1b2fc746f0d7b3a74d771d1bfcb7131dfee46959564736f6c634300081e0033","linkReferences":{}},"methodIdentifiers":{"allowance(address,address)":"dd62ed3e","approve(address,uint256)":"095ea7b3","balanceOf(address)":"70a08231","decimals()":"313ce567","name()":"06fdde03","sudoApprove(address,address,uint256)":"05ea5c22","sudoMint(address,uint256)":"2d688ca8","sudoTransfer(address,address)":"fb4dcefa","symbol()":"95d89b41","totalSupply()":"18160ddd","transfer(address,uint256)":"a9059cbb","transferFrom(address,address,uint256)":"23b872dd"},"id":38}