{"abi":[{"type":"constructor","inputs":[{"name":"impl_","type":"address","internalType":"address"}],"stateMutability":"nonpayable"},{"type":"function","name":"cloneAndInitialize","inputs":[{"name":"callData","type":"bytes","internalType":"bytes"}],"outputs":[{"name":"","type":"address","internalType":"address"}],"stateMutability":"nonpayable"},{"type":"function","name":"predictAddress","inputs":[{"name":"callData","type":"bytes","internalType":"bytes"}],"outputs":[{"name":"","type":"address","internalType":"address"}],"stateMutability":"view"},{"type":"error","name":"AddressEmptyCode","inputs":[{"name":"target","type":"address","internalType":"address"}]},{"type":"error","name":"FailedCall","inputs":[]},{"type":"error","name":"FailedDeployment","inputs":[]},{"type":"error","name":"InsufficientBalance","inputs":[{"name":"balance","type":"uint256","internalType":"uint256"},{"name":"needed","type":"uint256","internalType":"uint256"}]}],"bytecode":{"object":"0x60a060405234801561000f575f5ffd5b50604051610826380380610826833981810160405281019061003191906100eb565b5f8173ffffffffffffffffffffffffffffffffffffffff163b11610053575f5ffd5b8073ffffffffffffffffffffffffffffffffffffffff1660808173ffffffffffffffffffffffffffffffffffffffff168152505050610116565b5f5ffd5b5f73ffffffffffffffffffffffffffffffffffffffff82169050919050565b5f6100ba82610091565b9050919050565b6100ca816100b0565b81146100d4575f5ffd5b50565b5f815190506100e5816100c1565b92915050565b5f60208284031215610100576100ff61008d565b5b5f61010d848285016100d7565b91505092915050565b6080516106f26101345f395f818160e101526101bc01526106f25ff3fe608060405234801561000f575f5ffd5b5060043610610034575f3560e01c80639f053bcc14610038578063b29ebe0514610068575b5f5ffd5b610052600480360381019061004d9190610586565b610098565b60405161005f9190610610565b60405180910390f35b610082600480360381019061007d9190610586565b61019d565b60405161008f9190610610565b60405180910390f35b5f5f6100a4848461019d565b90505f8173ffffffffffffffffffffffffffffffffffffffff163b036101935761012484846040516100d7929190610665565b60405180910390207f000000000000000000000000000000000000000000000000000000000000000073ffffffffffffffffffffffffffffffffffffffff1661020890919063ffffffff16565b5061019184848080601f0160208091040260200160405190810160405280939291908181526020018383808284375f81840152601f19601f820116905080830192505050505050508273ffffffffffffffffffffffffffffffffffffffff1661021c90919063ffffffff16565b505b8091505092915050565b5f61020083836040516101b1929190610665565b6040518091039020307f000000000000000000000000000000000000000000000000000000000000000073ffffffffffffffffffffffffffffffffffffffff166102319092919063ffffffff16565b905092915050565b5f61021483835f6102a7565b905092915050565b606061022983835f61039e565b905092915050565b5f6040518260388201526f5af43d82803e903d91602b57fd5bf3ff6024820152846014820152733d602d80600a3d3981f3363d3d373d3d3d363d7381528360588201526037600c820120607882015273ffffffffffffffffffffffffffffffffffffffff60556043830120169150509392505050565b5f814710156102ef5747826040517fcf4791810000000000000000000000000000000000000000000000000000000081526004016102e6929190610695565b60405180910390fd5b763d602d80600a3d3981f3363d3d373d3d3d363d730000008460601b60e81c175f526e5af43d82803e903d91602b57fd5bf38460781b17602052826037600984f590505f73ffffffffffffffffffffffffffffffffffffffff168173ffffffffffffffffffffffffffffffffffffffff1603610397576040517fb06ebf3d00000000000000000000000000000000000000000000000000000000815260040160405180910390fd5b9392505050565b6060814710156103e75747826040517fcf4791810000000000000000000000000000000000000000000000000000000081526004016103de929190610695565b60405180910390fd5b5f6103f38584866104d8565b905080801561042957505f6104066104ee565b118061042857505f8573ffffffffffffffffffffffffffffffffffffffff163b115b5b1561043e576104366104f5565b9150506104d1565b801561048157846040517f9996b3150000000000000000000000000000000000000000000000000000000081526004016104789190610610565b60405180910390fd5b5f61048a6104ee565b111561049d57610498610512565b6104cf565b6040517fd6bda27500000000000000000000000000000000000000000000000000000000815260040160405180910390fd5b505b9392505050565b5f5f5f83516020850186885af190509392505050565b5f3d905090565b606060405190503d81523d5f602083013e3d602001810160405290565b6040513d5f823e3d81fd5b5f5ffd5b5f5ffd5b5f5ffd5b5f5ffd5b5f5ffd5b5f5f83601f84011261054657610545610525565b5b8235905067ffffffffffffffff81111561056357610562610529565b5b60208301915083600182028301111561057f5761057e61052d565b5b9250929050565b5f5f6020838503121561059c5761059b61051d565b5b5f83013567ffffffffffffffff8111156105b9576105b8610521565b5b6105c585828601610531565b92509250509250929050565b5f73ffffffffffffffffffffffffffffffffffffffff82169050919050565b5f6105fa826105d1565b9050919050565b61060a816105f0565b82525050565b5f6020820190506106235f830184610601565b92915050565b5f81905092915050565b828183375f83830152505050565b5f61064c8385610629565b9350610659838584610633565b82840190509392505050565b5f610671828486610641565b91508190509392505050565b5f819050919050565b61068f8161067d565b82525050565b5f6040820190506106a85f830185610686565b6106b56020830184610686565b939250505056fea264697066735822122032dbf71923814fabf9a1172b90132f687f80e1faf6990cb3e6b7ad07d97b58b664736f6c634300081e0033","linkReferences":{}},"methodIdentifiers":{"cloneAndInitialize(bytes)":"9f053bcc","predictAddress(bytes)":"b29ebe05"},"id":247}