{"abi":[{"type":"function","name":"current","inputs":[],"outputs":[{"name":"","type":"uint256","internalType":"uint256"}],"stateMutability":"view"},{"type":"function","name":"increment","inputs":[],"outputs":[],"stateMutability":"nonpayable"}],"bytecode":{"object":"0x6080604052348015600e575f5ffd5b506101598061001c5f395ff3fe608060405234801561000f575f5ffd5b5060043610610034575f3560e01c80639fa6a6e314610038578063d09de08a14610056575b5f5ffd5b610040610060565b60405161004d9190610096565b60405180910390f35b61005e610068565b005b5f5f54905090565b5f5f8154610075906100dc565b91905081905550565b5f819050919050565b6100908161007e565b82525050565b5f6020820190506100a95f830184610087565b92915050565b7f4e487b71000000000000000000000000000000000000000000000000000000005f52601160045260245ffd5b5f6100e68261007e565b91507fffffffffffffffffffffffffffffffffffffffffffffffffffffffffffffffff8203610118576101176100af565b5b60018201905091905056fea26469706673582212207ad949c1495f7fedbf6a80cc74ab9e8b43d4cefc6aba57d37cbc0752d4b366b264736f6c634300081e0033","linkReferences":{}},"methodIdentifiers":{"current()":"9fa6a6e3","increment()":"d09de08a"},"id":277}