{"abi":[{"type":"function","name":"UPGRADE_INTERFACE_VERSION","inputs":[],"outputs":[{"name":"","type":"string","internalType":"string"}],"stateMutability":"view"},{"type":"function","name":"current","inputs":[],"outputs":[{"name":"","type":"uint256","internalType":"uint256"}],"stateMutability":"view"},{"type":"function","name":"increment","inputs":[],"outputs":[],"stateMutability":"nonpayable"},{"type":"function","name":"proxiableUUID","inputs":[],"outputs":[{"name":"","type":"bytes32","internalType":"bytes32"}],"stateMutability":"view"},{"type":"function","name":"upgradeToAndCall","inputs":[{"name":"newImplementation","type":"address","internalType":"address"},{"name":"data","type":"bytes","internalType":"bytes"}],"outputs":[],"stateMutability":"payable"},{"type":"event","name":"Upgraded","inputs":[{"name":"implementation","type":"address","indexed":true,"internalType":"address"}],"anonymous":false},{"type":"error","name":"AddressEmptyCode","inputs":[{"name":"target","type":"address","internalType":"address"}]},{"type":"error","name":"ERC1967InvalidImplementation","inputs":[{"name":"implementation","type":"address","internalType":"address"}]},{"type":"error","name":"ERC1967NonPayable","inputs":[]},{"type":"error","name":"FailedCall","inputs":[]},{"type":"error","name":"UUPSUnauthorizedCallContext","inputs":[]},{"type":"error","name":"UUPSUnsupportedProxiableUUID","inputs":[{"name":"slot","type":"bytes32","internalType":"bytes32"}]}],"bytecode":{"object":"0x60a06040523073ffffffffffffffffffffffffffffffffffffffff1660809073ffffffffffffffffffffffffffffffffffffffff168152503480156041575f5ffd5b5060805161088361005a5f395f61020701526108835ff3fe608060405260043610610049575f3560e01c80634f1ef2861461004d57806352d1902d146100695780639fa6a6e314610093578063ad3cb1cc146100bd578063d09de08a146100e7575b5f5ffd5b61006760048036038101906100629190610675565b6100fd565b005b348015610074575f5ffd5b5061007d61010b565b60405161008a91906106e7565b60405180910390f35b34801561009e575f5ffd5b506100a761013c565b6040516100b49190610718565b60405180910390f35b3480156100c8575f5ffd5b506100d1610144565b6040516100de9190610791565b60405180910390f35b3480156100f2575f5ffd5b506100fb61017d565b005b6101078282610193565b5050565b5f610114610205565b7f360894a13ba1a3210667c828492db98dca3e2076cc3735a920a3ca505d382bbc5f1b905090565b5f5f54905090565b6040518060400160405280600581526020017f352e302e3000000000000000000000000000000000000000000000000000000081525081565b5f5f815461018a906107de565b91905081905550565b61019c8261028c565b8173ffffffffffffffffffffffffffffffffffffffff167fbc7cd75a20ee27fd9adebab32041f755214dbc6bffa90cc0225b39da2e5c2d3b60405160405180910390a25f815111156101f8576101f28282610355565b50610201565b610200610446565b5b5050565b7f000000000000000000000000000000000000000000000000000000000000000073ffffffffffffffffffffffffffffffffffffffff163073ffffffffffffffffffffffffffffffffffffffff161461028a576040517fe07c8dba00000000000000000000000000000000000000000000000000000000815260040160405180910390fd5b565b5f8173ffffffffffffffffffffffffffffffffffffffff163b036102e757806040517f4c9c8ce30000000000000000000000000000000000000000000000000000000081526004016102de9190610834565b60405180910390fd5b806103137f360894a13ba1a3210667c828492db98dca3e2076cc3735a920a3ca505d382bbc5f1b610482565b5f015f6101000a81548173ffffffffffffffffffffffffffffffffffffffff021916908373ffffffffffffffffffffffffffffffffffffffff16021790555050565b60605f610362848461048b565b905080801561039857505f61037561049f565b118061039757505f8473ffffffffffffffffffffffffffffffffffffffff163b115b5b156103ad576103a56104a6565b915050610440565b80156103f057836040517f9996b3150000000000000000000000000000000000000000000000000000000081526004016103e79190610834565b60405180910390fd5b5f6103f961049f565b111561040c576104076104c3565b61043e565b6040517fd6bda27500000000000000000000000000000000000000000000000000000000815260040160405180910390fd5b505b92915050565b5f341115610480576040517fb398979f00000000000000000000000000000000000000000000000000000000815260040160405180910390fd5b565b5f819050919050565b5f5f5f835160208501865af4905092915050565b5f3d905090565b606060405190503d81523d5f602083013e3d602001810160405290565b6040513d5f823e3d81fd5b5f604051905090565b5f5ffd5b5f5ffd5b5f73ffffffffffffffffffffffffffffffffffffffff82169050919050565b5f610508826104df565b9050919050565b610518816104fe565b8114610522575f5ffd5b50565b5f813590506105338161050f565b92915050565b5f5ffd5b5f5ffd5b5f601f19601f8301169050919050565b7f4e487b71000000000000000000000000000000000000000000000000000000005f52604160045260245ffd5b61058782610541565b810181811067ffffffffffffffff821117156105a6576105a5610551565b5b80604052505050565b5f6105b86104ce565b90506105c4828261057e565b919050565b5f67ffffffffffffffff8211156105e3576105e2610551565b5b6105ec82610541565b9050602081019050919050565b828183375f83830152505050565b5f610619610614846105c9565b6105af565b9050828152602081018484840111156106355761063461053d565b5b6106408482856105f9565b509392505050565b5f82601f83011261065c5761065b610539565b5b813561066c848260208601610607565b91505092915050565b5f5f6040838503121561068b5761068a6104d7565b5b5f61069885828601610525565b925050602083013567ffffffffffffffff8111156106b9576106b86104db565b5b6106c585828601610648565b9150509250929050565b5f819050919050565b6106e1816106cf565b82525050565b5f6020820190506106fa5f8301846106d8565b92915050565b5f819050919050565b61071281610700565b82525050565b5f60208201905061072b5f830184610709565b92915050565b5f81519050919050565b5f82825260208201905092915050565b8281835e5f83830152505050565b5f61076382610731565b61076d818561073b565b935061077d81856020860161074b565b61078681610541565b840191505092915050565b5f6020820190508181035f8301526107a98184610759565b905092915050565b7f4e487b71000000000000000000000000000000000000000000000000000000005f52601160045260245ffd5b5f6107e882610700565b91507fffffffffffffffffffffffffffffffffffffffffffffffffffffffffffffffff820361081a576108196107b1565b5b600182019050919050565b61082e816104fe565b82525050565b5f6020820190506108475f830184610825565b9291505056fea26469706673582212208c4e1d93b25ec26c1817bab59054b276f40f4af4835941228c2e28403310383964736f6c634300081e0033","linkReferences":{}},"methodIdentifiers":{"UPGRADE_INTERFACE_VERSION()":"ad3cb1cc","current()":"9fa6a6e3","increment()":"d09de08a","proxiableUUID()":"52d1902d","upgradeToAndCall(address,bytes)":"4f1ef286"},"id":277}