{"abi":[{"type":"function","name":"addStake","inputs":[{"name":"entryPoint","type":"address","internalType":"contract IEntryPoint"},{"name":"delay","type":"uint32","internalType":"uint32"}],"outputs":[],"stateMutability":"payable"},{"type":"function","name":"aggregateSignatures","inputs":[{"name":"userOps","type":"tuple[]","internalType":"struct PackedUserOperation[]","components":[{"name":"sender","type":"address","internalType":"address"},{"name":"nonce","type":"uint256","internalType":"uint256"},{"name":"initCode","type":"bytes","internalType":"bytes"},{"name":"callData","type":"bytes","internalType":"bytes"},{"name":"accountGasLimits","type":"bytes32","internalType":"bytes32"},{"name":"preVerificationGas","type":"uint256","internalType":"uint256"},{"name":"gasFees","type":"bytes32","internalType":"bytes32"},{"name":"paymasterAndData","type":"bytes","internalType":"bytes"},{"name":"signature","type":"bytes","internalType":"bytes"}]}],"outputs":[{"name":"aggregatedSignature","type":"bytes","internalType":"bytes"}],"stateMutability":"pure"},{"type":"function","name":"validateSignatures","inputs":[{"name":"userOps","type":"tuple[]","internalType":"struct PackedUserOperation[]","components":[{"name":"sender","type":"address","internalType":"address"},{"name":"nonce","type":"uint256","internalType":"uint256"},{"name":"initCode","type":"bytes","internalType":"bytes"},{"name":"callData","type":"bytes","internalType":"bytes"},{"name":"accountGasLimits","type":"bytes32","internalType":"bytes32"},{"name":"preVerificationGas","type":"uint256","internalType":"uint256"},{"name":"gasFees","type":"bytes32","internalType":"bytes32"},{"name":"paymasterAndData","type":"bytes","internalType":"bytes"},{"name":"signature","type":"bytes","internalType":"bytes"}]},{"name":"signature","type":"bytes","internalType":"bytes"}],"outputs":[],"stateMutability":"pure"},{"type":"function","name":"validateUserOpSignature","inputs":[{"name":"","type":"tuple","internalType":"struct PackedUserOperation","components":[{"name":"sender","type":"address","internalType":"address"},{"name":"nonce","type":"uint256","internalType":"uint256"},{"name":"initCode","type":"bytes","internalType":"bytes"},{"name":"callData","type":"bytes","internalType":"bytes"},{"name":"accountGasLimits","type":"bytes32","internalType":"bytes32"},{"name":"preVerificationGas","type":"uint256","internalType":"uint256"},{"name":"gasFees","type":"bytes32","internalType":"bytes32"},{"name":"paymasterAndData","type":"bytes","internalType":"bytes"},{"name":"signature","type":"bytes","internalType":"bytes"}]}],"outputs":[{"name":"","type":"bytes","internalType":"bytes"}],"stateMutability":"pure"}],"bytecode":{"object":"0x6080604052348015600e575f5ffd5b506109568061001c5f395ff3fe60806040526004361061003e575f3560e01c8063062a422b146100425780632dd811331461007e57806345171159146100a6578063ae574a43146100c2575b5f5ffd5b34801561004d575f5ffd5b506100686004803603810190610063919061032f565b6100fe565b60405161007591906103e6565b60405180910390f35b348015610089575f5ffd5b506100a4600480360381019061009f91906104bc565b610116565b005b6100c060048036038101906100bb91906105de565b610215565b005b3480156100cd575f5ffd5b506100e860048036038101906100e3919061061c565b610281565b6040516100f591906103e6565b60405180910390f35b606060405180602001604052805f8152509050919050565b5f5f90505f5f90505b85859050811015610172575f86868381811061013e5761013d610667565b5b90506020028101906101509190610698565b602001359050808361016291906106f6565b925050808060010191505061011f565b50602083839050146101b9576040517f08c379a00000000000000000000000000000000000000000000000000000000081526004016101b0906107a9565b60405180910390fd5b5f83838101906101c991906107f1565b905081811461020d576040517f08c379a0000000000000000000000000000000000000000000000000000000008152600401610204906108b2565b60405180910390fd5b505050505050565b8173ffffffffffffffffffffffffffffffffffffffff16630396cb6034836040518363ffffffff1660e01b815260040161024f91906108df565b5f604051808303818588803b158015610266575f5ffd5b505af1158015610278573d5f5f3e3d5ffd5b50505050505050565b60605f5f90505f5f90505b848490508110156102da578484828181106102aa576102a9610667565b5b90506020028101906102bc9190610698565b60200135826102cb91906106f6565b9150808060010191505061028c565b50806040516020016102ec9190610907565b60405160208183030381529060405291505092915050565b5f5ffd5b5f5ffd5b5f5ffd5b5f61012082840312156103265761032561030c565b5b81905092915050565b5f6020828403121561034457610343610304565b5b5f82013567ffffffffffffffff81111561036157610360610308565b5b61036d84828501610310565b91505092915050565b5f81519050919050565b5f82825260208201905092915050565b8281835e5f83830152505050565b5f601f19601f8301169050919050565b5f6103b882610376565b6103c28185610380565b93506103d2818560208601610390565b6103db8161039e565b840191505092915050565b5f6020820190508181035f8301526103fe81846103ae565b905092915050565b5f5ffd5b5f5ffd5b5f5ffd5b5f5f83601f84011261042757610426610406565b5b8235905067ffffffffffffffff8111156104445761044361040a565b5b6020830191508360208202830111156104605761045f61040e565b5b9250929050565b5f5f83601f84011261047c5761047b610406565b5b8235905067ffffffffffffffff8111156104995761049861040a565b5b6020830191508360018202830111156104b5576104b461040e565b5b9250929050565b5f5f5f5f604085870312156104d4576104d3610304565b5b5f85013567ffffffffffffffff8111156104f1576104f0610308565b5b6104fd87828801610412565b9450945050602085013567ffffffffffffffff8111156105205761051f610308565b5b61052c87828801610467565b925092505092959194509250565b5f73ffffffffffffffffffffffffffffffffffffffff82169050919050565b5f6105638261053a565b9050919050565b5f61057482610559565b9050919050565b6105848161056a565b811461058e575f5ffd5b50565b5f8135905061059f8161057b565b92915050565b5f63ffffffff82169050919050565b6105bd816105a5565b81146105c7575f5ffd5b50565b5f813590506105d8816105b4565b92915050565b5f5f604083850312156105f4576105f3610304565b5b5f61060185828601610591565b9250506020610612858286016105ca565b9150509250929050565b5f5f6020838503121561063257610631610304565b5b5f83013567ffffffffffffffff81111561064f5761064e610308565b5b61065b85828601610412565b92509250509250929050565b7f4e487b71000000000000000000000000000000000000000000000000000000005f52603260045260245ffd5b5f5ffd5b5f82356001610120038336030381126106b4576106b3610694565b5b80830191505092915050565b5f819050919050565b7f4e487b71000000000000000000000000000000000000000000000000000000005f52601160045260245ffd5b5f610700826106c0565b915061070b836106c0565b9250828201905080821115610723576107226106c9565b5b92915050565b5f82825260208201905092915050565b7f546573745369676e617475726556616c696461746f723a20736967206d7573745f8201527f2062652075696e74323536000000000000000000000000000000000000000000602082015250565b5f610793602b83610729565b915061079e82610739565b604082019050919050565b5f6020820190508181035f8301526107c081610787565b9050919050565b6107d0816106c0565b81146107da575f5ffd5b50565b5f813590506107eb816107c7565b92915050565b5f6020828403121561080657610805610304565b5b5f610813848285016107dd565b91505092915050565b7f546573745369676e617475726556616c696461746f723a2061676772656761745f8201527f6564207369676e6174757265206d69736d6174636820286e6f6e63652073756d60208201527f2900000000000000000000000000000000000000000000000000000000000000604082015250565b5f61089c604183610729565b91506108a78261081c565b606082019050919050565b5f6020820190508181035f8301526108c981610890565b9050919050565b6108d9816105a5565b82525050565b5f6020820190506108f25f8301846108d0565b92915050565b610901816106c0565b82525050565b5f60208201905061091a5f8301846108f8565b9291505056fea2646970667358221220fcb616fad14f5e54a45c5db2293e3796286d3b0023174df8518b11c3aafe7de664736f6c634300081e0033","linkReferences":{}},"methodIdentifiers":{"addStake(address,uint32)":"45171159","aggregateSignatures((address,uint256,bytes,bytes,bytes32,uint256,bytes32,bytes,bytes)[])":"ae574a43","validateSignatures((address,uint256,bytes,bytes,bytes32,uint256,bytes32,bytes,bytes)[],bytes)":"2dd81133","validateUserOpSignature((address,uint256,bytes,bytes,bytes32,uint256,bytes32,bytes,bytes))":"062a422b"},"id":50}