{"abi":[{"type":"function","name":"msgData","inputs":[{"name":"integerValue","type":"uint256","internalType":"uint256"},{"name":"stringValue","type":"string","internalType":"string"}],"outputs":[],"stateMutability":"nonpayable"},{"type":"function","name":"msgDataShort","inputs":[],"outputs":[],"stateMutability":"nonpayable"},{"type":"function","name":"msgSender","inputs":[],"outputs":[],"stateMutability":"nonpayable"},{"type":"event","name":"Data","inputs":[{"name":"data","type":"bytes","indexed":false,"internalType":"bytes"},{"name":"integerValue","type":"uint256","indexed":false,"internalType":"uint256"},{"name":"stringValue","type":"string","indexed":false,"internalType":"string"}],"anonymous":false},{"type":"event","name":"DataShort","inputs":[{"name":"data","type":"bytes","indexed":false,"internalType":"bytes"}],"anonymous":false},{"type":"event","name":"Sender","inputs":[{"name":"sender","type":"address","indexed":false,"internalType":"address"}],"anonymous":false}],"bytecode":{"object":"0x6080604052348015600e575f5ffd5b506104c88061001c5f395ff3fe608060405234801561000f575f5ffd5b506004361061003f575f3560e01c8063376bf26214610043578063d737d0c71461005f578063ff5f6b5914610069575b5f5ffd5b61005d600480360381019061005891906102ce565b610073565b005b6100676100ba565b005b6100716100fa565b005b7faf235354a0a47c91ee171961326335cb2d1a8e55b8a89859b0e61eb049e50ea061009c61013b565b84846040516100ae94939291906103d3565b60405180910390a15050565b7fd6558c3ed910d959271054471fd1c326679d9fece99c5091b00ed89627cf2bfc6100e3610147565b6040516100f09190610457565b60405180910390a1565b7f6d7cec71eba467294d92341ddc4e8634eb4d742a90e16f408f06e4b70bc4cd6661012361013b565b604051610131929190610470565b60405180910390a1565b365f5f36915091509091565b5f33905090565b5f604051905090565b5f5ffd5b5f5ffd5b5f819050919050565b6101718161015f565b811461017b575f5ffd5b50565b5f8135905061018c81610168565b92915050565b5f5ffd5b5f5ffd5b5f601f19601f8301169050919050565b7f4e487b71000000000000000000000000000000000000000000000000000000005f52604160045260245ffd5b6101e08261019a565b810181811067ffffffffffffffff821117156101ff576101fe6101aa565b5b80604052505050565b5f61021161014e565b905061021d82826101d7565b919050565b5f67ffffffffffffffff82111561023c5761023b6101aa565b5b6102458261019a565b9050602081019050919050565b828183375f83830152505050565b5f61027261026d84610222565b610208565b90508281526020810184848401111561028e5761028d610196565b5b610299848285610252565b509392505050565b5f82601f8301126102b5576102b4610192565b5b81356102c5848260208601610260565b91505092915050565b5f5f604083850312156102e4576102e3610157565b5b5f6102f18582860161017e565b925050602083013567ffffffffffffffff8111156103125761031161015b565b5b61031e858286016102a1565b9150509250929050565b5f82825260208201905092915050565b5f6103438385610328565b9350610350838584610252565b6103598361019a565b840190509392505050565b61036d8161015f565b82525050565b5f81519050919050565b5f82825260208201905092915050565b8281835e5f83830152505050565b5f6103a582610373565b6103af818561037d565b93506103bf81856020860161038d565b6103c88161019a565b840191505092915050565b5f6060820190508181035f8301526103ec818688610338565b90506103fb6020830185610364565b818103604083015261040d818461039b565b905095945050505050565b5f73ffffffffffffffffffffffffffffffffffffffff82169050919050565b5f61044182610418565b9050919050565b61045181610437565b82525050565b5f60208201905061046a5f830184610448565b92915050565b5f6020820190508181035f830152610489818486610338565b9050939250505056fea26469706673582212205d327bd6b316000f5f41471ee82da1cc86057ad4df696671e343f19bcb402ac564736f6c634300081e0033","linkReferences":{}},"methodIdentifiers":{"msgData(uint256,string)":"376bf262","msgDataShort()":"ff5f6b59","msgSender()":"d737d0c7"},"id":204}