{"abi":[{"type":"constructor","inputs":[{"name":"anEntryPoint","type":"address","internalType":"contract IEntryPoint"}],"stateMutability":"nonpayable"},{"type":"receive","stateMutability":"payable"},{"type":"function","name":"UPGRADE_INTERFACE_VERSION","inputs":[],"outputs":[{"name":"","type":"string","internalType":"string"}],"stateMutability":"view"},{"type":"function","name":"addDeposit","inputs":[],"outputs":[],"stateMutability":"payable"},{"type":"function","name":"entryPoint","inputs":[],"outputs":[{"name":"","type":"address","internalType":"contract IEntryPoint"}],"stateMutability":"view"},{"type":"function","name":"execute","inputs":[{"name":"target","type":"address","internalType":"address"},{"name":"value","type":"uint256","internalType":"uint256"},{"name":"data","type":"bytes","internalType":"bytes"}],"outputs":[],"stateMutability":"nonpayable"},{"type":"function","name":"executeBatch","inputs":[{"name":"calls","type":"tuple[]","internalType":"struct BaseAccount.Call[]","components":[{"name":"target","type":"address","internalType":"address"},{"name":"value","type":"uint256","internalType":"uint256"},{"name":"data","type":"bytes","internalType":"bytes"}]}],"outputs":[],"stateMutability":"nonpayable"},{"type":"function","name":"executeUserOp","inputs":[{"name":"userOp","type":"tuple","internalType":"struct PackedUserOperation","components":[{"name":"sender","type":"address","internalType":"address"},{"name":"nonce","type":"uint256","internalType":"uint256"},{"name":"initCode","type":"bytes","internalType":"bytes"},{"name":"callData","type":"bytes","internalType":"bytes"},{"name":"accountGasLimits","type":"bytes32","internalType":"bytes32"},{"name":"preVerificationGas","type":"uint256","internalType":"uint256"},{"name":"gasFees","type":"bytes32","internalType":"bytes32"},{"name":"paymasterAndData","type":"bytes","internalType":"bytes"},{"name":"signature","type":"bytes","internalType":"bytes"}]},{"name":"","type":"bytes32","internalType":"bytes32"}],"outputs":[],"stateMutability":"nonpayable"},{"type":"function","name":"getDeposit","inputs":[],"outputs":[{"name":"","type":"uint256","internalType":"uint256"}],"stateMutability":"view"},{"type":"function","name":"getNonce","inputs":[],"outputs":[{"name":"","type":"uint256","internalType":"uint256"}],"stateMutability":"view"},{"type":"function","name":"initialize","inputs":[{"name":"anOwner","type":"address","internalType":"address"}],"outputs":[],"stateMutability":"nonpayable"},{"type":"function","name":"onERC1155BatchReceived","inputs":[{"name":"","type":"address","internalType":"address"},{"name":"","type":"address","internalType":"address"},{"name":"","type":"uint256[]","internalType":"uint256[]"},{"name":"","type":"uint256[]","internalType":"uint256[]"},{"name":"","type":"bytes","internalType":"bytes"}],"outputs":[{"name":"","type":"bytes4","internalType":"bytes4"}],"stateMutability":"pure"},{"type":"function","name":"onERC1155Received","inputs":[{"name":"","type":"address","internalType":"address"},{"name":"","type":"address","internalType":"address"},{"name":"","type":"uint256","internalType":"uint256"},{"name":"","type":"uint256","internalType":"uint256"},{"name":"","type":"bytes","internalType":"bytes"}],"outputs":[{"name":"","type":"bytes4","internalType":"bytes4"}],"stateMutability":"pure"},{"type":"function","name":"onERC721Received","inputs":[{"name":"","type":"address","internalType":"address"},{"name":"","type":"address","internalType":"address"},{"name":"","type":"uint256","internalType":"uint256"},{"name":"","type":"bytes","internalType":"bytes"}],"outputs":[{"name":"","type":"bytes4","internalType":"bytes4"}],"stateMutability":"pure"},{"type":"function","name":"owner","inputs":[],"outputs":[{"name":"","type":"address","internalType":"address"}],"stateMutability":"view"},{"type":"function","name":"proxiableUUID","inputs":[],"outputs":[{"name":"","type":"bytes32","internalType":"bytes32"}],"stateMutability":"view"},{"type":"function","name":"supportsInterface","inputs":[{"name":"interfaceId","type":"bytes4","internalType":"bytes4"}],"outputs":[{"name":"","type":"bool","internalType":"bool"}],"stateMutability":"view"},{"type":"function","name":"upgradeToAndCall","inputs":[{"name":"newImplementation","type":"address","internalType":"address"},{"name":"data","type":"bytes","internalType":"bytes"}],"outputs":[],"stateMutability":"payable"},{"type":"function","name":"validateUserOp","inputs":[{"name":"userOp","type":"tuple","internalType":"struct PackedUserOperation","components":[{"name":"sender","type":"address","internalType":"address"},{"name":"nonce","type":"uint256","internalType":"uint256"},{"name":"initCode","type":"bytes","internalType":"bytes"},{"name":"callData","type":"bytes","internalType":"bytes"},{"name":"accountGasLimits","type":"bytes32","internalType":"bytes32"},{"name":"preVerificationGas","type":"uint256","internalType":"uint256"},{"name":"gasFees","type":"bytes32","internalType":"bytes32"},{"name":"paymasterAndData","type":"bytes","internalType":"bytes"},{"name":"signature","type":"bytes","internalType":"bytes"}]},{"name":"userOpHash","type":"bytes32","internalType":"bytes32"},{"name":"missingAccountFunds","type":"uint256","internalType":"uint256"}],"outputs":[{"name":"validationData","type":"uint256","internalType":"uint256"}],"stateMutability":"nonpayable"},{"type":"function","name":"withdrawDepositTo","inputs":[{"name":"withdrawAddress","type":"address","internalType":"address payable"},{"name":"amount","type":"uint256","internalType":"uint256"}],"outputs":[],"stateMutability":"nonpayable"},{"type":"event","name":"Executed","inputs":[{"name":"userOp","type":"tuple","indexed":false,"internalType":"struct PackedUserOperation","components":[{"name":"sender","type":"address","internalType":"address"},{"name":"nonce","type":"uint256","internalType":"uint256"},{"name":"initCode","type":"bytes","internalType":"bytes"},{"name":"callData","type":"bytes","internalType":"bytes"},{"name":"accountGasLimits","type":"bytes32","internalType":"bytes32"},{"name":"preVerificationGas","type":"uint256","internalType":"uint256"},{"name":"gasFees","type":"bytes32","internalType":"bytes32"},{"name":"paymasterAndData","type":"bytes","internalType":"bytes"},{"name":"signature","type":"bytes","internalType":"bytes"}]},{"name":"innerCallRet","type":"bytes","indexed":false,"internalType":"bytes"}],"anonymous":false},{"type":"event","name":"Initialized","inputs":[{"name":"version","type":"uint64","indexed":false,"internalType":"uint64"}],"anonymous":false},{"type":"event","name":"SimpleAccountInitialized","inputs":[{"name":"entryPoint","type":"address","indexed":true,"internalType":"contract IEntryPoint"},{"name":"owner","type":"address","indexed":true,"internalType":"address"}],"anonymous":false},{"type":"event","name":"Upgraded","inputs":[{"name":"implementation","type":"address","indexed":true,"internalType":"address"}],"anonymous":false},{"type":"error","name":"AddressEmptyCode","inputs":[{"name":"target","type":"address","internalType":"address"}]},{"type":"error","name":"ECDSAInvalidSignature","inputs":[]},{"type":"error","name":"ECDSAInvalidSignatureLength","inputs":[{"name":"length","type":"uint256","internalType":"uint256"}]},{"type":"error","name":"ECDSAInvalidSignatureS","inputs":[{"name":"s","type":"bytes32","internalType":"bytes32"}]},{"type":"error","name":"ERC1967InvalidImplementation","inputs":[{"name":"implementation","type":"address","internalType":"address"}]},{"type":"error","name":"ERC1967NonPayable","inputs":[]},{"type":"error","name":"ExecuteError","inputs":[{"name":"index","type":"uint256","internalType":"uint256"},{"name":"error","type":"bytes","internalType":"bytes"}]},{"type":"error","name":"FailedCall","inputs":[]},{"type":"error","name":"InvalidInitialization","inputs":[]},{"type":"error","name":"NotFromEntryPoint","inputs":[{"name":"msgSender","type":"address","internalType":"address"},{"name":"entity","type":"address","internalType":"address"},{"name":"entryPoint","type":"address","internalType":"address"}]},{"type":"error","name":"NotInitializing","inputs":[]},{"type":"error","name":"NotOwner","inputs":[{"name":"msgSender","type":"address","internalType":"address"},{"name":"entity","type":"address","internalType":"address"},{"name":"owner","type":"address","internalType":"address"}]},{"type":"error","name":"NotOwnerOrEntryPoint","inputs":[{"name":"msgSender","type":"address","internalType":"address"},{"name":"entity","type":"address","internalType":"address"},{"name":"entryPoint","type":"address","internalType":"address"},{"name":"owner","type":"address","internalType":"address"}]},{"type":"error","name":"UUPSUnauthorizedCallContext","inputs":[]},{"type":"error","name":"UUPSUnsupportedProxiableUUID","inputs":[{"name":"slot","type":"bytes32","internalType":"bytes32"}]}],"bytecode":{"object":"0x60c06040523073ffffffffffffffffffffffffffffffffffffffff1660809073ffffffffffffffffffffffffffffffffffffffff16815250348015610042575f5ffd5b50604051612f85380380612f858339818101604052810190610064919061025d565b808073ffffffffffffffffffffffffffffffffffffffff1660a08173ffffffffffffffffffffffffffffffffffffffff16815250506100a76100ae60201b60201c565b50506102c3565b5f6100bd6101ac60201b60201c565b9050805f0160089054906101000a900460ff1615610107576040517ff92ee8a900000000000000000000000000000000000000000000000000000000815260040160405180910390fd5b67ffffffffffffffff8016815f015f9054906101000a900467ffffffffffffffff1667ffffffffffffffff16146101a95767ffffffffffffffff815f015f6101000a81548167ffffffffffffffff021916908367ffffffffffffffff1602179055507fc7f505b2f371ae2175ee4913f4499e1f2633a7b5936321eed1cdaeb6115181d267ffffffffffffffff6040516101a091906102aa565b60405180910390a15b50565b5f5f6101bc6101c560201b60201c565b90508091505090565b5f7ff0c57e16840df040f15088dc2f81fe391c3923bec73e23a9662efc9c229c6a005f1b905090565b5f5ffd5b5f73ffffffffffffffffffffffffffffffffffffffff82169050919050565b5f61021b826101f2565b9050919050565b5f61022c82610211565b9050919050565b61023c81610222565b8114610246575f5ffd5b50565b5f8151905061025781610233565b92915050565b5f60208284031215610272576102716101ee565b5b5f61027f84828501610249565b91505092915050565b5f67ffffffffffffffff82169050919050565b6102a481610288565b82525050565b5f6020820190506102bd5f83018461029b565b92915050565b60805160a051612c936102f25f395f6109ba01525f81816111230152818161117801526113320152612c935ff3fe60806040526004361061010c575f3560e01c80638dd7712f11610094578063bc197c8111610063578063bc197c8114610339578063c399ec8814610375578063c4d66de81461039f578063d087d288146103c7578063f23a6e61146103f157610113565b80638dd7712f14610295578063ad3cb1cc146102bd578063b0d691fe146102e7578063b61d27f61461031157610113565b80634a58db19116100db5780634a58db19146101f35780634d44560d146101fd5780634f1ef2861461022557806352d1902d146102415780638da5cb5b1461026b57610113565b806301ffc9a714610117578063150b7a021461015357806319822f7c1461018f57806334fcd5be146101cb57610113565b3661011357005b5f5ffd5b348015610122575f5ffd5b5061013d60048036038101906101389190611af3565b61042d565b60405161014a9190611b38565b60405180910390f35b34801561015e575f5ffd5b5061017960048036038101906101749190611c3f565b610566565b6040516101869190611cd2565b60405180910390f35b34801561019a575f5ffd5b506101b560048036038101906101b09190611d41565b61057a565b6040516101c29190611dbc565b60405180910390f35b3480156101d6575f5ffd5b506101f160048036038101906101ec9190611e2a565b6105ac565b005b6101fb6106dc565b005b348015610208575f5ffd5b50610223600480360381019061021e9190611eb0565b61074d565b005b61023f600480360381019061023a9190612026565b6107c8565b005b34801561024c575f5ffd5b506102556107e7565b604051610262919061208f565b60405180910390f35b348015610276575f5ffd5b5061027f610818565b60405161028c91906120b7565b60405180910390f35b3480156102a0575f5ffd5b506102bb60048036038101906102b691906120d0565b61083c565b005b3480156102c8575f5ffd5b506102d161097e565b6040516102de919061218a565b60405180910390f35b3480156102f2575f5ffd5b506102fb6109b7565b6040516103089190612205565b60405180910390f35b34801561031c575f5ffd5b506103376004803603810190610332919061221e565b6109de565b005b348015610344575f5ffd5b5061035f600480360381019061035a91906122e4565b610a4d565b60405161036c9190611cd2565b60405180910390f35b348015610380575f5ffd5b50610389610a64565b6040516103969190611dbc565b60405180910390f35b3480156103aa575f5ffd5b506103c560048036038101906103c091906123bb565b610ae9565b005b3480156103d2575f5ffd5b506103db610c6a565b6040516103e89190611dbc565b60405180910390f35b3480156103fc575f5ffd5b50610417600480360381019061041291906123e6565b610cf1565b6040516104249190611cd2565b60405180910390f35b5f7f150b7a02000000000000000000000000000000000000000000000000000000007bffffffffffffffffffffffffffffffffffffffffffffffffffffffff1916827bffffffffffffffffffffffffffffffffffffffffffffffffffffffff191614806104f757507f4e2312e0000000000000000000000000000000000000000000000000000000007bffffffffffffffffffffffffffffffffffffffffffffffffffffffff1916827bffffffffffffffffffffffffffffffffffffffffffffffffffffffff1916145b8061055f57507f01ffc9a7000000000000000000000000000000000000000000000000000000007bffffffffffffffffffffffffffffffffffffffffffffffffffffffff1916827bffffffffffffffffffffffffffffffffffffffffffffffffffffffff1916145b9050919050565b5f63150b7a0260e01b905095945050505050565b5f610583610d06565b61058d8484610d90565b905061059c8460200135610e52565b6105a582610e55565b9392505050565b6105b4610ec9565b5f8282905090505f5f90505b818110156106d657368484838181106105dc576105db61247c565b5b90506020028101906105ee91906124b5565b90505f610663825f01602081019061060691906123bb565b836020013584806040019061061b91906124dc565b8080601f0160208091040260200160405190810160405280939291908181526020018383808284375f81840152601f19601f820116905080830192505050505050505a610fcd565b9050806106c7576001840361067f5761067a610fe4565b6106c6565b826106895f610ff7565b6040517f5a1546750000000000000000000000000000000000000000000000000000000081526004016106bd929190612590565b60405180910390fd5b5b505080806001019150506105c0565b50505050565b6106e46109b7565b73ffffffffffffffffffffffffffffffffffffffff1663b760faf934306040518363ffffffff1660e01b815260040161071d91906120b7565b5f604051808303818588803b158015610734575f5ffd5b505af1158015610746573d5f5f3e3d5ffd5b5050505050565b61075561102f565b61075d6109b7565b73ffffffffffffffffffffffffffffffffffffffff1663205c287883836040518363ffffffff1660e01b81526004016107979291906125cd565b5f604051808303815f87803b1580156107ae575f5ffd5b505af11580156107c0573d5f5f3e3d5ffd5b505050505050565b6107d0611121565b6107d982611207565b6107e38282611212565b5050565b5f6107f0611330565b7f360894a13ba1a3210667c828492db98dca3e2076cc3735a920a3ca505d382bbc5f1b905090565b5f5f9054906101000a900473ffffffffffffffffffffffffffffffffffffffff1681565b610844610ec9565b365f83806060019061085691906124dc565b6004908092610867939291906125fc565b9150915060605f83839050111561093e575f5f84848101906108899190612636565b915091505f8273ffffffffffffffffffffffffffffffffffffffff16826040516108b391906126ca565b5f604051808303815f865af19150503d805f81146108ec576040519150601f19603f3d011682016040523d82523d5f602084013e6108f1565b606091505b5080955081925050508061093a576040517f08c379a00000000000000000000000000000000000000000000000000000000081526004016109319061272a565b60405180910390fd5b5050505b7fd3fddfd1276d1cc278f10907710a44474a32f917b2fcfa198f46ca7689215e2f858260405161096f929190612988565b60405180910390a15050505050565b6040518060400160405280600581526020017f352e302e3000000000000000000000000000000000000000000000000000000081525081565b5f7f0000000000000000000000000000000000000000000000000000000000000000905090565b6109e6610ec9565b5f610a36858585858080601f0160208091040260200160405190810160405280939291908181526020018383808284375f81840152601f19601f820116905080830192505050505050505a610fcd565b905080610a4657610a45610fe4565b5b5050505050565b5f63bc197c8160e01b905098975050505050505050565b5f610a6d6109b7565b73ffffffffffffffffffffffffffffffffffffffff166370a08231306040518263ffffffff1660e01b8152600401610aa591906120b7565b602060405180830381865afa158015610ac0573d5f5f3e3d5ffd5b505050506040513d601f19601f82011682018060405250810190610ae491906129d1565b905090565b5f610af26113b7565b90505f815f0160089054906101000a900460ff161590505f825f015f9054906101000a900467ffffffffffffffff1690505f5f8267ffffffffffffffff16148015610b3a5750825b90505f60018367ffffffffffffffff16148015610b6d57505f3073ffffffffffffffffffffffffffffffffffffffff163b145b905081158015610b7b575080155b15610bb2576040517ff92ee8a900000000000000000000000000000000000000000000000000000000815260040160405180910390fd5b6001855f015f6101000a81548167ffffffffffffffff021916908367ffffffffffffffff1602179055508315610bff576001855f0160086101000a81548160ff0219169083151502179055505b610c08866113ca565b8315610c62575f855f0160086101000a81548160ff0219169083151502179055507fc7f505b2f371ae2175ee4913f4499e1f2633a7b5936321eed1cdaeb6115181d26001604051610c599190612a48565b60405180910390a15b505050505050565b5f610c736109b7565b73ffffffffffffffffffffffffffffffffffffffff166335567e1a305f6040518363ffffffff1660e01b8152600401610cad929190612abd565b602060405180830381865afa158015610cc8573d5f5f3e3d5ffd5b505050506040513d601f19601f82011682018060405250810190610cec91906129d1565b905090565b5f63f23a6e6160e01b90509695505050505050565b610d0e6109b7565b73ffffffffffffffffffffffffffffffffffffffff163373ffffffffffffffffffffffffffffffffffffffff16143330610d466109b7565b909192610d8b576040517ffe34a6d3000000000000000000000000000000000000000000000000000000008152600401610d8293929190612ae4565b60405180910390fd5b505050565b5f610ded8284806101000190610da691906124dc565b8080601f0160208091040260200160405190810160405280939291908181526020018383808284375f81840152601f19601f8201169050808301925050505050505061148d565b73ffffffffffffffffffffffffffffffffffffffff165f5f9054906101000a900473ffffffffffffffffffffffffffffffffffffffff1673ffffffffffffffffffffffffffffffffffffffff1614610e485760019050610e4c565b5f90505b92915050565b50565b5f8114610ec6575f3373ffffffffffffffffffffffffffffffffffffffff1682604051610e8190612b3c565b5f6040518083038185875af1925050503d805f8114610ebb576040519150601f19603f3d011682016040523d82523d5f602084013e610ec0565b606091505b50509050505b50565b610ed16109b7565b73ffffffffffffffffffffffffffffffffffffffff163373ffffffffffffffffffffffffffffffffffffffff161480610f5557505f5f9054906101000a900473ffffffffffffffffffffffffffffffffffffffff1673ffffffffffffffffffffffffffffffffffffffff163373ffffffffffffffffffffffffffffffffffffffff16145b3330610f5f6109b7565b5f5f9054906101000a900473ffffffffffffffffffffffffffffffffffffffff1690919293610fc7576040517f62018a31000000000000000000000000000000000000000000000000000000008152600401610fbe9493929190612b50565b60405180910390fd5b50505050565b5f5f5f845160208601878987f19050949350505050565b610ff5610ff05f610ff7565b6114b7565b565b60603d5f83111561100f578281111561100e578290505b5b604051602082018101604052818152815f602083013e8092505050919050565b5f5f9054906101000a900473ffffffffffffffffffffffffffffffffffffffff1673ffffffffffffffffffffffffffffffffffffffff163373ffffffffffffffffffffffffffffffffffffffff1614806110b457503073ffffffffffffffffffffffffffffffffffffffff163373ffffffffffffffffffffffffffffffffffffffff16145b33305f5f9054906101000a900473ffffffffffffffffffffffffffffffffffffffff1690919261111c576040517fcbce04d800000000000000000000000000000000000000000000000000000000815260040161111393929190612ae4565b60405180910390fd5b505050565b7f000000000000000000000000000000000000000000000000000000000000000073ffffffffffffffffffffffffffffffffffffffff163073ffffffffffffffffffffffffffffffffffffffff1614806111ce57507f000000000000000000000000000000000000000000000000000000000000000073ffffffffffffffffffffffffffffffffffffffff166111b56114bf565b73ffffffffffffffffffffffffffffffffffffffff1614155b15611205576040517fe07c8dba00000000000000000000000000000000000000000000000000000000815260040160405180910390fd5b565b61120f61102f565b50565b8173ffffffffffffffffffffffffffffffffffffffff166352d1902d6040518163ffffffff1660e01b8152600401602060405180830381865afa92505050801561127a57506040513d601f19601f820116820180604052508101906112779190612ba7565b60015b6112bb57816040517f4c9c8ce30000000000000000000000000000000000000000000000000000000081526004016112b291906120b7565b60405180910390fd5b7f360894a13ba1a3210667c828492db98dca3e2076cc3735a920a3ca505d382bbc5f1b811461132157806040517faa1d49a4000000000000000000000000000000000000000000000000000000008152600401611318919061208f565b60405180910390fd5b61132b8383611512565b505050565b7f000000000000000000000000000000000000000000000000000000000000000073ffffffffffffffffffffffffffffffffffffffff163073ffffffffffffffffffffffffffffffffffffffff16146113b5576040517fe07c8dba00000000000000000000000000000000000000000000000000000000815260040160405180910390fd5b565b5f5f6113c1611584565b90508091505090565b805f5f6101000a81548173ffffffffffffffffffffffffffffffffffffffff021916908373ffffffffffffffffffffffffffffffffffffffff1602179055505f5f9054906101000a900473ffffffffffffffffffffffffffffffffffffffff1673ffffffffffffffffffffffffffffffffffffffff166114486109b7565b73ffffffffffffffffffffffffffffffffffffffff167f47e55c76e7a6f1fd8996a1da8008c1ea29699cca35e7bcd057f2dec313b6e5de60405160405180910390a350565b5f5f5f5f61149b86866115ad565b9250925092506114ab8282611602565b82935050505092915050565b805160208201fd5b5f6114eb7f360894a13ba1a3210667c828492db98dca3e2076cc3735a920a3ca505d382bbc5f1b611764565b5f015f9054906101000a900473ffffffffffffffffffffffffffffffffffffffff16905090565b61151b8261176d565b8173ffffffffffffffffffffffffffffffffffffffff167fbc7cd75a20ee27fd9adebab32041f755214dbc6bffa90cc0225b39da2e5c2d3b60405160405180910390a25f81511115611577576115718282611836565b50611580565b61157f611927565b5b5050565b5f7ff0c57e16840df040f15088dc2f81fe391c3923bec73e23a9662efc9c229c6a005f1b905090565b5f5f5f60418451036115ed575f5f5f602087015192506040870151915060608701515f1a90506115df88828585611963565b9550955095505050506115fb565b5f600285515f1b9250925092505b9250925092565b5f600381111561161557611614612bd2565b5b82600381111561162857611627612bd2565b5b0315611760576001600381111561164257611641612bd2565b5b82600381111561165557611654612bd2565b5b0361168c576040517ff645eedf00000000000000000000000000000000000000000000000000000000815260040160405180910390fd5b600260038111156116a05761169f612bd2565b5b8260038111156116b3576116b2612bd2565b5b036116f757805f1c6040517ffce698f70000000000000000000000000000000000000000000000000000000081526004016116ee9190611dbc565b60405180910390fd5b60038081111561170a57611709612bd2565b5b82600381111561171d5761171c612bd2565b5b0361175f57806040517fd78bce0c000000000000000000000000000000000000000000000000000000008152600401611756919061208f565b60405180910390fd5b5b5050565b5f819050919050565b5f8173ffffffffffffffffffffffffffffffffffffffff163b036117c857806040517f4c9c8ce30000000000000000000000000000000000000000000000000000000081526004016117bf91906120b7565b60405180910390fd5b806117f47f360894a13ba1a3210667c828492db98dca3e2076cc3735a920a3ca505d382bbc5f1b611764565b5f015f6101000a81548173ffffffffffffffffffffffffffffffffffffffff021916908373ffffffffffffffffffffffffffffffffffffffff16021790555050565b60605f6118438484611a4a565b905080801561187957505f611856611a5e565b118061187857505f8473ffffffffffffffffffffffffffffffffffffffff163b115b5b1561188e57611886611a65565b915050611921565b80156118d157836040517f9996b3150000000000000000000000000000000000000000000000000000000081526004016118c891906120b7565b60405180910390fd5b5f6118da611a5e565b11156118ed576118e8611a82565b61191f565b6040517fd6bda27500000000000000000000000000000000000000000000000000000000815260040160405180910390fd5b505b92915050565b5f341115611961576040517fb398979f00000000000000000000000000000000000000000000000000000000815260040160405180910390fd5b565b5f5f5f7f7fffffffffffffffffffffffffffffff5d576e7357a4501ddfe92f46681b20a0845f1c111561199f575f600385925092509250611a40565b5f6001888888886040515f81526020016040526040516119c29493929190612c1a565b6020604051602081039080840390855afa1580156119e2573d5f5f3e3d5ffd5b5050506020604051035190505f73ffffffffffffffffffffffffffffffffffffffff168173ffffffffffffffffffffffffffffffffffffffff1603611a33575f60015f5f1b93509350935050611a40565b805f5f5f1b935093509350505b9450945094915050565b5f5f5f835160208501865af4905092915050565b5f3d905090565b606060405190503d81523d5f602083013e3d602001810160405290565b6040513d5f823e3d81fd5b5f604051905090565b5f5ffd5b5f5ffd5b5f7fffffffff0000000000000000000000000000000000000000000000000000000082169050919050565b611ad281611a9e565b8114611adc575f5ffd5b50565b5f81359050611aed81611ac9565b92915050565b5f60208284031215611b0857611b07611a96565b5b5f611b1584828501611adf565b91505092915050565b5f8115159050919050565b611b3281611b1e565b82525050565b5f602082019050611b4b5f830184611b29565b92915050565b5f73ffffffffffffffffffffffffffffffffffffffff82169050919050565b5f611b7a82611b51565b9050919050565b611b8a81611b70565b8114611b94575f5ffd5b50565b5f81359050611ba581611b81565b92915050565b5f819050919050565b611bbd81611bab565b8114611bc7575f5ffd5b50565b5f81359050611bd881611bb4565b92915050565b5f5ffd5b5f5ffd5b5f5ffd5b5f5f83601f840112611bff57611bfe611bde565b5b8235905067ffffffffffffffff811115611c1c57611c1b611be2565b5b602083019150836001820283011115611c3857611c37611be6565b5b9250929050565b5f5f5f5f5f60808688031215611c5857611c57611a96565b5b5f611c6588828901611b97565b9550506020611c7688828901611b97565b9450506040611c8788828901611bca565b935050606086013567ffffffffffffffff811115611ca857611ca7611a9a565b5b611cb488828901611bea565b92509250509295509295909350565b611ccc81611a9e565b82525050565b5f602082019050611ce55f830184611cc3565b92915050565b5f5ffd5b5f6101208284031215611d0557611d04611ceb565b5b81905092915050565b5f819050919050565b611d2081611d0e565b8114611d2a575f5ffd5b50565b5f81359050611d3b81611d17565b92915050565b5f5f5f60608486031215611d5857611d57611a96565b5b5f84013567ffffffffffffffff811115611d7557611d74611a9a565b5b611d8186828701611cef565b9350506020611d9286828701611d2d565b9250506040611da386828701611bca565b9150509250925092565b611db681611bab565b82525050565b5f602082019050611dcf5f830184611dad565b92915050565b5f5f83601f840112611dea57611de9611bde565b5b8235905067ffffffffffffffff811115611e0757611e06611be2565b5b602083019150836020820283011115611e2357611e22611be6565b5b9250929050565b5f5f60208385031215611e4057611e3f611a96565b5b5f83013567ffffffffffffffff811115611e5d57611e5c611a9a565b5b611e6985828601611dd5565b92509250509250929050565b5f611e7f82611b51565b9050919050565b611e8f81611e75565b8114611e99575f5ffd5b50565b5f81359050611eaa81611e86565b92915050565b5f5f60408385031215611ec657611ec5611a96565b5b5f611ed385828601611e9c565b9250506020611ee485828601611bca565b9150509250929050565b5f5ffd5b5f601f19601f8301169050919050565b7f4e487b71000000000000000000000000000000000000000000000000000000005f52604160045260245ffd5b611f3882611ef2565b810181811067ffffffffffffffff82111715611f5757611f56611f02565b5b80604052505050565b5f611f69611a8d565b9050611f758282611f2f565b919050565b5f67ffffffffffffffff821115611f9457611f93611f02565b5b611f9d82611ef2565b9050602081019050919050565b828183375f83830152505050565b5f611fca611fc584611f7a565b611f60565b905082815260208101848484011115611fe657611fe5611eee565b5b611ff1848285611faa565b509392505050565b5f82601f83011261200d5761200c611bde565b5b813561201d848260208601611fb8565b91505092915050565b5f5f6040838503121561203c5761203b611a96565b5b5f61204985828601611b97565b925050602083013567ffffffffffffffff81111561206a57612069611a9a565b5b61207685828601611ff9565b9150509250929050565b61208981611d0e565b82525050565b5f6020820190506120a25f830184612080565b92915050565b6120b181611b70565b82525050565b5f6020820190506120ca5f8301846120a8565b92915050565b5f5f604083850312156120e6576120e5611a96565b5b5f83013567ffffffffffffffff81111561210357612102611a9a565b5b61210f85828601611cef565b925050602061212085828601611d2d565b9150509250929050565b5f81519050919050565b5f82825260208201905092915050565b8281835e5f83830152505050565b5f61215c8261212a565b6121668185612134565b9350612176818560208601612144565b61217f81611ef2565b840191505092915050565b5f6020820190508181035f8301526121a28184612152565b905092915050565b5f819050919050565b5f6121cd6121c86121c384611b51565b6121aa565b611b51565b9050919050565b5f6121de826121b3565b9050919050565b5f6121ef826121d4565b9050919050565b6121ff816121e5565b82525050565b5f6020820190506122185f8301846121f6565b92915050565b5f5f5f5f6060858703121561223657612235611a96565b5b5f61224387828801611b97565b945050602061225487828801611bca565b935050604085013567ffffffffffffffff81111561227557612274611a9a565b5b61228187828801611bea565b925092505092959194509250565b5f5f83601f8401126122a4576122a3611bde565b5b8235905067ffffffffffffffff8111156122c1576122c0611be2565b5b6020830191508360208202830111156122dd576122dc611be6565b5b9250929050565b5f5f5f5f5f5f5f5f60a0898b031215612300576122ff611a96565b5b5f61230d8b828c01611b97565b985050602061231e8b828c01611b97565b975050604089013567ffffffffffffffff81111561233f5761233e611a9a565b5b61234b8b828c0161228f565b9650965050606089013567ffffffffffffffff81111561236e5761236d611a9a565b5b61237a8b828c0161228f565b9450945050608089013567ffffffffffffffff81111561239d5761239c611a9a565b5b6123a98b828c01611bea565b92509250509295985092959890939650565b5f602082840312156123d0576123cf611a96565b5b5f6123dd84828501611b97565b91505092915050565b5f5f5f5f5f5f60a08789031215612400576123ff611a96565b5b5f61240d89828a01611b97565b965050602061241e89828a01611b97565b955050604061242f89828a01611bca565b945050606061244089828a01611bca565b935050608087013567ffffffffffffffff81111561246157612460611a9a565b5b61246d89828a01611bea565b92509250509295509295509295565b7f4e487b71000000000000000000000000000000000000000000000000000000005f52603260045260245ffd5b5f5ffd5b5f5ffd5b5f5ffd5b5f823560016060038336030381126124d0576124cf6124a9565b5b80830191505092915050565b5f5f833560016020038436030381126124f8576124f76124a9565b5b80840192508235915067ffffffffffffffff82111561251a576125196124ad565b5b602083019250600182023603831315612536576125356124b1565b5b509250929050565b5f81519050919050565b5f82825260208201905092915050565b5f6125628261253e565b61256c8185612548565b935061257c818560208601612144565b61258581611ef2565b840191505092915050565b5f6040820190506125a35f830185611dad565b81810360208301526125b58184612558565b90509392505050565b6125c781611e75565b82525050565b5f6040820190506125e05f8301856125be565b6125ed6020830184611dad565b9392505050565b5f5ffd5b5f5ffd5b5f5f8585111561260f5761260e6125f4565b5b838611156126205761261f6125f8565b5b6001850283019150848603905094509492505050565b5f5f6040838503121561264c5761264b611a96565b5b5f61265985828601611e9c565b925050602083013567ffffffffffffffff81111561267a57612679611a9a565b5b61268685828601611ff9565b9150509250929050565b5f81905092915050565b5f6126a48261253e565b6126ae8185612690565b93506126be818560208601612144565b80840191505092915050565b5f6126d5828461269a565b915081905092915050565b7f696e6e65722063616c6c206661696c65640000000000000000000000000000005f82015250565b5f612714601183612134565b915061271f826126e0565b602082019050919050565b5f6020820190508181035f83015261274181612708565b9050919050565b5f6127566020840184611b97565b905092915050565b61276781611b70565b82525050565b5f61277b6020840184611bca565b905092915050565b61278c81611bab565b82525050565b5f5ffd5b5f5ffd5b5f5ffd5b5f5f833560016020038436030381126127ba576127b961279a565b5b83810192508235915060208301925067ffffffffffffffff8211156127e2576127e1612792565b5b6001820236038313156127f8576127f7612796565b5b509250929050565b5f82825260208201905092915050565b5f61281b8385612800565b9350612828838584611faa565b61283183611ef2565b840190509392505050565b5f61284a6020840184611d2d565b905092915050565b61285b81611d0e565b82525050565b5f61012083016128735f840184612748565b61287f5f86018261275e565b5061288d602084018461276d565b61289a6020860182612783565b506128a8604084018461279e565b85830360408701526128bb838284612810565b925050506128cc606084018461279e565b85830360608701526128df838284612810565b925050506128f0608084018461283c565b6128fd6080860182612852565b5061290b60a084018461276d565b61291860a0860182612783565b5061292660c084018461283c565b61293360c0860182612852565b5061294160e084018461279e565b85830360e0870152612954838284612810565b9250505061296661010084018461279e565b85830361010087015261297a838284612810565b925050508091505092915050565b5f6040820190508181035f8301526129a08185612861565b905081810360208301526129b48184612558565b90509392505050565b5f815190506129cb81611bb4565b92915050565b5f602082840312156129e6576129e5611a96565b5b5f6129f3848285016129bd565b91505092915050565b5f819050919050565b5f67ffffffffffffffff82169050919050565b5f612a32612a2d612a28846129fc565b6121aa565b612a05565b9050919050565b612a4281612a18565b82525050565b5f602082019050612a5b5f830184612a39565b92915050565b5f819050919050565b5f77ffffffffffffffffffffffffffffffffffffffffffffffff82169050919050565b5f612aa7612aa2612a9d84612a61565b6121aa565b612a6a565b9050919050565b612ab781612a8d565b82525050565b5f604082019050612ad05f8301856120a8565b612add6020830184612aae565b9392505050565b5f606082019050612af75f8301866120a8565b612b0460208301856120a8565b612b1160408301846120a8565b949350505050565b50565b5f612b275f83612690565b9150612b3282612b19565b5f82019050919050565b5f612b4682612b1c565b9150819050919050565b5f608082019050612b635f8301876120a8565b612b7060208301866120a8565b612b7d60408301856120a8565b612b8a60608301846120a8565b95945050505050565b5f81519050612ba181611d17565b92915050565b5f60208284031215612bbc57612bbb611a96565b5b5f612bc984828501612b93565b91505092915050565b7f4e487b71000000000000000000000000000000000000000000000000000000005f52602160045260245ffd5b5f60ff82169050919050565b612c1481612bff565b82525050565b5f608082019050612c2d5f830187612080565b612c3a6020830186612c0b565b612c476040830185612080565b612c546060830184612080565b9594505050505056fea264697066735822122079941780a1e3618d8577aab2b721bd3f7cab595d335167b5eadd699142c1498f64736f6c634300081e0033","linkReferences":{}},"methodIdentifiers":{"UPGRADE_INTERFACE_VERSION()":"ad3cb1cc","addDeposit()":"4a58db19","entryPoint()":"b0d691fe","execute(address,uint256,bytes)":"b61d27f6","executeBatch((address,uint256,bytes)[])":"34fcd5be","executeUserOp((address,uint256,bytes,bytes,bytes32,uint256,bytes32,bytes,bytes),bytes32)":"8dd7712f","getDeposit()":"c399ec88","getNonce()":"d087d288","initialize(address)":"c4d66de8","onERC1155BatchReceived(address,address,uint256[],uint256[],bytes)":"bc197c81","onERC1155Received(address,address,uint256,uint256,bytes)":"f23a6e61","onERC721Received(address,address,uint256,bytes)":"150b7a02","owner()":"8da5cb5b","proxiableUUID()":"52d1902d","supportsInterface(bytes4)":"01ffc9a7","upgradeToAndCall(address,bytes)":"4f1ef286","validateUserOp((address,uint256,bytes,bytes,bytes32,uint256,bytes32,bytes,bytes),bytes32,uint256)":"19822f7c","withdrawDepositTo(address,uint256)":"4d44560d"},"id":40}