{"abi":[{"type":"function","name":"_calldataKeccakWithSuffix","inputs":[{"name":"data","type":"bytes","internalType":"bytes"},{"name":"len","type":"uint256","internalType":"uint256"},{"name":"suffix","type":"bytes8","internalType":"bytes8"}],"outputs":[{"name":"ret","type":"bytes32","internalType":"bytes32"}],"stateMutability":"pure"},{"type":"function","name":"encodePaymasterSignature","inputs":[{"name":"paymasterSignature","type":"bytes","internalType":"bytes"}],"outputs":[{"name":"","type":"bytes","internalType":"bytes"}],"stateMutability":"pure"},{"type":"function","name":"getPaymasterSignatureLength","inputs":[{"name":"paymasterAndData","type":"bytes","internalType":"bytes"}],"outputs":[{"name":"paymasterSignatureLength","type":"uint256","internalType":"uint256"}],"stateMutability":"pure"},{"type":"function","name":"getPaymasterSignatureWithLength","inputs":[{"name":"paymasterAndData","type":"bytes","internalType":"bytes"},{"name":"paymasterSignatureLength","type":"uint256","internalType":"uint256"}],"outputs":[{"name":"","type":"bytes","internalType":"bytes"}],"stateMutability":"pure"},{"type":"function","name":"packValidationData","inputs":[{"name":"sigFailed","type":"bool","internalType":"bool"},{"name":"validUntil","type":"uint48","internalType":"uint48"},{"name":"validAfter","type":"uint48","internalType":"uint48"}],"outputs":[{"name":"","type":"uint256","internalType":"uint256"}],"stateMutability":"pure"},{"type":"function","name":"packValidationDataStruct","inputs":[{"name":"data","type":"tuple","internalType":"struct ValidationData","components":[{"name":"aggregator","type":"address","internalType":"address"},{"name":"validAfter","type":"uint48","internalType":"uint48"},{"name":"validUntil","type":"uint48","internalType":"uint48"}]}],"outputs":[{"name":"","type":"uint256","internalType":"uint256"}],"stateMutability":"pure"},{"type":"function","name":"parseValidationData","inputs":[{"name":"validationData","type":"uint256","internalType":"uint256"}],"outputs":[{"name":"","type":"tuple","internalType":"struct ValidationData","components":[{"name":"aggregator","type":"address","internalType":"address"},{"name":"validAfter","type":"uint48","internalType":"uint48"},{"name":"validUntil","type":"uint48","internalType":"uint48"}]}],"stateMutability":"pure"},{"type":"error","name":"InvalidPaymasterSignatureLength","inputs":[{"name":"dataLength","type":"uint256","internalType":"uint256"},{"name":"pmSignatureLength","type":"uint256","internalType":"uint256"}]}],"bytecode":{"object":"0x6080604052348015600e575f5ffd5b50610e238061001c5f395ff3fe608060405234801561000f575f5ffd5b506004361061007b575f3560e01c80636f10fde7116100595780636f10fde714610110578063a4b2282e14610140578063b059e2fa14610170578063f53f89cd146101a05761007b565b806324d3cde61461007f57806349d97f09146100af5780635f000717146100e0575b5f5ffd5b61009960048036038101906100949190610735565b6101d0565b6040516100a69190610778565b60405180910390f35b6100c960048036038101906100c4919061081c565b6101e1565b6040516100d79291906108c3565b60405180910390f35b6100fa60048036038101906100f591906108e5565b6101fa565b6040516101079190610980565b60405180910390f35b61012a600480360381019061012591906108e5565b61020e565b6040516101379190610778565b60405180910390f35b61015a600480360381019061015591906109a0565b610221565b6040516101679190610a29565b60405180910390f35b61018a60048036038101906101859190610a77565b610239565b6040516101979190610778565b60405180910390f35b6101ba60048036038101906101b59190610b1c565b61024e565b6040516101c79190610ba5565b60405180910390f35b5f6101da82610265565b9050919050565b365f6101ee8585856102ab565b91509150935093915050565b60606102068383610308565b905092915050565b5f610219838361036a565b905092915050565b61022961055e565b61023282610489565b9050919050565b5f610245848484610509565b90509392505050565b5f61025b8585858561053d565b9050949350505050565b5f60d0826020015165ffffffffffff16901b60a0836040015165ffffffffffff16901b835f015173ffffffffffffffffffffffffffffffffffffffff1617179050919050565b365f5f83036102cf5784845f905f926102c693929190610bc6565b91509150610300565b5f8585905090505f6002600801820390505f85820390508787829084926102f893929190610bc6565b945094505050505b935093915050565b60605f8383905090505f810361032f5760405180602001604052805f815250915050610364565b8383826722e325a29743965660c01b6040516020016103519493929190610c8f565b6040516020818303038152906040529150505b92915050565b5f5f838390509050600260080160340181101561038a575f915050610483565b5f8484600884039084926103a093929190610bc6565b906103ab9190610cdf565b90506722e325a29743965660c01b77ffffffffffffffffffffffffffffffffffffffffffffffff19168177ffffffffffffffffffffffffffffffffffffffffffffffff1916146103ff575f92505050610483565b5f85856002600801850390809261041893929190610bc6565b906104239190610d68565b60f01c61ffff1690506002600801603401830381111561047c5782816040517f07b9a191000000000000000000000000000000000000000000000000000000008152600401610473929190610dc6565b60405180910390fd5b8093505050505b92915050565b61049161055e565b5f8290505f60a084901c90505f8165ffffffffffff16036104b65765ffffffffffff90505b5f60d085901c905060405180606001604052808473ffffffffffffffffffffffffffffffffffffffff1681526020018265ffffffffffff1681526020018365ffffffffffff168152509350505050919050565b5f60d08265ffffffffffff16901b60a08465ffffffffffff16901b8561052f575f610532565b60015b171790509392505050565b5f604051838682378284820152600884019350838120915050949350505050565b60405180606001604052805f73ffffffffffffffffffffffffffffffffffffffff1681526020015f65ffffffffffff1681526020015f65ffffffffffff1681525090565b5f604051905090565b5f5ffd5b5f5ffd5b5f5ffd5b5f601f19601f8301169050919050565b7f4e487b71000000000000000000000000000000000000000000000000000000005f52604160045260245ffd5b6105fd826105b7565b810181811067ffffffffffffffff8211171561061c5761061b6105c7565b5b80604052505050565b5f61062e6105a2565b905061063a82826105f4565b919050565b5f73ffffffffffffffffffffffffffffffffffffffff82169050919050565b5f6106688261063f565b9050919050565b6106788161065e565b8114610682575f5ffd5b50565b5f813590506106938161066f565b92915050565b5f65ffffffffffff82169050919050565b6106b381610699565b81146106bd575f5ffd5b50565b5f813590506106ce816106aa565b92915050565b5f606082840312156106e9576106e86105b3565b5b6106f36060610625565b90505f61070284828501610685565b5f830152506020610715848285016106c0565b6020830152506040610729848285016106c0565b60408301525092915050565b5f6060828403121561074a576107496105ab565b5b5f610757848285016106d4565b91505092915050565b5f819050919050565b61077281610760565b82525050565b5f60208201905061078b5f830184610769565b92915050565b5f5ffd5b5f5ffd5b5f5ffd5b5f5f83601f8401126107b2576107b1610791565b5b8235905067ffffffffffffffff8111156107cf576107ce610795565b5b6020830191508360018202830111156107eb576107ea610799565b5b9250929050565b6107fb81610760565b8114610805575f5ffd5b50565b5f81359050610816816107f2565b92915050565b5f5f5f60408486031215610833576108326105ab565b5b5f84013567ffffffffffffffff8111156108505761084f6105af565b5b61085c8682870161079d565b9350935050602061086f86828701610808565b9150509250925092565b5f82825260208201905092915050565b828183375f83830152505050565b5f6108a28385610879565b93506108af838584610889565b6108b8836105b7565b840190509392505050565b5f6020820190508181035f8301526108dc818486610897565b90509392505050565b5f5f602083850312156108fb576108fa6105ab565b5b5f83013567ffffffffffffffff811115610918576109176105af565b5b6109248582860161079d565b92509250509250929050565b5f81519050919050565b8281835e5f83830152505050565b5f61095282610930565b61095c8185610879565b935061096c81856020860161093a565b610975816105b7565b840191505092915050565b5f6020820190508181035f8301526109988184610948565b905092915050565b5f602082840312156109b5576109b46105ab565b5b5f6109c284828501610808565b91505092915050565b6109d48161065e565b82525050565b6109e381610699565b82525050565b606082015f8201516109fd5f8501826109cb565b506020820151610a1060208501826109da565b506040820151610a2360408501826109da565b50505050565b5f606082019050610a3c5f8301846109e9565b92915050565b5f8115159050919050565b610a5681610a42565b8114610a60575f5ffd5b50565b5f81359050610a7181610a4d565b92915050565b5f5f5f60608486031215610a8e57610a8d6105ab565b5b5f610a9b86828701610a63565b9350506020610aac868287016106c0565b9250506040610abd868287016106c0565b9150509250925092565b5f7fffffffffffffffff00000000000000000000000000000000000000000000000082169050919050565b610afb81610ac7565b8114610b05575f5ffd5b50565b5f81359050610b1681610af2565b92915050565b5f5f5f5f60608587031215610b3457610b336105ab565b5b5f85013567ffffffffffffffff811115610b5157610b506105af565b5b610b5d8782880161079d565b94509450506020610b7087828801610808565b9250506040610b8187828801610b08565b91505092959194509250565b5f819050919050565b610b9f81610b8d565b82525050565b5f602082019050610bb85f830184610b96565b92915050565b5f5ffd5b5f5ffd5b5f5f85851115610bd957610bd8610bbe565b5b83861115610bea57610be9610bc2565b5b6001850283019150848603905094509492505050565b5f81905092915050565b5f610c158385610c00565b9350610c22838584610889565b82840190509392505050565b5f61ffff82169050919050565b5f8160f01b9050919050565b5f610c5182610c3b565b9050919050565b610c69610c6482610c2e565b610c47565b82525050565b5f819050919050565b610c89610c8482610ac7565b610c6f565b82525050565b5f610c9b828688610c0a565b9150610ca78285610c58565b600282019150610cb78284610c78565b60088201915081905095945050505050565b5f82905092915050565b5f82821b905092915050565b5f610cea8383610cc9565b82610cf58135610ac7565b92506008821015610d3557610d307fffffffffffffffff00000000000000000000000000000000000000000000000083600803600802610cd3565b831692505b505092915050565b5f7fffff00000000000000000000000000000000000000000000000000000000000082169050919050565b5f610d738383610cc9565b82610d7e8135610d3d565b92506002821015610dbe57610db97fffff00000000000000000000000000000000000000000000000000000000000083600203600802610cd3565b831692505b505092915050565b5f604082019050610dd95f830185610769565b610de66020830184610769565b939250505056fea26469706673582212202159c301d0dc41c691d14f90776fe9969b36796ae24060de696dc28c8e1b230f64736f6c634300081e0033","linkReferences":{}},"methodIdentifiers":{"_calldataKeccakWithSuffix(bytes,uint256,bytes8)":"f53f89cd","encodePaymasterSignature(bytes)":"5f000717","getPaymasterSignatureLength(bytes)":"6f10fde7","getPaymasterSignatureWithLength(bytes,uint256)":"49d97f09","packValidationData(bool,uint48,uint48)":"b059e2fa","packValidationDataStruct((address,uint48,uint48))":"24d3cde6","parseValidationData(uint256)":"a4b2282e"},"id":44}