{"abi":[{"type":"function","name":"verify","inputs":[{"name":"key","type":"bytes","internalType":"bytes"},{"name":"hash","type":"bytes32","internalType":"bytes32"},{"name":"signature","type":"bytes","internalType":"bytes"}],"outputs":[{"name":"","type":"bytes4","internalType":"bytes4"}],"stateMutability":"view"}],"bytecode":{"object":"0x6080604052348015600e575f5ffd5b50610ba18061001c5f395ff3fe608060405234801561000f575f5ffd5b5060043610610029575f3560e01c8063024ad3181461002d575b5f5ffd5b610047600480360381019061004291906106cb565b61005d565b6040516100549190610796565b60405180910390f35b5f5f5f878781019061006f91906108e7565b915091506100e186604051602001610087919061097d565b60405160208183030381529060405286868080601f0160208091040260200160405190810160405280939291908181526020018383808284375f81840152601f19601f820116905080830192505050505050508484610108565b6100f25763ffffffff60e01b6100fb565b63024ad31860e01b5b9250505095945050505050565b5f61016260028660405161011c91906109e9565b602060405180830381855afa158015610137573d5f5f3e3d5ffd5b5050506040513d601f19601f8201168201806040525081019061015a9190610a13565b85858561016c565b9050949350505050565b5f5f82519050610100811080610183575084518114155b15610191575f91505061042b565b5f5f90505b81811015610208575f6101ac8260208503610433565b90505f6101b98883610449565b90505f6101c68784610449565b9050808210156101d857505050610208565b808211806101e857506020850383145b156101fa575f9550505050505061042b565b505050602081019050610196565b505f610215868686610459565b90505f5f5f603160f81b61022c8560328803610449565b7effffffffffffffffffffffffffffffffffffffffffffffffffffffffffffff1916036102a557603490507e3031300d0609608648016503040201050004200000000000000000000000005f1b92507fffffffffffffffffffffffffffffffffffffffff0000000000000000000000005f1b915061033e565b602f60f81b6102b78560308803610449565b7effffffffffffffffffffffffffffffffffffffffffffffffffffffffffffff19160361033057603290507e302f300b0609608648016503040201042000000000000000000000000000005f1b92507fffffffffffffffffffffffffffffffffffff00000000000000000000000000005f1b915061033d565b5f9550505050505061042b565b5b5f81860390505f600290505b818110156103a25760ff60f81b6103618783610449565b7effffffffffffffffffffffffffffffffffffffffffffffffffffffffffffff191614610397575f97505050505050505061042b565b80600101905061034a565b506103ad855f610449565b7dffffffffffffffffffffffffffffffffffffffffffffffffffffffffffff1916600160f01b7dffffffffffffffffffffffffffffffffffffffffffffffffffffffffffff191614801561040b5750826104078683610449565b1684145b8015610422575061041f8560208803610449565b8b145b96505050505050505b949350505050565b5f6104418284108484610488565b905092915050565b5f81602084010151905092915050565b60605f5f6104688686866104a1565b915091508161047c5761047b601261055f565b5b80925050509392505050565b5f61049284610570565b82841802821890509392505050565b5f60606104ad8361057b565b15610509575f5f67ffffffffffffffff8111156104cd576104cc6107c3565b5b6040519080825280601f01601f1916602001820160405280156104ff5781602001600182028036833780820191505090505b5091509150610557565b5f83519050855185518288888860405160200161052b96959493929190610a67565b604051602081830303815290604052915060208201818184518360055afa935081835281810160405250505b935093915050565b634e487b715f52806020526024601cfd5b5f8115159050919050565b5f5f5f5f90505b83518110156105de578060208501015191505f6105ac6020836105a59190610af7565b86516105ea565b60086105b89190610b2a565b83901c146105ca575f925050506105e5565b6020816105d79190610af7565b9050610582565b5060019150505b919050565b5f5f6105f68484610603565b9150508091505092915050565b5f5f5f838503905084811115925061061a83610570565b81029150509250929050565b5f604051905090565b5f5ffd5b5f5ffd5b5f5ffd5b5f5ffd5b5f5ffd5b5f5f83601f84011261065857610657610637565b5b8235905067ffffffffffffffff8111156106755761067461063b565b5b6020830191508360018202830111156106915761069061063f565b5b9250929050565b5f819050919050565b6106aa81610698565b81146106b4575f5ffd5b50565b5f813590506106c5816106a1565b92915050565b5f5f5f5f5f606086880312156106e4576106e361062f565b5b5f86013567ffffffffffffffff81111561070157610700610633565b5b61070d88828901610643565b95509550506020610720888289016106b7565b935050604086013567ffffffffffffffff81111561074157610740610633565b5b61074d88828901610643565b92509250509295509295909350565b5f7fffffffff0000000000000000000000000000000000000000000000000000000082169050919050565b6107908161075c565b82525050565b5f6020820190506107a95f830184610787565b92915050565b5f5ffd5b5f601f19601f8301169050919050565b7f4e487b71000000000000000000000000000000000000000000000000000000005f52604160045260245ffd5b6107f9826107b3565b810181811067ffffffffffffffff82111715610818576108176107c3565b5b80604052505050565b5f61082a610626565b905061083682826107f0565b919050565b5f67ffffffffffffffff821115610855576108546107c3565b5b61085e826107b3565b9050602081019050919050565b828183375f83830152505050565b5f61088b6108868461083b565b610821565b9050828152602081018484840111156108a7576108a66107af565b5b6108b284828561086b565b509392505050565b5f82601f8301126108ce576108cd610637565b5b81356108de848260208601610879565b91505092915050565b5f5f604083850312156108fd576108fc61062f565b5b5f83013567ffffffffffffffff81111561091a57610919610633565b5b610926858286016108ba565b925050602083013567ffffffffffffffff81111561094757610946610633565b5b610953858286016108ba565b9150509250929050565b5f819050919050565b61097761097282610698565b61095d565b82525050565b5f6109888284610966565b60208201915081905092915050565b5f81519050919050565b5f81905092915050565b8281835e5f83830152505050565b5f6109c382610997565b6109cd81856109a1565b93506109dd8185602086016109ab565b80840191505092915050565b5f6109f482846109b9565b915081905092915050565b5f81519050610a0d816106a1565b92915050565b5f60208284031215610a2857610a2761062f565b5b5f610a35848285016109ff565b91505092915050565b5f819050919050565b5f819050919050565b610a61610a5c82610a3e565b610a47565b82525050565b5f610a728289610a50565b602082019150610a828288610a50565b602082019150610a928287610a50565b602082019150610aa282866109b9565b9150610aae82856109b9565b9150610aba82846109b9565b9150819050979650505050505050565b7f4e487b71000000000000000000000000000000000000000000000000000000005f52601160045260245ffd5b5f610b0182610a3e565b9150610b0c83610a3e565b9250828201905080821115610b2457610b23610aca565b5b92915050565b5f610b3482610a3e565b9150610b3f83610a3e565b9250828202610b4d81610a3e565b91508282048414831517610b6457610b63610aca565b5b509291505056fea264697066735822122021d1f15c3a3d08551b242ab78db08fce70ca2856fdf8b6f15fe13173236d0e0d64736f6c634300081e0033","linkReferences":{}},"methodIdentifiers":{"verify(bytes,bytes32,bytes)":"024ad318"},"id":420}