{"abi":[{"type":"constructor","inputs":[{"name":"_entryPoint","type":"address","internalType":"contract IEntryPoint"}],"stateMutability":"nonpayable"},{"type":"function","name":"acceptOwnership","inputs":[],"outputs":[],"stateMutability":"nonpayable"},{"type":"function","name":"addStake","inputs":[{"name":"unstakeDelaySec","type":"uint32","internalType":"uint32"}],"outputs":[],"stateMutability":"payable"},{"type":"function","name":"deposit","inputs":[],"outputs":[],"stateMutability":"payable"},{"type":"function","name":"entryPoint","inputs":[],"outputs":[{"name":"","type":"address","internalType":"contract IEntryPoint"}],"stateMutability":"view"},{"type":"function","name":"getDeposit","inputs":[],"outputs":[{"name":"","type":"uint256","internalType":"uint256"}],"stateMutability":"view"},{"type":"function","name":"owner","inputs":[],"outputs":[{"name":"","type":"address","internalType":"address"}],"stateMutability":"view"},{"type":"function","name":"pendingOwner","inputs":[],"outputs":[{"name":"","type":"address","internalType":"address"}],"stateMutability":"view"},{"type":"function","name":"postOp","inputs":[{"name":"mode","type":"uint8","internalType":"enum IPaymaster.PostOpMode"},{"name":"context","type":"bytes","internalType":"bytes"},{"name":"actualGasCost","type":"uint256","internalType":"uint256"},{"name":"actualUserOpFeePerGas","type":"uint256","internalType":"uint256"}],"outputs":[],"stateMutability":"nonpayable"},{"type":"function","name":"renounceOwnership","inputs":[],"outputs":[],"stateMutability":"nonpayable"},{"type":"function","name":"transferOwnership","inputs":[{"name":"newOwner","type":"address","internalType":"address"}],"outputs":[],"stateMutability":"nonpayable"},{"type":"function","name":"unlockStake","inputs":[],"outputs":[],"stateMutability":"nonpayable"},{"type":"function","name":"validatePaymasterUserOp","inputs":[{"name":"userOp","type":"tuple","internalType":"struct PackedUserOperation","components":[{"name":"sender","type":"address","internalType":"address"},{"name":"nonce","type":"uint256","internalType":"uint256"},{"name":"initCode","type":"bytes","internalType":"bytes"},{"name":"callData","type":"bytes","internalType":"bytes"},{"name":"accountGasLimits","type":"bytes32","internalType":"bytes32"},{"name":"preVerificationGas","type":"uint256","internalType":"uint256"},{"name":"gasFees","type":"bytes32","internalType":"bytes32"},{"name":"paymasterAndData","type":"bytes","internalType":"bytes"},{"name":"signature","type":"bytes","internalType":"bytes"}]},{"name":"userOpHash","type":"bytes32","internalType":"bytes32"},{"name":"maxCost","type":"uint256","internalType":"uint256"}],"outputs":[{"name":"context","type":"bytes","internalType":"bytes"},{"name":"validationData","type":"uint256","internalType":"uint256"}],"stateMutability":"nonpayable"},{"type":"function","name":"withdrawStake","inputs":[{"name":"withdrawAddress","type":"address","internalType":"address payable"}],"outputs":[],"stateMutability":"nonpayable"},{"type":"function","name":"withdrawTo","inputs":[{"name":"withdrawAddress","type":"address","internalType":"address payable"},{"name":"amount","type":"uint256","internalType":"uint256"}],"outputs":[],"stateMutability":"nonpayable"},{"type":"event","name":"OwnershipTransferStarted","inputs":[{"name":"previousOwner","type":"address","indexed":true,"internalType":"address"},{"name":"newOwner","type":"address","indexed":true,"internalType":"address"}],"anonymous":false},{"type":"event","name":"OwnershipTransferred","inputs":[{"name":"previousOwner","type":"address","indexed":true,"internalType":"address"},{"name":"newOwner","type":"address","indexed":true,"internalType":"address"}],"anonymous":false},{"type":"error","name":"ERC165Error","inputs":[{"name":"entryPoint","type":"address","internalType":"address"},{"name":"interfaceId","type":"bytes4","internalType":"bytes4"}]},{"type":"error","name":"MustOverride","inputs":[]},{"type":"error","name":"NotFromEntryPoint","inputs":[{"name":"msgSender","type":"address","internalType":"address"},{"name":"entity","type":"address","internalType":"address"},{"name":"entryPoint","type":"address","internalType":"address"}]},{"type":"error","name":"OwnableInvalidOwner","inputs":[{"name":"owner","type":"address","internalType":"address"}]},{"type":"error","name":"OwnableUnauthorizedAccount","inputs":[{"name":"account","type":"address","internalType":"address"}]}],"bytecode":{"object":"0x60a060405234801561000f575f5ffd5b506040516115013803806115018339818101604052810190610031919061038f565b8033805f73ffffffffffffffffffffffffffffffffffffffff168173ffffffffffffffffffffffffffffffffffffffff16036100a4575f6040517f1e4fbdf700000000000000000000000000000000000000000000000000000000815260040161009b91906103c9565b60405180910390fd5b6100b38161014260201b60201c565b506100c38261017860201b60201c565b8173ffffffffffffffffffffffffffffffffffffffff1660808173ffffffffffffffffffffffffffffffffffffffff168152505050503373ffffffffffffffffffffffffffffffffffffffff163273ffffffffffffffffffffffffffffffffffffffff161461013c5761013b3261014260201b60201c565b5b506104bc565b60015f6101000a81549073ffffffffffffffffffffffffffffffffffffffff02191690556101758161025f60201b60201c565b50565b5f7f283f54890000000000000000000000000000000000000000000000000000000090508173ffffffffffffffffffffffffffffffffffffffff166301ffc9a7826040518263ffffffff1660e01b81526004016101d5919061041c565b602060405180830381865afa1580156101f0573d5f5f3e3d5ffd5b505050506040513d601f19601f82011682018060405250810190610214919061046a565b82829091610259576040517f65d25c71000000000000000000000000000000000000000000000000000000008152600401610250929190610495565b60405180910390fd5b50505050565b5f5f5f9054906101000a900473ffffffffffffffffffffffffffffffffffffffff169050815f5f6101000a81548173ffffffffffffffffffffffffffffffffffffffff021916908373ffffffffffffffffffffffffffffffffffffffff1602179055508173ffffffffffffffffffffffffffffffffffffffff168173ffffffffffffffffffffffffffffffffffffffff167f8be0079c531659141344cd1fd0a4f28419497f9722a3daafe3b4186f6b6457e060405160405180910390a35050565b5f5ffd5b5f73ffffffffffffffffffffffffffffffffffffffff82169050919050565b5f61034d82610324565b9050919050565b5f61035e82610343565b9050919050565b61036e81610354565b8114610378575f5ffd5b50565b5f8151905061038981610365565b92915050565b5f602082840312156103a4576103a3610320565b5b5f6103b18482850161037b565b91505092915050565b6103c381610343565b82525050565b5f6020820190506103dc5f8301846103ba565b92915050565b5f7fffffffff0000000000000000000000000000000000000000000000000000000082169050919050565b610416816103e2565b82525050565b5f60208201905061042f5f83018461040d565b92915050565b5f8115159050919050565b61044981610435565b8114610453575f5ffd5b50565b5f8151905061046481610440565b92915050565b5f6020828403121561047f5761047e610320565b5b5f61048c84828501610456565b91505092915050565b5f6040820190506104a85f8301856103ba565b6104b5602083018461040d565b9392505050565b6080516110266104db5f395f81816104cb01526105d601526110265ff3fe6080604052600436106100dc575f3560e01c8063b0d691fe1161007e578063c399ec8811610058578063c399ec8814610247578063d0e30db014610271578063e30c39781461027b578063f2fde38b146102a5576100dc565b8063b0d691fe146101df578063bb9fe6bf14610209578063c23a5cea1461021f576100dc565b8063715018a6116100ba578063715018a61461016157806379ba5097146101775780637c627b211461018d5780638da5cb5b146101b5576100dc565b80630396cb60146100e0578063205c2878146100fc57806352b7512c14610124575b5f5ffd5b6100fa60048036038101906100f59190610a52565b6102cd565b005b348015610107575f5ffd5b50610122600480360381019061011d9190610b0a565b610347565b005b34801561012f575f5ffd5b5061014a60048036038101906101459190610b9e565b6103c2565b604051610158929190610c89565b60405180910390f35b34801561016c575f5ffd5b506101756103e4565b005b348015610182575f5ffd5b5061018b6103f7565b005b348015610198575f5ffd5b506101b360048036038101906101ae9190610d3b565b610485565b005b3480156101c0575f5ffd5b506101c96104a1565b6040516101d69190610ddf565b60405180910390f35b3480156101ea575f5ffd5b506101f36104c8565b6040516102009190610e53565b60405180910390f35b348015610214575f5ffd5b5061021d6104ef565b005b34801561022a575f5ffd5b5061024560048036038101906102409190610e6c565b61055b565b005b348015610252575f5ffd5b5061025b6105d3565b6040516102689190610e97565b60405180910390f35b610279610671565b005b348015610286575f5ffd5b5061028f6106e2565b60405161029c9190610ddf565b60405180910390f35b3480156102b0575f5ffd5b506102cb60048036038101906102c69190610eda565b61070a565b005b6102d56107b6565b6102dd6104c8565b73ffffffffffffffffffffffffffffffffffffffff16630396cb6034836040518363ffffffff1660e01b81526004016103169190610f14565b5f604051808303818588803b15801561032d575f5ffd5b505af115801561033f573d5f5f3e3d5ffd5b505050505050565b61034f6107b6565b6103576104c8565b73ffffffffffffffffffffffffffffffffffffffff1663205c287883836040518363ffffffff1660e01b8152600401610391929190610f3c565b5f604051808303815f87803b1580156103a8575f5ffd5b505af11580156103ba573d5f5f3e3d5ffd5b505050505050565b60605f6103cd61083d565b6103d88585856108c7565b91509150935093915050565b6103ec6107b6565b6103f55f6108e7565b565b5f610400610917565b90508073ffffffffffffffffffffffffffffffffffffffff166104216106e2565b73ffffffffffffffffffffffffffffffffffffffff161461047957806040517f118cdaa70000000000000000000000000000000000000000000000000000000081526004016104709190610ddf565b60405180910390fd5b610482816108e7565b50565b61048d61083d565b61049a858585858561091e565b5050505050565b5f5f5f9054906101000a900473ffffffffffffffffffffffffffffffffffffffff16905090565b5f7f0000000000000000000000000000000000000000000000000000000000000000905090565b6104f76107b6565b6104ff6104c8565b73ffffffffffffffffffffffffffffffffffffffff1663bb9fe6bf6040518163ffffffff1660e01b81526004015f604051808303815f87803b158015610543575f5ffd5b505af1158015610555573d5f5f3e3d5ffd5b50505050565b6105636107b6565b61056b6104c8565b73ffffffffffffffffffffffffffffffffffffffff1663c23a5cea826040518263ffffffff1660e01b81526004016105a39190610f63565b5f604051808303815f87803b1580156105ba575f5ffd5b505af11580156105cc573d5f5f3e3d5ffd5b5050505050565b5f7f000000000000000000000000000000000000000000000000000000000000000073ffffffffffffffffffffffffffffffffffffffff166370a08231306040518263ffffffff1660e01b815260040161062d9190610ddf565b602060405180830381865afa158015610648573d5f5f3e3d5ffd5b505050506040513d601f19601f8201168201806040525081019061066c9190610f90565b905090565b6106796104c8565b73ffffffffffffffffffffffffffffffffffffffff1663b760faf934306040518363ffffffff1660e01b81526004016106b29190610ddf565b5f604051808303818588803b1580156106c9575f5ffd5b505af11580156106db573d5f5f3e3d5ffd5b5050505050565b5f60015f9054906101000a900473ffffffffffffffffffffffffffffffffffffffff16905090565b6107126107b6565b8060015f6101000a81548173ffffffffffffffffffffffffffffffffffffffff021916908373ffffffffffffffffffffffffffffffffffffffff1602179055508073ffffffffffffffffffffffffffffffffffffffff166107716104a1565b73ffffffffffffffffffffffffffffffffffffffff167f38d16b8cac22d99fc7c124b9cd0de2d3fa1faef420bfe791d8c362d765e2270060405160405180910390a350565b6107be610917565b73ffffffffffffffffffffffffffffffffffffffff166107dc6104a1565b73ffffffffffffffffffffffffffffffffffffffff161461083b576107ff610917565b6040517f118cdaa70000000000000000000000000000000000000000000000000000000081526004016108329190610ddf565b60405180910390fd5b565b6108456104c8565b73ffffffffffffffffffffffffffffffffffffffff163373ffffffffffffffffffffffffffffffffffffffff1614333061087d6104c8565b9091926108c2576040517ffe34a6d30000000000000000000000000000000000000000000000000000000081526004016108b993929190610fbb565b60405180910390fd5b505050565b60605f5f60405180602001604052805f8152509091509150935093915050565b60015f6101000a81549073ffffffffffffffffffffffffffffffffffffffff021916905561091481610950565b50565b5f33905090565b6040517f25ad501f00000000000000000000000000000000000000000000000000000000815260040160405180910390fd5b5f5f5f9054906101000a900473ffffffffffffffffffffffffffffffffffffffff169050815f5f6101000a81548173ffffffffffffffffffffffffffffffffffffffff021916908373ffffffffffffffffffffffffffffffffffffffff1602179055508173ffffffffffffffffffffffffffffffffffffffff168173ffffffffffffffffffffffffffffffffffffffff167f8be0079c531659141344cd1fd0a4f28419497f9722a3daafe3b4186f6b6457e060405160405180910390a35050565b5f5ffd5b5f5ffd5b5f63ffffffff82169050919050565b610a3181610a19565b8114610a3b575f5ffd5b50565b5f81359050610a4c81610a28565b92915050565b5f60208284031215610a6757610a66610a11565b5b5f610a7484828501610a3e565b91505092915050565b5f73ffffffffffffffffffffffffffffffffffffffff82169050919050565b5f610aa682610a7d565b9050919050565b610ab681610a9c565b8114610ac0575f5ffd5b50565b5f81359050610ad181610aad565b92915050565b5f819050919050565b610ae981610ad7565b8114610af3575f5ffd5b50565b5f81359050610b0481610ae0565b92915050565b5f5f60408385031215610b2057610b1f610a11565b5b5f610b2d85828601610ac3565b9250506020610b3e85828601610af6565b9150509250929050565b5f5ffd5b5f6101208284031215610b6257610b61610b48565b5b81905092915050565b5f819050919050565b610b7d81610b6b565b8114610b87575f5ffd5b50565b5f81359050610b9881610b74565b92915050565b5f5f5f60608486031215610bb557610bb4610a11565b5b5f84013567ffffffffffffffff811115610bd257610bd1610a15565b5b610bde86828701610b4c565b9350506020610bef86828701610b8a565b9250506040610c0086828701610af6565b9150509250925092565b5f81519050919050565b5f82825260208201905092915050565b8281835e5f83830152505050565b5f601f19601f8301169050919050565b5f610c4c82610c0a565b610c568185610c14565b9350610c66818560208601610c24565b610c6f81610c32565b840191505092915050565b610c8381610ad7565b82525050565b5f6040820190508181035f830152610ca18185610c42565b9050610cb06020830184610c7a565b9392505050565b60038110610cc3575f5ffd5b50565b5f81359050610cd481610cb7565b92915050565b5f5ffd5b5f5ffd5b5f5ffd5b5f5f83601f840112610cfb57610cfa610cda565b5b8235905067ffffffffffffffff811115610d1857610d17610cde565b5b602083019150836001820283011115610d3457610d33610ce2565b5b9250929050565b5f5f5f5f5f60808688031215610d5457610d53610a11565b5b5f610d6188828901610cc6565b955050602086013567ffffffffffffffff811115610d8257610d81610a15565b5b610d8e88828901610ce6565b94509450506040610da188828901610af6565b9250506060610db288828901610af6565b9150509295509295909350565b5f610dc982610a7d565b9050919050565b610dd981610dbf565b82525050565b5f602082019050610df25f830184610dd0565b92915050565b5f819050919050565b5f610e1b610e16610e1184610a7d565b610df8565b610a7d565b9050919050565b5f610e2c82610e01565b9050919050565b5f610e3d82610e22565b9050919050565b610e4d81610e33565b82525050565b5f602082019050610e665f830184610e44565b92915050565b5f60208284031215610e8157610e80610a11565b5b5f610e8e84828501610ac3565b91505092915050565b5f602082019050610eaa5f830184610c7a565b92915050565b610eb981610dbf565b8114610ec3575f5ffd5b50565b5f81359050610ed481610eb0565b92915050565b5f60208284031215610eef57610eee610a11565b5b5f610efc84828501610ec6565b91505092915050565b610f0e81610a19565b82525050565b5f602082019050610f275f830184610f05565b92915050565b610f3681610a9c565b82525050565b5f604082019050610f4f5f830185610f2d565b610f5c6020830184610c7a565b9392505050565b5f602082019050610f765f830184610f2d565b92915050565b5f81519050610f8a81610ae0565b92915050565b5f60208284031215610fa557610fa4610a11565b5b5f610fb284828501610f7c565b91505092915050565b5f606082019050610fce5f830186610dd0565b610fdb6020830185610dd0565b610fe86040830184610dd0565b94935050505056fea2646970667358221220db657b6478a12e7f82060993ce0b3c3d4d59a06ac78968fc1579e17bbfe0e2c364736f6c634300081e0033","linkReferences":{}},"methodIdentifiers":{"acceptOwnership()":"79ba5097","addStake(uint32)":"0396cb60","deposit()":"d0e30db0","entryPoint()":"b0d691fe","getDeposit()":"c399ec88","owner()":"8da5cb5b","pendingOwner()":"e30c3978","postOp(uint8,bytes,uint256,uint256)":"7c627b21","renounceOwnership()":"715018a6","transferOwnership(address)":"f2fde38b","unlockStake()":"bb9fe6bf","validatePaymasterUserOp((address,uint256,bytes,bytes,bytes32,uint256,bytes32,bytes,bytes),bytes32,uint256)":"52b7512c","withdrawStake(address)":"c23a5cea","withdrawTo(address,uint256)":"205c2878"},"id":45}