{"abi":[{"type":"function","name":"delegatedFunction","inputs":[],"outputs":[{"name":"","type":"bool","internalType":"bool"}],"stateMutability":"pure"},{"type":"function","name":"upgradeToAndCall","inputs":[{"name":"","type":"address","internalType":"address"},{"name":"","type":"bytes","internalType":"bytes"}],"outputs":[],"stateMutability":"payable"},{"type":"event","name":"ClashingImplementationCall","inputs":[],"anonymous":false}],"bytecode":{"object":"0x6080604052348015600e575f5ffd5b506102348061001c5f395ff3fe608060405260043610610028575f3560e01c80634f1ef2861461002c578063abf8e0e714610048575b5f5ffd5b6100466004803603810190610041919061016e565b610072565b005b348015610053575f5ffd5b5061005c6100a3565b60405161006991906101e5565b60405180910390f35b7f87f295955c288a63c1ec9524b11bb3e2b47480139ca4755c7d6e1dacaa8c4b1b60405160405180910390a1505050565b5f6001905090565b5f5ffd5b5f5ffd5b5f73ffffffffffffffffffffffffffffffffffffffff82169050919050565b5f6100dc826100b3565b9050919050565b6100ec816100d2565b81146100f6575f5ffd5b50565b5f81359050610107816100e3565b92915050565b5f5ffd5b5f5ffd5b5f5ffd5b5f5f83601f84011261012e5761012d61010d565b5b8235905067ffffffffffffffff81111561014b5761014a610111565b5b60208301915083600182028301111561016757610166610115565b5b9250929050565b5f5f5f60408486031215610185576101846100ab565b5b5f610192868287016100f9565b935050602084013567ffffffffffffffff8111156101b3576101b26100af565b5b6101bf86828701610119565b92509250509250925092565b5f8115159050919050565b6101df816101cb565b82525050565b5f6020820190506101f85f8301846101d6565b9291505056fea264697066735822122007b7cfc71d9fe2ca3931d36a62ccdfe5324772864d49c45d7a01da59f113287a64736f6c634300081e0033","linkReferences":{}},"methodIdentifiers":{"delegatedFunction()":"abf8e0e7","upgradeToAndCall(address,bytes)":"4f1ef286"},"id":275}