{"abi":[{"type":"constructor","inputs":[{"name":"manager","type":"address","internalType":"address"}],"stateMutability":"nonpayable"},{"type":"function","name":"allowance","inputs":[{"name":"owner","type":"address","internalType":"address"},{"name":"spender","type":"address","internalType":"address"}],"outputs":[{"name":"","type":"uint256","internalType":"uint256"}],"stateMutability":"view"},{"type":"function","name":"approve","inputs":[{"name":"spender","type":"address","internalType":"address"},{"name":"value","type":"uint256","internalType":"uint256"}],"outputs":[{"name":"","type":"bool","internalType":"bool"}],"stateMutability":"nonpayable"},{"type":"function","name":"authority","inputs":[],"outputs":[{"name":"","type":"address","internalType":"address"}],"stateMutability":"view"},{"type":"function","name":"balanceOf","inputs":[{"name":"account","type":"address","internalType":"address"}],"outputs":[{"name":"","type":"uint256","internalType":"uint256"}],"stateMutability":"view"},{"type":"function","name":"decimals","inputs":[],"outputs":[{"name":"","type":"uint8","internalType":"uint8"}],"stateMutability":"view"},{"type":"function","name":"isConsumingScheduledOp","inputs":[],"outputs":[{"name":"","type":"bytes4","internalType":"bytes4"}],"stateMutability":"view"},{"type":"function","name":"mint","inputs":[{"name":"to","type":"address","internalType":"address"},{"name":"amount","type":"uint256","internalType":"uint256"}],"outputs":[],"stateMutability":"nonpayable"},{"type":"function","name":"name","inputs":[],"outputs":[{"name":"","type":"string","internalType":"string"}],"stateMutability":"view"},{"type":"function","name":"setAuthority","inputs":[{"name":"newAuthority","type":"address","internalType":"address"}],"outputs":[],"stateMutability":"nonpayable"},{"type":"function","name":"symbol","inputs":[],"outputs":[{"name":"","type":"string","internalType":"string"}],"stateMutability":"view"},{"type":"function","name":"totalSupply","inputs":[],"outputs":[{"name":"","type":"uint256","internalType":"uint256"}],"stateMutability":"view"},{"type":"function","name":"transfer","inputs":[{"name":"to","type":"address","internalType":"address"},{"name":"value","type":"uint256","internalType":"uint256"}],"outputs":[{"name":"","type":"bool","internalType":"bool"}],"stateMutability":"nonpayable"},{"type":"function","name":"transferFrom","inputs":[{"name":"from","type":"address","internalType":"address"},{"name":"to","type":"address","internalType":"address"},{"name":"value","type":"uint256","internalType":"uint256"}],"outputs":[{"name":"","type":"bool","internalType":"bool"}],"stateMutability":"nonpayable"},{"type":"event","name":"Approval","inputs":[{"name":"owner","type":"address","indexed":true,"internalType":"address"},{"name":"spender","type":"address","indexed":true,"internalType":"address"},{"name":"value","type":"uint256","indexed":false,"internalType":"uint256"}],"anonymous":false},{"type":"event","name":"AuthorityUpdated","inputs":[{"name":"authority","type":"address","indexed":false,"internalType":"address"}],"anonymous":false},{"type":"event","name":"Transfer","inputs":[{"name":"from","type":"address","indexed":true,"internalType":"address"},{"name":"to","type":"address","indexed":true,"internalType":"address"},{"name":"value","type":"uint256","indexed":false,"internalType":"uint256"}],"anonymous":false},{"type":"error","name":"AccessManagedInvalidAuthority","inputs":[{"name":"authority","type":"address","internalType":"address"}]},{"type":"error","name":"AccessManagedRequiredDelay","inputs":[{"name":"caller","type":"address","internalType":"address"},{"name":"delay","type":"uint32","internalType":"uint32"}]},{"type":"error","name":"AccessManagedUnauthorized","inputs":[{"name":"caller","type":"address","internalType":"address"}]},{"type":"error","name":"ERC20InsufficientAllowance","inputs":[{"name":"spender","type":"address","internalType":"address"},{"name":"allowance","type":"uint256","internalType":"uint256"},{"name":"needed","type":"uint256","internalType":"uint256"}]},{"type":"error","name":"ERC20InsufficientBalance","inputs":[{"name":"sender","type":"address","internalType":"address"},{"name":"balance","type":"uint256","internalType":"uint256"},{"name":"needed","type":"uint256","internalType":"uint256"}]},{"type":"error","name":"ERC20InvalidApprover","inputs":[{"name":"approver","type":"address","internalType":"address"}]},{"type":"error","name":"ERC20InvalidReceiver","inputs":[{"name":"receiver","type":"address","internalType":"address"}]},{"type":"error","name":"ERC20InvalidSender","inputs":[{"name":"sender","type":"address","internalType":"address"}]},{"type":"error","name":"ERC20InvalidSpender","inputs":[{"name":"spender","type":"address","internalType":"address"}]}],"bytecode":{"object":"0x608060405234801561000f575f5ffd5b5060405161199a38038061199a833981810160405281019061003191906101ae565b806040518060400160405280600781526020017f4d79546f6b656e000000000000000000000000000000000000000000000000008152506040518060400160405280600381526020017f544b4e000000000000000000000000000000000000000000000000000000000081525081600390816100ad9190610416565b5080600490816100bd9190610416565b5050506100cf816100d660201b60201c565b505061050d565b8060055f6101000a81548173ffffffffffffffffffffffffffffffffffffffff021916908373ffffffffffffffffffffffffffffffffffffffff1602179055507f2f658b440c35314f52658ea8a740e05b284cdc84dc9ae01e891f21b8933e7cad8160405161014591906104f4565b60405180910390a150565b5f5ffd5b5f73ffffffffffffffffffffffffffffffffffffffff82169050919050565b5f61017d82610154565b9050919050565b61018d81610173565b8114610197575f5ffd5b50565b5f815190506101a881610184565b92915050565b5f602082840312156101c3576101c2610150565b5b5f6101d08482850161019a565b91505092915050565b5f81519050919050565b7f4e487b71000000000000000000000000000000000000000000000000000000005f52604160045260245ffd5b7f4e487b71000000000000000000000000000000000000000000000000000000005f52602260045260245ffd5b5f600282049050600182168061025457607f821691505b60208210810361026757610266610210565b5b50919050565b5f819050815f5260205f209050919050565b5f6020601f8301049050919050565b5f82821b905092915050565b5f600883026102c97fffffffffffffffffffffffffffffffffffffffffffffffffffffffffffffffff8261028e565b6102d3868361028e565b95508019841693508086168417925050509392505050565b5f819050919050565b5f819050919050565b5f61031761031261030d846102eb565b6102f4565b6102eb565b9050919050565b5f819050919050565b610330836102fd565b61034461033c8261031e565b84845461029a565b825550505050565b5f5f905090565b61035b61034c565b610366818484610327565b505050565b5b818110156103895761037e5f82610353565b60018101905061036c565b5050565b601f8211156103ce5761039f8161026d565b6103a88461027f565b810160208510156103b7578190505b6103cb6103c38561027f565b83018261036b565b50505b505050565b5f82821c905092915050565b5f6103ee5f19846008026103d3565b1980831691505092915050565b5f61040683836103df565b9150826002028217905092915050565b61041f826101d9565b67ffffffffffffffff811115610438576104376101e3565b5b610442825461023d565b61044d82828561038d565b5f60209050601f83116001811461047e575f841561046c578287015190505b61047685826103fb565b8655506104dd565b601f19841661048c8661026d565b5f5b828110156104b35784890151825560018201915060208501945060208101905061048e565b868310156104d057848901516104cc601f8916826103df565b8355505b6001600288020188555050505b505050505050565b6104ee81610173565b82525050565b5f6020820190506105075f8301846104e5565b92915050565b6114808061051a5f395ff3fe608060405234801561000f575f5ffd5b50600436106100cd575f3560e01c806370a082311161008a57806395d89b411161006457806395d89b4114610211578063a9059cbb1461022f578063bf7e214f1461025f578063dd62ed3e1461027d576100cd565b806370a08231146101a75780637a9e5e4b146101d75780638fb36037146101f3576100cd565b806306fdde03146100d1578063095ea7b3146100ef57806318160ddd1461011f57806323b872dd1461013d578063313ce5671461016d57806340c10f191461018b575b5f5ffd5b6100d96102ad565b6040516100e69190610f41565b60405180910390f35b61010960048036038101906101049190610ff2565b61033d565b604051610116919061104a565b60405180910390f35b61012761035f565b6040516101349190611072565b60405180910390f35b6101576004803603810190610152919061108b565b610368565b604051610164919061104a565b60405180910390f35b610175610396565b60405161018291906110f6565b60405180910390f35b6101a560048036038101906101a09190610ff2565b61039e565b005b6101c160048036038101906101bc919061110f565b6103c4565b6040516101ce9190611072565b60405180910390f35b6101f160048036038101906101ec919061110f565b610409565b005b6101fb6104f3565b6040516102089190611174565b60405180910390f35b61021961051f565b6040516102269190610f41565b60405180910390f35b61024960048036038101906102449190610ff2565b6105af565b604051610256919061104a565b60405180910390f35b6102676105d1565b604051610274919061119c565b60405180910390f35b610297600480360381019061029291906111b5565b6105f9565b6040516102a49190611072565b60405180910390f35b6060600380546102bc90611220565b80601f01602080910402602001604051908101604052809291908181526020018280546102e890611220565b80156103335780601f1061030a57610100808354040283529160200191610333565b820191905f5260205f20905b81548152906001019060200180831161031657829003601f168201915b5050505050905090565b5f5f61034761067b565b9050610354818585610682565b600191505092915050565b5f600254905090565b5f5f61037261067b565b905061037f858285610694565b61038a858585610727565b60019150509392505050565b5f6012905090565b6103b66103a961067b565b6103b1610817565b610823565b6103c0828261095c565b5050565b5f5f5f8373ffffffffffffffffffffffffffffffffffffffff1673ffffffffffffffffffffffffffffffffffffffff1681526020019081526020015f20549050919050565b5f61041261067b565b905061041c6105d1565b73ffffffffffffffffffffffffffffffffffffffff168173ffffffffffffffffffffffffffffffffffffffff161461048b57806040517f068ca9d8000000000000000000000000000000000000000000000000000000008152600401610482919061119c565b60405180910390fd5b5f8273ffffffffffffffffffffffffffffffffffffffff163b036104e657816040517fc2f31e5e0000000000000000000000000000000000000000000000000000000081526004016104dd919061119c565b60405180910390fd5b6104ef826109db565b5050565b5f600560149054906101000a900460ff16610511575f60e01b61051a565b638fb3603760e01b5b905090565b60606004805461052e90611220565b80601f016020809104026020016040519081016040528092919081815260200182805461055a90611220565b80156105a55780601f1061057c576101008083540402835291602001916105a5565b820191905f5260205f20905b81548152906001019060200180831161058857829003601f168201915b5050505050905090565b5f5f6105b961067b565b90506105c6818585610727565b600191505092915050565b5f60055f9054906101000a900473ffffffffffffffffffffffffffffffffffffffff16905090565b5f60015f8473ffffffffffffffffffffffffffffffffffffffff1673ffffffffffffffffffffffffffffffffffffffff1681526020019081526020015f205f8373ffffffffffffffffffffffffffffffffffffffff1673ffffffffffffffffffffffffffffffffffffffff1681526020019081526020015f2054905092915050565b5f33905090565b61068f8383836001610a55565b505050565b5f61069f84846105f9565b90507fffffffffffffffffffffffffffffffffffffffffffffffffffffffffffffffff8110156107215781811015610712578281836040517ffb8f41b200000000000000000000000000000000000000000000000000000000815260040161070993929190611250565b60405180910390fd5b61072084848484035f610a55565b5b50505050565b5f73ffffffffffffffffffffffffffffffffffffffff168373ffffffffffffffffffffffffffffffffffffffff1603610797575f6040517f96c6fd1e00000000000000000000000000000000000000000000000000000000815260040161078e919061119c565b60405180910390fd5b5f73ffffffffffffffffffffffffffffffffffffffff168273ffffffffffffffffffffffffffffffffffffffff1603610807575f6040517fec442f050000000000000000000000000000000000000000000000000000000081526004016107fe919061119c565b60405180910390fd5b610812838383610c24565b505050565b365f5f36915091509091565b5f5f6108556108306105d1565b863087875f906004926108459392919061128d565b9061085091906112dd565b610e3d565b9150915081610955575f8163ffffffff161115610917576001600560146101000a81548160ff02191690831515021790555061088f6105d1565b73ffffffffffffffffffffffffffffffffffffffff166394c7d7ee8686866040518463ffffffff1660e01b81526004016108cb93929190611385565b5f604051808303815f87803b1580156108e2575f5ffd5b505af11580156108f4573d5f5f3e3d5ffd5b505050505f600560146101000a81548160ff021916908315150217905550610954565b846040517f068ca9d800000000000000000000000000000000000000000000000000000000815260040161094b919061119c565b60405180910390fd5b5b5050505050565b5f73ffffffffffffffffffffffffffffffffffffffff168273ffffffffffffffffffffffffffffffffffffffff16036109cc575f6040517fec442f050000000000000000000000000000000000000000000000000000000081526004016109c3919061119c565b60405180910390fd5b6109d75f8383610c24565b5050565b8060055f6101000a81548173ffffffffffffffffffffffffffffffffffffffff021916908373ffffffffffffffffffffffffffffffffffffffff1602179055507f2f658b440c35314f52658ea8a740e05b284cdc84dc9ae01e891f21b8933e7cad81604051610a4a919061119c565b60405180910390a150565b5f73ffffffffffffffffffffffffffffffffffffffff168473ffffffffffffffffffffffffffffffffffffffff1603610ac5575f6040517fe602df05000000000000000000000000000000000000000000000000000000008152600401610abc919061119c565b60405180910390fd5b5f73ffffffffffffffffffffffffffffffffffffffff168373ffffffffffffffffffffffffffffffffffffffff1603610b35575f6040517f94280d62000000000000000000000000000000000000000000000000000000008152600401610b2c919061119c565b60405180910390fd5b8160015f8673ffffffffffffffffffffffffffffffffffffffff1673ffffffffffffffffffffffffffffffffffffffff1681526020019081526020015f205f8573ffffffffffffffffffffffffffffffffffffffff1673ffffffffffffffffffffffffffffffffffffffff1681526020019081526020015f20819055508015610c1e578273ffffffffffffffffffffffffffffffffffffffff168473ffffffffffffffffffffffffffffffffffffffff167f8c5be1e5ebec7d5bd14f71427d1e84f3dd0314c0f7b2291e5b200ac8c7c3b92584604051610c159190611072565b60405180910390a35b50505050565b5f73ffffffffffffffffffffffffffffffffffffffff168373ffffffffffffffffffffffffffffffffffffffff1603610c74578060025f828254610c6891906113e2565b92505081905550610d42565b5f5f5f8573ffffffffffffffffffffffffffffffffffffffff1673ffffffffffffffffffffffffffffffffffffffff1681526020019081526020015f2054905081811015610cfd578381836040517fe450d38c000000000000000000000000000000000000000000000000000000008152600401610cf493929190611250565b60405180910390fd5b8181035f5f8673ffffffffffffffffffffffffffffffffffffffff1673ffffffffffffffffffffffffffffffffffffffff1681526020019081526020015f2081905550505b5f73ffffffffffffffffffffffffffffffffffffffff168273ffffffffffffffffffffffffffffffffffffffff1603610d89578060025f8282540392505081905550610dd3565b805f5f8473ffffffffffffffffffffffffffffffffffffffff1673ffffffffffffffffffffffffffffffffffffffff1681526020019081526020015f205f82825401925050819055505b8173ffffffffffffffffffffffffffffffffffffffff168373ffffffffffffffffffffffffffffffffffffffff167fddf252ad1be2c89b69c2b068fc378daa952ba7f163c4a11628f55a4df523b3ef83604051610e309190611072565b60405180910390a3505050565b5f5f5f858585604051602401610e5593929190611415565b60405160208183030381529060405263b700961360e01b6020820180517bffffffffffffffffffffffffffffffffffffffffffffffffffffffff838183161783525050505090505f5f525f60205260405f8251602084018a5afa15610ec7575f51925060205191508160201c15820291505b5094509492505050565b5f81519050919050565b5f82825260208201905092915050565b8281835e5f83830152505050565b5f601f19601f8301169050919050565b5f610f1382610ed1565b610f1d8185610edb565b9350610f2d818560208601610eeb565b610f3681610ef9565b840191505092915050565b5f6020820190508181035f830152610f598184610f09565b905092915050565b5f5ffd5b5f73ffffffffffffffffffffffffffffffffffffffff82169050919050565b5f610f8e82610f65565b9050919050565b610f9e81610f84565b8114610fa8575f5ffd5b50565b5f81359050610fb981610f95565b92915050565b5f819050919050565b610fd181610fbf565b8114610fdb575f5ffd5b50565b5f81359050610fec81610fc8565b92915050565b5f5f6040838503121561100857611007610f61565b5b5f61101585828601610fab565b925050602061102685828601610fde565b9150509250929050565b5f8115159050919050565b61104481611030565b82525050565b5f60208201905061105d5f83018461103b565b92915050565b61106c81610fbf565b82525050565b5f6020820190506110855f830184611063565b92915050565b5f5f5f606084860312156110a2576110a1610f61565b5b5f6110af86828701610fab565b93505060206110c086828701610fab565b92505060406110d186828701610fde565b9150509250925092565b5f60ff82169050919050565b6110f0816110db565b82525050565b5f6020820190506111095f8301846110e7565b92915050565b5f6020828403121561112457611123610f61565b5b5f61113184828501610fab565b91505092915050565b5f7fffffffff0000000000000000000000000000000000000000000000000000000082169050919050565b61116e8161113a565b82525050565b5f6020820190506111875f830184611165565b92915050565b61119681610f84565b82525050565b5f6020820190506111af5f83018461118d565b92915050565b5f5f604083850312156111cb576111ca610f61565b5b5f6111d885828601610fab565b92505060206111e985828601610fab565b9150509250929050565b7f4e487b71000000000000000000000000000000000000000000000000000000005f52602260045260245ffd5b5f600282049050600182168061123757607f821691505b60208210810361124a576112496111f3565b5b50919050565b5f6060820190506112635f83018661118d565b6112706020830185611063565b61127d6040830184611063565b949350505050565b5f5ffd5b5f5ffd5b5f5f858511156112a05761129f611285565b5b838611156112b1576112b0611289565b5b6001850283019150848603905094509492505050565b5f82905092915050565b5f82821b905092915050565b5f6112e883836112c7565b826112f3813561113a565b925060048210156113335761132e7fffffffff00000000000000000000000000000000000000000000000000000000836004036008026112d1565b831692505b505092915050565b5f82825260208201905092915050565b828183375f83830152505050565b5f611364838561133b565b935061137183858461134b565b61137a83610ef9565b840190509392505050565b5f6040820190506113985f83018661118d565b81810360208301526113ab818486611359565b9050949350505050565b7f4e487b71000000000000000000000000000000000000000000000000000000005f52601160045260245ffd5b5f6113ec82610fbf565b91506113f783610fbf565b925082820190508082111561140f5761140e6113b5565b5b92915050565b5f6060820190506114285f83018661118d565b611435602083018561118d565b6114426040830184611165565b94935050505056fea26469706673582212202ceff7f6ee4b8b43ff5944a411c57ff76427e93487142c9a4f992ad347a6451f64736f6c634300081e0033","linkReferences":{}},"methodIdentifiers":{"allowance(address,address)":"dd62ed3e","approve(address,uint256)":"095ea7b3","authority()":"bf7e214f","balanceOf(address)":"70a08231","decimals()":"313ce567","isConsumingScheduledOp()":"8fb36037","mint(address,uint256)":"40c10f19","name()":"06fdde03","setAuthority(address)":"7a9e5e4b","symbol()":"95d89b41","totalSupply()":"18160ddd","transfer(address,uint256)":"a9059cbb","transferFrom(address,address,uint256)":"23b872dd"},"id":244}