{"abi":[{"type":"constructor","inputs":[{"name":"initialAdmin","type":"address","internalType":"address"}],"stateMutability":"nonpayable"},{"type":"function","name":"ADMIN_ROLE","inputs":[],"outputs":[{"name":"","type":"uint64","internalType":"uint64"}],"stateMutability":"view"},{"type":"function","name":"PUBLIC_ROLE","inputs":[],"outputs":[{"name":"","type":"uint64","internalType":"uint64"}],"stateMutability":"view"},{"type":"function","name":"canCall","inputs":[{"name":"caller","type":"address","internalType":"address"},{"name":"target","type":"address","internalType":"address"},{"name":"selector","type":"bytes4","internalType":"bytes4"}],"outputs":[{"name":"immediate","type":"bool","internalType":"bool"},{"name":"delay","type":"uint32","internalType":"uint32"}],"stateMutability":"view"},{"type":"function","name":"cancel","inputs":[{"name":"caller","type":"address","internalType":"address"},{"name":"target","type":"address","internalType":"address"},{"name":"data","type":"bytes","internalType":"bytes"}],"outputs":[{"name":"","type":"uint32","internalType":"uint32"}],"stateMutability":"nonpayable"},{"type":"function","name":"consumeScheduledOp","inputs":[{"name":"caller","type":"address","internalType":"address"},{"name":"data","type":"bytes","internalType":"bytes"}],"outputs":[],"stateMutability":"nonpayable"},{"type":"function","name":"execute","inputs":[{"name":"target","type":"address","internalType":"address"},{"name":"data","type":"bytes","internalType":"bytes"}],"outputs":[{"name":"","type":"uint32","internalType":"uint32"}],"stateMutability":"payable"},{"type":"function","name":"expiration","inputs":[],"outputs":[{"name":"","type":"uint32","internalType":"uint32"}],"stateMutability":"view"},{"type":"function","name":"fnRestricted","inputs":[],"outputs":[],"stateMutability":"nonpayable"},{"type":"function","name":"fnUnrestricted","inputs":[],"outputs":[],"stateMutability":"nonpayable"},{"type":"function","name":"getAccess","inputs":[{"name":"roleId","type":"uint64","internalType":"uint64"},{"name":"account","type":"address","internalType":"address"}],"outputs":[{"name":"since","type":"uint48","internalType":"uint48"},{"name":"currentDelay","type":"uint32","internalType":"uint32"},{"name":"pendingDelay","type":"uint32","internalType":"uint32"},{"name":"effect","type":"uint48","internalType":"uint48"}],"stateMutability":"view"},{"type":"function","name":"getNonce","inputs":[{"name":"id","type":"bytes32","internalType":"bytes32"}],"outputs":[{"name":"","type":"uint32","internalType":"uint32"}],"stateMutability":"view"},{"type":"function","name":"getRoleAdmin","inputs":[{"name":"roleId","type":"uint64","internalType":"uint64"}],"outputs":[{"name":"","type":"uint64","internalType":"uint64"}],"stateMutability":"view"},{"type":"function","name":"getRoleGrantDelay","inputs":[{"name":"roleId","type":"uint64","internalType":"uint64"}],"outputs":[{"name":"","type":"uint32","internalType":"uint32"}],"stateMutability":"view"},{"type":"function","name":"getRoleGuardian","inputs":[{"name":"roleId","type":"uint64","internalType":"uint64"}],"outputs":[{"name":"","type":"uint64","internalType":"uint64"}],"stateMutability":"view"},{"type":"function","name":"getSchedule","inputs":[{"name":"id","type":"bytes32","internalType":"bytes32"}],"outputs":[{"name":"","type":"uint48","internalType":"uint48"}],"stateMutability":"view"},{"type":"function","name":"getTargetAdminDelay","inputs":[{"name":"target","type":"address","internalType":"address"}],"outputs":[{"name":"","type":"uint32","internalType":"uint32"}],"stateMutability":"view"},{"type":"function","name":"getTargetFunctionRole","inputs":[{"name":"target","type":"address","internalType":"address"},{"name":"selector","type":"bytes4","internalType":"bytes4"}],"outputs":[{"name":"","type":"uint64","internalType":"uint64"}],"stateMutability":"view"},{"type":"function","name":"grantRole","inputs":[{"name":"roleId","type":"uint64","internalType":"uint64"},{"name":"account","type":"address","internalType":"address"},{"name":"executionDelay","type":"uint32","internalType":"uint32"}],"outputs":[],"stateMutability":"nonpayable"},{"type":"function","name":"hasRole","inputs":[{"name":"roleId","type":"uint64","internalType":"uint64"},{"name":"account","type":"address","internalType":"address"}],"outputs":[{"name":"isMember","type":"bool","internalType":"bool"},{"name":"executionDelay","type":"uint32","internalType":"uint32"}],"stateMutability":"view"},{"type":"function","name":"hashOperation","inputs":[{"name":"caller","type":"address","internalType":"address"},{"name":"target","type":"address","internalType":"address"},{"name":"data","type":"bytes","internalType":"bytes"}],"outputs":[{"name":"","type":"bytes32","internalType":"bytes32"}],"stateMutability":"view"},{"type":"function","name":"isTargetClosed","inputs":[{"name":"target","type":"address","internalType":"address"}],"outputs":[{"name":"","type":"bool","internalType":"bool"}],"stateMutability":"view"},{"type":"function","name":"labelRole","inputs":[{"name":"roleId","type":"uint64","internalType":"uint64"},{"name":"label","type":"string","internalType":"string"}],"outputs":[],"stateMutability":"nonpayable"},{"type":"function","name":"minSetback","inputs":[],"outputs":[{"name":"","type":"uint32","internalType":"uint32"}],"stateMutability":"view"},{"type":"function","name":"multicall","inputs":[{"name":"data","type":"bytes[]","internalType":"bytes[]"}],"outputs":[{"name":"results","type":"bytes[]","internalType":"bytes[]"}],"stateMutability":"nonpayable"},{"type":"function","name":"renounceRole","inputs":[{"name":"roleId","type":"uint64","internalType":"uint64"},{"name":"callerConfirmation","type":"address","internalType":"address"}],"outputs":[],"stateMutability":"nonpayable"},{"type":"function","name":"revokeRole","inputs":[{"name":"roleId","type":"uint64","internalType":"uint64"},{"name":"account","type":"address","internalType":"address"}],"outputs":[],"stateMutability":"nonpayable"},{"type":"function","name":"schedule","inputs":[{"name":"target","type":"address","internalType":"address"},{"name":"data","type":"bytes","internalType":"bytes"},{"name":"when","type":"uint48","internalType":"uint48"}],"outputs":[{"name":"operationId","type":"bytes32","internalType":"bytes32"},{"name":"nonce","type":"uint32","internalType":"uint32"}],"stateMutability":"nonpayable"},{"type":"function","name":"setGrantDelay","inputs":[{"name":"roleId","type":"uint64","internalType":"uint64"},{"name":"newDelay","type":"uint32","internalType":"uint32"}],"outputs":[],"stateMutability":"nonpayable"},{"type":"function","name":"setRoleAdmin","inputs":[{"name":"roleId","type":"uint64","internalType":"uint64"},{"name":"admin","type":"uint64","internalType":"uint64"}],"outputs":[],"stateMutability":"nonpayable"},{"type":"function","name":"setRoleGuardian","inputs":[{"name":"roleId","type":"uint64","internalType":"uint64"},{"name":"guardian","type":"uint64","internalType":"uint64"}],"outputs":[],"stateMutability":"nonpayable"},{"type":"function","name":"setTargetAdminDelay","inputs":[{"name":"target","type":"address","internalType":"address"},{"name":"newDelay","type":"uint32","internalType":"uint32"}],"outputs":[],"stateMutability":"nonpayable"},{"type":"function","name":"setTargetClosed","inputs":[{"name":"target","type":"address","internalType":"address"},{"name":"closed","type":"bool","internalType":"bool"}],"outputs":[],"stateMutability":"nonpayable"},{"type":"function","name":"setTargetFunctionRole","inputs":[{"name":"target","type":"address","internalType":"address"},{"name":"selectors","type":"bytes4[]","internalType":"bytes4[]"},{"name":"roleId","type":"uint64","internalType":"uint64"}],"outputs":[],"stateMutability":"nonpayable"},{"type":"function","name":"updateAuthority","inputs":[{"name":"target","type":"address","internalType":"address"},{"name":"newAuthority","type":"address","internalType":"address"}],"outputs":[],"stateMutability":"nonpayable"},{"type":"event","name":"CalledRestricted","inputs":[{"name":"caller","type":"address","indexed":false,"internalType":"address"}],"anonymous":false},{"type":"event","name":"CalledUnrestricted","inputs":[{"name":"caller","type":"address","indexed":false,"internalType":"address"}],"anonymous":false},{"type":"event","name":"OperationCanceled","inputs":[{"name":"operationId","type":"bytes32","indexed":true,"internalType":"bytes32"},{"name":"nonce","type":"uint32","indexed":true,"internalType":"uint32"}],"anonymous":false},{"type":"event","name":"OperationExecuted","inputs":[{"name":"operationId","type":"bytes32","indexed":true,"internalType":"bytes32"},{"name":"nonce","type":"uint32","indexed":true,"internalType":"uint32"}],"anonymous":false},{"type":"event","name":"OperationScheduled","inputs":[{"name":"operationId","type":"bytes32","indexed":true,"internalType":"bytes32"},{"name":"nonce","type":"uint32","indexed":true,"internalType":"uint32"},{"name":"schedule","type":"uint48","indexed":false,"internalType":"uint48"},{"name":"caller","type":"address","indexed":false,"internalType":"address"},{"name":"target","type":"address","indexed":false,"internalType":"address"},{"name":"data","type":"bytes","indexed":false,"internalType":"bytes"}],"anonymous":false},{"type":"event","name":"RoleAdminChanged","inputs":[{"name":"roleId","type":"uint64","indexed":true,"internalType":"uint64"},{"name":"admin","type":"uint64","indexed":true,"internalType":"uint64"}],"anonymous":false},{"type":"event","name":"RoleGrantDelayChanged","inputs":[{"name":"roleId","type":"uint64","indexed":true,"internalType":"uint64"},{"name":"delay","type":"uint32","indexed":false,"internalType":"uint32"},{"name":"since","type":"uint48","indexed":false,"internalType":"uint48"}],"anonymous":false},{"type":"event","name":"RoleGranted","inputs":[{"name":"roleId","type":"uint64","indexed":true,"internalType":"uint64"},{"name":"account","type":"address","indexed":true,"internalType":"address"},{"name":"delay","type":"uint32","indexed":false,"internalType":"uint32"},{"name":"since","type":"uint48","indexed":false,"internalType":"uint48"},{"name":"newMember","type":"bool","indexed":false,"internalType":"bool"}],"anonymous":false},{"type":"event","name":"RoleGuardianChanged","inputs":[{"name":"roleId","type":"uint64","indexed":true,"internalType":"uint64"},{"name":"guardian","type":"uint64","indexed":true,"internalType":"uint64"}],"anonymous":false},{"type":"event","name":"RoleLabel","inputs":[{"name":"roleId","type":"uint64","indexed":true,"internalType":"uint64"},{"name":"label","type":"string","indexed":false,"internalType":"string"}],"anonymous":false},{"type":"event","name":"RoleRevoked","inputs":[{"name":"roleId","type":"uint64","indexed":true,"internalType":"uint64"},{"name":"account","type":"address","indexed":true,"internalType":"address"}],"anonymous":false},{"type":"event","name":"TargetAdminDelayUpdated","inputs":[{"name":"target","type":"address","indexed":true,"internalType":"address"},{"name":"delay","type":"uint32","indexed":false,"internalType":"uint32"},{"name":"since","type":"uint48","indexed":false,"internalType":"uint48"}],"anonymous":false},{"type":"event","name":"TargetClosed","inputs":[{"name":"target","type":"address","indexed":true,"internalType":"address"},{"name":"closed","type":"bool","indexed":false,"internalType":"bool"}],"anonymous":false},{"type":"event","name":"TargetFunctionRoleUpdated","inputs":[{"name":"target","type":"address","indexed":true,"internalType":"address"},{"name":"selector","type":"bytes4","indexed":false,"internalType":"bytes4"},{"name":"roleId","type":"uint64","indexed":true,"internalType":"uint64"}],"anonymous":false},{"type":"error","name":"AccessManagerAlreadyScheduled","inputs":[{"name":"operationId","type":"bytes32","internalType":"bytes32"}]},{"type":"error","name":"AccessManagerBadConfirmation","inputs":[]},{"type":"error","name":"AccessManagerExpired","inputs":[{"name":"operationId","type":"bytes32","internalType":"bytes32"}]},{"type":"error","name":"AccessManagerInvalidInitialAdmin","inputs":[{"name":"initialAdmin","type":"address","internalType":"address"}]},{"type":"error","name":"AccessManagerLockedRole","inputs":[{"name":"roleId","type":"uint64","internalType":"uint64"}]},{"type":"error","name":"AccessManagerNotReady","inputs":[{"name":"operationId","type":"bytes32","internalType":"bytes32"}]},{"type":"error","name":"AccessManagerNotScheduled","inputs":[{"name":"operationId","type":"bytes32","internalType":"bytes32"}]},{"type":"error","name":"AccessManagerUnauthorizedAccount","inputs":[{"name":"msgsender","type":"address","internalType":"address"},{"name":"roleId","type":"uint64","internalType":"uint64"}]},{"type":"error","name":"AccessManagerUnauthorizedCall","inputs":[{"name":"caller","type":"address","internalType":"address"},{"name":"target","type":"address","internalType":"address"},{"name":"selector","type":"bytes4","internalType":"bytes4"}]},{"type":"error","name":"AccessManagerUnauthorizedCancel","inputs":[{"name":"msgsender","type":"address","internalType":"address"},{"name":"caller","type":"address","internalType":"address"},{"name":"target","type":"address","internalType":"address"},{"name":"selector","type":"bytes4","internalType":"bytes4"}]},{"type":"error","name":"AccessManagerUnauthorizedConsume","inputs":[{"name":"target","type":"address","internalType":"address"}]},{"type":"error","name":"AddressEmptyCode","inputs":[{"name":"target","type":"address","internalType":"address"}]},{"type":"error","name":"FailedCall","inputs":[]},{"type":"error","name":"InsufficientBalance","inputs":[{"name":"balance","type":"uint256","internalType":"uint256"},{"name":"needed","type":"uint256","internalType":"uint256"}]},{"type":"error","name":"SafeCastOverflowedUintDowncast","inputs":[{"name":"bits","type":"uint8","internalType":"uint8"},{"name":"value","type":"uint256","internalType":"uint256"}]}],"bytecode":{"object":"0x608060405234801561000f575f5ffd5b50604051614ec6380380614ec683398181016040528101906100319190610785565b805f73ffffffffffffffffffffffffffffffffffffffff168173ffffffffffffffffffffffffffffffffffffffff16036100a2575f6040517f0813ada200000000000000000000000000000000000000000000000000000000815260040161009991906107bf565b60405180910390fd5b6100b45f825f5f6100bc60201b60201c565b5050506109ca565b5f67ffffffffffffffff80168567ffffffffffffffff160361011557846040517f1871a90c00000000000000000000000000000000000000000000000000000000815260040161010c91906107fa565b60405180910390fd5b5f5f60015f8867ffffffffffffffff1667ffffffffffffffff1681526020019081526020015f205f015f8773ffffffffffffffffffffffffffffffffffffffff1673ffffffffffffffffffffffffffffffffffffffff1681526020019081526020015f205f015f9054906101000a900465ffffffffffff1665ffffffffffff161490505f81156102cd578463ffffffff166101b461047960201b60201c565b6101be9190610851565b905060405180604001604052808265ffffffffffff1681526020016101ee8663ffffffff1661048e60201b60201c565b6dffffffffffffffffffffffffffff1681525060015f8967ffffffffffffffff1667ffffffffffffffff1681526020019081526020015f205f015f8873ffffffffffffffffffffffffffffffffffffffff1673ffffffffffffffffffffffffffffffffffffffff1681526020019081526020015f205f820151815f015f6101000a81548165ffffffffffff021916908365ffffffffffff1602179055506020820151815f0160066101000a8154816dffffffffffffffffffffffffffff02191690836dffffffffffffffffffffffffffff16021790555090505061040f565b610370845f60015f8b67ffffffffffffffff1667ffffffffffffffff1681526020019081526020015f205f015f8a73ffffffffffffffffffffffffffffffffffffffff1673ffffffffffffffffffffffffffffffffffffffff1681526020019081526020015f205f0160069054906101000a90046dffffffffffffffffffffffffffff166dffffffffffffffffffffffffffff1661049d60201b9092919060201c565b60015f8a67ffffffffffffffff1667ffffffffffffffff1681526020019081526020015f205f015f8973ffffffffffffffffffffffffffffffffffffffff1673ffffffffffffffffffffffffffffffffffffffff1681526020019081526020015f205f0160068294508391906101000a8154816dffffffffffffffffffffffffffff02191690836dffffffffffffffffffffffffffff16021790555050505b8573ffffffffffffffffffffffffffffffffffffffff168767ffffffffffffffff167ff98448b987f1428e0e230e1f3c6e2ce15b5693eaf31827fbd0b1ec4b424ae7cf868486604051610464939291906108d1565b60405180910390a38192505050949350505050565b5f6104894261054360201b60201c565b905090565b5f8163ffffffff169050919050565b5f5f5f6104bf866dffffffffffffffffffffffffffff1661059c60201b60201c565b90505f6105038563ffffffff168763ffffffff168463ffffffff16116104e5575f6104f2565b87846104f19190610906565b5b63ffffffff166105ca60201b60201c565b90508063ffffffff1661051a61047960201b60201c565b6105249190610851565b92506105378287856105e660201b60201c565b93505050935093915050565b5f65ffffffffffff8016821115610594576030826040517f6dfcc65000000000000000000000000000000000000000000000000000000000815260040161058b9291906109a3565b60405180910390fd5b819050919050565b5f5f6105bd836dffffffffffffffffffffffffffff1661063160201b60201c565b5050905080915050919050565b5f6105de828411848461065e60201b60201c565b905092915050565b5f8263ffffffff1660208563ffffffff166dffffffffffffffffffffffffffff16901b60408465ffffffffffff166dffffffffffffffffffffffffffff16901b171790509392505050565b5f5f5f6106518461064661047960201b60201c565b61067d60201b60201c565b9250925092509193909250565b5f61066e846106dc60201b60201c565b82841802821890509392505050565b5f5f5f61069f856dffffffffffffffffffffffffffff166106e760201b60201c565b8093508194508295505050508365ffffffffffff168165ffffffffffff1611156106cb578282826106cf565b815f5f5b9250925092509250925092565b5f8115159050919050565b5f5f5f5f8490508092506020816dffffffffffffffffffffffffffff16901c93506040816dffffffffffffffffffffffffffff16901c9150509193909250565b5f5ffd5b5f73ffffffffffffffffffffffffffffffffffffffff82169050919050565b5f6107548261072b565b9050919050565b6107648161074a565b811461076e575f5ffd5b50565b5f8151905061077f8161075b565b92915050565b5f6020828403121561079a57610799610727565b5b5f6107a784828501610771565b91505092915050565b6107b98161074a565b82525050565b5f6020820190506107d25f8301846107b0565b92915050565b5f67ffffffffffffffff82169050919050565b6107f4816107d8565b82525050565b5f60208201905061080d5f8301846107eb565b92915050565b5f65ffffffffffff82169050919050565b7f4e487b71000000000000000000000000000000000000000000000000000000005f52601160045260245ffd5b5f61085b82610813565b915061086683610813565b9250828201905065ffffffffffff81111561088457610883610824565b5b92915050565b5f63ffffffff82169050919050565b6108a28161088a565b82525050565b6108b181610813565b82525050565b5f8115159050919050565b6108cb816108b7565b82525050565b5f6060820190506108e45f830186610899565b6108f160208301856108a8565b6108fe60408301846108c2565b949350505050565b5f6109108261088a565b915061091b8361088a565b9250828203905063ffffffff81111561093757610936610824565b5b92915050565b5f819050919050565b5f60ff82169050919050565b5f819050919050565b5f61097561097061096b8461093d565b610952565b610946565b9050919050565b6109858161095b565b82525050565b5f819050919050565b61099d8161098b565b82525050565b5f6040820190506109b65f83018561097c565b6109c36020830184610994565b9392505050565b6144ef806109d75f395ff3fe6080604052600436106101f8575f3560e01c80636d5115bd1161010c578063ac9650d81161009f578063d1f856ee1161006e578063d1f856ee14610764578063d22b5989146107a1578063d6bb62c6146107c9578063f801a69814610805578063fe0776f514610842576101f8565b8063ac9650d814610699578063b7009613146106d5578063b7d2b16214610712578063cc1b6c811461073a576101f8565b806394c7d7ee116100db57806394c7d7ee146105d1578063a166aa89146105f9578063a64d95ce14610635578063abd9bd2a1461065d576101f8565b80636d5115bd1461052d5780636f154d2d1461056957806375b238fc1461057f578063853551b8146105a9576101f8565b806330cae1871161018f5780634665096d1161015e5780634665096d1461044d5780634c1da1e21461047757806352962952146104b3578063530dd456146104db57806357a2211114610517576101f8565b806330cae187146103835780633adc277a146103ab5780633ca7c02a146103e75780634136a33c14610411576101f8565b806318ff183c116101cb57806318ff183c146102c45780631cff79cd146102ec57806325c471a01461031c5780633078f11414610344576101f8565b806308d6122d146101fc5780630b0a93ba1461022457806312be872714610260578063167bd3951461029c575b5f5ffd5b348015610207575f5ffd5b50610222600480360381019061021d91906133e8565b61086a565b005b34801561022f575f5ffd5b5061024a60048036038101906102459190613459565b6108c6565b6040516102579190613493565b60405180910390f35b34801561026b575f5ffd5b5061028660048036038101906102819190613459565b61090b565b60405161029391906134ca565b60405180910390f35b3480156102a7575f5ffd5b506102c260048036038101906102bd9190613518565b61096e565b005b3480156102cf575f5ffd5b506102ea60048036038101906102e59190613556565b610984565b005b610306600480360381019061030191906135e9565b6109f6565b60405161031391906134ca565b60405180910390f35b348015610327575f5ffd5b50610342600480360381019061033d9190613670565b610b41565b005b34801561034f575f5ffd5b5061036a600480360381019061036591906136c0565b610b63565b60405161037a949392919061371e565b60405180910390f35b34801561038e575f5ffd5b506103a960048036038101906103a49190613761565b610c2f565b005b3480156103b6575f5ffd5b506103d160048036038101906103cc91906137d2565b610c45565b6040516103de91906137fd565b60405180910390f35b3480156103f2575f5ffd5b506103fb610c8b565b6040516104089190613493565b60405180910390f35b34801561041c575f5ffd5b50610437600480360381019061043291906137d2565b610c97565b60405161044491906134ca565b60405180910390f35b348015610458575f5ffd5b50610461610cc3565b60405161046e91906134ca565b60405180910390f35b348015610482575f5ffd5b5061049d60048036038101906104989190613816565b610ccd565b6040516104aa91906134ca565b60405180910390f35b3480156104be575f5ffd5b506104d960048036038101906104d49190613761565b610d46565b005b3480156104e6575f5ffd5b5061050160048036038101906104fc9190613459565b610d5c565b60405161050e9190613493565b60405180910390f35b348015610522575f5ffd5b5061052b610da0565b005b348015610538575f5ffd5b50610553600480360381019061054e9190613896565b610de1565b6040516105609190613493565b60405180910390f35b348015610574575f5ffd5b5061057d610e89565b005b34801561058a575f5ffd5b50610593610ec2565b6040516105a09190613493565b60405180910390f35b3480156105b4575f5ffd5b506105cf60048036038101906105ca9190613929565b610ec6565b005b3480156105dc575f5ffd5b506105f760048036038101906105f291906135e9565b610f8e565b005b348015610604575f5ffd5b5061061f600480360381019061061a9190613816565b6110a9565b60405161062c9190613995565b60405180910390f35b348015610640575f5ffd5b5061065b600480360381019061065691906139ae565b6110fe565b005b348015610668575f5ffd5b50610683600480360381019061067e91906139ec565b611114565b6040516106909190613a6c565b60405180910390f35b3480156106a4575f5ffd5b506106bf60048036038101906106ba9190613ada565b61114c565b6040516106cc9190613c50565b60405180910390f35b3480156106e0575f5ffd5b506106fb60048036038101906106f69190613c70565b61132d565b604051610709929190613cc0565b60405180910390f35b34801561071d575f5ffd5b50610738600480360381019061073391906136c0565b6113d3565b005b348015610745575f5ffd5b5061074e6113ea565b60405161075b91906134ca565b60405180910390f35b34801561076f575f5ffd5b5061078a600480360381019061078591906136c0565b6113f4565b604051610798929190613cc0565b60405180910390f35b3480156107ac575f5ffd5b506107c760048036038101906107c29190613ce7565b61146d565b005b3480156107d4575f5ffd5b506107ef60048036038101906107ea91906139ec565b611483565b6040516107fc91906134ca565b60405180910390f35b348015610810575f5ffd5b5061082b60048036038101906108269190613d4f565b611663565b604051610839929190613dc0565b60405180910390f35b34801561084d575f5ffd5b50610868600480360381019061086391906136c0565b611837565b005b6108726118b2565b5f5f90505b838390508110156108bf576108b48585858481811061089957610898613de7565b5b90506020020160208101906108ae9190613e14565b8461195b565b806001019050610877565b5050505050565b5f60015f8367ffffffffffffffff1667ffffffffffffffff1681526020019081526020015f2060010160089054906101000a900467ffffffffffffffff169050919050565b5f61096760015f8467ffffffffffffffff1667ffffffffffffffff1681526020019081526020015f2060010160109054906101000a90046dffffffffffffffffffffffffffff166dffffffffffffffffffffffffffff16611a6a565b9050919050565b6109766118b2565b6109808282611a92565b5050565b61098c6118b2565b8173ffffffffffffffffffffffffffffffffffffffff16637a9e5e4b826040518263ffffffff1660e01b81526004016109c59190613e4e565b5f604051808303815f87803b1580156109dc575f5ffd5b505af11580156109ee573d5f5f3e3d5ffd5b505050505050565b5f5f610a00611b3b565b90505f5f610a1083888888611b42565b9150915081158015610a2757505f8163ffffffff16145b15610a76578287610a388888611bc0565b6040517f81c6f24b000000000000000000000000000000000000000000000000000000008152600401610a6d93929190613e76565b60405180910390fd5b5f610a8384898989611114565b90505f5f8363ffffffff16141580610aab57505f610aa083610c45565b65ffffffffffff1614155b15610abc57610ab982611be7565b90505b5f6003549050610ad58a610ad08b8b611bc0565b611d8f565b600381905550610b298a8a8a8080601f0160208091040260200160405190810160405280939291908181526020018383808284375f81840152601f19601f8201169050808301925050505050505034611dd9565b50806003819055508196505050505050509392505050565b610b496118b2565b610b5d8383610b578661090b565b84611f13565b50505050565b5f5f5f5f5f60015f8867ffffffffffffffff1667ffffffffffffffff1681526020019081526020015f205f015f8773ffffffffffffffffffffffffffffffffffffffff1673ffffffffffffffffffffffffffffffffffffffff1681526020019081526020015f209050805f015f9054906101000a900465ffffffffffff169450610c19815f0160069054906101000a90046dffffffffffffffffffffffffffff166dffffffffffffffffffffffffffff166122c4565b8094508195508296505050505092959194509250565b610c376118b2565b610c4182826122e5565b5050565b5f5f60025f8481526020019081526020015f205f015f9054906101000a900465ffffffffffff169050610c77816123f0565b610c815780610c83565b5f5b915050919050565b67ffffffffffffffff81565b5f60025f8381526020019081526020015f205f0160069054906101000a900463ffffffff169050919050565b5f62093a80905090565b5f610d3f5f5f8473ffffffffffffffffffffffffffffffffffffffff1673ffffffffffffffffffffffffffffffffffffffff1681526020019081526020015f206001015f9054906101000a90046dffffffffffffffffffffffffffff166dffffffffffffffffffffffffffff16611a6a565b9050919050565b610d4e6118b2565b610d58828261242b565b5050565b5f60015f8367ffffffffffffffff1667ffffffffffffffff1681526020019081526020015f206001015f9054906101000a900467ffffffffffffffff169050919050565b610da86118b2565b7f736614e0596fd68e76f34c74b62efa34b16c2a960f58ae22d1ec8fe770c1961a33604051610dd79190613e4e565b60405180910390a1565b5f5f5f8473ffffffffffffffffffffffffffffffffffffffff1673ffffffffffffffffffffffffffffffffffffffff1681526020019081526020015f205f015f837bffffffffffffffffffffffffffffffffffffffffffffffffffffffff19167bffffffffffffffffffffffffffffffffffffffffffffffffffffffff191681526020019081526020015f205f9054906101000a900467ffffffffffffffff16905092915050565b7f723e9347c9cee19522d182a3a0d8287ce6ba225b534114cb124b76e1523bfb7e33604051610eb89190613e4e565b60405180910390a1565b5f81565b610ece6118b2565b5f67ffffffffffffffff168367ffffffffffffffff161480610f03575067ffffffffffffffff80168367ffffffffffffffff16145b15610f4557826040517f1871a90c000000000000000000000000000000000000000000000000000000008152600401610f3c9190613493565b60405180910390fd5b8267ffffffffffffffff167f1256f5b5ecb89caec12db449738f2fbcd1ba5806cf38f35413f4e5c15bf6a4508383604051610f81929190613ef5565b60405180910390a2505050565b5f610f97611b3b565b9050638fb3603760e01b7bffffffffffffffffffffffffffffffffffffffffffffffffffffffff19168173ffffffffffffffffffffffffffffffffffffffff16638fb360376040518163ffffffff1660e01b8152600401602060405180830381865afa158015611009573d5f5f3e3d5ffd5b505050506040513d601f19601f8201168201806040525081019061102d9190613f2b565b7bffffffffffffffffffffffffffffffffffffffffffffffffffffffff19161461108e57806040517f320ff7480000000000000000000000000000000000000000000000000000000081526004016110859190613e4e565b60405180910390fd5b6110a261109d85838686611114565b611be7565b5050505050565b5f5f5f8373ffffffffffffffffffffffffffffffffffffffff1673ffffffffffffffffffffffffffffffffffffffff1681526020019081526020015f20600101600e9054906101000a900460ff169050919050565b6111066118b2565b6111108282612537565b5050565b5f8484848460405160200161112c9493929190613f92565b604051602081830303815290604052805190602001209050949350505050565b60605f611157611b3b565b73ffffffffffffffffffffffffffffffffffffffff163373ffffffffffffffffffffffffffffffffffffffff16146111f7575f366111936126a9565b5f3690506111a19190614006565b9080926111b093929190614041565b8080601f0160208091040260200160405190810160405280939291908181526020018383808284375f81840152601f19601f82011690508083019250505050505050611245565b5f67ffffffffffffffff8111156112115761121061407b565b5b6040519080825280601f01601f1916602001820160405280156112435781602001600182028036833780820191505090505b505b90508383905067ffffffffffffffff8111156112645761126361407b565b5b60405190808252806020026020018201604052801561129757816020015b60608152602001906001900390816112825790505b5091505f5f90505b84849050811015611325576112fa308686848181106112c1576112c0613de7565b5b90506020028101906112d391906140b4565b856040516020016112e693929190614174565b6040516020818303038152906040526126b0565b83828151811061130d5761130c613de7565b5b6020026020010181905250808060010191505061129f565b505092915050565b5f5f611338846110a9565b15611348575f5f915091506113cb565b3073ffffffffffffffffffffffffffffffffffffffff168573ffffffffffffffffffffffffffffffffffffffff160361138f5761138584846127a1565b5f915091506113cb565b5f61139a8585610de1565b90505f5f6113a883896113f4565b91509150816113b8575f5f6113c3565b5f8163ffffffff1614815b945094505050505b935093915050565b6113db6118b2565b6113e582826127b8565b505050565b5f62069780905090565b5f5f67ffffffffffffffff80168467ffffffffffffffff160361141d5760015f91509150611466565b5f5f6114298686610b63565b5050915091505f8265ffffffffffff161415801561145e575061144a612992565b65ffffffffffff168265ffffffffffff1611155b819350935050505b9250929050565b6114756118b2565b61147f82826129a1565b5050565b5f5f61148d611b3b565b90505f61149a8585611bc0565b90505f6114a988888888611114565b90505f60025f8381526020019081526020015f205f015f9054906101000a900465ffffffffffff1665ffffffffffff160361151b57806040517f60a299b00000000000000000000000000000000000000000000000000000000081526004016115129190613a6c565b60405180910390fd5b8273ffffffffffffffffffffffffffffffffffffffff168873ffffffffffffffffffffffffffffffffffffffff16146115d2575f6115595f856113f4565b5090505f61157861157261156d8b87610de1565b6108c6565b866113f4565b50905081158015611587575080155b156115cf57848a8a866040517f3fe2751c0000000000000000000000000000000000000000000000000000000081526004016115c69493929190614199565b60405180910390fd5b50505b60025f8281526020019081526020015f205f015f6101000a81549065ffffffffffff02191690555f60025f8381526020019081526020015f205f0160069054906101000a900463ffffffff1690508063ffffffff16827fbd9ac67a6e2f6463b80927326310338bcbb4bdb7936ce1365ea3e01067e7b9f760405160405180910390a380945050505050949350505050565b5f5f5f61166e611b3b565b90505f61167d82898989611b42565b9150505f8163ffffffff16611690612992565b61169a91906141dc565b90505f8263ffffffff1614806116d257505f8665ffffffffffff161180156116d157508065ffffffffffff168665ffffffffffff16105b5b156117215782896116e38a8a611bc0565b6040517f81c6f24b00000000000000000000000000000000000000000000000000000000815260040161171893929190613e76565b60405180910390fd5b61173b8665ffffffffffff168265ffffffffffff16612af3565b9550611749838a8a8a611114565b945061175485612b09565b600160025f8781526020019081526020015f205f0160069054906101000a900463ffffffff160193508560025f8781526020019081526020015f205f015f6101000a81548165ffffffffffff021916908365ffffffffffff1602179055508360025f8781526020019081526020015f205f0160066101000a81548163ffffffff021916908363ffffffff1602179055508363ffffffff16857f82a2da5dee54ea8021c6545b4444620291e07ee83be6dd57edb175062715f3b488868d8d8d604051611823959493929190614215565b60405180910390a350505094509492505050565b61183f611b3b565b73ffffffffffffffffffffffffffffffffffffffff168173ffffffffffffffffffffffffffffffffffffffff16146118a3576040517f5f159e6300000000000000000000000000000000000000000000000000000000815260040160405180910390fd5b6118ad82826127b8565b505050565b5f6118bb611b3b565b90505f5f6118d0836118cb612b95565b612ba1565b9150915081611956575f8163ffffffff160361193a575f6118f76118f2612b95565b612c99565b5091505083816040517ff07e038f000000000000000000000000000000000000000000000000000000008152600401611931929190614261565b60405180910390fd5b61195461194f843061194a612b95565b611114565b611be7565b505b505050565b805f5f8573ffffffffffffffffffffffffffffffffffffffff1673ffffffffffffffffffffffffffffffffffffffff1681526020019081526020015f205f015f847bffffffffffffffffffffffffffffffffffffffffffffffffffffffff19167bffffffffffffffffffffffffffffffffffffffffffffffffffffffff191681526020019081526020015f205f6101000a81548167ffffffffffffffff021916908367ffffffffffffffff1602179055508067ffffffffffffffff168373ffffffffffffffffffffffffffffffffffffffff167f9ea6790c7dadfd01c9f8b9762b3682607af2c7e79e05a9f9fdf5580dde94915184604051611a5d9190614288565b60405180910390a3505050565b5f5f611a85836dffffffffffffffffffffffffffff166122c4565b5050905080915050919050565b805f5f8473ffffffffffffffffffffffffffffffffffffffff1673ffffffffffffffffffffffffffffffffffffffff1681526020019081526020015f20600101600e6101000a81548160ff0219169083151502179055508173ffffffffffffffffffffffffffffffffffffffff167f90d4e7bb7e5d933792b3562e1741306f8be94837e1348dacef9b6f1df56eb13882604051611b2f9190613995565b60405180910390a25050565b5f33905090565b5f5f3073ffffffffffffffffffffffffffffffffffffffff168573ffffffffffffffffffffffffffffffffffffffff1603611b8b57611b82868585612ba1565b91509150611bb7565b60048484905010611baf57611baa8686611ba58787611bc0565b61132d565b611bb2565b5f5f5b915091505b94509492505050565b5f82825f90600492611bd493929190614041565b90611bdf91906142b7565b905092915050565b5f5f60025f8481526020019081526020015f205f015f9054906101000a900465ffffffffffff1690505f60025f8581526020019081526020015f205f0160069054906101000a900463ffffffff1690505f8265ffffffffffff1603611c8357836040517f60a299b0000000000000000000000000000000000000000000000000000000008152600401611c7a9190613a6c565b60405180910390fd5b611c8b612992565b65ffffffffffff168265ffffffffffff161115611cdf57836040517f18cb6b7a000000000000000000000000000000000000000000000000000000008152600401611cd69190613a6c565b60405180910390fd5b611ce8826123f0565b15611d2a57836040517f78a5d6e4000000000000000000000000000000000000000000000000000000008152600401611d219190613a6c565b60405180910390fd5b60025f8581526020019081526020015f205f015f6101000a81549065ffffffffffff02191690558063ffffffff16847f76a2a46953689d4861a5d3f6ed883ad7e6af674a21f8e162707159fc9dde614d60405160405180910390a38092505050919050565b5f611dd18373ffffffffffffffffffffffffffffffffffffffff165f1b837bffffffffffffffffffffffffffffffffffffffffffffffffffffffff191661307d565b905092915050565b606081471015611e225747826040517fcf479181000000000000000000000000000000000000000000000000000000008152600401611e19929190614324565b60405180910390fd5b5f611e2e858486613091565b9050808015611e6457505f611e416130a7565b1180611e6357505f8573ffffffffffffffffffffffffffffffffffffffff163b115b5b15611e7957611e716130ae565b915050611f0c565b8015611ebc57846040517f9996b315000000000000000000000000000000000000000000000000000000008152600401611eb39190613e4e565b60405180910390fd5b5f611ec56130a7565b1115611ed857611ed36130cb565b611f0a565b6040517fd6bda27500000000000000000000000000000000000000000000000000000000815260040160405180910390fd5b505b9392505050565b5f67ffffffffffffffff80168567ffffffffffffffff1603611f6c57846040517f1871a90c000000000000000000000000000000000000000000000000000000008152600401611f639190613493565b60405180910390fd5b5f5f60015f8867ffffffffffffffff1667ffffffffffffffff1681526020019081526020015f205f015f8773ffffffffffffffffffffffffffffffffffffffff1673ffffffffffffffffffffffffffffffffffffffff1681526020019081526020015f205f015f9054906101000a900465ffffffffffff1665ffffffffffff161490505f8115612118578463ffffffff16612005612992565b61200f91906141dc565b905060405180604001604052808265ffffffffffff1681526020016120398663ffffffff166130d6565b6dffffffffffffffffffffffffffff1681525060015f8967ffffffffffffffff1667ffffffffffffffff1681526020019081526020015f205f015f8873ffffffffffffffffffffffffffffffffffffffff1673ffffffffffffffffffffffffffffffffffffffff1681526020019081526020015f205f820151815f015f6101000a81548165ffffffffffff021916908365ffffffffffff1602179055506020820151815f0160066101000a8154816dffffffffffffffffffffffffffff02191690836dffffffffffffffffffffffffffff16021790555090505061225a565b6121bb845f60015f8b67ffffffffffffffff1667ffffffffffffffff1681526020019081526020015f205f015f8a73ffffffffffffffffffffffffffffffffffffffff1673ffffffffffffffffffffffffffffffffffffffff1681526020019081526020015f205f0160069054906101000a90046dffffffffffffffffffffffffffff166dffffffffffffffffffffffffffff166130e59092919063ffffffff16565b60015f8a67ffffffffffffffff1667ffffffffffffffff1681526020019081526020015f205f015f8973ffffffffffffffffffffffffffffffffffffffff1673ffffffffffffffffffffffffffffffffffffffff1681526020019081526020015f205f0160068294508391906101000a8154816dffffffffffffffffffffffffffff02191690836dffffffffffffffffffffffffffff16021790555050505b8573ffffffffffffffffffffffffffffffffffffffff168767ffffffffffffffff167ff98448b987f1428e0e230e1f3c6e2ce15b5693eaf31827fbd0b1ec4b424ae7cf8684866040516122af9392919061434b565b60405180910390a38192505050949350505050565b5f5f5f6122d8846122d3612992565b613173565b9250925092509193909250565b5f67ffffffffffffffff168267ffffffffffffffff16148061231a575067ffffffffffffffff80168267ffffffffffffffff16145b1561235c57816040517f1871a90c0000000000000000000000000000000000000000000000000000000081526004016123539190613493565b60405180910390fd5b8060015f8467ffffffffffffffff1667ffffffffffffffff1681526020019081526020015f206001015f6101000a81548167ffffffffffffffff021916908367ffffffffffffffff1602179055508067ffffffffffffffff168267ffffffffffffffff167f1fd6dd7631312dfac2205b52913f99de03b4d7e381d5d27d3dbfe0713e6e634060405160405180910390a35050565b5f6123f9612992565b65ffffffffffff16612409610cc3565b63ffffffff168361241a91906141dc565b65ffffffffffff1611159050919050565b5f67ffffffffffffffff168267ffffffffffffffff161480612460575067ffffffffffffffff80168267ffffffffffffffff16145b156124a257816040517f1871a90c0000000000000000000000000000000000000000000000000000000081526004016124999190613493565b60405180910390fd5b8060015f8467ffffffffffffffff1667ffffffffffffffff1681526020019081526020015f2060010160086101000a81548167ffffffffffffffff021916908367ffffffffffffffff1602179055508067ffffffffffffffff168267ffffffffffffffff167f7a8059630b897b5de4c08ade69f8b90c3ead1f8596d62d10b6c4d14a0afb4ae260405160405180910390a35050565b67ffffffffffffffff80168267ffffffffffffffff160361258f57816040517f1871a90c0000000000000000000000000000000000000000000000000000000081526004016125869190613493565b60405180910390fd5b5f6125fe8261259c6113ea565b60015f8767ffffffffffffffff1667ffffffffffffffff1681526020019081526020015f2060010160109054906101000a90046dffffffffffffffffffffffffffff166dffffffffffffffffffffffffffff166130e59092919063ffffffff16565b60015f8667ffffffffffffffff1667ffffffffffffffff1681526020019081526020015f2060010160108294508391906101000a8154816dffffffffffffffffffffffffffff02191690836dffffffffffffffffffffffffffff16021790555050508267ffffffffffffffff167ffeb69018ee8b8fd50ea86348f1267d07673379f72cffdeccec63853ee8ce8b48838360405161269c929190614380565b60405180910390a2505050565b5f5f905090565b60605f6126bd84846131cc565b90508080156126f357505f6126d06130a7565b11806126f257505f8473ffffffffffffffffffffffffffffffffffffffff163b115b5b15612708576127006130ae565b91505061279b565b801561274b57836040517f9996b3150000000000000000000000000000000000000000000000000000000081526004016127429190613e4e565b60405180910390fd5b5f6127546130a7565b1115612767576127626130cb565b612799565b6040517fd6bda27500000000000000000000000000000000000000000000000000000000815260040160405180910390fd5b505b92915050565b5f6127ac8383611d8f565b60035414905092915050565b5f67ffffffffffffffff80168367ffffffffffffffff160361281157826040517f1871a90c0000000000000000000000000000000000000000000000000000000081526004016128089190613493565b60405180910390fd5b5f60015f8567ffffffffffffffff1667ffffffffffffffff1681526020019081526020015f205f015f8473ffffffffffffffffffffffffffffffffffffffff1673ffffffffffffffffffffffffffffffffffffffff1681526020019081526020015f205f015f9054906101000a900465ffffffffffff1665ffffffffffff160361289d575f905061298c565b60015f8467ffffffffffffffff1667ffffffffffffffff1681526020019081526020015f205f015f8373ffffffffffffffffffffffffffffffffffffffff1673ffffffffffffffffffffffffffffffffffffffff1681526020019081526020015f205f5f82015f6101000a81549065ffffffffffff02191690555f820160066101000a8154906dffffffffffffffffffffffffffff021916905550508173ffffffffffffffffffffffffffffffffffffffff168367ffffffffffffffff167ff229baa593af28c41b1d16b748cd7688f0c83aaf92d4be41c44005defe84c16660405160405180910390a3600190505b92915050565b5f61299c426131e0565b905090565b5f612a26826129ae6113ea565b5f5f8773ffffffffffffffffffffffffffffffffffffffff1673ffffffffffffffffffffffffffffffffffffffff1681526020019081526020015f206001015f9054906101000a90046dffffffffffffffffffffffffffff166dffffffffffffffffffffffffffff166130e59092919063ffffffff16565b5f5f8673ffffffffffffffffffffffffffffffffffffffff1673ffffffffffffffffffffffffffffffffffffffff1681526020019081526020015f206001015f8294508391906101000a8154816dffffffffffffffffffffffffffff02191690836dffffffffffffffffffffffffffff16021790555050508273ffffffffffffffffffffffffffffffffffffffff167fa56b76017453f399ec2327ba00375dbfb1fd070ff854341ad6191e6a2e2de19c8383604051612ae6929190614380565b60405180910390a2505050565b5f612b018284118484613239565b905092915050565b5f60025f8381526020019081526020015f205f015f9054906101000a900465ffffffffffff1690505f8165ffffffffffff1614158015612b4f5750612b4d816123f0565b155b15612b9157816040517f813e9459000000000000000000000000000000000000000000000000000000008152600401612b889190613a6c565b60405180910390fd5b5050565b365f5f36915091509091565b5f5f6004848490501015612bba575f5f91509150612c91565b3073ffffffffffffffffffffffffffffffffffffffff168573ffffffffffffffffffffffffffffffffffffffff1603612c0a57612c0030612bfb8686611bc0565b6127a1565b5f91509150612c91565b5f5f5f612c178787612c99565b92509250925082158015612c305750612c2f306110a9565b5b15612c43575f5f94509450505050612c91565b5f5f612c4f848b6113f4565b9150915081612c68575f5f965096505050505050612c91565b612c7e8363ffffffff168263ffffffff16612af3565b95505f8663ffffffff1614965050505050505b935093915050565b5f5f5f6004858590501015612cb6575f5f5f925092509250613076565b5f612cc18686611bc0565b905063853551b860e01b7bffffffffffffffffffffffffffffffffffffffffffffffffffffffff1916817bffffffffffffffffffffffffffffffffffffffffffffffffffffffff19161480612d5a57506330cae18760e01b7bffffffffffffffffffffffffffffffffffffffffffffffffffffffff1916817bffffffffffffffffffffffffffffffffffffffffffffffffffffffff1916145b80612da95750635296295260e01b7bffffffffffffffffffffffffffffffffffffffffffffffffffffffff1916817bffffffffffffffffffffffffffffffffffffffffffffffffffffffff1916145b80612df8575063a64d95ce60e01b7bffffffffffffffffffffffffffffffffffffffffffffffffffffffff1916817bffffffffffffffffffffffffffffffffffffffffffffffffffffffff1916145b80612e47575063d22b598960e01b7bffffffffffffffffffffffffffffffffffffffffffffffffffffffff1916817bffffffffffffffffffffffffffffffffffffffffffffffffffffffff1916145b15612e5c5760015f5f93509350935050613076565b6318ff183c60e01b7bffffffffffffffffffffffffffffffffffffffffffffffffffffffff1916817bffffffffffffffffffffffffffffffffffffffffffffffffffffffff19161480612ef3575063167bd39560e01b7bffffffffffffffffffffffffffffffffffffffffffffffffffffffff1916817bffffffffffffffffffffffffffffffffffffffffffffffffffffffff1916145b80612f4257506308d6122d60e01b7bffffffffffffffffffffffffffffffffffffffffffffffffffffffff1916817bffffffffffffffffffffffffffffffffffffffffffffffffffffffff1916145b15612f89575f8686600490602492612f5c93929190614041565b810190612f6991906143e2565b90505f612f7582610ccd565b905060015f82955095509550505050613076565b6325c471a060e01b7bffffffffffffffffffffffffffffffffffffffffffffffffffffffff1916817bffffffffffffffffffffffffffffffffffffffffffffffffffffffff19161480613020575063b7d2b16260e01b7bffffffffffffffffffffffffffffffffffffffffffffffffffffffff1916817bffffffffffffffffffffffffffffffffffffffffffffffffffffffff1916145b15613062575f868660049060249261303a93929190614041565b8101906130479190613459565b9050600161305482610d5c565b5f9450945094505050613076565b5f61306d3083610de1565b5f935093509350505b9250925092565b5f825f528160205260405f20905092915050565b5f5f5f83516020850186885af190509392505050565b5f3d905090565b606060405190503d81523d5f602083013e3d602001810160405290565b6040513d5f823e3d81fd5b5f8163ffffffff169050919050565b5f5f5f613101866dffffffffffffffffffffffffffff16611a6a565b90505f61313f8563ffffffff168763ffffffff168463ffffffff1611613127575f613134565b8784613133919061440d565b5b63ffffffff16612af3565b90508063ffffffff16613150612992565b61315a91906141dc565b9250613167828785613252565b93505050935093915050565b5f5f5f61318f856dffffffffffffffffffffffffffff1661329d565b8093508194508295505050508365ffffffffffff168165ffffffffffff1611156131bb578282826131bf565b815f5f5b9250925092509250925092565b5f5f5f835160208501865af4905092915050565b5f65ffffffffffff8016821115613231576030826040517f6dfcc650000000000000000000000000000000000000000000000000000000008152600401613228929190614492565b60405180910390fd5b819050919050565b5f613243846132dd565b82841802821890509392505050565b5f8263ffffffff1660208563ffffffff166dffffffffffffffffffffffffffff16901b60408465ffffffffffff166dffffffffffffffffffffffffffff16901b171790509392505050565b5f5f5f5f8490508092506020816dffffffffffffffffffffffffffff16901c93506040816dffffffffffffffffffffffffffff16901c9150509193909250565b5f8115159050919050565b5f5ffd5b5f5ffd5b5f73ffffffffffffffffffffffffffffffffffffffff82169050919050565b5f613319826132f0565b9050919050565b6133298161330f565b8114613333575f5ffd5b50565b5f8135905061334481613320565b92915050565b5f5ffd5b5f5ffd5b5f5ffd5b5f5f83601f84011261336b5761336a61334a565b5b8235905067ffffffffffffffff8111156133885761338761334e565b5b6020830191508360208202830111156133a4576133a3613352565b5b9250929050565b5f67ffffffffffffffff82169050919050565b6133c7816133ab565b81146133d1575f5ffd5b50565b5f813590506133e2816133be565b92915050565b5f5f5f5f60608587031215613400576133ff6132e8565b5b5f61340d87828801613336565b945050602085013567ffffffffffffffff81111561342e5761342d6132ec565b5b61343a87828801613356565b9350935050604061344d878288016133d4565b91505092959194509250565b5f6020828403121561346e5761346d6132e8565b5b5f61347b848285016133d4565b91505092915050565b61348d816133ab565b82525050565b5f6020820190506134a65f830184613484565b92915050565b5f63ffffffff82169050919050565b6134c4816134ac565b82525050565b5f6020820190506134dd5f8301846134bb565b92915050565b5f8115159050919050565b6134f7816134e3565b8114613501575f5ffd5b50565b5f81359050613512816134ee565b92915050565b5f5f6040838503121561352e5761352d6132e8565b5b5f61353b85828601613336565b925050602061354c85828601613504565b9150509250929050565b5f5f6040838503121561356c5761356b6132e8565b5b5f61357985828601613336565b925050602061358a85828601613336565b9150509250929050565b5f5f83601f8401126135a9576135a861334a565b5b8235905067ffffffffffffffff8111156135c6576135c561334e565b5b6020830191508360018202830111156135e2576135e1613352565b5b9250929050565b5f5f5f60408486031215613600576135ff6132e8565b5b5f61360d86828701613336565b935050602084013567ffffffffffffffff81111561362e5761362d6132ec565b5b61363a86828701613594565b92509250509250925092565b61364f816134ac565b8114613659575f5ffd5b50565b5f8135905061366a81613646565b92915050565b5f5f5f60608486031215613687576136866132e8565b5b5f613694868287016133d4565b93505060206136a586828701613336565b92505060406136b68682870161365c565b9150509250925092565b5f5f604083850312156136d6576136d56132e8565b5b5f6136e3858286016133d4565b92505060206136f485828601613336565b9150509250929050565b5f65ffffffffffff82169050919050565b613718816136fe565b82525050565b5f6080820190506137315f83018761370f565b61373e60208301866134bb565b61374b60408301856134bb565b613758606083018461370f565b95945050505050565b5f5f60408385031215613777576137766132e8565b5b5f613784858286016133d4565b9250506020613795858286016133d4565b9150509250929050565b5f819050919050565b6137b18161379f565b81146137bb575f5ffd5b50565b5f813590506137cc816137a8565b92915050565b5f602082840312156137e7576137e66132e8565b5b5f6137f4848285016137be565b91505092915050565b5f6020820190506138105f83018461370f565b92915050565b5f6020828403121561382b5761382a6132e8565b5b5f61383884828501613336565b91505092915050565b5f7fffffffff0000000000000000000000000000000000000000000000000000000082169050919050565b61387581613841565b811461387f575f5ffd5b50565b5f813590506138908161386c565b92915050565b5f5f604083850312156138ac576138ab6132e8565b5b5f6138b985828601613336565b92505060206138ca85828601613882565b9150509250929050565b5f5f83601f8401126138e9576138e861334a565b5b8235905067ffffffffffffffff8111156139065761390561334e565b5b60208301915083600182028301111561392257613921613352565b5b9250929050565b5f5f5f604084860312156139405761393f6132e8565b5b5f61394d868287016133d4565b935050602084013567ffffffffffffffff81111561396e5761396d6132ec565b5b61397a868287016138d4565b92509250509250925092565b61398f816134e3565b82525050565b5f6020820190506139a85f830184613986565b92915050565b5f5f604083850312156139c4576139c36132e8565b5b5f6139d1858286016133d4565b92505060206139e28582860161365c565b9150509250929050565b5f5f5f5f60608587031215613a0457613a036132e8565b5b5f613a1187828801613336565b9450506020613a2287828801613336565b935050604085013567ffffffffffffffff811115613a4357613a426132ec565b5b613a4f87828801613594565b925092505092959194509250565b613a668161379f565b82525050565b5f602082019050613a7f5f830184613a5d565b92915050565b5f5f83601f840112613a9a57613a9961334a565b5b8235905067ffffffffffffffff811115613ab757613ab661334e565b5b602083019150836020820283011115613ad357613ad2613352565b5b9250929050565b5f5f60208385031215613af057613aef6132e8565b5b5f83013567ffffffffffffffff811115613b0d57613b0c6132ec565b5b613b1985828601613a85565b92509250509250929050565b5f81519050919050565b5f82825260208201905092915050565b5f819050602082019050919050565b5f81519050919050565b5f82825260208201905092915050565b8281835e5f83830152505050565b5f601f19601f8301169050919050565b5f613b9082613b4e565b613b9a8185613b58565b9350613baa818560208601613b68565b613bb381613b76565b840191505092915050565b5f613bc98383613b86565b905092915050565b5f602082019050919050565b5f613be782613b25565b613bf18185613b2f565b935083602082028501613c0385613b3f565b805f5b85811015613c3e5784840389528151613c1f8582613bbe565b9450613c2a83613bd1565b925060208a01995050600181019050613c06565b50829750879550505050505092915050565b5f6020820190508181035f830152613c688184613bdd565b905092915050565b5f5f5f60608486031215613c8757613c866132e8565b5b5f613c9486828701613336565b9350506020613ca586828701613336565b9250506040613cb686828701613882565b9150509250925092565b5f604082019050613cd35f830185613986565b613ce060208301846134bb565b9392505050565b5f5f60408385031215613cfd57613cfc6132e8565b5b5f613d0a85828601613336565b9250506020613d1b8582860161365c565b9150509250929050565b613d2e816136fe565b8114613d38575f5ffd5b50565b5f81359050613d4981613d25565b92915050565b5f5f5f5f60608587031215613d6757613d666132e8565b5b5f613d7487828801613336565b945050602085013567ffffffffffffffff811115613d9557613d946132ec565b5b613da187828801613594565b93509350506040613db487828801613d3b565b91505092959194509250565b5f604082019050613dd35f830185613a5d565b613de060208301846134bb565b9392505050565b7f4e487b71000000000000000000000000000000000000000000000000000000005f52603260045260245ffd5b5f60208284031215613e2957613e286132e8565b5b5f613e3684828501613882565b91505092915050565b613e488161330f565b82525050565b5f602082019050613e615f830184613e3f565b92915050565b613e7081613841565b82525050565b5f606082019050613e895f830186613e3f565b613e966020830185613e3f565b613ea36040830184613e67565b949350505050565b5f82825260208201905092915050565b828183375f83830152505050565b5f613ed48385613eab565b9350613ee1838584613ebb565b613eea83613b76565b840190509392505050565b5f6020820190508181035f830152613f0e818486613ec9565b90509392505050565b5f81519050613f258161386c565b92915050565b5f60208284031215613f4057613f3f6132e8565b5b5f613f4d84828501613f17565b91505092915050565b5f82825260208201905092915050565b5f613f718385613f56565b9350613f7e838584613ebb565b613f8783613b76565b840190509392505050565b5f606082019050613fa55f830187613e3f565b613fb26020830186613e3f565b8181036040830152613fc5818486613f66565b905095945050505050565b5f819050919050565b7f4e487b71000000000000000000000000000000000000000000000000000000005f52601160045260245ffd5b5f61401082613fd0565b915061401b83613fd0565b925082820390508181111561403357614032613fd9565b5b92915050565b5f5ffd5b5f5ffd5b5f5f8585111561405457614053614039565b5b838611156140655761406461403d565b5b6001850283019150848603905094509492505050565b7f4e487b71000000000000000000000000000000000000000000000000000000005f52604160045260245ffd5b5f5ffd5b5f5ffd5b5f5ffd5b5f5f833560016020038436030381126140d0576140cf6140a8565b5b80840192508235915067ffffffffffffffff8211156140f2576140f16140ac565b5b60208301925060018202360383131561410e5761410d6140b0565b5b509250929050565b5f81905092915050565b5f61412b8385614116565b9350614138838584613ebb565b82840190509392505050565b5f61414e82613b4e565b6141588185614116565b9350614168818560208601613b68565b80840191505092915050565b5f614180828587614120565b915061418c8284614144565b9150819050949350505050565b5f6080820190506141ac5f830187613e3f565b6141b96020830186613e3f565b6141c66040830185613e3f565b6141d36060830184613e67565b95945050505050565b5f6141e6826136fe565b91506141f1836136fe565b9250828201905065ffffffffffff81111561420f5761420e613fd9565b5b92915050565b5f6080820190506142285f83018861370f565b6142356020830187613e3f565b6142426040830186613e3f565b8181036060830152614255818486613f66565b90509695505050505050565b5f6040820190506142745f830185613e3f565b6142816020830184613484565b9392505050565b5f60208201905061429b5f830184613e67565b92915050565b5f82905092915050565b5f82821b905092915050565b5f6142c283836142a1565b826142cd8135613841565b9250600482101561430d576143087fffffffff00000000000000000000000000000000000000000000000000000000836004036008026142ab565b831692505b505092915050565b61431e81613fd0565b82525050565b5f6040820190506143375f830185614315565b6143446020830184614315565b9392505050565b5f60608201905061435e5f8301866134bb565b61436b602083018561370f565b6143786040830184613986565b949350505050565b5f6040820190506143935f8301856134bb565b6143a0602083018461370f565b9392505050565b5f6143b1826132f0565b9050919050565b6143c1816143a7565b81146143cb575f5ffd5b50565b5f813590506143dc816143b8565b92915050565b5f602082840312156143f7576143f66132e8565b5b5f614404848285016143ce565b91505092915050565b5f614417826134ac565b9150614422836134ac565b9250828203905063ffffffff81111561443e5761443d613fd9565b5b92915050565b5f819050919050565b5f60ff82169050919050565b5f819050919050565b5f61447c61447761447284614444565b614459565b61444d565b9050919050565b61448c81614462565b82525050565b5f6040820190506144a55f830185614483565b6144b26020830184614315565b939250505056fea2646970667358221220cd2dfafc15d9ffd0b43eb6f25c039afa9b5f519befaec42590904e845f29878d64736f6c634300081e0033","linkReferences":{}},"methodIdentifiers":{"ADMIN_ROLE()":"75b238fc","PUBLIC_ROLE()":"3ca7c02a","canCall(address,address,bytes4)":"b7009613","cancel(address,address,bytes)":"d6bb62c6","consumeScheduledOp(address,bytes)":"94c7d7ee","execute(address,bytes)":"1cff79cd","expiration()":"4665096d","fnRestricted()":"57a22111","fnUnrestricted()":"6f154d2d","getAccess(uint64,address)":"3078f114","getNonce(bytes32)":"4136a33c","getRoleAdmin(uint64)":"530dd456","getRoleGrantDelay(uint64)":"12be8727","getRoleGuardian(uint64)":"0b0a93ba","getSchedule(bytes32)":"3adc277a","getTargetAdminDelay(address)":"4c1da1e2","getTargetFunctionRole(address,bytes4)":"6d5115bd","grantRole(uint64,address,uint32)":"25c471a0","hasRole(uint64,address)":"d1f856ee","hashOperation(address,address,bytes)":"abd9bd2a","isTargetClosed(address)":"a166aa89","labelRole(uint64,string)":"853551b8","minSetback()":"cc1b6c81","multicall(bytes[])":"ac9650d8","renounceRole(uint64,address)":"fe0776f5","revokeRole(uint64,address)":"b7d2b162","schedule(address,bytes,uint48)":"f801a698","setGrantDelay(uint64,uint32)":"a64d95ce","setRoleAdmin(uint64,uint64)":"30cae187","setRoleGuardian(uint64,uint64)":"52962952","setTargetAdminDelay(address,uint32)":"d22b5989","setTargetClosed(address,bool)":"167bd395","setTargetFunctionRole(address,bytes4[],uint64)":"08d6122d","updateAuthority(address,address)":"18ff183c"},"id":197}