{"abi":[{"type":"constructor","inputs":[{"name":"name","type":"string","internalType":"string"},{"name":"symbol","type":"string","internalType":"string"},{"name":"offset","type":"uint96","internalType":"uint96"},{"name":"delegates","type":"address[]","internalType":"address[]"},{"name":"receivers","type":"address[]","internalType":"address[]"},{"name":"amounts","type":"uint96[]","internalType":"uint96[]"}],"stateMutability":"nonpayable"},{"type":"function","name":"CLOCK_MODE","inputs":[],"outputs":[{"name":"","type":"string","internalType":"string"}],"stateMutability":"view"},{"type":"function","name":"approve","inputs":[{"name":"to","type":"address","internalType":"address"},{"name":"tokenId","type":"uint256","internalType":"uint256"}],"outputs":[],"stateMutability":"nonpayable"},{"type":"function","name":"balanceOf","inputs":[{"name":"owner","type":"address","internalType":"address"}],"outputs":[{"name":"","type":"uint256","internalType":"uint256"}],"stateMutability":"view"},{"type":"function","name":"clock","inputs":[],"outputs":[{"name":"","type":"uint48","internalType":"uint48"}],"stateMutability":"view"},{"type":"function","name":"delegate","inputs":[{"name":"delegatee","type":"address","internalType":"address"}],"outputs":[],"stateMutability":"nonpayable"},{"type":"function","name":"delegateBySig","inputs":[{"name":"delegatee","type":"address","internalType":"address"},{"name":"nonce","type":"uint256","internalType":"uint256"},{"name":"expiry","type":"uint256","internalType":"uint256"},{"name":"v","type":"uint8","internalType":"uint8"},{"name":"r","type":"bytes32","internalType":"bytes32"},{"name":"s","type":"bytes32","internalType":"bytes32"}],"outputs":[],"stateMutability":"nonpayable"},{"type":"function","name":"delegates","inputs":[{"name":"account","type":"address","internalType":"address"}],"outputs":[{"name":"","type":"address","internalType":"address"}],"stateMutability":"view"},{"type":"function","name":"eip712Domain","inputs":[],"outputs":[{"name":"fields","type":"bytes1","internalType":"bytes1"},{"name":"name","type":"string","internalType":"string"},{"name":"version","type":"string","internalType":"string"},{"name":"chainId","type":"uint256","internalType":"uint256"},{"name":"verifyingContract","type":"address","internalType":"address"},{"name":"salt","type":"bytes32","internalType":"bytes32"},{"name":"extensions","type":"uint256[]","internalType":"uint256[]"}],"stateMutability":"view"},{"type":"function","name":"getApproved","inputs":[{"name":"tokenId","type":"uint256","internalType":"uint256"}],"outputs":[{"name":"","type":"address","internalType":"address"}],"stateMutability":"view"},{"type":"function","name":"getPastTotalSupply","inputs":[{"name":"timepoint","type":"uint256","internalType":"uint256"}],"outputs":[{"name":"","type":"uint256","internalType":"uint256"}],"stateMutability":"view"},{"type":"function","name":"getPastVotes","inputs":[{"name":"account","type":"address","internalType":"address"},{"name":"timepoint","type":"uint256","internalType":"uint256"}],"outputs":[{"name":"","type":"uint256","internalType":"uint256"}],"stateMutability":"view"},{"type":"function","name":"getVotes","inputs":[{"name":"account","type":"address","internalType":"address"}],"outputs":[{"name":"","type":"uint256","internalType":"uint256"}],"stateMutability":"view"},{"type":"function","name":"isApprovedForAll","inputs":[{"name":"owner","type":"address","internalType":"address"},{"name":"operator","type":"address","internalType":"address"}],"outputs":[{"name":"","type":"bool","internalType":"bool"}],"stateMutability":"view"},{"type":"function","name":"name","inputs":[],"outputs":[{"name":"","type":"string","internalType":"string"}],"stateMutability":"view"},{"type":"function","name":"nonces","inputs":[{"name":"owner","type":"address","internalType":"address"}],"outputs":[{"name":"","type":"uint256","internalType":"uint256"}],"stateMutability":"view"},{"type":"function","name":"ownerOf","inputs":[{"name":"tokenId","type":"uint256","internalType":"uint256"}],"outputs":[{"name":"","type":"address","internalType":"address"}],"stateMutability":"view"},{"type":"function","name":"paused","inputs":[],"outputs":[{"name":"","type":"bool","internalType":"bool"}],"stateMutability":"view"},{"type":"function","name":"safeTransferFrom","inputs":[{"name":"from","type":"address","internalType":"address"},{"name":"to","type":"address","internalType":"address"},{"name":"tokenId","type":"uint256","internalType":"uint256"}],"outputs":[],"stateMutability":"nonpayable"},{"type":"function","name":"safeTransferFrom","inputs":[{"name":"from","type":"address","internalType":"address"},{"name":"to","type":"address","internalType":"address"},{"name":"tokenId","type":"uint256","internalType":"uint256"},{"name":"data","type":"bytes","internalType":"bytes"}],"outputs":[],"stateMutability":"nonpayable"},{"type":"function","name":"setApprovalForAll","inputs":[{"name":"operator","type":"address","internalType":"address"},{"name":"approved","type":"bool","internalType":"bool"}],"outputs":[],"stateMutability":"nonpayable"},{"type":"function","name":"supportsInterface","inputs":[{"name":"interfaceId","type":"bytes4","internalType":"bytes4"}],"outputs":[{"name":"","type":"bool","internalType":"bool"}],"stateMutability":"view"},{"type":"function","name":"symbol","inputs":[],"outputs":[{"name":"","type":"string","internalType":"string"}],"stateMutability":"view"},{"type":"function","name":"tokenURI","inputs":[{"name":"tokenId","type":"uint256","internalType":"uint256"}],"outputs":[{"name":"","type":"string","internalType":"string"}],"stateMutability":"view"},{"type":"function","name":"transferFrom","inputs":[{"name":"from","type":"address","internalType":"address"},{"name":"to","type":"address","internalType":"address"},{"name":"tokenId","type":"uint256","internalType":"uint256"}],"outputs":[],"stateMutability":"nonpayable"},{"type":"event","name":"Approval","inputs":[{"name":"owner","type":"address","indexed":true,"internalType":"address"},{"name":"approved","type":"address","indexed":true,"internalType":"address"},{"name":"tokenId","type":"uint256","indexed":true,"internalType":"uint256"}],"anonymous":false},{"type":"event","name":"ApprovalForAll","inputs":[{"name":"owner","type":"address","indexed":true,"internalType":"address"},{"name":"operator","type":"address","indexed":true,"internalType":"address"},{"name":"approved","type":"bool","indexed":false,"internalType":"bool"}],"anonymous":false},{"type":"event","name":"ConsecutiveTransfer","inputs":[{"name":"fromTokenId","type":"uint256","indexed":true,"internalType":"uint256"},{"name":"toTokenId","type":"uint256","indexed":false,"internalType":"uint256"},{"name":"fromAddress","type":"address","indexed":true,"internalType":"address"},{"name":"toAddress","type":"address","indexed":true,"internalType":"address"}],"anonymous":false},{"type":"event","name":"DelegateChanged","inputs":[{"name":"delegator","type":"address","indexed":true,"internalType":"address"},{"name":"fromDelegate","type":"address","indexed":true,"internalType":"address"},{"name":"toDelegate","type":"address","indexed":true,"internalType":"address"}],"anonymous":false},{"type":"event","name":"DelegateVotesChanged","inputs":[{"name":"delegate","type":"address","indexed":true,"internalType":"address"},{"name":"previousVotes","type":"uint256","indexed":false,"internalType":"uint256"},{"name":"newVotes","type":"uint256","indexed":false,"internalType":"uint256"}],"anonymous":false},{"type":"event","name":"EIP712DomainChanged","inputs":[],"anonymous":false},{"type":"event","name":"Paused","inputs":[{"name":"account","type":"address","indexed":false,"internalType":"address"}],"anonymous":false},{"type":"event","name":"Transfer","inputs":[{"name":"from","type":"address","indexed":true,"internalType":"address"},{"name":"to","type":"address","indexed":true,"internalType":"address"},{"name":"tokenId","type":"uint256","indexed":true,"internalType":"uint256"}],"anonymous":false},{"type":"event","name":"Unpaused","inputs":[{"name":"account","type":"address","indexed":false,"internalType":"address"}],"anonymous":false},{"type":"error","name":"CheckpointUnorderedInsertion","inputs":[]},{"type":"error","name":"ECDSAInvalidSignature","inputs":[]},{"type":"error","name":"ECDSAInvalidSignatureLength","inputs":[{"name":"length","type":"uint256","internalType":"uint256"}]},{"type":"error","name":"ECDSAInvalidSignatureS","inputs":[{"name":"s","type":"bytes32","internalType":"bytes32"}]},{"type":"error","name":"ERC5805FutureLookup","inputs":[{"name":"timepoint","type":"uint256","internalType":"uint256"},{"name":"clock","type":"uint48","internalType":"uint48"}]},{"type":"error","name":"ERC6372InconsistentClock","inputs":[]},{"type":"error","name":"ERC721ExceededMaxBatchMint","inputs":[{"name":"batchSize","type":"uint256","internalType":"uint256"},{"name":"maxBatch","type":"uint256","internalType":"uint256"}]},{"type":"error","name":"ERC721ForbiddenBatchBurn","inputs":[]},{"type":"error","name":"ERC721ForbiddenBatchMint","inputs":[]},{"type":"error","name":"ERC721ForbiddenMint","inputs":[]},{"type":"error","name":"ERC721IncorrectOwner","inputs":[{"name":"sender","type":"address","internalType":"address"},{"name":"tokenId","type":"uint256","internalType":"uint256"},{"name":"owner","type":"address","internalType":"address"}]},{"type":"error","name":"ERC721InsufficientApproval","inputs":[{"name":"operator","type":"address","internalType":"address"},{"name":"tokenId","type":"uint256","internalType":"uint256"}]},{"type":"error","name":"ERC721InvalidApprover","inputs":[{"name":"approver","type":"address","internalType":"address"}]},{"type":"error","name":"ERC721InvalidOperator","inputs":[{"name":"operator","type":"address","internalType":"address"}]},{"type":"error","name":"ERC721InvalidOwner","inputs":[{"name":"owner","type":"address","internalType":"address"}]},{"type":"error","name":"ERC721InvalidReceiver","inputs":[{"name":"receiver","type":"address","internalType":"address"}]},{"type":"error","name":"ERC721InvalidSender","inputs":[{"name":"sender","type":"address","internalType":"address"}]},{"type":"error","name":"ERC721NonexistentToken","inputs":[{"name":"tokenId","type":"uint256","internalType":"uint256"}]},{"type":"error","name":"EnforcedPause","inputs":[]},{"type":"error","name":"ExpectedPause","inputs":[]},{"type":"error","name":"InvalidAccountNonce","inputs":[{"name":"account","type":"address","internalType":"address"},{"name":"currentNonce","type":"uint256","internalType":"uint256"}]},{"type":"error","name":"InvalidShortString","inputs":[]},{"type":"error","name":"SafeCastOverflowedUintDowncast","inputs":[{"name":"bits","type":"uint8","internalType":"uint8"},{"name":"value","type":"uint256","internalType":"uint256"}]},{"type":"error","name":"StringTooLong","inputs":[{"name":"str","type":"string","internalType":"string"}]},{"type":"error","name":"VotesExpiredSignature","inputs":[{"name":"expiry","type":"uint256","internalType":"uint256"}]}],"bytecode":{"object":"0x610180604052348015610010575f5ffd5b506040516162c33803806162c383398181016040528101906100329190611874565b856040518060400160405280600181526020017f31000000000000000000000000000000000000000000000000000000000000008152508787815f90816100799190611b99565b5080600190816100899190611b99565b5050506100a060098361022360201b90919060201c565b61012081815250506100bc600a8261022360201b90919060201c565b6101408181525050818051906020012060e08181525050808051906020012061010081815250504660a081815250506100f961027060201b60201c565b608081815250503073ffffffffffffffffffffffffffffffffffffffff1660c08173ffffffffffffffffffffffffffffffffffffffff16815250505050836bffffffffffffffffffffffff16610160816bffffffffffffffffffffffff16815250505f5f90505b83518110156101b8576101ad84828151811061017f5761017e611c68565b5b602002602001015185838151811061019a57610199611c68565b5b60200260200101516102ca60201b60201c565b806001019050610160565b505f5f90505b82518110156102175761020b8382815181106101dd576101dc611c68565b5b60200260200101518383815181106101f8576101f7611c68565b5b60200260200101516103ec60201b60201c565b508060010190506101be565b50505050505050612130565b5f6020835110156102445761023d8361061b60201b60201c565b905061026a565b826102548361068060201b60201c565b5f0190816102629190611b99565b5060ff5f1b90505b92915050565b5f7f8b73c3c69bb8fe3d512ecc4cf759cc79239f7b179b0ffacaa9a75d522b39400f60e0516101005146306040516020016102af959493929190611ccb565b60405160208183030381529060405280519060200120905090565b5f6102da8361068960201b60201c565b905081600c5f8573ffffffffffffffffffffffffffffffffffffffff1673ffffffffffffffffffffffffffffffffffffffff1681526020019081526020015f205f6101000a81548173ffffffffffffffffffffffffffffffffffffffff021916908373ffffffffffffffffffffffffffffffffffffffff1602179055508173ffffffffffffffffffffffffffffffffffffffff168173ffffffffffffffffffffffffffffffffffffffff168473ffffffffffffffffffffffffffffffffffffffff167f3134e8a2e6d97e929a7e54011ea5485d7d196dd5f0ba4d4ef95803e8e3fc257f60405160405180910390a46103e781836103dc866106ee60201b60201c565b61070560201b60201c565b505050565b5f5f6103fc61099b60201b60201c565b90505f836bffffffffffffffffffffffff161115610611575f3073ffffffffffffffffffffffffffffffffffffffff163b1115610465576040517f539f906200000000000000000000000000000000000000000000000000000000815260040160405180910390fd5b5f73ffffffffffffffffffffffffffffffffffffffff168473ffffffffffffffffffffffffffffffffffffffff16036104d5575f6040517f64a0ae920000000000000000000000000000000000000000000000000000000081526004016104cc9190611d1c565b60405180910390fd5b5f6104e46109e060201b60201c565b6bffffffffffffffffffffffff16905080846bffffffffffffffffffffffff1611156105495783816040517f8f58e570000000000000000000000000000000000000000000000000000000008152600401610540929190611d65565b60405180910390fd5b5f600185846105589190611db9565b6105629190611df8565b905061057a818760066109e960201b9092919060201c565b505061059a86866bffffffffffffffffffffffff16610a0a60201b60201c565b8573ffffffffffffffffffffffffffffffffffffffff165f73ffffffffffffffffffffffffffffffffffffffff16846bffffffffffffffffffffffff167fdeaa91b6123d068f5821d0fb0678463d1a8a6079fe8af5de3ce5e896dcf9133d846040516106069190611e37565b60405180910390a450505b8091505092915050565b5f5f829050601f8151111561066757826040517f305a27a900000000000000000000000000000000000000000000000000000000815260040161065e9190611e98565b60405180910390fd5b80518161067390611ee5565b5f1c175f1b915050919050565b5f819050919050565b5f600c5f8373ffffffffffffffffffffffffffffffffffffffff1673ffffffffffffffffffffffffffffffffffffffff1681526020019081526020015f205f9054906101000a900473ffffffffffffffffffffffffffffffffffffffff169050919050565b5f6106fe82610a1e60201b60201c565b9050919050565b8173ffffffffffffffffffffffffffffffffffffffff168373ffffffffffffffffffffffffffffffffffffffff161415801561074057505f81115b15610996575f73ffffffffffffffffffffffffffffffffffffffff168373ffffffffffffffffffffffffffffffffffffffff161461086d575f5f6107de600d5f8773ffffffffffffffffffffffffffffffffffffffff1673ffffffffffffffffffffffffffffffffffffffff1681526020019081526020015f20610ad460201b610e37176107d386610ae960201b60201c565b610b5660201b60201c565b79ffffffffffffffffffffffffffffffffffffffffffffffffffff16915079ffffffffffffffffffffffffffffffffffffffffffffffffffff1691508473ffffffffffffffffffffffffffffffffffffffff167fdec2bacdd2f05b59de34da9b523dff8be42e5e38e818c82fdb0bae774387a7248383604051610862929190611f4b565b60405180910390a250505b5f73ffffffffffffffffffffffffffffffffffffffff168273ffffffffffffffffffffffffffffffffffffffff1614610995575f5f610906600d5f8673ffffffffffffffffffffffffffffffffffffffff1673ffffffffffffffffffffffffffffffffffffffff1681526020019081526020015f20610b9e60201b610e4c176108fb86610ae960201b60201c565b610b5660201b60201c565b79ffffffffffffffffffffffffffffffffffffffffffffffffffff16915079ffffffffffffffffffffffffffffffffffffffffffffffffffff1691508373ffffffffffffffffffffffffffffffffffffffff167fdec2bacdd2f05b59de34da9b523dff8be42e5e38e818c82fdb0bae774387a724838360405161098a929190611f4b565b60405180910390a250505b5b505050565b5f5f5f6109ae6006610bb360201b60201c565b5091509150816109cb576109c6610c4860201b60201c565b6109d9565b6001816109d89190611db9565b5b9250505090565b5f611388905090565b5f5f6109fe855f018585610c5260201b60201c565b91509150935093915050565b610a1a8282610f5860201b60201c565b5050565b5f5f73ffffffffffffffffffffffffffffffffffffffff168273ffffffffffffffffffffffffffffffffffffffff1603610a8f575f6040517f89c62b64000000000000000000000000000000000000000000000000000000008152600401610a869190611d1c565b60405180910390fd5b60035f8373ffffffffffffffffffffffffffffffffffffffff1673ffffffffffffffffffffffffffffffffffffffff1681526020019081526020015f20549050919050565b5f8183610ae19190611f97565b905092915050565b5f79ffffffffffffffffffffffffffffffffffffffffffffffffffff8016821115610b4e5760d0826040517f6dfcc650000000000000000000000000000000000000000000000000000000008152600401610b45929190612029565b60405180910390fd5b819050919050565b5f5f610b92610b69610f8f60201b60201c565b610b82610b7b88610fa360201b60201c565b868860201c565b8761100b60201b9092919060201c565b91509150935093915050565b5f8183610bab9190612050565b905092915050565b5f5f5f5f845f018054905090505f8103610bd6575f5f5f93509350935050610c41565b5f610bf5865f01600184610bea919061209d565b61102c60201b60201c565b90506001815f015f9054906101000a90046bffffffffffffffffffffffff16825f01600c9054906101000a900473ffffffffffffffffffffffffffffffffffffffff1694509450945050505b9193909250565b5f61016051905090565b5f5f5f858054905090505f811115610e70575f610c8187600184610c76919061209d565b61102c60201b60201c565b90505f815f015f9054906101000a90046bffffffffffffffffffffffff1690505f825f01600c9054906101000a900473ffffffffffffffffffffffffffffffffffffffff169050876bffffffffffffffffffffffff16826bffffffffffffffffffffffff161115610d1e576040517f2520601d00000000000000000000000000000000000000000000000000000000815260040160405180910390fd5b876bffffffffffffffffffffffff16826bffffffffffffffffffffffff1603610d885786835f01600c6101000a81548173ffffffffffffffffffffffffffffffffffffffff021916908373ffffffffffffffffffffffffffffffffffffffff160217905550610e61565b8860405180604001604052808a6bffffffffffffffffffffffff1681526020018973ffffffffffffffffffffffffffffffffffffffff16815250908060018154018082558091505060019003905f5260205f20015f909190919091505f820151815f015f6101000a8154816bffffffffffffffffffffffff02191690836bffffffffffffffffffffffff1602179055506020820151815f01600c6101000a81548173ffffffffffffffffffffffffffffffffffffffff021916908373ffffffffffffffffffffffffffffffffffffffff16021790555050505b80879550955050505050610f50565b856040518060400160405280876bffffffffffffffffffffffff1681526020018673ffffffffffffffffffffffffffffffffffffffff16815250908060018154018082558091505060019003905f5260205f20015f909190919091505f820151815f015f6101000a8154816bffffffffffffffffffffffff02191690836bffffffffffffffffffffffff1602179055506020820151815f01600c6101000a81548173ffffffffffffffffffffffffffffffffffffffff021916908373ffffffffffffffffffffffffffffffffffffffff16021790555050505f8492509250505b935093915050565b610f68828261103e60201b60201c565b610f8b5f83836fffffffffffffffffffffffffffffffff1661109e60201b60201c565b5050565b5f610f9e61118e60201b60201c565b905090565b5f5f825f018054905090505f811461100157610fd3835f01600183610fc8919061209d565b6111a360201b60201c565b5f0160069054906101000a900479ffffffffffffffffffffffffffffffffffffffffffffffffffff16611003565b5f5b915050919050565b5f5f611020855f0185856111b560201b60201c565b91509150935093915050565b5f825f528160205f2001905092915050565b806fffffffffffffffffffffffffffffffff1660035f8473ffffffffffffffffffffffffffffffffffffffff1673ffffffffffffffffffffffffffffffffffffffff1681526020019081526020015f205f82825401925050819055505050565b5f73ffffffffffffffffffffffffffffffffffffffff168373ffffffffffffffffffffffffffffffffffffffff16036110fd576110fa600e610b9e60201b610e4c176110ef84610ae960201b60201c565b610b5660201b60201c565b50505b5f73ffffffffffffffffffffffffffffffffffffffff168273ffffffffffffffffffffffffffffffffffffffff160361115c57611159600e610ad460201b610e371761114e84610ae960201b60201c565b610b5660201b60201c565b50505b61118961116e8461068960201b60201c565b61117d8461068960201b60201c565b8361070560201b60201c565b505050565b5f61119e436114af60201b60201c565b905090565b5f825f528160205f2001905092915050565b5f5f5f858054905090505f8111156113c7575f6111e4876001846111d9919061209d565b6111a360201b60201c565b90505f815f015f9054906101000a900465ffffffffffff1690505f825f0160069054906101000a900479ffffffffffffffffffffffffffffffffffffffffffffffffffff1690508765ffffffffffff168265ffffffffffff161115611275576040517f2520601d00000000000000000000000000000000000000000000000000000000815260040160405180910390fd5b8765ffffffffffff168265ffffffffffff16036112df5786835f0160066101000a81548179ffffffffffffffffffffffffffffffffffffffffffffffffffff021916908379ffffffffffffffffffffffffffffffffffffffffffffffffffff1602179055506113b8565b8860405180604001604052808a65ffffffffffff1681526020018979ffffffffffffffffffffffffffffffffffffffffffffffffffff16815250908060018154018082558091505060019003905f5260205f20015f909190919091505f820151815f015f6101000a81548165ffffffffffff021916908365ffffffffffff1602179055506020820151815f0160066101000a81548179ffffffffffffffffffffffffffffffffffffffffffffffffffff021916908379ffffffffffffffffffffffffffffffffffffffffffffffffffff16021790555050505b808795509550505050506114a7565b8560405180604001604052808765ffffffffffff1681526020018679ffffffffffffffffffffffffffffffffffffffffffffffffffff16815250908060018154018082558091505060019003905f5260205f20015f909190919091505f820151815f015f6101000a81548165ffffffffffff021916908365ffffffffffff1602179055506020820151815f0160066101000a81548179ffffffffffffffffffffffffffffffffffffffffffffffffffff021916908379ffffffffffffffffffffffffffffffffffffffffffffffffffff16021790555050505f8492509250505b935093915050565b5f65ffffffffffff8016821115611500576030826040517f6dfcc6500000000000000000000000000000000000000000000000000000000081526004016114f7929190612109565b60405180910390fd5b819050919050565b5f604051905090565b5f5ffd5b5f5ffd5b5f5ffd5b5f5ffd5b5f601f19601f8301169050919050565b7f4e487b71000000000000000000000000000000000000000000000000000000005f52604160045260245ffd5b61156782611521565b810181811067ffffffffffffffff8211171561158657611585611531565b5b80604052505050565b5f611598611508565b90506115a4828261155e565b919050565b5f67ffffffffffffffff8211156115c3576115c2611531565b5b6115cc82611521565b9050602081019050919050565b8281835e5f83830152505050565b5f6115f96115f4846115a9565b61158f565b9050828152602081018484840111156116155761161461151d565b5b6116208482856115d9565b509392505050565b5f82601f83011261163c5761163b611519565b5b815161164c8482602086016115e7565b91505092915050565b5f6bffffffffffffffffffffffff82169050919050565b61167581611655565b811461167f575f5ffd5b50565b5f815190506116908161166c565b92915050565b5f67ffffffffffffffff8211156116b0576116af611531565b5b602082029050602081019050919050565b5f5ffd5b5f73ffffffffffffffffffffffffffffffffffffffff82169050919050565b5f6116ee826116c5565b9050919050565b6116fe816116e4565b8114611708575f5ffd5b50565b5f81519050611719816116f5565b92915050565b5f61173161172c84611696565b61158f565b90508083825260208201905060208402830185811115611754576117536116c1565b5b835b8181101561177d5780611769888261170b565b845260208401935050602081019050611756565b5050509392505050565b5f82601f83011261179b5761179a611519565b5b81516117ab84826020860161171f565b91505092915050565b5f67ffffffffffffffff8211156117ce576117cd611531565b5b602082029050602081019050919050565b5f6117f16117ec846117b4565b61158f565b90508083825260208201905060208402830185811115611814576118136116c1565b5b835b8181101561183d57806118298882611682565b845260208401935050602081019050611816565b5050509392505050565b5f82601f83011261185b5761185a611519565b5b815161186b8482602086016117df565b91505092915050565b5f5f5f5f5f5f60c0878903121561188e5761188d611511565b5b5f87015167ffffffffffffffff8111156118ab576118aa611515565b5b6118b789828a01611628565b965050602087015167ffffffffffffffff8111156118d8576118d7611515565b5b6118e489828a01611628565b95505060406118f589828a01611682565b945050606087015167ffffffffffffffff81111561191657611915611515565b5b61192289828a01611787565b935050608087015167ffffffffffffffff81111561194357611942611515565b5b61194f89828a01611787565b92505060a087015167ffffffffffffffff8111156119705761196f611515565b5b61197c89828a01611847565b9150509295509295509295565b5f81519050919050565b7f4e487b71000000000000000000000000000000000000000000000000000000005f52602260045260245ffd5b5f60028204905060018216806119d757607f821691505b6020821081036119ea576119e9611993565b5b50919050565b5f819050815f5260205f209050919050565b5f6020601f8301049050919050565b5f82821b905092915050565b5f60088302611a4c7fffffffffffffffffffffffffffffffffffffffffffffffffffffffffffffffff82611a11565b611a568683611a11565b95508019841693508086168417925050509392505050565b5f819050919050565b5f819050919050565b5f611a9a611a95611a9084611a6e565b611a77565b611a6e565b9050919050565b5f819050919050565b611ab383611a80565b611ac7611abf82611aa1565b848454611a1d565b825550505050565b5f5f905090565b611ade611acf565b611ae9818484611aaa565b505050565b5b81811015611b0c57611b015f82611ad6565b600181019050611aef565b5050565b601f821115611b5157611b22816119f0565b611b2b84611a02565b81016020851015611b3a578190505b611b4e611b4685611a02565b830182611aee565b50505b505050565b5f82821c905092915050565b5f611b715f1984600802611b56565b1980831691505092915050565b5f611b898383611b62565b9150826002028217905092915050565b611ba282611989565b67ffffffffffffffff811115611bbb57611bba611531565b5b611bc582546119c0565b611bd0828285611b10565b5f60209050601f831160018114611c01575f8415611bef578287015190505b611bf98582611b7e565b865550611c60565b601f198416611c0f866119f0565b5f5b82811015611c3657848901518255600182019150602085019450602081019050611c11565b86831015611c535784890151611c4f601f891682611b62565b8355505b6001600288020188555050505b505050505050565b7f4e487b71000000000000000000000000000000000000000000000000000000005f52603260045260245ffd5b5f819050919050565b611ca781611c95565b82525050565b611cb681611a6e565b82525050565b611cc5816116e4565b82525050565b5f60a082019050611cde5f830188611c9e565b611ceb6020830187611c9e565b611cf86040830186611c9e565b611d056060830185611cad565b611d126080830184611cbc565b9695505050505050565b5f602082019050611d2f5f830184611cbc565b92915050565b5f611d4f611d4a611d4584611655565b611a77565b611a6e565b9050919050565b611d5f81611d35565b82525050565b5f604082019050611d785f830185611d56565b611d856020830184611cad565b9392505050565b7f4e487b71000000000000000000000000000000000000000000000000000000005f52601160045260245ffd5b5f611dc382611655565b9150611dce83611655565b925082820190506bffffffffffffffffffffffff811115611df257611df1611d8c565b5b92915050565b5f611e0282611655565b9150611e0d83611655565b925082820390506bffffffffffffffffffffffff811115611e3157611e30611d8c565b5b92915050565b5f602082019050611e4a5f830184611d56565b92915050565b5f82825260208201905092915050565b5f611e6a82611989565b611e748185611e50565b9350611e848185602086016115d9565b611e8d81611521565b840191505092915050565b5f6020820190508181035f830152611eb08184611e60565b905092915050565b5f81519050919050565b5f819050602082019050919050565b5f611edc8251611c95565b80915050919050565b5f611eef82611eb8565b82611ef984611ec2565b9050611f0481611ed1565b92506020821015611f4457611f3f7fffffffffffffffffffffffffffffffffffffffffffffffffffffffffffffffff83602003600802611a11565b831692505b5050919050565b5f604082019050611f5e5f830185611cad565b611f6b6020830184611cad565b9392505050565b5f79ffffffffffffffffffffffffffffffffffffffffffffffffffff82169050919050565b5f611fa182611f72565b9150611fac83611f72565b9250828203905079ffffffffffffffffffffffffffffffffffffffffffffffffffff811115611fde57611fdd611d8c565b5b92915050565b5f819050919050565b5f60ff82169050919050565b5f61201361200e61200984611fe4565b611a77565b611fed565b9050919050565b61202381611ff9565b82525050565b5f60408201905061203c5f83018561201a565b6120496020830184611cad565b9392505050565b5f61205a82611f72565b915061206583611f72565b9250828201905079ffffffffffffffffffffffffffffffffffffffffffffffffffff81111561209757612096611d8c565b5b92915050565b5f6120a782611a6e565b91506120b283611a6e565b92508282039050818111156120ca576120c9611d8c565b5b92915050565b5f819050919050565b5f6120f36120ee6120e9846120d0565b611a77565b611fed565b9050919050565b612103816120d9565b82525050565b5f60408201905061211c5f8301856120fa565b6121296020830184611cad565b9392505050565b60805160a05160c05160e0516101005161012051610140516101605161413861218b5f395f61283b01525f61127501525f61123a01525f6127af01525f61278e01525f611fad01525f61200301525f61202c01526141385ff3fe608060405234801561000f575f5ffd5b5060043610610156575f3560e01c806370a08231116100c15780639ab24eb01161007a5780639ab24eb014610404578063a22cb46514610434578063b88d4fde14610450578063c3cda5201461046c578063c87b56dd14610488578063e985e9c5146104b857610156565b806370a08231146103145780637ecebe001461034457806384b0196e146103745780638e539e8c1461039857806391ddadf4146103c857806395d89b41146103e657610156565b806342842e0e1161011357806342842e0e146102405780634bf5d7e91461025c578063587cde1e1461027a5780635c19a95c146102aa5780635c975abb146102c65780636352211e146102e457610156565b806301ffc9a71461015a57806306fdde031461018a578063081812fc146101a8578063095ea7b3146101d857806323b872dd146101f45780633a46b1a814610210575b5f5ffd5b610174600480360381019061016f919061334b565b6104e8565b6040516101819190613390565b60405180910390f35b6101926105c9565b60405161019f9190613419565b60405180910390f35b6101c260048036038101906101bd919061346c565b610658565b6040516101cf91906134d6565b60405180910390f35b6101f260048036038101906101ed9190613519565b610673565b005b61020e60048036038101906102099190613557565b610689565b005b61022a60048036038101906102259190613519565b610788565b60405161023791906135b6565b60405180910390f35b61025a60048036038101906102559190613557565b610804565b005b610264610823565b6040516102719190613419565b60405180910390f35b610294600480360381019061028f91906135cf565b6108b7565b6040516102a191906134d6565b60405180910390f35b6102c460048036038101906102bf91906135cf565b61091c565b005b6102ce610935565b6040516102db9190613390565b60405180910390f35b6102fe60048036038101906102f9919061346c565b61094a565b60405161030b91906134d6565b60405180910390f35b61032e600480360381019061032991906135cf565b61095b565b60405161033b91906135b6565b60405180910390f35b61035e600480360381019061035991906135cf565b610a11565b60405161036b91906135b6565b60405180910390f35b61037c610a57565b60405161038f9796959493929190613703565b60405180910390f35b6103b260048036038101906103ad919061346c565b610afc565b6040516103bf91906135b6565b60405180910390f35b6103d0610b3c565b6040516103dd91906137a5565b60405180910390f35b6103ee610b4a565b6040516103fb9190613419565b60405180910390f35b61041e600480360381019061041991906135cf565b610bda565b60405161042b91906135b6565b60405180910390f35b61044e600480360381019061044991906137e8565b610c43565b005b61046a60048036038101906104659190613952565b610c59565b005b61048660048036038101906104819190613a32565b610c7e565b005b6104a2600480360381019061049d919061346c565b610d43565b6040516104af9190613419565b60405180910390f35b6104d260048036038101906104cd9190613abb565b610da9565b6040516104df9190613390565b60405180910390f35b5f7f80ac58cd000000000000000000000000000000000000000000000000000000007bffffffffffffffffffffffffffffffffffffffffffffffffffffffff1916827bffffffffffffffffffffffffffffffffffffffffffffffffffffffff191614806105b257507f5b5e139f000000000000000000000000000000000000000000000000000000007bffffffffffffffffffffffffffffffffffffffffffffffffffffffff1916827bffffffffffffffffffffffffffffffffffffffffffffffffffffffff1916145b806105c257506105c182610e61565b5b9050919050565b60605f80546105d790613b26565b80601f016020809104026020016040519081016040528092919081815260200182805461060390613b26565b801561064e5780601f106106255761010080835404028352916020019161064e565b820191905f5260205f20905b81548152906001019060200180831161063157829003601f168201915b5050505050905090565b5f61066282610eca565b5061066c82610f50565b9050919050565b6106858282610680610f89565b610f90565b5050565b5f73ffffffffffffffffffffffffffffffffffffffff168273ffffffffffffffffffffffffffffffffffffffff16036106f9575f6040517f64a0ae920000000000000000000000000000000000000000000000000000000081526004016106f091906134d6565b60405180910390fd5b5f61070c8383610707610f89565b610fa2565b90508373ffffffffffffffffffffffffffffffffffffffff168173ffffffffffffffffffffffffffffffffffffffff1614610782578382826040517f64283d7b00000000000000000000000000000000000000000000000000000000815260040161077993929190613b56565b60405180910390fd5b50505050565b5f6107e061079583610fb7565b600d5f8673ffffffffffffffffffffffffffffffffffffffff1673ffffffffffffffffffffffffffffffffffffffff1681526020019081526020015f2061102290919063ffffffff16565b79ffffffffffffffffffffffffffffffffffffffffffffffffffff16905092915050565b61081e83838360405180602001604052805f815250610c59565b505050565b606061082d611112565b65ffffffffffff1661083d610b3c565b65ffffffffffff161461087c576040517f6ff0714000000000000000000000000000000000000000000000000000000000815260040160405180910390fd5b6040518060400160405280601d81526020017f6d6f64653d626c6f636b6e756d6265722666726f6d3d64656661756c74000000815250905090565b5f600c5f8373ffffffffffffffffffffffffffffffffffffffff1673ffffffffffffffffffffffffffffffffffffffff1681526020019081526020015f205f9054906101000a900473ffffffffffffffffffffffffffffffffffffffff169050919050565b5f610925610f89565b90506109318183611121565b5050565b5f60085f9054906101000a900460ff16905090565b5f61095482610eca565b9050919050565b5f5f73ffffffffffffffffffffffffffffffffffffffff168273ffffffffffffffffffffffffffffffffffffffff16036109cc575f6040517f89c62b640000000000000000000000000000000000000000000000000000000081526004016109c391906134d6565b60405180910390fd5b60035f8373ffffffffffffffffffffffffffffffffffffffff1673ffffffffffffffffffffffffffffffffffffffff1681526020019081526020015f20549050919050565b5f600b5f8373ffffffffffffffffffffffffffffffffffffffff1673ffffffffffffffffffffffffffffffffffffffff1681526020019081526020015f20549050919050565b5f6060805f5f5f6060610a68611231565b610a7061126c565b46305f5f1b5f67ffffffffffffffff811115610a8f57610a8e61382e565b5b604051908082528060200260200182016040528015610abd5781602001602082028036833780820191505090505b507f0f00000000000000000000000000000000000000000000000000000000000000959493929190965096509650965096509650965090919293949596565b5f610b19610b0983610fb7565b600e61102290919063ffffffff16565b79ffffffffffffffffffffffffffffffffffffffffffffffffffff169050919050565b5f610b45611112565b905090565b606060018054610b5990613b26565b80601f0160208091040260200160405190810160405280929190818152602001828054610b8590613b26565b8015610bd05780601f10610ba757610100808354040283529160200191610bd0565b820191905f5260205f20905b815481529060010190602001808311610bb357829003601f168201915b5050505050905090565b5f610c20600d5f8473ffffffffffffffffffffffffffffffffffffffff1673ffffffffffffffffffffffffffffffffffffffff1681526020019081526020015f206112a7565b79ffffffffffffffffffffffffffffffffffffffffffffffffffff169050919050565b610c55610c4e610f89565b8383611309565b5050565b610c64848484610689565b610c78610c6f610f89565b858585856114e2565b50505050565b83421115610cc357836040517f4683af0e000000000000000000000000000000000000000000000000000000008152600401610cba91906135b6565b60405180910390fd5b5f610d24610d1c7fe48329057bfd03d55e49b547132e39cffd9c1820ad7b9d4c5307691425d15adf898989604051602001610d019493929190613b8b565b6040516020818303038152906040528051906020012061168e565b8585856116a7565b9050610d3081876116d5565b610d3a8188611121565b50505050505050565b6060610d4e82610eca565b505f610d5861172c565b90505f815111610d765760405180602001604052805f815250610da1565b80610d8084611742565b604051602001610d91929190613c08565b6040516020818303038152906040525b915050919050565b5f60055f8473ffffffffffffffffffffffffffffffffffffffff1673ffffffffffffffffffffffffffffffffffffffff1681526020019081526020015f205f8373ffffffffffffffffffffffffffffffffffffffff1673ffffffffffffffffffffffffffffffffffffffff1681526020019081526020015f205f9054906101000a900460ff16905092915050565b5f8183610e449190613c7d565b905092915050565b5f8183610e599190613cca565b905092915050565b5f7f01ffc9a7000000000000000000000000000000000000000000000000000000007bffffffffffffffffffffffffffffffffffffffffffffffffffffffff1916827bffffffffffffffffffffffffffffffffffffffffffffffffffffffff1916149050919050565b5f5f610ed58361180c565b90505f73ffffffffffffffffffffffffffffffffffffffff168173ffffffffffffffffffffffffffffffffffffffff1603610f4757826040517f7e273289000000000000000000000000000000000000000000000000000000008152600401610f3e91906135b6565b60405180910390fd5b80915050919050565b5f60045f8381526020019081526020015f205f9054906101000a900473ffffffffffffffffffffffffffffffffffffffff169050919050565b5f33905090565b610f9d838383600161181d565b505050565b5f610fae8484846119dc565b90509392505050565b5f5f610fc1610b3c565b90508065ffffffffffff1683106110115782816040517fecd3f81e000000000000000000000000000000000000000000000000000000008152600401611008929190613d17565b60405180910390fd5b61101a83611a02565b915050919050565b5f5f835f018054905090505f5f90505f82905060058311156110a6575f61104884611a5b565b846110539190613d3e565b9050611061875f0182611bf5565b5f015f9054906101000a900465ffffffffffff1665ffffffffffff168665ffffffffffff161015611094578091506110a4565b6001816110a19190613d71565b92505b505b5f6110b5875f01878585611c07565b90505f8114611104576110d6875f016001836110d19190613d3e565b611bf5565b5f0160069054906101000a900479ffffffffffffffffffffffffffffffffffffffffffffffffffff16611106565b5f5b94505050505092915050565b5f61111c43611a02565b905090565b5f61112b836108b7565b905081600c5f8573ffffffffffffffffffffffffffffffffffffffff1673ffffffffffffffffffffffffffffffffffffffff1681526020019081526020015f205f6101000a81548173ffffffffffffffffffffffffffffffffffffffff021916908373ffffffffffffffffffffffffffffffffffffffff1602179055508173ffffffffffffffffffffffffffffffffffffffff168173ffffffffffffffffffffffffffffffffffffffff168473ffffffffffffffffffffffffffffffffffffffff167f3134e8a2e6d97e929a7e54011ea5485d7d196dd5f0ba4d4ef95803e8e3fc257f60405160405180910390a461122c818361122786611c7c565b611c8d565b505050565b606061126760097f0000000000000000000000000000000000000000000000000000000000000000611efd90919063ffffffff16565b905090565b60606112a2600a7f0000000000000000000000000000000000000000000000000000000000000000611efd90919063ffffffff16565b905090565b5f5f825f018054905090505f81146112ff576112d1835f016001836112cc9190613d3e565b611bf5565b5f0160069054906101000a900479ffffffffffffffffffffffffffffffffffffffffffffffffffff16611301565b5f5b915050919050565b5f73ffffffffffffffffffffffffffffffffffffffff168373ffffffffffffffffffffffffffffffffffffffff1603611379575f6040517fa9fbf51f00000000000000000000000000000000000000000000000000000000815260040161137091906134d6565b60405180910390fd5b5f73ffffffffffffffffffffffffffffffffffffffff168273ffffffffffffffffffffffffffffffffffffffff16036113e957816040517f5b08ba180000000000000000000000000000000000000000000000000000000081526004016113e091906134d6565b60405180910390fd5b8060055f8573ffffffffffffffffffffffffffffffffffffffff1673ffffffffffffffffffffffffffffffffffffffff1681526020019081526020015f205f8473ffffffffffffffffffffffffffffffffffffffff1673ffffffffffffffffffffffffffffffffffffffff1681526020019081526020015f205f6101000a81548160ff0219169083151502179055508173ffffffffffffffffffffffffffffffffffffffff168373ffffffffffffffffffffffffffffffffffffffff167f17307eab39ab6107e8899845ad3d59bd9653f200f220920489ca2b5937696c31836040516114d59190613390565b60405180910390a3505050565b5f8373ffffffffffffffffffffffffffffffffffffffff163b1115611687578273ffffffffffffffffffffffffffffffffffffffff1663150b7a02868685856040518563ffffffff1660e01b81526004016115409493929190613df6565b6020604051808303815f875af192505050801561157b57506040513d601f19601f820116820180604052508101906115789190613e54565b60015b6115fc573d805f81146115a9576040519150601f19603f3d011682016040523d82523d5f602084013e6115ae565b606091505b505f8151036115f457836040517f64a0ae920000000000000000000000000000000000000000000000000000000081526004016115eb91906134d6565b60405180910390fd5b805160208201fd5b63150b7a0260e01b7bffffffffffffffffffffffffffffffffffffffffffffffffffffffff1916817bffffffffffffffffffffffffffffffffffffffffffffffffffffffff19161461168557836040517f64a0ae9200000000000000000000000000000000000000000000000000000000815260040161167c91906134d6565b60405180910390fd5b505b5050505050565b5f6116a061169a611faa565b83612060565b9050919050565b5f5f5f5f6116b7888888886120a0565b9250925092506116c78282612187565b829350505050949350505050565b5f6116df836122e9565b90508082146117275782816040517f752d88c000000000000000000000000000000000000000000000000000000000815260040161171e929190613e7f565b60405180910390fd5b505050565b606060405180602001604052805f815250905090565b60605f60016117508461233c565b0190505f8167ffffffffffffffff81111561176e5761176d61382e565b5b6040519080825280601f01601f1916602001820160405280156117a05781602001600182028036833780820191505090505b5090505f82602083010190505b600115611801578080600190039150507f3031323334353637383961626364656600000000000000000000000000000000600a86061a8153600a85816117f6576117f5613ea6565b5b0494505f85036117ad575b819350505050919050565b5f6118168261248d565b9050919050565b808061185557505f73ffffffffffffffffffffffffffffffffffffffff168273ffffffffffffffffffffffffffffffffffffffff1614155b15611987575f61186484610eca565b90505f73ffffffffffffffffffffffffffffffffffffffff168373ffffffffffffffffffffffffffffffffffffffff16141580156118ce57508273ffffffffffffffffffffffffffffffffffffffff168173ffffffffffffffffffffffffffffffffffffffff1614155b80156118e157506118df8184610da9565b155b1561192357826040517fa9fbf51f00000000000000000000000000000000000000000000000000000000815260040161191a91906134d6565b60405180910390fd5b811561198557838573ffffffffffffffffffffffffffffffffffffffff168273ffffffffffffffffffffffffffffffffffffffff167f8c5be1e5ebec7d5bd14f71427d1e84f3dd0314c0f7b2291e5b200ac8c7c3b92560405160405180910390a45b505b8360045f8581526020019081526020015f205f6101000a81548173ffffffffffffffffffffffffffffffffffffffff021916908373ffffffffffffffffffffffffffffffffffffffff16021790555050505050565b5f5f6119e985858561254b565b90506119f781866001612568565b809150509392505050565b5f65ffffffffffff8016821115611a53576030826040517f6dfcc650000000000000000000000000000000000000000000000000000000008152600401611a4a929190613f15565b60405180910390fd5b819050919050565b5f60018211611a6c57819050611bf0565b5f8290505f600190507001000000000000000000000000000000008210611a9c57608082901c9150604081901b90505b680100000000000000008210611abb57604082901c9150602081901b90505b6401000000008210611ad657602082901c9150601081901b90505b620100008210611aef57601082901c9150600881901b90505b6101008210611b0757600882901c9150600481901b90505b60108210611b1e57600482901c9150600281901b90505b60048210611b2e57600181901b90505b600181600302901c90506001818581611b4a57611b49613ea6565b5b048201901c90506001818581611b6357611b62613ea6565b5b048201901c90506001818581611b7c57611b7b613ea6565b5b048201901c90506001818581611b9557611b94613ea6565b5b048201901c90506001818581611bae57611bad613ea6565b5b048201901c90506001818581611bc757611bc6613ea6565b5b048201901c9050611be9818581611be157611be0613ea6565b5b048211612620565b8103925050505b919050565b5f825f528160205f2001905092915050565b5f5b81831015611c71575f611c1c848461262b565b90508465ffffffffffff16611c318783611bf5565b5f015f9054906101000a900465ffffffffffff1665ffffffffffff161115611c5b57809250611c6b565b600181611c689190613d71565b93505b50611c09565b819050949350505050565b5f611c868261095b565b9050919050565b8173ffffffffffffffffffffffffffffffffffffffff168373ffffffffffffffffffffffffffffffffffffffff1614158015611cc857505f81115b15611ef8575f73ffffffffffffffffffffffffffffffffffffffff168373ffffffffffffffffffffffffffffffffffffffff1614611de2575f5f611d53600d5f8773ffffffffffffffffffffffffffffffffffffffff1673ffffffffffffffffffffffffffffffffffffffff1681526020019081526020015f20610e37611d4e8661264c565b6126b9565b79ffffffffffffffffffffffffffffffffffffffffffffffffffff16915079ffffffffffffffffffffffffffffffffffffffffffffffffffff1691508473ffffffffffffffffffffffffffffffffffffffff167fdec2bacdd2f05b59de34da9b523dff8be42e5e38e818c82fdb0bae774387a7248383604051611dd7929190613f3c565b60405180910390a250505b5f73ffffffffffffffffffffffffffffffffffffffff168273ffffffffffffffffffffffffffffffffffffffff1614611ef7575f5f611e68600d5f8673ffffffffffffffffffffffffffffffffffffffff1673ffffffffffffffffffffffffffffffffffffffff1681526020019081526020015f20610e4c611e638661264c565b6126b9565b79ffffffffffffffffffffffffffffffffffffffffffffffffffff16915079ffffffffffffffffffffffffffffffffffffffffffffffffffff1691508373ffffffffffffffffffffffffffffffffffffffff167fdec2bacdd2f05b59de34da9b523dff8be42e5e38e818c82fdb0bae774387a7248383604051611eec929190613f3c565b60405180910390a250505b5b505050565b606060ff5f1b8314611f1957611f12836126f8565b9050611fa4565b818054611f2590613b26565b80601f0160208091040260200160405190810160405280929190818152602001828054611f5190613b26565b8015611f9c5780601f10611f7357610100808354040283529160200191611f9c565b820191905f5260205f20905b815481529060010190602001808311611f7f57829003601f168201915b505050505090505b92915050565b5f7f000000000000000000000000000000000000000000000000000000000000000073ffffffffffffffffffffffffffffffffffffffff163073ffffffffffffffffffffffffffffffffffffffff1614801561202557507f000000000000000000000000000000000000000000000000000000000000000046145b15612052577f0000000000000000000000000000000000000000000000000000000000000000905061205d565b61205a61276a565b90505b90565b5f6040517f190100000000000000000000000000000000000000000000000000000000000081528360028201528260228201526042812091505092915050565b5f5f5f7f7fffffffffffffffffffffffffffffff5d576e7357a4501ddfe92f46681b20a0845f1c11156120dc575f60038592509250925061217d565b5f6001888888886040515f81526020016040526040516120ff9493929190613f72565b6020604051602081039080840390855afa15801561211f573d5f5f3e3d5ffd5b5050506020604051035190505f73ffffffffffffffffffffffffffffffffffffffff168173ffffffffffffffffffffffffffffffffffffffff1603612170575f60015f5f1b9350935093505061217d565b805f5f5f1b935093509350505b9450945094915050565b5f600381111561219a57612199613fb5565b5b8260038111156121ad576121ac613fb5565b5b03156122e557600160038111156121c7576121c6613fb5565b5b8260038111156121da576121d9613fb5565b5b03612211576040517ff645eedf00000000000000000000000000000000000000000000000000000000815260040160405180910390fd5b6002600381111561222557612224613fb5565b5b82600381111561223857612237613fb5565b5b0361227c57805f1c6040517ffce698f700000000000000000000000000000000000000000000000000000000815260040161227391906135b6565b60405180910390fd5b60038081111561228f5761228e613fb5565b5b8260038111156122a2576122a1613fb5565b5b036122e457806040517fd78bce0c0000000000000000000000000000000000000000000000000000000081526004016122db9190613fe2565b60405180910390fd5b5b5050565b5f600b5f8373ffffffffffffffffffffffffffffffffffffffff1673ffffffffffffffffffffffffffffffffffffffff1681526020019081526020015f205f815480929190600101919050559050919050565b5f5f5f90507a184f03e93ff9f4daa797ed6e38ed64bf6a1f0100000000000000008310612398577a184f03e93ff9f4daa797ed6e38ed64bf6a1f010000000000000000838161238e5761238d613ea6565b5b0492506040810190505b6d04ee2d6d415b85acef810000000083106123d5576d04ee2d6d415b85acef810000000083816123cb576123ca613ea6565b5b0492506020810190505b662386f26fc10000831061240457662386f26fc1000083816123fa576123f9613ea6565b5b0492506010810190505b6305f5e100831061242d576305f5e100838161242357612422613ea6565b5b0492506008810190505b612710831061245257612710838161244857612447613ea6565b5b0492506004810190505b60648310612475576064838161246b5761246a613ea6565b5b0492506002810190505b600a8310612484576001810190505b80915050919050565b5f5f612498836127ff565b90505f73ffffffffffffffffffffffffffffffffffffffff168173ffffffffffffffffffffffffffffffffffffffff161415806124e257506bffffffffffffffffffffffff801683115b8061250157506124f0612838565b6bffffffffffffffffffffffff1683105b1561250f5780915050612546565b61252383600761285f90919063ffffffff16565b6125405761253b83600661289590919063ffffffff16565b612542565b5f5b9150505b919050565b5f6125546128f8565b61255f848484612939565b90509392505050565b5f73ffffffffffffffffffffffffffffffffffffffff168373ffffffffffffffffffffffffffffffffffffffff16036125b4576125b1600e610e4c6125ac8461264c565b6126b9565b50505b5f73ffffffffffffffffffffffffffffffffffffffff168273ffffffffffffffffffffffffffffffffffffffff1603612600576125fd600e610e376125f88461264c565b6126b9565b50505b61261b61260c846108b7565b612615846108b7565b83611c8d565b505050565b5f8115159050919050565b5f60028284188161263f5761263e613ea6565b5b0482841601905092915050565b5f79ffffffffffffffffffffffffffffffffffffffffffffffffffff80168211156126b15760d0826040517f6dfcc6500000000000000000000000000000000000000000000000000000000081526004016126a8929190614034565b60405180910390fd5b819050919050565b5f5f6126ec6126c6610b3c565b6126dc6126d2886112a7565b868863ffffffff16565b87612a619092919063ffffffff16565b91509150935093915050565b60605f61270483612a7c565b90505f602067ffffffffffffffff8111156127225761272161382e565b5b6040519080825280601f01601f1916602001820160405280156127545781602001600182028036833780820191505090505b5090508181528360208201528092505050919050565b5f7f8b73c3c69bb8fe3d512ecc4cf759cc79239f7b179b0ffacaa9a75d522b39400f7f00000000000000000000000000000000000000000000000000000000000000007f000000000000000000000000000000000000000000000000000000000000000046306040516020016127e495949392919061405b565b60405160208183030381529060405280519060200120905090565b5f60025f8381526020019081526020015f205f9054906101000a900473ffffffffffffffffffffffffffffffffffffffff169050919050565b5f7f0000000000000000000000000000000000000000000000000000000000000000905090565b5f5f600883901c90505f60ff84166001901b90505f81865f015f8581526020019081526020015f20541614159250505092915050565b5f5f835f018054905090505f6128af855f01855f85612aca565b90508181146128ec576128c4855f0182612b51565b5f01600c9054906101000a900473ffffffffffffffffffffffffffffffffffffffff166128ee565b5f5b9250505092915050565b612900610935565b15612937576040517fd93c066500000000000000000000000000000000000000000000000000000000815260040160405180910390fd5b565b5f5f612946858585612b63565b90505f73ffffffffffffffffffffffffffffffffffffffff168173ffffffffffffffffffffffffffffffffffffffff1614801561299957505f3073ffffffffffffffffffffffffffffffffffffffff163b145b156129d0576040517fad89505200000000000000000000000000000000000000000000000000000000815260040160405180910390fd5b5f73ffffffffffffffffffffffffffffffffffffffff168573ffffffffffffffffffffffffffffffffffffffff16148015612a1f5750612a0e612d6e565b6bffffffffffffffffffffffff1684105b8015612a3c5750612a3a84600761285f90919063ffffffff16565b155b15612a5657612a55846007612da790919063ffffffff16565b5b809150509392505050565b5f5f612a70855f018585612ddf565b91509150935093915050565b5f5f60ff835f1c169050601f811115612ac1576040517fb3512b0c00000000000000000000000000000000000000000000000000000000815260040160405180910390fd5b80915050919050565b5f5b81831015612b46575f612adf848461262b565b9050846bffffffffffffffffffffffff16612afa8783612b51565b5f015f9054906101000a90046bffffffffffffffffffffffff166bffffffffffffffffffffffff161015612b3c57600181612b359190613d71565b9350612b40565b8092505b50612acc565b819050949350505050565b5f825f528160205f2001905092915050565b5f5f612b6e8461180c565b90505f73ffffffffffffffffffffffffffffffffffffffff168373ffffffffffffffffffffffffffffffffffffffff1614612baf57612bae8184866130d3565b5b5f73ffffffffffffffffffffffffffffffffffffffff168173ffffffffffffffffffffffffffffffffffffffff1614612c3a57612bee5f855f5f61181d565b600160035f8373ffffffffffffffffffffffffffffffffffffffff1673ffffffffffffffffffffffffffffffffffffffff1681526020019081526020015f205f82825403925050819055505b5f73ffffffffffffffffffffffffffffffffffffffff168573ffffffffffffffffffffffffffffffffffffffff1614612cb957600160035f8773ffffffffffffffffffffffffffffffffffffffff1673ffffffffffffffffffffffffffffffffffffffff1681526020019081526020015f205f82825401925050819055505b8460025f8681526020019081526020015f205f6101000a81548173ffffffffffffffffffffffffffffffffffffffff021916908373ffffffffffffffffffffffffffffffffffffffff160217905550838573ffffffffffffffffffffffffffffffffffffffff168273ffffffffffffffffffffffffffffffffffffffff167fddf252ad1be2c89b69c2b068fc378daa952ba7f163c4a11628f55a4df523b3ef60405160405180910390a4809150509392505050565b5f5f5f612d7b6006613196565b509150915081612d9257612d8d612838565b612da0565b600181612d9f91906140c3565b5b9250505090565b5f600882901c90505f60ff83166001901b905080845f015f8481526020019081526020015f205f828254179250508190555050505050565b5f5f5f858054905090505f811115612feb575f612e0887600184612e039190613d3e565b611bf5565b90505f815f015f9054906101000a900465ffffffffffff1690505f825f0160069054906101000a900479ffffffffffffffffffffffffffffffffffffffffffffffffffff1690508765ffffffffffff168265ffffffffffff161115612e99576040517f2520601d00000000000000000000000000000000000000000000000000000000815260040160405180910390fd5b8765ffffffffffff168265ffffffffffff1603612f035786835f0160066101000a81548179ffffffffffffffffffffffffffffffffffffffffffffffffffff021916908379ffffffffffffffffffffffffffffffffffffffffffffffffffff160217905550612fdc565b8860405180604001604052808a65ffffffffffff1681526020018979ffffffffffffffffffffffffffffffffffffffffffffffffffff16815250908060018154018082558091505060019003905f5260205f20015f909190919091505f820151815f015f6101000a81548165ffffffffffff021916908365ffffffffffff1602179055506020820151815f0160066101000a81548179ffffffffffffffffffffffffffffffffffffffffffffffffffff021916908379ffffffffffffffffffffffffffffffffffffffffffffffffffff16021790555050505b808795509550505050506130cb565b8560405180604001604052808765ffffffffffff1681526020018679ffffffffffffffffffffffffffffffffffffffffffffffffffff16815250908060018154018082558091505060019003905f5260205f20015f909190919091505f820151815f015f6101000a81548165ffffffffffff021916908365ffffffffffff1602179055506020820151815f0160066101000a81548179ffffffffffffffffffffffffffffffffffffffffffffffffffff021916908379ffffffffffffffffffffffffffffffffffffffffffffffffffff16021790555050505f8492509250505b935093915050565b6130de838383613225565b613191575f73ffffffffffffffffffffffffffffffffffffffff168373ffffffffffffffffffffffffffffffffffffffff160361315257806040517f7e27328900000000000000000000000000000000000000000000000000000000815260040161314991906135b6565b60405180910390fd5b81816040517f177e802f000000000000000000000000000000000000000000000000000000008152600401613188929190613e7f565b60405180910390fd5b505050565b5f5f5f5f845f018054905090505f81036131b9575f5f5f9350935093505061321e565b5f6131d2865f016001846131cd9190613d3e565b612b51565b90506001815f015f9054906101000a90046bffffffffffffffffffffffff16825f01600c9054906101000a900473ffffffffffffffffffffffffffffffffffffffff1694509450945050505b9193909250565b5f5f73ffffffffffffffffffffffffffffffffffffffff168373ffffffffffffffffffffffffffffffffffffffff16141580156132dc57508273ffffffffffffffffffffffffffffffffffffffff168473ffffffffffffffffffffffffffffffffffffffff16148061329d575061329c8484610da9565b5b806132db57508273ffffffffffffffffffffffffffffffffffffffff166132c383610f50565b73ffffffffffffffffffffffffffffffffffffffff16145b5b90509392505050565b5f604051905090565b5f5ffd5b5f5ffd5b5f7fffffffff0000000000000000000000000000000000000000000000000000000082169050919050565b61332a816132f6565b8114613334575f5ffd5b50565b5f8135905061334581613321565b92915050565b5f602082840312156133605761335f6132ee565b5b5f61336d84828501613337565b91505092915050565b5f8115159050919050565b61338a81613376565b82525050565b5f6020820190506133a35f830184613381565b92915050565b5f81519050919050565b5f82825260208201905092915050565b8281835e5f83830152505050565b5f601f19601f8301169050919050565b5f6133eb826133a9565b6133f581856133b3565b93506134058185602086016133c3565b61340e816133d1565b840191505092915050565b5f6020820190508181035f83015261343181846133e1565b905092915050565b5f819050919050565b61344b81613439565b8114613455575f5ffd5b50565b5f8135905061346681613442565b92915050565b5f60208284031215613481576134806132ee565b5b5f61348e84828501613458565b91505092915050565b5f73ffffffffffffffffffffffffffffffffffffffff82169050919050565b5f6134c082613497565b9050919050565b6134d0816134b6565b82525050565b5f6020820190506134e95f8301846134c7565b92915050565b6134f8816134b6565b8114613502575f5ffd5b50565b5f81359050613513816134ef565b92915050565b5f5f6040838503121561352f5761352e6132ee565b5b5f61353c85828601613505565b925050602061354d85828601613458565b9150509250929050565b5f5f5f6060848603121561356e5761356d6132ee565b5b5f61357b86828701613505565b935050602061358c86828701613505565b925050604061359d86828701613458565b9150509250925092565b6135b081613439565b82525050565b5f6020820190506135c95f8301846135a7565b92915050565b5f602082840312156135e4576135e36132ee565b5b5f6135f184828501613505565b91505092915050565b5f7fff0000000000000000000000000000000000000000000000000000000000000082169050919050565b61362e816135fa565b82525050565b5f819050919050565b61364681613634565b82525050565b5f81519050919050565b5f82825260208201905092915050565b5f819050602082019050919050565b61367e81613439565b82525050565b5f61368f8383613675565b60208301905092915050565b5f602082019050919050565b5f6136b18261364c565b6136bb8185613656565b93506136c683613666565b805f5b838110156136f65781516136dd8882613684565b97506136e88361369b565b9250506001810190506136c9565b5085935050505092915050565b5f60e0820190506137165f83018a613625565b818103602083015261372881896133e1565b9050818103604083015261373c81886133e1565b905061374b60608301876135a7565b61375860808301866134c7565b61376560a083018561363d565b81810360c083015261377781846136a7565b905098975050505050505050565b5f65ffffffffffff82169050919050565b61379f81613785565b82525050565b5f6020820190506137b85f830184613796565b92915050565b6137c781613376565b81146137d1575f5ffd5b50565b5f813590506137e2816137be565b92915050565b5f5f604083850312156137fe576137fd6132ee565b5b5f61380b85828601613505565b925050602061381c858286016137d4565b9150509250929050565b5f5ffd5b5f5ffd5b7f4e487b71000000000000000000000000000000000000000000000000000000005f52604160045260245ffd5b613864826133d1565b810181811067ffffffffffffffff821117156138835761388261382e565b5b80604052505050565b5f6138956132e5565b90506138a1828261385b565b919050565b5f67ffffffffffffffff8211156138c0576138bf61382e565b5b6138c9826133d1565b9050602081019050919050565b828183375f83830152505050565b5f6138f66138f1846138a6565b61388c565b9050828152602081018484840111156139125761391161382a565b5b61391d8482856138d6565b509392505050565b5f82601f83011261393957613938613826565b5b81356139498482602086016138e4565b91505092915050565b5f5f5f5f6080858703121561396a576139696132ee565b5b5f61397787828801613505565b945050602061398887828801613505565b935050604061399987828801613458565b925050606085013567ffffffffffffffff8111156139ba576139b96132f2565b5b6139c687828801613925565b91505092959194509250565b5f60ff82169050919050565b6139e7816139d2565b81146139f1575f5ffd5b50565b5f81359050613a02816139de565b92915050565b613a1181613634565b8114613a1b575f5ffd5b50565b5f81359050613a2c81613a08565b92915050565b5f5f5f5f5f5f60c08789031215613a4c57613a4b6132ee565b5b5f613a5989828a01613505565b9650506020613a6a89828a01613458565b9550506040613a7b89828a01613458565b9450506060613a8c89828a016139f4565b9350506080613a9d89828a01613a1e565b92505060a0613aae89828a01613a1e565b9150509295509295509295565b5f5f60408385031215613ad157613ad06132ee565b5b5f613ade85828601613505565b9250506020613aef85828601613505565b9150509250929050565b7f4e487b71000000000000000000000000000000000000000000000000000000005f52602260045260245ffd5b5f6002820490506001821680613b3d57607f821691505b602082108103613b5057613b4f613af9565b5b50919050565b5f606082019050613b695f8301866134c7565b613b7660208301856135a7565b613b8360408301846134c7565b949350505050565b5f608082019050613b9e5f83018761363d565b613bab60208301866134c7565b613bb860408301856135a7565b613bc560608301846135a7565b95945050505050565b5f81905092915050565b5f613be2826133a9565b613bec8185613bce565b9350613bfc8185602086016133c3565b80840191505092915050565b5f613c138285613bd8565b9150613c1f8284613bd8565b91508190509392505050565b5f79ffffffffffffffffffffffffffffffffffffffffffffffffffff82169050919050565b7f4e487b71000000000000000000000000000000000000000000000000000000005f52601160045260245ffd5b5f613c8782613c2b565b9150613c9283613c2b565b9250828203905079ffffffffffffffffffffffffffffffffffffffffffffffffffff811115613cc457613cc3613c50565b5b92915050565b5f613cd482613c2b565b9150613cdf83613c2b565b9250828201905079ffffffffffffffffffffffffffffffffffffffffffffffffffff811115613d1157613d10613c50565b5b92915050565b5f604082019050613d2a5f8301856135a7565b613d376020830184613796565b9392505050565b5f613d4882613439565b9150613d5383613439565b9250828203905081811115613d6b57613d6a613c50565b5b92915050565b5f613d7b82613439565b9150613d8683613439565b9250828201905080821115613d9e57613d9d613c50565b5b92915050565b5f81519050919050565b5f82825260208201905092915050565b5f613dc882613da4565b613dd28185613dae565b9350613de28185602086016133c3565b613deb816133d1565b840191505092915050565b5f608082019050613e095f8301876134c7565b613e1660208301866134c7565b613e2360408301856135a7565b8181036060830152613e358184613dbe565b905095945050505050565b5f81519050613e4e81613321565b92915050565b5f60208284031215613e6957613e686132ee565b5b5f613e7684828501613e40565b91505092915050565b5f604082019050613e925f8301856134c7565b613e9f60208301846135a7565b9392505050565b7f4e487b71000000000000000000000000000000000000000000000000000000005f52601260045260245ffd5b5f819050919050565b5f819050919050565b5f613eff613efa613ef584613ed3565b613edc565b6139d2565b9050919050565b613f0f81613ee5565b82525050565b5f604082019050613f285f830185613f06565b613f3560208301846135a7565b9392505050565b5f604082019050613f4f5f8301856135a7565b613f5c60208301846135a7565b9392505050565b613f6c816139d2565b82525050565b5f608082019050613f855f83018761363d565b613f926020830186613f63565b613f9f604083018561363d565b613fac606083018461363d565b95945050505050565b7f4e487b71000000000000000000000000000000000000000000000000000000005f52602160045260245ffd5b5f602082019050613ff55f83018461363d565b92915050565b5f819050919050565b5f61401e61401961401484613ffb565b613edc565b6139d2565b9050919050565b61402e81614004565b82525050565b5f6040820190506140475f830185614025565b61405460208301846135a7565b9392505050565b5f60a08201905061406e5f83018861363d565b61407b602083018761363d565b614088604083018661363d565b61409560608301856135a7565b6140a260808301846134c7565b9695505050505050565b5f6bffffffffffffffffffffffff82169050919050565b5f6140cd826140ac565b91506140d8836140ac565b925082820190506bffffffffffffffffffffffff8111156140fc576140fb613c50565b5b9291505056fea2646970667358221220c0b5c179860c6df54680377f8828cf75c0cea102fab927ed393aedc1f6f0e89d64736f6c634300081e0033","linkReferences":{}},"methodIdentifiers":{"CLOCK_MODE()":"4bf5d7e9","approve(address,uint256)":"095ea7b3","balanceOf(address)":"70a08231","clock()":"91ddadf4","delegate(address)":"5c19a95c","delegateBySig(address,uint256,uint256,uint8,bytes32,bytes32)":"c3cda520","delegates(address)":"587cde1e","eip712Domain()":"84b0196e","getApproved(uint256)":"081812fc","getPastTotalSupply(uint256)":"8e539e8c","getPastVotes(address,uint256)":"3a46b1a8","getVotes(address)":"9ab24eb0","isApprovedForAll(address,address)":"e985e9c5","name()":"06fdde03","nonces(address)":"7ecebe00","ownerOf(uint256)":"6352211e","paused()":"5c975abb","safeTransferFrom(address,address,uint256)":"42842e0e","safeTransferFrom(address,address,uint256,bytes)":"b88d4fde","setApprovalForAll(address,bool)":"a22cb465","supportsInterface(bytes4)":"01ffc9a7","symbol()":"95d89b41","tokenURI(uint256)":"c87b56dd","transferFrom(address,address,uint256)":"23b872dd"},"id":304}