{"abi":[{"type":"function","name":"allowance","inputs":[{"name":"token","type":"address","internalType":"contract IERC20"},{"name":"owner","type":"address","internalType":"address"},{"name":"spender","type":"address","internalType":"address"}],"outputs":[],"stateMutability":"nonpayable"},{"type":"function","name":"balanceOf","inputs":[{"name":"token","type":"address","internalType":"contract IERC20"},{"name":"account","type":"address","internalType":"address"}],"outputs":[],"stateMutability":"nonpayable"},{"type":"function","name":"decimals","inputs":[{"name":"token","type":"address","internalType":"contract IERC20Metadata"}],"outputs":[],"stateMutability":"nonpayable"},{"type":"function","name":"name","inputs":[{"name":"token","type":"address","internalType":"contract IERC20Metadata"}],"outputs":[],"stateMutability":"nonpayable"},{"type":"function","name":"symbol","inputs":[{"name":"token","type":"address","internalType":"contract IERC20Metadata"}],"outputs":[],"stateMutability":"nonpayable"},{"type":"function","name":"totalSupply","inputs":[{"name":"token","type":"address","internalType":"contract IERC20"}],"outputs":[],"stateMutability":"nonpayable"},{"type":"event","name":"ERC20Allowance","inputs":[{"name":"token","type":"address","indexed":false,"internalType":"contract IERC20"},{"name":"owner","type":"address","indexed":false,"internalType":"address"},{"name":"spender","type":"address","indexed":false,"internalType":"address"},{"name":"allowance","type":"uint256","indexed":false,"internalType":"uint256"}],"anonymous":false},{"type":"event","name":"ERC20BalanceOf","inputs":[{"name":"token","type":"address","indexed":false,"internalType":"contract IERC20"},{"name":"account","type":"address","indexed":false,"internalType":"address"},{"name":"balanceOf","type":"uint256","indexed":false,"internalType":"uint256"}],"anonymous":false},{"type":"event","name":"ERC20Decimals","inputs":[{"name":"token","type":"address","indexed":false,"internalType":"contract IERC20Metadata"},{"name":"decimals","type":"uint8","indexed":false,"internalType":"uint8"}],"anonymous":false},{"type":"event","name":"ERC20Name","inputs":[{"name":"token","type":"address","indexed":false,"internalType":"contract IERC20Metadata"},{"name":"name","type":"string","indexed":false,"internalType":"string"}],"anonymous":false},{"type":"event","name":"ERC20Symbol","inputs":[{"name":"token","type":"address","indexed":false,"internalType":"contract IERC20Metadata"},{"name":"symbol","type":"string","indexed":false,"internalType":"string"}],"anonymous":false},{"type":"event","name":"ERC20TotalSupply","inputs":[{"name":"token","type":"address","indexed":false,"internalType":"contract IERC20"},{"name":"totalSupply","type":"uint256","indexed":false,"internalType":"uint256"}],"anonymous":false}],"bytecode":{"object":"0x6080604052348015600e575f5ffd5b50610b8e8061001c5f395ff3fe608060405234801561000f575f5ffd5b5060043610610060575f3560e01c80630198489214610064578063927da10514610080578063a86e35761461009c578063d449a832146100b8578063e4dc2aa4146100d4578063f7888aec146100f0575b5f5ffd5b61007e6004803603810190610079919061059f565b61010c565b005b61009a6004803603810190610095919061062f565b6101b7565b005b6100b660048036038101906100b1919061059f565b610272565b005b6100d260048036038101906100cd919061059f565b61031d565b005b6100ee60048036038101906100e9919061067f565b6103c5565b005b61010a600480360381019061010591906106aa565b61046d565b005b7f0485ca5375889f98baa3c2b6f4c5017f42445d46a8ea34301831f4c0656aeaef818273ffffffffffffffffffffffffffffffffffffffff166306fdde036040518163ffffffff1660e01b81526004015f60405180830381865afa158015610176573d5f5f3e3d5ffd5b505050506040513d5f823e3d601f19601f8201168201806040525081019061019e9190610824565b6040516101ac929190610918565b60405180910390a150565b7fe09eed224b4f51d932c9802d15235a4e3d83e6e98746fbd17672bfa0c68cf2a58383838673ffffffffffffffffffffffffffffffffffffffff1663dd62ed3e87876040518363ffffffff1660e01b8152600401610216929190610955565b602060405180830381865afa158015610231573d5f5f3e3d5ffd5b505050506040513d601f19601f8201168201806040525081019061025591906109af565b6040516102659493929190610a09565b60405180910390a1505050565b7f26e04705bb26a7efc42c2fc229535a30faa3fff9a04cd15ed4a729c9bc4d35bf818273ffffffffffffffffffffffffffffffffffffffff166395d89b416040518163ffffffff1660e01b81526004015f60405180830381865afa1580156102dc573d5f5f3e3d5ffd5b505050506040513d5f823e3d601f19601f820116820180604052508101906103049190610824565b604051610312929190610918565b60405180910390a150565b7f85bc872b16b9db2e4ada370573ffd396602bfdacec01f732f2b5ab6f42f24435818273ffffffffffffffffffffffffffffffffffffffff1663313ce5676040518163ffffffff1660e01b8152600401602060405180830381865afa158015610388573d5f5f3e3d5ffd5b505050506040513d601f19601f820116820180604052508101906103ac9190610a82565b6040516103ba929190610abc565b60405180910390a150565b7f6485fd49c668ab31aa6e76b818c9492f82e9a3727f8dbd1ded1f7a785b2c982e818273ffffffffffffffffffffffffffffffffffffffff166318160ddd6040518163ffffffff1660e01b8152600401602060405180830381865afa158015610430573d5f5f3e3d5ffd5b505050506040513d601f19601f8201168201806040525081019061045491906109af565b604051610462929190610ae3565b60405180910390a150565b7ffa069972e8d8e0f3228defb44d5b7c9bc6c3f08ef98bc7d6a31a5ad2993a979582828473ffffffffffffffffffffffffffffffffffffffff166370a08231856040518263ffffffff1660e01b81526004016104c99190610b0a565b602060405180830381865afa1580156104e4573d5f5f3e3d5ffd5b505050506040513d601f19601f8201168201806040525081019061050891906109af565b60405161051793929190610b23565b60405180910390a15050565b5f604051905090565b5f5ffd5b5f5ffd5b5f73ffffffffffffffffffffffffffffffffffffffff82169050919050565b5f61055d82610534565b9050919050565b5f61056e82610553565b9050919050565b61057e81610564565b8114610588575f5ffd5b50565b5f8135905061059981610575565b92915050565b5f602082840312156105b4576105b361052c565b5b5f6105c18482850161058b565b91505092915050565b5f6105d482610553565b9050919050565b6105e4816105ca565b81146105ee575f5ffd5b50565b5f813590506105ff816105db565b92915050565b61060e81610553565b8114610618575f5ffd5b50565b5f8135905061062981610605565b92915050565b5f5f5f606084860312156106465761064561052c565b5b5f610653868287016105f1565b93505060206106648682870161061b565b92505060406106758682870161061b565b9150509250925092565b5f602082840312156106945761069361052c565b5b5f6106a1848285016105f1565b91505092915050565b5f5f604083850312156106c0576106bf61052c565b5b5f6106cd858286016105f1565b92505060206106de8582860161061b565b9150509250929050565b5f5ffd5b5f5ffd5b5f601f19601f8301169050919050565b7f4e487b71000000000000000000000000000000000000000000000000000000005f52604160045260245ffd5b610736826106f0565b810181811067ffffffffffffffff8211171561075557610754610700565b5b80604052505050565b5f610767610523565b9050610773828261072d565b919050565b5f67ffffffffffffffff82111561079257610791610700565b5b61079b826106f0565b9050602081019050919050565b8281835e5f83830152505050565b5f6107c86107c384610778565b61075e565b9050828152602081018484840111156107e4576107e36106ec565b5b6107ef8482856107a8565b509392505050565b5f82601f83011261080b5761080a6106e8565b5b815161081b8482602086016107b6565b91505092915050565b5f602082840312156108395761083861052c565b5b5f82015167ffffffffffffffff81111561085657610855610530565b5b610862848285016107f7565b91505092915050565b5f819050919050565b5f61088e61088961088484610534565b61086b565b610534565b9050919050565b5f61089f82610874565b9050919050565b5f6108b082610895565b9050919050565b6108c0816108a6565b82525050565b5f81519050919050565b5f82825260208201905092915050565b5f6108ea826108c6565b6108f481856108d0565b93506109048185602086016107a8565b61090d816106f0565b840191505092915050565b5f60408201905061092b5f8301856108b7565b818103602083015261093d81846108e0565b90509392505050565b61094f81610553565b82525050565b5f6040820190506109685f830185610946565b6109756020830184610946565b9392505050565b5f819050919050565b61098e8161097c565b8114610998575f5ffd5b50565b5f815190506109a981610985565b92915050565b5f602082840312156109c4576109c361052c565b5b5f6109d18482850161099b565b91505092915050565b5f6109e482610895565b9050919050565b6109f4816109da565b82525050565b610a038161097c565b82525050565b5f608082019050610a1c5f8301876109eb565b610a296020830186610946565b610a366040830185610946565b610a4360608301846109fa565b95945050505050565b5f60ff82169050919050565b610a6181610a4c565b8114610a6b575f5ffd5b50565b5f81519050610a7c81610a58565b92915050565b5f60208284031215610a9757610a9661052c565b5b5f610aa484828501610a6e565b91505092915050565b610ab681610a4c565b82525050565b5f604082019050610acf5f8301856108b7565b610adc6020830184610aad565b9392505050565b5f604082019050610af65f8301856109eb565b610b0360208301846109fa565b9392505050565b5f602082019050610b1d5f830184610946565b92915050565b5f606082019050610b365f8301866109eb565b610b436020830185610946565b610b5060408301846109fa565b94935050505056fea264697066735822122019f50f52f928ec5fdebf5b407157496d51e10105d588d695a7bbf3cd19be4b2764736f6c634300081e0033","linkReferences":{}},"methodIdentifiers":{"allowance(address,address,address)":"927da105","balanceOf(address,address)":"f7888aec","decimals(address)":"d449a832","name(address)":"01984892","symbol(address)":"a86e3576","totalSupply(address)":"e4dc2aa4"},"id":290}