{"abi":[{"type":"constructor","inputs":[{"name":"trustedForwarder","type":"address","internalType":"address"}],"stateMutability":"nonpayable"},{"type":"function","name":"isTrustedForwarder","inputs":[{"name":"forwarder","type":"address","internalType":"address"}],"outputs":[{"name":"","type":"bool","internalType":"bool"}],"stateMutability":"view"},{"type":"function","name":"msgData","inputs":[{"name":"integerValue","type":"uint256","internalType":"uint256"},{"name":"stringValue","type":"string","internalType":"string"}],"outputs":[],"stateMutability":"nonpayable"},{"type":"function","name":"msgDataShort","inputs":[],"outputs":[],"stateMutability":"nonpayable"},{"type":"function","name":"msgSender","inputs":[],"outputs":[],"stateMutability":"nonpayable"},{"type":"function","name":"multicall","inputs":[{"name":"data","type":"bytes[]","internalType":"bytes[]"}],"outputs":[{"name":"results","type":"bytes[]","internalType":"bytes[]"}],"stateMutability":"nonpayable"},{"type":"function","name":"trustedForwarder","inputs":[],"outputs":[{"name":"","type":"address","internalType":"address"}],"stateMutability":"view"},{"type":"event","name":"Data","inputs":[{"name":"data","type":"bytes","indexed":false,"internalType":"bytes"},{"name":"integerValue","type":"uint256","indexed":false,"internalType":"uint256"},{"name":"stringValue","type":"string","indexed":false,"internalType":"string"}],"anonymous":false},{"type":"event","name":"DataShort","inputs":[{"name":"data","type":"bytes","indexed":false,"internalType":"bytes"}],"anonymous":false},{"type":"event","name":"Sender","inputs":[{"name":"sender","type":"address","indexed":false,"internalType":"address"}],"anonymous":false},{"type":"error","name":"AddressEmptyCode","inputs":[{"name":"target","type":"address","internalType":"address"}]},{"type":"error","name":"FailedCall","inputs":[]}],"bytecode":{"object":"0x60a060405234801561000f575f5ffd5b506040516111f43803806111f48339818101604052810190610031919061020d565b808073ffffffffffffffffffffffffffffffffffffffff1660808173ffffffffffffffffffffffffffffffffffffffff1681525050507fd6558c3ed910d959271054471fd1c326679d9fece99c5091b00ed89627cf2bfc6100966100b160201b60201c565b6040516100a39190610247565b60405180910390a150610341565b5f6100c06100c560201b60201c565b905090565b5f5f5f36905090505f6100dc61013f60201b60201c565b90508082101580156100f957506100f83361015360201b60201c565b5b15610129575f3682840390809261011293929190610268565b9061011d91906102e3565b60601c9250505061013c565b61013761019760201b60201c565b925050505b90565b5f61014e61019e60201b60201c565b905090565b5f6101626101a660201b60201c565b73ffffffffffffffffffffffffffffffffffffffff168273ffffffffffffffffffffffffffffffffffffffff16149050919050565b5f33905090565b5f6014905090565b5f608051905090565b5f5ffd5b5f73ffffffffffffffffffffffffffffffffffffffff82169050919050565b5f6101dc826101b3565b9050919050565b6101ec816101d2565b81146101f6575f5ffd5b50565b5f81519050610207816101e3565b92915050565b5f60208284031215610222576102216101af565b5b5f61022f848285016101f9565b91505092915050565b610241816101d2565b82525050565b5f60208201905061025a5f830184610238565b92915050565b5f5ffd5b5f5ffd5b5f5f8585111561027b5761027a610260565b5b8386111561028c5761028b610264565b5b6001850283019150848603905094509492505050565b5f82905092915050565b5f7fffffffffffffffffffffffffffffffffffffffff00000000000000000000000082169050919050565b5f82821b905092915050565b5f6102ee83836102a2565b826102f981356102ac565b92506014821015610339576103347fffffffffffffffffffffffffffffffffffffffff000000000000000000000000836014036008026102d7565b831692505b505092915050565b608051610e9b6103595f395f61019a0152610e9b5ff3fe608060405234801561000f575f5ffd5b5060043610610060575f3560e01c8063376bf26214610064578063572b6c05146100805780637da0a877146100b0578063ac9650d8146100ce578063d737d0c7146100fe578063ff5f6b5914610108575b5f5ffd5b61007e600480360381019061007991906107e5565b610112565b005b61009a60048036038101906100959190610899565b610159565b6040516100a791906108de565b60405180910390f35b6100b8610197565b6040516100c59190610906565b60405180910390f35b6100e860048036038101906100e3919061097c565b6101be565b6040516100f59190610ae2565b60405180910390f35b61010661039f565b005b6101106103df565b005b7faf235354a0a47c91ee171961326335cb2d1a8e55b8a89859b0e61eb049e50ea061013b610420565b848460405161014d9493929190610b9f565b60405180910390a15050565b5f610162610197565b73ffffffffffffffffffffffffffffffffffffffff168273ffffffffffffffffffffffffffffffffffffffff16149050919050565b5f7f0000000000000000000000000000000000000000000000000000000000000000905090565b60605f6101c9610432565b73ffffffffffffffffffffffffffffffffffffffff163373ffffffffffffffffffffffffffffffffffffffff1614610269575f36610205610440565b5f3690506102139190610c11565b90809261022293929190610c4c565b8080601f0160208091040260200160405190810160405280939291908181526020018383808284375f81840152601f19601f820116905080830192505050505050506102b7565b5f67ffffffffffffffff811115610283576102826106c1565b5b6040519080825280601f01601f1916602001820160405280156102b55781602001600182028036833780820191505090505b505b90508383905067ffffffffffffffff8111156102d6576102d56106c1565b5b60405190808252806020026020018201604052801561030957816020015b60608152602001906001900390816102f45790505b5091505f5f90505b848490508110156103975761036c3086868481811061033357610332610c86565b5b90506020028101906103459190610cbf565b8560405160200161035893929190610d7f565b60405160208183030381529060405261044e565b83828151811061037f5761037e610c86565b5b60200260200101819052508080600101915050610311565b505092915050565b7fd6558c3ed910d959271054471fd1c326679d9fece99c5091b00ed89627cf2bfc6103c8610432565b6040516103d59190610906565b60405180910390a1565b7f6d7cec71eba467294d92341ddc4e8634eb4d742a90e16f408f06e4b70bc4cd66610408610420565b604051610416929190610da4565b60405180910390a1565b365f61042a61053f565b915091509091565b5f61043b61059f565b905090565b5f610449610607565b905090565b60605f61045b848461060f565b905080801561049157505f61046e610623565b118061049057505f8473ffffffffffffffffffffffffffffffffffffffff163b115b5b156104a65761049e61062a565b915050610539565b80156104e957836040517f9996b3150000000000000000000000000000000000000000000000000000000081526004016104e09190610906565b60405180910390fd5b5f6104f2610623565b111561050557610500610647565b610537565b6040517fd6bda27500000000000000000000000000000000000000000000000000000000815260040160405180910390fd5b505b92915050565b365f5f5f36905090505f610551610440565b9050808210158015610568575061056733610159565b5b1561058c575f365f908385039261058193929190610c4c565b93509350505061059b565b610594610652565b9350935050505b9091565b5f5f5f36905090505f6105b0610440565b90508082101580156105c757506105c633610159565b5b156105f7575f368284039080926105e093929190610c4c565b906105eb9190610e07565b60601c92505050610604565b6105ff61065e565b925050505b90565b5f6014905090565b5f5f5f835160208501865af4905092915050565b5f3d905090565b606060405190503d81523d5f602083013e3d602001810160405290565b6040513d5f823e3d81fd5b365f5f36915091509091565b5f33905090565b5f604051905090565b5f5ffd5b5f5ffd5b5f819050919050565b61068881610676565b8114610692575f5ffd5b50565b5f813590506106a38161067f565b92915050565b5f5ffd5b5f5ffd5b5f601f19601f8301169050919050565b7f4e487b71000000000000000000000000000000000000000000000000000000005f52604160045260245ffd5b6106f7826106b1565b810181811067ffffffffffffffff82111715610716576107156106c1565b5b80604052505050565b5f610728610665565b905061073482826106ee565b919050565b5f67ffffffffffffffff821115610753576107526106c1565b5b61075c826106b1565b9050602081019050919050565b828183375f83830152505050565b5f61078961078484610739565b61071f565b9050828152602081018484840111156107a5576107a46106ad565b5b6107b0848285610769565b509392505050565b5f82601f8301126107cc576107cb6106a9565b5b81356107dc848260208601610777565b91505092915050565b5f5f604083850312156107fb576107fa61066e565b5b5f61080885828601610695565b925050602083013567ffffffffffffffff81111561082957610828610672565b5b610835858286016107b8565b9150509250929050565b5f73ffffffffffffffffffffffffffffffffffffffff82169050919050565b5f6108688261083f565b9050919050565b6108788161085e565b8114610882575f5ffd5b50565b5f813590506108938161086f565b92915050565b5f602082840312156108ae576108ad61066e565b5b5f6108bb84828501610885565b91505092915050565b5f8115159050919050565b6108d8816108c4565b82525050565b5f6020820190506108f15f8301846108cf565b92915050565b6109008161085e565b82525050565b5f6020820190506109195f8301846108f7565b92915050565b5f5ffd5b5f5ffd5b5f5f83601f84011261093c5761093b6106a9565b5b8235905067ffffffffffffffff8111156109595761095861091f565b5b60208301915083602082028301111561097557610974610923565b5b9250929050565b5f5f602083850312156109925761099161066e565b5b5f83013567ffffffffffffffff8111156109af576109ae610672565b5b6109bb85828601610927565b92509250509250929050565b5f81519050919050565b5f82825260208201905092915050565b5f819050602082019050919050565b5f81519050919050565b5f82825260208201905092915050565b8281835e5f83830152505050565b5f610a22826109f0565b610a2c81856109fa565b9350610a3c818560208601610a0a565b610a45816106b1565b840191505092915050565b5f610a5b8383610a18565b905092915050565b5f602082019050919050565b5f610a79826109c7565b610a8381856109d1565b935083602082028501610a95856109e1565b805f5b85811015610ad05784840389528151610ab18582610a50565b9450610abc83610a63565b925060208a01995050600181019050610a98565b50829750879550505050505092915050565b5f6020820190508181035f830152610afa8184610a6f565b905092915050565b5f82825260208201905092915050565b5f610b1d8385610b02565b9350610b2a838584610769565b610b33836106b1565b840190509392505050565b610b4781610676565b82525050565b5f81519050919050565b5f82825260208201905092915050565b5f610b7182610b4d565b610b7b8185610b57565b9350610b8b818560208601610a0a565b610b94816106b1565b840191505092915050565b5f6060820190508181035f830152610bb8818688610b12565b9050610bc76020830185610b3e565b8181036040830152610bd98184610b67565b905095945050505050565b7f4e487b71000000000000000000000000000000000000000000000000000000005f52601160045260245ffd5b5f610c1b82610676565b9150610c2683610676565b9250828203905081811115610c3e57610c3d610be4565b5b92915050565b5f5ffd5b5f5ffd5b5f5f85851115610c5f57610c5e610c44565b5b83861115610c7057610c6f610c48565b5b6001850283019150848603905094509492505050565b7f4e487b71000000000000000000000000000000000000000000000000000000005f52603260045260245ffd5b5f5ffd5b5f5ffd5b5f5ffd5b5f5f83356001602003843603038112610cdb57610cda610cb3565b5b80840192508235915067ffffffffffffffff821115610cfd57610cfc610cb7565b5b602083019250600182023603831315610d1957610d18610cbb565b5b509250929050565b5f81905092915050565b5f610d368385610d21565b9350610d43838584610769565b82840190509392505050565b5f610d59826109f0565b610d638185610d21565b9350610d73818560208601610a0a565b80840191505092915050565b5f610d8b828587610d2b565b9150610d978284610d4f565b9150819050949350505050565b5f6020820190508181035f830152610dbd818486610b12565b90509392505050565b5f82905092915050565b5f7fffffffffffffffffffffffffffffffffffffffff00000000000000000000000082169050919050565b5f82821b905092915050565b5f610e128383610dc6565b82610e1d8135610dd0565b92506014821015610e5d57610e587fffffffffffffffffffffffffffffffffffffffff00000000000000000000000083601403600802610dfb565b831692505b50509291505056fea264697066735822122025a38e7feba03b6a4afb92d8b60feb5282f90d7640cfe10117e41fb804bc1fd664736f6c634300081e0033","linkReferences":{}},"methodIdentifiers":{"isTrustedForwarder(address)":"572b6c05","msgData(uint256,string)":"376bf262","msgDataShort()":"ff5f6b59","msgSender()":"d737d0c7","multicall(bytes[])":"ac9650d8","trustedForwarder()":"7da0a877"},"id":209}