{"abi":[{"type":"function","name":"_setImmediate","inputs":[{"name":"immediate","type":"bool","internalType":"bool"}],"outputs":[],"stateMutability":"nonpayable"},{"type":"function","name":"canCall","inputs":[{"name":"","type":"address","internalType":"address"},{"name":"","type":"address","internalType":"address"},{"name":"","type":"bytes4","internalType":"bytes4"}],"outputs":[{"name":"immediate","type":"bool","internalType":"bool"}],"stateMutability":"view"}],"bytecode":{"object":"0x6080604052348015600e575f5ffd5b506102788061001c5f395ff3fe608060405234801561000f575f5ffd5b5060043610610034575f3560e01c80633e5047b214610038578063b700961314610054575b5f5ffd5b610052600480360381019061004d91906100f0565b610084565b005b61006e600480360381019061006991906101ca565b61009f565b60405161007b9190610229565b60405180910390f35b805f5f6101000a81548160ff02191690831515021790555050565b5f5f5f9054906101000a900460ff1690509392505050565b5f5ffd5b5f8115159050919050565b6100cf816100bb565b81146100d9575f5ffd5b50565b5f813590506100ea816100c6565b92915050565b5f60208284031215610105576101046100b7565b5b5f610112848285016100dc565b91505092915050565b5f73ffffffffffffffffffffffffffffffffffffffff82169050919050565b5f6101448261011b565b9050919050565b6101548161013a565b811461015e575f5ffd5b50565b5f8135905061016f8161014b565b92915050565b5f7fffffffff0000000000000000000000000000000000000000000000000000000082169050919050565b6101a981610175565b81146101b3575f5ffd5b50565b5f813590506101c4816101a0565b92915050565b5f5f5f606084860312156101e1576101e06100b7565b5b5f6101ee86828701610161565b93505060206101ff86828701610161565b9250506040610210868287016101b6565b9150509250925092565b610223816100bb565b82525050565b5f60208201905061023c5f83018461021a565b9291505056fea264697066735822122076b341b2c97c5b05d2ef8f131ce3380b448b6b6bc769c10edd78e828a4a8d90264736f6c634300081e0033","linkReferences":{}},"methodIdentifiers":{"_setImmediate(bool)":"3e5047b2","canCall(address,address,bytes4)":"b7009613"},"id":199}