{"abi":[{"type":"function","name":"canCall","inputs":[{"name":"","type":"address","internalType":"address"},{"name":"","type":"address","internalType":"address"},{"name":"","type":"bytes4","internalType":"bytes4"}],"outputs":[],"stateMutability":"view"}],"bytecode":{"object":"0x6080604052348015600e575f5ffd5b506101878061001c5f395ff3fe608060405234801561000f575f5ffd5b5060043610610029575f3560e01c8063b70096131461002d575b5f5ffd5b61004760048036038101906100429190610101565b610049565b005b505050565b5f5ffd5b5f73ffffffffffffffffffffffffffffffffffffffff82169050919050565b5f61007b82610052565b9050919050565b61008b81610071565b8114610095575f5ffd5b50565b5f813590506100a681610082565b92915050565b5f7fffffffff0000000000000000000000000000000000000000000000000000000082169050919050565b6100e0816100ac565b81146100ea575f5ffd5b50565b5f813590506100fb816100d7565b92915050565b5f5f5f606084860312156101185761011761004e565b5b5f61012586828701610098565b935050602061013686828701610098565b9250506040610147868287016100ed565b915050925092509256fea26469706673582212204c68e4302fe0a2fa567aa80f47eb9f2e6a623a6dbe057ccdc6fe5a53f907946064736f6c634300081e0033","linkReferences":{}},"methodIdentifiers":{"canCall(address,address,bytes4)":"b7009613"},"id":199}