{"abi":[{"type":"function","name":"canCall","inputs":[{"name":"","type":"address","internalType":"address"},{"name":"","type":"address","internalType":"address"},{"name":"","type":"bytes4","internalType":"bytes4"}],"outputs":[{"name":"immediate","type":"bool","internalType":"bool"},{"name":"delay","type":"uint32","internalType":"uint32"}],"stateMutability":"pure"},{"type":"function","name":"consumeScheduledOp","inputs":[{"name":"caller","type":"address","internalType":"address"},{"name":"data","type":"bytes","internalType":"bytes"}],"outputs":[],"stateMutability":"nonpayable"},{"type":"event","name":"ConsumeScheduledOpCalled","inputs":[{"name":"caller","type":"address","indexed":false,"internalType":"address"},{"name":"data","type":"bytes","indexed":false,"internalType":"bytes"},{"name":"isConsuming","type":"bytes4","indexed":false,"internalType":"bytes4"}],"anonymous":false}],"bytecode":{"object":"0x6080604052348015600e575f5ffd5b506105758061001c5f395ff3fe608060405234801561000f575f5ffd5b5060043610610034575f3560e01c806394c7d7ee14610038578063b700961314610054575b5f5ffd5b610052600480360381019061004d91906102e8565b610085565b005b61006e60048036038101906100699190610397565b610130565b60405161007c92919061041f565b60405180910390f35b7f6be74e75ed90ba015d494c939c763657508b563a99197bf1323feb9e8f08b40182823373ffffffffffffffffffffffffffffffffffffffff16638fb360376040518163ffffffff1660e01b8152600401602060405180830381865afa1580156100f1573d5f5f3e3d5ffd5b505050506040513d601f19601f82011682018060405250810190610115919061045a565b60405161012493929190610503565b60405180910390a15050565b5f5f5f600191509150935093915050565b5f604051905090565b5f5ffd5b5f5ffd5b5f73ffffffffffffffffffffffffffffffffffffffff82169050919050565b5f61017b82610152565b9050919050565b61018b81610171565b8114610195575f5ffd5b50565b5f813590506101a681610182565b92915050565b5f5ffd5b5f5ffd5b5f601f19601f8301169050919050565b7f4e487b71000000000000000000000000000000000000000000000000000000005f52604160045260245ffd5b6101fa826101b4565b810181811067ffffffffffffffff82111715610219576102186101c4565b5b80604052505050565b5f61022b610141565b905061023782826101f1565b919050565b5f67ffffffffffffffff821115610256576102556101c4565b5b61025f826101b4565b9050602081019050919050565b828183375f83830152505050565b5f61028c6102878461023c565b610222565b9050828152602081018484840111156102a8576102a76101b0565b5b6102b384828561026c565b509392505050565b5f82601f8301126102cf576102ce6101ac565b5b81356102df84826020860161027a565b91505092915050565b5f5f604083850312156102fe576102fd61014a565b5b5f61030b85828601610198565b925050602083013567ffffffffffffffff81111561032c5761032b61014e565b5b610338858286016102bb565b9150509250929050565b5f7fffffffff0000000000000000000000000000000000000000000000000000000082169050919050565b61037681610342565b8114610380575f5ffd5b50565b5f813590506103918161036d565b92915050565b5f5f5f606084860312156103ae576103ad61014a565b5b5f6103bb86828701610198565b93505060206103cc86828701610198565b92505060406103dd86828701610383565b9150509250925092565b5f8115159050919050565b6103fb816103e7565b82525050565b5f63ffffffff82169050919050565b61041981610401565b82525050565b5f6040820190506104325f8301856103f2565b61043f6020830184610410565b9392505050565b5f815190506104548161036d565b92915050565b5f6020828403121561046f5761046e61014a565b5b5f61047c84828501610446565b91505092915050565b61048e81610171565b82525050565b5f81519050919050565b5f82825260208201905092915050565b8281835e5f83830152505050565b5f6104c682610494565b6104d0818561049e565b93506104e08185602086016104ae565b6104e9816101b4565b840191505092915050565b6104fd81610342565b82525050565b5f6060820190506105165f830186610485565b818103602083015261052881856104bc565b905061053760408301846104f4565b94935050505056fea26469706673582212208f32c6f5f90b3fee259cb6b40f078e805371046bbad7e3d136701833f398f89564736f6c634300081e0033","linkReferences":{}},"methodIdentifiers":{"canCall(address,address,bytes4)":"b7009613","consumeScheduledOp(address,bytes)":"94c7d7ee"},"id":199}