{"abi":[{"type":"function","name":"_setDelay","inputs":[{"name":"delay","type":"uint256","internalType":"uint256"}],"outputs":[],"stateMutability":"nonpayable"},{"type":"function","name":"_setImmediate","inputs":[{"name":"immediate","type":"bool","internalType":"bool"}],"outputs":[],"stateMutability":"nonpayable"},{"type":"function","name":"canCall","inputs":[{"name":"","type":"address","internalType":"address"},{"name":"","type":"address","internalType":"address"},{"name":"","type":"bytes4","internalType":"bytes4"}],"outputs":[{"name":"immediate","type":"bool","internalType":"bool"},{"name":"delay","type":"uint256","internalType":"uint256"}],"stateMutability":"view"}],"bytecode":{"object":"0x6080604052348015600e575f5ffd5b5061032c8061001c5f395ff3fe608060405234801561000f575f5ffd5b506004361061003f575f3560e01c80633e5047b214610043578063b70096131461005f578063fc176c0414610090575b5f5ffd5b61005d60048036038101906100589190610129565b6100ac565b005b61007960048036038101906100749190610203565b6100c7565b60405161008792919061027a565b60405180910390f35b6100aa60048036038101906100a591906102cb565b6100e6565b005b805f5f6101000a81548160ff02191690831515021790555050565b5f5f5f5f9054906101000a900460ff1660015491509150935093915050565b8060018190555050565b5f5ffd5b5f8115159050919050565b610108816100f4565b8114610112575f5ffd5b50565b5f81359050610123816100ff565b92915050565b5f6020828403121561013e5761013d6100f0565b5b5f61014b84828501610115565b91505092915050565b5f73ffffffffffffffffffffffffffffffffffffffff82169050919050565b5f61017d82610154565b9050919050565b61018d81610173565b8114610197575f5ffd5b50565b5f813590506101a881610184565b92915050565b5f7fffffffff0000000000000000000000000000000000000000000000000000000082169050919050565b6101e2816101ae565b81146101ec575f5ffd5b50565b5f813590506101fd816101d9565b92915050565b5f5f5f6060848603121561021a576102196100f0565b5b5f6102278682870161019a565b93505060206102388682870161019a565b9250506040610249868287016101ef565b9150509250925092565b61025c816100f4565b82525050565b5f819050919050565b61027481610262565b82525050565b5f60408201905061028d5f830185610253565b61029a602083018461026b565b9392505050565b6102aa81610262565b81146102b4575f5ffd5b50565b5f813590506102c5816102a1565b92915050565b5f602082840312156102e0576102df6100f0565b5b5f6102ed848285016102b7565b9150509291505056fea2646970667358221220a7f6ba9092d48bd063b3b53b9e4458595a76c54eaef3d94e6417ac8953b00fdf64736f6c634300081e0033","linkReferences":{}},"methodIdentifiers":{"_setDelay(uint256)":"fc176c04","_setImmediate(bool)":"3e5047b2","canCall(address,address,bytes4)":"b7009613"},"id":199}