{"abi":[{"type":"function","name":"canCall","inputs":[{"name":"","type":"address","internalType":"address"},{"name":"","type":"address","internalType":"address"},{"name":"","type":"bytes4","internalType":"bytes4"}],"outputs":[{"name":"","type":"bool","internalType":"bool"}],"stateMutability":"pure"}],"bytecode":{"object":"0x6080604052348015600e575f5ffd5b506102a38061001c5f395ff3fe608060405234801561000f575f5ffd5b5060043610610029575f3560e01c8063b70096131461002d575b5f5ffd5b6100476004803603810190610042919061014c565b61005d565b60405161005491906101b6565b60405180910390f35b5f6040517f08c379a00000000000000000000000000000000000000000000000000000000081526004016100909061024f565b60405180910390fd5b5f5ffd5b5f73ffffffffffffffffffffffffffffffffffffffff82169050919050565b5f6100c68261009d565b9050919050565b6100d6816100bc565b81146100e0575f5ffd5b50565b5f813590506100f1816100cd565b92915050565b5f7fffffffff0000000000000000000000000000000000000000000000000000000082169050919050565b61012b816100f7565b8114610135575f5ffd5b50565b5f8135905061014681610122565b92915050565b5f5f5f6060848603121561016357610162610099565b5b5f610170868287016100e3565b9350506020610181868287016100e3565b925050604061019286828701610138565b9150509250925092565b5f8115159050919050565b6101b08161019c565b82525050565b5f6020820190506101c95f8301846101a7565b92915050565b5f82825260208201905092915050565b7f4e6f74417574686f726974794d6f636b3a206e6f7420696d706c656d656e74655f8201527f6400000000000000000000000000000000000000000000000000000000000000602082015250565b5f6102396021836101cf565b9150610244826101df565b604082019050919050565b5f6020820190508181035f8301526102668161022d565b905091905056fea2646970667358221220cfbded68de18504ea7b80265497ea8da1dad57b0d3d6cea5b51b337264f5056264736f6c634300081e0033","linkReferences":{}},"methodIdentifiers":{"canCall(address,address,bytes4)":"b7009613"},"id":199}