{"abi":[{"type":"constructor","inputs":[{"name":"_entryPoint","type":"address","internalType":"address"}],"stateMutability":"nonpayable"},{"type":"receive","stateMutability":"payable"},{"type":"function","name":"ENTRY_POINT","inputs":[],"outputs":[{"name":"","type":"address","internalType":"address"}],"stateMutability":"view"},{"type":"function","name":"executeBatch","inputs":[{"name":"calls","type":"tuple[]","internalType":"struct Kernel.Call[]","components":[{"name":"target","type":"address","internalType":"address"},{"name":"value","type":"uint256","internalType":"uint256"},{"name":"data","type":"bytes","internalType":"bytes"}]}],"outputs":[],"stateMutability":"nonpayable"},{"type":"function","name":"executeTokenTransfer","inputs":[{"name":"token","type":"address","internalType":"address"},{"name":"from","type":"address","internalType":"address"},{"name":"to","type":"address","internalType":"address"},{"name":"amount","type":"uint256","internalType":"uint256"}],"outputs":[],"stateMutability":"nonpayable"},{"type":"function","name":"getNonce","inputs":[{"name":"user","type":"address","internalType":"address"}],"outputs":[{"name":"","type":"uint256","internalType":"uint256"}],"stateMutability":"view"},{"type":"function","name":"nonces","inputs":[{"name":"","type":"address","internalType":"address"}],"outputs":[{"name":"","type":"uint256","internalType":"uint256"}],"stateMutability":"view"},{"type":"function","name":"validateUserOp","inputs":[{"name":"userOp","type":"tuple","internalType":"struct Kernel.PackedUserOperation","components":[{"name":"sender","type":"address","internalType":"address"},{"name":"nonce","type":"uint256","internalType":"uint256"},{"name":"callData","type":"bytes","internalType":"bytes"},{"name":"callGasLimit","type":"uint256","internalType":"uint256"},{"name":"verificationGasLimit","type":"uint256","internalType":"uint256"},{"name":"preVerificationGas","type":"uint256","internalType":"uint256"},{"name":"maxFeePerGas","type":"uint256","internalType":"uint256"},{"name":"maxPriorityFeePerGas","type":"uint256","internalType":"uint256"},{"name":"paymasterAndData","type":"bytes","internalType":"bytes"},{"name":"signature","type":"bytes","internalType":"bytes"}]},{"name":"userOpHash","type":"bytes32","internalType":"bytes32"},{"name":"missingAccountFunds","type":"uint256","internalType":"uint256"}],"outputs":[{"name":"validationData","type":"uint256","internalType":"uint256"}],"stateMutability":"nonpayable"},{"type":"event","name":"BatchExecuted","inputs":[{"name":"sender","type":"address","indexed":true,"internalType":"address"},{"name":"numCalls","type":"uint256","indexed":false,"internalType":"uint256"}],"anonymous":false},{"type":"event","name":"GasPaymentProcessed","inputs":[{"name":"sender","type":"address","indexed":true,"internalType":"address"},{"name":"token","type":"address","indexed":true,"internalType":"address"},{"name":"amount","type":"uint256","indexed":false,"internalType":"uint256"},{"name":"payee","type":"address","indexed":true,"internalType":"address"}],"anonymous":false},{"type":"event","name":"UserOperationExecuted","inputs":[{"name":"sender","type":"address","indexed":true,"internalType":"address"},{"name":"nonce","type":"uint256","indexed":false,"internalType":"uint256"},{"name":"success","type":"bool","indexed":false,"internalType":"bool"}],"anonymous":false},{"type":"error","name":"CallFailed","inputs":[{"name":"callIndex","type":"uint256","internalType":"uint256"}]},{"type":"error","name":"InvalidNonce","inputs":[]},{"type":"error","name":"InvalidSignature","inputs":[]},{"type":"error","name":"OnlyEntryPoint","inputs":[]}],"bytecode":{"object":"0x60a0346100b757601f61097938819003918201601f19168301916001600160401b038311848410176100bb578084926020946040528339810103126100b757516001600160a01b0381168082036100b7571561007d576080526040516108a990816100d0823960805181818160b00152818161043a015261060e0152f35b60405162461bcd60e51b8152602060048201526012602482015271125b9d985b1a5908115b9d1c9e541bda5b9d60721b6044820152606490fd5b5f80fd5b634e487b7160e01b5f52604160045260245ffdfe6080604052600436101561001a575b3615610018575f80fd5b005b5f3560e01c80632610de2b146100745780632d0335ab1461006557806334fcd5be1461006f57806369d76bed1461006a5780637ecebe0014610065576394430fa50361000e57610425565b6102e5565b61037c565b61031f565b346102d05760603660031901126102d05760043567ffffffffffffffff81116102d057806004019061014060031982360301126102d0576044357f00000000000000000000000000000000000000000000000000000000000000006001600160a01b031633036102c1576101016100f96100f2610124850186610469565b36916104f3565b602435610788565b61011961010d85610529565b6001600160a01b031690565b6001600160a01b03909116036102b257602482013561015361013a85610529565b6001600160a01b03165f90815260208190526040902090565b54036102a35761016561013a84610529565b61016f8154610536565b905515158061028b575b610189575b6040515f8152602090f35b61019a6101046101a2920183610469565b810190610558565b916001600160a01b03909116906101f56020846101be84610529565b6040516323b872dd60e01b81526001600160a01b039091166004820152326024820152604481019190915291829081906064820190565b03815f875af1801561028657610259575b506001600160a01b039061021990610529565b167f1850f7b83ced4bb31222572c84d7410d9e7b600e7b9c3d106629c04a498075c76040518061024f3296829190602083019252565b0390a4808061017e565b61027a9060203d60201161027f575b61027281836104b0565b810190610577565b610206565b503d610268565b61058f565b5061029a610104820183610469565b90501515610179565b633ab3447f60e11b5f5260045ffd5b638baa579f60e01b5f5260045ffd5b63bd07c55160e01b5f5260045ffd5b5f80fd5b6001600160a01b038116036102d057565b346102d05760203660031901126102d057600435610302816102d4565b60018060a01b03165f525f602052602060405f2054604051908152f35b346102d05760203660031901126102d05760043567ffffffffffffffff81116102d057366023820112156102d057806004013567ffffffffffffffff81116102d0573660248260051b840101116102d0576024610018920161060c565b346102d05760803660031901126102d0576103f4602060043561039e816102d4565b602435906103ab826102d4565b6044356103b7816102d4565b6040516323b872dd60e01b81526001600160a01b039384166004820152921660248301526064803560448401529193849283915f91839190820190565b03926001600160a01b03165af180156102865761040d57005b6100189060203d60201161027f5761027281836104b0565b346102d0575f3660031901126102d0576040517f00000000000000000000000000000000000000000000000000000000000000006001600160a01b03168152602090f35b903590601e19813603018212156102d0570180359067ffffffffffffffff82116102d0576020019181360383136102d057565b634e487b7160e01b5f52604160045260245ffd5b90601f8019910116810190811067ffffffffffffffff8211176104d257604052565b61049c565b67ffffffffffffffff81116104d257601f01601f191660200190565b9291926104ff826104d7565b9161050d60405193846104b0565b8294818452818301116102d0578281602093845f960137010152565b35610533816102d4565b90565b5f1981146105445760010190565b634e487b7160e01b5f52601160045260245ffd5b91908260409103126102d05760208235610571816102d4565b92013590565b908160209103126102d0575180151581036102d05790565b6040513d5f823e3d90fd5b91908110156105bc5760051b81013590605e19813603018212156102d0570190565b634e487b7160e01b5f52603260045260245ffd5b908092918237015f815290565b3d15610607573d906105ee826104d7565b916105fc60405193846104b0565b82523d5f602084013e565b606090565b7f00000000000000000000000000000000000000000000000000000000000000006001600160a01b031633036102c1575f5b82811061067757505060405190815232907f7ffb1df8fb1cb14bf915045200c5b519c9cdd3c996c3fa9e781810674194029c90602090a2565b5f8061068c61068784878761059a565b610529565b602061069985888861059a565b01356106b36106a986898961059a565b6040810190610469565b91906106c4604051809481936105d0565b03925af16106d06105dd565b50156106de5760010161063e565b6307f3476960e31b5f5260045260245ffd5b156106f757565b60405162461bcd60e51b815260206004820152601b60248201527f496e76616c6964207369676e6174757265202773272076616c756500000000006044820152606490fd5b1561074357565b60405162461bcd60e51b815260206004820152601b60248201527f496e76616c6964207369676e6174757265202776272076616c756500000000006044820152606490fd5b604182510361082e57815f916108116020809501519260606040820151910151851a936107d77f7fffffffffffffffffffffffffffffff5d576e7357a4501ddfe92f46681b20a08311156106f0565b601b85148015610824575b6107eb9061073c565b604051948594859094939260ff6060936080840197845216602083015260408201520152565b838052039060015afa15610286575f5190565b50601c85146107e2565b60405162461bcd60e51b815260206004820152601860248201527f496e76616c6964207369676e6174757265206c656e67746800000000000000006044820152606490fdfea2646970667358221220d76c9bbf0b574291fbf5e68853ff85445c7ebc696fb1e476807303232dacf2de64736f6c634300081e0033","linkReferences":{}},"methodIdentifiers":{"ENTRY_POINT()":"94430fa5","executeBatch((address,uint256,bytes)[])":"34fcd5be","executeTokenTransfer(address,address,address,uint256)":"69d76bed","getNonce(address)":"2d0335ab","nonces(address)":"7ecebe00","validateUserOp((address,uint256,bytes,uint256,uint256,uint256,uint256,uint256,bytes,bytes),bytes32,uint256)":"2610de2b"},"id":20}