{"abi":[{"type":"constructor","inputs":[{"name":"_entryPoint","type":"address","internalType":"address"}],"stateMutability":"nonpayable"},{"type":"receive","stateMutability":"payable"},{"type":"function","name":"ENTRY_POINT","inputs":[],"outputs":[{"name":"","type":"address","internalType":"address"}],"stateMutability":"view"},{"type":"function","name":"executeBatch","inputs":[{"name":"calls","type":"tuple[]","internalType":"struct Kernel.Call[]","components":[{"name":"target","type":"address","internalType":"address"},{"name":"value","type":"uint256","internalType":"uint256"},{"name":"data","type":"bytes","internalType":"bytes"}]}],"outputs":[],"stateMutability":"nonpayable"},{"type":"function","name":"getNonce","inputs":[{"name":"user","type":"address","internalType":"address"}],"outputs":[{"name":"","type":"uint256","internalType":"uint256"}],"stateMutability":"view"},{"type":"function","name":"nonces","inputs":[{"name":"","type":"address","internalType":"address"}],"outputs":[{"name":"","type":"uint256","internalType":"uint256"}],"stateMutability":"view"},{"type":"function","name":"validateUserOp","inputs":[{"name":"userOp","type":"tuple","internalType":"struct Kernel.PackedUserOperation","components":[{"name":"sender","type":"address","internalType":"address"},{"name":"nonce","type":"uint256","internalType":"uint256"},{"name":"callData","type":"bytes","internalType":"bytes"},{"name":"callGasLimit","type":"uint256","internalType":"uint256"},{"name":"verificationGasLimit","type":"uint256","internalType":"uint256"},{"name":"preVerificationGas","type":"uint256","internalType":"uint256"},{"name":"maxFeePerGas","type":"uint256","internalType":"uint256"},{"name":"maxPriorityFeePerGas","type":"uint256","internalType":"uint256"},{"name":"paymasterAndData","type":"bytes","internalType":"bytes"},{"name":"signature","type":"bytes","internalType":"bytes"}]},{"name":"userOpHash","type":"bytes32","internalType":"bytes32"},{"name":"missingAccountFunds","type":"uint256","internalType":"uint256"}],"outputs":[{"name":"validationData","type":"uint256","internalType":"uint256"}],"stateMutability":"nonpayable"},{"type":"event","name":"BatchExecuted","inputs":[{"name":"sender","type":"address","indexed":true,"internalType":"address"},{"name":"numCalls","type":"uint256","indexed":false,"internalType":"uint256"}],"anonymous":false},{"type":"event","name":"GasPaymentProcessed","inputs":[{"name":"sender","type":"address","indexed":true,"internalType":"address"},{"name":"token","type":"address","indexed":true,"internalType":"address"},{"name":"amount","type":"uint256","indexed":false,"internalType":"uint256"},{"name":"payee","type":"address","indexed":true,"internalType":"address"}],"anonymous":false},{"type":"event","name":"UserOperationExecuted","inputs":[{"name":"sender","type":"address","indexed":true,"internalType":"address"},{"name":"nonce","type":"uint256","indexed":false,"internalType":"uint256"},{"name":"success","type":"bool","indexed":false,"internalType":"bool"}],"anonymous":false},{"type":"error","name":"CallFailed","inputs":[{"name":"callIndex","type":"uint256","internalType":"uint256"}]},{"type":"error","name":"InvalidNonce","inputs":[]},{"type":"error","name":"InvalidSignature","inputs":[]},{"type":"error","name":"OnlyEntryPoint","inputs":[]}],"bytecode":{"object":"0x60a060405234801561000f575f5ffd5b5060405161124238038061124283398181016040528101906100319190610137565b5f73ffffffffffffffffffffffffffffffffffffffff168173ffffffffffffffffffffffffffffffffffffffff160361009f576040517f08c379a0000000000000000000000000000000000000000000000000000000008152600401610096906101bc565b60405180910390fd5b8073ffffffffffffffffffffffffffffffffffffffff1660808173ffffffffffffffffffffffffffffffffffffffff1681525050506101da565b5f5ffd5b5f73ffffffffffffffffffffffffffffffffffffffff82169050919050565b5f610106826100dd565b9050919050565b610116816100fc565b8114610120575f5ffd5b50565b5f815190506101318161010d565b92915050565b5f6020828403121561014c5761014b6100d9565b5b5f61015984828501610123565b91505092915050565b5f82825260208201905092915050565b7f496e76616c696420456e747279506f696e7400000000000000000000000000005f82015250565b5f6101a6601283610162565b91506101b182610172565b602082019050919050565b5f6020820190508181035f8301526101d38161019a565b9050919050565b6080516110426102005f395f81816101610152818161056401526107b001526110425ff3fe60806040526004361061004d575f3560e01c80632610de2b146100585780632d0335ab1461009457806334fcd5be146100d05780637ecebe00146100f857806394430fa51461013457610054565b3661005457005b5f5ffd5b348015610063575f5ffd5b5061007e600480360381019061007991906109d2565b61015e565b60405161008b9190610a4d565b60405180910390f35b34801561009f575f5ffd5b506100ba60048036038101906100b59190610ac0565b61051d565b6040516100c79190610a4d565b60405180910390f35b3480156100db575f5ffd5b506100f660048036038101906100f19190610b4c565b610562565b005b348015610103575f5ffd5b5061011e60048036038101906101199190610ac0565b61079a565b60405161012b9190610a4d565b60405180910390f35b34801561013f575f5ffd5b506101486107ae565b6040516101559190610ba6565b60405180910390f35b5f7f000000000000000000000000000000000000000000000000000000000000000073ffffffffffffffffffffffffffffffffffffffff163373ffffffffffffffffffffffffffffffffffffffff16146101e4576040517fbd07c55100000000000000000000000000000000000000000000000000000000815260040160405180910390fd5b5f61024184868061012001906101fa9190610bcb565b8080601f0160208091040260200160405190810160405280939291908181526020018383808284375f81840152601f19601f820116905080830192505050505050506107d2565b9050845f0160208101906102559190610ac0565b73ffffffffffffffffffffffffffffffffffffffff168173ffffffffffffffffffffffffffffffffffffffff16146102b9576040517f8baa579f00000000000000000000000000000000000000000000000000000000815260040160405180910390fd5b5f5f865f0160208101906102cd9190610ac0565b73ffffffffffffffffffffffffffffffffffffffff1673ffffffffffffffffffffffffffffffffffffffff1681526020019081526020015f2054856020013514610343576040517f756688fe00000000000000000000000000000000000000000000000000000000815260040160405180910390fd5b5f5f865f0160208101906103579190610ac0565b73ffffffffffffffffffffffffffffffffffffffff1673ffffffffffffffffffffffffffffffffffffffff1681526020019081526020015f205f8154809291906103a090610c5a565b91905055505f831180156103c557505f858061010001906103c19190610bcb565b9050115b15610512575f5f868061010001906103dd9190610bcb565b8101906103ea9190610cdc565b915091505f3290508273ffffffffffffffffffffffffffffffffffffffff166323b872dd895f0160208101906104209190610ac0565b83856040518463ffffffff1660e01b815260040161044093929190610d1a565b6020604051808303815f875af115801561045c573d5f5f3e3d5ffd5b505050506040513d601f19601f820116820180604052508101906104809190610d84565b508073ffffffffffffffffffffffffffffffffffffffff168373ffffffffffffffffffffffffffffffffffffffff16895f0160208101906104c19190610ac0565b73ffffffffffffffffffffffffffffffffffffffff167f1850f7b83ced4bb31222572c84d7410d9e7b600e7b9c3d106629c04a498075c7856040516105069190610a4d565b60405180910390a45050505b5f9150509392505050565b5f5f5f8373ffffffffffffffffffffffffffffffffffffffff1673ffffffffffffffffffffffffffffffffffffffff1681526020019081526020015f20549050919050565b7f000000000000000000000000000000000000000000000000000000000000000073ffffffffffffffffffffffffffffffffffffffff163373ffffffffffffffffffffffffffffffffffffffff16146105e7576040517fbd07c55100000000000000000000000000000000000000000000000000000000815260040160405180910390fd5b5f8282905090505f5f90505b81811015610746575f84848381811061060f5761060e610daf565b5b90506020028101906106219190610ddc565b5f0160208101906106329190610ac0565b73ffffffffffffffffffffffffffffffffffffffff1685858481811061065b5761065a610daf565b5b905060200281019061066d9190610ddc565b6020013586868581811061068457610683610daf565b5b90506020028101906106969190610ddc565b80604001906106a59190610bcb565b6040516106b3929190610e3f565b5f6040518083038185875af1925050503d805f81146106ed576040519150601f19603f3d011682016040523d82523d5f602084013e6106f2565b606091505b505090508061073857816040517f3f9a3b4800000000000000000000000000000000000000000000000000000000815260040161072f9190610a4d565b60405180910390fd5b5080806001019150506105f3565b503273ffffffffffffffffffffffffffffffffffffffff167f7ffb1df8fb1cb14bf915045200c5b519c9cdd3c996c3fa9e781810674194029c8260405161078d9190610a4d565b60405180910390a2505050565b5f602052805f5260405f205f915090505481565b7f000000000000000000000000000000000000000000000000000000000000000081565b5f6041825114610817576040517f08c379a000000000000000000000000000000000000000000000000000000000815260040161080e90610eb1565b60405180910390fd5b5f5f5f602085015192506040850151915060608501515f1a90507f7fffffffffffffffffffffffffffffff5d576e7357a4501ddfe92f46681b20a0825f1c1115610896576040517f08c379a000000000000000000000000000000000000000000000000000000000815260040161088d90610f19565b60405180910390fd5b601b8160ff1614806108ab5750601c8160ff16145b6108ea576040517f08c379a00000000000000000000000000000000000000000000000000000000081526004016108e190610f81565b60405180910390fd5b6001868285856040515f815260200160405260405161090c9493929190610fc9565b6020604051602081039080840390855afa15801561092c573d5f5f3e3d5ffd5b50505060206040510351935050505092915050565b5f5ffd5b5f5ffd5b5f5ffd5b5f610140828403121561096357610962610949565b5b81905092915050565b5f819050919050565b61097e8161096c565b8114610988575f5ffd5b50565b5f8135905061099981610975565b92915050565b5f819050919050565b6109b18161099f565b81146109bb575f5ffd5b50565b5f813590506109cc816109a8565b92915050565b5f5f5f606084860312156109e9576109e8610941565b5b5f84013567ffffffffffffffff811115610a0657610a05610945565b5b610a128682870161094d565b9350506020610a238682870161098b565b9250506040610a34868287016109be565b9150509250925092565b610a478161099f565b82525050565b5f602082019050610a605f830184610a3e565b92915050565b5f73ffffffffffffffffffffffffffffffffffffffff82169050919050565b5f610a8f82610a66565b9050919050565b610a9f81610a85565b8114610aa9575f5ffd5b50565b5f81359050610aba81610a96565b92915050565b5f60208284031215610ad557610ad4610941565b5b5f610ae284828501610aac565b91505092915050565b5f5ffd5b5f5ffd5b5f5ffd5b5f5f83601f840112610b0c57610b0b610aeb565b5b8235905067ffffffffffffffff811115610b2957610b28610aef565b5b602083019150836020820283011115610b4557610b44610af3565b5b9250929050565b5f5f60208385031215610b6257610b61610941565b5b5f83013567ffffffffffffffff811115610b7f57610b7e610945565b5b610b8b85828601610af7565b92509250509250929050565b610ba081610a85565b82525050565b5f602082019050610bb95f830184610b97565b92915050565b5f5ffd5b5f5ffd5b5f5ffd5b5f5f83356001602003843603038112610be757610be6610bbf565b5b80840192508235915067ffffffffffffffff821115610c0957610c08610bc3565b5b602083019250600182023603831315610c2557610c24610bc7565b5b509250929050565b7f4e487b71000000000000000000000000000000000000000000000000000000005f52601160045260245ffd5b5f610c648261099f565b91507fffffffffffffffffffffffffffffffffffffffffffffffffffffffffffffffff8203610c9657610c95610c2d565b5b600182019050919050565b5f610cab82610a66565b9050919050565b610cbb81610ca1565b8114610cc5575f5ffd5b50565b5f81359050610cd681610cb2565b92915050565b5f5f60408385031215610cf257610cf1610941565b5b5f610cff85828601610cc8565b9250506020610d10858286016109be565b9150509250929050565b5f606082019050610d2d5f830186610b97565b610d3a6020830185610b97565b610d476040830184610a3e565b949350505050565b5f8115159050919050565b610d6381610d4f565b8114610d6d575f5ffd5b50565b5f81519050610d7e81610d5a565b92915050565b5f60208284031215610d9957610d98610941565b5b5f610da684828501610d70565b91505092915050565b7f4e487b71000000000000000000000000000000000000000000000000000000005f52603260045260245ffd5b5f82356001606003833603038112610df757610df6610bbf565b5b80830191505092915050565b5f81905092915050565b828183375f83830152505050565b5f610e268385610e03565b9350610e33838584610e0d565b82840190509392505050565b5f610e4b828486610e1b565b91508190509392505050565b5f82825260208201905092915050565b7f496e76616c6964207369676e6174757265206c656e67746800000000000000005f82015250565b5f610e9b601883610e57565b9150610ea682610e67565b602082019050919050565b5f6020820190508181035f830152610ec881610e8f565b9050919050565b7f496e76616c6964207369676e6174757265202773272076616c756500000000005f82015250565b5f610f03601b83610e57565b9150610f0e82610ecf565b602082019050919050565b5f6020820190508181035f830152610f3081610ef7565b9050919050565b7f496e76616c6964207369676e6174757265202776272076616c756500000000005f82015250565b5f610f6b601b83610e57565b9150610f7682610f37565b602082019050919050565b5f6020820190508181035f830152610f9881610f5f565b9050919050565b610fa88161096c565b82525050565b5f60ff82169050919050565b610fc381610fae565b82525050565b5f608082019050610fdc5f830187610f9f565b610fe96020830186610fba565b610ff66040830185610f9f565b6110036060830184610f9f565b9594505050505056fea264697066735822122070fdd9dabca12a0f6191bd5d88a320427a0e05f74d73d611c1697a4f0a6040a664736f6c634300081e0033","linkReferences":{}},"methodIdentifiers":{"ENTRY_POINT()":"94430fa5","executeBatch((address,uint256,bytes)[])":"34fcd5be","getNonce(address)":"2d0335ab","nonces(address)":"7ecebe00","validateUserOp((address,uint256,bytes,uint256,uint256,uint256,uint256,uint256,bytes,bytes),bytes32,uint256)":"2610de2b"},"id":20}