{"abi":[{"type":"constructor","inputs":[{"name":"_entryPoint","type":"address","internalType":"address"}],"stateMutability":"nonpayable"},{"type":"receive","stateMutability":"payable"},{"type":"function","name":"ENTRY_POINT","inputs":[],"outputs":[{"name":"","type":"address","internalType":"address"}],"stateMutability":"view"},{"type":"function","name":"executeBatch","inputs":[{"name":"calls","type":"tuple[]","internalType":"struct Kernel.Call[]","components":[{"name":"target","type":"address","internalType":"address"},{"name":"value","type":"uint256","internalType":"uint256"},{"name":"data","type":"bytes","internalType":"bytes"}]}],"outputs":[],"stateMutability":"nonpayable"},{"type":"function","name":"getNonce","inputs":[{"name":"user","type":"address","internalType":"address"}],"outputs":[{"name":"","type":"uint256","internalType":"uint256"}],"stateMutability":"view"},{"type":"function","name":"nonces","inputs":[{"name":"","type":"address","internalType":"address"}],"outputs":[{"name":"","type":"uint256","internalType":"uint256"}],"stateMutability":"view"},{"type":"function","name":"validateUserOp","inputs":[{"name":"userOp","type":"tuple","internalType":"struct Kernel.PackedUserOperation","components":[{"name":"sender","type":"address","internalType":"address"},{"name":"nonce","type":"uint256","internalType":"uint256"},{"name":"callData","type":"bytes","internalType":"bytes"},{"name":"callGasLimit","type":"uint256","internalType":"uint256"},{"name":"verificationGasLimit","type":"uint256","internalType":"uint256"},{"name":"preVerificationGas","type":"uint256","internalType":"uint256"},{"name":"maxFeePerGas","type":"uint256","internalType":"uint256"},{"name":"maxPriorityFeePerGas","type":"uint256","internalType":"uint256"},{"name":"paymasterAndData","type":"bytes","internalType":"bytes"},{"name":"signature","type":"bytes","internalType":"bytes"}]},{"name":"userOpHash","type":"bytes32","internalType":"bytes32"},{"name":"missingAccountFunds","type":"uint256","internalType":"uint256"}],"outputs":[{"name":"validationData","type":"uint256","internalType":"uint256"}],"stateMutability":"nonpayable"},{"type":"event","name":"BatchExecuted","inputs":[{"name":"sender","type":"address","indexed":true,"internalType":"address"},{"name":"numCalls","type":"uint256","indexed":false,"internalType":"uint256"}],"anonymous":false},{"type":"event","name":"GasPaymentProcessed","inputs":[{"name":"sender","type":"address","indexed":true,"internalType":"address"},{"name":"token","type":"address","indexed":true,"internalType":"address"},{"name":"amount","type":"uint256","indexed":false,"internalType":"uint256"}],"anonymous":false},{"type":"event","name":"UserOperationExecuted","inputs":[{"name":"sender","type":"address","indexed":true,"internalType":"address"},{"name":"nonce","type":"uint256","indexed":false,"internalType":"uint256"},{"name":"success","type":"bool","indexed":false,"internalType":"bool"}],"anonymous":false},{"type":"error","name":"CallFailed","inputs":[{"name":"callIndex","type":"uint256","internalType":"uint256"}]},{"type":"error","name":"InvalidNonce","inputs":[]},{"type":"error","name":"InvalidSignature","inputs":[]},{"type":"error","name":"OnlyEntryPoint","inputs":[]}],"bytecode":{"object":"0x60a060405234801561000f575f5ffd5b506040516110fb3803806110fb83398181016040528101906100319190610137565b5f73ffffffffffffffffffffffffffffffffffffffff168173ffffffffffffffffffffffffffffffffffffffff160361009f576040517f08c379a0000000000000000000000000000000000000000000000000000000008152600401610096906101bc565b60405180910390fd5b8073ffffffffffffffffffffffffffffffffffffffff1660808173ffffffffffffffffffffffffffffffffffffffff1681525050506101da565b5f5ffd5b5f73ffffffffffffffffffffffffffffffffffffffff82169050919050565b5f610106826100dd565b9050919050565b610116816100fc565b8114610120575f5ffd5b50565b5f815190506101318161010d565b92915050565b5f6020828403121561014c5761014b6100d9565b5b5f61015984828501610123565b91505092915050565b5f82825260208201905092915050565b7f496e76616c696420456e747279506f696e7400000000000000000000000000005f82015250565b5f6101a6601283610162565b91506101b182610172565b602082019050919050565b5f6020820190508181035f8301526101d38161019a565b9050919050565b608051610efb6102005f395f81816101610152818161054801526107940152610efb5ff3fe60806040526004361061004d575f3560e01c80632610de2b146100585780632d0335ab1461009457806334fcd5be146100d05780637ecebe00146100f857806394430fa51461013457610054565b3661005457005b5f5ffd5b348015610063575f5ffd5b5061007e6004803603810190610079919061095b565b61015e565b60405161008b91906109d6565b60405180910390f35b34801561009f575f5ffd5b506100ba60048036038101906100b59190610a49565b610501565b6040516100c791906109d6565b60405180910390f35b3480156100db575f5ffd5b506100f660048036038101906100f19190610ad5565b610546565b005b348015610103575f5ffd5b5061011e60048036038101906101199190610a49565b61077e565b60405161012b91906109d6565b60405180910390f35b34801561013f575f5ffd5b50610148610792565b6040516101559190610b2f565b60405180910390f35b5f7f000000000000000000000000000000000000000000000000000000000000000073ffffffffffffffffffffffffffffffffffffffff163373ffffffffffffffffffffffffffffffffffffffff16146101e4576040517fbd07c55100000000000000000000000000000000000000000000000000000000815260040160405180910390fd5b5f61024184868061012001906101fa9190610b54565b8080601f0160208091040260200160405190810160405280939291908181526020018383808284375f81840152601f19601f820116905080830192505050505050506107b6565b9050845f0160208101906102559190610a49565b73ffffffffffffffffffffffffffffffffffffffff168173ffffffffffffffffffffffffffffffffffffffff16146102b9576040517f8baa579f00000000000000000000000000000000000000000000000000000000815260040160405180910390fd5b5f5f865f0160208101906102cd9190610a49565b73ffffffffffffffffffffffffffffffffffffffff1673ffffffffffffffffffffffffffffffffffffffff1681526020019081526020015f2054856020013514610343576040517f756688fe00000000000000000000000000000000000000000000000000000000815260040160405180910390fd5b5f5f865f0160208101906103579190610a49565b73ffffffffffffffffffffffffffffffffffffffff1673ffffffffffffffffffffffffffffffffffffffff1681526020019081526020015f205f8154809291906103a090610be3565b91905055505f831180156103c557505f858061010001906103c19190610b54565b9050115b156104f6575f5f868061010001906103dd9190610b54565b8101906103ea9190610c65565b915091508173ffffffffffffffffffffffffffffffffffffffff166323b872dd885f01602081019061041c9190610a49565b33846040518463ffffffff1660e01b815260040161043c93929190610ca3565b6020604051808303815f875af1158015610458573d5f5f3e3d5ffd5b505050506040513d601f19601f8201168201806040525081019061047c9190610d0d565b508173ffffffffffffffffffffffffffffffffffffffff16875f0160208101906104a69190610a49565b73ffffffffffffffffffffffffffffffffffffffff167f0657bba7dc4efede1271b7fcbd2f46eb73a736637a4aeb15fb2451f15477bfea836040516104eb91906109d6565b60405180910390a350505b5f9150509392505050565b5f5f5f8373ffffffffffffffffffffffffffffffffffffffff1673ffffffffffffffffffffffffffffffffffffffff1681526020019081526020015f20549050919050565b7f000000000000000000000000000000000000000000000000000000000000000073ffffffffffffffffffffffffffffffffffffffff163373ffffffffffffffffffffffffffffffffffffffff16146105cb576040517fbd07c55100000000000000000000000000000000000000000000000000000000815260040160405180910390fd5b5f8282905090505f5f90505b8181101561072a575f8484838181106105f3576105f2610d38565b5b90506020028101906106059190610d65565b5f0160208101906106169190610a49565b73ffffffffffffffffffffffffffffffffffffffff1685858481811061063f5761063e610d38565b5b90506020028101906106519190610d65565b6020013586868581811061066857610667610d38565b5b905060200281019061067a9190610d65565b80604001906106899190610b54565b604051610697929190610dc8565b5f6040518083038185875af1925050503d805f81146106d1576040519150601f19603f3d011682016040523d82523d5f602084013e6106d6565b606091505b505090508061071c57816040517f3f9a3b4800000000000000000000000000000000000000000000000000000000815260040161071391906109d6565b60405180910390fd5b5080806001019150506105d7565b503273ffffffffffffffffffffffffffffffffffffffff167f7ffb1df8fb1cb14bf915045200c5b519c9cdd3c996c3fa9e781810674194029c8260405161077191906109d6565b60405180910390a2505050565b5f602052805f5260405f205f915090505481565b7f000000000000000000000000000000000000000000000000000000000000000081565b5f60418251146107fb576040517f08c379a00000000000000000000000000000000000000000000000000000000081526004016107f290610e3a565b60405180910390fd5b5f5f5f602085015192506040850151915060608501515f1a90507f7fffffffffffffffffffffffffffffff5d576e7357a4501ddfe92f46681b20a0825f1c111561084a575f93505050506108c4565b601b8160ff16141580156108625750601c8160ff1614155b15610872575f93505050506108c4565b6001868285856040515f81526020016040526040516108949493929190610e82565b6020604051602081039080840390855afa1580156108b4573d5f5f3e3d5ffd5b5050506020604051035193505050505b92915050565b5f5ffd5b5f5ffd5b5f5ffd5b5f61014082840312156108ec576108eb6108d2565b5b81905092915050565b5f819050919050565b610907816108f5565b8114610911575f5ffd5b50565b5f81359050610922816108fe565b92915050565b5f819050919050565b61093a81610928565b8114610944575f5ffd5b50565b5f8135905061095581610931565b92915050565b5f5f5f60608486031215610972576109716108ca565b5b5f84013567ffffffffffffffff81111561098f5761098e6108ce565b5b61099b868287016108d6565b93505060206109ac86828701610914565b92505060406109bd86828701610947565b9150509250925092565b6109d081610928565b82525050565b5f6020820190506109e95f8301846109c7565b92915050565b5f73ffffffffffffffffffffffffffffffffffffffff82169050919050565b5f610a18826109ef565b9050919050565b610a2881610a0e565b8114610a32575f5ffd5b50565b5f81359050610a4381610a1f565b92915050565b5f60208284031215610a5e57610a5d6108ca565b5b5f610a6b84828501610a35565b91505092915050565b5f5ffd5b5f5ffd5b5f5ffd5b5f5f83601f840112610a9557610a94610a74565b5b8235905067ffffffffffffffff811115610ab257610ab1610a78565b5b602083019150836020820283011115610ace57610acd610a7c565b5b9250929050565b5f5f60208385031215610aeb57610aea6108ca565b5b5f83013567ffffffffffffffff811115610b0857610b076108ce565b5b610b1485828601610a80565b92509250509250929050565b610b2981610a0e565b82525050565b5f602082019050610b425f830184610b20565b92915050565b5f5ffd5b5f5ffd5b5f5ffd5b5f5f83356001602003843603038112610b7057610b6f610b48565b5b80840192508235915067ffffffffffffffff821115610b9257610b91610b4c565b5b602083019250600182023603831315610bae57610bad610b50565b5b509250929050565b7f4e487b71000000000000000000000000000000000000000000000000000000005f52601160045260245ffd5b5f610bed82610928565b91507fffffffffffffffffffffffffffffffffffffffffffffffffffffffffffffffff8203610c1f57610c1e610bb6565b5b600182019050919050565b5f610c34826109ef565b9050919050565b610c4481610c2a565b8114610c4e575f5ffd5b50565b5f81359050610c5f81610c3b565b92915050565b5f5f60408385031215610c7b57610c7a6108ca565b5b5f610c8885828601610c51565b9250506020610c9985828601610947565b9150509250929050565b5f606082019050610cb65f830186610b20565b610cc36020830185610b20565b610cd060408301846109c7565b949350505050565b5f8115159050919050565b610cec81610cd8565b8114610cf6575f5ffd5b50565b5f81519050610d0781610ce3565b92915050565b5f60208284031215610d2257610d216108ca565b5b5f610d2f84828501610cf9565b91505092915050565b7f4e487b71000000000000000000000000000000000000000000000000000000005f52603260045260245ffd5b5f82356001606003833603038112610d8057610d7f610b48565b5b80830191505092915050565b5f81905092915050565b828183375f83830152505050565b5f610daf8385610d8c565b9350610dbc838584610d96565b82840190509392505050565b5f610dd4828486610da4565b91508190509392505050565b5f82825260208201905092915050565b7f496e76616c6964207369676e6174757265206c656e67746800000000000000005f82015250565b5f610e24601883610de0565b9150610e2f82610df0565b602082019050919050565b5f6020820190508181035f830152610e5181610e18565b9050919050565b610e61816108f5565b82525050565b5f60ff82169050919050565b610e7c81610e67565b82525050565b5f608082019050610e955f830187610e58565b610ea26020830186610e73565b610eaf6040830185610e58565b610ebc6060830184610e58565b9594505050505056fea2646970667358221220c748e4bff5efe85e55146a732c3f50ece679a1a5ee027919b52a450683cdf63d64736f6c634300081e0033","linkReferences":{}},"methodIdentifiers":{"ENTRY_POINT()":"94430fa5","executeBatch((address,uint256,bytes)[])":"34fcd5be","getNonce(address)":"2d0335ab","nonces(address)":"7ecebe00","validateUserOp((address,uint256,bytes,uint256,uint256,uint256,uint256,uint256,bytes,bytes),bytes32,uint256)":"2610de2b"},"id":20}