{"abi":[{"type":"constructor","inputs":[{"name":"_entryPoint","type":"address","internalType":"contract IEntryPoint"}],"stateMutability":"nonpayable"},{"type":"function","name":"acceptOwnership","inputs":[],"outputs":[],"stateMutability":"nonpayable"},{"type":"function","name":"addStake","inputs":[{"name":"unstakeDelaySec","type":"uint32","internalType":"uint32"}],"outputs":[],"stateMutability":"payable"},{"type":"function","name":"deposit","inputs":[],"outputs":[],"stateMutability":"payable"},{"type":"function","name":"entryPoint","inputs":[],"outputs":[{"name":"","type":"address","internalType":"contract IEntryPoint"}],"stateMutability":"view"},{"type":"function","name":"getDeposit","inputs":[],"outputs":[{"name":"","type":"uint256","internalType":"uint256"}],"stateMutability":"view"},{"type":"function","name":"owner","inputs":[],"outputs":[{"name":"","type":"address","internalType":"address"}],"stateMutability":"view"},{"type":"function","name":"pendingOwner","inputs":[],"outputs":[{"name":"","type":"address","internalType":"address"}],"stateMutability":"view"},{"type":"function","name":"postOp","inputs":[{"name":"mode","type":"uint8","internalType":"enum IPaymaster.PostOpMode"},{"name":"context","type":"bytes","internalType":"bytes"},{"name":"actualGasCost","type":"uint256","internalType":"uint256"},{"name":"actualUserOpFeePerGas","type":"uint256","internalType":"uint256"}],"outputs":[],"stateMutability":"nonpayable"},{"type":"function","name":"renounceOwnership","inputs":[],"outputs":[],"stateMutability":"nonpayable"},{"type":"function","name":"transferOwnership","inputs":[{"name":"newOwner","type":"address","internalType":"address"}],"outputs":[],"stateMutability":"nonpayable"},{"type":"function","name":"unlockStake","inputs":[],"outputs":[],"stateMutability":"nonpayable"},{"type":"function","name":"validatePaymasterUserOp","inputs":[{"name":"userOp","type":"tuple","internalType":"struct PackedUserOperation","components":[{"name":"sender","type":"address","internalType":"address"},{"name":"nonce","type":"uint256","internalType":"uint256"},{"name":"initCode","type":"bytes","internalType":"bytes"},{"name":"callData","type":"bytes","internalType":"bytes"},{"name":"accountGasLimits","type":"bytes32","internalType":"bytes32"},{"name":"preVerificationGas","type":"uint256","internalType":"uint256"},{"name":"gasFees","type":"bytes32","internalType":"bytes32"},{"name":"paymasterAndData","type":"bytes","internalType":"bytes"},{"name":"signature","type":"bytes","internalType":"bytes"}]},{"name":"userOpHash","type":"bytes32","internalType":"bytes32"},{"name":"maxCost","type":"uint256","internalType":"uint256"}],"outputs":[{"name":"context","type":"bytes","internalType":"bytes"},{"name":"validationData","type":"uint256","internalType":"uint256"}],"stateMutability":"nonpayable"},{"type":"function","name":"withdrawStake","inputs":[{"name":"withdrawAddress","type":"address","internalType":"address payable"}],"outputs":[],"stateMutability":"nonpayable"},{"type":"function","name":"withdrawTo","inputs":[{"name":"withdrawAddress","type":"address","internalType":"address payable"},{"name":"amount","type":"uint256","internalType":"uint256"}],"outputs":[],"stateMutability":"nonpayable"},{"type":"event","name":"OwnershipTransferStarted","inputs":[{"name":"previousOwner","type":"address","indexed":true,"internalType":"address"},{"name":"newOwner","type":"address","indexed":true,"internalType":"address"}],"anonymous":false},{"type":"event","name":"OwnershipTransferred","inputs":[{"name":"previousOwner","type":"address","indexed":true,"internalType":"address"},{"name":"newOwner","type":"address","indexed":true,"internalType":"address"}],"anonymous":false},{"type":"error","name":"ERC165Error","inputs":[{"name":"entryPoint","type":"address","internalType":"address"},{"name":"interfaceId","type":"bytes4","internalType":"bytes4"}]},{"type":"error","name":"InvalidPaymasterSignatureLength","inputs":[{"name":"dataLength","type":"uint256","internalType":"uint256"},{"name":"pmSignatureLength","type":"uint256","internalType":"uint256"}]},{"type":"error","name":"MustOverride","inputs":[]},{"type":"error","name":"NotFromEntryPoint","inputs":[{"name":"msgSender","type":"address","internalType":"address"},{"name":"entity","type":"address","internalType":"address"},{"name":"entryPoint","type":"address","internalType":"address"}]},{"type":"error","name":"OwnableInvalidOwner","inputs":[{"name":"owner","type":"address","internalType":"address"}]},{"type":"error","name":"OwnableUnauthorizedAccount","inputs":[{"name":"account","type":"address","internalType":"address"}]}],"bytecode":{"object":"0x60a060405234801561000f575f5ffd5b50604051611bd6380380611bd68339818101604052810190610031919061034c565b8033805f73ffffffffffffffffffffffffffffffffffffffff168173ffffffffffffffffffffffffffffffffffffffff16036100a4575f6040517f1e4fbdf700000000000000000000000000000000000000000000000000000000815260040161009b9190610386565b60405180910390fd5b6100b3816100ff60201b60201c565b506100c38261013560201b60201c565b8173ffffffffffffffffffffffffffffffffffffffff1660808173ffffffffffffffffffffffffffffffffffffffff1681525050505050610479565b60015f6101000a81549073ffffffffffffffffffffffffffffffffffffffff02191690556101328161021c60201b60201c565b50565b5f7f283f54890000000000000000000000000000000000000000000000000000000090508173ffffffffffffffffffffffffffffffffffffffff166301ffc9a7826040518263ffffffff1660e01b815260040161019291906103d9565b602060405180830381865afa1580156101ad573d5f5f3e3d5ffd5b505050506040513d601f19601f820116820180604052508101906101d19190610427565b82829091610216576040517f65d25c7100000000000000000000000000000000000000000000000000000000815260040161020d929190610452565b60405180910390fd5b50505050565b5f5f5f9054906101000a900473ffffffffffffffffffffffffffffffffffffffff169050815f5f6101000a81548173ffffffffffffffffffffffffffffffffffffffff021916908373ffffffffffffffffffffffffffffffffffffffff1602179055508173ffffffffffffffffffffffffffffffffffffffff168173ffffffffffffffffffffffffffffffffffffffff167f8be0079c531659141344cd1fd0a4f28419497f9722a3daafe3b4186f6b6457e060405160405180910390a35050565b5f5ffd5b5f73ffffffffffffffffffffffffffffffffffffffff82169050919050565b5f61030a826102e1565b9050919050565b5f61031b82610300565b9050919050565b61032b81610311565b8114610335575f5ffd5b50565b5f8151905061034681610322565b92915050565b5f60208284031215610361576103606102dd565b5b5f61036e84828501610338565b91505092915050565b61038081610300565b82525050565b5f6020820190506103995f830184610377565b92915050565b5f7fffffffff0000000000000000000000000000000000000000000000000000000082169050919050565b6103d38161039f565b82525050565b5f6020820190506103ec5f8301846103ca565b92915050565b5f8115159050919050565b610406816103f2565b8114610410575f5ffd5b50565b5f81519050610421816103fd565b92915050565b5f6020828403121561043c5761043b6102dd565b5b5f61044984828501610413565b91505092915050565b5f6040820190506104655f830185610377565b61047260208301846103ca565b9392505050565b60805161173e6104985f395f81816104cb01526105d6015261173e5ff3fe6080604052600436106100dc575f3560e01c8063b0d691fe1161007e578063c399ec8811610058578063c399ec8814610247578063d0e30db014610271578063e30c39781461027b578063f2fde38b146102a5576100dc565b8063b0d691fe146101df578063bb9fe6bf14610209578063c23a5cea1461021f576100dc565b8063715018a6116100ba578063715018a61461016157806379ba5097146101775780637c627b211461018d5780638da5cb5b146101b5576100dc565b80630396cb60146100e0578063205c2878146100fc57806352b7512c14610124575b5f5ffd5b6100fa60048036038101906100f59190610dba565b6102cd565b005b348015610107575f5ffd5b50610122600480360381019061011d9190610e72565b610347565b005b34801561012f575f5ffd5b5061014a60048036038101906101459190610f06565b6103c2565b604051610158929190610ff1565b60405180910390f35b34801561016c575f5ffd5b506101756103e4565b005b348015610182575f5ffd5b5061018b6103f7565b005b348015610198575f5ffd5b506101b360048036038101906101ae91906110a3565b610485565b005b3480156101c0575f5ffd5b506101c96104a1565b6040516101d69190611147565b60405180910390f35b3480156101ea575f5ffd5b506101f36104c8565b60405161020091906111bb565b60405180910390f35b348015610214575f5ffd5b5061021d6104ef565b005b34801561022a575f5ffd5b50610245600480360381019061024091906111d4565b61055b565b005b348015610252575f5ffd5b5061025b6105d3565b60405161026891906111ff565b60405180910390f35b610279610671565b005b348015610286575f5ffd5b5061028f6106e2565b60405161029c9190611147565b60405180910390f35b3480156102b0575f5ffd5b506102cb60048036038101906102c69190611242565b61070a565b005b6102d56107b6565b6102dd6104c8565b73ffffffffffffffffffffffffffffffffffffffff16630396cb6034836040518363ffffffff1660e01b8152600401610316919061127c565b5f604051808303818588803b15801561032d575f5ffd5b505af115801561033f573d5f5f3e3d5ffd5b505050505050565b61034f6107b6565b6103576104c8565b73ffffffffffffffffffffffffffffffffffffffff1663205c287883836040518363ffffffff1660e01b81526004016103919291906112a4565b5f604051808303815f87803b1580156103a8575f5ffd5b505af11580156103ba573d5f5f3e3d5ffd5b505050505050565b60605f6103cd61083d565b6103d88585856108c7565b91509150935093915050565b6103ec6107b6565b6103f55f610a6f565b565b5f610400610a9f565b90508073ffffffffffffffffffffffffffffffffffffffff166104216106e2565b73ffffffffffffffffffffffffffffffffffffffff161461047957806040517f118cdaa70000000000000000000000000000000000000000000000000000000081526004016104709190611147565b60405180910390fd5b61048281610a6f565b50565b61048d61083d565b61049a8585858585610aa6565b5050505050565b5f5f5f9054906101000a900473ffffffffffffffffffffffffffffffffffffffff16905090565b5f7f0000000000000000000000000000000000000000000000000000000000000000905090565b6104f76107b6565b6104ff6104c8565b73ffffffffffffffffffffffffffffffffffffffff1663bb9fe6bf6040518163ffffffff1660e01b81526004015f604051808303815f87803b158015610543575f5ffd5b505af1158015610555573d5f5f3e3d5ffd5b50505050565b6105636107b6565b61056b6104c8565b73ffffffffffffffffffffffffffffffffffffffff1663c23a5cea826040518263ffffffff1660e01b81526004016105a391906112cb565b5f604051808303815f87803b1580156105ba575f5ffd5b505af11580156105cc573d5f5f3e3d5ffd5b5050505050565b5f7f000000000000000000000000000000000000000000000000000000000000000073ffffffffffffffffffffffffffffffffffffffff166370a08231306040518263ffffffff1660e01b815260040161062d9190611147565b602060405180830381865afa158015610648573d5f5f3e3d5ffd5b505050506040513d601f19601f8201168201806040525081019061066c91906112f8565b905090565b6106796104c8565b73ffffffffffffffffffffffffffffffffffffffff1663b760faf934306040518363ffffffff1660e01b81526004016106b29190611147565b5f604051808303818588803b1580156106c9575f5ffd5b505af11580156106db573d5f5f3e3d5ffd5b5050505050565b5f60015f9054906101000a900473ffffffffffffffffffffffffffffffffffffffff16905090565b6107126107b6565b8060015f6101000a81548173ffffffffffffffffffffffffffffffffffffffff021916908373ffffffffffffffffffffffffffffffffffffffff1602179055508073ffffffffffffffffffffffffffffffffffffffff166107716104a1565b73ffffffffffffffffffffffffffffffffffffffff167f38d16b8cac22d99fc7c124b9cd0de2d3fa1faef420bfe791d8c362d765e2270060405160405180910390a350565b6107be610a9f565b73ffffffffffffffffffffffffffffffffffffffff166107dc6104a1565b73ffffffffffffffffffffffffffffffffffffffff161461083b576107ff610a9f565b6040517f118cdaa70000000000000000000000000000000000000000000000000000000081526004016108329190611147565b60405180910390fd5b565b6108456104c8565b73ffffffffffffffffffffffffffffffffffffffff163373ffffffffffffffffffffffffffffffffffffffff1614333061087d6104c8565b9091926108c2576040517ffe34a6d30000000000000000000000000000000000000000000000000000000081526004016108b993929190611323565b60405180910390fd5b505050565b60605f5f6108e3868060e001906108de9190611364565b610ad8565b8080601f0160208091040260200160405190810160405280939291908181526020018383808284375f81840152601f19601f8201169050808301925050505050505090505f8180602001905181019061093c91906112f8565b9050601160ff821614610984576040517f08c379a000000000000000000000000000000000000000000000000000000000815260040161097b90611420565b60405180910390fd5b5f61099d888060e001906109989190611364565b610b3c565b90505f81116109e1576040517f08c379a00000000000000000000000000000000000000000000000000000000081526004016109d890611488565b60405180910390fd5b365f6109fc8a8060e001906109f69190611364565b85610c5b565b915091505f5f8383810190610a1191906114a6565b9150915060648183610a239190611511565b14610a4a57600160405180602001604052805f815250909850985050505050505050610a67565b5f60405180602001604052805f8152509098509850505050505050505b935093915050565b60015f6101000a81549073ffffffffffffffffffffffffffffffffffffffff0219169055610a9c81610cb8565b50565b5f33905090565b6040517f25ad501f00000000000000000000000000000000000000000000000000000000815260040160405180910390fd5b365f5f610ae58585610b3c565b90505f8585905090505f8214610b1c5760026008610b039190611511565b82610b0e9190611511565b81610b199190611544565b90505b85856034908392610b2f9392919061157f565b9350935050509250929050565b5f5f8383905090506002600801603401811015610b5c575f915050610c55565b5f848460088403908492610b729392919061157f565b90610b7d91906115fa565b90506722e325a29743965660c01b77ffffffffffffffffffffffffffffffffffffffffffffffff19168177ffffffffffffffffffffffffffffffffffffffffffffffff191614610bd1575f92505050610c55565b5f858560026008018503908092610bea9392919061157f565b90610bf59190611683565b60f01c61ffff16905060026008016034018303811115610c4e5782816040517f07b9a191000000000000000000000000000000000000000000000000000000008152600401610c459291906116e1565b60405180910390fd5b8093505050505b92915050565b365f5f8303610c7f5784845f905f92610c769392919061157f565b91509150610cb0565b5f8585905090505f6002600801820390505f8582039050878782908492610ca89392919061157f565b945094505050505b935093915050565b5f5f5f9054906101000a900473ffffffffffffffffffffffffffffffffffffffff169050815f5f6101000a81548173ffffffffffffffffffffffffffffffffffffffff021916908373ffffffffffffffffffffffffffffffffffffffff1602179055508173ffffffffffffffffffffffffffffffffffffffff168173ffffffffffffffffffffffffffffffffffffffff167f8be0079c531659141344cd1fd0a4f28419497f9722a3daafe3b4186f6b6457e060405160405180910390a35050565b5f5ffd5b5f5ffd5b5f63ffffffff82169050919050565b610d9981610d81565b8114610da3575f5ffd5b50565b5f81359050610db481610d90565b92915050565b5f60208284031215610dcf57610dce610d79565b5b5f610ddc84828501610da6565b91505092915050565b5f73ffffffffffffffffffffffffffffffffffffffff82169050919050565b5f610e0e82610de5565b9050919050565b610e1e81610e04565b8114610e28575f5ffd5b50565b5f81359050610e3981610e15565b92915050565b5f819050919050565b610e5181610e3f565b8114610e5b575f5ffd5b50565b5f81359050610e6c81610e48565b92915050565b5f5f60408385031215610e8857610e87610d79565b5b5f610e9585828601610e2b565b9250506020610ea685828601610e5e565b9150509250929050565b5f5ffd5b5f6101208284031215610eca57610ec9610eb0565b5b81905092915050565b5f819050919050565b610ee581610ed3565b8114610eef575f5ffd5b50565b5f81359050610f0081610edc565b92915050565b5f5f5f60608486031215610f1d57610f1c610d79565b5b5f84013567ffffffffffffffff811115610f3a57610f39610d7d565b5b610f4686828701610eb4565b9350506020610f5786828701610ef2565b9250506040610f6886828701610e5e565b9150509250925092565b5f81519050919050565b5f82825260208201905092915050565b8281835e5f83830152505050565b5f601f19601f8301169050919050565b5f610fb482610f72565b610fbe8185610f7c565b9350610fce818560208601610f8c565b610fd781610f9a565b840191505092915050565b610feb81610e3f565b82525050565b5f6040820190508181035f8301526110098185610faa565b90506110186020830184610fe2565b9392505050565b6003811061102b575f5ffd5b50565b5f8135905061103c8161101f565b92915050565b5f5ffd5b5f5ffd5b5f5ffd5b5f5f83601f84011261106357611062611042565b5b8235905067ffffffffffffffff8111156110805761107f611046565b5b60208301915083600182028301111561109c5761109b61104a565b5b9250929050565b5f5f5f5f5f608086880312156110bc576110bb610d79565b5b5f6110c98882890161102e565b955050602086013567ffffffffffffffff8111156110ea576110e9610d7d565b5b6110f68882890161104e565b9450945050604061110988828901610e5e565b925050606061111a88828901610e5e565b9150509295509295909350565b5f61113182610de5565b9050919050565b61114181611127565b82525050565b5f60208201905061115a5f830184611138565b92915050565b5f819050919050565b5f61118361117e61117984610de5565b611160565b610de5565b9050919050565b5f61119482611169565b9050919050565b5f6111a58261118a565b9050919050565b6111b58161119b565b82525050565b5f6020820190506111ce5f8301846111ac565b92915050565b5f602082840312156111e9576111e8610d79565b5b5f6111f684828501610e2b565b91505092915050565b5f6020820190506112125f830184610fe2565b92915050565b61122181611127565b811461122b575f5ffd5b50565b5f8135905061123c81611218565b92915050565b5f6020828403121561125757611256610d79565b5b5f6112648482850161122e565b91505092915050565b61127681610d81565b82525050565b5f60208201905061128f5f83018461126d565b92915050565b61129e81610e04565b82525050565b5f6040820190506112b75f830185611295565b6112c46020830184610fe2565b9392505050565b5f6020820190506112de5f830184611295565b92915050565b5f815190506112f281610e48565b92915050565b5f6020828403121561130d5761130c610d79565b5b5f61131a848285016112e4565b91505092915050565b5f6060820190506113365f830186611138565b6113436020830185611138565b6113506040830184611138565b949350505050565b5f5ffd5b5f5ffd5b5f5ffd5b5f5f833560016020038436030381126113805761137f611358565b5b80840192508235915067ffffffffffffffff8211156113a2576113a161135c565b5b6020830192506001820236038313156113be576113bd611360565b5b509250929050565b5f82825260208201905092915050565b7f65787065637465642074657374446174613d30783131000000000000000000005f82015250565b5f61140a6016836113c6565b9150611415826113d6565b602082019050919050565b5f6020820190508181035f830152611437816113fe565b9050919050565b7f6d697373696e67207061796d61737465725369670000000000000000000000005f82015250565b5f6114726014836113c6565b915061147d8261143e565b602082019050919050565b5f6020820190508181035f83015261149f81611466565b9050919050565b5f5f604083850312156114bc576114bb610d79565b5b5f6114c985828601610e5e565b92505060206114da85828601610e5e565b9150509250929050565b7f4e487b71000000000000000000000000000000000000000000000000000000005f52601160045260245ffd5b5f61151b82610e3f565b915061152683610e3f565b925082820190508082111561153e5761153d6114e4565b5b92915050565b5f61154e82610e3f565b915061155983610e3f565b9250828203905081811115611571576115706114e4565b5b92915050565b5f5ffd5b5f5ffd5b5f5f8585111561159257611591611577565b5b838611156115a3576115a261157b565b5b6001850283019150848603905094509492505050565b5f82905092915050565b5f7fffffffffffffffff00000000000000000000000000000000000000000000000082169050919050565b5f82821b905092915050565b5f61160583836115b9565b8261161081356115c3565b925060088210156116505761164b7fffffffffffffffff000000000000000000000000000000000000000000000000836008036008026115ee565b831692505b505092915050565b5f7fffff00000000000000000000000000000000000000000000000000000000000082169050919050565b5f61168e83836115b9565b826116998135611658565b925060028210156116d9576116d47fffff000000000000000000000000000000000000000000000000000000000000836002036008026115ee565b831692505b505092915050565b5f6040820190506116f45f830185610fe2565b6117016020830184610fe2565b939250505056fea2646970667358221220c392fe184f0378a1f31decfd8d1952679eafff2a552aecba6b3b4cb7cdd164a964736f6c634300081e0033","linkReferences":{}},"methodIdentifiers":{"acceptOwnership()":"79ba5097","addStake(uint32)":"0396cb60","deposit()":"d0e30db0","entryPoint()":"b0d691fe","getDeposit()":"c399ec88","owner()":"8da5cb5b","pendingOwner()":"e30c3978","postOp(uint8,bytes,uint256,uint256)":"7c627b21","renounceOwnership()":"715018a6","transferOwnership(address)":"f2fde38b","unlockStake()":"bb9fe6bf","validatePaymasterUserOp((address,uint256,bytes,bytes,bytes32,uint256,bytes32,bytes,bytes),bytes32,uint256)":"52b7512c","withdrawStake(address)":"c23a5cea","withdrawTo(address,uint256)":"205c2878"},"id":48}