{"abi":[{"type":"constructor","inputs":[{"name":"anEntryPoint","type":"address","internalType":"contract IEntryPoint"}],"stateMutability":"nonpayable"},{"type":"receive","stateMutability":"payable"},{"type":"function","name":"UPGRADE_INTERFACE_VERSION","inputs":[],"outputs":[{"name":"","type":"string","internalType":"string"}],"stateMutability":"view"},{"type":"function","name":"addDeposit","inputs":[],"outputs":[],"stateMutability":"payable"},{"type":"function","name":"entryPoint","inputs":[],"outputs":[{"name":"","type":"address","internalType":"contract IEntryPoint"}],"stateMutability":"view"},{"type":"function","name":"execute","inputs":[{"name":"target","type":"address","internalType":"address"},{"name":"value","type":"uint256","internalType":"uint256"},{"name":"data","type":"bytes","internalType":"bytes"}],"outputs":[],"stateMutability":"nonpayable"},{"type":"function","name":"executeBatch","inputs":[{"name":"calls","type":"tuple[]","internalType":"struct BaseAccount.Call[]","components":[{"name":"target","type":"address","internalType":"address"},{"name":"value","type":"uint256","internalType":"uint256"},{"name":"data","type":"bytes","internalType":"bytes"}]}],"outputs":[],"stateMutability":"nonpayable"},{"type":"function","name":"getDeposit","inputs":[],"outputs":[{"name":"","type":"uint256","internalType":"uint256"}],"stateMutability":"view"},{"type":"function","name":"getNonce","inputs":[],"outputs":[{"name":"","type":"uint256","internalType":"uint256"}],"stateMutability":"view"},{"type":"function","name":"initialize","inputs":[{"name":"anOwner","type":"address","internalType":"address"}],"outputs":[],"stateMutability":"nonpayable"},{"type":"function","name":"onERC1155BatchReceived","inputs":[{"name":"","type":"address","internalType":"address"},{"name":"","type":"address","internalType":"address"},{"name":"","type":"uint256[]","internalType":"uint256[]"},{"name":"","type":"uint256[]","internalType":"uint256[]"},{"name":"","type":"bytes","internalType":"bytes"}],"outputs":[{"name":"","type":"bytes4","internalType":"bytes4"}],"stateMutability":"pure"},{"type":"function","name":"onERC1155Received","inputs":[{"name":"","type":"address","internalType":"address"},{"name":"","type":"address","internalType":"address"},{"name":"","type":"uint256","internalType":"uint256"},{"name":"","type":"uint256","internalType":"uint256"},{"name":"","type":"bytes","internalType":"bytes"}],"outputs":[{"name":"","type":"bytes4","internalType":"bytes4"}],"stateMutability":"pure"},{"type":"function","name":"onERC721Received","inputs":[{"name":"","type":"address","internalType":"address"},{"name":"","type":"address","internalType":"address"},{"name":"","type":"uint256","internalType":"uint256"},{"name":"","type":"bytes","internalType":"bytes"}],"outputs":[{"name":"","type":"bytes4","internalType":"bytes4"}],"stateMutability":"pure"},{"type":"function","name":"owner","inputs":[],"outputs":[{"name":"","type":"address","internalType":"address"}],"stateMutability":"view"},{"type":"function","name":"proxiableUUID","inputs":[],"outputs":[{"name":"","type":"bytes32","internalType":"bytes32"}],"stateMutability":"view"},{"type":"function","name":"supportsInterface","inputs":[{"name":"interfaceId","type":"bytes4","internalType":"bytes4"}],"outputs":[{"name":"","type":"bool","internalType":"bool"}],"stateMutability":"view"},{"type":"function","name":"upgradeToAndCall","inputs":[{"name":"newImplementation","type":"address","internalType":"address"},{"name":"data","type":"bytes","internalType":"bytes"}],"outputs":[],"stateMutability":"payable"},{"type":"function","name":"validateUserOp","inputs":[{"name":"userOp","type":"tuple","internalType":"struct PackedUserOperation","components":[{"name":"sender","type":"address","internalType":"address"},{"name":"nonce","type":"uint256","internalType":"uint256"},{"name":"initCode","type":"bytes","internalType":"bytes"},{"name":"callData","type":"bytes","internalType":"bytes"},{"name":"accountGasLimits","type":"bytes32","internalType":"bytes32"},{"name":"preVerificationGas","type":"uint256","internalType":"uint256"},{"name":"gasFees","type":"bytes32","internalType":"bytes32"},{"name":"paymasterAndData","type":"bytes","internalType":"bytes"},{"name":"signature","type":"bytes","internalType":"bytes"}]},{"name":"userOpHash","type":"bytes32","internalType":"bytes32"},{"name":"missingAccountFunds","type":"uint256","internalType":"uint256"}],"outputs":[{"name":"validationData","type":"uint256","internalType":"uint256"}],"stateMutability":"nonpayable"},{"type":"function","name":"withdrawDepositTo","inputs":[{"name":"withdrawAddress","type":"address","internalType":"address payable"},{"name":"amount","type":"uint256","internalType":"uint256"}],"outputs":[],"stateMutability":"nonpayable"},{"type":"event","name":"Initialized","inputs":[{"name":"version","type":"uint64","indexed":false,"internalType":"uint64"}],"anonymous":false},{"type":"event","name":"SimpleAccountInitialized","inputs":[{"name":"entryPoint","type":"address","indexed":true,"internalType":"contract IEntryPoint"},{"name":"owner","type":"address","indexed":true,"internalType":"address"}],"anonymous":false},{"type":"event","name":"Upgraded","inputs":[{"name":"implementation","type":"address","indexed":true,"internalType":"address"}],"anonymous":false},{"type":"error","name":"AddressEmptyCode","inputs":[{"name":"target","type":"address","internalType":"address"}]},{"type":"error","name":"ECDSAInvalidSignature","inputs":[]},{"type":"error","name":"ECDSAInvalidSignatureLength","inputs":[{"name":"length","type":"uint256","internalType":"uint256"}]},{"type":"error","name":"ECDSAInvalidSignatureS","inputs":[{"name":"s","type":"bytes32","internalType":"bytes32"}]},{"type":"error","name":"ERC1967InvalidImplementation","inputs":[{"name":"implementation","type":"address","internalType":"address"}]},{"type":"error","name":"ERC1967NonPayable","inputs":[]},{"type":"error","name":"ExecuteError","inputs":[{"name":"index","type":"uint256","internalType":"uint256"},{"name":"error","type":"bytes","internalType":"bytes"}]},{"type":"error","name":"FailedCall","inputs":[]},{"type":"error","name":"InvalidInitialization","inputs":[]},{"type":"error","name":"NotFromEntryPoint","inputs":[{"name":"msgSender","type":"address","internalType":"address"},{"name":"entity","type":"address","internalType":"address"},{"name":"entryPoint","type":"address","internalType":"address"}]},{"type":"error","name":"NotInitializing","inputs":[]},{"type":"error","name":"NotOwner","inputs":[{"name":"msgSender","type":"address","internalType":"address"},{"name":"entity","type":"address","internalType":"address"},{"name":"owner","type":"address","internalType":"address"}]},{"type":"error","name":"NotOwnerOrEntryPoint","inputs":[{"name":"msgSender","type":"address","internalType":"address"},{"name":"entity","type":"address","internalType":"address"},{"name":"entryPoint","type":"address","internalType":"address"},{"name":"owner","type":"address","internalType":"address"}]},{"type":"error","name":"UUPSUnauthorizedCallContext","inputs":[]},{"type":"error","name":"UUPSUnsupportedProxiableUUID","inputs":[{"name":"slot","type":"bytes32","internalType":"bytes32"}]}],"bytecode":{"object":"0x60c06040523073ffffffffffffffffffffffffffffffffffffffff1660809073ffffffffffffffffffffffffffffffffffffffff16815250348015610042575f5ffd5b506040516129f53803806129f58339818101604052810190610064919061025b565b8073ffffffffffffffffffffffffffffffffffffffff1660a08173ffffffffffffffffffffffffffffffffffffffff16815250506100a66100ac60201b60201c565b506102c1565b5f6100bb6101aa60201b60201c565b9050805f0160089054906101000a900460ff1615610105576040517ff92ee8a900000000000000000000000000000000000000000000000000000000815260040160405180910390fd5b67ffffffffffffffff8016815f015f9054906101000a900467ffffffffffffffff1667ffffffffffffffff16146101a75767ffffffffffffffff815f015f6101000a81548167ffffffffffffffff021916908367ffffffffffffffff1602179055507fc7f505b2f371ae2175ee4913f4499e1f2633a7b5936321eed1cdaeb6115181d267ffffffffffffffff60405161019e91906102a8565b60405180910390a15b50565b5f5f6101ba6101c360201b60201c565b90508091505090565b5f7ff0c57e16840df040f15088dc2f81fe391c3923bec73e23a9662efc9c229c6a005f1b905090565b5f5ffd5b5f73ffffffffffffffffffffffffffffffffffffffff82169050919050565b5f610219826101f0565b9050919050565b5f61022a8261020f565b9050919050565b61023a81610220565b8114610244575f5ffd5b50565b5f8151905061025581610231565b92915050565b5f602082840312156102705761026f6101ec565b5b5f61027d84828501610247565b91505092915050565b5f67ffffffffffffffff82169050919050565b6102a281610286565b82525050565b5f6020820190506102bb5f830184610299565b92915050565b60805160a0516127056102f05f395f61084501525f8181610fae0152818161100301526111bd01526127055ff3fe608060405260043610610101575f3560e01c80638da5cb5b11610094578063bc197c8111610063578063bc197c8114610306578063c399ec8814610342578063c4d66de81461036c578063d087d28814610394578063f23a6e61146103be57610108565b80638da5cb5b14610260578063ad3cb1cc1461028a578063b0d691fe146102b4578063b61d27f6146102de57610108565b80634a58db19116100d05780634a58db19146101e85780634d44560d146101f25780634f1ef2861461021a57806352d1902d1461023657610108565b806301ffc9a71461010c578063150b7a021461014857806319822f7c1461018457806334fcd5be146101c057610108565b3661010857005b5f5ffd5b348015610117575f5ffd5b50610132600480360381019061012d919061197e565b6103fa565b60405161013f91906119c3565b60405180910390f35b348015610153575f5ffd5b5061016e60048036038101906101699190611aca565b610533565b60405161017b9190611b5d565b60405180910390f35b34801561018f575f5ffd5b506101aa60048036038101906101a59190611bcc565b610547565b6040516101b79190611c47565b60405180910390f35b3480156101cb575f5ffd5b506101e660048036038101906101e19190611cb5565b610579565b005b6101f06106a9565b005b3480156101fd575f5ffd5b5061021860048036038101906102139190611d3b565b61071a565b005b610234600480360381019061022f9190611eb1565b610795565b005b348015610241575f5ffd5b5061024a6107b4565b6040516102579190611f1a565b60405180910390f35b34801561026b575f5ffd5b506102746107e5565b6040516102819190611f42565b60405180910390f35b348015610295575f5ffd5b5061029e610809565b6040516102ab9190611fbb565b60405180910390f35b3480156102bf575f5ffd5b506102c8610842565b6040516102d59190612036565b60405180910390f35b3480156102e9575f5ffd5b5061030460048036038101906102ff919061204f565b610869565b005b348015610311575f5ffd5b5061032c60048036038101906103279190612115565b6108d8565b6040516103399190611b5d565b60405180910390f35b34801561034d575f5ffd5b506103566108ef565b6040516103639190611c47565b60405180910390f35b348015610377575f5ffd5b50610392600480360381019061038d91906121ec565b610974565b005b34801561039f575f5ffd5b506103a8610af5565b6040516103b59190611c47565b60405180910390f35b3480156103c9575f5ffd5b506103e460048036038101906103df9190612217565b610b7c565b6040516103f19190611b5d565b60405180910390f35b5f7f150b7a02000000000000000000000000000000000000000000000000000000007bffffffffffffffffffffffffffffffffffffffffffffffffffffffff1916827bffffffffffffffffffffffffffffffffffffffffffffffffffffffff191614806104c457507f4e2312e0000000000000000000000000000000000000000000000000000000007bffffffffffffffffffffffffffffffffffffffffffffffffffffffff1916827bffffffffffffffffffffffffffffffffffffffffffffffffffffffff1916145b8061052c57507f01ffc9a7000000000000000000000000000000000000000000000000000000007bffffffffffffffffffffffffffffffffffffffffffffffffffffffff1916827bffffffffffffffffffffffffffffffffffffffffffffffffffffffff1916145b9050919050565b5f63150b7a0260e01b905095945050505050565b5f610550610b91565b61055a8484610c1b565b90506105698460200135610cdd565b61057282610ce0565b9392505050565b610581610d54565b5f8282905090505f5f90505b818110156106a357368484838181106105a9576105a86122ad565b5b90506020028101906105bb91906122e6565b90505f610630825f0160208101906105d391906121ec565b83602001358480604001906105e8919061230d565b8080601f0160208091040260200160405190810160405280939291908181526020018383808284375f81840152601f19601f820116905080830192505050505050505a610e58565b905080610694576001840361064c57610647610e6f565b610693565b826106565f610e82565b6040517f5a15467500000000000000000000000000000000000000000000000000000000815260040161068a9291906123c1565b60405180910390fd5b5b5050808060010191505061058d565b50505050565b6106b1610842565b73ffffffffffffffffffffffffffffffffffffffff1663b760faf934306040518363ffffffff1660e01b81526004016106ea9190611f42565b5f604051808303818588803b158015610701575f5ffd5b505af1158015610713573d5f5f3e3d5ffd5b5050505050565b610722610eba565b61072a610842565b73ffffffffffffffffffffffffffffffffffffffff1663205c287883836040518363ffffffff1660e01b81526004016107649291906123fe565b5f604051808303815f87803b15801561077b575f5ffd5b505af115801561078d573d5f5f3e3d5ffd5b505050505050565b61079d610fac565b6107a682611092565b6107b0828261109d565b5050565b5f6107bd6111bb565b7f360894a13ba1a3210667c828492db98dca3e2076cc3735a920a3ca505d382bbc5f1b905090565b5f5f9054906101000a900473ffffffffffffffffffffffffffffffffffffffff1681565b6040518060400160405280600581526020017f352e302e3000000000000000000000000000000000000000000000000000000081525081565b5f7f0000000000000000000000000000000000000000000000000000000000000000905090565b610871610d54565b5f6108c1858585858080601f0160208091040260200160405190810160405280939291908181526020018383808284375f81840152601f19601f820116905080830192505050505050505a610e58565b9050806108d1576108d0610e6f565b5b5050505050565b5f63bc197c8160e01b905098975050505050505050565b5f6108f8610842565b73ffffffffffffffffffffffffffffffffffffffff166370a08231306040518263ffffffff1660e01b81526004016109309190611f42565b602060405180830381865afa15801561094b573d5f5f3e3d5ffd5b505050506040513d601f19601f8201168201806040525081019061096f9190612439565b905090565b5f61097d611242565b90505f815f0160089054906101000a900460ff161590505f825f015f9054906101000a900467ffffffffffffffff1690505f5f8267ffffffffffffffff161480156109c55750825b90505f60018367ffffffffffffffff161480156109f857505f3073ffffffffffffffffffffffffffffffffffffffff163b145b905081158015610a06575080155b15610a3d576040517ff92ee8a900000000000000000000000000000000000000000000000000000000815260040160405180910390fd5b6001855f015f6101000a81548167ffffffffffffffff021916908367ffffffffffffffff1602179055508315610a8a576001855f0160086101000a81548160ff0219169083151502179055505b610a9386611255565b8315610aed575f855f0160086101000a81548160ff0219169083151502179055507fc7f505b2f371ae2175ee4913f4499e1f2633a7b5936321eed1cdaeb6115181d26001604051610ae491906124b0565b60405180910390a15b505050505050565b5f610afe610842565b73ffffffffffffffffffffffffffffffffffffffff166335567e1a305f6040518363ffffffff1660e01b8152600401610b38929190612525565b602060405180830381865afa158015610b53573d5f5f3e3d5ffd5b505050506040513d601f19601f82011682018060405250810190610b779190612439565b905090565b5f63f23a6e6160e01b90509695505050505050565b610b99610842565b73ffffffffffffffffffffffffffffffffffffffff163373ffffffffffffffffffffffffffffffffffffffff16143330610bd1610842565b909192610c16576040517ffe34a6d3000000000000000000000000000000000000000000000000000000008152600401610c0d9392919061254c565b60405180910390fd5b505050565b5f610c788284806101000190610c31919061230d565b8080601f0160208091040260200160405190810160405280939291908181526020018383808284375f81840152601f19601f82011690508083019250505050505050611318565b73ffffffffffffffffffffffffffffffffffffffff165f5f9054906101000a900473ffffffffffffffffffffffffffffffffffffffff1673ffffffffffffffffffffffffffffffffffffffff1614610cd35760019050610cd7565b5f90505b92915050565b50565b5f8114610d51575f3373ffffffffffffffffffffffffffffffffffffffff1682604051610d0c906125ae565b5f6040518083038185875af1925050503d805f8114610d46576040519150601f19603f3d011682016040523d82523d5f602084013e610d4b565b606091505b50509050505b50565b610d5c610842565b73ffffffffffffffffffffffffffffffffffffffff163373ffffffffffffffffffffffffffffffffffffffff161480610de057505f5f9054906101000a900473ffffffffffffffffffffffffffffffffffffffff1673ffffffffffffffffffffffffffffffffffffffff163373ffffffffffffffffffffffffffffffffffffffff16145b3330610dea610842565b5f5f9054906101000a900473ffffffffffffffffffffffffffffffffffffffff1690919293610e52576040517f62018a31000000000000000000000000000000000000000000000000000000008152600401610e4994939291906125c2565b60405180910390fd5b50505050565b5f5f5f845160208601878987f19050949350505050565b610e80610e7b5f610e82565b611342565b565b60603d5f831115610e9a5782811115610e99578290505b5b604051602082018101604052818152815f602083013e8092505050919050565b5f5f9054906101000a900473ffffffffffffffffffffffffffffffffffffffff1673ffffffffffffffffffffffffffffffffffffffff163373ffffffffffffffffffffffffffffffffffffffff161480610f3f57503073ffffffffffffffffffffffffffffffffffffffff163373ffffffffffffffffffffffffffffffffffffffff16145b33305f5f9054906101000a900473ffffffffffffffffffffffffffffffffffffffff16909192610fa7576040517fcbce04d8000000000000000000000000000000000000000000000000000000008152600401610f9e9392919061254c565b60405180910390fd5b505050565b7f000000000000000000000000000000000000000000000000000000000000000073ffffffffffffffffffffffffffffffffffffffff163073ffffffffffffffffffffffffffffffffffffffff16148061105957507f000000000000000000000000000000000000000000000000000000000000000073ffffffffffffffffffffffffffffffffffffffff1661104061134a565b73ffffffffffffffffffffffffffffffffffffffff1614155b15611090576040517fe07c8dba00000000000000000000000000000000000000000000000000000000815260040160405180910390fd5b565b61109a610eba565b50565b8173ffffffffffffffffffffffffffffffffffffffff166352d1902d6040518163ffffffff1660e01b8152600401602060405180830381865afa92505050801561110557506040513d601f19601f820116820180604052508101906111029190612619565b60015b61114657816040517f4c9c8ce300000000000000000000000000000000000000000000000000000000815260040161113d9190611f42565b60405180910390fd5b7f360894a13ba1a3210667c828492db98dca3e2076cc3735a920a3ca505d382bbc5f1b81146111ac57806040517faa1d49a40000000000000000000000000000000000000000000000000000000081526004016111a39190611f1a565b60405180910390fd5b6111b6838361139d565b505050565b7f000000000000000000000000000000000000000000000000000000000000000073ffffffffffffffffffffffffffffffffffffffff163073ffffffffffffffffffffffffffffffffffffffff1614611240576040517fe07c8dba00000000000000000000000000000000000000000000000000000000815260040160405180910390fd5b565b5f5f61124c61140f565b90508091505090565b805f5f6101000a81548173ffffffffffffffffffffffffffffffffffffffff021916908373ffffffffffffffffffffffffffffffffffffffff1602179055505f5f9054906101000a900473ffffffffffffffffffffffffffffffffffffffff1673ffffffffffffffffffffffffffffffffffffffff166112d3610842565b73ffffffffffffffffffffffffffffffffffffffff167f47e55c76e7a6f1fd8996a1da8008c1ea29699cca35e7bcd057f2dec313b6e5de60405160405180910390a350565b5f5f5f5f6113268686611438565b925092509250611336828261148d565b82935050505092915050565b805160208201fd5b5f6113767f360894a13ba1a3210667c828492db98dca3e2076cc3735a920a3ca505d382bbc5f1b6115ef565b5f015f9054906101000a900473ffffffffffffffffffffffffffffffffffffffff16905090565b6113a6826115f8565b8173ffffffffffffffffffffffffffffffffffffffff167fbc7cd75a20ee27fd9adebab32041f755214dbc6bffa90cc0225b39da2e5c2d3b60405160405180910390a25f81511115611402576113fc82826116c1565b5061140b565b61140a6117b2565b5b5050565b5f7ff0c57e16840df040f15088dc2f81fe391c3923bec73e23a9662efc9c229c6a005f1b905090565b5f5f5f6041845103611478575f5f5f602087015192506040870151915060608701515f1a905061146a888285856117ee565b955095509550505050611486565b5f600285515f1b9250925092505b9250925092565b5f60038111156114a05761149f612644565b5b8260038111156114b3576114b2612644565b5b03156115eb57600160038111156114cd576114cc612644565b5b8260038111156114e0576114df612644565b5b03611517576040517ff645eedf00000000000000000000000000000000000000000000000000000000815260040160405180910390fd5b6002600381111561152b5761152a612644565b5b82600381111561153e5761153d612644565b5b0361158257805f1c6040517ffce698f70000000000000000000000000000000000000000000000000000000081526004016115799190611c47565b60405180910390fd5b60038081111561159557611594612644565b5b8260038111156115a8576115a7612644565b5b036115ea57806040517fd78bce0c0000000000000000000000000000000000000000000000000000000081526004016115e19190611f1a565b60405180910390fd5b5b5050565b5f819050919050565b5f8173ffffffffffffffffffffffffffffffffffffffff163b0361165357806040517f4c9c8ce300000000000000000000000000000000000000000000000000000000815260040161164a9190611f42565b60405180910390fd5b8061167f7f360894a13ba1a3210667c828492db98dca3e2076cc3735a920a3ca505d382bbc5f1b6115ef565b5f015f6101000a81548173ffffffffffffffffffffffffffffffffffffffff021916908373ffffffffffffffffffffffffffffffffffffffff16021790555050565b60605f6116ce84846118d5565b905080801561170457505f6116e16118e9565b118061170357505f8473ffffffffffffffffffffffffffffffffffffffff163b115b5b15611719576117116118f0565b9150506117ac565b801561175c57836040517f9996b3150000000000000000000000000000000000000000000000000000000081526004016117539190611f42565b60405180910390fd5b5f6117656118e9565b11156117785761177361190d565b6117aa565b6040517fd6bda27500000000000000000000000000000000000000000000000000000000815260040160405180910390fd5b505b92915050565b5f3411156117ec576040517fb398979f00000000000000000000000000000000000000000000000000000000815260040160405180910390fd5b565b5f5f5f7f7fffffffffffffffffffffffffffffff5d576e7357a4501ddfe92f46681b20a0845f1c111561182a575f6003859250925092506118cb565b5f6001888888886040515f815260200160405260405161184d949392919061268c565b6020604051602081039080840390855afa15801561186d573d5f5f3e3d5ffd5b5050506020604051035190505f73ffffffffffffffffffffffffffffffffffffffff168173ffffffffffffffffffffffffffffffffffffffff16036118be575f60015f5f1b935093509350506118cb565b805f5f5f1b935093509350505b9450945094915050565b5f5f5f835160208501865af4905092915050565b5f3d905090565b606060405190503d81523d5f602083013e3d602001810160405290565b6040513d5f823e3d81fd5b5f604051905090565b5f5ffd5b5f5ffd5b5f7fffffffff0000000000000000000000000000000000000000000000000000000082169050919050565b61195d81611929565b8114611967575f5ffd5b50565b5f8135905061197881611954565b92915050565b5f6020828403121561199357611992611921565b5b5f6119a08482850161196a565b91505092915050565b5f8115159050919050565b6119bd816119a9565b82525050565b5f6020820190506119d65f8301846119b4565b92915050565b5f73ffffffffffffffffffffffffffffffffffffffff82169050919050565b5f611a05826119dc565b9050919050565b611a15816119fb565b8114611a1f575f5ffd5b50565b5f81359050611a3081611a0c565b92915050565b5f819050919050565b611a4881611a36565b8114611a52575f5ffd5b50565b5f81359050611a6381611a3f565b92915050565b5f5ffd5b5f5ffd5b5f5ffd5b5f5f83601f840112611a8a57611a89611a69565b5b8235905067ffffffffffffffff811115611aa757611aa6611a6d565b5b602083019150836001820283011115611ac357611ac2611a71565b5b9250929050565b5f5f5f5f5f60808688031215611ae357611ae2611921565b5b5f611af088828901611a22565b9550506020611b0188828901611a22565b9450506040611b1288828901611a55565b935050606086013567ffffffffffffffff811115611b3357611b32611925565b5b611b3f88828901611a75565b92509250509295509295909350565b611b5781611929565b82525050565b5f602082019050611b705f830184611b4e565b92915050565b5f5ffd5b5f6101208284031215611b9057611b8f611b76565b5b81905092915050565b5f819050919050565b611bab81611b99565b8114611bb5575f5ffd5b50565b5f81359050611bc681611ba2565b92915050565b5f5f5f60608486031215611be357611be2611921565b5b5f84013567ffffffffffffffff811115611c0057611bff611925565b5b611c0c86828701611b7a565b9350506020611c1d86828701611bb8565b9250506040611c2e86828701611a55565b9150509250925092565b611c4181611a36565b82525050565b5f602082019050611c5a5f830184611c38565b92915050565b5f5f83601f840112611c7557611c74611a69565b5b8235905067ffffffffffffffff811115611c9257611c91611a6d565b5b602083019150836020820283011115611cae57611cad611a71565b5b9250929050565b5f5f60208385031215611ccb57611cca611921565b5b5f83013567ffffffffffffffff811115611ce857611ce7611925565b5b611cf485828601611c60565b92509250509250929050565b5f611d0a826119dc565b9050919050565b611d1a81611d00565b8114611d24575f5ffd5b50565b5f81359050611d3581611d11565b92915050565b5f5f60408385031215611d5157611d50611921565b5b5f611d5e85828601611d27565b9250506020611d6f85828601611a55565b9150509250929050565b5f5ffd5b5f601f19601f8301169050919050565b7f4e487b71000000000000000000000000000000000000000000000000000000005f52604160045260245ffd5b611dc382611d7d565b810181811067ffffffffffffffff82111715611de257611de1611d8d565b5b80604052505050565b5f611df4611918565b9050611e008282611dba565b919050565b5f67ffffffffffffffff821115611e1f57611e1e611d8d565b5b611e2882611d7d565b9050602081019050919050565b828183375f83830152505050565b5f611e55611e5084611e05565b611deb565b905082815260208101848484011115611e7157611e70611d79565b5b611e7c848285611e35565b509392505050565b5f82601f830112611e9857611e97611a69565b5b8135611ea8848260208601611e43565b91505092915050565b5f5f60408385031215611ec757611ec6611921565b5b5f611ed485828601611a22565b925050602083013567ffffffffffffffff811115611ef557611ef4611925565b5b611f0185828601611e84565b9150509250929050565b611f1481611b99565b82525050565b5f602082019050611f2d5f830184611f0b565b92915050565b611f3c816119fb565b82525050565b5f602082019050611f555f830184611f33565b92915050565b5f81519050919050565b5f82825260208201905092915050565b8281835e5f83830152505050565b5f611f8d82611f5b565b611f978185611f65565b9350611fa7818560208601611f75565b611fb081611d7d565b840191505092915050565b5f6020820190508181035f830152611fd38184611f83565b905092915050565b5f819050919050565b5f611ffe611ff9611ff4846119dc565b611fdb565b6119dc565b9050919050565b5f61200f82611fe4565b9050919050565b5f61202082612005565b9050919050565b61203081612016565b82525050565b5f6020820190506120495f830184612027565b92915050565b5f5f5f5f6060858703121561206757612066611921565b5b5f61207487828801611a22565b945050602061208587828801611a55565b935050604085013567ffffffffffffffff8111156120a6576120a5611925565b5b6120b287828801611a75565b925092505092959194509250565b5f5f83601f8401126120d5576120d4611a69565b5b8235905067ffffffffffffffff8111156120f2576120f1611a6d565b5b60208301915083602082028301111561210e5761210d611a71565b5b9250929050565b5f5f5f5f5f5f5f5f60a0898b03121561213157612130611921565b5b5f61213e8b828c01611a22565b985050602061214f8b828c01611a22565b975050604089013567ffffffffffffffff8111156121705761216f611925565b5b61217c8b828c016120c0565b9650965050606089013567ffffffffffffffff81111561219f5761219e611925565b5b6121ab8b828c016120c0565b9450945050608089013567ffffffffffffffff8111156121ce576121cd611925565b5b6121da8b828c01611a75565b92509250509295985092959890939650565b5f6020828403121561220157612200611921565b5b5f61220e84828501611a22565b91505092915050565b5f5f5f5f5f5f60a0878903121561223157612230611921565b5b5f61223e89828a01611a22565b965050602061224f89828a01611a22565b955050604061226089828a01611a55565b945050606061227189828a01611a55565b935050608087013567ffffffffffffffff81111561229257612291611925565b5b61229e89828a01611a75565b92509250509295509295509295565b7f4e487b71000000000000000000000000000000000000000000000000000000005f52603260045260245ffd5b5f5ffd5b5f5ffd5b5f5ffd5b5f82356001606003833603038112612301576123006122da565b5b80830191505092915050565b5f5f83356001602003843603038112612329576123286122da565b5b80840192508235915067ffffffffffffffff82111561234b5761234a6122de565b5b602083019250600182023603831315612367576123666122e2565b5b509250929050565b5f81519050919050565b5f82825260208201905092915050565b5f6123938261236f565b61239d8185612379565b93506123ad818560208601611f75565b6123b681611d7d565b840191505092915050565b5f6040820190506123d45f830185611c38565b81810360208301526123e68184612389565b90509392505050565b6123f881611d00565b82525050565b5f6040820190506124115f8301856123ef565b61241e6020830184611c38565b9392505050565b5f8151905061243381611a3f565b92915050565b5f6020828403121561244e5761244d611921565b5b5f61245b84828501612425565b91505092915050565b5f819050919050565b5f67ffffffffffffffff82169050919050565b5f61249a61249561249084612464565b611fdb565b61246d565b9050919050565b6124aa81612480565b82525050565b5f6020820190506124c35f8301846124a1565b92915050565b5f819050919050565b5f77ffffffffffffffffffffffffffffffffffffffffffffffff82169050919050565b5f61250f61250a612505846124c9565b611fdb565b6124d2565b9050919050565b61251f816124f5565b82525050565b5f6040820190506125385f830185611f33565b6125456020830184612516565b9392505050565b5f60608201905061255f5f830186611f33565b61256c6020830185611f33565b6125796040830184611f33565b949350505050565b5f81905092915050565b50565b5f6125995f83612581565b91506125a48261258b565b5f82019050919050565b5f6125b88261258e565b9150819050919050565b5f6080820190506125d55f830187611f33565b6125e26020830186611f33565b6125ef6040830185611f33565b6125fc6060830184611f33565b95945050505050565b5f8151905061261381611ba2565b92915050565b5f6020828403121561262e5761262d611921565b5b5f61263b84828501612605565b91505092915050565b7f4e487b71000000000000000000000000000000000000000000000000000000005f52602160045260245ffd5b5f60ff82169050919050565b61268681612671565b82525050565b5f60808201905061269f5f830187611f0b565b6126ac602083018661267d565b6126b96040830185611f0b565b6126c66060830184611f0b565b9594505050505056fea2646970667358221220b9111152c2a37469ca4297f3722ce093acfaa82c5062d3b0a979f40ee5f4cf8f64736f6c634300081e0033","linkReferences":{}},"methodIdentifiers":{"UPGRADE_INTERFACE_VERSION()":"ad3cb1cc","addDeposit()":"4a58db19","entryPoint()":"b0d691fe","execute(address,uint256,bytes)":"b61d27f6","executeBatch((address,uint256,bytes)[])":"34fcd5be","getDeposit()":"c399ec88","getNonce()":"d087d288","initialize(address)":"c4d66de8","onERC1155BatchReceived(address,address,uint256[],uint256[],bytes)":"bc197c81","onERC1155Received(address,address,uint256,uint256,bytes)":"f23a6e61","onERC721Received(address,address,uint256,bytes)":"150b7a02","owner()":"8da5cb5b","proxiableUUID()":"52d1902d","supportsInterface(bytes4)":"01ffc9a7","upgradeToAndCall(address,bytes)":"4f1ef286","validateUserOp((address,uint256,bytes,bytes,bytes32,uint256,bytes32,bytes,bytes),bytes32,uint256)":"19822f7c","withdrawDepositTo(address,uint256)":"4d44560d"},"id":1}