{"abi":[{"type":"constructor","inputs":[{"name":"_ep","type":"address","internalType":"contract IEntryPoint"}],"stateMutability":"payable"},{"type":"function","name":"state","inputs":[],"outputs":[{"name":"","type":"uint256","internalType":"uint256"}],"stateMutability":"view"},{"type":"function","name":"touchPaymaster","inputs":[{"name":"paymaster","type":"address","internalType":"address"}],"outputs":[{"name":"","type":"uint256","internalType":"uint256"}],"stateMutability":"view"},{"type":"function","name":"touchStorage","inputs":[],"outputs":[{"name":"","type":"uint256","internalType":"uint256"}],"stateMutability":"view"},{"type":"function","name":"validateUserOp","inputs":[{"name":"userOp","type":"tuple","internalType":"struct PackedUserOperation","components":[{"name":"sender","type":"address","internalType":"address"},{"name":"nonce","type":"uint256","internalType":"uint256"},{"name":"initCode","type":"bytes","internalType":"bytes"},{"name":"callData","type":"bytes","internalType":"bytes"},{"name":"accountGasLimits","type":"bytes32","internalType":"bytes32"},{"name":"preVerificationGas","type":"uint256","internalType":"uint256"},{"name":"gasFees","type":"bytes32","internalType":"bytes32"},{"name":"paymasterAndData","type":"bytes","internalType":"bytes"},{"name":"signature","type":"bytes","internalType":"bytes"}]},{"name":"","type":"bytes32","internalType":"bytes32"},{"name":"missingAccountFunds","type":"uint256","internalType":"uint256"}],"outputs":[{"name":"validationData","type":"uint256","internalType":"uint256"}],"stateMutability":"nonpayable"}],"bytecode":{"object":"0x608060405260018055604051610798380380610798833981810160405281019061002991906100dd565b805f5f6101000a81548173ffffffffffffffffffffffffffffffffffffffff021916908373ffffffffffffffffffffffffffffffffffffffff16021790555050610108565b5f5ffd5b5f73ffffffffffffffffffffffffffffffffffffffff82169050919050565b5f61009b82610072565b9050919050565b5f6100ac82610091565b9050919050565b6100bc816100a2565b81146100c6575f5ffd5b50565b5f815190506100d7816100b3565b92915050565b5f602082840312156100f2576100f161006e565b5b5f6100ff848285016100c9565b91505092915050565b610683806101155f395ff3fe608060405234801561000f575f5ffd5b506004361061004a575f3560e01c806319822f7c1461004e578063c19d93fb1461007e578063f115d40d1461009c578063fb0c2425146100cc575b5f5ffd5b6100686004803603810190610063919061037e565b6100ea565b60405161007591906103f9565b60405180910390f35b6100866102be565b60405161009391906103f9565b60405180910390f35b6100b660048036038101906100b1919061046c565b6102c4565b6040516100c391906103f9565b60405180910390f35b6100d46102e4565b6040516100e191906103f9565b60405180910390f35b5f5f5f9054906101000a900473ffffffffffffffffffffffffffffffffffffffff1673ffffffffffffffffffffffffffffffffffffffff1663b760faf983306040518363ffffffff1660e01b815260040161014591906104a6565b5f604051808303818588803b15801561015c575f5ffd5b505af115801561016e573d5f5f3e3d5ffd5b505050505060018460200135036101f6573073ffffffffffffffffffffffffffffffffffffffff1663fb0c24256103e86040518263ffffffff1660e01b81526004016020604051808303818786fa1580156101cb573d5f5f3e3d5ffd5b50505050506040513d601f19601f820116820180604052508101906101f091906104d3565b506102b4565b60028460200135036102b3575f848060e00190610213919061050a565b5f9060149261022493929190610574565b9061022f91906105ef565b60601c90503073ffffffffffffffffffffffffffffffffffffffff1663f115d40d6103e8836040518363ffffffff1660e01b815260040161027091906104a6565b6020604051808303818786fa15801561028b573d5f5f3e3d5ffd5b50505050506040513d601f19601f820116820180604052508101906102b091906104d3565b50505b5b5f90509392505050565b60015481565b5f8173ffffffffffffffffffffffffffffffffffffffff163b9050919050565b5f600154905090565b5f5ffd5b5f5ffd5b5f5ffd5b5f610120828403121561030f5761030e6102f5565b5b81905092915050565b5f819050919050565b61032a81610318565b8114610334575f5ffd5b50565b5f8135905061034581610321565b92915050565b5f819050919050565b61035d8161034b565b8114610367575f5ffd5b50565b5f8135905061037881610354565b92915050565b5f5f5f60608486031215610395576103946102ed565b5b5f84013567ffffffffffffffff8111156103b2576103b16102f1565b5b6103be868287016102f9565b93505060206103cf86828701610337565b92505060406103e08682870161036a565b9150509250925092565b6103f38161034b565b82525050565b5f60208201905061040c5f8301846103ea565b92915050565b5f73ffffffffffffffffffffffffffffffffffffffff82169050919050565b5f61043b82610412565b9050919050565b61044b81610431565b8114610455575f5ffd5b50565b5f8135905061046681610442565b92915050565b5f60208284031215610481576104806102ed565b5b5f61048e84828501610458565b91505092915050565b6104a081610431565b82525050565b5f6020820190506104b95f830184610497565b92915050565b5f815190506104cd81610354565b92915050565b5f602082840312156104e8576104e76102ed565b5b5f6104f5848285016104bf565b91505092915050565b5f5ffd5b5f5ffd5b5f5ffd5b5f5f83356001602003843603038112610526576105256104fe565b5b80840192508235915067ffffffffffffffff82111561054857610547610502565b5b60208301925060018202360383131561056457610563610506565b5b509250929050565b5f5ffd5b5f5ffd5b5f5f858511156105875761058661056c565b5b8386111561059857610597610570565b5b6001850283019150848603905094509492505050565b5f82905092915050565b5f7fffffffffffffffffffffffffffffffffffffffff00000000000000000000000082169050919050565b5f82821b905092915050565b5f6105fa83836105ae565b8261060581356105b8565b92506014821015610645576106407fffffffffffffffffffffffffffffffffffffffff000000000000000000000000836014036008026105e3565b831692505b50509291505056fea2646970667358221220af772405b55ae4895a6cac08ebfedd59245cc9db31b8d941a67bc67e011456cb64736f6c634300081e0033","linkReferences":{}},"methodIdentifiers":{"state()":"c19d93fb","touchPaymaster(address)":"f115d40d","touchStorage()":"fb0c2425","validateUserOp((address,uint256,bytes,bytes,bytes32,uint256,bytes32,bytes,bytes),bytes32,uint256)":"19822f7c"},"id":53}